:10000000A1C0000032C700000C940908B8C000006D
:10001000B6C00000B4C00000B2C00000B0C0000014
:10002000AEC00000ACC00000AAC000000C947F1558
:100030000C942916A4C00000A2C00000A0C00000BB
:100040009EC000009CC000009AC0000098C0000044
:1000500096C0000094C0000092C000000C943914B7
:100060008EC000008CC000008AC0000088C0000064
:1000700086C000008E16AA169B17AA169B17E216BA
:1000800006179B1759176C174E414E494E49545944
:10009000494E46CDCCCC3D0AD7233C17B7D1387753
:1000A000CC2B329595E6241FB14F0A000020410069
:1000B00000C84200401C4620BCBE4CCA1B0E5AAEB3
:1000C000C59D741C035200520041004D0020005495
:1000D0000065007300740063006800690070000030
:1000E000000C0349004300530052004C0000000480
:1000F00003090409023E00020100C03209040000A5
:100100000102020100052400011004240206052456
:10011000060001070582030800FF09040100020A26
:1001200000000007050402400001070583024000AB
:10013000011201100102000008EB034B2001000135
:1001400002DC010011241FBECFEFD4E0DEBFCDBF23
:1001500013E0A0E0B1E0E6E7F5E402C005900D92FF
:10016000AE34B107D9F724E0AEE4B3E001C01D928C
:10017000A530B207E1F70E949A130C94B92240CF40
:1001800085B12C9A2498249A95B19F7E8071892BF1
:1001900085B9089587ED8EBD0DB407FEFDCF1EBC59
:1001A0000DB407FEFDCF0EB407FEF9CFE9CF8EBD2B
:1001B0000DB407FEFDCFCB01AA27BB278EBD0DB422
:1001C00007FEFDCFBB27A72F962F852F8EBD0DB421
:1001D00007FEFDCF4EBD0DB407FEFDCF0895CF93B2
:1001E000DF9300D000D0CDB7DEB7FE013196CE014F
:1001F000059640918401509185016091860170912E
:10020000870149835A836B837C8321912EBD0DB472
:1002100007FEFDCFE817F907A1F7B2DF0F900F90A7
:100220000F900F90DF91CF91B5CFE6E1F1E0908193
:10023000992321F0981711F03E96F9CFCF01089538
:10024000279A3A9A2F9A8AE18A95F1F700C0429A42
:100250008AE18A95F1F700C02F988AE18A95F1F733
:1002600000C042988AE18A95F1F700C008952F985E
:100270008AE18A95F1F700C0429A8AE18A95F1F7FE
:1002800000C02F9A8AE18A95F1F700C027983A9822
:10029000089527E030E090E0AC01022E02C05595B1
:1002A00047950A94E2F740FF02C02F9A01C02F98A9
:1002B0004AE14A95F1F700C0429A4AE14A95F1F7BE
:1002C00000C042984AE14A95F1F700C02150310937
:1002D00018F72F9A8AE18A95F1F700C02798429A79
:1002E0009AE19A95F1F700C083B142984AE14A95A4
:1002F000F1F700C0279A881F8827881F0895CF9399
:10030000DF93D82FC62F9CDF88E7C3DF8D2FC1DF97
:100310008C2FBFDFDF91CF91AACFCF93C82F90DF73
:1003200088E7B7DF8C2FB5DF8BDF89E7B2DF2F9A45
:100330002AE12A95F1F700C0279887E090E0C0E015
:1003400041E050E0429A2AE12A95F1F700C01F9B54
:1003500007C09A01082E01C0220F0A94EAF702C0D2
:1003600020E030E0C22B42982AE12A95F1F700C044
:10037000019740F72F988AE18A95F1F700C0279AF4
:10038000429A2AE12A95F1F700C042988AE18A95BB
:10039000F1F700C02F9A2AE12A95F1F700C067DF34
:1003A0008C2FCF9108951F93CF93DF93182FD62FC3
:1003B000C42FB3DFC0958C23682F6D2B812FDF9165
:1003C000CF911F919CCF90E0981741F028B1205811
:1003D00028B928B1205828B99F5FF6CF0895469ACA
:1003E0003E9A82E3F0DF46983E9A82E3ECDF469A3B
:1003F0003E980895CF92DF92EF92FF920F931F9352
:10040000CF93DF936B017C013E9A042F10E0C0E094
:10041000D0E0C017D10799F0D701C6010C2E04C057
:10042000B695A795979587950A94D2F780FF02C055
:10043000469A01C0469881E0C6DF2196EACF469AE7
:100440003E98DF91CF911F910F91FF90EF90DF9039
:10045000CF900895569A5E9887EE93E00197F1F752
:1004600000C000005E9A56980895CF93DF93C6E1CE
:10047000D1E08881882309F440C08234A1F48AE560
:1004800093E00E9450226D837E838F8398872BE7B1
:1004900034E14EEC5FE30E94861A811102C05C9841
:1004A00017C05C9A15C0833499F486E593E00E94E6
:1004B00050226D837E838F83988720E030E040E870
:1004C0005FE30E94861A811102C05D9801C05D9AA7
:1004D0008985882341F08A859B850E9448224C812A
:1004E000682F8B8160DF8C859D850E9448224A8120
:1004F000682F898158DF2E96BCCFDF91CF91089568
:10050000EF92FF920F931F93CF93DF9300D000D011
:10051000CDB7DEB7FE013196CE0105964091880138
:100520005091890160918A0170918B0149835A83AE
:100530006B837C8321912EBD0DB407FEFDCF8E17FA
:100540009F07A1F702E613E082EAE82E83E0F82E87
:10055000C8010E9448228EBD0DB407FEFDCF0F5F7B
:100560001F4FE016F106A1F70BDE0F900F900F90D2
:100570000F90DF91CF911F910F91FF90EF900ACED6
:100580004F925F926F927F928F929F92AF92BF92A3
:10059000CF92DF92EF92FF92CF93DF9300D000D003
:1005A00000D0CDB7DEB79E838D83CB01A0E0B0E055
:1005B00089839A83AB83BC83812C912C80E8A82EFD
:1005C00080E4B82EAD81BE811596CD90DD90ED9082
:1005D000FC90189769817A818B819C810E94231BF2
:1005E0002B013C0120E030E040E85FE3C701B601A9
:1005F0000E94221A9B01AC01C301B2010E948A1A17
:1006000020E030E44EEC53E40E94211A20E030E078
:1006100048E451E40E948A1A0E94F21A862F67FF6A
:1006200044C0ED81FE8180818234F1F420E030E02D
:1006300040E850E4C701B6010E94861A811179C0D2
:100640008BE794E1AEECBFE3ED81FE818583968379
:10065000A783B087AC01BD018AE593E00E947122B7
:10066000F999FECF5C98AECF833409F062C026E6DC
:1006700036E646E350E4C701B6010E94861A8111AE
:1006800058C080E090E0A0E8BFE3ED81FE81858363
:100690009683A783B087AC01BD0186E593E00E94F5
:1006A0007122F999FECF5D988DCF60320CF444C071
:1006B000AD81BE818C918234E1F42BE734E14EECC4
:1006C0005FE3C701B6010E94861A811134C0ED8133
:1006D000FE8185829682A782B08640E050E060E885
:1006E00070E48AE593E00E947122F999FECF5C9A4A
:1006F00069CF833401F520E030E040E85FE3C701D3
:10070000B6010E94861A811116C086E696E6A6E317
:10071000B0E4ED81FE8185839683A783B087AC0129
:10072000BD0186E593E00E947122F999FECF5D9AA2
:1007300049CF80E001C08FE126960FB6F894DEBF66
:100740000FBECDBFDF91CF91FF90EF90DF90CF90A4
:10075000BF90AF909F908F907F906F905F904F90E1
:1007600008950F931F9321E02EBD0DB407FEFDCF1A
:100770008C01222733270EBD0DB407FEFDCF072FB6
:10078000182F292F33270EBD0DB407FEFDCF6EBDE8
:100790000DB407FEFDCF1F910F910895BF92CF9228
:1007A000DF92EF92FF920F931F93CF93DF93E8E7CF
:1007B000EE2EE1E0FE2EF7019081992309F48CC022
:1007C000891721F024E0E20EF11CF5CFB42E8B0145
:1007D000F701C280D380C6010E945522EC01F5E0EA
:1007E000BF1207C0053EFCE01F0708F049C0C80162
:1007F0001FC0CE01A0E0B0E024EE3CE040E050E0BD
:10080000BC01CD010E94511CDC01CB016CE0B5950F
:10081000A795979587956A95D1F723E0B2121BC0EB
:10082000B801680F791F653E8CE0780748F5CB0169
:10083000A0E0B0E0BC01CD015CE0660F771F881F2F
:10084000991F5A95D1F724EE3CE040E050E00E9419
:100850008C1CE90117C0E4E0BE1208C0BC01601B9B
:10086000710B653EFCE07F0758F4E1CF21E0B21246
:1008700002C0219607C082E0B81204C0219702C0CE
:10088000CFEFDFE0BE01C6010E947622F999FECFCC
:10089000F701828193810E945522F701218130E086
:1008A000322F22273295307F820F931F9F73259A14
:1008B0002D989EBD0DB407FEFDCF8EBD0DB407FE75
:1008C000FDCF2D9A2598269A95B180E4982795B961
:1008D00095B1892785B92698DF91CF911F910F9106
:1008E000FF90EF90DF90CF90BF9008954F925F926E
:1008F0006F927F928F929F92AF92BF92EF92FF92F0
:100900000F931F93CF93DF937B01D42F8EDC8C0149
:10091000FC018081882309F4E6C08381FEDCF801B4
:10092000C481C82385809680A780B0846C2F70E036
:1009300080E090E00E94231B20E030E048E451E496
:100940000E94D51B20E030E44EEC53E40E94221AB2
:100950002B013C0120E030E040E85FE3C501B40139
:100960000E94221A9B01AC01C301B2010E94D51B57
:100970000E94F71AD43011F4B70104C0D23031F418
:100980006E0D7F1DC801FCDDC82F9AC0D33019F44D
:100990006E197F09F7CFD11147C0CF3108F442C09B
:1009A000F80180818234E9F42BE734E14EEC5FE317
:1009B000C501B4010E94861A81117FC080E090E0D9
:1009C000A0E8B0E4F80185839683A783B087AC01E3
:1009D000BD018AE593E00E947122F999FECF5C9AED
:1009E0001FC0833409F069C020E030E040E85FE3D5
:1009F000C501B4010E94861A81115FC086E696E6A1
:100A0000A6E3B0E4F80185839683A783B087AC01A1
:100A1000BD0186E593E00E947122F999FECF5D9AAF
:100A2000C1E04EC0CF5F4CC0D13009F049C01C16A8
:100A30000CF441C0F80180818234E9F420E030E018
:100A400040E850E4C501B4010E94861A811137C004
:100A50008BE794E1AEECBFE3F80185839683A7832F
:100A6000B087AC01BD018AE593E00E947122F9993B
:100A7000FECF5C981EC0833411F526E636E646E3C9
:100A800050E4C501B4010E94861A811118C080E0AB
:100A900090E0A0E8BFE3F80185839683A783B08741
:100AA000AC01BD0186E593E00E947122F999FECF69
:100AB0005D98CEE105C0C15003C0CFE101C0C0E0E8
:100AC000F80144816C2F8381DF91CF911F910F91A9
:100AD000FF90EF90BF90AF909F908F907F906F901E
:100AE0005F904F9060CCDF91CF911F910F91FF905D
:100AF000EF90BF90AF909F908F907F906F905F909E
:100B00004F900895CF92DF92EF92FF9220E031E074
:100B1000611571058105910569F023276B017C0141
:100B200041E0C41AD108E108F1086C217D218E2131
:100B30009F21EECF822FFF90EF90DF90CF9008950E
:100B40003F924F925F926F927F928F929F92AF925D
:100B5000BF92CF92DF92EF92FF920F931F93CF93AA
:100B6000DF93C82F362E28013901C42EC694C694AF
:100B70006C2D70E080E090E0C5DFD82F632D70E031
:100B800080E090E0BFDFD8276C2F70E080E090E03D
:100B9000B9DFC1689C2F9329CC2DCC0FCC0FCC0F83
:100BA000C92B8D27C82EC294CC0C90EEC922CC2A1A
:100BB000D12CE12CF12C48E0C701B6011BDC81E00F
:100BC00002DCC0E0D0E0812C912C5401369B0DC09A
:100BD00081E090E0A0E0B0E00C2E04C0880F991FE7
:100BE000AA1FBB1F0A94D2F703C080E090E0DC018B
:100BF000882A992AAA2ABB2A81E0E5DB2196C330FC
:100C0000D10521F782E0881203C081E0DCDBD3CF7D
:100C1000311013C081E0D7DB40E2C301B201EADB4F
:100C2000C301B2016FDF682F70E080E090E041E027
:100C3000E1DBC12CD12C760127C0C0E0D0E0C12C73
:100C4000D12C7601812C912C54018394369B0BC0BE
:100C5000D501C4010C2E04C0880F991FAA1FBB1F09
:100C60000A94D2F703C080E090E0DC01C82AD92AB8
:100C7000EA2AFB2A81E0A7DB2196C032D10531F7B1
:100C800081E0A1DB81E09FDBC701B601DF91CF915D
:100C90001F910F91FF90EF90DF90CF90BF90AF909A
:100CA0009F908F907F906F905F904F903F900895AE
:100CB000CF92DF92EF92FF920F931F936B017C0113
:100CC00002E010E020E032E240E060E082E038DF65
:100CD0009701860144E060E082E032DF00E010E04E
:100CE00098014CE064E082E02BDF00E010E0980126
:100CF0004CE064E080E024DF1F910F91FF90EF90C3
:100D0000DF90CF9008958F929F92AF92BF92CF9233
:100D1000DF92EF92FF920F931F934B015C016901E9
:100D20007A0102E010E020E032E240E060E082E0A0
:100D300007DF9501840144E060E082E001DF970174
:100D400086014CE060E082E0FBDE00E010E098010C
:100D50004CE064E080E0F4DE1F910F91FF90EF9093
:100D6000DF90CF90BF90AF909F908F9008950F939A
:100D70001F9320E030E04FE550EA60EF7DEE80E029
:100D800090EEC1DF60EF7DEE80E090EE91DF00E05D
:100D900010E0980144E060E080E0D2DE00E010E086
:100DA000980144E064E080E0CBDEDC01CB018827E1
:100DB0009927AA27B07F892B8A2B8B2B79F71F9134
:100DC0000F910895CF92DF92EF92FF920F931F93AE
:100DD00006DB469A3E9A82E3F6DA40E16EE977EE68
:100DE00080E090E007DB469A3E9A82E3ECDA469A8E
:100DF0003E98F5DA00E010E0980140E064E080E021
:100E00009FDE6B017C0100E010E020E030E544E073
:100E100060E080E095DE00E010E0980144E064E0EE
:100E200080E08EDEDC01CB0188279927AA27B07FDE
:100E30000097A105B04F79F723E030E04FE550EA85
:100E400060EF7DEE80E090EE5EDF60EF7DEE80E0B3
:100E500090EE2EDF81FFF9CFC701B6011F910F91F0
:100E6000FF90EF90DF90CF9008951F920F920FB6F2
:100E70000F9211242F933F934F935F936F937F9320
:100E80008F939F93AF93BF93CF93DF93EF93FF9392
:100E9000489B85C060E08FE132DAE7DA2FEF39E670
:100EA00088E1215030408040E1F700C0000084B16B
:100EB000866084B984B1867F84B985B1896085B93B
:100EC0008CE58CBD8DB581608DBD469A3E98479866
:100ED0003F9A5E9A5698289A209888B1806388B97C
:100EE00087B1806387B98AE045989FE728E331E0BE
:100EF000915020403040E1F700C00000459A9FE744
:100F000028E331E0915020403040E1F700C000007C
:100F100044989FE728E331E0915020403040E1F7CA
:100F200000C00000449A9FE728E331E09150204040
:100F30003040E1F700C000008150B1F62D9A2598AD
:100F40002E9A2698C8E7D1E08881882331F040E0C6
:100F500060E070E023DC2496F7CF2C9A2498D0DA56
:100F60003ED90E94701588E090E09093CD00809368
:100F7000CC0086E08093CA001092C80088E180937C
:100F8000C900539A5A9A66DA209A289887EE93E015
:100F90000197F1F700C00000289A209827C05498C4
:100FA000559884B1897F84B985B1867F85B91CBC89
:100FB0001DBC46983E9847983F985E98289888B1FF
:100FC000806388B987B18F7C87B92D982E982C982B
:100FD0000E9427151092C9001092C8001092CA00F2
:100FE0001092CD001092CC0053985A98FF91EF9137
:100FF000DF91CF91BF91AF919F918F917F916F9131
:101000005F914F913F912F910F900FBE0F901F90C6
:1010100018951F920F920FB60F9211240F900FBECA
:101020000F901F9018954598FC019191992339F0E4
:101030008091C80085FFFCCF9093CE00F6CF459AF3
:1010400008952F923F924F925F926F927F928F926C
:101050009F92AF92BF92CF92DF92EF92FF920F9347
:101060001F93CF93DF93CDB7DEB7C055D1090FB62D
:10107000F894DEBF0FBECDBFE0914F03F0E0ED5A14
:10108000FC4F108269E272E083E593E00E94ED1D5F
:101090008E010F5F1F4F7801005E1F4F6701D60161
:1010A0008D939D936D0169E272E080E090E00E9473
:1010B000ED1DC016D10699F7E981FA81808180344F
:1010C00009F5EB81FC819081913411F00C941E1391
:1010D00003E913E0F80111928A95E9F768E971E0F4
:1010E000C8010E94F91DF80101900020E9F731972D
:1010F000AF0143595340B80180E091E00E947B1951
:101100000C941E13813409F011C1EB81FC818081A4
:10111000813419F460E08FE144C0823471F403E952
:1011200013E080E4D8011D928A95E9F785E1F5D8AE
:101130001F928F9387EB91E031C5833449F506E127
:1011400011E0D8018C91882311F40C941E13F8013E
:10115000818581110CC0D80111968C91DED8F801DF
:1011600062816823848595850E9463220CC08381F7
:10117000D4D8F80164816823828593850E94632214
:10118000F999FECFE8CFF999FECF025F1F4FD9CF73
:10119000843419F46AD90C941E13853429F460E060
:1011A0008EE1ADD80C941E13863469F4ED81FE8176
:1011B00080813BD8FC018081882311F40C941E139C
:1011C0006281462F0EC0873481F4ED81FE818081DB
:1011D0002CD8FC018081882311F40C941E134281C9
:1011E00060E08181E0D80C941E13883421F4ED81F5
:1011F000FE8140E005C0893431F4ED81FE8141E09B
:1012000060E070E023C08A3451F48D819E810E9499
:10121000C51D0E94F71AEF81F88542E017C08B3494
:1012200051F48D819E810E94C51D0E94F71AEF81A5
:10123000F88543E00BC08C3469F48D819E810E9457
:10124000C51D0E94F71AEF81F88544E080814EDBCE
:101250000C941E138D3411F00C94F01280E4E3E929
:10126000F3E0DF011D928A95E9F7ED80FE80F7013A
:1012700080810E9415018C01DC018C918823B9F1D9
:1012800019968C911997882391F113968C9145D8D2
:10129000F80164818623682F70E080E090E00E946E
:1012A000231B20E030E048E451E40E94D51B20E0FD
:1012B00030E44EEC53E40E94221A4B015C0120E022
:1012C00030E040E85FE3D80115966D917D918D91F6
:1012D0009C9118970E94221A9B01AC01C501B40190
:1012E0000E94D51B0E94F71A162F072F02C01FEF6E
:1012F0000FEFF70180810E9415017C01DC018C91C8
:10130000882341F011968C9108D8F70192818923A6
:1013100091E009F490E00F931F931F929F9383EA4B
:1013200091E09F938F9303E913E0DEC4823409F0C8
:1013300056C0EB81FC818081813421F4ED81FE81F6
:1013400041E005C0823449F4ED81FE8142E060E075
:1013500070E0808123DA0C941E13833441F48D8174
:101360009E810E94C81DEF81F88543E009C0843446
:1013700049F48D819E810E94C81DEF81F88544E06B
:10138000BC01E7CF853441F48D819E810E94C81D48
:10139000EF81F88545E0F4CF863411F00C94F0121B
:1013A00080E4E3E9F3E0DF011D928A95E9F7ED813E
:1013B000FE819081E8E7F1E08081882331F0981781
:1013C00011F40C9449133496F7CF20E08F932F93A8
:1013D00086EA91E09F938F9303E913E0E1C383349E
:1013E00009F0BEC3249A2C98EB81FC818081813462
:1013F000E9F487ED8EBD0DB407FEFDCF1EBC0DB424
:1014000007FEFDCF8EB51EBC0DB407FEFDCF9EB509
:1014100003E913E020E4F80111922A95E9F71F92FD
:101420009F931F928F9380EB91E07FC3823451F59D
:101430008FE98EBD0DB407FEFDCF1EBC0DB407FEB7
:10144000FDCF8EB51EBC0DB407FEFDCF9EB51EBCF4
:101450000DB407FEFDCF2EB503E913E030E4D8014B
:101460001D923A95E9F71F922F931F929F931F9217
:101470008F9389EA91E09F938F931F930F930E941C
:10148000311E59C38334D1F4FE01EF5BFF4FCF010E
:101490000496DF0120EF2C9311961C92119712965F
:1014A0001C92129713961C92139731913EBD0DB466
:1014B00007FEFDCF8E179F0771F74FC3843409F0E5
:1014C00022C10D811E8140E050E060E070E0C80163
:1014D0000E94AE1C6B017C01D8018C91823409F50D
:1014E0000F811885B8018EEB91E00E94F01D892BC9
:1014F00009F452C0B80181EC91E00E94F01D892BE3
:1015000009F453C0C8010E94C81D6C01990FEE0870
:10151000FF087601DD24CC24812C912C5401A39466
:1015200053C08334A9F48F8198850E94C81D6C0133
:10153000990FEE08FF084CE0CC0CDD1CEE1CFF1CE4
:101540004A95D1F7812C50E1952EA12CB12C3CC0AD
:101550008434A9F48F8198850E94C81D6C01990F6D
:10156000EE08FF0829E0CC0CDD1CEE1CFF1C2A95C0
:10157000D1F7812C32E0932EA12CB12C25C08534DB
:10158000F9F440E050E060E070E08F8198850E94BF
:10159000AE1C6B017C0114C0812C90E1992EA12C12
:1015A000B12CC12CD12C76010FC0812C00EF902ED4
:1015B000A12CB12CC12C80E1D82EE12CF12C04C03F
:1015C000812C912C54018394C701B601CAD8412CB7
:1015D000512C3201B3E92B2EB3E03B2E04EC11E089
:1015E000A5019401215031094109510961962CAF9F
:1015F0003DAF4EAF5FAF6197B301A2014F7055276A
:10160000662777272D964CAF5DAF6EAF7FAF2D97D6
:10161000452B462B472B41F5D101E0E41D92EA957D
:10162000E9F7D701C601840D951DA61DB71DBF930F
:10163000AF939F938F931F930F933F922F920E948C
:10164000311EF10101900020E9F73197AF014359B4
:10165000534063E973E080E091E00E947B190FB68C
:10166000F894DEBF0FBECDBFD101E0E41D92EA9534
:10167000E9F71EBC0DB407FEFDCF8EB51F928F9308
:1016800029EB31E03F932F933F922F920E94311E1E
:10169000F10101900020E9F73197AF014359534020
:1016A00063E973E080E091E00E947B190F900F9056
:1016B0000F900F900F900F902D966CAD7DAD8EAD6D
:1016C0009FAD2D976F3071058105910559F0619699
:1016D0008CAD9DADAEADBFAD619784159505A605EA
:1016E000B70529F46AE080E091E00E9497199FEF26
:1016F000491A590A690A790A84149504A604B70498
:1017000009F07ACF2AC28534E9F440E050E060E085
:1017100070E08D819E810E94AE1C6B017C0140E0D7
:1017200050E060E070E08F8198850E94AE1C162F1B
:10173000B701A60188E50E94D7001EBD0DB407FEC3
:10174000FDCF0BC2863409F074C0ED81FE8180812B
:101750008134D9F4FE01FD96CF010496DF0140915A
:101760008C0150918D0160918E0170918F014D938C
:101770005D936D937C93139721912EBD0DB407FE5D
:10178000FDCFE817F90799F74FC0823429F50F818B
:101790001885B8018EEB91E00E94F01D892B91F025
:1017A000B80181EC91E00E94F01D892B79F0C8010D
:1017B0000E94C81DAC01990F660B770BBA01552723
:1017C000442708C040E050E0BA0104C040E050E1C6
:1017D00060E070E08CE726C0833489F48F819885BF
:1017E0000E94C81DAC01990F660B770BFCE0440FFB
:1017F000551F661F771FFA95D1F780E513C0843413
:1018000009F0EEC68F8198850E94C81DAC01990F22
:10181000660B770BE9E0440F551F661F771FEA95AB
:10182000D1F781E80E94D7000E94C0000E94CA0040
:1018300094C1873409F04BC1ED81FE81F080A1E4B1
:10184000FA1203C00E94EF0088C1B2E4FB1219C073
:10185000FE01F996CE01CD964091900150919101F3
:10186000609192017091930149AF5AAF6BAF7CAF19
:1018700021912EBD0DB407FEFDCF8E179F07A1F756
:10188000D3CFE3E4FE12B3C087ED8EBD0DB407FEE7
:10189000FDCF80E4E3E9F3E0DF011D928A95E9F7EB
:1018A0001EBC0DB407FEFDCF0EB401FE03C064EDF7
:1018B00071E002C066EF71E083E993E00E94F91DD8
:1018C000E3E9F3E001900020E9F73197AF014359D4
:1018D000534063E973E080E091E00E947B190E942D
:1018E000C000FE01EB5BFF4FCF010496DF0122E356
:1018F0002C9311961C92119712961C921297139684
:101900001C92139731913EBD0DB407FEFDCF8E178B
:101910009F0771F7E12CF12C03E913E020E4722E0C
:1019200039E1A32E32E0B32E4BE2842E42E0942E16
:10193000F801472C11924A94E9F7C70107969F9343
:101940008F93FF92EF92BF92AF921F930F930E94DB
:10195000311EF80101900020E9F73197AF0143599A
:10196000534063E973E080E091E00E947B190FB679
:10197000F894DEBF0FBECDBF98E0C92ED12CD801A0
:10198000E72D1D92EA95E9F71EBC0DB407FEFDCFC9
:101990008EB51F928F939F928F921F930F930E94E9
:1019A000311EF80101900020E9F73197AF0143594A
:1019B000534063E973E080E091E00E947B19F1E01D
:1019C000CF1AD1080F900F900F900F900F900F909B
:1019D000B1F66AE080E091E00E94971928E0E20EFB
:1019E000F11C30E4E316F10409F0A2CFB6C0CF80B9
:1019F000D884B6018EEB91E00E94F01D892B01F591
:101A000082E693E00E94482244E4F41202C0806C13
:101A100004C055E4F51201C08F73682F82E693E08D
:101A20000E946322F999FECFF801CE01859640917C
:101A3000940150919501609196017091970134C085
:101A4000B60181EC91E00E94F01D892BA9F482E699
:101A500093E00E94482264E4F61202C0806304C04E
:101A600075E4F71201C08F7C682F82E693E00E9434
:101A70006322F999FECFD8CFC6010E94C81D8E59A6
:101A80009C4F6C010E94482294E4F91629F0A5E4C9
:101A9000FA1203C080E001C08FEF682FC6010E94D8
:101AA0006322F999FECFC0CF49A35AA36BA37CA3AD
:101AB00021912EBD0DB407FEFDCFE817F907A1F760
:101AC0000E94C0000E94CA000E94800246C0883462
:101AD00009F086C560E070E0CB010E94B10380E0B0
:101AE00090E0DC011EBC0DB407FEFDCF2EB52F3FEC
:101AF00061F40196A11DB11D0097E0E4AE07B105A8
:101B000089F73FEF4FEF8FEF03C09C014A2F8B2FD8
:101B100003E913E090E4D8011D929A95E9F78F93B9
:101B20004F933F932F9381E392E09F938F931F9363
:101B30000F930E94311EF80101900020E9F73197C0
:101B4000AF0143595340B80180E091E00E947B19F6
:101B50000FB6F894DEBF0FBECDBF2C9A24986EC589
:101B6000843409F050C0EB81FC818081813481F59F
:101B700040E050E060E070E08D819E810E94AE1CEC
:101B800003E913E020E4D8011D922A95E9F7CB017F
:101B90000E9448221F928F9386EA91E09F938F9331
:101BA0001F930F930E94311EF80101900020E9F766
:101BB0003197AF0143595340B80180E091E00E9452
:101BC0007B190F900F900F900F900F900F9036C5CC
:101BD000823409F005C540E050E060E070E08D819E
:101BE0009E810E94AE1C6B017C0140E050E060E0F1
:101BF00070E08F8198850E94AE1CC6010E9463220E
:101C0000F999FECF1BC5853491F5EB81FC8180816C
:101C1000813461F46D817E8185E392E00E94F01D44
:101C2000892B11F444980AC5459808C5823461F49B
:101C30006D817E8185E392E00E94F01D892B11F475
:101C4000449AFCC4459AFAC4833409F0C9C46D812E
:101C50007E8185E392E00E94F01D892B19F498B1F2
:101C600080E102C098B180E2892788B9E7C4863450
:101C700009F0B4C2EB81FC818081813469F4A2D87F
:101C800003E913E020E4F80111922A95E9F79F9304
:101C90008F937F936F9324C0823409F49CC2833462
:101CA000D1F540E050E060E070E08D819E810E94BF
:101CB000AE1C6B017C0186D8C701B6010E94580694
:101CC000F62EE72ED82EC92E52D803E913E080E471
:101CD000D8011D928A95E9F7CF92DF92EF92FF9299
:101CE00088E392E09F938F931F930F930E94311E7E
:101CF000F80101900020E9F73197AF0143595340B3
:101D0000B80180E091E00E947B190FB6F894DEBF25
:101D10000FBECDBF93C48434E1F440E050E060E0F6
:101D200070E08D819E810E94AE1C6B017C0140E0C1
:101D300050E060E070E08F8198850E94AE1C4B01FE
:101D40005C0140D8A5019401C701B6010E94830639
:101D500042C2853409F050C0E0E0CE2EE0E0DE2E35
:101D6000E12CF12CF4E16F2EA3E9AA2EA3E0BA2E08
:101D7000B0E47B2E80E4882E82E0982ED801E62DF8
:101D80001D92EA95E9F744E150E0B601C8010E94CE
:101D90003822C60144960E945522D501E72D1D9296
:101DA000EA95E9F79F938F931F930F93FF92EF921A
:101DB0009F928F92BF92AF920E94311EF5010190C7
:101DC0000020E9F73197AF014359534063E973E0CD
:101DD00080E091E00E947B19FFEFEF1AFF0A26E1F5
:101DE000C20ED11C0FB6F894DEBF0FBECDBF5AE0B5
:101DF000E516F10419F622C4863409F017C18D8165
:101E00009E810E94C81D8C010E94E2061127C80114
:101E100066E170E00E94401C8C5E9F4F0E9455223C
:101E20006C0163E9E62E63E0F62E80E4D7011D9293
:101E30008A95E9F7DF92CF921F930F9383E692E0A2
:101E40009F938F93FF92EF920E94311EF7010190B2
:101E50000020E9F73197AF0143595340B70180E0C3
:101E600091E00E947B190E94E2066BE580E091E020
:101E70000E9497190FB6F894DEBF0FBECDBF70E178
:101E8000F72E60E280E091E00E949719FA94F11039
:101E9000F8CF6DE580E091E00E9497196DE080E059
:101EA00091E00E9497196BE580E091E00E949719FC
:101EB00080E091E00E94E819C601A0E0B0E02C01AA
:101EC0003D0149E0440C551C661C771C4A95D1F72E
:101ED0002D964CAE5DAE6EAE7FAE2D97249A2C98AB
:101EE000C12CD12C760150E1352E2601370129EF86
:101EF000621A2FED720A2D968CAC9DACAEACBFACC5
:101F00002D978C0C9D1CAE1CBF1CD701C601917077
:101F1000AA27BB27892B8A2B8B2B51F40E94C00048
:101F2000B501A40144275E7F717084E80E94D70048
:101F3000C301B2010E9458066EBD0DB407FEFDCF6D
:101F4000472E582E692E77244EBC0DB407FEFDCFC8
:101F50002C01662477244EBC0DB407FEFDCF892FDB
:101F60009927AA27BB278EBD0DB407FEFDCF2601FA
:101F7000370134E0430E511C611C711CD301C201B6
:101F80009170AA27BB27892B8A2B8B2B71F40E9477
:101F9000C000B501A40144275E7F717083E80E94F0
:101FA000D7000E94C0000E94CA00D701C6019F70DE
:101FB000AA27BB27892B8A2B8B2B49F46EE380E061
:101FC00091E00E94971980E091E00E94E819C11009
:101FD00003C088B1832588B94114510441E06406E7
:101FE000710419F07301620180CF2C9A24986DE579
:101FF00080E091E00E9497196AE080E091E00E9401
:10200000971980E091E00E94E8190E94B706C80184
:1020100066E170E00E94401CBC016050704044E1E9
:1020200050E08F8198850E945A2208C3873409F0B6
:10203000D7C28D819E810E94C81D6C010E94E2065C
:10204000DD24C60166E170E00E94401C8C5E9F4F5B
:102050000E9455227C0103E913E080E4D8011D921F
:102060008A95E9F7FF92EF92DF92CF9288E892E0AB
:102070009F938F931F930F930E94311EF80101903D
:102080000020E9F73197AF0143595340B80180E090
:1020900091E00E947B190E94E2066BE580E091E0EE
:1020A0000E9497190FB6F894DEBF0FBECDBF10E1A6
:1020B00060E280E091E00E9497191150C9F76DE548
:1020C00080E091E00E9497196DE080E091E00E942D
:1020D00097196BE580E091E00E94971980E091E00C
:1020E0000E94E819249A2C98C701A0E0B0E0BC0136
:1020F000CD01A9E0660F771F881F991FAA95D1F718
:102100000E94B103C12CD12C760110E21EBC0DB48B
:1021100007FEFDCF2EB5822F90E0A0E0B0E01EBC00
:102120000DB407FEFDCF2EB5422F50E060E070E009
:102130008824942EA52EB62E1EBC0DB407FEFDCF0E
:102140006EB524013501662AB301A201482B592B33
:102150006A2B7B2B1EBC0DB407FEFDCF8EB59A01FA
:10216000AB01582BC701B601895F9F4D0E948306C2
:10217000D701C6019F70AA27BB27892B8A2B8B2BDF
:1021800049F46EE380E091E00E94971980E091E0CD
:102190000E94E819C11003C088B1812788B904E002
:1021A000C00ED11CE11CF11CC114D10421E0E206D7
:1021B000F10409F0ABCF2C9A24986DE580E091E012
:1021C0000E9497196AE080E091E00E94971980E0F0
:1021D00091E00E94E8190E94B70630C2873409F0E6
:1021E000E8C1EB81FC818081813409F058C04CED5D
:1021F000C42E40E0D42EE12CF12C58E1652E63E989
:10220000A62E63E0B62E70E4772EE0EB8E2EE2E091
:102210009E2ED801E62D1D92EA95E9F748E150E09F
:10222000B601C8010E943822C60148960E94482281
:10223000582EC60149960E944822D501E72D1D92CD
:10224000EA95E9F71F928F931F925F921F930F9366
:10225000FF92EF929F928F92BF92AF920E94311E97
:10226000F50101900020E9F73197AF014359534040
:1022700063E973E080E091E00E947B19FFEFEF1AC1
:10228000FF0A2AE1C20ED11C0FB6F894DEBF0FBEC2
:10229000CDBF58E1E516F10409F0BBCFCFC18234C0
:1022A00009F0F3C08D819E810E94C81D28E1D801EC
:1022B0001D922A95E9F799276AE170E00E94401C77
:1022C0007C01BC0164527F4F48E150E0C8010E948C
:1022D0003822C7018C509F4F0E944822D82EC70138
:1022E0008B509F4F0E944822C82E33E9E32E33E0E3
:1022F000F32E80E4F70111928A95E9F71F92CF92AD
:102300001F92DF921F930F9383ED92E09F938F9321
:10231000FF92EF920E94311EF70101900020E9F731
:102320003197AF0143595340B70180E091E0E3D7C3
:102330000E94E2066BE580E091E0F9D70FB6F894D1
:10234000DEBF0FBECDBF10E160E280E091E0EFD7CD
:102350001150D1F76DE580E091E0E9D76DE080E0C4
:1023600091E0E5D76BE580E091E0E1D780E091E096
:102370000E94E819249A2C988D2D90E0A0E0B0E0FE
:10238000772766270E94B103D12CE12CF12C8AE03B
:10239000CC0CDD1CEE1CFF1C8A95D1F72601370101
:1023A00094E076946794579447949A95D1F7812C4A
:1023B000912C540120E2322E8C149D04AE04BF04F3
:1023C00008F053C01EBC0DB407FEFDCF8EB590E0E3
:1023D000A0E0B0E01EBC0DB407FEFDCF2EB5422F2D
:1023E00050E060E070E00027142F252F362F2D9647
:1023F0000CAF1DAF2EAF3FAF2D971EBC0DB407FE27
:10240000FDCF2EB52D964CAD5DAD6EAD7FAD2D974C
:10241000622B482B592B6A2B7B2B1EBC0DB407FE5D
:10242000FDCF8EB59A01AB01582BC501B4010E94B6
:102430008306C501B401A30192010E946A1C672BA7
:10244000682B692B39F46EE380E091E070D780E06F
:1024500091E0BED7811003C088B1832588B954E0CC
:10246000850E911CA11CB11CA7CF2C9A24986DE558
:1024700080E091E05CD76AE080E091E058D780E0AE
:1024800091E0A6D70E94B70602C0833419F40E94D7
:102490002A02DCC0843409F0A3C07CEDC72E70E0B2
:1024A000D72EE8E12E2EF3E98F2EF3E09F2ED801F0
:1024B000E22D1D92EA95E9F748E150E0B601C80126
:1024C0000E943822C60148960E944822482E560192
:1024D000F9E1AF0EB11CC5010E944822382E512CE3
:1024E000612C712C320155244424249A2C98C30168
:1024F000B2010E94B103E12CF12C80E094E01EBCFB
:102500000DB407FEFDCF2EB52F3FC1F00E94C000D5
:10251000C701982F8827990FA3019201280F391F0F
:10252000411D511DCA01B9010E94B10332E0E30E01
:10253000F11CE11441E0F40601F702C00197F9F63D
:102540002C9A2498F694E7946E2DC5010E9463227C
:10255000D401E0E41D92EA95E9F7FF92EF921F9211
:102560003F921F930F9340E0442E43E0542E5F921E
:102570004F929F928F920E94311EF4010190002091
:10258000E9F73197AF014359534063E973E080E0C5
:1025900091E0B1D62AE1C20ED11C0FB6F894DEBF8D
:1025A0000FBECDBF6CE473E06C157D0509F07FCFE5
:1025B00045C088548230A0F4D7018D919D917D0152
:1025C000009731F00E94130889E292E00E941308FC
:1025D000E016F10689F78EEF92E00E94130836C0EC
:1025E00041E150E06FE273E080E091E084D68E013B
:1025F000055F1F4FF701619171917F0161157105B1
:1026000079F0FB0101900020E9F73197AF01461BFB
:10261000570B80E091E06FD660E280E091E087D6D2
:10262000E016F10639F74CE050E061E473E080E039
:1026300091E061D66AE080E091E079D680914E0326
:10264000811104C064E080E091E071D680E4E3E5AC
:10265000F3E0DF011D928A95E9F710924F03C05B0A
:10266000DF4F0FB6F894DEBF0FBECDBFDF91CF9125
:102670001F910F91FF90EF90DF90CF90BF90AF90A0
:102680009F908F907F906F905F904F903F902F9092
:102690000895828193810E945522BC0180E090E0E0
:1026A00024EE3CE040E050E00E94511CDC01CB01F4
:1026B0002CE0B595A795979587952A95D1F7282F62
:1026C000892F0C94E60984B7877F84BF0FB6F894EE
:1026D000A8958091600088618093600010926000EE
:1026E0000FBE789484E085BD2FB7F89484ED93E015
:1026F0009093F5038093F4039093F7038093F6038C
:102700002FBF5C98549A5D98559A589A5098599A48
:102710005198809169008C7F8160809369008091DD
:1027200069008B7F80936900E89AE99A48990C9434
:1027300035070895C8DF04ED13E0D3E080E091E0B1
:1027400055D697FD0FC08A3019F40E9421080AC09F
:10275000E0914F0391E09E0F90934F03F0E0ED5A0C
:10276000FC4F80838FB7F894C091F8038FBFA8996E
:1027700002C0CD3188F1A89A8091F803882301F135
:102780004498D09352031CC0E091F603F091F703F4
:102790006191F093F703E093F603E45FF34021F4D3
:1027A0001093F7030093F6039FB7F8948091F80312
:1027B00081508093F8039FBF80E091E0B8D5C1506D
:1027C000C111E2CF80915203882331F08150809370
:1027D0005203811101C0449A80E091E0F9D5AECF57
:1027E00080E091E041C580E091E0CEC4CF93DF93DB
:1027F000EC011092C9002F85388949895A89DA017C
:10280000C901B695A79597958795BC01CD016058EC
:102810007B47814E9F4F0E946A1C215031093093A3
:10282000CD002093CC008C89813021F0823021F4BE
:1028300080E203C080E301C080E09B89923009F40C
:1028400088609D89973031F0983031F0963029F4C6
:10285000826003C0846001C086608093CA0082E009
:102860008093C80088E98093C900DF91CF910895D3
:1028700008951F920F920FB60F9211242F933F933A
:102880004F935F936F937F938F939F93AF93BF9378
:10289000EF93FF938091CE0090914E038B3129F4FA
:1028A00081E0892780934E0331C0992381F08A30DB
:1028B00019F40E9421082AC0E0914F0391E09E0F75
:1028C00090934F03F0E0ED5AFC4F80831FC0E091DE
:1028D000F403F091F50380838091F4039091F50364
:1028E00001969093F5038093F403845F934031F451
:1028F00084ED93E09093F5038093F4039FB7F894ED
:102900008091F8038F5F8093F8039FBFFF91EF9151
:10291000BF91AF919F918F917F916F915F914F91F7
:102920003F912F910F900FBE0F901F901895292F58
:1029300033272230310559F02330310569F0213039
:102940003105E9F482E190E021E331E01CC08EE33F
:1029500090E023EF30E017C099278130910549F0CE
:1029600028F0029761F4E3ECF0E005C0EFEEF0E050
:1029700002C0E1EEF0E0849190E09F0104C080E0AD
:1029800090E020E030E0FA013183208308958093C5
:10299000E900EBEEF0E0808181608083EDEEF0E015
:1029A00010826093EC0040838091EE00881F88279E
:1029B000881F08958091FB0387FF0FC08091E80076
:1029C00082FD04C08EB38111F9CF10C08091E80060
:1029D0008B770AC08EB3882349F08091E80080FF8E
:1029E000F9CF8091E8008E778093E80008954091B8
:1029F000E4005091E50085E69091EC0090FF05C061
:102A00009091E80090FF05C01AC09091E80092FDF7
:102A100016C09EB39923A9F09530A9F09091EB00D0
:102A200095FD13C02091E4003091E500241735078F
:102A300019F3815011F0A901DFCF84E0089580E0FF
:102A4000089582E0089583E0089581E0089551D0CB
:102A500053D0E0EEF0E0808181608083E8EDF0E02B
:102A600080818F77808319BCE3E6F0E0808181600C
:102A700080831092FA0308953CD03ED08091D80014
:102A8000982F9F779093D80080688093D80084E037
:102A900089BD89B5826089BD09B400FEFDCF8091F2
:102AA000D8008F7D8093D8001EBA1092F90342E0BF
:102AB00060E080E06CDF8091E1008E7F8093E10038
:102AC0008091E20081608093E2008091E200886062
:102AD0008093E2008091E0008E7F8093E000089573
:102AE000E3E6F0E080818E7F808381E08093FA03CB
:102AF000C3CF1092E20008951092E10008951F9252
:102B00000F920FB60F9211242F933F934F935F9321
:102B10006F937F938F939F93AF93BF93EF93FF93A5
:102B20008091E10080FF1BC08091E20080FF17C010
:102B30008091E1008E7F8093E1008091E2008E7FA2
:102B40008093E2008091E20080618093E2008091B6
:102B5000D80080628093D80019BC1EBAF9D1809148
:102B6000E10084FF2DC08091E20084FF29C084E051
:102B700089BD89B5826089BD09B400FEFDCF809111
:102B8000D8008F7D8093D8008091E1008F7E809364
:102B9000E1008091E2008F7E8093E2008091E2006C
:102BA00081608093E2008091F903811106C08091D9
:102BB000E30087FD02C081E001C084E08EBBC8D184
:102BC0008091E10083FF26C08091E20083FF22C054
:102BD0008091E100877F8093E10082E08EBB1092BC
:102BE000F9038091E1008E7F8093E1008091E20003
:102BF0008E7F8093E2008091E20080618093E2000A
:102C000042E060E080E0C3DE8091F0008860809365
:102C1000F0009ED18091E10082FF0AC08091E20025
:102C200082FF06C08091E1008B7F8093E10090D10C
:102C3000FF91EF91BF91AF919F918F917F916F9194
:102C40005F914F913F912F910F900FBE0F901F906A
:102C500018951F920F920FB60F921124FF920F93A7
:102C60001F932F933F934F935F936F937F938F9314
:102C70009F93AF93BF93CF93DF93EF93FF93C9EEEF
:102C8000D0E088818770F82E188200EF10E0F801FC
:102C90008081877F808378941DD0F8941882F80112
:102CA000808188608083F882FF91EF91DF91CF91DE
:102CB000BF91AF919F918F917F916F915F914F9154
:102CC0003F912F911F910F91FF900F900FBE0F908A
:102CD0001F9018950F931F93CF93DF93CDB7DEB757
:102CE000AA970FB6F894DEBF0FBECDBFEBEFF3E0AF
:102CF00083E094E02091F10021938E179F07D1F794
:102D00008091FB039091FC03492F50E04A3051051C
:102D100008F011C1FA01E65CFF4F1AC6803809F4C9
:102D2000FBC0823809F007C18091FF038770809350
:102D3000E9008091EB001092E9009091E800977F04
:102D40009093E80085FB882780F98093F10010922A
:102D5000F100BBC0282F2D7F09F0EDC0823009F0B3
:102D6000DBC08091FD03811127C08091FF03877034
:102D700009F4D2C08093E9002091EB0020FF1CC031
:102D8000933021F48091EB00806214C09091EB00AD
:102D900090619093EB0021E030E0A90102C0440F64
:102DA000551F8A95E2F74093EA001092EA0080915D
:102DB000EB0088608093EB001092E9008091E800BE
:102DC000877F86C08111B7C01091FD031F770FB7B1
:102DD000F8948091E800877F8093E800EBDD809194
:102DE000E80080FFFCCF111102C082E001C083E047
:102DF0008EBB8091E3008078182B1093E3008091C4
:102E0000E30080688093E3000FBF86C08058823063
:102E100008F091C08091FD039091FE038C3D53E03A
:102E2000950779F583E08A838AE289833FB7F8942E
:102E3000DE01139690E02EE041E2E22FF0E04093B5
:102E40005700E49190FF03C0E295EF702F5FEF70A1
:102E500080E38E0F8A3310F0E95C01C0E82FF0E0C8
:102E6000ED93FD939F5F943141F73FBF8091E80060
:102E7000877F8093E8006AE270E0CE01019699D0E6
:102E800012C0AE014F5F5F4F6091FF0350DDBC0188
:102E9000892B09F441C09091E800977F9093E80056
:102EA00089819A81DED08091E8008B778093E80059
:102EB00033C0803809F03FC08091E800877F80935D
:102EC000E8008091F9038093F1008091E8008E770B
:102ED0008093E8006FDD20C081112DC08091FD033B
:102EE0009091FE0399270297BCF48091E800877FB8
:102EF0008093E8008091FD038093F9035BDD80916E
:102F0000F903811106C08091E30087FD02C081E0D2
:102F100001C084E08EBB64DC8091E80083FF0DC0BB
:102F20008091EB0080628093EB008091E800877FC6
:102F30008093E80002C057DCEFCFAA960FB6F89452
:102F4000DEBF0FBECDBFDF91CF911F910F910895CE
:102F50000895EF92FF920F931F93CF93DF938C010D
:102F6000EB017A0144DD81111DC02097D1F08091E1
:102F7000E80085FD0EC08091E8008E778093E80020
:102F8000E114F10479F3F7010995813059F785E0EF
:102F900009C0F80180818093F10021970F5F1F4FD6
:102FA000E4CF80E0DF91CF911F910F91FF90EF90E0
:102FB000089520910104309102042617370748F044
:102FC0006115710539F42091E8002E772093E8000F
:102FD00001C0B90140E06115710579F12EB32223DA
:102FE000E1F12530E1F12091E80023FD34C020918A
:102FF000E80022FD2AC02091E80020FFECCF2091BC
:10300000F20030E0FC01CF016115710559F0283064
:10301000310540F481918093F100615071092F5F77
:103020003F4FF1CF41E02830310509F040E02091D9
:10303000E8002E772093E800CECF4111CFCF05C016
:103040008EB3882351F0853051F08091E80082FFE3
:10305000F7CF80E0089581E0089582E0089583E04D
:10306000089520910104309102042617370748F093
:103070006115710539F42091E8002E772093E8005E
:1030800001C0B90140E06115710591F12EB3222311
:1030900009F43EC0253009F43DC02091E80023FD2D
:1030A00035C02091E80022FD2BC02091E80020FFD0
:1030B000EACF2091F20030E0FC01CF0161157105EB
:1030C00061F02830310548F484918093F10061501B
:1030D00071092F5F3F4F3196F0CF41E02830310525
:1030E00009F040E02091E8002E772093E800CBCF54
:1030F0004111CCCF05C08EB3882351F0853051F0FB
:103100008091E80082FFF7CF80E0089581E0089584
:1031100082E0089583E008956115710529F42091F6
:10312000E8002B772093E8006115710501F12EB3BB
:10313000222329F1253029F12091E80023FD1DC02B
:103140002091E80022FFF0CF2091F200222339F3F2
:1031500001962091F100FC013197208361507109A3
:1031600099F7DDCF8EB3882351F0853051F08091EF
:10317000E80080FFF7CF80E0089581E0089582E0C5
:10318000089583E008950895CF93DF932091E80098
:1031900023FF67C0FC01208130E04091FF03509184
:1031A00000044217530709F05CC0EC018091FC0356
:1031B000813251F018F48032E1F053C0823281F153
:1031C000833209F43EC04DC08091FB03813A09F07F
:1031D00048C08091E800877F8093E80067E070E056
:1031E000CF010F96E6DE8091E8008B778093E800B0
:1031F00038C08091FB038132A1F58091E800877F80
:103200008093E80067E070E0CF010F9685DF809142
:10321000E8008E778093E800CE01DF91CF91E6CA77
:103220008091FB038132E9F48091E800877F8093ED
:10323000E800C0DB8091FD038D87CE01DF91CF9147
:1032400017CB8091FB03813261F48091E800877F86
:103250008093E800AFDB6091FD03CE01DF91CF9159
:1032600092CFDF91CF9108951F93CF93DF93EC011D
:10327000FC013D9689E0DF011D928A95E9F711E096
:103280008981811305C0EA81FB818C8191E007C0AF
:103290008D81811306C0EE81FF81888590E062E018
:1032A0000DC08985811729F01F5F153049F781E02E
:1032B0001EC0EA85FB858C8591E063E0811184E086
:1032C00028E030E040E02E173F0720F44F5F220F48
:1032D000331FF9CF4295407F8260482B6295660F7D
:1032E000660F607C692B812F52DB8111DDCFDF916E
:1032F000CF911F9108950F931F93FC01CB01BA0149
:103300002EB3243081F40785108921893289012B5D
:10331000022B032B41F021812093E90040E050E093
:103320001F910F9116CE82E01F910F9108950F9378
:103330001F93CF932EB32430F1F4FC01078510893D
:1033400021893289012B022B032BA9F0C62F818101
:103350008093E9008091E80085FF04C0C093F100EC
:1033600080E00AC08091E8008E778093E8003FDB20
:103370008823A1F301C082E0CF911F910F9108959E
:103380002EB3243019F5FC01478550896189728973
:10339000452B462B472BD1F081818093E90080910A
:1033A000F200882389F09091E8008091E8008E7700
:1033B0008093E80095FD08C01ADB811108C0809158
:1033C000E8008E778093E80080E0089582E0089519
:1033D0002EB3243051F4FC014785508961897289EC
:1033E000452B462B472B09F0CBCF08952EB3243025
:1033F00019F08FEF9FEF0895FC014785508961898F
:103400007289452B462B472BA1F385818093E900D8
:103410008091E80082FFEDCF8091F200882321F0B7
:103420002091F10030E002C02FEF3FEF8091F200D9
:10343000811105C08091E8008B778093E800C90175
:1034400008955058BB27AA270ED075C166D130F019
:103450006BD120F031F49F3F11F41EF45BC10EF4E8
:10346000E095E7FB51C1E92F77D180F3BA176207E6
:1034700073078407950718F071F49EF58FC10EF459
:10348000E0950B2EBA2FA02D0B01B90190010C0174
:10349000CA01A0011124FF27591B99F0593F50F48C
:1034A000503E68F11A16F040A22F232F342F4427E4
:1034B000585FF3CF469537952795A795F0405395DC
:1034C000C9F77EF41F16BA0B620B730B840BBAF0AC
:1034D0009150A1F0FF0FBB1F661F771F881FC2F717
:1034E0000EC0BA0F621F731F841F48F4879577952B
:1034F0006795B795F7959E3F08F0B3CF9395880FE2
:1035000008F09927EE0F979587950895D9D008F47C
:1035100081E008950CD00FC107D140F0FED030F00B
:1035200021F45F3F19F0F0C0511139C1F3C014D13B
:1035300098F39923C9F35523B1F3951B550BBB277A
:10354000AA2762177307840738F09F5F5F4F220F27
:10355000331F441FAA1FA9F333D00E2E3AF0E0E820
:1035600030D091505040E695001CCAF729D0FE2F6C
:1035700027D0660F771F881FBB1F261737074807FE
:10358000AB07B0E809F0BB0B802DBF01FF279358B4
:103590005F4F2AF09E3F510568F0B6C000C15F3F03
:1035A000ECF3983EDCF3869577956795B795F7959C
:1035B0009F5FC9F7880F911D9695879597F9089594
:1035C000E1E0660F771F881FBB1F62177307840730
:1035D000BA0720F0621B730B840BBA0BEE1F88F73F
:1035E000E095089504D06894B111D9C00895BCD075
:1035F00088F09F5790F0B92F9927B751A0F0D1F0DC
:10360000660F771F881F991F1AF0BA95C9F712C065
:10361000B13081F0C3D0B1E00895C0C0672F782FDA
:103620008827B85F39F0B93FCCF3869577956795D1
:10363000B395D9F73EF490958095709561957F4F3D
:103640008F4F9F4F0895E89409C097FB3EF49095E3
:103650008095709561957F4F8F4F9F4F9923A9F06B
:10366000F92F96E9BB279395F695879577956795FA
:10367000B795F111F8CFFAF4BB0F11F460FF1BC03E
:103680006F5F7F4F8F4F9F4F16C0882311F096E9D1
:1036900011C0772321F09EE8872F762F05C066237F
:1036A00071F096E8862F70E060E02AF09A95660F38
:1036B000771F881FDAF7880F9695879597F90895F1
:1036C000990F0008550FAA0BE0E8FEEF1616170633
:1036D000E807F907C0F012161306E407F50798F09B
:1036E000621B730B840B950B39F40A2661F0232BB4
:1036F000242B252B21F408950A2609F4A140A69530
:103700008FEF811D811D089597F99F6780E870E014
:1037100060E008959FEF80EC089500240A94161647
:10372000170618060906089500240A9412161306AF
:10373000140605060895092E0394000C11F488233D
:1037400052F0BB0F40F4BF2B11F460FF04C06F5F59
:103750007F4F8F4F9F4F089557FD9058440F551F2F
:1037600059F05F3F71F04795880F97FB991F61F003
:103770009F3F79F087950895121613061406551F7A
:10378000F2CF4695F1DF08C0161617061806991FE6
:10379000F1CF86957105610508940895E894BB27DB
:1037A00066277727CB0197F908950AD0C4CFB5DFF4
:1037B00028F0BADF18F0952309F0A6CFABCFEFCFF2
:1037C000CBDFA8F39923D9F35523C9F3950F50E024
:1037D000551FAA27EE27FF27BB27002408946795CB
:1037E00020F4E20FF31FB41F0A1E220F331F441FE1
:1037F000AA1F6695A9F7779530F4F30FB41F0A1E38
:10380000121E08F46395330F441FAA1F221F7695DA
:1038100099F7879520F4B40F0A1E121E631F440FF8
:10382000AA1F221F331F8695A9F7862F712D602DA1
:1038300011249F5750408AF0E1F088234AF0EE0FA0
:10384000FF1FBB1F661F771F881F91505040A9F7AD
:103850009E3F510570F058CFA2CF5F3FECF3983EEA
:10386000DCF3869577956795B795F795E7959F5F14
:10387000C1F7FE2B880F911D9695879597F90895AE
:103880000024552704C0080E591F880F991F009760
:1038900029F076956795B8F37105B9F7802D952FC6
:1038A0000895EE27FF27AA27BB2708C0A20FB31F42
:1038B000E41FF51F220F331F441F551F9695879550
:1038C0007795679598F37040A9F7009799F7BD0130
:1038D000CF010895A1E21A2EAA1BBB1BFD010DC04A
:1038E000AA1FBB1FEE1FFF1FA217B307E407F507B0
:1038F00020F0A21BB30BE40BF50B661F771F881F8C
:10390000991F1A9469F760957095809590959B0121
:10391000AC01BD01CF010895052E97FB16F400946C
:103920000FD057FD05D0D6DF07FC02D046F408C003
:1039300050954095309521953F4F4F4F5F4F0895DB
:1039400090958095709561957F4F8F4F9F4F08950B
:10395000EE0FFF1F0590F491E02D0994A6E0B0E072
:10396000E3EBFCE1CFC55C016B017A0161157105E8
:1039700019F0DB018D939C93E114F10429F0C70148
:103980000297839708F0F1C085010F5F1F4FF50183
:10399000F081FD838F2F90E018D1892B11F0580111
:1039A000F3CF2D812D3249F40F5F1F4FD5011196B2
:1039B000BC91BD83E1E0EE830BC0FD81FB3239F4A5
:1039C00085010E5F1F4FD5011196BC91BD831E82EC
:1039D000E114F104A9F0E0E1EE16F10419F4CDC010
:1039E000E0E3ED83FAE0EF16F10409F441C020E1D1
:1039F000E216F104A9F038E0E316F10451F51FC016
:103A0000FD81F03391F5D8018C918F7D883591F44B
:103A10001196BC91BD830E5F1F4FEE81E260EE8375
:103A200040E1E42EF12C88248A94982CA82C5FE0A5
:103A3000B52E24C0E114F10499F640E34D8328E04B
:103A4000E22EF12C88248A94982CA82C3FE1B32EE6
:103A500015C06FEF7FEFCB0197010F2C000C440BCB
:103A6000550B38DF49015A0109C08AE0E82EF12CD4
:103A700099E9892E982CA82C99E1B92E80E020E0B4
:103A800030E0A90127010F2C000C66087708180107
:103A90009D81905399839A3078F09D8191549A3109
:103AA00020F4AD81A753A98307C09D8191569A3117
:103AB00090F5BD81B755B983E9816E2F70E06E1521
:103AC0007F054CF58F3F09F182169306A406B506D3
:103AD000C8F0C301B201E5DE3981232F30E040E0B8
:103AE00050E029833A834B835C83260F371F481F9E
:103AF000591F89819A81AB81BC81281739074A07F0
:103B00005B0710F48FEF01C081E00F5F1F4FD10101
:103B1000BC91BD83BCCFC114D10481F0882331F0A6
:103B200001501109F6011183008308C0FE81F1FFE5
:103B300005C002501109D6010D931C93BE81B0FF40
:103B400007C050954095309521953F4F4F4F5F4F9F
:103B50008F3F81F482E290E0909304048093030409
:103B60006FEF7FEF8FEF9FEF0DC060E070E080E0C0
:103B700090E008C0B901CA0105C02D81203309F0C9
:103B80004FCF41CF2696E2E1D9C4662777275BC2A3
:103B9000FC0188279927E89421912032E9F3293004
:103BA00010F02E30C8F32B3239F02D3231F46894F6
:103BB00003C04DD0820F911D219120532A30C8F3AC
:103BC0001EF4909581959F4F0895911184C3803282
:103BD00019F089508550D0F7089540E553E010C0A2
:103BE000FB01DC018D91019080190110D9F3990B33
:103BF0000895FB01DC0101900D920020E1F708958A
:103C0000FA01A191B081009719F41097E1F0CD016C
:103C1000DC01CD010D90002011F4C00113C0FB01A7
:103C20002191222319F02015D9F7F3CFFB0121911F
:103C3000201519F41E92119606C02223C1F70D908B
:103C40000020A1F7D001FA01A193B0830895BC012F
:103C5000880F991F880F991F860F971F880F991F2C
:103C60000895AEE0B0E0E6E3FEE15AC40D891E8996
:103C700086E08C831A8309838FEF9FE79E838D8371
:103C8000AE01475E5F4F6F89788DCE01019608D0F7
:103C9000EF81F885E00FF11F10822E96E4E05CC4FE
:103CA000ABE0B0E0E5E5FEE12DC46C017B018A01EB
:103CB000FC0117821682838181FFC0C1CE0101966B
:103CC0003C01F6019381F70193FD859193FF81916A
:103CD0007F01882309F4AEC1853239F493FD8591C3
:103CE00093FF81917F01853221F4B60190E024D3C6
:103CF000E8CF912C212C312CFFE1F315E0F08B3231
:103D000079F038F4803279F08332A9F4232D2061E0
:103D100010C08D3259F0803371F4232D216009C019
:103D2000832D8260382EE32DE46022C0F32DF860ED
:103D300025C0322E27C037FC2DC020ED280F2A3099
:103D400088F436FE06C0892D6AE0D3D3922E980EF1
:103D500019C0822D6AE0CDD3222E280E832D8062D9
:103D6000382E10C08E3231F436FC64C1E32DE0648D
:103D70003E2E08C08C3621F4F32DF0683F2E02C091
:103D8000883641F4F70193FD859193FF81917F017E
:103D90008111B2CF982F9F7D9554933028F40C5FFA
:103DA0001F4F2FE329830DC0833631F0833771F025
:103DB000833509F055C020C0F801808189830E5FEA
:103DC0001F4F88248394912C530112C02801F2E0E4
:103DD0004F0E511CF801A080B18036FE03C0692D42
:103DE00070E002C06FEF7FEFC5019BD24C018201F2
:103DF000F32DFF773F2E15C0280122E0420E511C03
:103E0000F801A080B18036FE03C0692D70E002C0C9
:103E10006FEF7FEFC5017AD24C01F32DF0683F2E92
:103E2000820133FC19C0822D90E088169906A0F417
:103E3000B60180E290E080D22A94F5CFF50137FCFC
:103E4000859137FE81915F01B60190E075D2211016
:103E50002A9421E0821A91088114910479F7E1C033
:103E6000843611F0893639F5F80137FE07C06081D4
:103E70007181828193810C5F1F4F08C060817181C5
:103E8000072E000C880B990B0E5F1F4FF32DFF764A
:103E90003F2E97FF09C090958095709561957F4F53
:103EA0008F4F9F4FF0683F2E2AE030E0A30180D271
:103EB000882E861844C0853731F4232D2F7EB22EEC
:103EC0002AE030E025C0932D997FB92E8F36C1F0BE
:103ED00018F4883579F0AEC0803719F0883721F0B2
:103EE000A9C0E92FE061BE2EB4FE0DC0FB2DF46029
:103EF000BF2E09C034FE0AC0292F2660B22E06C08C
:103F000028E030E005C020E130E002C020E132E0EE
:103F1000F801B7FE07C060817181828193810C5FD7
:103F20001F4F06C06081718180E090E00E5F1F4FDF
:103F3000A3013ED2882E8618FB2DFF773F2E36FE3A
:103F40000DC0232D2E7FA22E891458F434FE0BC0F1
:103F500032FC09C0832D8E7EA82E05C0B82CA32C60
:103F600003C0B82C01C0B92CA4FE0FC0FE01E80D9F
:103F7000F11D8081803321F49A2D997EA92E09C0EC
:103F8000A2FE06C0B394B39404C08A2D867809F0CB
:103F9000B394A3FC10C0A0FE06C0B21480F4280C99
:103FA000922C9B180DC0B21458F4B60180E290E038
:103FB000C3D1B394F8CFB21418F42B1802C0982CC4
:103FC000212CA4FE0FC0B60180E390E0B5D1A2FE83
:103FD00016C0A1FC03C088E790E002C088E590E02D
:103FE000B6010CC08A2D867851F0A1FE02C08BE28A
:103FF00001C080E2A7FC8DE2B60190E09DD189145A
:1040000030F4B60180E390E097D19A94F8CF8A9487
:10401000F301E80DF11D8081B60190E08DD1811092
:10402000F6CF222009F44DCEB60180E290E084D193
:104030002A94F7CFF6018681978102C08FEF9FEF18
:104040002B96E2E17BC2A0E0B0E0E8E2F0E260C2E1
:10405000EC017B016115710519F0FB0191838083EF
:104060006E01FFEFCF1ADF0A0881802F90E0ADDDEF
:10407000892B11F0E601F4CF0D3239F46E0132E0F4
:10408000C30ED11C098111E008C00B3229F46E0166
:1040900052E0C50ED11C098110E0E601219743E0F2
:1040A00050E060E970E0CE0119D1892BB9F4239674
:1040B00045E050E06BE870E0CE0110D1892B09F4A7
:1040C0002596E114F10419F0F701D183C083111191
:1040D000F5C060E070E080E89FE7F9C043E050E0A1
:1040E00068E870E0CE01FAD0892B51F4E114F104B4
:1040F00009F4E9C0C6010296F70191838083E3C009
:1041000060E070E0CB01C0E0D0E0F60130ED300FB0
:104110003A3078F5212F2260A12FA87012FF04C039
:10412000A1112DC021962BC0A11121974B015C013B
:10413000B2E0880C991CAA1CBB1CBA95D1F7AB0144
:10414000BC01480D591D6A1D7B1D440F551F661F7C
:10415000771FCB01BA01630F711D811D911D683955
:1041600039E97307830739E1930748F0212F266067
:1041700006C03E3F51F413FD40C0212F28605FEF81
:10418000C51AD50A0081122FC0CF202F2F7D2534CC
:10419000A1F540814D3211F4106106C04B3221F07F
:1041A000319621E030E004C04181329622E030E0D7
:1041B00040534A3018F0E21BF30B1FC020E030E000
:1041C00020385CE035075CF4D901AA0FBB1FAA0FA9
:1041D000BB1F2A0F3B1F220F331F240F311D3196A7
:1041E000DF0111974C9140534A3050F314FF03C044
:1041F000319521953109C20FD31F11FF09C0E11478
:10420000F10431F09F0121503109F70131832083FE
:104210001ADA212F2370233019F04B015C0106C0FC
:104220004B015C01B7FAB094B7F8B09420E030E0ED
:10423000A901C501B4016AD9882309F43CC0D7FF9C
:1042400006C0D195C195D10907EA10E002C00FEB75
:1042500010E06801F8E1CF1AD10890E2E92EF12CC4
:10426000CE15DF056CF0F8012591359145915491FB
:10427000C501B4019ADA4B015C01CE19DF09F0CF18
:1042800004501109F594E7940C151D0549F78A2D82
:10429000880F8B2D881F8F3F41F020E030E0A9016F
:1042A000C501B40133D9811106C082E290E0909338
:1042B000040480930304C501B40109C060E070E008
:1042C00080E89FEF04C060E070E080EC9FE7CDB72E
:1042D000DEB7ECE039C1992788270895FB01DC019E
:1042E0004150504088F08D9181341CF08B350CF496
:1042F000805E659161341CF06B350CF4605E861B4A
:10430000611171F3990B0895881BFCCFFC01059096
:10431000615070400110D8F7809590958E0F9F1FC7
:104320000895FC016150704001900110D8F780950C
:1043300090958E0F9F1F08950F931F93CF93DF9338
:10434000FB01238121FD03C08FEF9FEF2CC022FFD3
:1043500016C046815781248135814217530744F4A2
:10436000A081B1819D012F5F3F4F318320838C93CA
:10437000268137812F5F3F4F3783268314C08B01FF
:10438000EC01FB010084F185E02D0995892BE1F614
:10439000D80116968D919C911797019617969C932C
:1043A0008E931697CE01DF91CF911F910F910895B3
:1043B000FA01AA27283061F1203191F1E8946F9336
:1043C0006E7F6E5F7F4F8F4F9F4FAF4FB1E040D0FA
:1043D000B4E03ED0670F781F891F9A1FA11D680F98
:1043E000791F8A1F911DA11D6A0F711D811D911DCD
:1043F000A11D22D009F468943F91062E000C3019BB
:10440000000C000C3019305D3193CEF6CF010895C9
:10441000462F4770405D4193B3E00FD0C9F7F6CF08
:10442000462F4F70405D4A3318F0495D31FD4052D0
:10443000419302D0A9F7EACFB4E0A6959795879566
:1044400077956795BA95C9F7009761057105089545
:104450009B01AC010A2E06945795479537952795F1
:10446000BA95C9F7620F731F841F951FA01D089589
:10447000DC01CB01FC01F999FECF06C0F2BDE1BD24
:10448000F89A319600B40D9241505040B8F7089513
:10449000F999FECF92BD81BDF89A992780B508950C
:1044A000A6E1B0E044E050E0E5CFA8E1B0E042E0B2
:1044B00050E0E0CFDC01CB0102C02D9105D041508E
:1044C0005040D8F70895262FF999FECF1FBA92BD14
:1044D00081BD20BD0FB6F894FA9AF99A0FBE0196E5
:1044E0000895242FF1DF252FEFDF00C0ECDF272F09
:1044F000EBCF002480FD060E660F11F08695D1F7F4
:10450000802D08952F923F924F925F926F927F92EB
:104510008F929F92AF92BF92CF92DF92EF92FF92D3
:104520000F931F93CF93DF93CDB7DEB7CA1BDB0B7F
:104530000FB6F894DEBF0FBECDBF09942A88398824
:1045400048885F846E847D848C849B84AA84B9842B
:10455000C884DF80EE80FD800C811B81AA81B98137
:10456000CE0FD11D0FB6F894DEBF0FBECDBFED014B
:064570000895F894FFCF4E
:1045760000034000000440000002080000000000A4
:104586000000000000004101800A1F000080400179
:10459600550351034202800C1F7B14CE3F01540386
:1045A60050034303800E1F7B14CE3F0153034F037A
:1045B600440480101F0000803F0152034E0345054E
:1045C600040000000000000000004D034606040041
:1045D60000000000000000004C0300000000000086
:1045E60000000000000000004102600342035E0379
:1045F600000000003D2A7FA93D2A7FFCC794809ACF
:104606003D2A7F9A3D2A7FCF31312E30332E3230EC
:104616003231002564202564003078253032582058
:1046260030782530325820307825303258003061C5
:104636000030620044465B30782530346C585D3A71
:10464600203078005B494E464F5D20536563746F9A
:10465600722050726F74656374696F6E20456E6167
:10466600626C65640A005B494E464F5D2053656384
:10467600746F722050726F74656374696F6E204434
:10468600697361626C65640A00536563746F725B7B
:104696002532757E2532755D3A2000253032582048
:1046A60000256C640054580030782530386C58006A
:1046B6006368697020232575207361766564206FB1
:1046C6006E202531307320402070616765202532C9
:1046D600750A005B494E464F5D20536176696E67E9
:1046E60020746F2063686970202325752040207030
:1046F6006167652025750A005B494E464F5D204C73
:104706006F6164696E672066726F6D206368697099
:1047160020232575204020706167652025750A00D5
:10472600253275202D20252D3234732040207365C7
:1047360063746F72202532752028253375204B420D
:10474600290A005B494E464F5D204C6F6164696ED5
:104756006720222573222066726F6D20736563744D
:104766006F722025752028253375204B42290A00B3
:104776005B494E464F5D205570646174696E6720D3
:1047860022252D323473222066726F6D20253375F3
:10479600204B42202D3E20253375204B420A0055E2
:1047A6006E6B6E6F776E20436F6D6D616E643A202F
:0E47B600002846726F6D2041746D656C2900FD
:00000001FF
