:10000000A1C0000000C70000C4C70000B8C00000C5
:10001000B6C00000B4C00000B2C00000B0C0000014
:10002000AEC00000ACC00000AAC000000C940816CE
:100030000C94B216A4C00000A2C00000A0C0000032
:100040009EC000009CC000009AC0000098C0000044
:1000500096C0000094C0000092C000000C94C2142E
:100060008EC000008CC000008AC0000088C0000064
:1000700086C00000171733172418331724186B177E
:100080008F172418E217F5174E414E494E4954591F
:10009000494E46CDCCCC3D0AD7233C17B7D1387753
:1000A000CC2B329595E6241FB14F0A000020410069
:1000B00000C84200401C4620BCBE4CCA1B0E5AAEB3
:1000C000C59D741C035200520041004D0020005495
:1000D0000065007300740063006800690070000030
:1000E000000C0349004300530052004C0000000480
:1000F00003090409023E00020100C03209040000A5
:100100000102020100052400011004240206052456
:10011000060001070582030800FF09040100020A26
:1001200000000007050402400001070583024000AB
:10013000011201100102000008EB034B2001000135
:1001400002DC010011241FBECFEFD4E0DEBFCDBF23
:1001500013E0A0E0B1E0E8E8F6E402C005900D92FB
:10016000AE38B107D9F724E0AEE8B3E001C01D9284
:10017000A534B207E1F70E9423140C94422340CF28
:1001800085B12C9A2498249A95B19F7E8071892BF1
:1001900085B9089587ED8EBD0DB407FEFDCF1EBC59
:1001A0000DB407FEFDCF0EB407FEF9CFE9CF8EBD2B
:1001B0000DB407FEFDCFCB01AA27BB278EBD0DB422
:1001C00007FEFDCFBB27A72F962F852F8EBD0DB421
:1001D00007FEFDCF4EBD0DB407FEFDCF0895CF93B2
:1001E000DF9300D000D0CDB7DEB7FE013196CE014F
:1001F000059640918A0150918B0160918C0170911C
:100200008D0149835A836B837C8321912EBD0DB46C
:1002100007FEFDCFE817F907A1F7B2DF0F900F90A7
:100220000F900F90DF91CF91B5CF4F925F926F9269
:100230007F928F929F92AF92BF92CF92DF92EF9276
:10024000FF92CF93DF9300D000D000D0CDB7DEB7C0
:100250009E838D83CB01A0E0B0E089839A83AB833A
:10026000BC83812C912C80E8A82E80E4B82EAD812F
:10027000BE811596CD90DD90ED90FC901897698128
:100280007A818B819C810E94AC1B2B013C0120E078
:1002900030E040E85FE3C701B6010E94AB1A9B0162
:1002A000AC01C301B2010E94131B20E030E44EEC0C
:1002B00053E40E94AA1A20E030E048E451E40E948E
:1002C000131B0E947B1B862F67FF34C0ED81FE81CC
:1002D00080818234B1F420E030E040E850E4C7018E
:1002E000B6010E940F1B811156C08BE794E1AEEC62
:1002F000BFE3ED81FE8185839683A783B0875C98F9
:10030000B6CF833409F047C026E636E646E350E42C
:10031000C701B6010E940F1B81113DC080E090E033
:10032000A0E8BFE3ED81FE8185839683A783B08734
:100330005D989DCF603294F1AD81BE818C91823405
:1003400091F42BE734E14EEC5FE3C701B6010E9464
:100350000F1B811122C0ED81FE8185829682A782CA
:10036000B0865C9A84CF8334C1F420E030E040E86A
:100370005FE3C701B6010E940F1B81110EC086E624
:1003800096E6A6E3B0E4ED81FE8185839683A7839C
:10039000B0875D9A6CCF80E001C08FE126960FB6E2
:1003A000F894DEBF0FBECDBFDF91CF91FF90EF90ED
:1003B000DF90CF90BF90AF909F908F907F906F9085
:1003C0005F904F900895E6E1F1E09081992321F04C
:1003D000981711F03E96F9CFCF010895279A3A9ACF
:1003E0002F9A85E08A95F1F70000429A85E08A9578
:1003F000F1F700002F9885E08A95F1F70000429808
:1004000085E08A95F1F7000008952F9885E08A9598
:10041000F1F70000429A85E08A95F1F700002F9AE3
:1004200085E08A95F1F7000027983A98089527E02B
:1004300030E090E0AC01022E02C0559547950A9439
:10044000E2F740FF02C02F9A01C02F9845E04A957D
:10045000F1F70000429A45E04A95F1F70000429812
:1004600045E04A95F1F700002150310918F72F9A1D
:1004700085E08A95F1F700002798429A95E09A95D1
:10048000F1F7000083B1429845E04A95F1F700008A
:10049000279A881F8827881F0895CF93DF93D82F26
:1004A000C62F9CDF88E7C3DF8D2FC1DF8C2FBFDF16
:1004B000DF91CF91AACFCF93C82F90DF88E7B7DF26
:1004C0008C2FB5DF8BDF89E7B2DF2F9A25E02A95E5
:1004D000F1F70000279887E090E0C0E041E050E0AD
:1004E000429A25E02A95F1F700001F9B07C09A0168
:1004F000082E01C0220F0A94EAF702C020E030E083
:10050000C22B429825E02A95F1F70000019740F7A9
:100510002F9885E08A95F1F70000279A429A25E006
:100520002A95F1F70000429885E08A95F1F70000DE
:100530002F9A25E02A95F1F7000067DF8C2FCF91E5
:1005400008951F93CF93DF93182FD62FC42FB3DFB7
:10055000C0958C23682F6D2B812FDF91CF911F9138
:100560009CCF31DFFC018081882321F06281462FFE
:100570008181E7CF089527DFFC018081882321F066
:10058000428160E08181DDCF089590E0981741F0CD
:1005900028B1205828B928B1205828B99F5FF6CF34
:1005A0000895469A3E9A82E3F0DF46983E9A82E3A7
:1005B000ECDF469A3E980895CF92DF92EF92FF9239
:1005C0000F931F93CF93DF936B017C013E9A042F0F
:1005D00010E0C0E0D0E0C017D10799F0D701C60104
:1005E0000C2E04C0B695A795979587950A94D2F7D7
:1005F00080FF02C0469A01C0469881E0C6DF21967E
:10060000EACF469A3E98DF91CF911F910F91FF90CC
:10061000EF90DF90CF900895569A5E9887EE93E022
:100620000197F1F700C000005E9A56980895CF93A5
:10063000DF93C6E1D1E08881882309F440C0823489
:10064000A1F480E593E00E94D9226D837E838F839D
:1006500098872BE734E14EEC5FE30E940F1B81117A
:1006600002C05C9817C05C9A15C0833499F48CE47E
:1006700093E00E94D9226D837E838F83988720E048
:1006800030E040E85FE30E940F1B811102C05D98DB
:1006900001C05D9A8985882341F08A859B850E94E7
:1006A000D1224C81682F8B814CDF8C859D850E94E7
:1006B000D1224A81682F898144DF2E96BCCFDF91F9
:1006C000CF910895EF92FF920F931F93CF93DF93F3
:1006D00000D000D0CDB7DEB7FE013196CE01059631
:1006E00040918E0150918F01609190017091910124
:1006F00049835A836B837C8321912EBD0DB407FE01
:10070000FDCF8E179F07A1F708E513E088E9E82ED3
:1007100083E0F82EC8010E94D1228EBD0DB407FEE1
:10072000FDCF0F5F1F4FE016F106A1F729DD0F90F7
:100730000F900F900F90DF91CF911F910F91FF902D
:10074000EF9028CD0F931F9321E02EBD0DB407FE2F
:10075000FDCF8C01222733270EBD0DB407FEFDCF40
:10076000072F182F292F33270EBD0DB407FEFDCFFD
:100770006EBD0DB407FEFDCF1F910F910895DF925E
:10078000EF92FF920F931F93CF93DF93C8E7D1E0CF
:100790009881992309F479C0891711F02696F8CF2A
:1007A000453029F4653E2CE07207D8F527C0D42ED9
:1007B0008B01EA80FB80B70180E090E024EE3CE012
:1007C00040E050E00E94DA1CDC01CB014CE0B59522
:1007D000A795979587954A95D1F723E0D21204C043
:1007E000B801680F791F06C024E0D2121FC0BC01F7
:1007F000601B710B653E8CE0780798F4CB01A0E09C
:10080000B0E0BC01CD013CE0660F771F881F991F47
:100810003A95D1F724EE3CE040E050E00E94151DEF
:1008200002C02FEF3FE03B832A830FC021E0D212AA
:1008300004C08FEFE81AF80A06C022E0D21205C001
:1008400081E0E81AF108FB82EA82898190E0982F22
:1008500088279295907F2A813B81820F931F9F73F7
:10086000259A2D989EBD0DB407FEFDCF8EBD0DB40B
:1008700007FEFDCF2D9A2598269A95B180E49827FA
:1008800095B995B1892785B92698DF91CF911F91A8
:100890000F91FF90EF90DF9008951F93CF93DF9318
:1008A000C8E7D1E01881112369F08C819D810E94F5
:1008B000DE229B838A8340E060E070E0812F5FDF6F
:1008C0002696F0CFDF91CF911F9108954F925F92BE
:1008D0006F927F928F929F92AF92BF92EF92FF9210
:1008E0000F931F93CF93DF937B01D42F6CDD8C018B
:1008F000FC018081882309F4C4C0D43009F4BCC051
:100900008381D9DDF801C481C82385809680A780C2
:10091000B0846C2F70E080E090E00E94AC1B20E07F
:1009200030E048E451E40E945E1C20E030E44EECEC
:1009300053E40E94AB1A2B013C0120E030E040E878
:100940005FE3C501B4010E94AB1A9B01AC01C30176
:10095000B2010E945E1C0E94801BD23019F46E0D01
:100960007F1D8BC0D33019F46E197F0986C0D11159
:1009700036C0CF3190F1F80180818234A9F42BE7A1
:1009800034E14EEC5FE3C501B4010E940F1B8111FD
:100990005DC080E090E0A0E8B0E4F8018583968334
:1009A000A783B0875C9A17C0833409F04FC020E05A
:1009B00030E040E85FE3C501B4010E940F1B8111E4
:1009C00045C086E696E6A6E3B0E4F8018583968303
:1009D000A783B0875D9AC1E03CC0CF5F3AC0D130F9
:1009E000C1F51C168CF1F80180818234A9F420E055
:1009F00030E040E850E4C501B4010E940F1B8111B2
:100A000027C08BE794E1AEECBFE3F80185839683C2
:100A1000A783B0875C9816C08334D1F426E636E607
:100A200046E350E4C501B4010E940F1B811110C0C0
:100A300080E090E0A0E8BFE3F80185839683A78378
:100A4000B0875D98CEE105C0C15003C0CFE101C0C1
:100A5000C0E0F80144816C2F8381DF91CF911F9119
:100A60000F91FF90EF90BF90AF909F908F907F90ED
:100A70006F905F904F9065CDB701C801D6DBC82F4E
:100A8000E8CFDF91CF911F910F91FF90EF90BF9032
:100A9000AF909F908F907F906F905F904F90089550
:100AA000CF92DF92EF92FF9220E031E06115710565
:100AB0008105910569F023276B017C0141E0C41A8F
:100AC000D108E108F1086C217D218E219F21EECF14
:100AD000822FFF90EF90DF90CF9008953F924F923A
:100AE0005F926F927F928F929F92AF92BF92CF92BE
:100AF000DF92EF92FF920F931F93CF93DF93C82F54
:100B0000362E28013901C42EC694C6946C2D70E08F
:100B100080E090E0C5DFD82F632D70E080E090E0AA
:100B2000BFDFD8276C2F70E080E090E0B9DFC168AC
:100B30009C2F9329CC2DCC0FCC0FCC0FC92B8D27FC
:100B4000C82EC294CC0C90EEC922CC2AD12CE12C18
:100B5000F12C48E0C701B6012FDD81E016DDC0E0D1
:100B6000D0E0812C912C5401369B0DC081E090E0A7
:100B7000A0E0B0E00C2E04C0880F991FAA1FBB1F75
:100B80000A94D2F703C080E090E0DC01882A992A19
:100B9000AA2ABB2A81E0F9DC2196C330D10521F7CE
:100BA00082E0881203C081E0F0DCD3CF311013C0A3
:100BB00081E0EBDC40E2C301B201FEDCC301B20123
:100BC0006FDF682F70E080E090E041E0F5DCC12C41
:100BD000D12C760127C0C0E0D0E0C12CD12C760109
:100BE000812C912C54018394369B0BC0D501C401F8
:100BF0000C2E04C0880F991FAA1FBB1F0A94D2F79E
:100C000003C080E090E0DC01C82AD92AEA2AFB2A46
:100C100081E0BBDC2196C032D10531F781E0B5DC43
:100C200081E0B3DCC701B601DF91CF911F910F9135
:100C3000FF90EF90DF90CF90BF90AF909F908F90FC
:100C40007F906F905F904F903F900895CF92DF928A
:100C5000EF92FF920F931F936B017C0102E010E073
:100C600020E032E240E060E082E038DF9701860178
:100C700044E060E082E032DF00E010E098014CE008
:100C800064E082E02BDF00E010E098014CE064E0DB
:100C900080E024DF1F910F91FF90EF90DF90CF90C5
:100CA00008958F929F92AF92BF92CF92DF92EF9270
:100CB000FF920F931F934B015C0169017A0102E0DF
:100CC00010E020E032E240E060E082E007DF9501E2
:100CD000840144E060E082E001DF970186014CE09E
:100CE00060E082E0FBDE00E010E098014CE064E0B0
:100CF00080E0F4DE1F910F91FF90EF90DF90CF9096
:100D0000BF90AF909F908F9008950F931F9320E016
:100D100030E04FE550EA60EF7DEE80E090EEC1DF1D
:100D200060EF7DEE80E090EE91DF00E010E0980152
:100D300044E060E080E0D2DE00E010E0980144E0B2
:100D400064E080E0CBDEDC01CB0188279927AA276D
:100D5000B07F892B8A2B8B2B79F71F910F910895E8
:100D6000CF92DF92EF92FF920F931F931ADC469A75
:100D70003E9A82E30ADC40E16EE977EE80E090E0A3
:100D80001BDC469A3E9A82E300DC469A3E9809DCD8
:100D900000E010E0980140E064E080E09FDE6B013D
:100DA0007C0100E010E020E030E544E060E080E01D
:100DB00095DE00E010E0980144E064E080E08EDE23
:100DC000DC01CB0188279927AA27B07F0097A105CE
:100DD000B04F79F723E030E04FE550EA60EF7DEE69
:100DE00080E090EE5EDF60EF7DEE80E090EE2EDF43
:100DF00081FFF9CFC701B6011F910F91FF90EF90CE
:100E0000DF90CF9008951F920F920FB60F9211248A
:100E10002F933F934F935F936F937F938F939F9302
:100E2000AF93BF93EF93FF93489B7BC060E08FE14C
:100E300034DBFDDB2FEF39E688E121503040804084
:100E4000E1F700C0000084B1866084B984B1867F78
:100E500084B985B1896085B98CE58CBD8DB581601B
:100E60008DBD469A3E9847983F9A5E9A5698289A22
:100E7000209888B1806388B987B1806387B98AE098
:100E800045989FE728E331E0915020403040E1F75A
:100E900000C00000459A9FE728E331E091502040D0
:100EA0003040E1F700C0000044989FE728E331E0BC
:100EB000915020403040E1F700C00000449A9FE785
:100EC00028E331E0915020403040E1F700C00000BD
:100ED0008150B1F62D9A25982E9A2698DEDC2C9A10
:100EE0002498F0DB7CD90E94F91588E090E090937B
:100EF000CD008093CC0086E08093CA001092C80099
:100F000088E18093C900539A5A9A86DB209A2898E0
:100F100087EE93E00197F1F700C00000289A20982F
:100F200027C05498559884B1897F84B985B1867F4C
:100F300085B91CBC1DBC46983E9847983F985E9862
:100F4000289888B1806388B987B18F7C87B92D983C
:100F50002E982C980E94B0151092C9001092C800CB
:100F60001092CA001092CD001092CC0053985A985B
:100F7000FF91EF91BF91AF919F918F917F916F9171
:100F80005F914F913F912F910F900FBE0F901F9047
:100F900018951F920F920FB60F9211240F900FBE4B
:100FA0000F901F9018954598FC019191992339F065
:100FB0008091C80085FFFCCF9093CE00F6CF459A74
:100FC00008952F923F924F925F926F927F928F92ED
:100FD0009F92AF92BF92CF92DF92EF92FF920F93C8
:100FE0001F93CF93DF93CDB7DEB7C055D1090FB6AE
:100FF000F894DEBF0FBECDBFE0918F03F0E0ED5659
:10100000FC4F108261E372E083E993E00E94761E58
:101010009E012F5F3F4F79018E010F5D1F4F6901C8
:10102000D6018D939D936D0161E372E080E090E0C5
:101030000E94761E0C151D0599F7E981FA818081C1
:10104000803409F5EB81FC819081913411F00C948E
:10105000AA1303ED13E0F80111928A95E9F76EE9FE
:1010600071E0C8010E94821EF80101900020E9F79A
:101070003197AF01435D5340B80180E091E00E9499
:10108000041A0C94AA13813409F03AC1EB81FC8153
:101090008081813419F460E08FE16DC0823471F495
:1010A00003ED13E080E4D8011D928A95E9F785E10C
:1010B00002DA1F928F938FEB91E077C5833409F0AA
:1010C00051C006E111E0D8018C91882311F40C94F1
:1010D000AA13F8018185811105C0D8018C91823451
:1010E000F9F411C0F8018381E6D9D80114966C9106
:1010F000149768231A968D919C911B970E94EC225D
:10110000F999FECFEACFD80115964D915D916D9179
:101110007C91189780E593E00E94FA22F999FECF1E
:10112000F8018081833459F4F80145815681678143
:1011300070858CE493E00E94FA22F999FECFF801C1
:101140008181B9D9D80112966C91129768231C96A7
:101150008D919C911D970E94EC22F999FECF025F20
:101160001F4FB1CF843419F462DA0C94AA1385347A
:1011700029F460E08EE191D90C94AA13863419F415
:10118000ED81FE814FC0873431F4ED81FE81808195
:10119000F2D90C94AA13883421F4ED81FE8140E049
:1011A00005C0893431F4ED81FE8141E060E070E0FA
:1011B00023C08A3451F48D819E810E944E1E0E946C
:1011C000801BEF81F88542E017C08B3451F48D818C
:1011D0009E810E944E1E0E94801BEF81F88543E095
:1011E0000BC08C3469F48D819E810E944E1E0E943A
:1011F000801BEF81F88544E0808168DB0C94AA13A2
:101200008D34A1F40F811885F8018081B4D98D81C6
:101210009E810E944E1E0E94801B44E0D8018C914A
:1012200055DBF80180819DD90C94AA138E3411F0FE
:101230000C94871380E4E3EDF3E0DF011D928A95BF
:10124000E9F7ED80FE80F7018081BDD88C01DC01DB
:101250008C918823B9F119968C911997882391F173
:1012600013968C9128D9F80164818623682F70E049
:1012700080E090E00E94AC1B20E030E048E451E4C4
:101280000E945E1C20E030E44EEC53E40E94AB1A56
:101290004B015C0120E030E040E85FE3D8011596A7
:1012A0006D917D918D919C9118970E94AB1A9B0135
:1012B000AC01C501B4010E945E1C0E94801B162F68
:1012C000072F02C01FEF0FEFF70180817CD87C0150
:1012D000DC018C91882341F011968C91ECD8F701B8
:1012E0009281892391E009F490E00F931F931F925C
:1012F0009F938BEA91E09F938F9303ED13E0FBC4E0
:10130000823409F075C0EB81FC8180818134C1F4A5
:1013100008E711E0F8018081882311F40C94AA13E6
:10132000D80112966D917C91139714968D919C9192
:1013300015970E94FF22F999FECF0A5F1F4FEACF4F
:10134000823419F4AADA0C94AA13833421F4ED81BF
:10135000FE8141E005C0843449F4ED81FE8142E024
:1013600060E070E080810BDA0C94AA13853441F4BC
:101370008D819E810E94511EEF81F88543E009C056
:10138000863449F48D819E810E94511EEF81F8853B
:1013900044E0BC01E7CF873441F48D819E810E94F7
:1013A000511EEF81F88545E0F4CF883411F00C949C
:1013B000871380E4E3EDF3E0DF011D928A95E9F7FE
:1013C000ED81FE819081E8E7F1E08081882331F0B2
:1013D000981711F40C94D5133696F7CF20E08F931D
:1013E0002F938EEA91E09F938F9303ED13E0DFC379
:1013F000833409F0BCC3249A2C98EB81FC81808152
:101400008134E9F487ED8EBD0DB407FEFDCF1EBC1F
:101410000DB407FEFDCF8EB51EBC0DB407FEFDCF8B
:101420009EB503ED13E020E4F80111922A95E9F747
:101430001F929F931F928F9388EB91E07DC382341C
:1014400051F58FE98EBD0DB407FEFDCF1EBC0DB466
:1014500007FEFDCF8EB51EBC0DB407FEFDCF9EB5B9
:101460001EBC0DB407FEFDCF2EB503ED13E030E436
:10147000D8011D923A95E9F71F922F931F929F93DF
:101480001F928F9381EB91E09F938F931F930F9304
:101490000E94BA1E57C38334D1F4FE01EF5BFF4FA5
:1014A000CF010496DF0120EF2C9311961C92119727
:1014B00012961C92129713961C92139731913EBD6F
:1014C0000DB407FEFDCFE817F90771F74DC384345B
:1014D00009F020C10D811E8140E050E060E070E025
:1014E000C8010E94371D6B017C01D8018C918234A8
:1014F00009F50F811885B80186EC91E00E94791EEC
:10150000892B09F452C0B80189EC91E00E94791E40
:10151000892B09F453C0C8010E94511E6C01990F18
:10152000EE08FF087601DD24CC24812C912C540197
:10153000A39453C08334A9F48F8198850E94511ECF
:101540006C01990FEE08FF084CE0CC0CDD1CEE1C82
:10155000FF1C4A95D1F7812C50E1952EA12CB12C7E
:101560003CC08434A9F48F8198850E94511E6C017F
:10157000990FEE08FF0829E0CC0CDD1CEE1CFF1CC7
:101580002A95D1F7812C32E0932EA12CB12C25C0C5
:101590008534F9F440E050E060E070E08F81988598
:1015A0000E94371D6B017C0114C0812C90E1992EA3
:1015B000A12CB12CC12CD12C76010FC0812C00EFB5
:1015C000902EA12CB12CC12C80E1D82EE12CF12C35
:1015D00004C0812C912C54018394C701B601B2D868
:1015E000412C512C3201B3ED2B2EB3E03B2E0CECF1
:1015F00011E0D501C4010197A109B10961968CAF31
:101600009DAFAEAFBFAF6197D301C2018F70992775
:10161000AA27BB272D968CAF9DAFAEAFBFAF2D973E
:10162000892B8A2B8B2B41F5D101E0E41D92EA95A1
:10163000E9F7D701C601840D951DA61DB71DBF93FF
:10164000AF939F938F931F930F933F922F920E947C
:10165000BA1EF10101900020E9F73197AF01435D17
:10166000534063ED73E080E091E00E94041A0FB6EE
:10167000F894DEBF0FBECDBFD101E0E41D92EA9524
:10168000E9F71EBC0DB407FEFDCF8EB51F928F93F8
:1016900021EC31E03F932F933F922F920E94BA1E8C
:1016A000F10101900020E9F73197AF01435D53400C
:1016B00063ED73E080E091E00E94041A0F900F90B8
:1016C0000F900F900F900F902D968CAD9DADAEADFD
:1016D000BFAD2D970F97A105B10559F061968CAD5F
:1016E0009DADAEADBFAD619784159505A605B70557
:1016F00029F46AE080E091E00E94201A9FEF491AE5
:10170000590A690A790A84149504A604B70409F0F1
:101710007BCF2AC28534E9F440E050E060E070E01D
:101720008D819E810E94371D6B017C0140E050E05D
:1017300060E070E08F8198850E94371D162FB701F9
:10174000A60188E50E94D7001EBD0DB407FEFDCF9F
:101750000BC2863409F074C0ED81FE818081813432
:10176000D9F4FE01FD96CF010496DF01409192016C
:101770005091930160919401709195014D935D9307
:101780006D937C93139721912EBD0DB407FEFDCF71
:10179000E817F90799F74FC0823429F50F811885AA
:1017A000B80186EC91E00E94791E892B91F0B80176
:1017B00089EC91E00E94791E892B79F0C8010E9482
:1017C000511EAC01990F660B770BBA0155274427C0
:1017D00008C040E050E0BA0104C040E050E160E0E1
:1017E00070E08CE726C0833489F48F8198850E944D
:1017F000511EAC01990F660B770BFCE0440F551F8F
:10180000661F771FFA95D1F780E513C0843409F07D
:101810007EC78F8198850E94511EAC01990F660B7F
:10182000770BE9E0440F551F661F771FEA95D1F744
:1018300081E80E94D7000E94C0000E94CA0094C1A3
:10184000873409F04BC1ED81FE81F080A1E4FA12EA
:1018500003C00E94EF0088C1B2E4FB1219C0FE0170
:10186000F996CE01CD9640919601509197016091E5
:1018700098017091990149AF5AAF6BAF7CAF21913C
:101880002EBD0DB407FEFDCFE817F907A1F7D3CFA2
:10189000E3E4FE12B3C087ED8EBD0DB407FEFDCFAD
:1018A00080E4E3EDF3E0DF011D928A95E9F71EBCC9
:1018B0000DB407FEFDCF0EB401FE03C06CED71E068
:1018C00002C06EEF71E083ED93E00E94821EE3EDB3
:1018D000F3E001900020E9F73197AF01435D5340F9
:1018E00063ED73E080E091E00E94041A0E94C00062
:1018F000FE01EB5BFF4FCF010496DF0122E32C9347
:1019000011961C92119712961C92129713961C9284
:10191000139731913EBD0DB407FEFDCFE817F907CF
:1019200071F7E12CF12C03ED13E020E4722E31E28B
:10193000A32E32E0B32E43E3842E42E0942EF8012E
:10194000272D11922A95E9F7C70107969F938F9348
:10195000FF92EF92BF92AF921F930F930E94BA1E15
:10196000F80101900020E9F73197AF01435D534042
:1019700063ED73E080E091E00E94041A0FB6F894E2
:10198000DEBF0FBECDBF98E0C92ED12CD801E72D08
:101990001D92EA95E9F71EBC0DB407FEFDCF8EB58A
:1019A0001F928F939F928F921F930F930E94BA1E44
:1019B000F80101900020E9F73197AF01435D5340F2
:1019C00063ED73E080E091E00E94041AF1E0CF1A29
:1019D000D1080F900F900F900F900F900F90B1F6CD
:1019E0006AE080E091E00E94201A28E0E20EF11CFB
:1019F00030E4E316F10409F0A2CFB6C0CF80D8845A
:101A0000B60186EC91E00E94791E892B01F588E5EC
:101A100093E00E94D12294E4F91202C0806C04C0C9
:101A2000A5E4FA1201C08F73682F88E593E00E9445
:101A3000EC22F999FECFF801CE01859640919A01EA
:101A400050919B0160919C0170919D0134C0B60141
:101A500089EC91E00E94791E892BA9F488E593E036
:101A60000E94D122B4E4FB1202C0806304C0E5E40A
:101A7000FE1201C08F7C682F88E593E00E94EC2263
:101A8000F999FECFD8CFC6010E94511E885A9C4FAB
:101A90006C010E94D122F4E4FF1629F025E4F21231
:101AA00003C080E001C08FEF682FC6010E94EC22C6
:101AB000F999FECFC0CF49A35AA36BA37CA3219170
:101AC0002EBD0DB407FEFDCF8E179F07A1F70E9414
:101AD000C0000E94CA000E94620346C0883409F018
:101AE00016C660E070E0CB010E94A20380E090E0A7
:101AF000DC011EBC0DB407FEFDCF2EB52F3F61F4F7
:101B00000196A11DB11D009730E4A307B10589F727
:101B10003FEF4FEF8FEF03C09C014A2F8B2F03ED58
:101B200013E090E4D8011D929A95E9F78F934F93B3
:101B30003F932F9389E392E09F938F931F930F938B
:101B40000E94BA1EF80101900020E9F73197AF0119
:101B5000435D5340B80180E091E00E94041A0FB643
:101B6000F894DEBF0FBECDBF2C9A2498F3C5843401
:101B700009F050C0EB81FC818081813481F540E027
:101B800050E060E070E08D819E810E94371D03ED82
:101B900013E020E4D8011D922A95E9F7CB010E94B9
:101BA000D1221F928F938EEA91E09F938F931F9380
:101BB0000F930E94BA1EF80101900020E9F73197B7
:101BC000AF01435D5340B80180E091E00E94041AE8
:101BD0000F900F900F900F900F900F90BBC5823415
:101BE00009F095C540E050E060E070E08D819E8195
:101BF0000E94371D6B017C0140E050E060E070E026
:101C00008F8198850E94371DC6010E94EC22F999A8
:101C1000FECFA0C5853491F5EB81FC8180818134B4
:101C200061F46D817E818DE392E00E94791E892BA3
:101C300011F444988FC545988DC5823461F46D8147
:101C40007E818DE392E00E94791E892B11F4449AE3
:101C500081C5459A7FC5833409F059C56D817E8160
:101C60008DE392E00E94791E892B19F498B180E1EE
:101C700002C098B180E2892788B96CC5863409F022
:101C80002CC3EB81FC818081813469F469D803ED38
:101C900013E020E4F80111922A95E9F79F938F93BE
:101CA0007F936F9324C0823409F459C08334D1F5F3
:101CB00040E050E060E070E08D819E810E94371D21
:101CC0006B017C014DD8C701B6010E942606F62E95
:101CD000E72ED82EC92E19D803ED13E080E4D801E1
:101CE0001D928A95E9F7CF92DF92EF92FF9280E4FE
:101CF00092E09F938F931F930F930E94BA1EF80157
:101D000001900020E9F73197AF01435D5340B801DE
:101D100080E091E00E94041A0FB6F894DEBF0FBE77
:101D2000CDBF18C58434F1F440E050E060E070E0CD
:101D30008D819E810E94371D6B017C0140E050E047
:101D400060E070E08F8198850E94371D4B015C0137
:101D500007D8A5019401C701B6010E9451060E944F
:101D60008506F8C4853409F050C0E0E0CE2EE0E0EE
:101D7000DE2EE12CF12CF4E16F2EA3EDAA2EA3E0D0
:101D8000BA2EB0E47B2E88E4882E82E0982ED8010B
:101D9000E62D1D92EA95E9F744E150E0B601C8014D
:101DA0000E94C122C60144960E94D122D501E72D8E
:101DB0001D92EA95E9F71F928F931F930F93FF925D
:101DC000EF929F928F92BF92AF920E94BA1EF5013E
:101DD00001900020E9F73197AF01435D534063ED77
:101DE00073E080E091E00E94041AFFEFEF1AFF0A0F
:101DF00025E1C20ED11C0FB6F894DEBF0FBECDBFD9
:101E00009AE0E916F10419F6A5C4863409F061C117
:101E10008D819E810E94511E1C010E94B0063324B8
:101E2000C10165E170E00E94C91C8C5E9F4F0E9459
:101E3000D122C82E03ED13E080E4D8011D928A95CB
:101E4000E9F71F92CF923F922F928DE692E09F93F7
:101E50008F931F930F930E94BA1EF80101900020E8
:101E6000E9F73197AF01435D5340B80180E091E05D
:101E70000E94041A0E94B00602E110E020E032E263
:101E800040E060E082E00E946E05D12CE12CF12C54
:101E90007601DD24CC24249A2C980FB6F894DEBF6A
:101EA0000FBECDBF2D961CAE1DAE1EAE1FAE2D9724
:101EB000412C512C77E0672E70E2772E930182013E
:101EC00044E060E082E00E946E05812C912C540178
:101ED000D701C601880D991DAA1DBB1D61968CAF47
:101EE0009DAFAEAFBFAF6197D501C4019170AA2776
:101EF000BB27892B8A2B8B2B71F40E94C000619623
:101F00004CAD5DAD6EAD7FAD619744275E7F717066
:101F100084E80E94D70000E010E098014CE064E003
:101F200082E00E946E0500E010E098014CE064E061
:101F300080E00E946E056EBD0DB407FEFDCF072F39
:101F4000182F292F33270EBD0DB407FEFDCF8C01AE
:101F5000222733270EBD0DB407FEFDCF892F992709
:101F6000AA27BB278EBD0DB407FEFDCF94E0890ED6
:101F7000911CA11CB11CD501C4019170AA27BB27DB
:101F8000892B8A2B8B2B91F40E94C00061964CAD5B
:101F90005DAD6EAD7FAD619744275E7F717083E864
:101FA0000E94D7000E94C0000E94CA008114A4E0D1
:101FB0009A06A104B10409F08BCFB4E0DB0EE11C5A
:101FC000F11C03ED13E0F80120E411922A95E9F7E2
:101FD0002D968CAD9DADAEADBFAD2D9726E0B695DF
:101FE000A795979587952A95D1F7BF93AF939F9320
:101FF0008F9384E992E09F938F93F801FF930F935F
:102000000E94BA1EF80101900020E9F73197AF0154
:10201000435D5340B80180E091E00E94041A80E0E3
:1020200091E00E94711A88B130E1832788B984E079
:10203000580E611C711C2D968CAD9DADAEADBFAD23
:102040002D978C599F4FAF4FBF4F2D968CAF9DAFA3
:10205000AEAFBFAF2D970FB6F894DEBF0FBECDBFAA
:1020600041145104B8E06B06B0E27B0609F026CFBC
:102070002C9A249880E4F80111928A95E9F78CEA69
:1020800092E09F938F931F930F930E94BA1EF801C3
:1020900001900020E9F73197AF01435D5340B8014B
:1020A00080E091E00E94041A80E091E00E94711AA1
:1020B0000E948506C10165E170E00E94C91CBC0157
:1020C0006050704044E150E08F8198850E94E32287
:1020D000FFC0873409F01BC38D819E810E94511E71
:1020E0006C010E94B006DD24C60165E170E00E942B
:1020F000C91C8C5E9F4F0E94D122F82E03ED13E085
:1021000080E4D8011D928A95E9F71F92FF92DF9231
:10211000CF9285EC92E09F938F931F930F930E9431
:10212000BA1EF80101900020E9F73197AF01435D35
:102130005340B80180E091E00E94041A0E94B0066A
:1021400002E110E020E032E240E060E082E00E9444
:102150006E05249A2C988F2D90E0A0E0B0E07727B0
:1021600066270E94A2030FB6F894DEBF0FBECDBF54
:10217000C12CD12C7601412C512CE7E06E2EE0E2EF
:102180007E2EF3EDAF2EF3E0BF2EA4E92A2EA2E0BF
:102190003A2E9301820144E060E082E00E946E05E5
:1021A000812C912C1EBC0DB407FEFDCF8EB590E0A6
:1021B000A0E0B0E01EBC0DB407FEFDCF0EB510E0F0
:1021C00020E030E0322F212F102F00271EBC0DB44D
:1021D00007FEFDCF4EB5242B082B192B2A2B3B2BAA
:1021E0001EBC0DB407FEFDCF8EB5382B4CE060E071
:1021F00082E00E946E05FFEF8F1A9F0A811421E092
:10220000920681F603ED13E0D501E0E41D92EA9514
:10221000E9F7D701C60156E0B695A795979587953A
:102220005A95D1F7BF93AF939F938F933F922F927D
:10223000BF92AF920E94BA1EF50101900020E9F70B
:102240003197AF01435D5340B80180E091E00E94B7
:10225000041A80E091E00E94711A88B1F0E28F27A1
:1022600088B924E0520E611C711C34E6C30ED11CE7
:10227000E11CF11C0FB6F894DEBF0FBECDBFC11438
:1022800099E1D906E104F10409F083CF2C9A24984E
:1022900080E4D8011D928A95E9F78CEA92E09F9339
:1022A0008F931F930F930E94BA1EF8010190002094
:1022B000E9F73197AF01435D5340B80180E091E009
:1022C0000E94041A80E091E00E94711A0E94850623
:1022D0000F900F900F900F903DC2873409F000C20D
:1022E000EB81FC818081813409F058C082EDC82ED9
:1022F00080E0D82EE12CF12C98E1692E23EDA22E5E
:1023000023E0B22E30E4732E4FEE842E42E0942E62
:10231000F801262D11922A95E9F748E150E0B6011F
:10232000C8010E94C122C60148960E94D122582E9F
:10233000C60149960E94D122D501E72D1D92EA954A
:10234000E9F71F928F931F925F921F930F93FF9253
:10235000EF929F928F92BF92AF920E94BA1EF501A8
:1023600001900020E9F73197AF01435D534063EDE1
:1023700073E080E091E00E94041AFFEFEF1AFF0A79
:102380002AE1C20ED11C0FB6F894DEBF0FBECDBF3E
:1023900098E1E916F10409F0BBCFDCC1823409F001
:1023A00013C18D819E810E94511E28E1D8011D928A
:1023B0002A95E9F799276AE170E00E94C91C7C011F
:1023C000BC016E527F4F48E150E0C8010E94C1221B
:1023D000C70186519F4F0E94D122D82EC701855137
:1023E0009F4F0E94D122482EA3EDEA2EA3E0FA2EA1
:1023F00080E4F70111928A95E9F71F924F921F929C
:10240000DF921F930F9382E193E09F938F93FF924C
:10241000EF920E94BA1EF70101900020E9F7319770
:10242000AF01435D5340B70180E091E0EDD70E94DA
:10243000B00602E110E020E032E240E060E082E03D
:102440000E946E05249A2C988D2D90E0A0E0B0E0BB
:10245000772766270E94A2030FB6F894DEBF0FBE4F
:10246000CDBF812C912C5401512C612C712C04E98D
:10247000202E02E0302E84149504A604B70408F040
:102480007AC095018401FAE0000F111F221F331F4B
:10249000FA95D1F744E060E082E00E946E05C12C1D
:1024A000D12C1EBC0DB407FEFDCF8EB590E0A0E090
:1024B000B0E01EBC0DB407FEFDCF0EB510E020E06D
:1024C00030E0322F212F102F00271EBC0DB407FE45
:1024D000FDCF4EB5242B082B192B2A2B3B2B1EBCD2
:1024E0000DB407FEFDCF8EB5382B4CE060E082E0E6
:1024F0000E946E053FEFC31AD30AC11481E0D806CB
:1025000081F6D701E0E41D92EA95E9F724E630E090
:1025100040E050E0C501B4010E94DA1CA301920121
:102520000E94F31C5F934F933F932F933F922F9200
:10253000FF92EF920E94BA1EF70101900020E9F786
:102540003197AF01435D534063ED73E080E091E06C
:102550005BD780E091E0C5D788B1F0E28F2788B9DA
:102560002FEF821A920AA20AB20A0FB6F894DEBFBF
:102570000FBECDBF80CF2C9A249803ED13E080E4EA
:10258000D8011D928A95E9F78CEA92E09F938F9388
:102590001F930F930E94BA1EF80101900020E9F7E3
:1025A0003197AF01435D5340B80180E091E02CD7F3
:1025B00080E091E096D70E9485060E940C030F9060
:1025C0000F900F900F90CEC0833419F40E940C032B
:1025D000C9C0843409F09BC052EDC52E50E0D52E01
:1025E00068E1262E73ED872E73E0972EF801222DD9
:1025F00011922A95E9F748E150E0B601C8010E941E
:10260000C122C60148960E94D122482E560139E1C6
:10261000A30EB11CC5010E94D122382E512C612C71
:10262000712C320155244424249A2C98C301B20100
:102630000E94A203E12CF12C80E094E01EBC0DB4BA
:1026400007FEFDCF2EB52F3F91F00E94C000C301C1
:10265000B2010E94A20382E0E80EF11C94E0590E40
:10266000611C711CE114A1E0FA0631F702C0019768
:1026700029F72C9A2498F694E7946E2DC5010E94B0
:10268000EC22F40120E411922A95E9F7FF92EF92EF
:102690001F923F921F930F938FE393E09F938F932B
:1026A0009F928F920E94BA1EF40101900020E9F7D8
:1026B0003197AF01435D534063ED73E080E091E0FB
:1026C000A3D6BAE1CB0ED11C0FB6F894DEBF0FBE75
:1026D000CDBFF2E4CF16F3E0DF0609F087CF3AC0B2
:1026E00088548330A0F4D7018D919D917D0100978E
:1026F00031F00E94D30781E392E00E94D307E016F5
:10270000F10689F783EC92E00E94D3072BC041E1E8
:1027100050E06EE673E080E091E076D6D701ED916F
:10272000FD917D01309741F0608180E091E088D695
:1027300060E280E091E084D60E151F0579F74CE049
:1027400050E060E873E080E091E05ED66AE080E00F
:1027500091E076D680918E03811104C064E080E020
:1027600091E06ED680E4E3E9F3E0DF011D928A9503
:10277000E9F710928F03C05BDF4F0FB6F894DEBF0E
:102780000FBECDBFDF91CF911F910F91FF90EF90C2
:10279000DF90CF90BF90AF909F908F907F906F9081
:1027A0005F904F903F902F9008956281738180E0F9
:1027B00090E024EE3CE040E050E00E94DA1CDC01B6
:1027C000CB012CE0B595A795979587952A95D1F7DC
:1027D000282F892F0C94EF0984B7877F84BF0FB609
:1027E000F894A895809160008861809360001092B1
:1027F00060000FBE789484E085BD2FB7F89484E123
:1028000094E090933504809334049093370480933C
:1028100036042FBF5C98549A5D98559A589A5098F0
:10282000599A5198809169008C7F816080936900EA
:10283000809169008B7F80936900E89AE99A4899B2
:102840000C9403070895C8DF04E114E0D3E080E0AE
:1028500091E055D697FD0FC08A3019F40E94E10728
:102860000AC0E0918F0391E09E0F90938F03F0E0F8
:10287000ED56FC4F80838FB7F894C09138048FBF1A
:10288000A89902C0CD3188F1A89A80913804882394
:1028900001F14498D09392031CC0E0913604F0916A
:1028A00037046191F0933704E0933604E453F44025
:1028B00021F410933704009336049FB7F894809165
:1028C00038048150809338049FBF80E091E0B8D5F0
:1028D000C150C111E2CF80919203882331F0815021
:1028E00080939203811101C0449A80E091E0F9D570
:1028F000AECF80E091E041C580E091E0CEC4CF93BF
:10290000DF93EC011092C9002F85388949895A89D3
:10291000DA01C901B695A79597958795BC01CD01B8
:1029200060587B47814E9F4F0E94F31C2150310914
:102930003093CD002093CC008C89813021F08230FF
:1029400021F480E203C080E301C080E09B899230E3
:1029500009F488609D89973031F0983031F09630D5
:1029600029F4826003C0846001C086608093CA003D
:1029700082E08093C80088E98093C900DF91CF91FD
:10298000089508951F920F920FB60F9211242F935E
:102990003F934F935F936F937F938F939F93AF93E7
:1029A000BF93EF93FF938091CE0090918E038B3174
:1029B00029F481E0892780938E0331C0992381F027
:1029C0008A3019F40E94E1072AC0E0918F0391E058
:1029D0009E0F90938F03F0E0ED56FC4F80831FC055
:1029E000E0913404F0913504808380913404909117
:1029F00035040196909335048093340484539440B5
:102A000031F484E194E090933504809334049FB7CB
:102A1000F894809138048F5F809338049FBFFF91B2
:102A2000EF91BF91AF919F918F917F916F915F9146
:102A30004F913F912F910F900FBE0F901F901895BF
:102A4000292F33272230310559F02330310569F021
:102A500021303105E9F482E190E021E331E01CC04E
:102A60008EE390E023EF30E017C099278130910585
:102A700049F028F0029761F4E3ECF0E005C0EFEED6
:102A8000F0E002C0E1EEF0E0849190E09F0104C02C
:102A900080E090E020E030E0FA0131832083089567
:102AA0008093E900EBEEF0E0808181608083EDEEC1
:102AB000F0E010826093EC0040838091EE00881F6C
:102AC0008827881F089580913B0487FF0FC080915D
:102AD000E80082FD04C08EB38111F9CF10C080914F
:102AE000E8008B770AC08EB3882349F08091E80014
:102AF00080FFF9CF8091E8008E778093E8000895F9
:102B00004091E4005091E50085E69091EC0090FF43
:102B100005C09091E80090FF05C01AC09091E800B0
:102B200092FD16C09EB39923A9F09530A9F090911B
:102B3000EB0095FD13C02091E4003091E5002417CF
:102B4000350719F3815011F0A901DFCF84E0089512
:102B500080E0089582E0089583E0089581E008957B
:102B600051D053D0E0EEF0E0808181608083E8EDC9
:102B7000F0E080818F77808319BCE3E6F0E080810C
:102B80008160808310923A0408953CD03ED08091B9
:102B9000D800982F9F779093D80080688093D800B2
:102BA00084E089BD89B5826089BD09B400FEFDCF8E
:102BB0008091D8008F7D8093D8001EBA109239047E
:102BC00042E060E080E06CDF8091E1008E7F8093E6
:102BD000E1008091E20081608093E2008091E20058
:102BE00088608093E2008091E0008E7F8093E00017
:102BF0000895E3E6F0E080818E7F808381E080931A
:102C00003A04C3CF1092E20008951092E1000895B3
:102C10001F920F920FB60F9211242F933F934F9351
:102C20005F936F937F938F939F93AF93BF93EF9334
:102C3000FF938091E10080FF1BC08091E20080FF44
:102C400017C08091E1008E7F8093E1008091E200C7
:102C50008E7F8093E2008091E20080618093E200A9
:102C60008091D80080628093D80019BC1EBAF9D137
:102C70008091E10084FF2DC08091E20084FF29C093
:102C800084E089BD89B5826089BD09B400FEFDCFAD
:102C90008091D8008F7D8093D8008091E1008F7E55
:102CA0008093E1008091E2008F7E8093E20080912A
:102CB000E20081608093E20080913904811106C0B6
:102CC0008091E30087FD02C081E001C084E08EBBFB
:102CD000C8D18091E10083FF26C08091E20083FF8C
:102CE00022C08091E100877F8093E10082E08EBB6B
:102CF000109239048091E1008E7F8093E1008091F1
:102D0000E2008E7F8093E2008091E20080618093F8
:102D1000E20042E060E080E0C3DE8091F000886085
:102D20008093F0009ED18091E10082FF0AC08091E3
:102D3000E20082FF06C08091E1008B7F8093E1007A
:102D400090D1FF91EF91BF91AF919F918F917F9122
:102D50006F915F914F913F912F910F900FBE0F9008
:102D60001F9018951F920F920FB60F921124FF9289
:102D70000F931F932F933F934F935F936F937F9383
:102D80008F939F93AF93BF93CF93DF93EF93FF9373
:102D9000C9EED0E088818770F82E188200EF10E02D
:102DA000F8018081877F808378941DD0F894188201
:102DB000F801808188608083F882FF91EF91DF9134
:102DC000CF91BF91AF919F918F917F916F915F91C3
:102DD0004F913F912F911F910F91FF900F900FBE38
:102DE0000F901F9018950F931F93CF93DF93CDB73C
:102DF000DEB7AA970FB6F894DEBF0FBECDBFEBE3E8
:102E0000F4E083E494E02091F10021938E179F0772
:102E1000D1F780913B0490913C04492F50E04A3017
:102E2000510508F011C1FA01E65CFF4F1AC680385F
:102E300009F4FBC0823809F007C180913F04877014
:102E40008093E9008091EB001092E9009091E800F6
:102E5000977F9093E80085FB882780F98093F100A5
:102E60001092F100BBC0282F2D7F09F0EDC08230F9
:102E700009F0DBC080913D04811127C080913F049F
:102E8000877009F4D2C08093E9002091EB0020FF05
:102E90001CC0933021F48091EB00806214C09091AB
:102EA000EB0090619093EB0021E030E0A90102C0BB
:102EB000440F551F8A95E2F74093EA001092EA000A
:102EC0008091EB0088608093EB001092E900809184
:102ED000E800877F86C08111B7C010913D041F773D
:102EE0000FB7F8948091E800877F8093E800EBDDCE
:102EF0008091E80080FFFCCF111102C082E001C088
:102F000083E08EBB8091E3008078182B1093E30060
:102F10008091E30080688093E3000FBF86C08058F3
:102F2000823008F091C080913D0490913E048C3D28
:102F300053E0950779F583E08A838AE289833FB776
:102F4000F894DE01139690E02EE041E2E22FF0E0EB
:102F500040935700E49190FF03C0E295EF702F5F1C
:102F6000EF7080E38E0F8A3310F0E95C01C0E82F28
:102F7000F0E0ED93FD939F5F943141F73FBF809167
:102F8000E800877F8093E8006AE270E0CE01019656
:102F900099D012C0AE014F5F5F4F60913F0450DD8A
:102FA000BC01892B09F441C09091E800977F909370
:102FB000E80089819A81DED08091E8008B77809348
:102FC000E80033C0803809F03FC08091E800877F77
:102FD0008093E800809139048093F1008091E800AB
:102FE0008E778093E8006FDD20C081112DC0809125
:102FF0003D0490913E0499270297BCF48091E8002B
:10300000877F8093E80080913D04809339045BDDE5
:1030100080913904811106C08091E30087FD02C0D0
:1030200081E001C084E08EBB64DC8091E80083FF16
:103030000DC08091EB0080628093EB008091E800EE
:10304000877F8093E80002C057DCEFCFAA960FB6C7
:10305000F894DEBF0FBECDBFDF91CF911F910F91CE
:1030600008950895EF92FF920F931F93CF93DF93EC
:103070008C01EB017A0144DD81111DC02097D1F054
:103080008091E80085FD0EC08091E8008E778093E6
:10309000E800E114F10479F3F7010995813059F75B
:1030A00085E009C0F80180818093F10021970F5FCE
:1030B0001F4FE4CF80E0DF91CF911F910F91FF90E0
:1030C000EF9008952091410430914204261737076C
:1030D00048F06115710539F42091E8002E772093AE
:1030E000E80001C0B90140E06115710579F12EB326
:1030F0002223E1F12530E1F12091E80023FD34C0E5
:103100002091E80022FD2AC02091E80020FFECCFAA
:103110002091F20030E0FC01CF016115710559F0FA
:103120002830310540F481918093F100615071099C
:103130002F5F3F4FF1CF41E02830310509F040E0EB
:103140002091E8002E772093E800CECF4111CFCF19
:1031500005C08EB3882351F0853051F08091E8008E
:1031600082FFF7CF80E0089581E0089582E008951E
:1031700083E00895209141043091420426173707D7
:1031800048F06115710539F42091E8002E772093FD
:10319000E80001C0B90140E06115710591F12EB35D
:1031A000222309F43EC0253009F43DC02091E800F7
:1031B00023FD35C02091E80022FD2BC02091E800BE
:1031C00020FFEACF2091F20030E0FC01CF01611531
:1031D000710561F02830310548F484918093F10045
:1031E000615071092F5F3F4F3196F0CF41E0283099
:1031F000310509F040E02091E8002E772093E800A7
:10320000CBCF4111CCCF05C08EB3882351F0853090
:1032100051F08091E80082FFF7CF80E0089581E0CF
:10322000089582E0089583E008956115710529F4F9
:103230002091E8002B772093E8006115710501F1DA
:103240002EB3222329F1253029F12091E80023FD16
:103250001DC02091E80022FFF0CF2091F200222330
:1032600039F301962091F100FC01319720836150E0
:10327000710999F7DDCF8EB3882351F0853051F075
:103280008091E80080FFF7CF80E0089581E0089505
:1032900082E0089583E008950895CF93DF9320910D
:1032A000E80023FF67C0FC01208130E040913F042B
:1032B000509140044217530709F05CC0EC01809123
:1032C0003C04813251F018F48032E1F053C0823274
:1032D00081F1833209F43EC04DC080913B04813AB4
:1032E00009F048C08091E800877F8093E80067E09C
:1032F00070E0CF010F96E6DE8091E8008B77809337
:10330000E80038C080913B048132A1F58091E8004B
:10331000877F8093E80067E070E0CF010F9685DF3C
:103320008091E8008E778093E800CE01DF91CF9105
:10333000E6CA80913B048132E9F48091E800877FFE
:103340008093E800C0DB80913D048D87CE01DF9142
:10335000CF9117CB80913B04813261F48091E800DA
:10336000877F8093E800AFDB60913D04CE01DF9161
:10337000CF9192CFDF91CF9108951F93CF93DF9399
:10338000EC01FC013D9689E0DF011D928A95E9F789
:1033900011E08981811305C0EA81FB818C8191E074
:1033A00007C08D81811306C0EE81FF81888590E082
:1033B00062E00DC08985811729F01F5F153049F73C
:1033C00081E01EC0EA85FB858C8591E063E0811178
:1033D00084E028E030E040E02E173F0720F44F5F04
:1033E000220F331FF9CF4295407F8260482B6295B0
:1033F000660F660F607C692B812F52DB8111DDCF58
:10340000DF91CF911F9108950F931F93FC01CB0182
:10341000BA012EB3243081F40785108921893289BD
:10342000012B022B032B41F021812093E90040E086
:1034300050E01F910F9116CE82E01F910F910895D9
:103440000F931F93CF932EB32430F1F4FC01078523
:10345000108921893289012B022B032BA9F0C62F59
:1034600081818093E9008091E80085FF04C0C093CA
:10347000F10080E00AC08091E8008E778093E80038
:103480003FDB8823A1F301C082E0CF911F910F9110
:1034900008952EB3243019F5FC01478550896189C0
:1034A0007289452B462B472BD1F081818093E9000F
:1034B0008091F200882389F09091E8008091E800E3
:1034C0008E778093E80095FD08C01ADB811108C053
:1034D0008091E8008E778093E80080E0089582E094
:1034E00008952EB3243051F4FC0147855089618939
:1034F0007289452B462B472B09F0CBCF08952EB36D
:10350000243019F08FEF9FEF0895FC014785508913
:1035100061897289452B462B472BA1F385818093C6
:10352000E9008091E80082FFEDCF8091F2008823CE
:1035300021F02091F10030E002C02FEF3FEF8091A9
:10354000F200811105C08091E8008B778093E8003C
:10355000C90108955058BB27AA270ED075C166D15E
:1035600030F06BD120F031F49F3F11F41EF45BC1B9
:103570000EF4E095E7FB51C1E92F77D180F3BA173C
:10358000620773078407950718F071F49EF58FC1E1
:103590000EF4E0950B2EBA2FA02D0B01B90190016E
:1035A0000C01CA01A0011124FF27591B99F0593FB2
:1035B00050F4503E68F11A16F040A22F232F342FFA
:1035C0004427585FF3CF469537952795A795F04048
:1035D0005395C9F77EF41F16BA0B620B730B840B5D
:1035E000BAF09150A1F0FF0FBB1F661F771F881F15
:1035F000C2F70EC0BA0F621F731F841F48F487956D
:1036000077956795B795F7959E3F08F0B3CF93955B
:10361000880F08F09927EE0F979587950895D9D0D0
:1036200008F481E008950CD00FC107D140F0FED01E
:1036300030F021F45F3F19F0F0C0511139C1F3C0EF
:1036400014D198F39923C9F35523B1F3951B550B66
:10365000BB27AA2762177307840738F09F5F5F4F65
:10366000220F331F441FAA1FA9F333D00E2E3AF0A6
:10367000E0E830D091505040E695001CCAF729D0C0
:10368000FE2F27D0660F771F881FBB1F261737070F
:103690004807AB07B0E809F0BB0B802DBF01FF273F
:1036A00093585F4F2AF09E3F510568F0B6C000C1A5
:1036B0005F3FECF3983EDCF3869577956795B79579
:1036C000F7959F5FC9F7880F911D9695879597F994
:1036D0000895E1E0660F771F881FBB1F621773070D
:1036E0008407BA0720F0621B730B840BBA0BEE1F22
:1036F00088F7E095089504D06894B111D9C0089571
:10370000BCD088F09F5790F0B92F9927B751A0F0FF
:10371000D1F0660F771F881F991F1AF0BA95C9F765
:1037200012C0B13081F0C3D0B1E00895C0C0672F9E
:10373000782F8827B85F39F0B93FCCF38695779515
:103740006795B395D9F73EF49095809570956195FE
:103750007F4F8F4F9F4F0895E89409C097FB3EF429
:1037600090958095709561957F4F8F4F9F4F9923CE
:10377000A9F0F92F96E9BB279395F695879577954C
:103780006795B795F111F8CFFAF4BB0F11F460FF0C
:103790001BC06F5F7F4F8F4F9F4F16C0882311F064
:1037A00096E911C0772321F09EE8872F762F05C078
:1037B000662371F096E8862F70E060E02AF09A9513
:1037C000660F771F881FDAF7880F9695879597F908
:1037D0000895990F0008550FAA0BE0E8FEEF1616A2
:1037E0001706E807F907C0F012161306E407F507F5
:1037F00098F0621B730B840B950B39F40A2661F069
:10380000232B242B252B21F408950A2609F4A1400B
:10381000A6958FEF811D811D089597F99F6780E818
:1038200070E060E008959FEF80EC089500240A9412
:103830001616170618060906089500240A9412168B
:103840001306140605060895092E0394000C11F4BE
:10385000882352F0BB0F40F4BF2B11F460FF04C06B
:103860006F5F7F4F8F4F9F4F089557FD9058440FC4
:10387000551F59F05F3F71F04795880F97FB991FCF
:1038800061F09F3F79F0879508951216130614068C
:10389000551FF2CF4695F1DF08C016161706180619
:1038A000991FF1CF86957105610508940895E894F4
:1038B000BB2766277727CB0197F908950AD0C4CF95
:1038C000B5DF28F0BADF18F0952309F0A6CFABCF0B
:1038D000EFCFCBDFA8F39923D9F35523C9F3950F85
:1038E00050E0551FAA27EE27FF27BB270024089486
:1038F000679520F4E20FF31FB41F0A1E220F331F37
:10390000441FAA1F6695A9F7779530F4F30FB41FEB
:103910000A1E121E08F46395330F441FAA1F221FAC
:10392000769599F7879520F4B40F0A1E121E631F2F
:10393000440FAA1F221F331F8695A9F7862F712DCA
:10394000602D11249F5750408AF0E1F088234AF0FF
:10395000EE0FFF1FBB1F661F771F881F915050403F
:10396000A9F79E3F510570F058CFA2CF5F3FECF30F
:10397000983EDCF3869577956795B795F795E7952B
:103980009F5FC1F7FE2B880F911D9695879597F93C
:1039900008950024552704C0080E591F880F991F49
:1039A000009729F076956795B8F37105B9F7802DE2
:1039B000952F0895EE27FF27AA27BB2708C0A20F3F
:1039C000B31FE41FF51F220F331F441F551F969589
:1039D00087957795679598F37040A9F7009799F7C1
:1039E000BD01CF010895A1E21A2EAA1BBB1BFD0148
:1039F0000DC0AA1FBB1FEE1FFF1FA217B307E407CE
:103A0000F50720F0A21BB30BE40BF50B661F771F25
:103A1000881F991F1A9469F7609570958095909505
:103A20009B01AC01BD01CF010895052E97FB16F453
:103A300000940FD057FD05D0D6DF07FC02D046F426
:103A400008C050954095309521953F4F4F4F5F4F9F
:103A5000089590958095709561957F4F8F4F9F4FFA
:103A60000895EE0FFF1F0590F491E02D0994A6E054
:103A7000B0E0ECE3FDE1CFC55C016B017A016115BB
:103A8000710519F0DB018D939C93E114F10429F089
:103A9000C7010297839708F0F1C085010F5F1F4FA0
:103AA000F501F081FD838F2F90E018D1892B11F063
:103AB0005801F3CF2D812D3249F40F5F1F4FD501EF
:103AC0001196BC91BD83E1E0EE830BC0FD81FB321A
:103AD00039F485010E5F1F4FD5011196BC91BD834E
:103AE0001E82E114F104A9F0E0E1EE16F10419F4EC
:103AF000CDC0E0E3ED83FAE0EF16F10409F441C034
:103B000020E1E216F104A9F038E0E316F10451F5E2
:103B10001FC0FD81F03391F5D8018C918F7D8835E0
:103B200091F41196BC91BD830E5F1F4FEE81E26050
:103B3000EE8340E1E42EF12C88248A94982CA82C62
:103B40005FE0B52E24C0E114F10499F640E34D8303
:103B500028E0E22EF12C88248A94982CA82C3FE1AE
:103B6000B32E15C06FEF7FEFCB0197010F2C000C28
:103B7000440B550B38DF49015A0109C08AE0E82E91
:103B8000F12C99E9892E982CA82C99E1B92E80E086
:103B900020E030E0A90127010F2C000C660877080F
:103BA00018019D81905399839A3078F09D819154AA
:103BB0009A3120F4AD81A753A98307C09D81915606
:103BC0009A3190F5BD81B755B983E9816E2F70E0C8
:103BD0006E157F054CF58F3F09F182169306A406FA
:103BE000B506C8F0C301B201E5DE3981232F30E00C
:103BF00040E050E029833A834B835C83260F371FD4
:103C0000481F591F89819A81AB81BC8128173907C8
:103C10004A075B0710F48FEF01C081E00F5F1F4F71
:103C2000D101BC91BD83BCCFC114D10481F08823E4
:103C300031F001501109F6011183008308C0FE81A3
:103C4000F1FF05C002501109D6010D931C93BE81EE
:103C5000B0FF07C050954095309521953F4F4F4F8D
:103C60005F4F8F3F81F482E290E090934404809311
:103C700043046FEF7FEF8FEF9FEF0DC060E070E0C8
:103C800080E090E008C0B901CA0105C02D81203351
:103C900009F04FCF41CF2696E2E1D9C466277727B6
:103CA0005BC2FC0188279927E89421912032E9F32F
:103CB000293010F02E30C8F32B3239F02D3231F488
:103CC000689403C04DD0820F911D219120532A305A
:103CD000C8F31EF4909581959F4F0895911184C368
:103CE000803219F089508550D0F7089540E953E0AB
:103CF00010C0FB01DC018D91019080190110D9F3F6
:103D0000990B0895FB01DC0101900D920020E1F771
:103D10000895FA01A191B081009719F41097E1F08C
:103D2000CD01DC01CD010D90002011F4C00113C0C4
:103D3000FB012191222319F02015D9F7F3CFFB01C4
:103D40002191201519F41E92119606C02223C1F765
:103D50000D900020A1F7D001FA01A193B08308953E
:103D6000BC01880F991F880F991F860F971F880F16
:103D7000991F0895AEE0B0E0EFEBFEE15AC40D8963
:103D80001E8986E08C831A8309838FEF9FE79E83C9
:103D90008D83AE01475E5F4F6F89788DCE010196AE
:103DA00008D0EF81F885E00FF11F10822E96E4E035
:103DB0005CC4ABE0B0E0EEEDFEE12DC46C017B0134
:103DC0008A01FC0117821682838181FFC0C1CE0166
:103DD00001963C01F6019381F70193FD859193FFD4
:103DE00081917F01882309F4AEC1853239F493FDB6
:103DF000859193FF81917F01853221F4B60190E096
:103E000024D3E8CF912C212C312CFFE1F315E0F0E5
:103E10008B3279F038F4803279F08332A9F4232D93
:103E2000206110C08D3259F0803371F4232D216050
:103E300009C0832D8260382EE32DE46022C0F32D6B
:103E4000F86025C0322E27C037FC2DC020ED280F8A
:103E50002A3088F436FE06C0892D6AE0D3D3922E2C
:103E6000980E19C0822D6AE0CDD3222E280E832D04
:103E70008062382E10C08E3231F436FC64C1E32DDE
:103E8000E0643E2E08C08C3621F4F32DF0683F2EFE
:103E900002C0883641F4F70193FD859193FF81912B
:103EA0007F018111B2CF982F9F7D9554933028F4D4
:103EB0000C5F1F4F2FE329830DC0833631F083370A
:103EC00071F0833509F055C020C0F80180818983E5
:103ED0000E5F1F4F88248394912C530112C0280138
:103EE000F2E04F0E511CF801A080B18036FE03C0F5
:103EF000692D70E002C06FEF7FEFC5019BD24C01CE
:103F00008201F32DFF773F2E15C0280122E0420EDB
:103F1000511CF801A080B18036FE03C0692D70E00D
:103F200002C06FEF7FEFC5017AD24C01F32DF0682C
:103F30003F2E820133FC19C0822D90E0881699062D
:103F4000A0F4B60180E290E080D22A94F5CFF5018A
:103F500037FC859137FE81915F01B60190E075D203
:103F600021102A9421E0821A91088114910479F792
:103F7000E1C0843611F0893639F5F80137FE07C003
:103F800060817181828193810C5F1F4F08C06081C5
:103F90007181072E000C880B990B0E5F1F4FF32DBC
:103FA000FF763F2E97FF09C090958095709561959B
:103FB0007F4F8F4F9F4FF0683F2E2AE030E0A301E4
:103FC00080D2882E861844C0853731F4232D2F7E69
:103FD000B22E2AE030E025C0932D997FB92E8F367E
:103FE000C1F018F4883579F0AEC0803719F0883701
:103FF00021F0A9C0E92FE061BE2EB4FE0DC0FB2D5B
:10400000F460BF2E09C034FE0AC0292F2660B22EEC
:1040100006C028E030E005C020E130E002C020E129
:1040200032E0F801B7FE07C060817181828193811F
:104030000C5F1F4F06C06081718180E090E00E5FD1
:104040001F4FA3013ED2882E8618FB2DFF773F2EEF
:1040500036FE0DC0232D2E7FA22E891458F434FE77
:104060000BC032FC09C0832D8E7EA82E05C0B82C53
:10407000A32C03C0B82C01C0B92CA4FE0FC0FE01B4
:10408000E80DF11D8081803321F49A2D997EA92EAF
:1040900009C0A2FE06C0B394B39404C08A2D8678EA
:1040A00009F0B394A3FC10C0A0FE06C0B21480F4C3
:1040B000280C922C9B180DC0B21458F4B60180E263
:1040C00090E0C3D1B394F8CFB21418F42B1802C007
:1040D000982C212CA4FE0FC0B60180E390E0B5D14E
:1040E000A2FE16C0A1FC03C088E790E002C088E5EC
:1040F00090E0B6010CC08A2D867851F0A1FE02C076
:104100008BE201C080E2A7FC8DE2B60190E09DD178
:10411000891430F4B60180E390E097D19A94F8CFF7
:104120008A94F301E80DF11D8081B60190E08DD1F4
:104130008110F6CF222009F44DCEB60180E290E046
:1041400084D12A94F7CFF6018681978102C08FEF40
:104150009FEF2B96E2E17BC2A0E0B0E0E1EBF0E262
:1041600060C2EC017B016115710519F0FB019183BF
:1041700080836E01FFEFCF1ADF0A0881802F90E065
:10418000ADDD892B11F0E601F4CF0D3239F46E016B
:1041900032E0C30ED11C098111E008C00B3229F4B2
:1041A0006E0152E0C50ED11C098110E0E601219795
:1041B00043E050E060E970E0CE0119D1892BB9F4F9
:1041C000239645E050E06BE870E0CE0110D1892BDA
:1041D00009F42596E114F10419F0F701D183C083A5
:1041E0001111F5C060E070E080E89FE7F9C043E09E
:1041F00050E068E870E0CE01FAD0892B51F4E11468
:10420000F10409F4E9C0C6010296F70191838083A5
:10421000E3C060E070E0CB01C0E0D0E0F60130ED3B
:10422000300F3A3078F5212F2260A12FA87012FFAD
:1042300004C0A1112DC021962BC0A11121974B01C3
:104240005C01B2E0880C991CAA1CBB1CBA95D1F782
:10425000AB01BC01480D591D6A1D7B1D440F551F44
:10426000661F771FCB01BA01630F711D811D911D60
:10427000683939E97307830739E1930748F0212F3B
:10428000266006C03E3F51F413FD40C0212F286038
:104290005FEFC51AD50A0081122FC0CF202F2F7DC6
:1042A0002534A1F540814D3211F4106106C04B3226
:1042B00021F0319621E030E004C04181329622E0C5
:1042C00030E040534A3018F0E21BF30B1FC020E0EF
:1042D00030E020385CE035075CF4D901AA0FBB1F41
:1042E000AA0FBB1F2A0F3B1F220F331F240F311DA4
:1042F0003196DF0111974C9140534A3050F314FF2F
:1043000003C0319521953109C20FD31F11FF09C098
:10431000E114F10431F09F0121503109F70131839B
:1043200020831ADA212F2370233019F04B015C010E
:1043300006C04B015C01B7FAB094B7F8B09420E026
:1043400030E0A901C501B4016AD9882309F43CC051
:10435000D7FF06C0D195C195D10907EA10E002C088
:104360000FEB10E06801F8E1CF1AD10890E2E92ED6
:10437000F12CCE15DF056CF0F801259135914591B2
:104380005491C501B4019ADA4B015C01CE19DF09E1
:10439000F0CF04501109F594E7940C151D0549F769
:1043A0008A2D880F8B2D881F8F3F41F020E030E051
:1043B000A901C501B40133D9811106C082E290E0A0
:1043C0009093440480934304C501B40109C060E0A4
:1043D00070E080E89FEF04C060E070E080EC9FE751
:1043E000CDB7DEB7ECE039C1992788270895FB01E6
:1043F000DC014150504088F08D9181341CF08B35A8
:104400000CF4805E659161341CF06B350CF4605ED9
:10441000861B611171F3990B0895881BFCCFFC0179
:104420000590615070400110D8F7809590958E0FDF
:104430009F1F0895FC016150704001900110D8F752
:10444000809590958E0F9F1F08950F931F93CF9384
:10445000DF93FB01238121FD03C08FEF9FEF2CC071
:1044600022FF16C0468157812481358142175307A8
:1044700044F4A081B1819D012F5F3F4F31832083A0
:104480008C93268137812F5F3F4F3783268314C05B
:104490008B01EC01FB010084F185E02D0995892B4E
:1044A000E1F6D80116968D919C9117970196179673
:1044B0009C938E931697CE01DF91CF911F910F9110
:1044C0000895FA01AA27283061F1203191F1E8948A
:1044D0006F936E7F6E5F7F4F8F4F9F4FAF4FB1E0F7
:1044E00040D0B4E03ED0670F781F891F9A1FA11DEE
:1044F000680F791F8A1F911DA11D6A0F711D811DF3
:10450000911DA11D22D009F468943F91062E000C44
:104510003019000C000C3019305D3193CEF6CF010C
:104520000895462F4770405D4193B3E00FD0C9F71F
:10453000F6CF462F4F70405D4A3318F0495D31FD8C
:104540004052419302D0A9F7EACFB4E0A6959795DF
:10455000879577956795BA95C9F7009761057105B5
:1045600008959B01AC010A2E0694579547953795FF
:104570002795BA95C9F7620F731F841F951FA01D59
:104580000895DC01CB01FC01F999FECF06C0F2BD14
:10459000E1BDF89A319600B40D9241505040B8F701
:1045A0000895F999FECF92BD81BDF89A992780B5FB
:1045B0000895A6E1B0E044E050E0E5CFA8E1B0E026
:1045C00042E050E0E0CFDC01CB0102C02D9105D0EC
:1045D00041505040D8F70895262FF999FECF1FBAC1
:1045E00092BD81BD20BD0FB6F894FA9AF99A0FBE1C
:1045F00001960895242FF1DF252FEFDF00C0ECDFB7
:10460000272FEBCF002480FD060E660F11F0869554
:10461000D1F7802D08952F923F924F925F926F9223
:104620007F928F929F92AF92BF92CF92DF92EF9242
:10463000FF920F931F93CF93DF93CDB7DEB7CA1BC3
:10464000DB0B0FB6F894DEBF0FBECDBF09942A88EE
:10465000398848885F846E847D848C849B84AA8496
:10466000B984C884DF80EE80FD800C811B81AA8123
:10467000B981CE0FD11D0FB6F894DEBF0FBECDBFEE
:08468000ED010895F894FFCF4D
:104688000003400000044000000208000000000091
:104698000000000000004101800A1F000080400166
:1046A8004B0347034202800C1F7B14CE3F014A0391
:1046B80046034303800E1F7B14CE3F014903450385
:1046C800440480101F0000803F014803440345054F
:1046D8000400000000000000000043034606040038
:1046E800000000000000000042030000000000007D
:1046F80000000000000000004102000056034203D1
:10470800000054030000000000003D2A7FA93D2A54
:104718007FFCC794809A3D2A7F9A3D2A7FCF612EDD
:1047280030312E30382E3230323200256420256464
:1047380000307825303258203078253032582030F3
:1047480078253032580030610030620044465B30D2
:10475800782530346C585D3A203078005B494E46F5
:104768004F5D20536563746F722050726F74656378
:1047780074696F6E20456E61626C65640A005B49FE
:104788004E464F5D20536563746F722050726F748C
:10479800656374696F6E2044697361626C65640A4D
:1047A80000536563746F725B2532757E2532755DC3
:1047B8003A2000253032582000256C6400545800F7
:1047C80030782530386C5800636869702023257567
:1047D800207361766564206F6E2025313073204028
:1047E80020736563746F72202532750A005B494E29
:1047F800464F5D20536176696E6720746F20636849
:10480800697020232575204020736563746F7220BA
:1048180025750A000D5B494E464F5D2050726F6743
:10482800726573733A20256C752525000D5B494E1A
:10483800464F5D2050726F67726573733A2031304E
:104848003025250A005B494E464F5D204C6F616458
:10485800696E672066726F6D206368697020232512
:1048680075204020736563746F722025750A0025D2
:104878003275202D20252D32347320402073656336
:10488800746F72202532752028253375204B4229F4
:104898000A005B494E464F5D204C6F6164696E6744
:1048A80020222573222066726F6D20736563746FF2
:1048B800722025752028253375204B42290A005B74
:1048C800494E464F5D205570646174696E672022B9
:1048D800252D323473222066726F6D2025337520A2
:1048E8004B42202D3E20253375204B420A00556E41
:1048F8006B6E6F776E20436F6D6D616E643A20004A
:0E4908002846726F6D2041746D656C290000A9
:00000001FF
