:020000040001F9
:10000000000007207D010000C1010000C3010000C5
:10001000C5010000C7010000C90100000000000088
:10002000000000000000000000000000CB01000004
:10003000CD01000000000000CF010000D101000050
:10004000D3010000D5010000D7010000D901000054
:10005000290F0000DD010000DF010000E1010000C8
:10006000E3010000E5010000E701000000000000DE
:10007000E9010000EB010000ED010000EF010000CC
:10008000F1010000F3010000F5010000F70100009C
:10009000F9010000FB010000FD010000FF0100006C
:1000A0000102000003020000050200000702000038
:1000B000090200000B0200000D0200000F02000008
:1000C00010B5054C237833B9044B13B10448AFF392
:1000D00000800123237010BDD00900200000000023
:1000E0001002010008B5034B1BB103490348AFF3ED
:1000F000008008BD00000000D409002010020100AB
:10010000A3F5803A704700BF174B002B08BF134B75
:100110009D46FFF7F5FF00218B460F461348144A12
:10012000121A05F0DDFC0E4B002B00D098470D4B4A
:10013000002B00D098470020002104000D000D483E
:10014000002802D00C4809F06FFE05F0D5F9200018
:10015000290000F015FF04F0C7FD00BF00000800F3
:10016000000000000000000000000720D00900206F
:10017000BC0C0020299E00003DAF00000A490B4A3C
:100180000B4B9B1A03DD043BC858D050FBDC0949DC
:10019000094A00209142BCBF41F8040BFAE7074826
:1001A0008047FFF7B1FF00001C02010000000020A3
:1001B000D0090020D0090020BC0C002069440000B8
:1001C000FEE7FEE7FEE7FEE7FEE7FEE7FEE7FEE707
:1001D000FEE7FEE7FEE7FEE7FEE7FEE7FEE7FEE7F7
:1001E000FEE7FEE7FEE7FEE7FEE7FEE7FEE7FEE7E7
:1001F000FEE7FEE7FEE7FEE7FEE7FEE7FEE7FEE7D7
:10020000FEE7FEE7FEE7FEE7FEE7FEE7FEE7FEE7C6
:1002100038B505461B200C4605F0E8FCBFF36F8F90
:10022000BFF36F8FBFF36F8F0D48294605F0C6FCF3
:10023000BFF36F8FBFF36F8FBFF36F8F2CB10023AE
:10024000BFF36F8F01339C42FAD11B2005F0CEFC27
:10025000BFF36F8FBFF36F8FBFF36F8F38BD00BFDA
:10026000A4F100002DE9F84303F02AFAB0F5907FDD
:1002700080F0F1800A2005F0B9FC03F09FF878487F
:1002800005F00AFD03F01CFA0146764805F096FCDD
:1002900003F022FA0146744805F090FC03F030FAAE
:1002A000804603F02DFA074603F02AFA03463A0A7D
:1002B000DBB241466D4805F081FC03F0F3F90146DD
:1002C0006B4805F07BFC03F015FC0146694C6A4D58
:1002D0006A48002914BF2146294605F06FFC0A2010
:1002E00005F084FC664805F0D7FC03F045FA0146AA
:1002F0006448002914BF2946214605F05FFC03F03D
:1003000041FA0146604EDFF884916148002914BF2C
:100310003146494605F052FC03F052FA01465D4869
:1003200005F04CFC03F060FA5B4A5C49002818BFFA
:1003300011465B4805F042FC03F06AFA0146594851
:1003400005F03CFC03F078FA0146574805F036FC0E
:100350000A2005F04BFC554805F09EFC03F074FAAA
:1003600001464B48002914BF3146494605F026FC9A
:1003700003F07EFA4E4A4F49002818BF11464E48F6
:1003800005F01CFC03F088FA01464C4805F016FC09
:100390000A2005F02BFC4A4805F07EFC03F0C4FA65
:1003A00001464848002914BF2946214605F006FCAD
:1003B0003146454805F002FC03F0E0FA01464348A7
:1003C00005F0FCFB03F0ECFA0146414B414A424880
:1003D000002914BF1146194605F0F0FB0A2005F06C
:1003E00005FC3E4805F058FC03F048F901463C483E
:1003F00005F0E4FB03F0DCFA01463A4805F0DEFBC9
:1004000003F01CFB0146384805F0D8FB03F0EEFA78
:100410000146364805F0D2FB03F030FB0146344874
:1004200005F0CCFB03F03EFB01463248002914BF27
:100430002946214605F0C2FB03F048FB01462E4841
:10044000002914BF2946214605F0B8FBBDE8F84352
:100450000A2005F0CBBB2948BDE8F84305F01CBCD9
:1004600020F2000030F200004CF200006CF20000BC
:1004700098F20000A8F10000B4F10000B4F200000E
:10048000D0F20000E0F20000BCF10000C4F1000076
:10049000FCF2000018F30000D0F10000D8F10000D9
:1004A00034F3000050F300006CF300008CF3000004
:1004B000DCF10000E4F100009CF30000B8F3000060
:1004C000D4F30000E4F30000FCF3000014F4000097
:1004D000F4F10000F0F100002CF4000044F40000FE
:1004E00054F400006CF4000088F40000A0F4000054
:1004F000B8F40000D4F40000ECF40000F8F10000BF
:1005000000222DE9F041B64FB6493B6C90B0384619
:10051000FA54884605F088FEADF104052C460346E2
:100520000FAE44F8043F4146002005F07DFEA64290
:100530000346F6D1009B1B78482B5FD0492B37D060
:100540004A2B3AD1019B1B78422B00F0EC80412BC7
:1005500000F01681432B00F02981442B00F03381F9
:10056000452B00F03381462B00F04A81472B00F0E9
:10057000EC80482B00F06681492B00F08281502BE3
:1005800000F0CB81512B00F0B681522B00F0F681A8
:10059000532B00F0F081542B1ED1029804F062FB23
:1005A000C0B203F045FD01468F4805F007FB13E09C
:1005B000019B1B78412B00F097808C4805F0FEFAD8
:1005C0008B4C55F8041F11B1204605F0F7FAAE42E6
:1005D000F7D1884805F060FB874B1B68986804F0EA
:1005E00053FC042003F03EFE402200217C4805F02D
:1005F00077FA00233B6410B0BDE8F081019B1B78C3
:10060000412B00F08680422B00F08A80432B72D071
:10061000442B00F0A780452B00F0B980462B00F05A
:100620008580492B00F0F9804A2B00F01D814B2B6F
:1006300000F044814C2B00F0AE814F2B00F0C081C4
:10064000502B00F0FB81512B00F02F82522B00F039
:100650002C84532B00F01284542B00F00484552B6F
:1006600000F0EA83562B00F0D783572B00F0BD83B0
:10067000582B00F0AF83592B00F09D835A2B00F0CC
:100680008E835B2B00F04D835C2B00F044835D2B4D
:1006900000F02F835E2B00F015835F2B00F0FF82AC
:1006A000602B00F0F082612B00F0DC82622B00F006
:1006B000C882632B00F04D83642B00F04783652BC9
:1006C00000F03E83662B00F03883672B00F04783F1
:1006D000682B00F04183692B7FF46FAF029804F020
:1006E000C1FA02F06DFF77E703F034FA01464348A0
:1006F00005F064FA70E7029B1B78412B69D0422B0E
:100700007FF45BAF02F0BAFF0146374805F056FAB6
:1007100062E702F09BFF0146384805F04FFA5BE7BD
:10072000FFF7A0FD58E703F063FB55E7029B1B783A
:10073000412B00F0FF80422B7FF43FAF02F0CCFF53
:100740000146294805F03AFA46E7029804F08AFA89
:100750000446039804F086FA0146E0B289B203F039
:10076000C5FB39E7029B1B78412B65D0422B7FF4F8
:1007700024AF02F097FF01461B4805F01FFA2BE754
:10078000029804F06FFA80B203F03CFB24E7029B6E
:100790001B78412B00F08C80422B7FF40EAF02F0CF
:1007A0008FFF0146104805F009FA15E7029804F09A
:1007B00059FA0446039804F055FA0146A0B2C9B2AA
:1007C00003F040FB08E703F043FB05E703F06AFB97
:1007D00002E7039804F046FA02F044FFFCE600BF8B
:1007E000EC0900202CF5000018F600001CF50000B4
:1007F000A4F1000030F500001400002004F5000012
:10080000029804F02FFA0446039804F02BFA0146EC
:10081000E0B2C9B203F060FBDEE6029B1B78412B1D
:1008200000F0C680422B7FF4C8AE02F069FF01469B
:10083000B04805F0C3F9CFE6039804F013FA02F0CC
:1008400025FFC9E6029804F00DFA0546039804F066
:1008500009FA0446049804F005FA0246A1B2E8B287
:1008600092B203F04DFBB7E6029B1B78412B69D097
:10087000422B00F0C880432B7FF49FAE02F08AFF2A
:10088000AAE6029804F0EEF90546039804F0EAF9A6
:100890000646049804F0E6F90446059804F0E2F9E7
:1008A0000346B1B2E8B2A2B2DBB203F033FB93E687
:1008B000039804F0D7F902F0FDFE8DE6029B1B7849
:1008C000412B00F0CF80422B7FF486AE039B1B7838
:1008D000412B00F06D81422B00F06381432B00F02F
:1008E0005981442B7FF469AE02F0DEFF0146814856
:1008F00005F064F970E6029804F0B4F9054603982F
:1009000004F0B0F90446049804F0ACF90246A1B230
:10091000E8B292B203F032FB5EE6029804F0A2F96C
:100920000446039804F09EF90146E0B2C9B203F010
:10093000FFFA51E600220398114605F02DFE02F061
:10094000C5FE49E6039B1B78412B00F01D81432B1C
:1009500000F01481442B00F00B81452B00F0028144
:10096000462B7FF42AAE00220498114605F014FEAF
:1009700002F056FF30E603F015FB2DE6029804F076
:1009800071F90446039804F06DF90146E0B2C9B26A
:1009900003F0FEFA20E6029B1B78412B00F09980C1
:1009A000422B6DD0442B7FF408AE02F0CBFF13E650
:1009B00000220398114605F0EFFD02F093FE0BE6CE
:1009C000029B1B78412B00F09980422B7FF4F5AD00
:1009D000039B1B78412B00F0A480422B00F08C82FB
:1009E000432B00F08182442B00F01781452B00F04F
:1009F0000D81462B7FF4E1AD03F068F801463D48D8
:100A000005F0DCF8E8E5039B1B78412B00F0F7804C
:100A1000422B00F0ED80432B00F0E380442B00F0EC
:100A2000D980452B00F00081462B7FF4C6AD02F043
:100A300003FF0146304805F0C1F8CDE5029B1B7865
:100A4000412B00F0BC80422B7FF4B7AD039B1B7899
:100A5000412B7FF4B2AD03F04DF80146254805F077
:100A6000ADF8B9E5039B1B78422B00F0E480432BE3
:100A70007FF4A3AD049804F0F5F802F001FFABE5B4
:100A8000039B1B78412B00F02782422B00F01C8235
:100A9000432B00F01182442B7FF48FAD02F080FFD6
:100AA0000146144805F08AF896E5029B1B78412B15
:100AB00000F06781422B40F05881039B1B78412B4B
:100AC0007FF47BAD03F02AF801460A4805F076F87A
:100AD00082E5039B1B78412B00F01D82432B00F025
:100AE0001382442B7FF469AD049804F0BBF802F044
:100AF0004BFF71E518F600000CF50000039B1B7816
:100B0000422B29D0432B21D0442B17D0452B0FD07B
:100B1000462B7FF452AD049804F0A4F802F0CAFF0B
:100B20005AE502F045FF0146C14805F047F853E594
:100B3000049804F097F802F0A9FF4DE5002204980C
:100B4000114605F029FD02F08BFF45E5049804F0FD
:100B500089F802F05DFF3FE5049804F083F802F0A5
:100B60002FFF39E5049804F07DF802F045FE33E5E7
:100B7000049804F077F802F02BFE2DE5049804F0B9
:100B800071F802F011FE27E5049804F06BF802F00A
:100B9000C3FD21E502F080FE0146A64805F00EF8EF
:100BA0001AE502F065FE0146A24805F007F813E5D4
:100BB00002F04AFE01469F4805F000F80CE5039B51
:100BC0001B78412B7FF4F9AC049804F04BF802F049
:100BD00085FF01E502F008FE0146964804F0EEFFAD
:100BE000FAE402F0EDFD0146924804F0E7FFF3E479
:100BF00002F0C8FD01468F4804F0E0FFECE402F08B
:100C0000BBFD01468B4804F0D9FFE5E402F04AFF42
:100C10000146884804F0D2FFDEE402F02FFF0146CF
:100C2000834804F0CBFFD7E402F0F2FD014681488F
:100C300004F0C4FFD0E4049804F014F802F00CFEB1
:100C4000CAE4029804F00EF80446039804F00AF887
:100C50000546049804F006F829460246204601F0AD
:100C6000A9FCB9E4029803F0FDFF0446039803F0E1
:100C7000F9FF0546049803F0F5FF29460246204691
:100C800001F084FBA8E4029803F0ECFF044603980B
:100C900003F0E8FF0146204601F056FB9CE4029871
:100CA00003F0E0FF0446039803F0DCFF0022054652
:100CB0001146049805F070FC29460246204601F0D2
:100CC0001BFB89E4029803F0CDFF0446039803F070
:100CD000C9FF002205461146049805F05DFC29462F
:100CE0000246204600F0F4FD0146524804F066FF3B
:100CF00072E4029803F0B6FF0022044611460398FE
:100D000005F04AFC0146204600F0C4FD0146484873
:100D100004F054FF60E4029803F0A4FF00F0B0FD7B
:100D20005AE4029803F09EFF0446039803F09AFFEA
:100D30000146204600F0E0FE4EE401F0F5FE4BE4F3
:100D4000029803F08FFF01F0ABFE45E401F0F4FDE3
:100D500042E401F0B1FD3FE402F0D6FA3CE402982F
:100D600003F080FF01F0FEFE36E4452B14D0462B45
:100D70007FF423AC02F0E6FE01462E4804F01EFF8D
:100D80002AE4039B1B78412B7FF417AC049803F0F3
:100D900069FF02F0B7FE1FE402F0C8FE1CE40298EF
:100DA00003F060FF0446039803F05CFF0146204611
:100DB00000F0D2FC10E4DDE902301D7803F052FFB0
:100DC0000446049803F04EFF21460246284600F0F0
:100DD00089FC01E4DDE902301C7803F043FF0146A1
:100DE000204600F0BFFBFFF7F7BB029803F03AFF85
:100DF0000446039803F036FF0546049803F032FFDB
:100E00000646059803F02EFF324603462946204643
:100E100000F098FBFFF7E0BBDDE902301C7803F03F
:100E200021FF0146204600F0CDFAFFF7D5BB00BFF9
:100E300014F5000018F60000029803F013FF0446B2
:100E4000039803F00FFF0546049803F00BFF0646D6
:100E5000059803F007FF324603462946204600F076
:100E6000A1FAFFF7B9BBDDE902301C7803F0FAFE06
:100E70000146204600F0D4F9FFF7AEBB029803F01C
:100E8000F1FE0446039803F0EDFE0546049803F0D6
:100E9000E9FE0646059803F0E5FE3246034629467C
:100EA000204600F0ADF9FFF797BB029803F0DAFE99
:100EB00000F00EF9FFF790BB02F060FD0146194803
:100EC00004F07CFEFFF788BB02F036FD01461548B2
:100ED00004F074FEFFF780BB02F026FD01461148C6
:100EE00004F06CFEFFF778BB02F0A8FD01460D4848
:100EF00004F064FEFFF770BB02F078FD014609487C
:100F000004F05CFEFFF768BB049803F0ABFE02F050
:100F10002BFDFFF761BB049803F0A4FE02F0CAFCAE
:100F2000FFF75ABB18F6000038B50A480A4C03F020
:100F30004DFA0848256C03F02BFA236C6055E25CEF
:100F40000A2A03D00AB10133236438BDBDE8384012
:100F5000FFF7D6BA00600040EC09002008B506484B
:100F600004F09AFE1022054B04201A60C3F8802179
:100F700003F078F9FEE700BF3CF5000000E100E077
:100F800008B503F053F90A2004F030FE044905487F
:100F900004F014FE0A2004F029FEFFF7DFFF00BF73
:100FA00060F5000070F50000F0B5224C054626689B
:100FB0008BB0B37E032B23D043270197768A4D2332
:100FC0000096422641221C4902A805F095F8616866
:100FD00002A8FFF71DF9019626684D23368A4122A3
:100FE000154902A8009605F087F8616802A8FFF786
:100FF0000FF92368988A02F0B7FC002002F0C4FCC5
:10100000012002F057FC284602F06CFB2368DB8AC3
:101010003BB1002502F096FC23680135DB8A9D4236
:10102000F8D3002002F046FC032223689A760BB026
:10103000F0BD00BF04000020A8F50000F0B5224C70
:10104000054626688BB0B37E042B23D04327019737
:1010500076894D230096422641221C4902A805F0BC
:101060004BF8616802A8FFF7D3F8019626684D2374
:1010700036894122154902A8009605F03DF86168BD
:1010800002A8FFF7C5F82368988902F06DFC0120DB
:1010900002F07AFC012002F00DFC284602F022FB4F
:1010A0002368DB893BB1002502F04CFC2368013545
:1010B000DB899D42F8D3002002F0FCFB0422236868
:1010C0009A760BB0F0BD00BF04000020A8F5000028
:1010D000B0F5907F77D22DE9F0410446444D8AB0B7
:1010E00002F0E8FA2B681A1903EB4403B3F85C72B8
:1010F00092F81B8092F83B6102F0E2FAB0F5907F23
:1011000003465CD22A684046D11802EB430381F8BB
:101110001B8081F83B61A3F85C7202F079FC3046D9
:1011200002F04EFC384602F09BFC47F68C182B6808
:1011300004EB080203EB42039F8802F0C1FAB0F50A
:10114000907F064650D2B7F5FA7F43D83B462868D1
:10115000464400EB4606B7804126264900934222CA
:10116000472302A8019604F0C7FF696802A801EBB3
:1011700081018900FFF74CF800222B68188B9A76C2
:1011800002F012FB2868044494F89C6494F8BC456F
:1011900002F096FAB0F5907F18D22B68034483F8DA
:1011A0009C64304683F8BC4502F056FB204602F0B2
:1011B00067FB00222B689A760AB0BDE8F0810E48E2
:1011C00004F06AFDB1E70C4804F066BD0A4804F07B
:1011D00063FDEEE7094804F05FFD00232A684644FA
:1011E00002EB4606B380B7E7034804F055FDC3E7BA
:1011F00004000020A8F50000F8F10000B8F5000098
:101200004FF0000C10B4054C246884F81AC02080FC
:101210006180A280E38010BC704700BF0400002002
:101220002DE9F0435C4D04462B680E469A7E8BB048
:10123000022A25D04322422701925B884122574946
:10124000009302A84D2304F057FF696802A84900E3
:10125000FEF7DEFF01972F684D233F8841224F495B
:1012600002A8009704F048FF696802A84900FEF749
:10127000CFFF2B68988802F077FB012002F084FBF7
:10128000012002F017FB412C23D0422C0CD0432C20
:101290006CD0442C2DD0002002F00CFB02222B68D5
:1012A0009A760BB0BDE8F083360206F580773046BB
:1012B00002F018FA2B68DB883BB1002402F042FBF5
:1012C0002B680134DB88A342F8D80136B742EED14F
:1012D000E1E7304602F006FA2B68DB88002BDAD013
:1012E000002402F02FFB2B680134DB88A342F8D8DE
:1012F000D1E7DFF8AC905B2004F078FCD9F800303F
:101300004FF48077986803F0BFFD4FF000084FEA74
:101310000826304602F0E6F92B68DB883BB1002452
:1013200002F010FB2B680134DB88A342F8D80136A9
:10133000B742EED118F00F0F0FD008F10108B8F541
:10134000807F07F58077E2D15D2004F04FFCD9F86B
:101350000030986803F098FD9DE73E2004F046FCBD
:10136000D9F80030986803F08FFDE6E706F580377E
:10137000304602F0B7F92B68DB883BB1002402F05D
:10138000E1FA2B680134DB88A342F8D806F58076B1
:10139000B742EDD17FE700BF04000020A8F50000B0
:1013A000140000204FF0000C10B4054C246884F8A1
:1013B0001AC020816181A281E38110BC704700BF07
:1013C000040000202DE9F0435B4D04462B680E46D7
:1013D0009A7E8BB0042A23D04322422701925B8954
:1013E00041225649009302A84D2304F085FE696806
:1013F00002A8FEF70DFF01972F684D233F89412278
:101400004E4902A8009704F077FE696802A8FEF72B
:10141000FFFE2B68988902F0A7FA012002F0B4FAC7
:10142000012002F047FA412C23D0422C0CD0432C4F
:101430006CD0442C2DD0002002F03CFA04222B6802
:101440009A760BB0BDE8F083360206F58077304619
:1014500002F048F92B68DB893BB1002402F072FAF4
:101460002B680134DB89A342F8D80136B742EED1AC
:10147000E1E7304602F036F92B68DB89002BDAD041
:10148000002402F05FFA2B680134DB89A342F8D80C
:10149000D1E7DFF8AC905B2004F0A8FBD9F800306E
:1014A0004FF48077986803F0EFFC4FF000084FEAA4
:1014B0000826304602F016F92B68DB893BB1002480
:1014C00002F040FA2B680134DB89A342F8D80136D8
:1014D000B742EED118F00F0F0FD008F10108B8F5A0
:1014E000807F07F58077E2D15D2004F07FFBD9F89B
:1014F0000030986803F0C8FC9DE73E2004F076FBBE
:10150000D9F80030986803F0BFFCE6E706F58037AD
:10151000304602F0E7F82B68DB893BB1002402F08B
:1015200011FA2B680134DB89A342F8D806F58076DE
:10153000B742EDD17FE700BF04000020A8F500000E
:10154000140000204FF0000C10B4054C246884F8FF
:101550001AC020826182A282E38210BC704700BF61
:10156000040000202DE9F0435B4D04462B680E4635
:101570009A7E8BB0032A23D04322422701925B8AB2
:1015800041225649009302A84D2304F0B5FD696835
:1015900002A8FEF73DFE01972F684D233F8A4122A6
:1015A0004E4902A8009704F0A7FD696802A8FEF75B
:1015B0002FFE2B68988A02F0D7F9002002F0E4F998
:1015C000012002F077F9412C23D0422C0CD0432C7F
:1015D0006CD0442C2DD0002002F06CF903222B6833
:1015E0009A760BB0BDE8F083360206F58077304678
:1015F00002F078F82B68DB8A3BB1002402F0A2F9F4
:101600002B680134DB8AA342F8D80136B742EED109
:10161000E1E7304602F066F82B68DB8A002BDAD06F
:10162000002402F08FF92B680134DB8AA342F8D83A
:10163000D1E7DFF8AC905B2004F0D8FAD9F800309D
:101640004FF48077986803F01FFC4FF000084FEAD2
:101650000826304602F046F82B68DB8A3BB10024AE
:1016600002F070F92B680134DB8AA342F8D8013606
:10167000B742EED118F00F0F0FD008F10108B8F5FE
:10168000807F07F58077E2D15D2004F0AFFAD9F8CA
:101690000030986803F0F8FB9DE73E2004F0A6FABE
:1016A000D9F80030986803F0EFFBE6E706F58037DD
:1016B000304602F017F82B68DB8A3BB1002402F0B9
:1016C00041F92B680134DB8AA342F8D806F580760D
:1016D000B742EDD17FE700BF04000020A8F500006D
:1016E000140000202DE9F047174632B305460E4698
:1016F0000024DFF85480DFF854A0DFF8549002E0B3
:101700000134BC4219D031462846FFF75BFE314612
:101710002846FFF727FF08FB04F3B3F1333FEFD868
:1017200021463A46504604F049FAD9F800300134CF
:10173000986803F0A9FBBC42E5D13A463946BDE8BA
:10174000F047044804F03ABACDCCCCCC14F60000F3
:10175000140000201CF600002DE9F04F11F0010BE1
:101760000C4683B020F0E00540F0868014F0020AB9
:101770007DD114F0040975D114F008086DD114F06E
:10178000100765D114F020065DD114F040030193D9
:1017900054D114F0800449D1BBF1000F3FD0BAF10D
:1017A000000F34D0B9F1000F29D0B8F1000F1FD0CD
:1017B0009FB1C6B1019B1BB144B103B0BDE8F08F2E
:1017C00005F1C000FFF7F0FB002CF6D105F1E000B9
:1017D00003B0BDE8F04FFFF7E7BB05F18000FFF76E
:1017E000E3FB002EE6D105F1A000FFF7DDFBE1E70A
:1017F00005F16000FFF7D8FB002FDAD1EDE705F126
:101800004000FFF7D1FBB8F1000FD1D1F0E705F1AF
:101810002000FFF7C9FBB9F1000FC6D1EFE728465A
:10182000FFF7C2FBBAF1000FBCD1F0E705F1E00011
:10183000FFF704FCBBF1000FB1D1F0E705F1C000E8
:10184000FFF7FCFBA5E705F1A000FFF7F7FB9CE71E
:1018500005F18000FFF7F2FB94E705F16000FFF768
:10186000EDFB8CE705F14000FFF7E8FB84E705F1AD
:101870002000FFF7E3FB7CE72846FFF7DFFB75E777
:101880000022034B1B6818839A7680B201F08CBF4C
:101890000400002038B50D46044601F023FF284619
:1018A00001F0BEFF012001F037FF01F073FF0020BF
:1018B00001F032FF0122054BC4F342101B689A76F7
:1018C00001F0D0FEBDE8384002F072B804000020FC
:1018D0002DE9F04F89B00446164601F0F1FEB0F54F
:1018E000907F80F0FE800546204601F0FBFE3046EA
:1018F00001F096FF012001F00FFF01F04BFF0020E7
:1019000001F00AFF01227A4BC4F342101B689A7659
:1019100001F0A8FE02F04CF8002E00F0E080002458
:10192000731E01341E40E4B2FAD1B4210026704B7C
:1019300005FB01F11B6804EB84002B4493F89C34F5
:10194000A4F1040A0493A31F0393E31F0593A4F1D6
:1019500008030693A4F10903079301EB8003CDE983
:10196000016353464FF05A0CA4F10309CA46994645
:101970000CFB05F5671EA4F1020BA4F10508304627
:1019800001F070FE02F014F842F69C01584B029AE6
:101990001B6803EB020E3EF80110814280F0938039
:1019A0007A1C75D041F24C4E07EBC7012944214403
:1019B000714403EB41018988814280F08680BBF14C
:1019C000FF3F65D00BEBCB0129442144714403EB6D
:1019D0004101898888427AD9BAF1FF3F58D00AEB91
:1019E000CA0129442144714403EB4101898888429A
:1019F0006FD9B9F1FF3F4BD009EBC901294421440C
:101A0000714403EB41018988884264D9B8F1FF3FF2
:101A10003ED008EBC80129442144714403EB410145
:101A20008988884259D9039A511C31D002EBC201EE
:101A300029442144714403EB4101898888422FD90C
:101A4000059A511C24D002EBC2012944214471445F
:101A500003EB41018988884222D9069A511C17D08C
:101A600002EBC20129442144714403EB41018988FE
:101A7000884215D9079A511C0AD002EBC2012944A9
:101A80002144714403EB410CBCF80410814207D29D
:101A90000136082E7FF473AF019809B0BDE8F08FCE
:101AA0001146049B012B04D0019BB1400B440193D0
:101AB000EEE7072EF8D1019BA3EBC1130193019828
:101AC00009B0BDE8F08F2146EBE73946E9E7594612
:101AD000E7E75146E5E74946E3E74146E1E73446B3
:101AE00023E7044804F0D8F84FF0FF330193D3E71D
:101AF00004000020F8F100002DE9F04F4FF0030939
:101B000006460C4620F0E00589B005F580782F46A2
:101B100038462037FFF748FAB845F9D101220021AD
:101B20003046FFF7D5FE20B109F1FF3919F0FF0962
:101B3000EDD105F1200005F1800C0290CDF804C034
:101B400005F1400005F1A00C0390CDF814C005F19B
:101B5000600005F1C00C14F0010F04F0020704F05E
:101B6000040804F0080904F0100A04F0200204F04C
:101B7000400104F080030690CDF810C005F1E00BA1
:101B80004DD123BB002940F0A2810325002A40F05B
:101B90002782234683464446B0464E469946002F48
:101BA00078D1002C70D1002E64D1BAF1000F67D12A
:101BB000012200214046FFF78BFE484505F1FF3525
:101BC00002D015F0FF05EAD109B0BDE8F08F03257A
:101BD000002940F0FC80002A40F0A58023464446BE
:101BE000B0464E469946002F64D1002C5CD1002EA1
:101BF00056D1BAF1000F40F030825846FFF71EFA76
:101C0000012200214046FFF763FE484505F1FF35FC
:101C1000DAD015F0FF05D7D0002FE6D04AE0002B30
:101C200040F08A814FF0030B002940F0AB80002A7E
:101C300040F09F8023464446A8464D46B14656464E
:101C40009A464046FFF7FAF9002F43D1002C3BD1CA
:101C5000002D35D1002E40F0F881012200214846A8
:101C6000FFF736FE82450BF1FF3BADD01BF0FF0BBB
:101C7000E7D1A9E75846FFF7E1F9BAF1000F97D08D
:101C80000198FFF7DBF993E70398FFF7D7F9002EE8
:101C90008BD0EFE70298FFF7D1F9002C83D0F3E760
:101CA0000698FFF7CBF9A4E70398FFF7C7F9002ED2
:101CB0009FD0F5E70298FFF7C1F9002C97D0F3E722
:101CC0000698FFF7BBF9C5E70398FFF7B7F9002DB2
:101CD000C0D0F5E70298FFF7B1F9002CB8D0F3E7D0
:101CE0000298FFF7ABF9B8F1000F40F0FE81B9F1AF
:101CF000000F40F0F681BAF1000F40F080820598A5
:101D0000FFF79CF95846FFF799F901220021304668
:101D1000FFF7DEFDA04205F1FF353FF455AF15F0AA
:101D2000FF053FF451AF002FDAD1B8F1000FDED03C
:101D3000DBE10298FFF782F9B8F1000F40F0C981AA
:101D4000B9F1000F40F0C181BAF1000F40F05F829D
:101D50000598FFF773F9012200213046FFF7B8FD1F
:101D600084420BF1FF3B3FF42FAF1BF0FF0B3FF41E
:101D70002BAF2846FFF762F9002FDAD1B8F1000F38
:101D8000DED0A6E1002A6DD12846FFF757F9002FD3
:101D900040F09381B8F1000F40F08781B9F1000F56
:101DA00040F07F81BAF1000F40F02D820498FFF7D8
:101DB00045F9012200213046FFF78AFD84420BF1EC
:101DC000FF3B3FF401AF1BF0FF0BDDD1FCE6002A27
:101DD00077D1002F40F05D81B8F1000F40F05181C4
:101DE000B9F1000F40F04981BAF1000F40F00382D1
:101DF0000498FFF723F95846FFF720F90122002144
:101E00003046FFF765FDA04205F1FF353FF4DCAE3B
:101E100015F0FF053FF4D8AE002FDDD039E1029870
:101E2000FFF70CF9B8F1000F40F06F81B9F1000F26
:101E300040F06381BAF1000F40F097810598FFF7F9
:101E4000FDF80498FFF7FAF8012200213046FFF769
:101E50003FFD84420BF1FF3B3FF4B6AE1BF0FF0B9E
:101E60003FF4B2AE2846FFF7E9F8002FD7D1B8F11A
:101E7000000FDBD049E10298FFF7E0F8B8F1000F5E
:101E800040F06B81B9F1000F40F05F81BAF1000FB3
:101E900040F057810598FFF7D1F80498FFF7CEF886
:101EA0005846FFF7CBF8012200213046FFF710FD1E
:101EB000A04205F1FF353FF487AE15F0FF053FF472
:101EC00083AE002FD7D1B8F1000FDBD045E1002A57
:101ED00040F04F812346E34644460325B0464E4634
:101EE00099461FBBE4B9BEB9BAF1000F40F0B1800A
:101EF0005846FFF7A3F8012200214046FFF7E8FC0F
:101F0000484505F1FF353FF45FAE15F0FF053FF49E
:101F10005BAE002FE6D009E00698FFF78FF8E3E705
:101F20000398FFF78BF8002EDED0F5E70298FFF755
:101F300085F8002CD7D0F3E70323002940F06B810C
:101F4000CDF810809846002A44D12846FFF776F84D
:101F5000002F40F04C81049B002B40F08680B9F1AB
:101F6000000F7ED1BAF1000F40F03D815846FFF7D7
:101F700065F8012200213046FFF7AAFC844208F1EF
:101F8000FF383FF421AE18F0FF08DED11CE60298BE
:101F9000FFF754F8049B002B40F0CB80B9F1000F01
:101FA00040F0BF80BAF1000F40F0B7800598FFF70E
:101FB00045F85846FFF742F8012200213046FFF766
:101FC00087FC844208F1FF383FF4FEAD18F0FF08AB
:101FD0003FF4FAAD2846FFF731F8002FDAD0D6E704
:101FE0002346DDF814B04446B0464E46994617BB2A
:101FF000DCB9B6B9BAF1000F23D15846FFF71EF885
:10200000012200214046FFF763FC814505F1FF35C1
:102010003FF4DAAD15F0FF053FF4D6AD002FE7D061
:1020200009E00698FFF70AF8E4E70398FFF706F8D7
:10203000002EDFD0F5E70298FFF700F8002CD8D08B
:10204000F3E70198FEF7FAFFD7E70198FEF7F6FFEE
:1020500003E60198FEF7F2FF4AE70198FEF7EEFF6C
:10206000CBE50698FEF7EAFF7CE70398FEF7E6FF6C
:10207000B9F1000F3FF476AFF3E70698FEF7DEFF05
:10208000B2E60398FEF7DAFFB9F1000F3FF4ACAE09
:10209000F3E70298FEF7D2FFB8F1000F3FF4A0AECD
:1020A000EFE70698FEF7CAFF7CE60398FEF7C6FF47
:1020B000B9F1000F3FF476AEF3E70298FEF7BEFFEA
:1020C000B8F1000F3FF46AAEEFE70698FEF7B6FFEF
:1020D0003AE60398FEF7B2FFB9F1000F3FF434AED1
:1020E000F3E70698FEF7AAFF05E60398FEF7A6FFBA
:1020F000B9F1000F3FF4FFADF3E70698FEF79EFF3E
:10210000BAF1000F3FF49AAE2FE00398FEF796FF66
:10211000B9F1000F3FF48EAEEFE70198FEF78EFFA6
:1021200044E70698FEF78AFFBAF1000F3FF43EAF8E
:10213000F3E70398FEF782FFB9F1000F3FF432AFE7
:10214000EFE70198FEF77AFFA4E60698FEF776FF20
:10215000BAF1000F3FF49EAEF3E70398FEF76EFF6F
:10216000B9F1000F3FF492AEEFE70198FEF766FF7A
:1021700064E60325DDF814B057BBB8F1000F20D199
:10218000B9F1000F19D1BAF1000F28D15846FEF766
:1021900055FF0498FEF752FF012200213046FFF759
:1021A00097FBA04205F1FF353FF40EAD15F0FF059A
:1021B0003FF40AAD002FE0D00AE00698FEF73EFF9C
:1021C000E1E70398FEF73AFFB9F1000FDBD0F4E73F
:1021D0000298FEF733FFB8F1000FD1D0F1E7019874
:1021E000FEF72CFFD2E70198FEF728FFBEE6029823
:1021F000FEF724FFAFE60198FEF720FFF8E501980F
:10220000FEF71CFF7BE50198FEF718FFCEE501986D
:10221000FEF714FF9CE5AABBCDF81480984628462B
:10222000FEF70CFF57BB059BEBB9B9F1000F16D1B8
:10223000BAF1000F1ED10498FEF700FF5846FEF7D2
:10224000FDFE012200213046FFF742FB844208F1E7
:10225000FF383FF4B9AC18F0FF08E0D1B4E40698B9
:10226000FEF7ECFEE4E70398FEF7E8FEB9F1000F95
:10227000DED0F4E70198FEF7E1FEDCE70298FEF716
:10228000DDFED0E7CDF81C8098462846FEF7D6FE46
:102290006FBB079B03BBB9F1000F19D1BAF1000F57
:1022A00021D10598FEF7CAFE0498FEF7C7FE5846EE
:1022B000FEF7C4FE012200213046FFF709FBA042D1
:1022C00008F1FF383FF480AC18F0FF08DDD17BE463
:1022D0000698FEF7B3FEE1E70398FEF7AFFEB9F10B
:1022E000000FDBD0F4E70198FEF7A8FED9E70298CB
:1022F000FEF7A4FECDE700BF70B505460E461446B6
:1023000001F0DEF9B0F5907F15D203460C4A28465D
:102310001268D11802EB4303CD7681F83B61A3F834
:102320005C4201F075FB304601F04AFB2046BDE8F7
:10233000704001F095BB0348BDE8704003F0ACBCB1
:1023400004000020F8F1000038B505460C4601F005
:10235000B7F9B0F5907F0FD203460A4A28461268B3
:10236000134483F89C5483F8BC4501F075FA204669
:10237000BDE8384001F084BA0348BDE8384003F0B6
:102380008BBC00BF04000020F8F100002DE9F04FE5
:10239000034647F6FF7A8FB001201C46CDE90312B1
:1023A000059301F087FB504601F05AFB4222DFF80B
:1023B000F8B140274FF0FF3647235946CDE9004298
:1023C000DFF8E89106A803F097FED9F8041006A8F4
:1023D00001EB81018900FDF71BFF4FF001081DE0B3
:1023E000204601F015FB002001F07CF9002001F0EF
:1023F00017FA012001F090F901F0CCF9002001F06A
:102400008BF9D9F80030002083F81A8001F02AF9FE
:1024100001F0CEFA5045254655D02646F419BB1B8F
:1024200004EBD474012B4FEA6404D9DC2546039BEA
:1024300042220093402647234FF0FF3A4FF0010B12
:10244000594906A8019203F057FED9F8041006A8CE
:1024500001EB81018900FDF7DBFE1EE0204601F063
:10246000AFFA002001F03EF9002001F0D9F9012077
:1024700001F052F901F08EF9002001F04DF9D9F880
:102480000030002083F81AB001F0ECF801F090FA67
:102490002746804600284ED0264606EB0A04A6EBC7
:1024A0000A0304EBD474012B4FEA6404D6DC2746FC
:1024B000002001F0FFFA3A4629463D4803F07EFB32
:1024C0000FB0BDE8F08F4227DDE9042313445946DD
:1024D0003A46009306A84723019703F00DFED9F86A
:1024E000041006A801EB81018900FDF791FE002090
:1024F00001F0F8F8002001F093F9012001F00CF947
:1025000001F048F9002001F007F9D9F80030002067
:1025100083F81A8001F0A6F801F04AFA47F6FE7334
:10252000984284D9059B3A46019700932746472352
:10253000594606A847E74FF0420ADDE903329B1AE5
:1025400019495246009306A84723CDF804A003F08A
:10255000D3FDD9F8041006A801EB81018900FDF72D
:1025600057FE404601F0BEF8404601F059F90120FF
:1025700001F0D2F801F00EF9404601F0CDF8D9F89B
:102580000030404683F81AB001F06CF801F010FA00
:1025900000288DD1039B5246CDF804A00093A2469B
:1025A0004723014906A84EE7A8F5000004000020D3
:1025B00024F600002DE9F04F91B004461646049130
:1025C00001F07EF8B0F5907F059080F06781B64D00
:1025D000C0EB001307465B00286803F2DC631E2291
:1025E000FF21184403F07CFA012001F063FA422233
:1025F00047230192AD49009408A83F01069703F0D4
:102600007BFD696808A801EB81018900FDF700FEE8
:102610005B2003F0EBFAA64B1B68986802F034FCD1
:10262000049BA3EB04099C42B9FBF6F980F02581D9
:1026300047F6FF734FF000080127DFF870B24FEA4A
:10264000191907930EE0B8FBF6F3B3FBF9F209FB97
:102650001233002B00F00381049B3444A342B044A6
:1026600040F20B814222472301925946009408A868
:1026700003F042FD696808A88900FDF7C9FD002044
:1026800001F030F8002001F0CBF8012001F044F80F
:1026900001F080F8002001F03FF82B6800209F76C1
:1026A00000F0E0FF01F084F98246002001F01AF802
:1026B000002001F0B5F8012001F02EF801F06AF8D1
:1026C000002001F029F82A680020977600F0CAFF60
:1026D00001F06EF902460020039201F003F8002099
:1026E00001F09EF8012001F017F801F053F80020E6
:1026F00001F012F8296800208F7600F0B3FF01F096
:1027000057F9039A52459ED150459CD1079B53459A
:1027100099D983EA0A02D00707D5DDE905032968BC
:10272000181A01EB4001A1F8DC46910707D5DDE955
:1027300005032968181A01EB4001A1F8DE4653078A
:1027400007D5DDE905032968181A01EB4001A1F856
:10275000E046100707D5DDE905032968181A01EBE3
:102760004001A1F8E246D10607D5DDE90503296855
:10277000181A01EB4001A1F8E446930607D5DDE9FC
:1027800005032968181A01EB4001A1F8E646500636
:1027900007D5DDE905032968181A01EB4001A1F806
:1027A000E846110607D5DDE905032968181A01EB8B
:1027B0004001A1F8EA46D30507D5DDE905032968FC
:1027C000181A01EB4001A1F8EC46900507D5DDE9A8
:1027D00005032968181A01EB4001A1F8EE465105DE
:1027E00007D5DDE905032968181A01EB4001A1F8B6
:1027F000F046130507D5DDE905032968181A01EB32
:102800004001A1F8F246D00407D5DDE905032968A7
:10281000181A01EB4001A1F8F446910407D5DDE94F
:1028200005032968181A01EB4001A1F8F646530484
:1028300007D5DDE905132A68591A02EB4102A2F80F
:10284000F846BAF1000F18D0B8FBF6F3B3FBF9F273
:1028500009FB1233CDF81CA0002B7FF4FDAE3E2007
:1028600003F0C4F9124B34441B68B044986802F07A
:102870000BFB049BA3423FF6F5AE5D2003F0B6F9D7
:102880000B4B1B68986802F0FFFA002001F012F968
:1028900000222B689A7611B0BDE8F08F054811B080
:1028A000BDE8F04F03F0F8B904000020A8F50000DF
:1028B00014000020F8F10000F8B500F001FFB0F5B9
:1028C000907F28D20546164803F0E6F9154803F034
:1028D000E3F9134803F0E0F9134803F06FF900241B
:1028E000124F134EC5EB05153B682A1903EB420343
:1028F0003046B3F9DC16013403F060F90F2CF3D144
:102900000A2003F073F9064803F0C6F9BDE8F84061
:102910000A2003F06BB90748BDE8F84003F0BCB9E2
:102920002CF6000098F6000004F7000004000020D8
:1029300018F70000F8F100002DE9F04F8DB000F01D
:10294000BFFEB0F5907F039080F096804D4803F075
:10295000A3F940F60A2441F20A35204604F58074B2
:10296000FEF722FBAC42F8D1474803F095F941F657
:102970000A45204604F58074FEF760FBAC42F8D1AE
:1029800040F24C4600250527B146DFF80081DFF80C
:1029900000B1DFF800A14FF0410C4FEA5904CDE936
:1029A000004C47234222594604A803F0A5FBD8F85F
:1029B000041004A801EB81018900FDF729FC41F214
:1029C0000A3000F08FFE40F2FF1000F029FF0120D6
:1029D00000F0A2FE00F0DEFE002000F09DFE4FF0B1
:1029E0000102D8F8003000209A7600F03BFE00F09B
:1029F000DFFF03463246294650460097029303F014
:102A0000DDF8029B621BB3F5804F06D2012A12D972
:102A10002646052705EB0609BDE7A6EB040303D010
:102A2000012B08D92546F4E7731B012B07F1FF376B
:102A300001D9002FAFD14126039B019603F5F34046
:102A4000D8F800300C3003EB4005AD884723422214
:102A50000F4904A8009503F04FFBD8F8041004A810
:102A600001EB81018900FDF7D3FB21460A4803F001
:102A7000A5F80DB0BDE8F08F08480DB0BDE8F04FE7
:102A800003F00AB920F7000030F70000040000202E
:102A9000A8F5000040F7000018F60000F8F100006B
:102AA00070B58AB0054600F00BFEB0F5907F2CD2D1
:102AB000B5F5FA7F04461AD82A46174E00F5F344B6
:102AC00030680C3400EB4404A58041244723009275
:102AD0001249422202A8019403F00EFB716802A879
:102AE00001EB81018900FDF793FB0AB070BD0C4832
:102AF00003F0D2F80023084E04F5F34430680C3498
:102B000000EB44041A46A380DFE706480AB0BDE89C
:102B1000704003F0C1B800BF04000020A8F5000019
:102B2000B8F50000F8F1000008B500F0C9FDB0F5F7
:102B3000907F0CD2084B00F5F3401B680C3003EB80
:102B400040008188BDE80840044803F037B80448D5
:102B5000BDE8084003F0A0B80400002018F600000B
:102B6000F8F100002DE9F04FFBB0074600F0A8FD9A
:102B7000B0F5907F80F0B883B34E19AC05460FCE08
:102B8000A0460FC40FCE0FC43368B048236003F0D3
:102B900083F8B8F80240B8F8003004F5106606EB88
:102BA000032604EB0324204604F58074FEF7FCF9A9
:102BB000B442F8D108F1040822AB9845E9D1A44801
:102BC00003F06AF80DF16408B8F80030B8F8024074
:102BD00003F1090204F5905606EB032604EB0224E8
:102BE000204604F58074FEF729FAB442F8D108F1C2
:102BF000040822AB9845E7D1002F40F0B9800923A3
:102C00000E93012305935A2303FB05F30F93059BB2
:102C1000093BDBB208934FF0010B0027059C8D4860
:102C2000214602F0CBFF0BFA04FA19AB06930AF126
:102C3000FF3A00263446069BB3F80090B3F80280B2
:102C4000089B04EBC405F41AE4B24C4408EB0424DA
:102C5000204600F047FD504600F0E2FD012000F064
:102C60005BFD00F097FD002000F056FD7A4BC4F3A9
:102C700042101B68013683F81AB000F0F3FC00F034
:102C800097FEEB197AAA02EB430323F8B40C80B247
:102C900036AAC0F50040154401F040FD0BF0EEFFF0
:102CA00067A3D3E9002301F0CDFE01F0B3FF059B3C
:102CB000F4B2A342E855C3D2069B01370433092F6F
:102CC0000693B6D1654802F079FF654C204602F0C4
:102CD00075FF7B1E13F0FF07F8D10A2002F086FF74
:102CE000604802F06BFF604D19AC6288284634F8EA
:102CF000041B02F063FF22AB9C42F6D10A2002F0D3
:102D000075FF564802F05AFF0924554D284602F037
:102D100055FF631E13F0FF04F8D10A2002F066FF8E
:102D20009DF914B0BBF1000F26DB5F4651AB0BEBF6
:102D3000CB0603EB4606059BDFF830914C4DABEB21
:102D4000030839464846B246123E02F037FF344681
:102D500034F8021F284602F031FFA245F8D10A20BC
:102D600002F044FFB84507F1FF3305D01F46E8E7FE
:102D7000FBB205930E9346E7384802F01FFF092483
:102D8000374D284602F01AFF631E13F0FF04F8D1F6
:102D90000A2002F02BFF314802F010FF0924304DC9
:102DA000284602F00BFF631E13F0FF04F8D10A203F
:102DB00002F01CFF2B4802F001FF2B4D19AC62887A
:102DC000284634F8041B02F0F9FE22AB9C42F6D1EF
:102DD0000A2002F00BFF214802F0F0FE0924204DEA
:102DE000284602F0EBFE631E13F0FF04F8D10A2020
:102DF00002F0FCFEBBF1000F3EDB5F460DF1E1038C
:102E00000BEBCB061E44059BDFF86090194DABEB36
:102E1000030839464846B246093E02F0CFFE344622
:102E200014F8011B284602F0C9FEA245F8D10A2079
:102E300002F0DCFE474507F1FF331DD01F46E8E7EF
:102E4000EF39FAFE422EE63F54FC00007CF700000A
:102E50009CF70000B8F700000400002000F9000013
:102E600004F90000DCF70000F0F7000000F80000B3
:102E70000CF800001CF80000984802F09FFE09249E
:102E8000974D2846013C02F099FE14F0FF04F8D15A
:102E90000A2002F0ABFEBBF1000FC0F2158222AB9C
:102EA000059E03EBCB0A10AB5B440A939846731C58
:102EB0001F46ABEB060510A91A464819FF210C93D3
:102EC000CDF82CA002F00CFE13A93A464819214671
:102ED00002F006FE22AB03EBC500FA00214602F029
:102EE000FFFD0DF14B035B449B1B09930BEBCB06E2
:102EF00036AB1E444FEACB030D9313ABD94603EB1D
:102F00000B07ADE0254688F80040002C40F0AD806E
:102F1000002200237078A04284BF38700446CDE9B7
:102F2000062301F0EBFBDDE9062301F0ABFA0246D4
:102F30000B46B078CDE90623A8423CBF054688F889
:102F40000000A04284BF3870044601F0D7FBDDE9E1
:102F5000062301F097FA02460B46F078CDE90623E6
:102F6000A8423CBF054688F80000A04284BF3870E4
:102F7000044601F0C3FBDDE9062301F083FA0246B3
:102F80000B463079CDE90623A8423CBF054688F8B8
:102F90000000A04284BF3870044601F0AFFBDDE9B9
:102FA000062301F06FFA02460B467079CDE906233D
:102FB000A8423CBF054688F80000A04284BF387094
:102FC000044601F09BFBDDE9062301F05BFA0246B3
:102FD0000B46B079CDE90623A8423CBF054688F8E8
:102FE0000000A04284BF3870044601F087FBDDE991
:102FF000062301F047FA02460B46F079CDE9062395
:10300000A8423CBF054688F80000A04284BF387043
:10301000044601F073FBDDE9062301F033FA0246B2
:103020000B46307ACDE90623A84238BF88F8000065
:10303000A0428CBF07F8010907F1FF3701F05EFBE2
:10304000DDE9062301F01EFA264B002201F0FAFC0E
:103050006AE80201099B093EBB4208F1FF3815D01E
:103060003478FF2C7FF44EAF254620463C7001F0AB
:1030700045FB0022002301F005FA024670780B465A
:10308000A0423CBF054688F8000044E70DF1580A0D
:103090000AEB0B06B0465C460A9D0B9F4FFA8BF37A
:1030A00014E02B7812F8012C9A4214D3D7E90001CE
:1030B00001F0B0FD88F80000013C63B2002BA7F1DD
:1030C000080708F1FF3805F1FF350DDB13AA22448C
:1030D000002BE6D12B780AF80430EDE700F9000068
:1030E00004F9000000002240824802F0D5FD824C25
:1030F000824802F0D1FD7F4802F0CEFDDDE90A579B
:1031000013AB13F809304946009315F801392046EE
:10311000019316F8013909F1FF39029377E8022388
:1031200002F04CFD19F0800FEAD0724802F0B4FDB5
:1031300041F24C4001220D9B0F9F059E70495B445C
:103140001AF80B403B4409683344751E034402FAE5
:1031500004F401EB43036DB2C4F500449C806B1C86
:1031600000F0A48005EBC5031AF805403B44334446
:10317000034402FA04F4C4F5004401EB43039C80C9
:10318000B41E64B23546661C00F0908004EBC403A4
:103190003B441AF804402B44034402FA04F401EBC4
:1031A0004303C4F500449C80EC1E64B2631C7DD0D4
:1031B00004EBC4033B441AF804402B44034402FAD2
:1031C00004F401EB4303C4F500449C802C1F64B25B
:1031D000631C6BD004EBC4033B441AF804402B443B
:1031E000034402FA04F401EB4303C4F500449C8059
:1031F0006C1F64B2631C59D004EBC4033B441AF83F
:1032000004402B44034402FA04F401EB4303C4F5E5
:1032100000449C80AC1F64B2631C47D004EBC40321
:103220003B441AF804402B44034402FA04F401EB33
:103230004303C4F500449C80EC1F64B2631C35D08A
:1032400004EBC4033B441AF804402B44034402FA41
:1032500004F401EB4303C4F500449C80A5F108038A
:103260005BB25C1C22D003EBC3041AF8033002FAF1
:1032700003F3E2192A44024401EB4202C3F500437E
:103280009380089AFF2A53B210D01AF80300059AC7
:1032900003EBC3033B441344012203F5A2530C3355
:1032A000824001EB4303C2F500429A80089B9DF8DF
:1032B00030200133DBB208930E9B05929342BFF49A
:1032C000AAAC7BB0BDE8F08F059B0A4801330C9394
:1032D00002F0E2FC094802F0DFFC064802F0DCFCE8
:1032E000044802F0D9FCE1E706487BB0BDE8F04FA6
:1032F00002F0D2BC48F8000024F800007CF800007E
:1033000004000020F8F100002DE9F84300F0D8F99E
:10331000B0F5907F3ED28046214802F0BDFC2148A6
:1033200002F0BAFC1E4802F0B7FC5A23092503FB41
:1033300008F8DFF874901D4F2946484605EBC5068E
:10334000012402F03BFC464404E0013402F036FC68
:103350000A2C11D0331903F5A253A542144803F1E6
:103360000C03F2DC3A68134802EB430399880134FA
:1033700002F024FC0A2CEDD12046013D02F036FC7F
:103380006B1CD9D1064802F087FC2046BDE8F84303
:1033900002F02CBC0848BDE8F84302F07DBC00BF39
:1033A000B0F8000014F9000078F9000004000020D3
:1033B00084F9000010F80000F8F100002DE9F04158
:1033C00082B000F07DF9B0F5907F80F0C3800646B2
:1033D000634802F061FC6348634D02F05DFC6348A2
:1033E00002F05AFC5F4802F057FC28688388428844
:1033F0000188C08800905E4802F0E0FB286883895D
:1034000042890189C08900905A4802F0D7FB286898
:10341000838A428A018AC08A0090574802F0CEFB14
:10342000564A2B6811461B8B5548009202F0C6FB8A
:103430004C4802F031FC0A2002F0D8FB31465148DA
:1034400002F0BCFB504802F027FC504802F024FC7C
:103450004D4802F021FC296801EB4602B2F85C32CB
:1034600002F57042B2F81C03314491F83B21C97E49
:103470000090474802F0A2FB434802F00DFC0A20EE
:1034800002F0B4FB3146434802F098FB424802F098
:1034900003FC424802F000FC3F4802F0FDFB2B68B1
:1034A0003F48334493F8BC2593F89C1402F086FB04
:1034B000394802F0F1FB0A2002F098FBC6EB061334
:1034C0002A685B0003F2DC6331461A44354802F097
:1034D00075FB00F0F5F8B0F5907F074636D232481C
:1034E00002F0DAFB314802F0D7FB2F4802F0D4FBA0
:1034F0002F4802F063FB0024DFF8B880C7EB071702
:103500002B683A1903EB42034046B3F9DC16013449
:1035100002F054FB0F2CF3D10A2002F067FB224883
:1035200002F0BAFB0A2002F061FBB42442F69C03CD
:1035300004FB06332A6831461A441F4802F03EFB5A
:10354000304602B0BDE8F041FFF7DEBE1B4802F096
:10355000A3FBEAE7194802B0BDE8F04102F09CBBCA
:1035600090F90000B4F9000004000020F0F9000018
:103570002CFA000054FA00007CFA0000A4FA0000C3
:10358000ACFA0000D4FA000000FB000028FB0000A9
:1035900050FB000070FB00009CFB0000B4FB00002F
:1035A000CCFB0000E0FB00002CF6000098F60000C9
:1035B00004F7000018F7000014FC0000F8F1000008
:1035C0002DE9F04104460125FDF738FD204600F0C5
:1035D00089F8284600F024F9DFF86880284600F0D2
:1035E0009BF800F0D7F8002000F096F8D8F80030EB
:1035F000C4F342179D76384600F034F800F0D8F94D
:1036000006462046FDF7D0FC204600F06BF8284621
:1036100000F006F9284600F07FF800F0BBF8002023
:1036200000F07AF8D8F8003038469D7600F01AF8A5
:1036300000F0BEF93146BDE8F0410246024802F012
:10364000BDBA00BF0400002048FC0000014BD86A4E
:10365000704700BF00200140014B5868704700BF11
:1036600000200140044AC003536800F4603023F492
:10367000603318435060704700200140024B586887
:10368000C0F3C230704700BF00200140044A8004EC
:10369000536800F47C0023F47C03184350607047A7
:1036A00000200140024B5868C0F38540704700BFBE
:1036B00000200140014B5862704700BF00200140CC
:1036C000014B586A704700BF00200140014B9862CF
:1036D000704700BF00200140014B986A704700BF4F
:1036E00000200140054902020B681B0C1B0443EA41
:1036F000102390B203430B60704700BF00200140CD
:10370000044B18681B68C0B2C3F3072303EB002007
:10371000704700BF00200140164B10B51A680446E0
:10372000510007D4134A136823F0004343EAC473DB
:10373000136010BD1A68002A05DB0E4A136823F0D7
:1037400080431360EEE71A68520005D4094A1368F3
:1037500023F000431360F0E71B68002B05DB054AEC
:10376000136823F080431360F0E70020FFF7D4FFD5
:10377000F5E700BF00200140014B1868C00F7047FB
:1037800000200140024B5868C0F38070704700BFB2
:1037900000200140034A136883F400231360BFF341
:1037A0006F8F704700200140044A0004936800F4C2
:1037B0007F0023F47F03184390607047002001408E
:1037C000024B9868C0F30740704700BF00200140DB
:1037D000044A0006536800F0807023F08073184399
:1037E0005060704700200140024B5868C0F30060F1
:1037F000704700BF00200140044A0004136800F431
:10380000E02023F4E02318431060704700200140BB
:10381000024B1868C0F30240704700BF002001400F
:10382000044A136823F0FF5323F4801343EA005340
:103830001360704700200140024B1868C0F3085025
:10384000704700BF00200140024B5868C0F3407031
:10385000704700BF00200140044A0003536800F491
:10386000805023F48053184350607047002001407B
:10387000024B5868C0F30030704700BF0020014081
:10388000044A8002536800F4406023F44063184304
:103890005060704700200140024B5868C0F38120FF
:1038A000704700BF00200140014BD868704700BF3F
:1038B000002001401B4B10B51A680446002A09DBA2
:1038C000184AA407136804F0804423F080431C4383
:1038D000146010BD1A68510005D4124A136823F011
:1038E00000431360ECE71A68002A05DB0D4A1368F1
:1038F00023F080431360F0E71A68520005D4094AA8
:10390000136823F000431360F0E71B68002B05DB0E
:10391000044A136823F080431360F0E70020FFF7A8
:10392000FBFEF5E700200140024B1868C0F38070F1
:10393000704700BF00200140014B5868C00F70471E
:1039400000200140074A136843F000531360BFF39F
:103950006F8F136823F0005313605368002BFCDA59
:10396000704700BF00200140034A80B293681B0CDF
:103970001B0403439360704700200140014B98688B
:1039800080B2704700200140044A4002536800F4AE
:10399000007023F40073184350607047002001400A
:1039A000024B5868C0F34020704700BF0020014020
:1039B000024B186AC0F30E00704700BF00200140A0
:1039C000C04301220849C0F3C20C4B6902FA0CF251
:1039D00023F47F73013A00F0070023F0030300EBA8
:1039E000C20018434861704700200140074B5A69E4
:1039F00012F47E7FC2F3C60302F0070003D05B0817
:103A000000F10800FBD1C0F13F00704700200140E9
:103A1000C04301220849C0F3C20C8B6902FA0CF2C0
:103A200023F47F73013A00F0070023F0030300EB57
:103A3000C20018438861704700200140074B9A6913
:103A400012F47E7FC2F3C60302F0070003D05B08C6
:103A500000F10800FBD1C0F13F0070470020014099
:103A6000054AC0F30E00D36923F4FF4323F07F031C
:103A70000343D361704700BF00200140024BD86967
:103A8000C0F30E00704700BF00200140044AC0018F
:103A90005368C0B223F0800318435060704700BFE2
:103AA00000200140024B5868C0F3C010704700BFAF
:103AB00000200140044A0002536800F4807023F49F
:103AC000807318435060704700200140024B5868D3
:103AD000C0F30020704700BF00200140044A4006A8
:103AE000536800F0007023F0007318435060704773
:103AF00000200140024B5868C0F34060704700BF8F
:103B000000200140044A8003536800F4804023F4FD
:103B1000804318435060704700200140024B5868B2
:103B2000C0F38030704700BF00200140044B5A684A
:103B300082F400525A605A6882F400525A60704708
:103B400000200140024B5868C0F3C060704700BFBE
:103B500000200140014B9869704700BF00300140D0
:103B6000024A136843F0004313607047003001407D
:103B7000024A136823F0004313607047003001408D
:103B800030B4164D2C68C0B924F000542C60CBB969
:103B9000124B1C6824F47F5C2CF03F0C4CEA0101B2
:103BA00019600E4B023043F820201A6882F08042E0
:103BB0001A60BFF36F8F30BC704744F000542C6024
:103BC000002BE5D0054CC1F57F5123683F3123F42C
:103BD0007F5323F03F030B432360E2E700300140B3
:103BE00010B4144C236898B923F000532360A2B991
:103BF000104A136823F47F5323F03F0319431160E5
:103C0000BFF36F8F0B4B043053F8200010BC70478C
:103C100043F000532360002AEAD0064AC1F57F51E1
:103C200013683F3123F47F5323F03F03194311609E
:103C3000E6E700BF00300140074A136840B923F4AB
:103C400000131360044A136883F0806313607047A5
:103C500043F400131360F5E700300140074A13688E
:103C600040B923F400131360044A136883F08053AF
:103C70001360704743F400131360F5E70030014010
:103C80009AB9134A136823F47F5323F03F0319436F
:103C900011600F4A1368B8B923F4001313600C4A7B
:103CA000136883F0006313607047094AC1F57F51C0
:103CB00013683F3123F47F5323F03F03194311600E
:103CC000034A13680028E7D043F400131360E6E7C3
:103CD00000300140034A53681B0C1B04034353602C
:103CE000704700BF00300140024A136843F0007380
:103CF0001360704700300140024A136823F00073DC
:103D00001360704700300140034A536823F060435A
:103D100043EA407353607047003001400C4A61B978
:103D2000136823F47F5323F03F0318431060084ABD
:103D3000136883F40003136070471368C0F57F5065
:103D400023F47F533F3023F03F0318431060EEE726
:103D5000003001409AB9104A136823F47F5323F0CE
:103D60003F03184310600C4A136823F4E01343EA3E
:103D700081411160136883F0807313607047064AB5
:103D8000C0F57F5013683F3023F47F5323F03F0387
:103D900018431060E7E700BF0030014030B4134C17
:103DA000256825F4E01C4CEA81412160216821F45A
:103DB000703141EA823121606BB9236823F47F536B
:103DC00023F03F0318432060084A30BC136883F097
:103DD0008073136070472368C0F57F5023F47F53CE
:103DE00023F03F033F3018432060EDE700300140EF
:103DF000034B00211A88586802FB02F201F070BEE2
:103E0000700A002010B50E4C02462388834207D169
:103E100060680021BDE8104002FB02F201F060BEC4
:103E200000FB00F16068228001F03EFF22886060A4
:103E30000021BDE8104002FB02F201F051BE00BFBC
:103E4000700A0020014B5B6819547047700A00200B
:103E50002DE9F041114D2A88EAB14FF00008104FCA
:103E60007AB100241FFA88F66B68A1B206FB023310
:103E70003846595C01F0A2FE01342A88A3B29A4266
:103E8000F2D80A2001F0B2FE08F101082A881FFAD0
:103E900088F39A42E4D8BDE8F08100BF700A0020A0
:103EA00078FC0000022000220A4B03F5F07103F8B1
:103EB000120C43F80E2C43F80A2C03F8062C23F8B6
:103EC000042C03F8022C1A601A7118338B42EED1BD
:103ED000704700BF8A0A0020034B00EB400003EB51
:103EE000C0000172704700BF700A0020034B00EB56
:103EF000400003EBC0004181704700BF700A002002
:103F0000034B00EB400003EBC0008181C28170478E
:103F1000700A002010B4054C00EB400004EBC00018
:103F2000037510BC01824282704700BF700A0020F6
:103F300000B5114A00EB400302EBC30393F808E01D
:103F40001976BEF1010F4FEA400C06D05B8A60443F
:103F500002EBC002D3825DF804FB93F814E0998968
:103F60001B8A6044CB1A734493FBFEF302EBC0023E
:103F70009BB2D3825DF804FB700A0020034B00EB78
:103F8000400003EBC000418382837047700A002029
:103F9000034B00EB400003EBC0008177704700BF8C
:103FA000700A00202DE9F04F1D488BB001F074FE1F
:103FB0001C4801F071FE1A4801F06EFE00251A4CF3
:103FC000DFF8689022E0A17DA38A608A94F810B09F
:103FD000B4F80EA094F80C80B4F80AE0B4F808C065
:103FE000E788A688CDE908310790294663884846C6
:103FF000CDE905ABCDE903E8CDE9017C00960135BB
:1040000001F0DCFD142D04F1180402D02278022AFC
:10401000D9D103480BB0BDE8F04F01F03DBE00BF61
:1040200080FC0000ECFC0000780A002058FD000035
:1040300000232DE9F04F4FF0010B89B0DFF8C8A144
:1040400005930693009007939AF80030022B00F036
:10405000BB80069B002B78D16C4B5B680693059B5D
:1040600013B1184601F088FA0421BAF80E0000F0E6
:1040700001FE0346BAF802000593FDF729F8BAF8E5
:104080000430002B36D0009B5D1E00230393069B5B
:10409000EDB25A1E1D4401925F424FF00009039B8E
:1040A0001B020493009B93B14FF0000801990BFA97
:1040B00009F411F8013F234204D0CB190BFA03F3A2
:1040C00048EA0308A942F4D1B8F1000F1FD109F161
:1040D0000109B9F1080FE5D1009A03990198BAF8DE
:1040E0000430114410448B42039115440190A7EB16
:1040F0000207D2D89AF81030002B44D1079B0AF15E
:10410000180A0133142B07939ED113235EE0BAF8EB
:104110000E100029DBD00024059B02954546DDF8F2
:1041200010801E1F002104EB08002A46FDF7D0FB7B
:1041300056F8043FBAF80E10013400FA09F00344AF
:10414000A1423360EED8029DC1E71A462F4B5B684F
:10415000934202D0104601F00FFABAF80440012150
:10416000204600F087FD0690002C3FF478AF0599BB
:10417000421E0B4601EB840053F8041B984202F8E0
:10418000011FF9D16BE7BAF80E100029B6D0059BD4
:1041900000251A4603EB810152F8043B002B0EDB8D
:1041A000BAF81240BAF8140093FBF4F391420344B6
:1041B00042F8043CA2D052F8043B002BF0DA9142C2
:1041C00042F8045CE8D199E7079B013B0F4A03EBF7
:1041D000430302EBC303DA8A92B100234FF000419C
:1041E0001846059C54F823505C1C8D42E6B2C4BFAF
:1041F00018462946B242E3B2F3D809B0BDE8F08FC1
:10420000104609B0BDE8F08F780A0020700A00203F
:1042100070B516463AB14C1EA51814F8010F00F0FF
:1042200021F8AC42F9D1304670BD00BF0B203021DF
:10423000084B10B41B68084C084AA4FB03435B0CF2
:104240001361074B90609961D36810BC43F002037F
:10425000D36070470C000020C5B3A29100600040FD
:1042600000100140024A5368DB07FCD4106070471D
:1042700000600040034A53689B07FCD51068C0B239
:10428000704700BF00600040034A5368DB07FCD45E
:1042900004231360FEE700BF00600040036843F0A2
:1042A00008030360704700BF036823F0080303603E
:1042B000704700BF036843F001030360704700BF0D
:1042C000036823F001030360704700BF4068704734
:1042D0004160704780687047816070470123C36008
:1042E000704700BFC0687047002303604160816071
:1042F00012B109230360704701230360704700BFB8
:10430000002303604160816012B10D230360704798
:1043100005230360704700BF002303604160816094
:1043200012B10B230360704703230360704700BF83
:10433000003A18BF01220BB142F00202009B0BB100
:1043400042F00402019B0BB142F00802029B0BB148
:1043500042F01002039B0BB142F020020023836065
:1043600001618260436813F00C0F14BF012000202C
:10437000704700BF4068C0F340007047406800F0DD
:10438000010070474368DB07FCD40160704700BF41
:1043900043689B07FCD50068C0B270474068C0F313
:1043A000810070470C2343604068C0F38100704770
:1043B00000697047C06800F001007047C068C0F332
:1043C000400070470123C360704700BF0223C360F1
:1043D000704700BF016170474161704700697047D5
:1043E00081617047C16170478069704701238B40CC
:1043F0008363806B704700BF01238B400362006AB8
:10440000704700BF01238B404362406A704700BF82
:10441000012303FA01F1C16201637047012303FA2A
:1044200001F1816201637047012303FA01F1C16266
:1044300041637047012303FA01F1816241637047D0
:10444000D3B2C2F3072203F5807302F5007240F87D
:10445000231040F822107047014B024A1A6070473F
:104460000C0000200024F400014B024A1A6070473F
:104470000C0000200024F40081F0004102E000BFA5
:1044800083F0004330B54FEA41044FEA430594EA14
:10449000050F08BF90EA020F1FBF54EA000C55EA4F
:1044A000020C7FEA645C7FEA655C00F0E2804FEA20
:1044B0005454D4EB5555B8BF6D420CDD2C4480EA02
:1044C000020281EA030382EA000083EA010180EA32
:1044D000020281EA0303362D88BF30BD11F0004F80
:1044E0004FEA01314FF4801C4CEA113102D04042B6
:1044F00061EB410113F0004F4FEA03334CEA1333F1
:1045000002D0524263EB430394EA050F00F0A78008
:10451000A4F10104D5F1200E0DDB02FA0EFC22FA03
:1045200005F2801841F1000103FA0EF2801843FAF7
:1045300005F359410EE0A5F120050EF1200E012AE8
:1045400003FA0EFC28BF4CF0020C43FA05F3C01826
:1045500051EBE37101F0004507D54FF0000EDCF19F
:10456000000C7EEB00006EEB0101B1F5801F1BD348
:10457000B1F5001F0CD349085FEA30004FEA3C0C4C
:1045800004F101044FEA445212F5800F80F09A8042
:10459000BCF1004F08BF5FEA500C50F1000041EB46
:1045A000045141EA050130BD5FEA4C0C404141EB4A
:1045B0000101013C28BFB1F5801FE9D291F0000F45
:1045C00004BF01460020B1FA81F308BF2033A3F1F4
:1045D0000B03B3F120020CDA0C3208DD02F1140CEB
:1045E000C2F10C0201FA0CF021FA02F10CE002F126
:1045F0001402D8BFC2F1200C01FA02F120FA0CFC1F
:10460000DCBF41EA0C019040E41AA2BF01EB045167
:10461000294330BD6FEA04041F3C1CDA0C340EDC65
:1046200004F11404C4F1200220FA04F001FA02F3A8
:1046300040EA030021FA04F345EA030130BDC4F166
:104640000C04C4F1200220FA02F001FA04F340EA5B
:104650000300294630BD21FA04F0294630BD94F00C
:10466000000F83F4801306BF81F480110134013DF3
:104670004EE77FEA645C18BF7FEA655C29D094EA64
:10468000050F08BF90EA020F05D054EA000C04BFE2
:104690001946104630BD91EA030F1EBF00210020CD
:1046A00030BD5FEA545C05D14000494128BF41F06C
:1046B000004130BD14F580043CBF01F5801130BDD0
:1046C00001F0004545F0FE4141F470014FF000005B
:1046D00030BD7FEA645C1ABF194610467FEA655C0C
:1046E0001CBF0B46024650EA013406BF52EA0335AE
:1046F00091EA030F41F4002130BD00BF90F0000F9C
:1047000004BF0021704730B54FF4806404F13204D7
:104710004FF000054FF0000150E700BF90F0000F90
:1047200004BF0021704730B54FF4806404F13204B7
:1047300010F0004548BF40424FF000013EE700BF87
:1047400042004FEAE2014FEA31014FEA02701FBF17
:1047500012F07F4393F07F4F81F06051704732F049
:104760007F4208BF704793F07F4F04BF41F40021A0
:10477000704730B54FF4607401F0004521F00041FE
:104780001CE700BF50EA010208BF704730B54FF088
:1047900000050AE050EA010208BF704730B511F089
:1047A000004502D5404261EB41014FF4806404F1C1
:1047B00032045FEA915C3FF4D8AE4FF003025FEA47
:1047C000DC0C18BF03325FEADC0C18BF033202EBCB
:1047D000DC02C2F1200300FA03FC20FA02F001FA25
:1047E00003FE40EA0E0021FA02F11444BDE600BFC8
:1047F00070B54FF0FF0C4CF4E06C1CEA11541DBF77
:104800001CEA135594EA0C0F95EA0C0F00F0DEF841
:104810002C4481EA030621EA4C5123EA4C5350EA26
:10482000013518BF52EA033541F4801143F4801377
:1048300038D0A0FB02CE4FF00005E1FB02E506F008
:104840000042E0FB03E54FF00006E1FB03569CF05D
:10485000000F18BF4EF0010EA4F1FF04B6F5007F63
:1048600064F5407404D25FEA4E0E6D4146EB0606D5
:1048700042EAC62141EA55514FEAC52040EA5E505E
:104880004FEACE2EB4F1FD0C88BFBCF5E06F1ED808
:10489000BEF1004F08BF5FEA500E50F1000041EB3F
:1048A000045170BD06F0004646EA010140EA0200EC
:1048B00081EA0301B4EB5C04C2BFD4EB0C0541EA0E
:1048C000045170BD41F480114FF0000E013C00F323
:1048D000AB8014F1360FDEBF002001F0004170BD47
:1048E000C4F10004203C35DA0C341BDC04F1140460
:1048F000C4F1200500FA05F320FA04F001FA05F2EC
:1049000040EA020001F0004221F0004110EBD370B8
:1049100021FA04F642EB06015EEA430E08BF20EAE4
:10492000D37070BDC4F10C04C4F1200500FA04F387
:1049300020FA05F001FA04F240EA020001F0004119
:1049400010EBD37041F100015EEA430E08BF20EA8C
:10495000D37070BDC4F1200500FA05F24EEA020ED4
:1049600020FA04F301FA05F243EA020321FA04F003
:1049700001F0004121FA04F220EA020000EBD370BA
:104980005EEA430E08BF20EAD37070BD94F0000FBA
:104990000FD101F00046400041EB010111F4801FEE
:1049A00008BF013CF7D041EA060195F0000F18BF9F
:1049B000704703F00046520043EB030313F4801FDB
:1049C00008BF013DF7D043EA0603704794EA0C0F95
:1049D0000CEA135518BF95EA0C0F0CD050EA4106AB
:1049E00018BF52EA4306D1D181EA030101F0004128
:1049F0004FF0000070BD50EA410606BF1046194650
:104A000052EA430619D094EA0C0F02D150EA01365B
:104A100013D195EA0C0F05D152EA03361CBF10469C
:104A200019460AD181EA030101F0004141F0FE413B
:104A300041F470014FF0000070BD41F0FE4141F4BF
:104A4000780170BD70B54FF0FF0C4CF4E06C1CEABF
:104A500011541DBF1CEA135594EA0C0F95EA0C0F74
:104A600000F0A7F8A4EB050481EA030E52EA03352F
:104A70004FEA013100F088804FEA03334FF0805550
:104A800045EA131343EA12634FEA022245EA11157D
:104A900045EA10654FEA00260EF000419D4208BF2E
:104AA000964244F1FD0404F5407402D25B084FEADB
:104AB0003202B61A65EB03055B084FEA32024FF487
:104AC00080104FF4002CB6EB020E75EB030E22BFE4
:104AD000B61A754640EA0C005B084FEA3202B6EBA4
:104AE000020E75EB030E22BFB61A754640EA5C0053
:104AF0005B084FEA3202B6EB020E75EB030E22BFE3
:104B0000B61A754640EA9C005B084FEA3202B6EBE3
:104B1000020E75EB030E22BFB61A754640EADC00A2
:104B200055EA060E18D04FEA051545EA16754FEA04
:104B300006164FEAC30343EA52734FEAC2025FEA22
:104B40001C1CC0D111F4801F0BD141EA00014FF0B1
:104B500000004FF0004CB6E711F4801F04BF014382
:104B60000020B4F1FD0C88BFBCF5E06F3FF6AFAE9E
:104B7000B5EB030C04BFB6EB020C5FEA500C50F12E
:104B8000000041EB045170BD0EF0004E4EEA1131B1
:104B900014EB5C04C2BFD4EB0C0541EA045170BDB8
:104BA00041F480114FF0000E013C90E645EA060EFC
:104BB0008DE60CEA135594EA0C0F08BF95EA0C0F2A
:104BC0003FF43BAF94EA0C0F0AD150EA01347FF472
:104BD00034AF95EA0C0F7FF425AF104619462CE749
:104BE00095EA0C0F06D152EA03353FF4FDAE1046AC
:104BF000194622E750EA410618BF52EA43067FF4FD
:104C0000C5AE50EA41047FF40DAF52EA43057FF48C
:104C1000EBAE12E74FEA410212F5001215D211D5A0
:104C20006FF47873B3EB625212D94FEAC12343F0A9
:104C3000004343EA505311F0004F23FA02F018BF2B
:104C4000404270474FF00000704750EA013005D1F4
:104C500011F0004008BF6FF0004070474FF00000B7
:104C6000704700BF0A22002101F0D2BB0A230022B4
:104C700001F0AABB03460A4602490868194600F03B
:104C800003B800BF1400002010B502FB01F100F0D2
:104C90007BFC044668B150F8042C22F00302043A6D
:104CA000242A18D8132A06D802460023C2E9003362
:104CB0009360204610BD00231B2AC0E900330FD9A2
:104CC000242AC0E9023311BF00F11002036100F190
:104CD00018024361E9E7002100F002FF204610BD01
:104CE00000F10802E1E700BF08B50021044605F025
:104CF00039F8044B1868C36B03B1984720460AF093
:104D000043FA00BFACFD0000B1F90C20F8B50C4629
:104D10001107074643D4636842F40062002BA28166
:104D20005BDDA56A002D56D000233E683B6093B240
:104D300012F4805255D101233846E169A847421C3C
:104D400065D0A389A56A5B0705D56368C01A236B84
:104D50000BB1E36BC01A0246E16900233846A8474D
:104D6000411C40D13B68002B3DD01D2B01D0162BA0
:104D700054D10022A38923F40063A3812369C4E9E9
:104D80000032216B3E6031B304F14003994202D0FE
:104D9000384600F06DFA002318462363F8BD2669F3
:104DA000CEB193B29A0718BF0023256808BF636984
:104DB0002660AD1BA3600CE02B463246D4F824C01D
:104DC0003846E169E047B0F1000CA5EB0C056644FC
:104DD00016DD002DF0DC0020F8BDE36B002BA0DC1D
:104DE000F9E7206DAFE70022B4F90C30626023F4DC
:104DF00000632269A381DB042260C2D52065C0E77D
:104E0000A3894FF0FF3043F04003A381F8BD3B6816
:104E1000002B96D01D2B06D0162B04D0A38943F06F
:104E20004003A381F8BD00203E60F8BD38B50546BB
:104E30000C4608B1836BA3B1B4F90C00B8B1636E32
:104E4000DB0701D4810515D528462146FFF75CFF15
:104E5000636E0546DA0702D4A3899B050ED5284662
:104E600038BD00F08FF8B4F90C000028E7D10546F2
:104E7000284638BDA06D00F06DFBE5E7A06D00F0A1
:104E800071FB284638BD00BF38B548B3184B0446FF
:104E90001D680DB1AB6BBBB1B4F90C0088B1636E8A
:104EA000DB0701D4810513D528462146FFF72CFFE7
:104EB000636E0546DA0702D4A3899B050CD5284604
:104EC00038BD0546284638BD284600F05BF8E3E7C4
:104ED000A06D00F03FFBE7E7A06D00F043FBEEE7BD
:104EE000044B05491868BDE8384000F0E1BA00BF3E
:104EF00014000020ACFD00002D4E0000014900F020
:104F0000D7BA00BF61AE000008B5436EDA0702D41D
:104F100083899B0501D5002008BD806D00F01AFB38
:104F2000002008BD08B5436EDA0702D483899B05CB
:104F300001D5002008BD806D00F014FB002008BDE5
:104F4000682270B54D1E02FB05F50E4605F1740191
:104F500000F01AFB044640B100210C30C4E90160A6
:104F600005F16802216000F0BBFD204670BD00BF66
:104F7000024B0349186800F09BBA00BFACFD00006B
:104F800061AE00002DE9F0478246394800F0E2FAB0
:104F9000DAF83840002C66D1042303223549DAF8C8
:104FA0000450CAF83C10DFF8D090DFF8D080344FBE
:104FB000344E0AF53B71CAE9B921CAF8E0422146EC
:104FC000EB600822C5E90044C5E904446C66AC60A6
:104FD000AC6105F15C0000F083FDC5E90759C5E946
:104FE0000987EE6205F1580000F0ACFADAF80850D3
:104FF000254B2146EB600822C5E90044C5E904447D
:105000006C66AC60AC6105F15C0000F069FDC5E95F
:105010000759C5E90987EE6205F1580000F092FAD8
:10502000DAF80C50194B2146EB600822C5E9004420
:10503000C5E904446C66AC60AC6105F15C0000F04D
:105040004FFD05F15800C5E90759C5E90A76C5F8CD
:10505000248000F077FA01230548CAF83830BDE80B
:10506000F04700F07FBA0248BDE8F04700F07ABA96
:10507000740C0020FD4E00003D61000065610000E1
:10508000A5610000C56100000900010012000200D6
:105090002DE9F04107462D4800F05CFA2C4B1E68C4
:1050A000B36B93B34FF0040806F53876D6E90134B4
:1050B000013B04D525E05A1C04F1680421D0B4F961
:1050C0000C50013B002DF6D1224B04F15800E36057
:1050D000656600F037FA1D4800F044FA08222946B8
:1050E000C4E90155C4E904552560A56104F15C00DB
:1050F00000F0F6FCC4E90C55C4E911552046BDE8A2
:10510000F08135682DB12E46D0E73046FFF73AFFE3
:10511000C8E74FF4D671384600F036FA044668B155
:10512000056029460546C0F804800C304FF4D07263
:10513000A06000F0D5FC34602E46B7E70348346029
:1051400000F010FA0C233B60D8E700BF700C002081
:10515000ACFD00000100FFFF014800F0FBB900BFFB
:10516000700C0020014800F0FDB900BF700C002059
:10517000014800F0EFB900BF740C0020014800F0B6
:10518000F1B900BF740C002008B5054800F0E2F941
:10519000044B05491868BDE8084000F069B900BF34
:1051A000700C002014000020094F000008B5054BCA
:1051B0000549186800F05CF9BDE80840034800F0B4
:1051C000D1B900BF14000020254F0000700C002052
:1051D000F8B50C46234F064600F0D4FCBB685D686A
:1051E000C4F57E6325F003050F332B4423F47F635E
:1051F00023F00F03A3F58054B4F5805F07DB002193
:10520000304600F049FFBB682B44984204D030463A
:1052100000F0BEFC0020F8BD3046614200F03CFFCB
:1052200001300DD0104ABB682D1B45F001055D60B3
:10523000136830461B1B136000F0AAFC0120F8BD68
:105240000021304600F028FFBA68831A0F2BDEDDFC
:1052500043F001035360054B03491B68C01A086003
:10526000D5E700BF400400207C0C00204808002047
:1052700000295ED0F8B50C46064600F083FC54F8D1
:10528000042C784FA4F1080522F001016818D7F822
:1052900008C04368844523F0030300F08780D207E9
:1052A000436034D454F8082C07F10804AD1A1144B3
:1052B000AA68A24268D000EB030CDCF804E0D5F841
:1052C0000CC01EF0010FC2F80CC0CCF8082000F092
:1052D000918041F001036B600160B1F5007F31D234
:1052E0004A09CB08012191407A6801331143796062
:1052F00007EBC30257F83310083AC5E9021247F822
:105300003350CD603046BDE8F84000F041BCC218D3
:105310005268D2070ED4194407F108048368A342E7
:1053200070D0C268DA60936041F001036B6069502D
:10533000D3E7704741F00103B1F5007F44F8043C26
:105340000160CDD3B1F5206F4FEA512347D28B09CD
:1053500003F1390003F13802C300F818FB5808388C
:10536000984258D05A6822F003028A4202D99B68B8
:105370009842F7D1D868C5E9023085603046DD60D3
:10538000BDE8F84000F004BCC2185268D20763D4EC
:105390000B44D0E90212CA60916043F001026A60D6
:1053A0003046EB50BDE8F84000F0F2BB0B44D107AB
:1053B00007D454F8082CAD1A1344D5E90212CA6078
:1053C000916043F001026A60274ABD6012689A4208
:1053D00098D8264B30461968FFF7FAFE92E7142B4F
:1053E0000AD9542B1FD80B0B03F16F0003F16E0287
:1053F000C300B2E7194491E703F15C0003F15B02DB
:10540000C300AAE741F00103C7E90455C5E9024416
:105410006B60695076E70121921001FA02F2796817
:105420000A437A60A7E7B3F5AA7F06D8CB0B03F14E
:10543000780003F17702C3008FE740F254529342A1
:1054400006D88B0C03F17D0003F17C02C30084E7D6
:105450004FF47E737E2280E741F001036B600160B0
:1054600050E700BF400400204C080020AC0C002096
:105470002DE9F0410026884600F53877D7E9015438
:10548000013D0ED4A389013D012B06D9B4F90E309C
:10549000013302D02046C04706436B1C04F1680468
:1054A000F0D13F68002FE9D13046BDE8F08100BF60
:1054B0002DE9F8434FF000090746884600F5387695
:1054C000D6E90154013D10D4A389013D012B08D92F
:1054D000B4F90E30013304D021463846C04749EABA
:1054E00000096B1C04F16804EED13668002EE7D188
:1054F0004846BDE8F88300BF70B50D4E0D4D761BD4
:10550000B61006D0002455F8043B01349847A64253
:10551000F9D1094E094D09F039FE761BB61006D0B7
:10552000002455F8043B01349847A642F9D170BDD8
:10553000C4090020C4090020CC090020C4090020AF
:10554000704700BF704700BF704700BF704700BF83
:10555000704700BF704700BF0120704701207047AF
:10556000704700BF704700BF024B0146186800F04B
:105570000BB800BF14000020024B01461868FFF76B
:1055800077BE00BF140000202DE9F04F01F10B059C
:10559000162D064683B025D8102900F2B88000F0F9
:1055A000F1FA102518224FF0020CB54F3A44536817
:1055B000A2F108018B4200F0B7805A68D96822F046
:1055C00003021A449C683046E1608C60516803F124
:1055D000080441F00101516000F0DAFA204603B0FE
:1055E000BDE8F08F35F0070500F19180A94200F287
:1055F0008E8000F0C7FAB5F5FC7FC0F094816B0A8D
:1056000000F08C80042B00F26A81AB0903F1390CA5
:1056100003F138044FEACC00994F38444368083806
:10562000984206D10CE0002980F22681DB6898427E
:1056300006D05A6822F00302511B0F29F3DDA4465D
:105640003C69DFF840E274457AD0626822F00302D8
:10565000531B0F2B00F37681002BC7E904EE80F279
:105660006781B2F5007F80F019810121D3085209CA
:105670000B4491407A6857F833000A4307EBC301A3
:105680000839A060E1607A6047F83340C4600121C6
:105690004FEAAC039940914259D8114206D12CF0FF
:1056A000030C490011420CF1040CFAD007EBCC09B1
:1056B00048466446D0F80C80404508D11CE1002BD8
:1056C00080F22181D8F80C80404500F01581D8F88F
:1056D000042022F00302531B0F2BF0DD08EB050121
:1056E00045F00105C8F804503046D8E90264F4607A
:1056F000A66043F00104C7E904114C60C1E902EE61
:1057000048F8023000F044FA08F1080402E00C23E3
:1057100000243360204603B0BDE8F08F4FF40070E2
:105720004FF0400C3F2477E7D3689A4208BF0CF152
:10573000020C7FF442AF3C69DFF848E1744584D144
:1057400001217A684FEAAC0399409142A5D9BC681F
:10575000636823F003094D4503D8A9EB05030F2B1C
:105760007ADCDFF824B1494BDBF800201B680132FA
:105770002B4404EB090A00F02F8103F580530F330B
:1057800023F47F6828F00F084146304600F084FC7F
:10579000411C024600F0EF80824500F2EA803C4B5B
:1057A000196841440846196000F04981DBF800108F
:1057B000019301311BBFA2EB0A0A5044CBF8002031
:1057C000186012F0070B00F01181CBF108010A44B8
:1057D000CBF5805190440831A1EB0801C1F30B0ACD
:1057E00051463046009200F057FC421CDDE9002390
:1057F00000F04B81801A00EB0A08196848F001009C
:105800005144BC42BA601960506000F02481B9F183
:105810000F0F40F222814FF0050E6068A9F10C0CC9
:105820002CF0070C00F0010040EA0C006060BCF1B5
:105830000F0F04EB0C00C0E901EE00F22E811446BC
:105840005068144B1A688A4238BF1960124B1A68A4
:105850008A4238BF196090E0621943F0010345F0B5
:10586000010565603046BA600834536000F090F975
:10587000204603B0BDE8F08FD9681A44A2E600BF05
:10588000400400204804002048080020AC0C002000
:105890007C0C0020A40C0020A80C0020B2F5206F86
:1058A0004FEA52235FD3142B00F2B18003F15C0165
:1058B000C9005B33781879580838884200F08F8027
:1058C0004B6823F00303934202D989688842F7D1D9
:1058D000C8687A68C4E902108460CC60D7E6142BEB
:1058E00059D9542B00F29B802B0B03F16F0C03F161
:1058F0006E044FEACC008FE60134A30700F10800E4
:105900007FF4D8AE53E0444642445368D8F80C10B4
:1059100043F00103536054F8083F3046D9608B6070
:1059200000F036F9F6E64FEAD50C05F108023CE640
:1059300022445368304643F00103536000F028F9D5
:105940000834E7E6611945F00105656043F001059B
:10595000C7E904113046C1E902EE4D60A35000F0E2
:1059600017F90834D6E6930903F13901C900383331
:10597000A0E7BC425ED0BC68606820F003084545E3
:10598000A8EB050302D80F2B3FF766AF304600F0B7
:10599000FFF80024BEE603F15C0C03F15B044FEA60
:1059A000CC0039E659F808394B4540F095801CF099
:1059B000030F0CF1FF3CF5D17B6823EA01037B6008
:1059C000490099423FF6C3AE11B9C0E6490004341C
:1059D0001942FBD0A44669E603F11008D4E601227F
:1059E0009B109A407B681A437A6073E702EB0801C8
:1059F0004942C1F30B0A51463046009200F04CFB7D
:105A0000431CDDE900237FF4F5AEDA46F5E6542BBE
:105A100026D8130B03F16F01C9006E334AE7B3F5C3
:105A2000AA7F26D8EB0B03F1780C03F177044FEA39
:105A3000CC00F1E5294B186840441860B6E6CAF37B
:105A40000B0CBCF1000F7FF4B1AEBC68C84448F049
:105A500001006060F5E61446F3E60123536095E724
:105A6000B3F5AA7F24D8D30B03F17801C9007733AB
:105A700020E740F25452934224D8AB0C03F17D0C42
:105A800003F17C044FEACC00C6E5ABF1080BD84427
:105A90004FF0000AA8EB0208AFE604F10801304617
:105AA0000093FFF7E5FBBC68009B60681968C8E6D7
:105AB00040F254518B420BD8930C03F17D01C90085
:105AC0007C33F7E64FF47E704FF07F0C7E24A3E525
:105AD0004FF47E717E23EDE67B6871E77C0C00203D
