:020000040001F9
:10000000000007207D010000C1010000C3010000C5
:10001000C5010000C7010000C90100000000000088
:10002000000000000000000000000000CB01000004
:10003000CD01000000000000CF010000D101000050
:10004000D3010000D5010000D7010000D901000054
:10005000490D0000DD010000DF010000E1010000AA
:10006000E3010000E5010000E701000000000000DE
:10007000E9010000EB010000ED010000EF010000CC
:10008000F1010000F3010000F5010000F70100009C
:10009000F9010000FB010000FD010000FF0100006C
:1000A0000102000003020000050200000702000038
:1000B000090200000B0200000D0200000F02000008
:1000C00010B5054C237833B9044B13B10448AFF392
:1000D00000800123237010BDD00900200000000023
:1000E0003031010008B5034B1BB103490348AFF39E
:1000F000008008BD00000000D4090020303101005C
:10010000A3F5803A704700BF174B002B08BF134B75
:100110009D46FFF7F5FF00218B460F461348144A12
:10012000121A06F059FA0E4B002B00D098470D4BCF
:10013000002B00D098470020002104000D000D483E
:10014000002802D00C480AF0EBFB05F051FF20001C
:10015000290000F025FE05F043FB00BF0000080069
:10016000000000000000000000000720D00900206F
:10017000440F002021A9000035BA00000A490B4AAB
:100180000B4B9B1A03DD043BC858D050FBDC0949DC
:10019000094A00209142BCBF41F8040BFAE7074826
:1001A0008047FFF7B1FF00003C3101000000002054
:1001B000D0090020D0090020440F0020614F00002A
:1001C000FEE7FEE7FEE7FEE7FEE7FEE7FEE7FEE707
:1001D000FEE7FEE7FEE7FEE7FEE7FEE7FEE7FEE7F7
:1001E000FEE7FEE7FEE7FEE7FEE7FEE7FEE7FEE7E7
:1001F000FEE7FEE7FEE7FEE7FEE7FEE7FEE7FEE7D7
:10020000FEE7FEE7FEE7FEE7FEE7FEE7FEE7FEE7C6
:1002100038B505461B200C4606F064FABFF36F8F15
:10022000BFF36F8FBFF36F8F0D48294606F042FA78
:10023000BFF36F8FBFF36F8FBFF36F8F2CB10023AE
:10024000BFF36F8F01339C42FAD11B2006F04AFAAC
:10025000BFF36F8FBFF36F8FBFF36F8F38BD00BFDA
:1002600034FD000000222DE9F043B14FB1493B6C51
:1002700093B03846FA54884606F052FD01AD2C463C
:10028000034611AE44F8043F4146002006F048FD05
:10029000A6420346F6D1029B1B78482B5FD0492B20
:1002A00037D04A2B3AD1039B1B78422B00F01181A7
:1002B000412B00F05B81432B00F05F81442B00F069
:1002C0007881452B00F07E81462B00F07E81472B04
:1002D00000F01781482B00F09381492B00F0A88192
:1002E000502B00F0F281512B00F0DD81522B00F0F9
:1002F0008382532B00F07D82542B1ED1049805F08D
:100300002DFAC0B204F04CFA01468B4806F0D2F93F
:1003100013E0039B1B78412B00F0BF80874806F059
:10032000C9F9874C55F8041F11B1204606F0C2F9EF
:10033000AE42F7D1834806F02BFA834B1B689868CE
:1003400005F01EFB042004F009FD4022002178483E
:1003500006F042F900233B6413B0BDE8F083039B31
:100360001B78412B00F0A080422B00F08780432BAC
:1003700000F0A180442B00F0EB80452B00F00A81B7
:10038000462B00F0A980492B00F02C814A2B00F06D
:100390006E814B2B00F0B3814C2B00F008824F2B69
:1003A00000F08782502B00F07282512B00F0B7844E
:1003B000522B00F0B084532B00F08D84542B00F0AE
:1003C0008684552B00F07F84562B00F07484572BC5
:1003D00000F06A84582B00F05084592B00F04284BE
:1003E0005A2B00F028845B2B00F01A845C2B00F061
:1003F00000845D2B00F0F2835E2B00F0DF835F2B27
:1004000000F0CF83602B00F0BF83612B00F0B58339
:10041000622B00F09F83632B00F07F83642B00F03E
:100420006983652B00F05A83662B00F04183672BAC
:1004300000F02883682B00F02283692B00F01C83D6
:10044000702B00F01683712B00F0F382722B00F0FA
:10045000ED82732B00F0E782742B00F0DE82752BA7
:1004600000F0AF82762B00F0A982772B7FF456AF95
:10047000049805F073F903F0D1FB5EE7049B1B7849
:10048000412B00F09980422B7FF448AF03F004FC2D
:100490000146294806F00EF94FE703F073FE0146C6
:1004A0002A4806F007F948E703F0DEFB0146274833
:1004B00006F000F941E7049B1B78412B1BD0422B2F
:1004C0007FF42CAF03F0FCFB01461B4806F0F2F86A
:1004D00033E703F0A5FF30E7049B1B78412B00F0C6
:1004E0005E81422B7FF41AAF03F022FC01461248D2
:1004F00006F0E0F821E7059805F030F903F0D4FBA9
:100500001BE7049805F02AF90546059805F026F939
:100510000646069805F022F90446079805F01EF9EC
:100520000346F1B2E8B2E2B29BB204F003F804E78A
:10053000EC090020C40B0100740F010050FD000005
:1005400034FD000064FD00001400002038FD0000B0
:10055000049B1B78412B65D0422B7FF4DFAE03F068
:10056000BDFB0146B64806F0A5F8E6E6049805F09E
:10057000F5F880B203F060FFDFE6049805F0EEF8CE
:100580000446059805F0EAF80146A0B2C9B203F0A6
:100590006FFFD2E6049B1B78412B00F0A880422B12
:1005A0007FF4BCAE03F0AEFB0146A64806F082F82D
:1005B000C3E603F065FFC0E6059805F0CFF803F049
:1005C0005FFBBAE603F086FFB7E6049805F0C6F8CD
:1005D0000446059805F0C2F80146E0B2C9B203F03E
:1005E0009FFFAAE6049B1B78412B00F0BF80422BA3
:1005F00000F0A180432B7FF491AE03F0E3FB9CE677
:10060000049805F0ABF80546059805F0A7F80446F0
:10061000069805F0A3F80246A1B2E8B292B203F040
:1006200097FF8AE6059805F099F803F051FB84E6F8
:10063000049805F093F80646059805F08FF8804673
:10064000069805F08BF88146079805F087F805466F
:10065000089805F083F80446E4B21FFA89F21FFAFD
:1006600088F1F0B2ABB2009403F07CFF65E6049B26
:100670001B78412B51D0422B7FF45FAE059B1B783A
:10068000412B00F06381422B00F09181432B00F05D
:100690008781442B7FF442AE03F01EFC014668487C
:1006A00006F008F849E6049805F058F8054605985C
:1006B00005F054F80446069805F050F80246214625
:1006C000E8B292B203F06AFF37E6049805F046F804
:1006D0000546059805F042F80446069805F03EF8F0
:1006E0000246A1B2E8B292B203F04EFF25E6002224
:1006F0000598114606F0CCFC03F0F6FA1DE6049BC3
:100700001B78412B00F0B280422B00F09D80442BDF
:100710007FF404AE03F02EFC0FE6059B1B78422B02
:1007200000F05281432B7FF4F9AD069805F016F8DE
:1007300003F0BEFB01E6059B1B78412B00F06681B0
:10074000422B00F05C81432B00F05281442B00F0DF
:100750004881452B00F03E81462B7FF4DFAD03F04E
:1007600083FB0146374805F0A5FFE6E5059B1B78AE
:10077000412B00F0C982432B00F0BF82442B00F0D4
:10078000B582452B00F0AB82462B7FF4C7AD00222B
:100790000698114606F07CFC03F05AFBCDE50022DA
:1007A0000598114606F074FC03F0B4FAC5E5049B05
:1007B0001B78412B2DD0422B7FF4B0AD059B1B78CD
:1007C000412B00F0CA80422B00F0D580432B00F073
:1007D000CB80442B00F0DD80452B00F0D380462BEE
:1007E0007FF49CAD03F08AFC0146154805F062FFDA
:1007F000A3E503F0E7FEA0E5049804F0AFFF04468C
:10080000059804F0ABFF0146E0B2C9B203F0D0FE98
:1008100093E5059B1B78422B00F02581432B00F0CC
:100820001C81442B00F01181452B00F00881462BE0
:100830007FF474AD069804F091FF03F053FC7CE55F
:10084000740F010040FD0000059B1B78412B5CD01C
:10085000422B53D0432B3FD0442B7FF45FAD03F0AA
:10086000B7FB0146B94805F025FF66E5059B1B78F7
:10087000412B00F05F82432B00F05582442B7FF424
:100880004DAD069804F06AFF03F096FB55E5049B16
:100890001B78412B4CD0422B3ED1059B1B78412B22
:1008A0007FF43CAD03F052FC0146A84805F002FF7E
:1008B00043E5049B1B78412B15D0422B7FF42EADD2
:1008C000059B1B78412B7FF429AD03F02BFC0146DF
:1008D0009E4805F0EFFE30E503F068FB01469B48BB
:1008E00005F0E8FE29E5059B1B78412B7FF416AD4A
:1008F000069804F033FF03F009FC1EE503F034FB17
:100900000146924805F0D6FE17E503F025FB0146A7
:100910008E4805F0CFFE10E5452B14D0462B7FF412
:10092000FDAC03F027FC0146884805F0C3FE04E552
:10093000059B1B78412B7FF4F1AC069804F00EFF69
:1009400003F0F8FBF9E403F009FCF6E403F094FA91
:1009500001467E4805F0AEFEEFE403F041FB0146A0
:100960007B4805F0A7FEE8E403F080FB01467748EA
:1009700005F0A0FEE1E403F051FB0146734805F0E9
:1009800099FEDAE403F0A6FB0146704805F092FEFA
:10099000D3E403F08BFB01466D4805F08BFECCE4FD
:1009A00003F092FA0146694805F084FEC5E403F0BD
:1009B00077FA0146654805F07DFEBEE403F088F84D
:1009C000BBE402F015FFB8E4069804F0C7FE03F09C
:1009D0005BFAB2E403F034FA01465C4805F06AFEC3
:1009E000ABE403F019FA0146584805F063FEA4E4AD
:1009F00003F0FEF90146554805F05CFE9DE403F066
:100A0000D9F90146514805F055FE96E403F0CCF9BA
:100A100001464E4805F04EFE8FE4049804F09EFE19
:100A200002F08AFB89E402F065FB86E402F044FBF5
:100A300083E4049804F092FE02F0FAFA7DE406984A
:100A400004F08CFE03F03AFB77E40022069811468E
:100A500006F01EFB03F01CFB6FE4069804F07EFE1C
:100A600003F0EEFA69E4069804F078FE03F0C0FAA9
:100A700063E402F03DFA60E402F016FA5DE402F08D
:100A8000CFF95AE4049804F069FE0446059804F08E
:100A900065FE0546069804F061FE0646079804F0D8
:100AA0005DFE324603462946204602F081F844E4C2
:100AB000049804F053FE0446059804F04FFE0546E2
:100AC000069804F04BFE0646079804F047FE3246AF
:100AD00003462946204601F099FF2EE4049804F0CD
:100AE0003DFE0446059804F039FE0146204601F01B
:100AF0006BFF22E4049804F031FE0446059804F0EC
:100B00002DFE002205461146069806F0C1FA294638
:100B10000246204601F030FF0FE4049804F01EFE68
:100B20000446059804F01AFE002205461146069870
:100B300006F0AEFA29460246204601F06FFA014659
:100B4000024805F0B7FDFFF7F8BB00BF740F0100C6
:100B500048FD0000049804F001FE002204461146FE
:100B6000059806F095FA0146204601F013FA014671
:100B7000744805F09FFDFFF7E0BB049804F0EEFD1C
:100B800001F0FEF9FFF7D9BB049804F0E7FD044635
:100B9000059804F0E3FD0146204601F03BFBFFF71A
:100BA000CCBB049804F0DAFD0446059804F0D6FDA9
:100BB0000146204601F040F9FFF7BFBBDDE90430F4
:100BC0001D7804F0CBFD0446069804F0C7FD2146CD
:100BD0000246284601F0F6F8FFF7AFBBDDE9043026
:100BE0001C7804F0BBFD0146204601F01DF8FFF71C
:100BF000A4BB049804F0B2FD0446059804F0AEFDD1
:100C00000546069804F0AAFD0646079804F0A6FDDE
:100C1000324603462946204600F0F6FFFFF78DBB1B
:100C2000DDE904301C7804F099FD0146204600F00F
:100C30001DFFFFF782BB049804F090FD0446059861
:100C400004F08CFD0546069804F088FD06460798DA
:100C500004F084FD324603462946204600F0F6FEA5
:100C6000FFF76BBBDDE904301C7804F077FD01462B
:100C7000204600F0FFFDFFF760BB049804F06EFD16
:100C80000446059804F06AFD0546069804F066FDE2
:100C90000646079804F062FD324603462946204680
:100CA00000F0D8FDFFF749BB049804F057FD00F0B1
:100CB00037FDFFF742BB049804F050FDC0B200F0CE
:100CC00017FDFFF73ABB00F00BFBFFF736BB00F058
:100CD000FBFAFFF732BB02F0E9FDFFF72EBB0698E7
:100CE00004F03CFD03F0A0F8FFF727BB069804F0E2
:100CF00035FD03F085F8FFF720BB069804F02EFDC4
:100D000003F06AF8FFF719BB069804F027FD03F01B
:100D10001BF8FFF712BB00F0CDFAFFF70EBB00F097
:100D200045F9FFF70ABB069804F018FD03F034F903
:100D3000FFF703BB069804F011FD03F0D3F8FFF7AB
:100D4000FCBA00BF48FD000038B50A480A4C04F060
:100D5000B9F80848256C04F097F8236C6055E25CFC
:100D60000A2A03D00AB10133236438BDBDE83840F4
:100D7000FFF778BA00600040EC09002008B506488B
:100D800005F006FD1022054B04201A60C3F88021EF
:100D900003F0E4FFFEE700BF70FD000000E100E0AB
:100DA00008B503F0BFFF0A2005F09CFC0549064882
:100DB00005F080FC0A2005F095FC00F07BFAFFF7B7
:100DC000DDFF00BF94FD0000A0FD0000000000005A
:100DD000F0B58BB0044602F081FFB0F5907F2DD2C4
:100DE000194D2B689B7E012B0ED0422740F6E4461E
:100DF00016494D234122CDE9006702A805F0F8FE0F
:100E0000696802A8FFF704FA204602F083FF002079
:100E100003F01EF8012002F097FF02F0D3FF00203C
:100E200002F092FF01222B68C4F342109A7602F07E
:100E300027FF0BB0BDE8F04003F0D2B8044805F03E
:100E4000A7FC00200BB0F0BD0400002000FE000055
:100E5000D8FD0000F0B58BB0054602F03FFFB0F5BD
:100E6000907F41D2234C2668B37E032B23D04327A7
:100E70000197768A4D230096422641221E4902A8F8
:100E800005F0B6FE616802A8FFF7C2F90196266870
:100E90004D23368A4122184902A8009605F0A8FE83
:100EA000616802A8FFF7B4F92368988A03F074F820
:100EB000002003F081F8012003F014F8284602F026
:100EC00029FF2368DB8A3BB1002503F053F8236830
:100ED0000135DB8A9D42F8D3002003F003F803229A
:100EE00023689A760BB0F0BD04480BB0BDE8F04023
:100EF00005F04EBC0400002000FE0000D8FD0000FC
:100F0000F0B58BB0054602F0E9FEB0F5907F41D216
:100F1000234C2668B37E042B23D043270197768980
:100F20004D230096422641221E4902A805F060FE8C
:100F3000616802A8FFF76CF9019626684D2336898F
:100F40004122184902A8009605F052FE616802A8E5
:100F5000FFF75EF92368988903F01EF8012003F07B
:100F60002BF8012002F0BEFF284602F0D3FE2368D2
:100F7000DB893BB1002502F0FDFF23680135DB89E9
:100F80009D42F8D3002002F0ADFF042223689A7638
:100F90000BB0F0BD04480BB0BDE8F04005F0F8BB65
:100FA0000400002000FE0000D8FD00002DE9F04FF5
:100FB000904887B005F0ECFB8F4805F0E9FB8F48BF
:100FC00005F0E6FB8E4805F0E3FB02F087FE0746DE
:100FD00002F098FE814602F0ABFE824602F0A8FEC7
:100FE0004FEA102B02F0A4FEC3B2059303F09AF867
:100FF0008446844D844C3946BCF1000F14BF2F4603
:101000002746059B4A46CDE900B3029753467F48E1
:1010100005F050FB7E4805F0BBFB0A2005F062FBA3
:101020007C4805F0B5FB7C4805F0B2FB7B4805F039
:10103000AFFB7B4805F0ACFB02F0B6FE002814BF06
:10104000A346AB4602F0B6FEDFF8D881764E002804
:1010500014BF42463246059202F0CAFE814602F0B3
:10106000DBFE7249724B002814BF8A469A4602F092
:10107000E7FE074602F0F8FE4B465946059ACDE9D1
:101080000170CDF800A06B4805F014FB6A4805F02C
:101090007FFB0A2005F026FB684805F079FB6848CD
:1010A00005F076FB674805F073FB674805F070FBB9
:1010B00002F0E2FE002818BF464602F0F1FE634F40
:1010C000634A002808BF174602F0FEFE3A46034670
:1010D0003146604805F0EEFA5F4805F059FB0A20FA
:1010E00005F000FB5D4805F053FB5D4805F050FB43
:1010F0005C4805F04DFB5C4805F04AFB02F02CFF14
:10110000002814BF26462E4602F050FF074602F084
:101110005FFF3146554B564E4246002808BF1E46DB
:101120003B460096534805F0C5FA534805F030FB9E
:101130000A2005F0D7FA514805F02AFB504805F07F
:1011400027FB504805F024FB4F4805F021FB02F037
:10115000A3FD064602F044FF074602F087FF8046E3
:1011600002F05CFF814602F0A1FF824602F0B2FF6E
:10117000002814BFA346AB4602F0C0FF314600284A
:1011800014BF26462E4643463A46CDE9009ACDF88E
:1011900008B003963D4805F08DFA3D4805F0F8FA91
:1011A0000A2005F09FFA3B4805F0F2FA3A4805F0AC
:1011B000EFFA3A4805F0ECFA394805F0E9FA02F09E
:1011C000C5FF002808BF2C4602F0D4FF0546354B6A
:1011D000354A2146002D08BF1A46344805F06AFA00
:1011E000334805F0D5FA0A2007B0BDE8F04F05F006
:1011F00079BA00BF6CFE00007CFE000018FF000002
:1012000058FF000010FE00001CFE0000F4FF00006C
:101210002C000100C8000100D80001008C01010071
:10122000D801010024FE00002CFE000034FE000066
:101230003CFE00008C020100C80201007C0301009A
:101240008C030100F80301002804010040FE0000A7
:1012500048FE000094040100B404010020050100D0
:1012600030050100A4050100D805010058FE00006A
:1012700054FE00004C06010074060100E80601005F
:10128000F8060100D4070100300801000C09010034
:1012900058090100340A0100440A0100840A0100CF
:1012A000A40A010064FE00005CFE0000E40A0100E4
:1012B000FC0A0100034B4FF27C620021186805F024
:1012C0008BB900BF04000020044B4FF490721868E3
:1012D000002100F575405C3005F07EB90400002067
:1012E0002DE9F04F0027AC4889B005F0E3F90C2454
:1012F000B846BB463E46A94D284605F0DBF9013C01
:10130000FAD1A74805F0D6F90C25A44C204605F0E3
:10131000D1F9013DFAD1A348019505F039FA182316
:10132000CDE902B64FF00C091E469F4C9F4DA9F126
:101330000C0B59469E4805F0BDF94FF25C5A2368E4
:101340005B4413F80A30062B00F21B81994A2846A9
:10135000D75C0BF1010B394605F0ACF9CB45EED16A
:101360000199954805F0A6F9CB464FF25C5A2368DF
:101370005B4413F80A30062B00F2CF808D4A2846D2
:1013800012F803800BF1010B414605F093F95E451D
:10139000EDD10A2005F0A6F9019B052B40F0CD8088
:1013A000DDE902B6854805F085F90C25844F3846FD
:1013B00005F080F9013DFAD1824805F07BF90C2552
:1013C0007F4F384605F076F9013DFAD17E4805F0A9
:1013D000DFF97E4805F06EF97D4F29463846013524
:1013E00005F068F90C2DF8D17A4805F063F9784FCB
:1013F00029463846013505F05DF9182DF8D17648B3
:1014000005F0C6F96D4805F055F90C25634F3846CF
:1014100005F050F9013DFAD1704805F04BF90C2563
:101420005E4F384605F046F9013DFAD1664805F0B1
:10143000AFF906239C274FF0A8085C4D0193A7F154
:101440000C0A51465A4805F035F94FF25C592268AA
:10145000524412F80920062A56D8564B284613F84B
:1014600002B00AF1010A594605F024F95745EED1B8
:10147000019B5148991D05F01DF9BA464FF25C5980
:101480002268524412F80920062A34D8494B2846CB
:101490009E5C0AF1010A314605F00CF9C245EFD114
:1014A000019B0A200133019305F01CF9019B0C2BD1
:1014B00000F09A80414805F0FDF84FF00C0ADFF883
:1014C0002091484605F0F6F8BAF1010AF9D14548ED
:1014D00005F0F0F84FF00C0ADFF80491484605F0EB
:1014E000E9F8BAF1010AF9D1374805F051F908F1E4
:1014F00018081837A3E7314628460AF1010A05F013
:10150000D9F8D045BCD1CBE7594628460AF1010AA3
:1015100005F0D0F857459AD1AAE7414628460BF185
:10152000010B05F0C7F85E457FF421AF0A2005F0F6
:10153000D9F8019B052B3FF433AF204805F0BAF8EA
:101540004FF00C0BDFF898A0504605F0B3F8BBF154
:10155000010BF9D1234805F0ADF84FF00C0BDFF883
:1015600080A0504605F0A6F8BBF1010BF9D1164852
:1015700005F00EF9019B18360133019309F11809A2
:10158000D5E6394628460BF1010B05F093F8D9450D
:101590007FF4D5AEE4E600BFD40B01003C0B0100A4
:1015A0004C0B01005C0B010004000020640B0100E7
:1015B000542A0100A02301006C0B01008C0B0100D8
:1015C0009C0B0100AC0B0100940B0100681B010097
:1015D000B80B0100C00B0100C80B0100D00B0100CB
:1015E000780B0100880B0100324805F063F8324E99
:1015F000019D304605F05EF8013DFAD12F4805F017
:1016000059F82D4D019E284605F054F8013EFAD1B7
:101610002B4805F0BDF82068CDE9056600F5754159
:1016200000F5764004965B317B30ADF81C6011F814
:10163000013F08AA02EB430333F8102C884202F161
:10164000010223F8102CF2D10A2005F04BF81D48B6
:1016500005F09EF81C4805F09BF81C4805F098F82A
:10166000BDF810101A4805F025F8BDF812101948F9
:1016700005F020F8BDF81410174805F01BF8BDF868
:101680001610164805F016F8BDF81810144805F0A5
:1016900011F8BDF81A10134805F00CF8BDF81C102D
:1016A000114805F007F8114809B0BDE8F04F05F002
:1016B0006FB800BFB00B01009C0B0100DC0B0100F8
:1016C000EC0B0100F40B01006C0C0100A00C0100FC
:1016D000180D01004C0D0100800D0100B40D01003A
:1016E000E80D01001C0E0100500E0100840E0100E7
:1016F00010B5044602F0F2FAB0F5907F06D24FF230
:101700005C52054B1B681844845410BD0348BDE867
:10171000104005F03DB800BF04000020D8FD0000D7
:10172000B0F5907F80F086802DE9F0410546454C6C
:101730008AB002F0CDFA23685A1903EB4503B3F8D7
:101740005C7292F81B8092F83B6102F0C7FAB0F528
:10175000907F03466AD222684046D11802EB4303C9
:1017600081F81B8081F83B61A3F85C7202F068FC91
:10177000304602F03DFC384602F08AFC47F68C18F1
:10178000236805EB080203EB42039F8802F0A6FAE8
:10179000B0F5907F064645D2B7F5FA7F38D83B467C
:1017A0002068464400EB4606B78041262649009350
:1017B0004222472302A8019605F01AFA616802A89E
:1017C00001EB81018900FEF723FD00222368188BBD
:1017D0009A7602F001FB2068054495F89C6495F820
:1017E000BC5502F07BFAB0F5907F26D22368034403
:1017F00083F89C64304683F8BC5502F045FB2846CC
:1018000002F056FB002223689A760AB0BDE8F08108
:101810000E4804F0BDFF00232268464402EB460652
:10182000B380C2E70A4804F0B3FFCEE7084804F0EB
:10183000AFFFA3E7064804F0ABBF054804F0A8FFDC
:10184000E0E700BF0400002000FE0000FC0E0100E5
:10185000D8FD00004FF0000C10B4054C246884F84B
:101860001AC020806180A280E38010BC704700BF56
:10187000040000202DE9F0438BB004460E4602F030
:101880002DFAB0F5907F80F0CF806C4D2B689A7E5A
:10189000022A25D04322422701925B8841226849CF
:1018A000009302A84D2305F0A3F9696802A8490036
:1018B000FEF7AEFC01972F684D233F884122604917
:1018C00002A8009705F094F9696802A84900FEF79C
:1018D0009FFC2B68988802F05FFB012002F06CFBF4
:1018E000012002F0FFFA412C30D0422C0DD0432CC5
:1018F00000F08580442C39D0002002F0F3FA022257
:101900002B689A760BB0BDE8F083360206F5807737
:10191000304602F0FFF92B68DB883BB1002402F06F
:1019200029FB2B680134DB88A342F8D80136BE427C
:10193000EED102F0D3F9B0F5907F03467AD24FF2A0
:101940005C5102202A6813445854D5E7304602F00F
:10195000E1F92B68DB88002BEBD0002402F00AFBB6
:101960002B680134DB88A342F8D8E2E7DFF8D49093
:101970005B2004F0B7FED9F800304FF48077986808
:1019800003F0FEFF4FF000084FEA0826304602F051
:10199000C1F92B68DB883BB1002402F0EBFA2B681D
:1019A0000134DB88A342F8D80136B742EED118F0F3
:1019B0000F0F1BD008F10108B8F5807F07F580777D
:1019C000E2D15D2004F08EFED9F80030986803F073
:1019D000D7FF02F083F9B0F5907F03462AD24FF289
:1019E0005C5101202A681344585485E73E2004F0D6
:1019F00079FED9F80030986803F0C2FFDAE706F5FF
:101A00008037304602F086F92B68DB883BB1002432
:101A100002F0B0FA2B680134DB88A342F8D806F54F
:101A20008076B742EDD184E707480BB0BDE8F043BC
:101A300004F0AEBE044804F0ABFE5DE704000020F5
:101A400000FE000014000020D8FD00004FF0000C44
:101A500010B4054C246884F81AC020816181A281E9
:101A6000E38110BC704700BF040000202DE9F04363
:101A70008BB004460E4602F031F9B0F5907F80F04D
:101A8000B4805D4D2B689A7E042A23D043224227DE
:101A900001925B8941225949009302A84D2305F028
:101AA000A7F8696802A8FEF7B3FB01972F684D23DA
:101AB0003F894122514902A8009705F099F86968C9
:101AC00002A8FEF7A5FB2B68988902F065FA0120B1
:101AD00002F072FA012002F005FA412C23D0422CC8
:101AE0000CD0432C6CD0442C2DD0002002F0FAF9FD
:101AF00004222B689A760BB0BDE8F083360206F517
:101B00008077304602F006F92B68DB893BB1002470
:101B100002F030FA2B680134DB89A342F8D8013691
:101B2000B742EED1E1E7304602F0F4F82B68DB89EA
:101B3000002BDAD0002402F01DFA2B680134DB8977
:101B4000A342F8D8D1E7DFF8B8905B2004F0CAFDD3
:101B5000D9F800304FF48077986803F011FF4FF008
:101B600000084FEA0826304602F0D4F82B68DB89DB
:101B70003BB1002402F0FEF92B680134DB89A3425B
:101B8000F8D80136B742EED118F00F0F0FD008F198
:101B90000108B8F5807F07F58077E2D15D2004F079
:101BA000A1FDD9F80030986803F0EAFE9DE73E20D9
:101BB00004F098FDD9F80030986803F0E1FEE6E7FC
:101BC00006F58037304602F0A5F82B68DB893BB17B
:101BD000002402F0CFF92B680134DB89A342F8D846
:101BE00006F58076B742EDD17FE706480BB0BDE839
:101BF000F04304F0CDBD00BF0400002000FE000053
:101C000014000020D8FD00004FF0000C10B4054C6B
:101C1000246884F81AC020826182A282E38210BC08
:101C2000704700BF040000202DE9F0438BB004464C
:101C30000E4602F053F8B0F5907F80F0B4805D4D11
:101C40002B689A7E032A23D04322422701925B8A83
:101C500041225949009302A84D2304F0C9FF696845
:101C600002A8FEF7D5FA01972F684D233F8A41223B
:101C7000514902A8009704F0BBFF696802A8FEF76B
:101C8000C7FA2B68988A02F087F9002002F094F9CD
:101C9000012002F027F9412C23D0422C0CD0432CF8
:101CA0006CD0442C2DD0002002F01CF903222B68AC
:101CB0009A760BB0BDE8F083360206F580773046A1
:101CC00002F028F82B68DB8A3BB1002402F052F9BD
:101CD0002B680134DB8AA342F8D80136B742EED133
:101CE000E1E7304602F016F82B68DB8A002BDAD0E9
:101CF000002402F03FF92B680134DB8AA342F8D8B4
:101D0000D1E7DFF8B8905B2004F0ECFCD9F80030A4
:101D10004FF48077986803F033FE4FF000084FEAE5
:101D20000826304601F0F6FF2B68DB8A3BB1002421
:101D300002F020F92B680134DB8AA342F8D801367F
:101D4000B742EED118F00F0F0FD008F10108B8F527
:101D5000807F07F58077E2D15D2004F0C3FCD9F8DD
:101D60000030986803F00CFE9DE73E2004F0BAFCBA
:101D7000D9F80030986803F003FEE6E706F58037EF
:101D8000304601F0C7FF2B68DB8A3BB1002402F02C
:101D9000F1F82B680134DB8AA342F8D806F5807687
:101DA000B742EDD17FE706480BB0BDE8F04304F041
:101DB000EFBC00BF0400002000FE00001400002063
:101DC000D8FD00002DE9F047174632B305460E4610
:101DD0000024DFF85480DFF854A0DFF8549002E0CC
:101DE0000134BC4219D031462846FFF73FFE314648
:101DF0002846FFF719FF08FB04F3B3F1333FEFD890
:101E000021463A46504604F055FCD9F800300134DA
:101E1000986803F0B5FDBC42E5D13A463946BDE8C5
:101E2000F047044804F046BCCDCCCCCC700F010088
:101E300014000020780F01002DE9F04F83B0054613
:101E40000C4601F04BFFB0F5907F80F0908014F0CD
:101E5000010B25F0E00540F0868014F0020A7DD1E8
:101E600014F0040975D114F008086DD114F01007AE
:101E700065D114F020065DD114F04003019354D1D4
:101E800014F0800449D1BBF1000F3FD0BAF1000F2C
:101E900034D0B9F1000F29D0B8F1000F1FD09FB195
:101EA000C6B1019B1BB144B103B0BDE8F08F05F191
:101EB000C000FEF7CFFF002CF6D105F1E00003B023
:101EC000BDE8F04FFEF7C6BF05F18000FEF7C2FF88
:101ED000002EE6D105F1A000FEF7BCFFE1E705F119
:101EE0006000FEF7B7FF002FDAD1EDE705F1400003
:101EF000FEF7B0FFB8F1000FD1D1F0E705F12000F7
:101F0000FEF7A8FFB9F1000FC6D1EFE72846FEF7AC
:101F1000A1FFBAF1000FBCD1F0E705F1E000FEF738
:101F2000EFFFBBF1000FB1D1F0E705F1C000FEF704
:101F3000E7FFA5E705F1A000FEF7E2FF9CE705F14A
:101F40008000FEF7DDFF94E705F16000FEF7D8FFA3
:101F50008CE705F14000FEF7D3FF84E705F1200090
:101F6000FEF7CEFF7CE72846FEF7CAFF75E7034879
:101F700003B0BDE8F04F04F00BBC00BFD8FD00007B
:101F80000022034B1B6818839A7680B201F024BFAD
:101F90000400002070B58AB004460D4601F09EFE94
:101FA000B0F5907F2DD21A4E33689B7E012B0ED058
:101FB00040F6E44342221749CDE9003202A84D23FE
:101FC000412204F015FE716802A8FEF721F92046AF
:101FD00001F0A0FE284601F03BFF012001F0B4FE15
:101FE00001F0F0FE002001F0AFFE01223368C4F3DF
:101FF00042109A7601F044FE0AB0BDE8704001F04C
:10200000EFBF054804F0C4FB00200AB070BD00BF5C
:102010000400002000FE0000D8FD00002DE9F04F74
:1020200089B00446164601F059FEB0F5907F80F065
:10203000E780054631462046FFF7ACFF34462EB117
:102040000024731E01341E40E4B2FAD1B4210026EC
:102050006E4B05FB01F11B6804EB84002B4493F8E5
:102060009C34A4F1040A0493A31F0393E31F059374
:10207000A4F108030693A4F10903079301EB80037D
:10208000CDE9016353464FF05A0CA4F10309CA4647
:1020900099460CFB05F5671EA4F1020BA4F1050897
:1020A000304601F0EDFD01F09BFF42F69C01574BDD
:1020B000029A1B6803EB020E3EF80110884240F2C0
:1020C00093807A1C75D041F24C4E07EBC70129442E
:1020D0002144714403EB41018988814280F086806C
:1020E000BBF1FF3F65D00BEBCB0129442144714488
:1020F00003EB4101898888427AD9BAF1FF3F58D071
:102100000AEBCA0129442144714403EB4101898847
:1021100088426FD9B9F1FF3F4BD009EBC90129447F
:102120002144714403EB41018988884264D9B8F1A4
:10213000FF3F3ED008EBC80129442144714403EB22
:1021400041018988884259D9039A511C31D002EB48
:10215000C20129442144714403EB4101898888422A
:102160002FD9059A511C24D002EBC20129442144E5
:10217000714403EB41018988884222D9069A511C97
:1021800017D002EBC20129442144714403EB410101
:102190008988884215D9079A511C0AD002EBC201DE
:1021A00029442144714403EB410CBCF804108142E2
:1021B00007D20136082E7FF473AF019809B0BDE84D
:1021C000F08F1146049B012B04D0019BB1400B44BE
:1021D0000193EEE7072EF8D1019BA3EBC113019306
:1021E000019809B0BDE8F08F2146EBE73946E9E7F1
:1021F0005946E7E75146E5E74946E3E74146E1E767
:10220000034804F0C5FA00230193D6E70400002038
:10221000D8FD00002DE9F04F89B005460C4601F0CD
:102220005DFDB0F5907F38BF032680F09D830021CF
:102230002846FFF701FE012200212846FFF7EEFEA7
:10224000013E10B116F0FF06F1D125F0E00808F1CB
:10225000200CCDF808C008F1400CCDF80CC008F1F6
:10226000600C04F00803CDF810C008F1E00E08F18E
:10227000800C14F0010F04F0020604F0040701932F
:1022800004F0100904F0200104F0400004F0800282
:10229000CDF814C008F1A00B08F1C00ACDF818E081
:1022A0004DD11ABB002840F040814FF0030A0029AD
:1022B00040F0C281A846E3464D46A1461C46002E8A
:1022C00072D1002F6AD1002C5FD1002D62D1012282
:1022D00000214046FFF7A2FE81450AF1FF3A02D0F5
:1022E0001AF0FF0AEBD109B0BDE8F08F002840F0EA
:1022F000F180F0464FF0030A002940F0C1802B46E0
:10230000A3464D46019C9946002E67D1002F6AD105
:10231000002C4FD1002D40F0C3814046FEF7F0FD68
:10232000012200214846FFF779FE83450AF1FF3A72
:10233000D9D01AF0FF0AD6D0002EE7D04EE0002AFE
:1023400040F02581002840F09E804FF0030A0029CC
:102350006ED12B464D469946A346019C4046FEF75A
:10236000CFFD002E34D16FBB44BB002D40F09481D3
:10237000012200214846FFF751FE83450AF1FF3A4A
:10238000B1D01AF0FF0AE9D1ADE70498FEF7B8FD25
:10239000002D9CD05846FEF7B3FD98E70398FEF752
:1023A000AFFD002C91D0F0E70298FEF7A9FD002FB9
:1023B00089D0F3E70498FEF7A3FDABE70498FEF796
:1023C0009FFDD2E70398FEF79BFD002CCDD0F5E7EB
:1023D0000298FEF795FD002FC6D0F3E70298FEF7AE
:1023E0008FFD002F94D00398FEF78AFD002C91D02A
:1023F000E0E70298FEF784FD002F40F01782019B72
:10240000002B40F06D81B9F1000F40F01382584667
:10241000FEF776FD012200212846FFF7FFFD8442EA
:102420000AF1FF3A3FF45FAF1AF0FF0A3FF45BAFE7
:102430004046FEF765FD002EDED0DAE70298FEF793
:102440005FFD002F40F0EE81019B002B40F04C819E
:10245000B9F1000F40F0F6815846FEF751FD4046B5
:10246000FEF74EFD012200212846FFF7D7FD8442EA
:102470000AF1FF3A3FF437AF1AF0FF0A3FF433AFE7
:10248000002EDED0DAE7002940F032814FF0030B56
:102490004046FEF735FD002E40F00E81002F40F043
:1024A000E181019B002B40F00381B9F1000F40F066
:1024B000DD815046FEF724FD012200212846FFF76A
:1024C000ADFD84420BF1FF3B3FF40DAF1BF0FF0B62
:1024D000DED108E7002940F03381F0464FF0030BCE
:1024E000002E40F0F180002F40F0B481019B002BC2
:1024F00040F0E680B9F1000F40F0A8815046FEF7A9
:10250000FFFC4046FEF7FCFC012200212846FFF7B5
:1025100085FD84420BF1FF3B3FF4E5AE1BF0FF0B62
:102520003FF4E1AE002EDED0CEE0002940F04A813B
:10253000A8464FF0030B4D46A146019CE6B907BBE8
:10254000B4B9002D40F0B0805046FEF7D9FC01220E
:1025500000214046FFF762FD81450BF1FF3B3FF450
:10256000C2AE1BF0FF0B3FF4BEAE002EE7D003E07F
:102570000498FEF7C5FCE4E70298FEF7C1FC002FC3
:10258000DED00398FEF7BCFC002CDAD0F0E7002880
:1025900040F070814FF0030A002945D108F1E00BAB
:1025A0004046FEF7ADFC002E40F09680002F40F034
:1025B0005581019B002B40F08B80B9F1000F40F05A
:1025C0003D815846FEF79CFC012200212846FFF77A
:1025D00025FD84420AF1FF3A3FF485AE1AF0FF0A66
:1025E000DED180E60298FEF78BFC002F40F0E680FB
:1025F000019B002B40F0DA80B9F1000F40F0D2804F
:102600005846FEF77DFC0698FEF77AFC0122002171
:102610002846FFF703FD84420AF1FF3A3FF463AE18
:102620001AF0FF0A3FF45FAE4046FEF769FC002E49
:10263000D8D1002FDCD0C1E0A8464D46A146019C70
:1026400006BBCFB9A4B91DBB5846FEF759FC012201
:1026500000214046FFF7E2FC81450AF1FF3A3FF4D2
:1026600042AE1AF0FF0A3FF43EAE002EE9D009E078
:102670000498FEF745FCE6E70398FEF741FC002CC2
:10268000E1D0F5E70298FEF73BFC002FDAD0F3E744
:102690000598FEF735FCD7E70598FEF731FC67E6AD
:1026A0000598FEF72DFC38E60598FEF729FC4BE768
:1026B0000498FEF725FCF8E60298FEF721FCEDE60B
:1026C0000498FEF71DFC15E70298FEF719FC0AE7CF
:1026D0000498FEF715FC70E70298FEF711FC65E719
:1026E0000498FEF70DFC8EE60498FEF709FCAFE6B1
:1026F0000323CDF8189099464046FEF701FC002EC2
:102700004CD1002F40F0F880019B002B40F0F0806E
:10271000069B002B40F0E0805846FEF7F1FB504648
:10272000FEF7EEFB012200212846FFF777FC8442EA
:1027300009F1FF393FF4D7AD19F0FF09DCD1D2E53B
:102740004FF0030836BB002F40F0CA80019BEBB965
:10275000B9F1000F40F0C8805846FEF7D1FB504653
:10276000FEF7CEFB0698FEF7CBFB012200212846A0
:10277000FFF754FCA04208F1FF383FF4B4AD18F065
:10278000FF083FF4B0AD002EDDD003E00498FEF763
:10279000B7FBDDE70298FEF7B3FBD4E70298FEF73C
:1027A000AFFBAEE70598FEF7ABFB29E70498FEF711
:1027B000A7FBB9F1000F3FF423AFF3E70398FEF74F
:1027C0009FFB15E74FF0030806BB1FBB019BCBB96E
:1027D000B9F1000F22D15846FEF792FB5046FEF7A2
:1027E0008FFB012200212846FFF718FC844208F1E4
:1027F000FF383FF478AD18F0FF083FF474AD002EB9
:10280000E3D003E00498FEF77BFBE1E70298FEF7D4
:1028100077FBDAE70398FEF773FBD7E70598FEF737
:102820006FFBD8E70398FEF76BFB0DE60398FEF706
:1028300067FBE4E50598FEF763FBE8E50598FEF71E
:102840005FFBBEE60598FEF75BFB05E60598FEF725
:1028500057FB53E60398FEF753FB47E60398FEF752
:102860004FFBA6E60398FEF74BFB1AE60598FEF72A
:1028700047FB1EE6002943D14FF0030B4046FEF70D
:102880003FFBEEB907BB019BB3B9B9F1000F1FD1F4
:102890005046FEF735FB0698FEF732FB0122002179
:1028A0002846FFF7BBFB84420BF1FF3B3FF41BAD17
:1028B0001BF0FF0BE2D116E50498FEF721FBE4E7DD
:1028C0000298FEF71DFBDDE70398FEF719FBDAE738
:1028D0000598FEF715FBDBE70598FEF711FB1BE7F4
:1028E0000398FEF70DFB31E70598FEF709FB33E788
:1028F0000498FEF705FB0BE70398FEF701FB03E7DF
:102900000323CDF81C9099464046FEF7F9FADEB94C
:1029100037BB019B03BB079BD3B95846FEF7F0FAC0
:102920005046FEF7EDFA0698FEF7EAFA012200217A
:102930002846FFF773FBA04209F1FF393FF4D3ACFF
:1029400019F0FF09E0D1CEE40298FEF7D9FADFE7EB
:102950000598FEF7D5FAE0E70498FEF7D1FADAE732
:102960000398FEF7CDFAD4E7024809B0BDE8F04F6E
:1029700003F00EBFD8FD000070B506460D461446A4
:1029800001F0ACF9B0F5907F15D203460C4A304601
:102990001268D11802EB4303CE7681F83B51A3F8BD
:1029A0005C4201F04DFB284601F022FB2046BDE8C9
:1029B000704001F06DBB0348BDE8704003F0E8BE15
:1029C00004000020D8FD000038B505460C4601F093
:1029D00085F9B0F5907F0FD203460A4A284612685F
:1029E000134483F89C5483F8BC4501F04DFA20460B
:1029F000BDE8384001F05CBA0348BDE8384003F058
:102A0000C7BE00BF04000020D8FD00002DE9F04F34
:102A10008FB080460C46CDE90421039301F05EF9A6
:102A2000B0F5907F80F0B580012001F05BFB47F6A8
:102A3000FF7001F02DFB5A494222472340274FF0F7
:102A4000FF3647F6FF798B46DFF858A100944FEA2E
:102A5000481806A8019204F0CBF8DAF8041006A88A
:102A600001EB81018900FDF7D3FB09E0204601F06D
:102A7000E7FA4046FEF7ACF94845254644D02646DD
:102A8000F419BB1B04EBD474012B4FEA6404EDDC96
:102A900025464FF0420B039A049B402600939B1A55
:102AA00003934FF0FF3947235A463D4906A8CDF816
:102AB00004B004F09DF8DAF8041006A801EB8101D7
:102AC0008900FDF7A5FB09E0204601F091FA404698
:102AD000FEF77EF9274600283AD0264606EB090481
:102AE000A6EB090304EBD474012B4FEA6404EBDC7E
:102AF0002746002001F0F6FA3A4629462A4803F014
:102B0000D9FD0FB0BDE8F08F4227039A059B5946C7
:102B1000134400933A46472306A8019704F068F847
:102B2000DAF8041006A801EB81018900FDF770FBBB
:102B30004046FEF74DF947F6FE739842A9D9059B2A
:102B40003A460197009327464723594606A882E74D
:102B5000039B422212490093CDF804B0472306A8F4
:102B600004F046F8DAF8041006A801EB81018900A8
:102B7000FDF74EFB4046FEF72BF90028B9D1049B28
:102B8000A1460093422247230549CDF804B006A888
:102B90008FE706480FB0BDE8F04F03F0F9BD00BF66
:102BA00000FE000004000020800F0100D8FD00009E
:102BB0002DE9F04F8FB006460C461D46039201F0FA
:102BC0008DF8B0F5907F80F01E81002D00F015810A
:102BD000DFF83892C0EB00104300D9F800000493EE
:102BE00003F2DC631E22FF21184403F0F5FC0120F0
:102BF00001F078FA4222472301928549009406A801
:102C000003F0F6FFD9F8041006A801EB8101890052
:102C1000FDF7FEFA5B2003F065FD7E4B1B689868AC
:102C200002F0AEFE039BA3EB04089C42B8FBF5F850
:102C300080F0D18047F6FF730027DFF8D4B176012A
:102C40004FEA181805930EE0B7FBF5F3B3FBF8F263
:102C500008FB1233002B00F0B080039B2C44A342EE
:102C60002F4440F2B88042224723019259460094F3
:102C700006A803F0BDFFD9F8041006A88900FDF7E7
:102C8000C7FA3046FEF7A4F882463046FEF7A0F8B1
:102C9000024630460292FEF79BF8029A9245D3D143
:102CA0008245D1D1059B5345CED983EA0A02D0078C
:102CB00005D5D9F80010049B1944A1F8DC4691070A
:102CC00005D5D9F80010049B1944A1F8DE46530736
:102CD00005D5D9F80010049B1944A1F8E046100767
:102CE00005D5D9F80010049B1944A1F8E246D10695
:102CF00005D5D9F80010049B1944A1F8E4469306C1
:102D000005D5D9F80010049B1944A1F8E6465006F1
:102D100005D5D9F80010049B1944A1F8E84611061E
:102D200005D5D9F80010049B1944A1F8EA46D3054B
:102D300005D5D9F80010049B1944A1F8EC4690057C
:102D400005D5D9F80010049B1944A1F8EE465105A9
:102D500005D5D9F80010049B1944A1F8F0461305D5
:102D600005D5D9F80010049B1944A1F8F246D00407
:102D700005D5D9F80010049B1944A1F8F446910434
:102D800005D5D9F80010049B1944A1F8F646530460
:102D900005D5D9F80020049B1A44A2F8F846BAF1E8
:102DA000000F18D0B7FBF5F3B3FBF8F208FB1233B2
:102DB000CDF814A0002B7FF450AF3E2003F092FC1E
:102DC000144B2C441B682F44986802F0D9FD039BD8
:102DD000A3423FF648AF5D2003F084FC0D4B1B6817
:102DE000986802F0CDFD002001F07CF90022D9F8AE
:102DF00000309A760FB0BDE8F08F07480FB0BDE8FD
:102E0000F04F03F0C5BC0548F8E700BF0400002000
:102E100000FE000014000020880F0100D8FD000013
:102E2000F8B500F05BFFB0F5907F28D20546164854
:102E300003F0AEFC154803F0ABFC154803F0A8FC0A
:102E4000144803F037FC0024134F144EC5EB05154E
:102E50003B682A1903EB42033046B3F9DC16013410
:102E600003F028FC0F2CF3D10A2003F03BFC0C48A4
:102E700003F08EFCBDE8F8400A2003F033BC09489B
:102E8000BDE8F84003F084BCA40F0100E01001008D
:102E900070110100AC12010004000020C4120100F6
:102EA000D0120100D8FD000010B500F017FFB0F5FA
:102EB000907F12D204460B4AC0EB00135B001068EF
:102EC00003F2DC6300211E22184403F085FB214637
:102ED000BDE81040044803F0EDBB0448BDE81040D5
:102EE00003F056BC040000200C140100D8FD0000C3
:102EF0002DE9F04F8DB000F0F1FEB0F5907F03901A
:102F000080F08280434803F043FC40F60A2441F2FB
:102F10000A35204604F58074FDF79CFFAC42F8D1D9
:102F20003D4803F035FC41F60A45204604F580741F
:102F3000FDF7E6FFAC42F8D140F24C4600250527EC
:102F4000B046DFF8D890DFF8D8B0DFF8D8A04FF05F
:102F5000410C4FEA580447234222CDE9004C594620
:102F600004A803F045FED9F8041004A801EB810180
:102F70008900FDF74DF940F2FF1141F20A30FFF7E9
:102F800009F803463246294650460097029303F05B
:102F900091FB029B621BB3F5804F06D2012A12D926
:102FA0002646052705EB0608D1E7A6EB040303D068
:102FB000012B08D92546F4E7731B012B07F1FF37D6
:102FC00001D9002FC3D14126039B019603F5F3409D
:102FD000D9F800300C3003EB4005AD88472342227E
:102FE0000F4904A8009503F003FED9F8041004A8C3
:102FF00001EB81018900FDF70BF921460A4803F036
:1030000059FB0DB0BDE8F08F08480DB0BDE8F04F9A
:1030100003F0BEBB2C1401003C140100040000208E
:1030200000FE00004C140100740F0100D8FD0000E8
:1030300070B58AB0054600F051FEB0F5907F2CD2F5
:10304000B5F5FA7F04461AD82A46174E00F5F34420
:1030500030680C3400EB4404A580412447230092DF
:103060001249422202A8019403F0C2FD716802A82D
:1030700001EB81018900FDF7CBF80AB070BD0C4867
:1030800003F086FB0023084E04F5F34430680C344B
:1030900000EB44041A46A380DFE706480AB0BDE807
:1030A000704003F075BB00BF0400002000FE00006C
:1030B000FC0E0100D8FD000008B500F00FFEB0F5D1
:1030C000907F0CD2084B00F5F3401B680C3003EBEB
:1030D00040008188BDE80840044803F0EBBA04488A
:1030E000BDE8084003F054BB04000020740F010049
:1030F000D8FD000008B500F0F1FDB0F5907F10D2CA
:103100004FF0000C094B00F5F3421B680C3203EB47
:1031100042030146A3F804C00548BDE8084003F097
:10312000C9BA0448BDE8084003F032BB04000020DF
:1031300088140100D8FD00002DE9F04FFBB00746D0
:1031400000F0CCFDB0F5907F80F03B839A4E19AC37
:1031500005460FCEA0460FC40FCE0FC43368974864
:10316000236003F015FBB8F80240B8F8003004F50E
:10317000106606EB032604EB0324204604F5807456
:10318000FDF768FEB442F8D108F1040822AB984577
:10319000E9D18B4803F0FCFA0DF16408B8F800306F
:1031A000B8F8024003F1090204F5905606EB032635
:1031B00004EB0224204604F58074FDF7A1FEB4421E
:1031C000F8D108F1040822AB9845E7D1002F40F070
:1031D000A18009234FF0010B0E935A2303FB05F343
:1031E0000F93ABF10903DBB205934FF0010A0027FF
:1031F0005946744803F05EFA0AFA0BFA19AB0893C1
:103200000AF1FF3A00263446089BB3F80090B3F861
:103210000280059B5146F01AC0B2484408EB0020DA
:10322000FEF7B8FE04EBC404E3197AAA02EB4303E9
:1032300023F8B40C80B236AAC0F50040151901F08D
:10324000E9FF0CF0E3FA5AA3D3E9002302F076F980
:1032500002F05CFA0136F4B2A345E855D9D2089BD6
:1032600001370433092F0893CCD1574803F022FAD1
:10327000564C204603F01EFA7B1E13F0FF07F8D1D0
:10328000534803F085FA534803F014FA524D19AC31
:103290006288284634F8041B03F00CFA22AB9C42E7
:1032A000F6D10A2003F01EFA4C4803F003FA092471
:1032B0004B4D284603F0FEF9631E13F0FF04F8D1CE
:1032C000484803F065FA4FFA8BF3002B0A9326DB8C
:1032D0001F4603EBC30651AADFF80C91434D02EBE6
:1032E0004606A3EB0B0839464846B246123E03F0A9
:1032F000E1F9344634F8021F284603F0DBF9A24511
:10330000F8D10A2003F0EEF9B84507F1FF3306D0F3
:103310001F46E8E75FFA87FBCDF838B05DE7344831
:1033200003F0C8F90924334D2846013C03F0C2F9E3
:1033300014F0FF04F8D1304803F02AFA0A9E002E58
:10334000C0F22F8222AA0BF1010702EBC602A6EB04
:103350000B0510A901EB060A48190B92FF210892F0
:103360003A460C9703F038F913A9481935463A46FE
:10337000214603F031F922ABA6EB0B00214603EB0B
:10338000C000FA0003F028F90DF14B018B19A3EBF3
:103390000B03B146099306EBC60636AB1E44EB00A1
:1033A0000D9313ABD0465F19D8E000BFAFF3008098
:1033B000EF39FAFE422EE63FA8230100A8140100CF
:1033C000C8140100E4140100081501003C150100B7
:1033D000F4030100641501007C1501008C15010047
:1033E000C0150100900401001C1601002C160100FC
:1033F000E81501003C1601001C050100254688F86F
:103400000040002C40F0AF80002200237078A042E2
:1034100084BF38700446CDE9062301F0EBFEDDE9F8
:10342000062301F0ABFD02460B46B078CDE906233A
:10343000A8423CBF054688F80000A04284BF38700F
:10344000044601F0D7FEDDE9062301F097FD0246B0
:103450000B46F078CDE90623A8423CBF054688F824
:103460000000A04284BF3870044601F0C3FEDDE9CD
:10347000062301F083FD02460B463079CDE9062391
:10348000A8423CBF054688F80000A04284BF3870BF
:10349000044601F0AFFEDDE9062301F06FFD0246B0
:1034A0000B467079CDE90623A8423CBF054688F853
:1034B0000000A04284BF3870044601F09BFEDDE9A5
:1034C000062301F05BFD02460B46B079CDE90623E9
:1034D000A8423CBF054688F80000A04284BF38706F
:1034E000044601F087FEDDE9062301F047FD0246B0
:1034F0000B46F079CDE90623A8423CBF054688F883
:103500000000A04284BF3870044601F073FEDDE97C
:10351000062301F033FD02460B46307ACDE906233F
:10352000A84238BF88F80000A0428CBF07F8010904
:1035300007F1FF3701F05EFEDDE9062301F01EFD15
:10354000A34B002201F0FAFF089B093E63E8020149
:103550000893099B08F1FF38BB4215D03478FF2C43
:103560007FF44CAF254620463C7001F043FE00221C
:10357000002301F003FD024670780B46A0423CBFD9
:10358000054688F8000042E7DDE90A3756461C4642
:1035900016AD5BB213E0337812F8012C9A4213D3C4
:1035A000D7E900010CF0E6F802F0B0F82855013C2C
:1035B00063B2002BA7F1080706F1FF3606DB13AA5A
:1035C0002244002BE7D133782B55F0E7814803F0F4
:1035D000DFF8814803F0DCF8804803F0D9F80A9B53
:1035E0007F4E0B9FEC1813AB13F80930494600933C
:1035F0001AF801393046019314F8013909F1FF39FD
:10360000029377E8022303F055F819F0800FEAD00F
:10361000744803F0BDF80A9A0D9BAC5C134441F268
:103620004C4001220F9F70493B4409685B440BF1F9
:10363000FF36034402FA04F4C4F5004476B201EB09
:1036400043039C80741C00F09F8006EBC603AC5DB6
:103650003B445B44034402FA04F401EB4303C4F526
:1036600000449C80ABF1020464B2631C00F08C80C7
:1036700004EBC4033B442C5D5B44034402FA04F4B2
:1036800001EB4303C4F500449C80ABF1030464B236
:10369000631C79D004EBC4033B442C5D5B440344BE
:1036A00002FA04F401EB4303C4F500449C80ABF13F
:1036B000040464B2631C67D004EBC4033B442C5D78
:1036C0005B44034402FA04F401EB4303C4F50044F1
:1036D0009C80ABF1050464B2631C55D004EBC403B9
:1036E0003B442C5D5B44034402FA04F401EB4303C6
:1036F000C4F500449C80ABF1060464B2631C43D063
:1037000004EBC4033B442C5D5B44034402FA04F421
:1037100001EB4303C4F500449C80ABF1070464B2A1
:10372000631C31D004EBC4033B442C5D5B44034475
:1037300002FA04F401EB4303C4F500449C80ABF1AE
:1037400008035BB25C1C1FD003EBC304EB5C02FA02
:1037500003F3E2195A44024401EB4202C3F5004369
:103760009380059AFF2A53B20ED00122E85C03EB46
:10377000C3033B445B4403F5A2530C33824001EB8B
:103780004303C2F500429A80059B9DF830B0013397
:10379000DBB205930E9B5B45BFF427AD7BB0BDE864
:1037A000F08F0BF101030B480C9302F0F1FF0A4874
:1037B00002F0EEFF094802F0EBFF0A4802F0E8FFD2
:1037C000E2E70A487BB0BDE8F04F02F0E1BF00BF7E
:1037D000000022402C170100C4170100041801004A
:1037E000641601009416010004000020D8FD0000BA
:1037F0002DE9F84300F072FAB0F5907F3ED2804692
:10380000214802F0C5FF214802F0C2FF204802F023
:10381000BFFF5A23092503FB08F8DFF878901E4FF5
:103820002946484605EBC506012402F043FF4644FD
:1038300004E0013402F03EFF0A2C11D0331903F5E5
:10384000A253A542154803F10C03F2DC3A68144870
:1038500002EB43039988013402F02CFF0A2CEDD1CE
:103860002046013D02F03EFF6B1CD9D10D4802F00D
:103870008FFF2046BDE8F84302F034BF0A48BDE898
:10388000F84302F085BF00BF9C180100BC1901007D
:10389000341A0100541B010004000020641B0100C5
:1038A00030160100701B0100D8FD00002DE9F04129
:1038B00082B000F013FA8046654802F069FF65485F
:1038C00002F066FF644D654802F062FF644802F052
:1038D0005FFF2868838842880188C088009061481B
:1038E00002F0E8FE2868838942890189C089009036
:1038F0005D4802F0DFFE2868838A428A018AC08A16
:1039000000905A4802F0D6FE594A2B6811461B8B8C
:103910005848009202F0CEFE574802F039FF0A20C4
:1039200002F0E0FEB8F5907F80F087804146534872
:1039300002F0C0FE524802F02BFF524802F028FF6E
:10394000514802F025FF296801EB4802B2F85C32C9
:1039500002F57042B2F81C03414491F83B21C97E44
:1039600000904A4802F0A6FE494802F011FF0A20E2
:1039700002F0B8FE4146474802F09CFE464802F07D
:1039800007FF464802F004FF454802F001FF2B689C
:103990004448434493F8BC2593F89C1402F08AFEF3
:1039A000414802F0F5FE0A2002F09CFEC8EB081325
:1039B0002A685B0003F2DC6341461A443B4802F08C
:1039C00079FE00F08BF9B0F5907F06463BD238487F
:1039D00002F0DEFE374802F0DBFE374802F0D8FE88
:1039E000364802F067FE0024354FC6EB06162B68FA
:1039F000321903EB42033846B3F9DC16013402F006
:103A000059FE0F2CF3D10A2002F06CFE2D4802F073
:103A1000BFFE0A2002F066FEB42442F69C0304FBBB
:103A200008332A6841461A44274802F043FE4046BC
:103A300002B0BDE8F041FFF7DBBE244802B0BDE8AC
:103A4000F04102F0A5BE214802F0A2FEE4E700BF6B
:103A5000901C0100B41C0100040000205C1D01004A
:103A6000A41D01004C1E0100801E0100B41E0100B7
:103A7000E81E0100F01E0100241F0100CC1F010000
:103A8000F81F010074200100AC2001002821010072
:103A900058210100D421010000220100442201002C
:103AA00064220100A8220100C022010004230100B9
:103AB000A40F0100E010010070110100AC12010020
:103AC000C4120100D012010038230100D8FD00000B
:103AD0002DE9F04F83B0044600F000F9B0F5907F77
:103AE00080F08F800346002C7FD1092201211546EA
:103AF00001914FF05A0E464841F2554B046841F28D
:103B00005E4A002041F2674941F2704841F279472C
:103B100041F282460EFB03FE55E00EEB010C0CF564
:103B2000A45C0CF11D0C04EB4C0CACF804000EEB87
:103B3000010C0CF5A45C0CF1140C04EB4C0CACF86F
:103B400004000EEB010C0CF5A45C0CF10B0C04EB67
:103B50004C0CACF804000EEB010CB44404EB4C0C20
:103B6000ACF804000EEB010CBC4404EB4C0CACF8BC
:103B700004000EEB010CC44404EB4C0CACF8040044
:103B80000EEB010CCC4404EB4C0CACF804000EEB37
:103B9000010CD44404EB4C0CACF804000EEB010C0B
:103BA000DC4404EB4C0CACF804000EEB010C0CF5FF
:103BB000A25C01310CF10C0CC9B204EB4C0C8D422F
:103BC000ACF8040016D30829A7DCB0D00729B8D078
:103BD0000629C0D00529C5D00429CAD00329CFD0D1
:103BE0000229D4D00029E0D0D8E7E1B20A460D4638
:103BF00001917EE70199074803B0BDE8F04F02F05C
:103C000059BD054803B0BDE8F04F02F0C1BD00BF8B
:103C1000040000206C230100D8FD000038B50446E4
:103C200000F05CF8B0F5907F15D22046FDF768F9FA
:103C300001212046FEF7AEF905462046FDF70AF9B8
:103C400001212046FEF7A6F92946BDE83840024684
:103C5000034802F02FBD0348BDE8384002F098BD8C
:103C600094230100D8FD0000014BD86A704700BFC3
:103C700000200140014B5868704700BF0020014000
:103C8000044AC003536800F4603023F460331843DF
:103C90005060704700200140024B5868C0F3C230AA
:103CA000704700BF00200140044A8004536800F4BC
:103CB0007C0023F47C0318435060704700200140CF
:103CC000024B5868C0F38540704700BF0020014098
:103CD000014B5862704700BF00200140014B586AF9
:103CE000704700BF00200140054AC0F30800936AF6
:103CF00023F4FF7323F0010303439362704700BF73
:103D000000200140024B986AC0F30800704700BFD2
:103D100000200140054902020B681B0C1B0443EA0A
:103D2000102390B203430B60704700BF0020014096
:103D3000044B18681B68C0B2C3F3072303EB0020D1
:103D4000704700BF00200140164B10B51A680446AA
:103D5000510007D4134A136823F0004343EAC473A5
:103D6000136010BD1A68002A05DB0E4A136823F0A1
:103D700080431360EEE71A68520005D4094A1368BD
:103D800023F000431360F0E71B68002B05DB054AB6
:103D9000136823F080431360F0E70020FFF7D4FF9F
:103DA000F5E700BF00200140014B1868C00F7047C5
:103DB00000200140024B5868C0F38070704700BF7C
:103DC00000200140034A136883F400231360BFF30B
:103DD0006F8F704700200140044A0004936800F48C
:103DE0007F0023F47F031843906070470020014058
:103DF000024B9868C0F30740704700BF00200140A5
:103E0000044A0006536800F0807023F08073184362
:103E10005060704700200140024B5868C0F30060BA
:103E2000704700BF00200140044A0004136800F4FA
:103E3000E02023F4E0231843106070470020014085
:103E4000024B1868C0F30240704700BF00200140D9
:103E5000044A136823F0FF5323F4801343EA00530A
:103E60001360704700200140024B1868C0F30850EF
:103E7000704700BF00200140024B5868C0F34070FB
:103E8000704700BF00200140044A0003536800F45B
:103E9000805023F480531843506070470020014045
:103EA000024B5868C0F30030704700BF002001404B
:103EB000044A8002536800F4406023F440631843CE
:103EC0005060704700200140024B5868C0F38120C9
:103ED000704700BF00200140014BD868704700BF09
:103EE000002001401B4B10B51A680446002A09DB6C
:103EF000184AA407136804F0804423F080431C434D
:103F0000146010BD1A68510005D4124A136823F0DA
:103F100000431360ECE71A68002A05DB0D4A1368BA
:103F200023F080431360F0E71A68520005D4094A71
:103F3000136823F000431360F0E71B68002B05DBD8
:103F4000044A136823F080431360F0E70020FFF772
:103F5000FBFEF5E700200140024B1868C0F38070BB
:103F6000704700BF00200140014B5868C00F7047E8
:103F700000200140074A136843F000531360BFF369
:103F80006F8F136823F0005313605368002BFCDA23
:103F9000704700BF00200140034A80B293681B0CA9
:103FA0001B0403439360704700200140014B986855
:103FB00080B2704700200140044A4002536800F478
:103FC000007023F4007318435060704700200140D4
:103FD000024B5868C0F34020704700BF00200140EA
:103FE000024B186AC0F30E00704700BF002001406A
:103FF000C04301220849C0F3C20C4B6902FA0CF21B
:1040000023F47F73013A00F0070023F0030300EB71
:10401000C20018434861704700200140074B5A69AD
:1040200012F47E7FC2F3C60302F0070003D05B08E0
:1040300000F10800FBD1C0F13F00704700200140B3
:10404000C04301220849C0F3C20C8B6902FA0CF28A
:1040500023F47F73013A00F0070023F0030300EB21
:10406000C20018438861704700200140074B9A69DD
:1040700012F47E7FC2F3C60302F0070003D05B0890
:1040800000F10800FBD1C0F13F0070470020014063
:10409000054AC0F30E00D36923F4FF4323F07F03E6
:1040A0000343D361704700BF00200140024BD86931
:1040B000C0F30E00704700BF00200140044AC00159
:1040C0005368C0B223F0800318435060704700BFAC
:1040D00000200140024B5868C0F3C010704700BF79
:1040E00000200140044A0002536800F4807023F469
:1040F000807318435060704700200140024B58689D
:10410000C0F30020704700BF00200140044A400671
:10411000536800F0007023F000731843506070473C
:1041200000200140024B5868C0F34060704700BF58
:1041300000200140044A8003536800F4804023F4C7
:10414000804318435060704700200140024B58687C
:10415000C0F38030704700BF00200140044B5A6814
:1041600082F400525A605A6882F400525A607047D2
:1041700000200140024B5868C0F3C060704700BF88
:1041800000200140014B9869704700BF003001409A
:10419000024A136843F00043136070470030014047
:1041A000024A136823F00043136070470030014057
:1041B00030B4164D2C68C0B924F000542C60CBB933
:1041C000124B1C6824F47F5C2CF03F0C4CEA01017C
:1041D00019600E4B023043F820201A6882F08042AA
:1041E0001A60BFF36F8F30BC704744F000542C60EE
:1041F000002BE5D0054CC1F57F5123683F3123F4F6
:104200007F5323F03F030B432360E2E7003001407C
:1042100010B4144C236898B923F000532360A2B95A
:10422000104A136823F47F5323F03F0319431160AE
:10423000BFF36F8F0B4B043053F8200010BC704756
:1042400043F000532360002AEAD0064AC1F57F51AB
:1042500013683F3123F47F5323F03F031943116068
:10426000E6E700BF00300140074A136840B923F475
:1042700000131360044A136883F08063136070476F
:1042800043F400131360F5E700300140074A136858
:1042900040B923F400131360044A136883F0805379
:1042A0001360704743F400131360F5E700300140DA
:1042B0009AB9134A136823F47F5323F03F03194339
:1042C00011600F4A1368B8B923F4001313600C4A45
:1042D000136883F0006313607047094AC1F57F518A
:1042E00013683F3123F47F5323F03F0319431160D8
:1042F000034A13680028E7D043F400131360E6E78D
:1043000000300140034A53681B0C1B0403435360F5
:10431000704700BF00300140024A136843F0007349
:104320001360704700300140024A136823F00073A5
:104330001360704700300140034A536823F0604324
:1043400043EA407353607047003001400C4A61B942
:10435000136823F47F5323F03F0318431060084A87
:10436000136883F40003136070471368C0F57F502F
:1043700023F47F533F3023F03F0318431060EEE7F0
:10438000003001409AB9104A136823F47F5323F098
:104390003F03184310600C4A136823F4E01343EA08
:1043A00081411160136883F0807313607047064A7F
:1043B000C0F57F5013683F3023F47F5323F03F0351
:1043C00018431060E7E700BF0030014030B4134CE1
:1043D000256825F4E01C4CEA81412160216821F424
:1043E000703141EA823121606BB9236823F47F5335
:1043F00023F03F0318432060084A30BC136883F061
:104400008073136070472368C0F57F5023F47F5397
:1044100023F03F033F3018432060EDE700300140B8
:10442000044B00211A88586802FB02F2920002F045
:10443000D3B800BF700A002010B50C4C0246238888
:10444000834208D1606802FB02F2BDE810400021FF
:10445000920002F0C1B800FB00F160688900228080
:1044600002F09EF922886060EDE700BF700A00202C
:10447000024B5B6843F82010704700BF700A0020B1
:104480002DE9F041114D2A88F2B14FF00008104F8C
:1044900082B100241FFA88F6A3B206FB02336A68D1
:1044A000384652F8231002F005F901342A88A3B2E5
:1044B0009A42F1D80A2002F015F908F101082A8879
:1044C0001FFA88F39A42E3D8BDE8F081700A002011
:1044D000CC23010000B54FF0FF324FF0050E002154
:1044E0004FF0010C0D4B03F58C6003F802EC1A60E1
:1044F0005A609A60DA601A615A619A61DA611962E7
:104500005962198583F82A10D962C3F830C083F83C
:10451000341038338342E8D15DF804FB7A0A002076
:10452000034BC0EBC00003EBC0000172704700BF3B
:10453000700A0020C0EBC00010B40844034C02EB2A
:10454000800004EB4004638110BC7047700A0020B7
:10455000034BC0EBC00003EBC00041858285704770
:10456000700A002010B4074C9DF804C0C0EBC000D6
:1045700004EBC00080F834C010BCC18502864386BD
:10458000704700BF700A0020034BC0EBC00003EB74
:10459000C000C18602877047700A0020034BC0EB41
:1045A000C00003EBC000418782877047700A00207B
:1045B000034BC0EBC00003EBC00080F83E10704717
:1045C000700A00202DE9F04F60488BB002F0E0F84F
:1045D0005F4802F0DDF85F4802F0DAF85E4802F06A
:1045E000D7F85E4802F0D4F84FF0000A5C4FDFF8CD
:1045F00074813B78052B7FD0042B0ED8DFE803F0C5
:1046000093828C8A0300584B584A92E8030043F87F
:10461000040C0A0C23F8021B1A7097F83620BB8E84
:10462000B7F83290398E97F82C003E8DFD8CB7F894
:104630002EE0B7F82AC0BC8CCDE90832CDE90619C6
:10464000CDE9040ECDE9026CCDE900455146484A5A
:104650007B8C484802F02EF83E460025DFF8189182
:10466000B6F90230013363D015B1444802F022F8A4
:104670005B2002F037F8002406F1020B3BF9021B25
:104680004B1C11D0404602F015F8032C04F1010434
:104690004CD0BBF900200132F0D02C2002F022F8DF
:1046A0003BF9021B4B1CEDD1C4F10504A4004846A4
:1046B00002F000F8032D06D0B6F90A30013302D01B
:1046C0002F4801F0F7FF4FF0000B20200BF1010BFA
:1046D00002F008F8A345F8DB2A48013502F058F843
:1046E000042D06F10806BBD10AF1010ABAF1140F34
:1046F00007F138077FF47DAF23480BB0BDE8F04FDA
:1047000002F046B8214B184A93E8030042F8040C23
:10471000117082E71E4BF6E71E4B93E80300144B23
:1047200083E8030079E7104B1B4A6EE70424BEE7D9
:10473000002DD9D119480AF1010A02F029F8BAF17D
:10474000140F07F138077FF454AFD5E7D4230100E5
:104750008025010020260100742701002428010083
:10476000780A0020F02A0100DC0E0020E829010070
:10477000D80E0020F0290100F42A01005C2A010073
:10478000F82A01006C1B0100182B0100D829010038
:10479000E0290100C42C0100D0290100FC2A0100FD
:1047A000A94B2DE9F04F03F10A0BD9465A680023B3
:1047B00019F8027C91B00292052F4FEA0022019075
:1047C0000D9318460E9224D09F4B5A68824203D014
:1047D00001F04EFC19F8027CFFB1012F00F0FA80C5
:1047E000032F00F0CB80022F00F00982042F00F08D
:1047F0006B82029B0A930D9B02980133142B0D933D
:1048000009F1380905D019F8027C0A9B052F02939B
:10481000DAD1FF2011B0BDE8F08FB9F82C60042187
:10482000304600F0A3FFB9F820200A90002AE2D019
:10483000B0460097009B019E1B02CDF81490049394
:10484000B8F1000F6FD00027BA46059B009A099374
:104850000A9B043B0793029B03EB82230B93099B68
:1048600033F9020B0993FCF75BFF00230693CAF1AF
:1048700000030393049D0AF12003B9F82C800893E8
:10488000CDF83CA0B9F82030AB4231D900270B9BC2
:10489000069A043B03EB82030C93E6B1002301224A
:1048A0009B460C99B9F820E002FA07FC0DE00122C2
:1048B00051F8040F02FA03F413441CEA000FDAB2B1
:1048C00018BF4BEA040B964202D95A199645EED806
:1048D000BBF1000F36D10137082FDED1069B039ABA
:1048E0000E9933440A44FF2B069335440392C9D9E9
:1048F000079BDDF820A08033C2450793AFD3009A11
:10490000049B01320092B9F8202003F580739A428B
:104910007FF671AF059B08330593009B1B02049340
:10492000B8F1000F8FD103F58071009B914203F124
:10493000010338BF1B02BFF45EAF03F580739342DF
:10494000FBD358E7DDF81CA00F9C0FE05A4600216E
:10495000FDF764FB5AF8043F00FA07F21344CAF863
:104960000030089BB9F82C80A342B4D0039BA0452B
:1049700004EB030004F10104E8D8ACE7B9F82E50C9
:10498000B9F82C40002D40F00E810421204600F0A3
:10499000EDFE0A90002C3FF42EAF0299021F01EBAE
:1049A000840451F8043B002B0FDBB9F830008C4233
:1049B00093FBF0F3B9F83200034442F8043F3FF4AC
:1049C0001AAF51F8043B002BEFDA8C4242F8045F37
:1049D000E7D110E7B9F82C30B9F82E0009931C463E
:1049E00003FB03F3042103FB00F000F0BFFE2022D1
:1049F000B9F82430089303FB03F3B2FBF3F3CDE9DA
:104A00000A03002C3FF4F7AE0026B046089B002BAB
:104A100000F0B9800027B9F82630BB46BA460C939F
:104A2000002B49D00793002300960493002303939F
:104A3000019B5BB300210123039A0E460498B9F849
:104A400022C003FA02FE1EE0700A0020012399F83A
:104A50002A2003FA01F71944009BB9F8204003FB10
:104A600002A300FB043304FB03B308FB0233029AE6
:104A7000CDB252F8233001301EEA030F019B18BF5C
:104A80003E43AB4201D98445E0D82EBB039B0133A2
:104A9000082B0393CCD1049B019A1344079A0493E7
:104AA0009A42C3D8089B0BF1010B5B45009E59D974
:104AB000079B0C93002BB5D1089A0BF101039A4286
:104AC0004DD901339342574655D30137974259D2B6
:104AD000002A57D000234EE0B9F82830002BD5D05B
:104AE000DDE9073ECDE9058600240B9F0A9E099D5E
:104AF00005E0B9F82630B9F824E0B9F82C50B4FB39
:104B0000F7FC07FB1C40DDF810800EFB00A003FB48
:104B10000C83009A1B0204FB05210EFB0030059A52
:104B2000584405FB01250021069AFDF777FA039A00
:104B300056F82530B9F82810013490400344A142BA
:104B400046F82530D5D8B9F82630DDF8148007931B
:104B5000B9F824300893B9F82C30099396E70C9BE8
:104B6000079313460AF1010A9A450CD25BB10C9BDC
:104B70002BB95746089A01339342FCD3A5E74FF06F
:104B8000000B95E70892099B08F1010843453FF6A1
:104B90003DAF0136B3427FF62EAE002B3FF42BAE75
:104BA0004FF0000832E704FB04F405FB04F4042191
:104BB000204600F0DBFD03460A90002C3FF41BAEBC
:104BC0000020029A191F043A02EB840452F8043FB1
:104BD000002B0FDBB9F83050A24293FBF5F3B9F884
:104BE00032502B4441F8043F3FF405AE52F8043FE5
:104BF000002BEFDAA24241F8040FE7D1FBE5B9F848
:104C00002C80B9F82E3008FB08F4042103FB04F0D3
:104C10001D46039300F0AAFD0A90B8F1000F3FF47F
:104C2000EAAD002D3FF4E7AD83464FF0000AB9F836
:104C30002470A3000493C7EB87739B0006934FEA8D
:104C400088030593029B043B07930025CDF800B031
:104C50000026DDF800C04FF0004207B3B9F820404D
:104C600099F82A3006FB04F10AFB031E05FB0371C9
:104C700004FB0E11079B002003EB81014FF0004263
:104C80008E46A400069B734453F8041F8A42B8BFA3
:104C90000A467345F8D10130B842A644F2D1049BCC
:104CA000CCF800209C44039B01369E42D3D1009B4C
:104CB0000135043345450093CAD1059B0AF1010A29
:104CC000C2459B44C1D196E50D9B0E4AC3EBC3037D
:104CD00002EBC3035A8D9AB100234FF000411846EE
:104CE000029C54F823505C1C8D42C8BF2946E5B293
:104CF000C8BF1846AA422B46F2D811B0BDE8F08FC3
:104D0000104687E5700A002070B516463AB14C1E71
:104D1000A51814F8010F00F021F8AC42F9D1304683
:104D200070BD00BF0B203021084B10B41B68084C2D
:104D3000084AA4FB03435B0C1361074B9060996125
:104D4000D36810BC43F00203D36070470C0000200E
:104D5000C5B3A2910060004000100140024A5368B0
:104D6000DB07FCD41060704700600040034A5368C2
:104D70009B07FCD51068C0B2704700BF00600040C0
:104D8000034A5368DB07FCD404231360FEE700BF2B
:104D900000600040036843F008030360704700BFF1
:104DA000036823F008030360704700BF036843F003
:104DB00001030360704700BF036823F00103036031
:104DC000704700BF40687047416070478068704717
:104DD000816070470123C360704700BFC06870479F
:104DE000002303604160816012B1092303607047B2
:104DF00001230360704700BF0023036041608160AE
:104E000012B10D230360704705230360704700BF94
:104E1000002303604160816012B10B23036070477F
:104E200003230360704700BF003A18BF01220BB193
:104E300042F00202009B0BB142F00402019B0BB155
:104E400042F00802029B0BB142F01002039B0BB12F
:104E500042F020020023836001618260436813F006
:104E60000C0F14BF01200020704700BF4068C0F342
:104E700040007047406800F0010070474368DB075E
:104E8000FCD40160704700BF43689B07FCD50068F5
:104E9000C0B270474068C0F3810070470C23436084
:104EA0004068C0F38100704700697047C06800F037
:104EB00001007047C068C0F3400070470123C36021
:104EC000704700BF0223C360704700BF0161704795
:104ED000416170470069704781617047C1617047E7
:104EE0008069704701238B408363806B704700BFEC
:104EF00001238B400362006A704700BF01238B408F
:104F00004362406A704700BF012303FA01F1C162A6
:104F100001637047012303FA01F181620163704765
:104F2000012303FA01F1C16241637047012303FACF
:104F300001F1816241637047D3B2C2F3072203F5E6
:104F4000807302F5007240F8231040F82210704779
:104F5000014B024A1A6070470C0000200024F40044
:104F6000014B024A1A6070470C0000200024F40034
:104F700081F0004102E000BF83F0004330B54FEA0A
:104F800041044FEA430594EA050F08BF90EA020F77
:104F90001FBF54EA000C55EA020C7FEA645C7FEA0A
:104FA000655C00F0E2804FEA5454D4EB5555B8BF2D
:104FB0006D420CDD2C4480EA020281EA030382EA9E
:104FC000000083EA010180EA020281EA0303362D30
:104FD00088BF30BD11F0004F4FEA01314FF4801C03
:104FE0004CEA113102D0404261EB410113F0004F15
:104FF0004FEA03334CEA133302D0524263EB4303CC
:1050000094EA050F00F0A780A4F10104D5F1200E69
:105010000DDB02FA0EFC22FA05F2801841F10001C4
:1050200003FA0EF2801843FA05F359410EE0A5F198
:1050300020050EF1200E012A03FA0EFC28BF4CF0C9
:10504000020C43FA05F3C01851EBE37101F000457F
:1050500007D54FF0000EDCF1000C7EEB00006EEB8C
:105060000101B1F5801F1BD3B1F5001F0CD3490816
:105070005FEA30004FEA3C0C04F101044FEA44526D
:1050800012F5800F80F09A80BCF1004F08BF5FEAF4
:10509000500C50F1000041EB045141EA050130BDD4
:1050A0005FEA4C0C404141EB0101013C28BFB1F5E6
:1050B000801FE9D291F0000F04BF01460020B1FA31
:1050C00081F308BF2033A3F10B03B3F120020CDA04
:1050D0000C3208DD02F1140CC2F10C0201FA0CF0E2
:1050E00021FA02F10CE002F11402D8BFC2F1200C47
:1050F00001FA02F120FA0CFCDCBF41EA0C019040FD
:10510000E41AA2BF01EB0451294330BD6FEA040445
:105110001F3C1CDA0C340EDC04F11404C4F1200230
:1051200020FA04F001FA02F340EA030021FA04F342
:1051300045EA030130BDC4F10C04C4F1200220FA99
:1051400002F001FA04F340EA0300294630BD21FAD7
:1051500004F0294630BD94F0000F83F4801306BF9D
:1051600081F480110134013D4EE77FEA645C18BF91
:105170007FEA655C29D094EA050F08BF90EA020F28
:1051800005D054EA000C04BF1946104630BD91EA20
:10519000030F1EBF0021002030BD5FEA545C05D123
:1051A0004000494128BF41F0004130BD14F5800462
:1051B0003CBF01F5801130BD01F0004545F0FE41D6
:1051C00041F470014FF0000030BD7FEA645C1ABF0B
:1051D000194610467FEA655C1CBF0B46024650EA42
:1051E000013406BF52EA033591EA030F41F400216E
:1051F00030BD00BF90F0000F04BF0021704730B5F4
:105200004FF4806404F132044FF000054FF00001C8
:1052100050E700BF90F0000F04BF0021704730B589
:105220004FF4806404F1320410F0004548BF40425E
:105230004FF000013EE700BF42004FEAE2014FEAB3
:1052400031014FEA02701FBF12F07F4393F07F4F8E
:1052500081F06051704732F07F4208BF704793F091
:105260007F4F04BF41F40021704730B54FF46074A4
:1052700001F0004521F000411CE700BF50EA0102A7
:1052800008BF704730B54FF000050AE050EA010250
:1052900008BF704730B511F0004502D5404261EBC0
:1052A00041014FF4806404F132045FEA915C3FF401
:1052B000D8AE4FF003025FEADC0C18BF03325FEA9E
:1052C000DC0C18BF033202EBDC02C2F1200300FA4F
:1052D00003FC20FA02F001FA03FE40EA0E0021FA74
:1052E00002F11444BDE600BF70B54FF0FF0C4CF462
:1052F000E06C1CEA11541DBF1CEA135594EA0C0F14
:1053000095EA0C0F00F0DEF82C4481EA030621EA4E
:105310004C5123EA4C5350EA013518BF52EA033589
:1053200041F4801143F4801338D0A0FB02CE4FF03B
:105330000005E1FB02E506F00042E0FB03E54FF06B
:105340000006E1FB03569CF0000F18BF4EF0010E63
:10535000A4F1FF04B6F5007F64F5407404D25FEA5F
:105360004E0E6D4146EB060642EAC62141EA555112
:105370004FEAC52040EA5E504FEACE2EB4F1FD0C54
:1053800088BFBCF5E06F1ED8BEF1004F08BF5FEAD2
:10539000500E50F1000041EB045170BD06F0004684
:1053A00046EA010140EA020081EA0301B4EB5C0431
:1053B000C2BFD4EB0C0541EA045170BD41F4801129
:1053C0004FF0000E013C00F3AB8014F1360FDEBF4E
:1053D000002001F0004170BDC4F10004203C35DA2A
:1053E0000C341BDC04F11404C4F1200500FA05F3AD
:1053F00020FA04F001FA05F240EA020001F000424E
:1054000021F0004110EBD37021FA04F642EB0601C3
:105410005EEA430E08BF20EAD37070BDC4F10C04ED
:10542000C4F1200500FA04F320FA05F001FA04F2B1
:1054300040EA020001F0004110EBD37041F100019D
:105440005EEA430E08BF20EAD37070BDC4F12005A8
:1054500000FA05F24EEA020E20FA04F301FA05F210
:1054600043EA020321FA04F001F0004121FA04F2B8
:1054700020EA020000EBD3705EEA430E08BF20EA88
:10548000D37070BD94F0000F0FD101F000464000C2
:1054900041EB010111F4801F08BF013CF7D041EA44
:1054A000060195F0000F18BF704703F00046520048
:1054B00043EB030313F4801F08BF013DF7D043EA19
:1054C0000603704794EA0C0F0CEA135518BF95EACF
:1054D0000C0F0CD050EA410618BF52EA4306D1D156
:1054E00081EA030101F000414FF0000070BD50EA75
:1054F000410606BF1046194652EA430619D094EAFF
:105500000C0F02D150EA013613D195EA0C0F05D1E8
:1055100052EA03361CBF104619460AD181EA03013C
:1055200001F0004141F0FE4141F470014FF00000F4
:1055300070BD41F0FE4141F4780170BD70B54FF08F
:10554000FF0C4CF4E06C1CEA11541DBF1CEA13550F
:1055500094EA0C0F95EA0C0F00F0A7F8A4EB0504F1
:1055600081EA030E52EA03354FEA013100F08880E8
:105570004FEA03334FF0805545EA131343EA1263B1
:105580004FEA022245EA111545EA10654FEA002666
:105590000EF000419D4208BF964244F1FD0404F51F
:1055A000407402D25B084FEA3202B61A65EB03057B
:1055B0005B084FEA32024FF480104FF4002CB6EB38
:1055C000020E75EB030E22BFB61A754640EA0C00B8
:1055D0005B084FEA3202B6EB020E75EB030E22BFF8
:1055E000B61A754640EA5C005B084FEA3202B6EB39
:1055F000020E75EB030E22BFB61A754640EA9C00F8
:105600005B084FEA3202B6EB020E75EB030E22BFC7
:10561000B61A754640EADC0055EA060E18D04FEA85
:10562000051545EA16754FEA06164FEAC30343EA25
:1056300052734FEAC2025FEA1C1CC0D111F4801FF2
:105640000BD141EA00014FF000004FF0004CB6E7EB
:1056500011F4801F04BF01430020B4F1FD0C88BF8A
:10566000BCF5E06F3FF6AFAEB5EB030C04BFB6EB95
:10567000020C5FEA500C50F1000041EB045170BD88
:105680000EF0004E4EEA113114EB5C04C2BFD4EBB5
:105690000C0541EA045170BD41F480114FF0000E39
:1056A000013C90E645EA060E8DE60CEA135594EAB5
:1056B0000C0F08BF95EA0C0F3FF43BAF94EA0C0FB8
:1056C0000AD150EA01347FF434AF95EA0C0F7FF42D
:1056D00025AF104619462CE795EA0C0F06D152EA81
:1056E00003353FF4FDAE1046194622E750EA410665
:1056F00018BF52EA43067FF4C5AE50EA41047FF476
:105700000DAF52EA43057FF4EBAE12E74FEA4102D8
:1057100012F5001215D211D56FF47873B3EB625203
:1057200012D94FEAC12343F0004343EA505311F02A
:10573000004F23FA02F018BF404270474FF00000BC
:10574000704750EA013005D111F0004008BF6FF0FA
:10575000004070474FF00000704700BF0A22002150
:1057600001F0D2BB0A23002201F0AABB03460A467D
:1057700002490868194600F003B800BF1400002071
:1057800010B502FB01F100F07BFC044668B150F853
:10579000042C22F00302043A242A18D8132A06D82B
:1057A00002460023C2E900339360204610BD002367
:1057B0001B2AC0E900330FD9242AC0E9023311BFE4
:1057C00000F11002036100F118024361E9E70021D2
:1057D00000F002FF204610BD00F10802E1E700BF23
:1057E00008B50021044605F039F8044B1868C36B6E
:1057F00003B1984720460AF08FFA00BFCC2C010075
:10580000B1F90C20F8B50C461107074643D463687C
:1058100042F40062002BA2815BDDA56A002D56D008
:1058200000233E683B6093B212F4805255D10123AD
:105830003846E169A847421C65D0A389A56A5B0781
:1058400005D56368C01A236B0BB1E36BC01A02461F
:10585000E16900233846A847411C40D13B68002B32
:105860003DD01D2B01D0162B54D10022A38923F447
:105870000063A3812369C4E90032216B3E6031B328
:1058800004F14003994202D0384600F06DFA00233B
:1058900018462363F8BD2669CEB193B29A0718BFA4
:1058A0000023256808BF63692660AD1BA3600CE078
:1058B0002B463246D4F824C03846E169E047B0F1BF
:1058C000000CA5EB0C05664416DD002DF0DC002075
:1058D000F8BDE36B002BA0DCF9E7206DAFE70022F9
:1058E000B4F90C30626023F400632269A381DB0405
:1058F0002260C2D52065C0E7A3894FF0FF3043F096
:105900004003A381F8BD3B68002B96D01D2B06D029
:10591000162B04D0A38943F04003A381F8BD0020D7
:105920003E60F8BD38B505460C4608B1836BA3B19F
:10593000B4F90C00B8B1636EDB0701D4810515D54D
:1059400028462146FFF75CFF636E0546DA0702D45E
:10595000A3899B050ED5284638BD00F08FF8B4F911
:105960000C000028E7D10546284638BDA06D00F0A0
:105970006DFBE5E7A06D00F071FB284638BD00BF68
:1059800038B548B3184B04461D680DB1AB6BBBB1BD
:10599000B4F90C0088B1636EDB0701D4810513D51F
:1059A00028462146FFF72CFF636E0546DA0702D42E
:1059B000A3899B050CD5284638BD0546284638BD29
:1059C000284600F05BF8E3E7A06D00F03FFBE7E757
:1059D000A06D00F043FBEEE7044B05491868BDE8F5
:1059E000384000F0E1BA00BF14000020CC2C0100C8
:1059F00025590000014900F0D7BA00BF59B900008D
:105A000008B5436EDA0702D483899B0501D50020CF
:105A100008BD806D00F01AFB002008BD08B5436E7C
:105A2000DA0702D483899B0501D5002008BD806D6B
:105A300000F014FB002008BD682270B54D1E02FB6B
:105A400005F50E4605F1740100F01AFB044640B15D
:105A500000210C30C4E9016005F16802216000F00A
:105A6000BBFD204670BD00BF024B0349186800F023
:105A70009BBA00BFCC2C010059B900002DE9F047BA
:105A80008246394800F0E2FADAF83840002C66D154
:105A9000042303223549DAF80450CAF83C10DFF831
:105AA000D090DFF8D080344F344E0AF53B71CAE90C
:105AB000B921CAF8E0422146EB600822C5E900445A
:105AC000C5E904446C66AC60AC6105F15C0000F0B3
:105AD00083FDC5E90759C5E90987EE6205F158005C
