:020000040001F9
:10000000000007207D010000C1010000C3010000C5
:10001000C5010000C7010000C90100000000000088
:10002000000000000000000000000000CB01000004
:10003000CD01000000000000CF010000D101000050
:10004000D3010000D5010000D7010000D901000054
:100050002D0F0000DD010000DF010000E1010000C4
:10006000E3010000E5010000E701000000000000DE
:10007000E9010000EB010000ED010000EF010000CC
:10008000F1010000F3010000F5010000F70100009C
:10009000F9010000FB010000FD010000FF0100006C
:1000A0000102000003020000050200000702000038
:1000B000090200000B0200000D0200000F02000008
:1000C00010B5054C237833B9044B13B10448AFF392
:1000D00000800123237010BDD00900200000000023
:1000E00018FE000008B5034B1BB103490348AFF3EA
:1000F000008008BD00000000D409002018FE0000A8
:10010000A3F5803A704700BF174B002B08BF134B75
:100110009D46FFF7F5FF00218B460F461348144A12
:10012000121A05F02DFB0E4B002B00D098470D4BFB
:10013000002B00D098470020002104000D000D483E
:10014000002802D00C4809F0BFFC05F025F820007B
:10015000290000F017FF04F017FC00BF00000800A2
:10016000000000000000000000000720D00900206F
:10017000BC0C0020C99A0000DDAB00000A490B4A04
:100180000B4B9B1A03DD043BC858D050FBDC0949DC
:10019000094A00209142BCBF41F8040BFAE7074826
:1001A0008047FFF7B1FF000024FE000000000020A0
:1001B000D0090020D0090020BC0C0020094100001B
:1001C000FEE7FEE7FEE7FEE7FEE7FEE7FEE7FEE707
:1001D000FEE7FEE7FEE7FEE7FEE7FEE7FEE7FEE7F7
:1001E000FEE7FEE7FEE7FEE7FEE7FEE7FEE7FEE7E7
:1001F000FEE7FEE7FEE7FEE7FEE7FEE7FEE7FEE7D7
:10020000FEE7FEE7FEE7FEE7FEE7FEE7FEE7FEE7C6
:1002100038B505461B200C4605F038FBBFF36F8F41
:10022000BFF36F8FBFF36F8F0D48294605F016FBA4
:10023000BFF36F8FBFF36F8FBFF36F8F2CB10023AE
:10024000BFF36F8F01339C42FAD11B2005F01EFBD8
:10025000BFF36F8FBFF36F8FBFF36F8F38BD00BFDA
:1002600044EE00002DE9F04103F07AF8B0F5907FFC
:1002700080F0D1800A2005F009FB02F033FF6848C6
:1002800005F05AFB03F06CF80146664805F0E6FA03
:1002900003F072F80146644805F0E0FA03F080F8D4
:1002A000074603F07DF8064603F07AF80346320A63
:1002B000DBB239465D4805F0D1FA03F043F8014658
:1002C0005B4805F0CBFA03F065FA0146594C5A4DEC
:1002D0005A48002914BF2146294605F0BFFA0A20D2
:1002E00005F0D4FA564805F027FB03F095F80146CF
:1002F0005448002914BF2946214605F0AFFA03F0FF
:1003000091F80146504BDFF844815148002914BF51
:100310004146194605F0A2FA03F0A2F801464D48FD
:1003200005F09CFA03F0B0F84B4A4C49002818BF7E
:1003300011464B4805F092FA03F0BAF801464948D5
:1003400005F08CFA03F0C8F80146474805F086FA34
:100350000A2005F09BFA454805F0EEFA03F034F95F
:1003600001464348002914BF2946214605F076FA84
:100370004146404805F072FA03F050F901463E4804
:1003800005F06CFA03F05CF901463C4A3C4B3D48F1
:10039000002914BF1146194605F060FA0A2005F03D
:1003A00075FA394805F0C8FA02F0B8FF0146374837
:1003B00005F054FA03F04CF90146354805F04EFAC1
:1003C00003F08CF90146334805F048FA03F05EF972
:1003D0000146314805F042FA03F0A0F901462F48E2
:1003E00005F03CFA03F0AEF901462D48002914BF90
:1003F0002946214605F032FA03F0B8F901462948AA
:10040000002914BF2946214605F028FABDE8F0412D
:100410000A2005F03BBA2448BDE8F04105F08CBA4B
:10042000D0EE0000E0EE0000FCEE00001CEF00004B
:1004300048EF000048EE000054EE000064EF0000BA
:1004400080EF000090EF000064EE00005CEE000022
:10045000ACEF0000C8EF000070EE000078EE000086
:10046000E4EF000000F000001CF000003CF0000091
:100470004CF0000064F000007CF000007CEE000016
:1004800080EE000094F00000ACF00000BCF0000032
:10049000D4F00000F0F0000008F1000020F10000AE
:1004A0003CF1000054F1000084EE000000222DE930
:1004B000F041B64FB6493B6C90B03846FA54884686
:1004C00005F002FDADF104052C4603460FAE44F8DD
:1004D000043F4146002005F0F7FCA6420346F6D152
:1004E000009B1B78482B5FD0492B37D04A2B3AD141
:1004F000019B1B78422B00F0EC80412B00F0168111
:10050000432B00F02981442B00F03381452B00F070
:100510003381462B00F04A81472B00F0EC80482BBA
:1005200000F06681492B00F08281502B00F0CB81D6
:10053000512B00F0B681522B00F0F681532B00F0C6
:10054000F081542B1ED1029804F0DCF9C0B203F004
:10055000BFFB01468F4805F081F913E0019B1B7832
:10056000412B00F097808C4805F078F98B4C55F8BA
:10057000041F11B1204605F071F9AE42F7D1884849
:1005800005F0DAF9874B1B68986804F0CDFA04206F
:1005900003F0B8FC402200217C4805F0F1F800236C
:1005A0003B6410B0BDE8F081019B1B78412B00F04B
:1005B0008680422B00F08A80432B72D0442B00F0BF
:1005C000A780452B00F0B980462B00F08580492B91
:1005D00000F0F9804A2B00F01D814B2B00F0448184
:1005E0004C2B00F0AE814F2B00F0C081502B00F05F
:1005F000FB81512B00F02F82522B00F05884532B9B
:1006000000F03E84542B00F03084552B00F016840B
:10061000562B00F00884572B00F0EE83582B00F087
:10062000DB83592B00F0C8835A2B00F0B8835B2B77
:1006300000F05D835C2B00F04E835D2B00F039836E
:100640005E2B00F01F835F2B00F00983602B00F00E
:10065000FA82612B00F0E182622B00F0C882632BEA
:1006600000F06983642B00F06083652B00F05183F8
:10067000662B00F04883672B00F06983682B00F03D
:100680006083692B7FF46FAF029804F03BF902F0AE
:1006900013FE77E703F0AEF80146434805F0DEF8B5
:1006A00070E7029B1B78412B69D0422B7FF45BAF34
:1006B00002F034FE0146374805F0D0F862E702F058
:1006C00015FE0146384805F0C9F85BE7FFF7CAFD9B
:1006D00058E703F0DDF955E7029B1B78412B00F04A
:1006E000FF80422B7FF43FAF02F046FE01462948CF
:1006F00005F0B4F846E7029804F004F904460398BC
:1007000004F000F90146E0B289B203F03FFA39E79C
:10071000029B1B78412B65D0422B7FF424AF02F063
:1007200011FE01461B4805F099F82BE7029804F0EA
:10073000E9F880B203F0B6F924E7029B1B78412B5D
:1007400000F08C80422B7FF40EAF02F009FE0146D0
:10075000104805F083F815E7029804F0D3F8044632
:10076000039804F0CFF80146A0B2C9B203F0BAF979
:1007700008E703F0BDF905E703F0E4F902E70398A1
:1007800004F0C0F802F0BEFDFCE600BFEC0900205A
:1007900094F1000024F2000084F1000044EE000017
:1007A00098F10000140000206CF10000029804F0A1
:1007B000A9F80446039804F0A5F80146E0B2C9B2CE
:1007C00003F0DAF9DEE6029B1B78412B00F0C680CD
:1007D000422B7FF4C8AE02F0E3FD0146B04805F0BD
:1007E0003DF8CFE6039804F08DF802F09FFDC9E6CE
:1007F000029804F087F80546039804F083F804464D
:10080000049804F07FF80246A1B2E8B292B203F075
:10081000C7F9B7E6029B1B78412B69D0422B00F049
:10082000C880432B7FF49FAE02F004FEAAE6029834
:1008300004F068F80546039804F064F80646049846
:1008400004F060F80446059804F05CF80346B1B281
:10085000E8B2A2B2DBB203F0ADF993E6039804F07C
:1008600051F802F077FD8DE6029B1B78412B00F0DA
:10087000CF80422B7FF486AE039B1B78412B00F088
:100880006D81422B00F06381432B00F05981442B92
:100890007FF469AE02F058FE0146814804F0DEFFA5
:1008A00070E6029804F02EF80546039804F02AF842
:1008B0000446049804F026F80246A1B2E8B292B2C7
:1008C00003F0ACF95EE6029804F01CF804460398C5
:1008D00004F018F80146E0B2C9B203F079F951E624
:1008E00000220398114605F0A7FC02F03FFD49E6FF
:1008F000039B1B78412B00F01D81432B00F01481DA
:10090000442B00F00B81452B00F00281462B7FF435
:100910002AAE00220498114605F08EFC02F0D0FDAC
:1009200030E603F08FF92DE6029803F0EBFF044662
:10093000039803F0E7FF0146E0B2C9B203F078F98B
:1009400020E6029B1B78412B00F09980422B6DD052
:10095000442B7FF408AE02F045FE13E60022039814
:10096000114605F069FC02F00DFD0BE6029B1B78B9
:10097000412B00F09980422B7FF4F5AD039B1B784F
:10098000412B00F0A480422B00F0B882432B00F0F2
:10099000AD82442B00F01781452B00F00D81462BD2
:1009A0007FF4E1AD02F0E2FE01463D4804F056FF5F
:1009B000E8E5039B1B78412B00F0F780422B00F009
:1009C000ED80432B00F0E380442B00F0D980452BD1
:1009D00000F00081462B7FF4C6AD02F07DFD01469C
:1009E000304804F03BFFCDE5029B1B78412B00F023
:1009F000BC80422B7FF4B7AD039B1B78412B7FF467
:100A0000B2AD02F0C7FE0146254804F027FFB9E564
:100A1000039B1B78422B00F0E480432B7FF4A3ADB3
:100A2000049803F06FFF02F07BFDABE5039B1B789E
:100A3000412B00F05382422B00F04882432B00F000
:100A40003D82442B7FF48FAD02F0FAFD014614483D
:100A500004F004FF96E5029B1B78412B00F08F8188
:100A6000422B40F08081039B1B78412B7FF47BADB0
:100A700002F0A4FE01460A4804F0F0FE82E5039B62
:100A80001B78412B00F04982432B00F03F82442B1E
:100A90007FF469AD049803F035FF02F0C5FD71E500
:100AA00024F2000074F10000039B1B78422B29D034
:100AB000432B21D0442B17D0452B0FD0462B7FF44E
:100AC00052AD049803F01EFF02F044FE5AE502F016
:100AD000BFFD0146C64804F0C1FE53E5049803F08B
:100AE00011FF02F023FE4DE500220498114605F0A7
:100AF000A3FB02F005FE45E5049803F003FF02F0B6
:100B0000D7FD3FE5049803F0FDFE02F0A9FD39E5AD
:100B1000049803F0F7FE02F0BFFC33E5049803F0FD
:100B2000F1FE02F0A5FC2DE5049803F0EBFE02F0C7
:100B30008BFC27E5049803F0E5FE02F03DFC21E57F
:100B400002F0FAFC0146AB4804F088FE1AE502F018
:100B5000DFFC0146A74804F081FE13E502F0C4FC67
:100B60000146A44804F07AFE0CE5039B1B78412B58
:100B70007FF4F9AC049803F0C5FE02F0FFFD01E537
:100B800002F082FC01469B4804F068FEFAE402F0A1
:100B900067FC0146974804F061FEF3E402F042FC72
:100BA0000146944804F05AFEECE402F035FC01469C
:100BB000904804F053FEE5E402F0C4FD01468D4880
:100BC00004F04CFEDEE402F0A9FD0146884804F082
:100BD00045FED7E402F06CFC0146864804F03EFE78
:100BE000D0E4049803F08EFE02F086FCCAE402987A
:100BF00003F088FE0446039803F084FE054604983B
:100C000003F080FE0646059803F07CFE324603465C
:100C10002946204601F042FCB4E4029803F072FE3B
:100C20000446039803F06EFE0546049803F06AFE3E
:100C30000646059803F066FE3246034629462046DE
:100C400001F064FB9EE4029803F05CFE0446039806
:100C500003F058FE0146204601F040FB92E4029862
:100C600003F050FE0446039803F04CFE00220546B4
:100C70001146049805F0E0FA29460246204601F0A4
:100C80000FFB7FE4029803F03DFE0446039803F057
:100C900039FE002205461146049805F0CDFA294692
:100CA0000246204600F008FE0146524804F0D6FDF8
:100CB00068E4029803F026FE0022044611460398D9
:100CC00005F0BAFA0146204600F0BAFD0146484850
:100CD00004F0C4FD56E4029803F014FE04460398A1
:100CE00003F010FE0146204600F0A0FD4AE4029801
:100CF00003F008FE0446039803F004FE0146204674
:100D000000F0CEFE3EE4029803F0FCFD01F0DAFDB7
:100D100038E4029803F0F6FD0446039803F0F2FD70
:100D20000146204601F0C2FD2CE4029803F0EAFDE2
:100D300001F010FD26E4029803F0E4FD01F0D6FC7A
:100D400020E4029803F0DEFD02F07EF91AE4029836
:100D500003F0D8FD0446039803F0D4FD0146204675
:100D600001F0C0FD0EE4452B15D0462B7FF4FBAB04
:100D700002F038FD01461F4804F070FD02E4039BB9
:100D80001B78412B7FF4EFAB049803F0BBFD02F01E
:100D900009FDFFF7F7BB02F019FDFFF7F3BB02985F
:100DA00003F0B0FD0446039803F0ACFD0146204675
:100DB00000F0A8FCFFF7E6BBDDE902301D7803F088
:100DC000A1FD0446049803F09DFD214602462846F5
:100DD00000F05EFCFFF7D6BBDDE902301C7803F0C3
:100DE00091FD0146204600F093FBFFF7CBBB00BF0F
:100DF0007CF1000024F20000029803F083FD044619
:100E0000039803F07FFD0546049803F07BFD06463A
:100E1000059803F077FD324603462946204600F048
:100E200069FBFFF7AFBBDDE902301C7803F06AFD18
:100E30000146204600F09EFAFFF7A4BB029803F09B
:100E400061FD0446039803F05DFD0546049803F038
:100E500059FD0646059803F055FD324603462946DE
:100E6000204600F079FAFFF78DBBDDE902301C78EF
:100E700003F048FD0146204600F0AEF9FFF782BBC3
:100E8000029803F03FFD0446039803F03BFD05463E
:100E9000049803F037FD0646059803F033FD32460B
:100EA00003462946204600F089F9FFF76BBB0298FC
:100EB00003F028FD00F048F9FFF764BB02F0AEFB39
:100EC0000146194804F0CAFCFFF75CBB02F084FB42
:100ED0000146154804F0C2FCFFF754BB02F074FB56
:100EE0000146114804F0BAFCFFF74CBB02F0F6FBD8
:100EF00001460D4804F0B2FCFFF744BB02F0C6FB0C
:100F00000146094804F0AAFCFFF73CBB049803F033
:100F1000F9FC02F079FBFFF735BB049803F0F2FC13
:100F200002F018FBFFF72EBB24F2000038B50A4888
:100F30000A4C03F09BF80848256C03F079F8236C01
:100F40006055E25C0A2A03D00AB10133236438BD3C
:100F5000BDE83840FFF7AABA00600040EC09002065
:100F600008B5064804F0E8FC1022054B04201A607E
:100F7000C3F8802102F0C6FFFEE700BFA4F1000025
:100F800000E100E008B502F0A1FF0A2004F07EFCB9
:100F90000449054804F062FC0A2004F077FCFFF7DE
:100FA000DFFF00BFC8F10000D8F100000000000022
:100FB00070B5194C8AB002F0D3F925682B7F012B4C
:100FC00011D0432601962D8B4D234122134902A8AF
:100FD000009504F0E1FE02A86168FFF719F92368A3
:100FE000588B02F031FA002002F0CCF9002002F018
:100FF00067FA012002F0E0F902F01CFA002002F08A
:10100000DBF90122236800201A7702F07BF90AB08D
:10101000BDE8704002F01CBB0400002010F200008C
:10102000F0B5224C054626688BB0337F032B23D0C6
:1010300043270197768A4D230096422641221C4978
:1010400002A804F0A9FE616802A8FFF7E1F8019682
:1010500026684D23368A4122154902A8009604F0DD
:101060009BFE616802A8FFF7D3F82368988A02F014
:10107000CBFA002002F0D8FA012002F06BFA2846E1
:1010800002F080F92368DB8A3BB1002502F0AAFA5E
:1010900023680135DB8A9D42F8D3002002F05AFA1A
:1010A000032223681A770BB0F0BD00BF04000020B4
:1010B00010F20000F0B5224C054626688BB0337F55
:1010C000042B23D04327019776894D23009642268F
:1010D00041221C4902A804F05FFE616802A8FFF7E4
:1010E00097F8019626684D2336894122154902A8B2
:1010F000009604F051FE616802A8FFF789F82368A2
:10110000988902F081FA012002F08EFA012002F0A3
:1011100021FA284602F036F92368DB893BB1002525
:1011200002F060FA23680135DB899D42F8D3002084
:1011300002F010FA042223681A770BB0F0BD00BF4A
:101140000400002010F2000070B58AB0044602F0DE
:1011500001F900224126174D2B681A772344587F46
:1011600002F0A6FA2B68234493F83D0102F078FAC6
:101170002B6803EB4403B3F85E0202F0C1FA04F5F6
:10118000F3442B680C34019603EB4404E4884723B2
:10119000B4F5FA7F28BF4FF4FA744222064902A838
:1011A000009404F0F9FD696802A8FFF731F80AB06D
:1011B00070BD00BF0400002010F2000010B4054C08
:1011C0002468E3800023237720806180A28010BC04
:1011D000704700BF040000202DE9F0435B4D04463A
:1011E0002B680E461A7F8BB0022A23D04322422757
:1011F00001925B8841225649009302A84D2304F0D6
:10120000CBFD696802A8FFF703F801972F684D230B
:101210003F8841224E4902A8009704F0BDFD69684D
:1012200002A8FEF7F5FF2B68988802F0EDF901207F
:1012300002F0FAF9012002F08DF9412C23D0422C62
:101240000CD0432C6CD0442C2DD0002002F082F91D
:1012500002222B681A770BB0BDE8F083360206F540
:101260008077304602F08EF82B68DB883BB1002493
:1012700002F0B8F92B680134DB88A342F8D80136B4
:10128000B742EED1E1E7304602F07CF82B68DB880C
:10129000002BDAD0002402F0A5F92B680134DB889A
:1012A000A342F8D8D1E7DFF8AC905B2004F0EEFA67
:1012B000D9F800304FF48077986803F035FC4FF090
:1012C00000084FEA0826304602F05CF82B68DB88FD
:1012D0003BB1002402F086F92B680134DB88A3427D
:1012E000F8D80136B742EED118F00F0F0FD008F141
:1012F0000108B8F5807F07F58077E2D15D2004F022
:10130000C5FAD9F80030986803F00EFC9DE73E203E
:1013100004F0BCFAD9F80030986803F005FCE6E761
:1013200006F58037304602F02DF82B68DB883BB19C
:10133000002402F057F92B680134DB88A342F8D867
:1013400006F58076B742EDD17FE700BF04000020AC
:1013500010F200001400002010B4054C2468E38152
:101360000023237720816181A28110BC704700BFD8
:10137000040000202DE9F0435B4D04462B680E4627
:101380001A7F8BB0042A23D04322422701925B8923
:1013900041225649009302A84D2304F0FDFC6968E0
:1013A00002A8FEF735FF01972F684D233F894122A0
:1013B0004E4902A8009704F0EFFC696802A8FEF706
:1013C00027FF2B68988902F01FF9012002F02CF901
:1013D000012002F0BFF8412C23D0422C0CD0432C2A
:1013E0006CD0442C2DD0002002F0B4F804222B68DD
:1013F0001A770BB0BDE8F083360206F580773046E9
:1014000001F0C0FF2B68DB893BB1002402F0EAF851
:101410002B680134DB89A342F8D80136B742EED1FC
:10142000E1E7304601F0AEFF2B68DB89002BDAD014
:10143000002402F0D7F82B680134DB89A342F8D8E6
:10144000D1E7DFF8AC905B2004F020FAD9F8003047
:101450004FF48077986803F067FB4FF000084FEA7D
:101460000826304601F08EFF2B68DB893BB1002453
:1014700002F0B8F82B680134DB89A342F8D80136B2
:10148000B742EED118F00F0F0FD008F10108B8F5F0
:10149000807F07F58077E2D15D2004F0F7F9D9F875
:1014A0000030986803F040FB9DE73E2004F0EEF921
:1014B000D9F80030986803F037FBE6E706F5803787
:1014C000304601F05FFF2B68DB893BB1002402F05E
:1014D00089F82B680134DB89A342F8D806F58076B9
:1014E000B742EDD17FE700BF0400002010F20000FA
:1014F0001400002010B4054C2468E38200232377F5
:1015000020826182A28210BC704700BF04000020CC
:101510002DE9F0435B4D04462B680E461A7F8BB0D5
:10152000032A23D04322422701925B8A4122564953
:10153000009302A84D2304F02FFC696802A8FEF76F
:1015400067FE01972F684D233F8A41224E4902A82A
:10155000009704F021FC696802A8FEF759FE2B6889
:10156000988A02F051F8002002F05EF8012001F0A4
:10157000F1FF412C23D0422C0CD0432C6CD0442CB6
:101580002DD0002001F0E6FF03222B681A770BB064
:10159000BDE8F083360206F58077304601F0F2FEB2
:1015A0002B68DB8A3BB1002402F01CF82B68013465
:1015B000DB8AA342F8D80136B742EED1E1E73046E4
:1015C00001F0E0FE2B68DB8A002BDAD0002402F069
:1015D00009F82B680134DB8AA342F8D8D1E7DFF899
:1015E000AC905B2004F052F9D9F800304FF48077CA
:1015F000986803F099FA4FF000084FEA0826304641
:1016000001F0C0FE2B68DB8A3BB1002401F0EAFF49
:101610002B680134DB8AA342F8D80136B742EED1F9
:1016200018F00F0F0FD008F10108B8F5807F07F50B
:101630008077E2D15D2004F029F9D9F8003098686C
:1016400003F072FA9DE73E2004F020F9D9F800304B
:10165000986803F069FAE6E706F58037304601F04E
:1016600091FE2B68DB8A3BB1002401F0BBFF2B68A5
:101670000134DB8AA342F8D806F58076B742EDD173
:101680007FE700BF0400002010F2000014000020DB
:101690002DE9F047174632B305460E460024DFF821
:1016A0005480DFF854A0DFF8549002E00134BC42CB
:1016B00019D031462846FFF75DFE31462846FFF730
:1016C00027FF08FB04F3B3F1333FEFD821463A4636
:1016D000504604F0C3F8D9F800300134986803F09C
:1016E00023FABC42E5D13A463946BDE8F047044802
:1016F00004F0B4B8CDCCCCCC20F200001400002013
:1017000028F200002DE9F04F11F0010B0C4683B0D8
:1017100020F0E00540F0858014F0020A7CD114F03E
:10172000040974D114F008086CD114F0100764D1C6
:1017300014F020065CD114F04003019353D114F04F
:10174000800448D1BBF1000F3ED0BAF1000F33D076
:10175000B9F1000F28D0B8F1000F1ED097B1BEB17B
:10176000019B1BB144B103B0BDE8F08F05F1C0008F
:10177000FFF756FC002CF6D105F1E00003B0BDE800
:10178000F04F4DE405F18000FFF74AFC002EE7D151
:1017900005F1A000FFF744FCE2E705F16000FFF768
:1017A0003FFC002FDBD1EDE705F14000FFF738FCEF
:1017B000B8F1000FD2D1F0E705F12000FFF730FCBF
:1017C000B9F1000FC7D1EFE72846FFF729FCBAF1BE
:1017D000000FBDD1F0E705F1E000FFF76BFCBBF1B6
:1017E000000FB2D1F0E705F1C000FFF763FCA6E7F8
:1017F00005F1A000FFF75EFC9DE705F18000FFF713
:1018000059FC95E705F16000FFF754FC8DE705F101
:101810004000FFF74FFC85E705F12000FFF74AFC89
:101820007DE72846FFF746FC76E700BF0022034B22
:101830001B68188359831A77704700BF0400002083
:1018400070B51B4E8AB004460D4601F089FD336821
:101850001A7F012A11D0432201921B8B4122154984
:10186000009302A84D2304F097FA02A87168FEF7CE
:10187000CFFC3368588B01F0E7FD204601F082FD74
:10188000284601F01DFE012001F096FD01F0D2FD79
:10189000002001F091FD01223368C4F342101A7751
:1018A00001F030FD0AB0BDE8704001F0D1BE00BFCC
:1018B0000400002010F200002DE9F04F89B0164618
:1018C000044601F04DFD314605462046FFF7B8FFBE
:1018D000002E00F0E0800024731E01341E40E4B2AC
:1018E000FAD1B42100266D4B05FB01F11B6804EB16
:1018F00084002B4493F89E34A4F1040A0493A31F9C
:101900000393E31F0593A4F108030693A4F10903CD
:10191000079301EB8003CDE9016353464FF05A0C66
:10192000A4F10309CA4699460CFB05F5671EA4F10C
:10193000020BA4F10508304601F0E4FC01F088FE3A
:1019400042F69E01554B029A1B6803EB020E3EF8CD
:101950000110884240F293807A1C75D041F24C4EBF
:1019600007EBC70129442144714403EB4101C988B5
:10197000814280F08680BBF1FF3F65D00BEBCB014D
:1019800029442144714403EB4101C98888427AD932
:10199000BAF1FF3F58D00AEBCA01294421447144EF
:1019A00003EB4101C98888426FD9B9F1FF3F4BD0A1
:1019B00009EBC90129442144714403EB4101C98861
:1019C000884264D9B8F1FF3F3ED008EBC8012944F2
:1019D0002144714403EB4101C988884259D9039AD3
:1019E000511C31D002EBC20129442144714403EB64
:1019F0004101C98888422FD9059A511C24D002EB95
:101A0000C20129442144714403EB4101C988884241
:101A100022D9069A511C17D002EBC2012944214455
:101A2000714403EB4101C988884215D9079A511CBA
:101A30000AD002EBC20129442144714403EB410C5A
:101A4000BCF80610814207D20136082E7FF473AF2E
:101A5000019809B0BDE8F08F1146049B012B04D01A
:101A6000019BB1400B440193EEE7072EF8D1019B97
:101A7000A3EBC1130193019809B0BDE8F08F214693
:101A8000EBE73946E9E75946E7E75146E5E74946D6
:101A9000E3E74146E1E7344623E700BF04000020C6
:101AA0002DE9F04F4FF0030906460C4620F0E00503
:101AB00089B005F580782F4638462037FFF7B0FA11
:101AC000B845F9D1012200213046FFF7F5FE20B1DB
:101AD00009F1FF3919F0FF09EDD105F1200005F1F9
:101AE000800C0290CDF804C005F1400005F1A00C77
:101AF0000390CDF814C005F1600005F1C00C14F09E
:101B0000010F04F0020704F0040804F0080904F0CF
:101B1000100A04F0200204F0400104F08003069053
:101B2000CDF810C005F1E00B4DD123BB002940F0EA
:101B3000A2810325002A40F027822346834644469B
:101B4000B0464E469946002F78D1002C70D1002E19
:101B500064D1BAF1000F67D1012200214046FFF79E
:101B6000ABFE484505F1FF3502D015F0FF05EAD17F
:101B700009B0BDE8F08F0325002940F0FC80002A61
:101B800040F0A58023464446B0464E469946002F75
:101B900064D1002C5CD1002E56D1BAF1000F40F078
:101BA00030825846FFF786FA012200214046FFF7AF
:101BB00083FE484505F1FF35DAD015F0FF05D7D093
:101BC000002FE6D04AE0002B40F08A814FF0030B53
:101BD000002940F0AB80002A40F09F802346444615
:101BE000A8464D46B14656469A464046FFF762FA29
:101BF000002F43D1002C3BD1002D35D1002E40F0D9
:101C0000F881012200214846FFF756FE82450BF17C
:101C1000FF3BADD01BF0FF0BE7D1A9E75846FFF71C
:101C200049FABAF1000F97D00198FFF743FA93E70A
:101C30000398FFF73FFA002E8BD0EFE70298FFF7EB
:101C400039FA002C83D0F3E70698FFF733FAA4E7BC
:101C50000398FFF72FFA002E9FD0F5E70298FFF7C1
:101C600029FA002C97D0F3E70698FFF723FAC5E787
:101C70000398FFF71FFA002DC0D0F5E70298FFF791
:101C800019FA002CB8D0F3E70298FFF713FAB8F16D
:101C9000000F40F0FE81B9F1000F40F0F681BAF17B
:101CA000000F40F080820598FFF704FA5846FFF7CE
:101CB00001FA012200213046FFF7FEFDA04205F1A6
:101CC000FF353FF455AF15F0FF053FF451AF002F3E
:101CD000DAD1B8F1000FDED0DBE10298FFF7EAF9C4
:101CE000B8F1000F40F0C981B9F1000F40F0C18197
:101CF000BAF1000F40F05F820598FFF7DBF901228F
:101D000000213046FFF7D8FD84420BF1FF3B3FF442
:101D10002FAF1BF0FF0B3FF42BAF2846FFF7CAF99C
:101D2000002FDAD1B8F1000FDED0A6E1002A6DD184
:101D30002846FFF7BFF9002F40F09381B8F1000F5C
:101D400040F08781B9F1000F40F07F81BAF1000FB8
:101D500040F02D820498FFF7ADF9012200213046B2
:101D6000FFF7AAFD84420BF1FF3B3FF401AF1BF0EC
:101D7000FF0BDDD1FCE6002A77D1002F40F05D811A
:101D8000B8F1000F40F05181B9F1000F40F04981E6
:101D9000BAF1000F40F003820498FFF78BF9584620
:101DA000FFF788F9012200213046FFF785FDA042A8
:101DB00005F1FF353FF4DCAE15F0FF053FF4D8AE7A
:101DC000002FDDD039E10298FFF774F9B8F1000F68
:101DD00040F06F81B9F1000F40F06381BAF1000F5C
:101DE00040F097810598FFF765F90498FFF762F9CD
:101DF000012200213046FFF75FFD84420BF1FF3BDB
:101E00003FF4B6AE1BF0FF0B3FF4B2AE2846FFF72F
:101E100051F9002FD7D1B8F1000FDBD049E102987A
:101E2000FFF748F9B8F1000F40F06B81B9F1000FEE
:101E300040F05F81BAF1000F40F057810598FFF73D
:101E400039F90498FFF736F95846FFF733F90122BC
:101E500000213046FFF730FDA04205F1FF353FF489
:101E600087AE15F0FF053FF483AE002FD7D1B8F150
:101E7000000FDBD045E1002A40F04F812346E346C6
:101E800044460325B0464E4699461FBBE4B9BEB949
:101E9000BAF1000F40F0B1805846FFF70BF901226C
:101EA00000214046FFF708FD484505F1FF353FF4A6
:101EB0005FAE15F0FF053FF45BAE002FE6D009E002
:101EC0000698FFF7F7F8E3E70398FFF7F3F8002E1B
:101ED000DED0F5E70298FFF7EDF8002CD7D0F3E756
:101EE0000323002940F06B81CDF810809846002A2A
:101EF00044D12846FFF7DEF8002F40F04C81049BC8
:101F0000002B40F08680B9F1000F7ED1BAF1000FAE
:101F100040F03D815846FFF7CDF8012200213046C0
:101F2000FFF7CAFC844208F1FF383FF421AE18F0F5
:101F3000FF08DED11CE60298FFF7BCF8049B002BDB
:101F400040F0CB80B9F1000F40F0BF80BAF1000F34
:101F500040F0B7800598FFF7ADF85846FFF7AAF8AC
:101F6000012200213046FFF7A7FC844208F1FF3828
:101F70003FF4FEAD18F0FF083FF4FAAD2846FFF736
:101F800099F8002FDAD0D6E72346DDF814B044469E
:101F9000B0464E46994617BBDCB9B6B9BAF1000F48
:101FA00023D15846FFF786F8012200214046FFF76B
:101FB00083FC814505F1FF353FF4DAAD15F0FF05EF
:101FC0003FF4D6AD002FE7D009E00698FFF772F88E
:101FD000E4E70398FFF76EF8002EDFD0F5E70298EC
:101FE000FFF768F8002CD8D0F3E70198FFF762F804
:101FF000D7E70198FFF75EF803E60198FFF75AF874
:102000004AE70198FFF756F8CBE50698FFF752F834
:102010007CE70398FFF74EF8B9F1000F3FF476AF75
:10202000F3E70698FFF746F8B2E60398FFF742F8A1
:10203000B9F1000F3FF4ACAEF3E70298FFF73AF8BE
:10204000B8F1000F3FF4A0AEEFE70698FFF732F8C3
:102050007CE60398FFF72EF8B9F1000F3FF476AE57
:10206000F3E70298FFF726F8B8F1000F3FF46AAEE5
:10207000EFE70698FFF71EF83AE60398FFF71AF81D
:10208000B9F1000F3FF434AEF3E70698FFF712F80A
:1020900005E60398FFF70EF8B9F1000F3FF4FFAD26
:1020A000F3E70698FFF706F8BAF1000F3FF49AAE8F
:1020B0002FE00398FEF7FEFFB9F1000F3FF48EAE5C
:1020C000EFE70198FEF7F6FF44E70698FEF7F2FF08
:1020D000BAF1000F3FF43EAFF3E70398FEF7EAFFD3
:1020E000B9F1000F3FF432AFEFE70198FEF7E2FFDE
:1020F000A4E60698FEF7DEFFBAF1000F3FF49EAEAD
:10210000F3E70398FEF7D6FFB9F1000F3FF492AE64
:10211000EFE70198FEF7CEFF64E60325DDF814B083
:1021200057BBB8F1000F20D1B9F1000F19D1BAF1A6
:10213000000F28D15846FEF7BDFF0498FEF7BAFFFE
:10214000012200213046FFF7B7FBA04205F1FF3521
:102150003FF40EAD15F0FF053FF40AAD002FE0D0BF
:102160000AE00698FEF7A6FFE1E70398FEF7A2FF54
:10217000B9F1000FDBD0F4E70298FEF79BFFB8F14E
:10218000000FD1D0F1E70198FEF794FFD2E7019854
:10219000FEF790FFBEE60298FEF78CFFAFE60198CF
:1021A000FEF788FFF8E50198FEF784FF7BE50198CC
:1021B000FEF780FFCEE50198FEF77CFF9CE5AABB09
:1021C000CDF8148098462846FEF774FF57BB059B50
:1021D000EBB9B9F1000F16D1BAF1000F1ED1049876
:1021E000FEF768FF5846FEF765FF012200213046E2
:1021F000FFF762FB844208F1FF383FF4B9AC18F0F6
:10220000FF08E0D1B4E40698FEF754FFE4E7039832
:10221000FEF750FFB9F1000FDED0F4E70198FEF7AA
:1022200049FFDCE70298FEF745FFD0E7CDF81C80B8
:1022300098462846FEF73EFF6FBB079B03BBB9F1EC
:10224000000F19D1BAF1000F21D10598FEF732FF26
:102250000498FEF72FFF5846FEF72CFF01220021BD
:102260003046FFF729FBA04208F1FF383FF480AC6D
:1022700018F0FF08DDD17BE40698FEF71BFFE1E7CD
:102280000398FEF717FFB9F1000FDBD0F4E70198D0
:10229000FEF710FFD9E70298FEF70CFFCDE700BF6D
:1022A00070B50D461446064601F05AF802460A4B30
:1022B00030461B68991803EB42034E7781F83D5175
:1022C000A3F85E4201F0F4F9284601F0C9F920466E
:1022D000BDE8704001F014BA0400002038B50C4687
:1022E000054601F03DF80246074B28461B6813449B
:1022F00083F89E5483F8BE4501F0FEF82046BDE801
:10230000384001F00DB900BF040000202DE9F04F66
:102310008FB08A46CDE90332044601F021F8034626
:1023200047F6FF7820460593FEF70EFF012001F0E7
:1023300011FADFF85CB1404601F0E2F94222402791
:102340004FF0FF3547235946DFF84891CDF800A0FC
:1023500006A8019203F020FDD9F8041006A801EBAD
:1023600081018900FDF754FF08E0204601F0A0F943
:10237000FEF71EFE4045264647D02546EC197B1B3E
:1023800004EBD474012B4FEA6404EEDC26464FF0D4
:10239000420A039A049B3E4900939B1A03934025EB
:1023A00047234FF0FF388B46524606A8CDF804A0CD
:1023B00003F0F2FCD9F8041006A801EB81018900B2
:1023C000FDF726FF08E0204601F04AF9FEF7F0FD90
:1023D000274600283BD0254605EB0804A5EB08035B
:1023E00004EBD474012B4FEA6404ECDC2746002094
:1023F00001F0B0F90598FEF7A7FE3A4631462648A7
:1024000003F02CFA0FB0BDE8F08F4227039B3A4649
:1024100053445946009306A84723019703F0BCFC98
:10242000D9F8041006A801EB81018900FDF7F0FE40
:10243000FEF7BEFD47F6FE739842A8D93A460197CB
:10244000472327465946CDF800A006A882E7039BFC
:10245000422259460093CDF804A0472306A803F072
:102460009BFCD9F8041006A801EB81018900FDF757
:10247000CFFEFEF79DFD0028B9D1049BA046009336
:10248000422247235946CDF804A006A890E700BF92
:1024900010F200000400002030F200002DE9F04F9F
:1024A0009146DFF83C821D46C0EB00135B00D8F874
:1024B0000070064603F2DE608FB01E220C463844E0
:1024C000FF210393CDF8089003F05AF900F048FF7C
:1024D000034630460593FEF737FE012001F03AF936
:1024E0004222472301927F49009406A803F054FC3E
:1024F000D8F8041006A801EB81018900FDF788FED9
:102500005B2003F0C3F9784B1B68986802F00CFB62
:102510004B464C45A3EB0407B7FBF5F780F0CA80A8
:1025200047F6FF730026DFF8BCA13F0904930EE0D5
:10253000B6FBF5F3B3FBF7F207FB1233002B00F009
:10254000AB80029B2C44A3422E4440F2B380422233
:10255000472301925146009406A803F01DFCD8F8C9
:10256000041006A84900FDF753FEFEF721FD83463F
:10257000FEF71EFD8146FEF71BFDCB45D8D18345F6
:10258000D6D1049B9B45D3D28BEA0302D00705D555
:10259000D8F80010039B1944A1F8DE46910705D531
:1025A000D8F80010039B1944A1F8E046530705D55D
:1025B000D8F80010039B1944A1F8E246100705D58E
:1025C000D8F80010039B1944A1F8E446D10605D5BC
:1025D000D8F80010039B1944A1F8E646930605D5E8
:1025E000D8F80010039B1944A1F8E846500605D519
:1025F000D8F80010039B1944A1F8EA46110605D546
:10260000D8F80010039B1944A1F8EC46D30505D572
:10261000D8F80010039B1944A1F8EE46900505D5A3
:10262000D8F80010039B1944A1F8F046510505D5D0
:10263000D8F80010039B1944A1F8F246130505D5FC
:10264000D8F80010039B1944A1F8F446D00405D52E
:10265000D8F80010039B1944A1F8F646910405D55B
:10266000D8F80010039B1944A1F8F846530405D587
:10267000D8F80020039B1A44A2F8FA46BBF1000FD9
:1026800018D0B6FBF5F3B3FBF7F207FB1233CDF826
:1026900010B0002B7FF455AF3E2003F0F7F8124B3B
:1026A0002C441B682E44986802F03EFA029BA34219
:1026B0003FF64DAF5D2003F0E9F80B4B1B689868BF
:1026C00002F032FA002001F045F80598FEF73CFDD3
:1026D0000022D8F800301A770FB0BDE8F08F00BFA5
:1026E0000400002010F2000014000020F8B5054698
:1026F000134803F021F9134803F01EF9104803F0C2
:102700001BF91148002403F0A9F8104F104EC5EB37
:1027100005153B682A1903EB42033046B3F9DE1670
:10272000013403F09BF80F2CF3D10A2003F0AEF82C
:10273000034803F001F9BDE8F8400A2003F0A6B809
:1027400038F20000A4F2000010F3000004000020A2
:1027500024F300002DE9F04F95B0064600F000FE8E
:10276000034630460393FEF7EFFC4A4840F60A243E
:1027700041F20A3503F0E0F8204604F58074FEF7D4
:102780004FFCAC42F8D1444803F0D6F841F60A4574
:10279000204604F58074FEF78DFCAC42F8D140F27F
:1027A0004C4600274FF00509B3463C4CDFF8F0A03B
:1027B0004FF041084FEA5B054723422251460095FE
:1027C00004A8CDF8048003F0E7FA616804A801EBDF
:1027D00081018900FDF71CFD00F0C2FD23681A7F0E
:1027E000012A11D0432101911B8B4246514600938F
:1027F0000CA84D2303F0D0FA0CA86168FDF708FD82
:102800002368588B00F020FE41F20A3000F0BAFD38
:1028100040F2FF1000F054FE012000F0CDFD00F06A
:1028200009FE002000F0C8FD4FF0010223680020DF
:102830001A7700F067FD00F00BFF804632463946FC
:1028400043461848CDF8009003F008F8B8F5804FDB
:1028500008D2EB1B012B13D92E464FF0050907EBCD
:10286000060BA5E704D0731B012B09D92F46F4E70B
:10287000F31B012B09F1FF3902D9B9F1000F97D1F0
:102880000398FEF761FC2946074802F0E7FF15B000
:10289000BDE8F08F2CF300003CF3000004000020A2
:1028A00010F200004CF3000024F20000044B00F58D
:1028B000F3401B680C3003EB4000C180704700BF41
:1028C000040000200346054A03F5F34312680C3365
:1028D00002EB43030248D98802F0C0BF0400002085
:1028E00024F200002DE9F04FA74EFBB019ACA04632
:1028F00005460F460FCE0FC40FCE0FC43368A34852
:10290000236003F019F8B8F80240B8F8003004F575
:10291000106606EB032604EB0324204604F58074BE
:10292000FEF77EFBB442F8D108F1040822AB9845CB
:10293000E9D1974803F000F80DF16408B8F80030C9
:10294000B8F8024003F1090204F5905606EB03269D
:1029500004EB0224204604F58074FEF7ABFBB4427E
:10296000F8D108F1040822AB9845E7D1002F00F018
:102970005E83FBB21A460E935A23934603FB05F37C
:102980000F93A2F10903DBB205934FF0010A002770
:102990005946804802F062FF0AFA0BFA19AB069317
:1029A0000AF1FF3A00263446069BB3F80090B3F8CC
:1029B0000280059B5146F01AC0B2484408EB002043
:1029C000FEF73EFF04EBC404E3197AAA02EB4303CB
:1029D00023F8B40C80B236AAC0F50040151901F0F6
:1029E000EDFC0BF09BFF66A3D3E9002301F07AFE18
:1029F00001F060FF0136F4B2A345E855D9D2069B39
:102A000001370433092F0693CCD1634802F026FF27
:102A1000624C204602F022FF7B1E13F0FF07F8D124
:102A20000A2002F033FF5E4802F018FF5D4D19AC3A
:102A30006288284634F8041B02F010FF22AB9C4247
:102A4000F6D10A2002F022FF534802F007FF0924C2
:102A5000524D284602F002FF631E13F0FF04F8D126
:102A60000A2002F013FF4FFA8BF3002B099321DBAE
:102A70001F4603EBC30651AADFF82C914B4D02EB26
:102A80004606A3EB0B0839464846B246123E02F012
:102A9000E5FE344634F8021F284602F0DFFEA24568
:102AA000F8D10A2002F0F2FEB84507F1FF3301D059
:102AB0001F46E8E7384802F0D1FE0924374D284682
:102AC00002F0CCFE631E13F0FF04F8D10A2002F0DE
:102AD000DDFE314802F0C2FE0924304D284602F0E6
:102AE000BDFE631E13F0FF04F8D10A2002F0CEFEF3
:102AF0002B4802F0B3FE2B4D19AC6288284634F8FF
:102B0000041B02F0ABFE22AB9C42F6D10A2002F07D
:102B1000BDFE214802F0A2FE0924204D284602F005
:102B20009DFE631E13F0FF04F8D10A2002F0AEFEF2
:102B3000099B002B3EDB1F4603EBC3060DF1E102B0
:102B4000DFF864901A4D1644A3EB0B08394648464B
:102B5000B246093E02F082FE344614F8011B2846B4
:102B600002F07CFEA245F8D10A2002F08FFEB845A3
:102B700007F1FF331ED01F46E8E700BFAFF3008028
:102B8000EF39FAFE422EE63F60F8000088F30000BD
:102B9000A8F30000C4F300000CF5000010F50000DD
:102BA000E8F30000FCF300000CF4000018F400004F
:102BB00028F40000984802F051FE0924974D284659
:102BC000013C02F04BFE14F0FF04F8D10A2002F0A1
:102BD0005DFE099F002FC0F21A8222AA02EBC70AEB
:102BE00010AA0BF101063A44A7EB0B0510A90A92B3
:102BF00048199046FF2132460C96CDF82CA002F0E1
:102C0000BFFD13A932464819214602F0B9FD22AB97
:102C1000A7EB0B00214603EBC000F20002F0B0FD71
:102C20000DF14B01CB19A3EB0B0307EBC706089380
:102C300036AB1E44FB000D9313ABB946DF19ADE074
:102C4000254688F80040002C40F0AD80002200238B
:102C50007078A04284BF38700446CDE9062301F0A5
:102C60009DFBDDE9062301F05DFA02460B46B078D4
:102C7000CDE90623A8423CBF054688F80000A042E3
:102C800084BF3870044601F089FBDDE9062301F0BA
:102C900049FA02460B46F078CDE90623A8423CBF2C
:102CA000054688F80000A04284BF3870044601F051
:102CB00075FBDDE9062301F035FA02460B46307953
:102CC000CDE90623A8423CBF054688F80000A04293
:102CD00084BF3870044601F061FBDDE9062301F092
:102CE00021FA02460B467079CDE90623A8423CBF83
:102CF000054688F80000A04284BF3870044601F001
:102D00004DFBDDE9062301F00DFA02460B46B079D2
:102D1000CDE90623A8423CBF054688F80000A04242
:102D200084BF3870044601F039FBDDE9062301F069
:102D3000F9F902460B46F079CDE90623A8423CBFDB
:102D4000054688F80000A04284BF3870044601F0B0
:102D500025FBDDE9062301F0E5F902460B46307A52
:102D6000CDE90623A84238BF88F80000A0428CBFF6
:102D700007F8010907F1FF3701F010FBDDE9062331
:102D800001F0D0F9264B002201F0ACFC6AE8020108
:102D9000089B093EBB4208F1FF3815D03478FF2C60
:102DA0007FF44EAF254620463C7001F0F7FA002232
:102DB000002301F0B7F9024670780B46A0423CBFF1
:102DC000054688F8000044E7099B0DF1580A0AEB14
:102DD00003061C46B0460A9D0B9F5BB214E02B789D
:102DE00012F8012C9A4214D3D7E9000101F062FDD8
:102DF00088F80000013C63B2002BA7F1080708F136
:102E0000FF3805F1FF350DDB13AA2244002BE6D174
:102E10002B780AF80430EDE70CF5000010F50000FF
:102E200000002240844802F087FD844C844802F070
:102E300083FD814802F080FDDDE90A5713AB13F8EA
:102E400009304946009315F801392046019316F8D8
:102E5000013909F1FF39029377E8022302F0FEFC01
:102E600019F0800FEAD0744802F066FD099A0D9BB4
:102E70001AF80240134441F24C4001220F9E71495E
:102E8000334409685B440BF1FF35034402FA04F450
:102E9000C4F500446DB201EB4303DC806C1C00F010
:102EA000A98005EBC5031AF8054033445B4403448D
:102EB00002FA04F401EB4303C4F50044DC80ABF1F7
:102EC000020464B2631C00F0958004EBC403334435
:102ED0001AF804405B44034402FA04F4C4F50044C5
:102EE00001EB4303DC80ABF1030464B2671C00F028
:102EF000818004EBC40333441AF804405B44034468
:102F000002FA04F401EB4303C4F50044DC80ABF1A6
:102F1000040464B2631C6DD004EBC40333441AF898
:102F200004405B44034402FA04F4C4F5004401EB9A
:102F30004303DC80ABF1050464B2671C5AD004EB98
:102F4000C40333441AF804405B44034402FA04F413
:102F500001EB4303C4F50044DC80ABF1060464B22A
:102F6000631C47D004EBC40333441AF804405B44A9
:102F7000034402FA04F4C4F5004401EB4303DC808B
:102F8000ABF1070464B2671C34D004EBC4033344D0
:102F90001AF804405B44034402FA04F401EB4303CF
:102FA000C4F50044DC80ABF108035BB25C1C21D0AB
:102FB00003EBC3041AF8033002FA03F3A2195A44CC
:102FC000024401EB4202C3F50043D380059AFF2A75
:102FD00053B20FD001221AF8030003EBC3033344AA
:102FE0005B4403F5A2530C33824001EB4303C2F56B
:102FF0000042DA80059B9DF830B00133DBB20593C7
:103000000E9B5B45BFF4C1AC7BB0BDE8F08F0BF10C
:10301000010309480C9302F08FFC094802F08CFC74
:10302000054802F089FC044802F086FCE2E7092327
:103030000E9301231A469FE454F4000030F400007C
:1030400088F40000040000202DE9F84380461F4862
:1030500002F072FC1E4802F06FFC1C4802F06CFC8F
:103060005A23092503FB08F8DFF868901A4F294610
:10307000484605EBC506012402F0F0FB464404E097
:10308000013402F0EBFB0A2C11D0331903F5A253E3
:10309000A542124803F10C03F2DC3A68104802EB37
:1030A0004303D988013402F0D9FB0A2CEDD1204624
:1030B000013D02F0EBFB6B1CD9D1044802F03CFC53
:1030C0002046BDE8F84302F0E1BB00BFBCF40000BD
:1030D00020F5000084F500000400002090F50000B9
:1030E0001CF400002DE9F04182B000F039F980466F
:1030F0005A4802F021FC5A485A4D02F01DFC5A4829
:1031000002F01AFC564802F017FC2E685748B388A4
:1031100072883188F6880024009602F09FFB2E68A2
:103120005348B38972893189F689524F009602F06B
:1031300095FB2E685048B38A728A318AF68A0096C7
:1031400002F08CFB4D492A684D48538B128B00913D
:1031500002F084FB424802F0EFFB0A2002F096FBEB
:103160004146484802F07AFB474802F0E5FB4748F1
:1031700002F0E2FB444802F0DFFB2968444801EB1F
:10318000480303F57042B2F81E63414491F83D21B3
:10319000B3F85E32497F009602F060FB3A4802F0D5
:1031A000CBFB0A2002F072FB41463A4802F056FB84
:1031B000394802F0C1FB394802F0BEFB364802F044
:1031C000BBFB2B683648434493F8BE2593F89E1406
:1031D00002F044FB304802F0AFFBC8EB08160A20AF
:1031E00002F054FB2A68730003F2DE6341461A447E
:1031F0002C4802F033FB2C4802F09EFB2B4802F0D7
:103200009BFB294802F098FB294802F027FB2B681A
:10321000321903EB42033846B3F9DE16013402F0EB
:103220001DFB0F2CF3D10A2002F030FB1E4802F0E8
:1032300083FB0A2002F02AFBB42442F69E0304FB1F
:1032400008332A6841461A441A4802F007FB4046F0
:1032500002B0BDE8F041FFF7F7BE00BF9CF50000EB
:10326000C0F5000004000020FCF5000038F6000066
:1032700060F6000024F3000088F60000B0F60000BD
:10328000B8F60000E0F600000CF7000034F700008C
:103290005CF700007CF70000A8F70000C0F7000012
:1032A000D8F70000ECF7000038F20000A4F20000AC
:1032B00010F3000020F8000038B50446FDF7FAFED0
:1032C00001212046FEF7BCFA05462046FDF7A8FE80
:1032D00001212046FEF7B4FA2946BDE838400246EF
:1032E000014802F0BBBA00BF54F80000014BD86A95
:1032F000704700BF00200140014B5868704700BF75
:1033000000200140044AC003536800F4603023F4F5
:10331000603318435060704700200140024B5868EA
:10332000C0F3C230704700BF00200140044A80044F
:10333000536800F47C0023F47C031843506070470A
:1033400000200140024B5868C0F38540704700BF21
:1033500000200140014B5862704700BF002001402F
:10336000014B586A704700BF00200140014B986232
:10337000704700BF00200140014B986A704700BFB2
:1033800000200140054902020B681B0C1B0443EAA4
:10339000102390B203430B60704700BF0020014030
:1033A000044B18681B68C0B2C3F3072303EB00206B
:1033B000704700BF00200140164B10B51A68044644
:1033C000510007D4134A136823F0004343EAC4733F
:1033D000136010BD1A68002A05DB0E4A136823F03B
:1033E00080431360EEE71A68520005D4094A136857
:1033F00023F000431360F0E71B68002B05DB054A50
:10340000136823F080431360F0E70020FFF7D4FF38
:10341000F5E700BF00200140014B1868C00F70475E
:1034200000200140024B5868C0F38070704700BF15
:1034300000200140034A136883F400231360BFF3A4
:103440006F8F704700200140044A0004936800F425
:103450007F0023F47F0318439060704700200140F1
:10346000024B9868C0F30740704700BF002001403E
:10347000044A0006536800F0807023F080731843FC
:103480005060704700200140024B5868C0F3006054
:10349000704700BF00200140044A0004136800F494
:1034A000E02023F4E023184310607047002001401F
:1034B000024B1868C0F30240704700BF0020014073
:1034C000044A136823F0FF5323F4801343EA0053A4
:1034D0001360704700200140024B1868C0F3085089
:1034E000704700BF00200140024B5868C0F3407095
:1034F000704700BF00200140044A0003536800F4F5
:10350000805023F4805318435060704700200140DE
:10351000024B5868C0F30030704700BF00200140E4
:10352000044A8002536800F4406023F44063184367
:103530005060704700200140024B5868C0F3812062
:10354000704700BF00200140014BD868704700BFA2
:10355000002001401B4B10B51A680446002A09DB05
:10356000184AA407136804F0804423F080431C43E6
:10357000146010BD1A68510005D4124A136823F074
:1035800000431360ECE71A68002A05DB0D4A136854
:1035900023F080431360F0E71A68520005D4094A0B
:1035A000136823F000431360F0E71B68002B05DB72
:1035B000044A136823F080431360F0E70020FFF70C
:1035C000FBFEF5E700200140024B1868C0F3807055
:1035D000704700BF00200140014B5868C00F704782
:1035E00000200140074A136843F000531360BFF303
:1035F0006F8F136823F0005313605368002BFCDABD
:10360000704700BF00200140034A80B293681B0C42
:103610001B0403439360704700200140014B9868EE
:1036200080B2704700200140044A4002536800F411
:10363000007023F40073184350607047002001406D
:10364000024B5868C0F34020704700BF0020014083
:10365000024B186AC0F30E00704700BF0020014003
:10366000C04301220849C0F3C20C4B6902FA0CF2B4
:1036700023F47F73013A00F0070023F0030300EB0B
:10368000C20018434861704700200140074B5A6947
:1036900012F47E7FC2F3C60302F0070003D05B087A
:1036A00000F10800FBD1C0F13F007047002001404D
:1036B000C04301220849C0F3C20C8B6902FA0CF224
:1036C00023F47F73013A00F0070023F0030300EBBB
:1036D000C20018438861704700200140074B9A6977
:1036E00012F47E7FC2F3C60302F0070003D05B082A
:1036F00000F10800FBD1C0F13F00704700200140FD
:10370000054AC0F30E00D36923F4FF4323F07F037F
:103710000343D361704700BF00200140024BD869CA
:10372000C0F30E00704700BF00200140044AC001F2
:103730005368C0B223F0800318435060704700BF45
:1037400000200140024B5868C0F3C010704700BF12
:1037500000200140044A0002536800F4807023F402
:10376000807318435060704700200140024B586836
:10377000C0F30020704700BF00200140044A40060B
:10378000536800F0007023F00073184350607047D6
:1037900000200140024B5868C0F34060704700BFF2
:1037A00000200140044A8003536800F4804023F461
:1037B000804318435060704700200140024B586816
:1037C000C0F38030704700BF00200140044B5A68AE
:1037D00082F400525A605A6882F400525A6070476C
:1037E00000200140024B5868C0F3C060704700BF22
:1037F00000200140014B9869704700BF0030014034
:10380000024A136843F000431360704700300140E0
:10381000024A136823F000431360704700300140F0
:1038200030B4164D2C68C0B924F000542C60CBB9CC
:10383000124B1C6824F47F5C2CF03F0C4CEA010115
:1038400019600E4B023043F820201A6882F0804243
:103850001A60BFF36F8F30BC704744F000542C6087
:10386000002BE5D0054CC1F57F5123683F3123F48F
:103870007F5323F03F030B432360E2E70030014016
:1038800010B4144C236898B923F000532360A2B9F4
:10389000104A136823F47F5323F03F031943116048
:1038A000BFF36F8F0B4B043053F8200010BC7047F0
:1038B00043F000532360002AEAD0064AC1F57F5145
:1038C00013683F3123F47F5323F03F031943116002
:1038D000E6E700BF00300140074A136840B923F40F
:1038E00000131360044A136883F080631360704709
:1038F00043F400131360F5E700300140074A1368F2
:1039000040B923F400131360044A136883F0805312
:103910001360704743F400131360F5E70030014073
:103920009AB9134A136823F47F5323F03F031943D2
:1039300011600F4A1368B8B923F4001313600C4ADE
:10394000136883F0006313607047094AC1F57F5123
:1039500013683F3123F47F5323F03F031943116071
:10396000034A13680028E7D043F400131360E6E726
:1039700000300140034A53681B0C1B04034353608F
:10398000704700BF00300140024A136843F00073E3
:103990001360704700300140024A136823F000733F
:1039A0001360704700300140034A536823F06043BE
:1039B00043EA407353607047003001400C4A61B9DC
:1039C000136823F47F5323F03F0318431060084A21
:1039D000136883F40003136070471368C0F57F50C9
:1039E00023F47F533F3023F03F0318431060EEE78A
:1039F000003001409AB9104A136823F47F5323F032
:103A00003F03184310600C4A136823F4E01343EAA1
:103A100081411160136883F0807313607047064A18
:103A2000C0F57F5013683F3023F47F5323F03F03EA
:103A300018431060E7E700BF0030014030B4134C7A
:103A4000256825F4E01C4CEA81412160216821F4BD
:103A5000703141EA823121606BB9236823F47F53CE
:103A600023F03F0318432060084A30BC136883F0FA
:103A70008073136070472368C0F57F5023F47F5331
:103A800023F03F033F3018432060EDE70030014052
:103A9000034B00211A88586802FB02F201F070BE45
:103AA000700A002010B50E4C02462388834207D1CD
:103AB00060680021BDE8104002FB02F201F060BE28
:103AC00000FB00F16068228001F03EFF2288606008
:103AD0000021BDE8104002FB02F201F051BE00BF20
:103AE000700A0020014B5B6819547047700A00206F
:103AF0002DE9F041114D2A88EAB14FF00008104F2E
:103B00007AB100241FFA88F66B68A1B206FB023373
:103B10003846595C01F0A2FE01342A88A3B29A42C9
:103B2000F2D80A2001F0B2FE08F101082A881FFA33
:103B300088F39A42E4D8BDE8F08100BF700A002003
:103B400084F80000022000220A4B03F5F07103F80C
:103B5000120C43F80E2C43F80A2C03F8062C23F819
:103B6000042C03F8022C1A601A7118338B42EED120
:103B7000704700BF8A0A0020034B00EB400003EBB4
:103B8000C0000172704700BF700A0020034B00EBB9
:103B9000400003EBC0004181704700BF700A002065
:103BA000034B00EB400003EBC0008181C2817047F2
:103BB000700A002010B4054C00EB400004EBC0007C
:103BC000037510BC01824282704700BF700A00205A
:103BD00000B5114A00EB400302EBC30393F808E081
:103BE0001976BEF1010F4FEA400C06D05B8A6044A3
:103BF00002EBC002D3825DF804FB93F814E09989CC
:103C00001B8A6044CB1A734493FBFEF302EBC002A1
:103C10009BB2D3825DF804FB700A0020034B00EBDB
:103C2000400003EBC000418382837047700A00208C
:103C3000034B00EB400003EBC0008177704700BFEF
:103C4000700A00202DE9F04F1D488BB001F074FE82
:103C50001C4801F071FE1A4801F06EFE00251A4C56
:103C6000DFF8689022E0A17DA38A608A94F810B002
:103C7000B4F80EA094F80C80B4F80AE0B4F808C0C8
:103C8000E788A688CDE90831079029466388484629
:103C9000CDE905ABCDE903E8CDE9017C009601351E
:103CA00001F0DCFD142D04F1180402D02278022A60
:103CB000D9D103480BB0BDE8F04F01F03DBE00BFC5
:103CC0008CF80000F8F80000780A002064F9000081
:103CD00000232DE9F04F4FF0010B89B0DFF8C8A1A8
:103CE00005930693009007939AF80030022B00F09A
:103CF000BB80069B002B78D16C4B5B680693059BC1
:103D000013B1184601F088FA0421BAF80E0000F049
:103D100001FE0346BAF802000593FDF715FABAF85A
:103D20000430002B36D0009B5D1E00230393069BBE
:103D3000EDB25A1E1D4401925F424FF00009039BF1
:103D40001B020493009B93B14FF0000801990BFAFA
:103D500009F411F8013F234204D0CB190BFA03F305
:103D600048EA0308A942F4D1B8F1000F1FD109F1C4
:103D70000109B9F1080FE5D1009A03990198BAF841
:103D80000430114410448B42039115440190A7EB79
:103D90000207D2D89AF81030002B44D1079B0AF1C1
:103DA000180A0133142B07939ED113235EE0BAF84F
:103DB0000E100029DBD00024059B02954546DDF856
:103DC00010801E1F002104EB08002A46FDF774FD39
:103DD00056F8043FBAF80E10013400FA09F0034413
:103DE000A1423360EED8029DC1E71A462F4B5B68B3
:103DF000934202D0104601F00FFABAF804400121B4
:103E0000204600F087FD0690002C3FF478AF05991E
:103E1000421E0B4601EB840053F8041B984202F843
:103E2000011FF9D16BE7BAF80E100029B6D0059B37
:103E300000251A4603EB810152F8043B002B0EDBF0
:103E4000BAF81240BAF8140093FBF4F39142034419
:103E500042F8043CA2D052F8043B002BF0DA914225
:103E600042F8045CE8D199E7079B013B0F4A03EB5A
:103E7000430302EBC303DA8A92B100234FF00041FF
:103E80001846059C54F823505C1C8D42E6B2C4BF12
:103E900018462946B242E3B2F3D809B0BDE8F08F24
:103EA000104609B0BDE8F08F780A0020700A0020A3
:103EB00070B516463AB14C1EA51814F8010F00F063
:103EC00021F8AC42F9D1304670BD00BF0B20302143
:103ED000084B10B41B68084C084AA4FB03435B0C56
:103EE0001361074B90609961D36810BC43F00203E3
:103EF000D36070470C000020C5B3A2910060004061
:103F000000100140024A5368DB07FCD41060704780
:103F100000600040034A53689B07FCD51068C0B29C
:103F2000704700BF00600040034A5368DB07FCD4C1
:103F300004231360FEE700BF00600040036843F005
:103F400008030360704700BF036823F008030360A1
:103F5000704700BF036843F001030360704700BF70
:103F6000036823F001030360704700BF4068704797
:103F70004160704780687047816070470123C3606B
:103F8000704700BFC06870470023036041608160D4
:103F900012B109230360704701230360704700BF1B
:103FA000002303604160816012B10D2303607047FC
:103FB00005230360704700BF0023036041608160F8
:103FC00012B10B230360704703230360704700BFE7
:103FD000003A18BF01220BB142F00202009B0BB164
:103FE00042F00402019B0BB142F00802029B0BB1AC
:103FF00042F01002039B0BB142F0200200238360C9
:1040000001618260436813F00C0F14BF012000208F
:10401000704700BF4068C0F340007047406800F040
:10402000010070474368DB07FCD40160704700BFA4
:1040300043689B07FCD50068C0B270474068C0F376
:10404000810070470C2343604068C0F381007047D3
:1040500000697047C06800F001007047C068C0F395
:10406000400070470123C360704700BF0223C36054
:10407000704700BF01617047416170470069704738
:1040800081617047C16170478069704701238B402F
:104090008363806B704700BF01238B400362006A1B
:1040A000704700BF01238B404362406A704700BFE6
:1040B000012303FA01F1C16201637047012303FA8E
:1040C00001F1816201637047012303FA01F1C162CA
:1040D00041637047012303FA01F181624163704734
:1040E000D3B2C2F3072203F5807302F5007240F8E1
:1040F000231040F822107047014B024A1A607047A3
:104100000C0000200024F400014B024A1A607047A2
:104110000C0000200024F40081F0004102E000BF08
:1041200083F0004330B54FEA41044FEA430594EA77
:10413000050F08BF90EA020F1FBF54EA000C55EAB2
:10414000020C7FEA645C7FEA655C00F0E2804FEA83
:104150005454D4EB5555B8BF6D420CDD2C4480EA65
:10416000020281EA030382EA000083EA010180EA95
:10417000020281EA0303362D88BF30BD11F0004FE3
:104180004FEA01314FF4801C4CEA113102D0404219
:1041900061EB410113F0004F4FEA03334CEA133354
:1041A00002D0524263EB430394EA050F00F0A7806C
:1041B000A4F10104D5F1200E0DDB02FA0EFC22FA67
:1041C00005F2801841F1000103FA0EF2801843FA5B
:1041D00005F359410EE0A5F120050EF1200E012A4C
:1041E00003FA0EFC28BF4CF0020C43FA05F3C0188A
:1041F00051EBE37101F0004507D54FF0000EDCF103
:10420000000C7EEB00006EEB0101B1F5801F1BD3AB
:10421000B1F5001F0CD349085FEA30004FEA3C0CAF
:1042200004F101044FEA445212F5800F80F09A80A5
:10423000BCF1004F08BF5FEA500C50F1000041EBA9
:10424000045141EA050130BD5FEA4C0C404141EBAD
:104250000101013C28BFB1F5801FE9D291F0000FA8
:1042600004BF01460020B1FA81F308BF2033A3F157
:104270000B03B3F120020CDA0C3208DD02F1140C4E
:10428000C2F10C0201FA0CF021FA02F10CE002F189
:104290001402D8BFC2F1200C01FA02F120FA0CFC82
:1042A000DCBF41EA0C019040E41AA2BF01EB0451CB
:1042B000294330BD6FEA04041F3C1CDA0C340EDCC9
:1042C00004F11404C4F1200220FA04F001FA02F30C
:1042D00040EA030021FA04F345EA030130BDC4F1CA
:1042E0000C04C4F1200220FA02F001FA04F340EABF
:1042F0000300294630BD21FA04F0294630BD94F070
:10430000000F83F4801306BF81F480110134013D56
:104310004EE77FEA645C18BF7FEA655C29D094EAC7
:10432000050F08BF90EA020F05D054EA000C04BF45
:104330001946104630BD91EA030F1EBF0021002030
:1043400030BD5FEA545C05D14000494128BF41F0CF
:10435000004130BD14F580043CBF01F5801130BD33
:1043600001F0004545F0FE4141F470014FF00000BE
:1043700030BD7FEA645C1ABF194610467FEA655C6F
:104380001CBF0B46024650EA013406BF52EA033511
:1043900091EA030F41F4002130BD00BF90F0000FFF
:1043A00004BF0021704730B54FF4806404F132043B
:1043B0004FF000054FF0000150E700BF90F0000FF4
:1043C00004BF0021704730B54FF4806404F132041B
:1043D00010F0004548BF40424FF000013EE700BFEB
:1043E00042004FEAE2014FEA31014FEA02701FBF7B
:1043F00012F07F4393F07F4F81F06051704732F0AD
:104400007F4208BF704793F07F4F04BF41F4002103
:10441000704730B54FF4607401F0004521F0004161
:104420001CE700BF50EA010208BF704730B54FF0EB
:1044300000050AE050EA010208BF704730B511F0EC
:10444000004502D5404261EB41014FF4806404F124
:1044500032045FEA915C3FF4D8AE4FF003025FEAAA
:10446000DC0C18BF03325FEADC0C18BF033202EB2E
:10447000DC02C2F1200300FA03FC20FA02F001FA88
:1044800003FE40EA0E0021FA02F11444BDE600BF2B
:1044900070B54FF0FF0C4CF4E06C1CEA11541DBFDA
:1044A0001CEA135594EA0C0F95EA0C0F00F0DEF8A5
:1044B0002C4481EA030621EA4C5123EA4C5350EA8A
:1044C000013518BF52EA033541F4801143F48013DB
:1044D00038D0A0FB02CE4FF00005E1FB02E506F06C
:1044E0000042E0FB03E54FF00006E1FB03569CF0C1
:1044F000000F18BF4EF0010EA4F1FF04B6F5007FC7
:1045000064F5407404D25FEA4E0E6D4146EB060638
:1045100042EAC62141EA55514FEAC52040EA5E50C1
:104520004FEACE2EB4F1FD0C88BFBCF5E06F1ED86B
:10453000BEF1004F08BF5FEA500E50F1000041EBA2
:10454000045170BD06F0004646EA010140EA02004F
:1045500081EA0301B4EB5C04C2BFD4EB0C0541EA71
:10456000045170BD41F480114FF0000E013C00F386
:10457000AB8014F1360FDEBF002001F0004170BDAA
:10458000C4F10004203C35DA0C341BDC04F11404C3
:10459000C4F1200500FA05F320FA04F001FA05F24F
:1045A00040EA020001F0004221F0004110EBD3701C
:1045B00021FA04F642EB06015EEA430E08BF20EA48
:1045C000D37070BDC4F10C04C4F1200500FA04F3EB
:1045D00020FA05F001FA04F240EA020001F000417D
:1045E00010EBD37041F100015EEA430E08BF20EAF0
:1045F000D37070BDC4F1200500FA05F24EEA020E38
:1046000020FA04F301FA05F243EA020321FA04F066
:1046100001F0004121FA04F220EA020000EBD3701D
:104620005EEA430E08BF20EAD37070BD94F0000F1D
:104630000FD101F00046400041EB010111F4801F51
:1046400008BF013CF7D041EA060195F0000F18BF02
:10465000704703F00046520043EB030313F4801F3E
:1046600008BF013DF7D043EA0603704794EA0C0FF8
:104670000CEA135518BF95EA0C0F0CD050EA41060E
:1046800018BF52EA4306D1D181EA030101F000418B
:104690004FF0000070BD50EA410606BF10461946B3
:1046A00052EA430619D094EA0C0F02D150EA0136BF
:1046B00013D195EA0C0F05D152EA03361CBF104600
:1046C00019460AD181EA030101F0004141F0FE419F
:1046D00041F470014FF0000070BD41F0FE4141F423
:1046E000780170BD70B54FF0FF0C4CF4E06C1CEA23
:1046F00011541DBF1CEA135594EA0C0F95EA0C0FD8
:1047000000F0A7F8A4EB050481EA030E52EA033592
:104710004FEA013100F088804FEA03334FF08055B3
:1047200045EA131343EA12634FEA022245EA1115E0
:1047300045EA10654FEA00260EF000419D4208BF91
:10474000964244F1FD0404F5407402D25B084FEA3E
:104750003202B61A65EB03055B084FEA32024FF4EA
:1047600080104FF4002CB6EB020E75EB030E22BF47
:10477000B61A754640EA0C005B084FEA3202B6EB07
:10478000020E75EB030E22BFB61A754640EA5C00B6
:104790005B084FEA3202B6EB020E75EB030E22BF46
:1047A000B61A754640EA9C005B084FEA3202B6EB47
:1047B000020E75EB030E22BFB61A754640EADC0006
:1047C00055EA060E18D04FEA051545EA16754FEA68
:1047D00006164FEAC30343EA52734FEAC2025FEA86
:1047E0001C1CC0D111F4801F0BD141EA00014FF015
:1047F00000004FF0004CB6E711F4801F04BF0143E6
:104800000020B4F1FD0C88BFBCF5E06F3FF6AFAE01
:10481000B5EB030C04BFB6EB020C5FEA500C50F191
:10482000000041EB045170BD0EF0004E4EEA113114
:1048300014EB5C04C2BFD4EB0C0541EA045170BD1B
:1048400041F480114FF0000E013C90E645EA060E5F
:104850008DE60CEA135594EA0C0F08BF95EA0C0F8D
:104860003FF43BAF94EA0C0F0AD150EA01347FF4D5
:1048700034AF95EA0C0F7FF425AF104619462CE7AC
:1048800095EA0C0F06D152EA03353FF4FDAE10460F
:10489000194622E750EA410618BF52EA43067FF460
:1048A000C5AE50EA41047FF40DAF52EA43057FF4F0
:1048B000EBAE12E74FEA410212F5001215D211D504
:1048C0006FF47873B3EB625212D94FEAC12343F00D
:1048D000004343EA505311F0004F23FA02F018BF8F
:1048E000404270474FF00000704750EA013005D158
:1048F00011F0004008BF6FF0004070474FF000001B
:10490000704700BF0A22002101F0D2BB0A23002217
:1049100001F0AABB03460A4602490868194600F09E
:1049200003B800BF1400002010B502FB01F100F035
:104930007BFC044668B150F8042C22F00302043AD0
:10494000242A18D8132A06D802460023C2E90033C5
:104950009360204610BD00231B2AC0E900330FD905
:10496000242AC0E9023311BF00F11002036100F1F3
:1049700018024361E9E7002100F002FF204610BD64
:1049800000F10802E1E700BF08B50021044605F088
:1049900039F8044B1868C36B03B1984720460AF0F6
:1049A00043FA00BFB8F90000B1F90C20F8B50C4685
:1049B0001107074643D4636842F40062002BA281CA
:1049C0005BDDA56A002D56D000233E683B6093B2A4
:1049D00012F4805255D101233846E169A847421CA0
:1049E00065D0A389A56A5B0705D56368C01A236BE8
:1049F0000BB1E36BC01A0246E16900233846A847B1
:104A0000411C40D13B68002B3DD01D2B01D0162B03
:104A100054D10022A38923F40063A3812369C4E94C
:104A20000032216B3E6031B304F14003994202D061
:104A3000384600F06DFA002318462363F8BD266956
:104A4000CEB193B29A0718BF0023256808BF6369E7
:104A50002660AD1BA3600CE02B463246D4F824C080
:104A60003846E169E047B0F1000CA5EB0C0566445F
:104A700016DD002DF0DC0020F8BDE36B002BA0DC80
:104A8000F9E7206DAFE70022B4F90C30626023F43F
:104A900000632269A381DB042260C2D52065C0E7E0
:104AA000A3894FF0FF3043F04003A381F8BD3B687A
:104AB000002B96D01D2B06D0162B04D0A38943F0D3
:104AC0004003A381F8BD00203E60F8BD38B505461F
:104AD0000C4608B1836BA3B1B4F90C00B8B1636E96
:104AE000DB0701D4810515D528462146FFF75CFF79
:104AF000636E0546DA0702D4A3899B050ED52846C6
:104B000038BD00F08FF8B4F90C000028E7D1054655
:104B1000284638BDA06D00F06DFBE5E7A06D00F004
:104B200071FB284638BD00BF38B548B3184B044662
:104B30001D680DB1AB6BBBB1B4F90C0088B1636EED
:104B4000DB0701D4810513D528462146FFF72CFF4A
:104B5000636E0546DA0702D4A3899B050CD5284667
:104B600038BD0546284638BD284600F05BF8E3E727
:104B7000A06D00F03FFBE7E7A06D00F043FBEEE720
:104B8000044B05491868BDE8384000F0E1BA00BFA1
:104B900014000020B8F90000CD4A0000014900F0DF
:104BA000D7BA00BF01AB000008B5436EDA0702D4E4
:104BB00083899B0501D5002008BD806D00F01AFB9C
:104BC000002008BD08B5436EDA0702D483899B052F
:104BD00001D5002008BD806D00F014FB002008BD49
:104BE000682270B54D1E02FB05F50E4605F17401F5
:104BF00000F01AFB044640B100210C30C4E901600A
:104C000005F16802216000F0BBFD204670BD00BFC9
:104C1000024B0349186800F09BBA00BFB8F90000C6
:104C200001AB00002DE9F0478246394800F0E2FA76
:104C3000DAF83840002C66D1042303223549DAF82B
:104C40000450CAF83C10DFF8D090DFF8D080344F21
:104C5000344E0AF53B71CAE9B921CAF8E04221464F
:104C6000EB600822C5E90044C5E904446C66AC6009
:104C7000AC6105F15C0000F083FDC5E90759C5E9A9
:104C80000987EE6205F1580000F0ACFADAF8085036
:104C9000254B2146EB600822C5E90044C5E90444E0
:104CA0006C66AC60AC6105F15C0000F069FDC5E9C3
:104CB0000759C5E90987EE6205F1580000F092FA3C
:104CC000DAF80C50194B2146EB600822C5E9004484
:104CD000C5E904446C66AC60AC6105F15C0000F0B1
:104CE0004FFD05F15800C5E90759C5E90A76C5F831
:104CF000248000F077FA01230548CAF83830BDE86F
:104D0000F04700F07FBA0248BDE8F04700F07ABAF9
:104D1000740C00209D4B0000DD5D0000055E00006E
:104D2000455E0000655E00000900010012000200FF
:104D30002DE9F04107462D4800F05CFA2C4B1E6827
:104D4000B36B93B34FF0040806F53876D6E9013417
:104D5000013B04D525E05A1C04F1680421D0B4F9C4
:104D60000C50013B002DF6D1224B04F15800E360BA
:104D7000656600F037FA1D4800F044FA082229461B
:104D8000C4E90155C4E904552560A56104F15C003E
:104D900000F0F6FCC4E90C55C4E911552046BDE805
:104DA000F08135682DB12E46D0E73046FFF73AFF47
:104DB000C8E74FF4D671384600F036FA044668B1B9
:104DC000056029460546C0F804800C304FF4D072C7
:104DD000A06000F0D5FC34602E46B7E7034834608D
:104DE00000F010FA0C233B60D8E700BF700C0020E5
:104DF000B8F900000100FFFF014800F0FBB900BF57
:104E0000700C0020014800F0FDB900BF700C0020BC
:104E1000014800F0EFB900BF740C0020014800F019
:104E2000F1B900BF740C002008B5054800F0E2F9A4
:104E3000044B05491868BDE8084000F069B900BF97
:104E4000700C002014000020A94B000008B5054B91
:104E50000549186800F05CF9BDE80840034800F017
:104E6000D1B900BF14000020C54B0000700C002019
:104E7000F8B50C46234F064600F0D4FCBB685D68CD
:104E8000C4F57E6325F003050F332B4423F47F63C1
:104E900023F00F03A3F58054B4F5805F07DB0021F6
:104EA000304600F049FFBB682B44984204D030469E
:104EB00000F0BEFC0020F8BD3046614200F03CFF2F
:104EC00001300DD0104ABB682D1B45F001055D6017
:104ED000136830461B1B136000F0AAFC0120F8BDCC
:104EE0000021304600F028FFBA68831A0F2BDEDD60
:104EF00043F001035360054B03491B68C01A086067
:104F0000D5E700BF400400207C0C002048080020AA
:104F100000295ED0F8B50C46064600F083FC54F834
:104F2000042C784FA4F1080522F001016818D7F885
:104F300008C04368844523F0030300F08780D2074C
:104F4000436034D454F8082C07F10804AD1A114416
:104F5000AA68A24268D000EB030CDCF804E0D5F8A4
:104F60000CC01EF0010FC2F80CC0CCF8082000F0F5
:104F7000918041F001036B600160B1F5007F31D297
:104F80004A09CB08012191407A68013311437960C5
:104F900007EBC30257F83310083AC5E9021247F885
:104FA0003350CD603046BDE8F84000F041BCC21837
:104FB0005268D2070ED4194407F108048368A3424B
:104FC00070D0C268DA60936041F001036B60695091
:104FD000D3E7704741F00103B1F5007F44F8043C8A
:104FE0000160CDD3B1F5206F4FEA512347D28B0931
:104FF00003F1390003F13802C300F818FB580838F0
:10500000984258D05A6822F003028A4202D99B681B
:105010009842F7D1D868C5E9023085603046DD6036
:10502000BDE8F84000F004BCC2185268D20763D44F
:105030000B44D0E90212CA60916043F001026A6039
:105040003046EB50BDE8F84000F0F2BB0B44D1070E
:1050500007D454F8082CAD1A1344D5E90212CA60DB
:10506000916043F001026A60274ABD6012689A426B
:1050700098D8264B30461968FFF7FAFE92E7142BB2
:105080000AD9542B1FD80B0B03F16F0003F16E02EA
:10509000C300B2E7194491E703F15C0003F15B023E
:1050A000C300AAE741F00103C7E90455C5E902447A
:1050B0006B60695076E70121921001FA02F279687B
:1050C0000A437A60A7E7B3F5AA7F06D8CB0B03F1B2
:1050D000780003F17702C3008FE740F25452934205
:1050E00006D88B0C03F17D0003F17C02C30084E73A
:1050F0004FF47E737E2280E741F001036B60016014
:1051000050E700BF400400204C080020AC0C0020F9
:105110002DE9F0410026884600F53877D7E901549B
:10512000013D0ED4A389013D012B06D9B4F90E30FF
:10513000013302D02046C04706436B1C04F16804CB
:10514000F0D13F68002FE9D13046BDE8F08100BFC3
:105150002DE9F8434FF000090746884600F53876F8
:10516000D6E90154013D10D4A389013D012B08D992
:10517000B4F90E30013304D021463846C04749EA1D
:1051800000096B1C04F16804EED13668002EE7D1EB
:105190004846BDE8F88300BF70B50D4E0D4D761B37
:1051A000B61006D0002455F8043B01349847A642B7
:1051B000F9D1094E094D09F039FE761BB61006D01B
:1051C000002455F8043B01349847A642F9D170BD3C
:1051D000C4090020C4090020CC090020C409002013
:1051E000704700BF704700BF704700BF704700BFE7
:1051F000704700BF704700BF012070470120704713
:10520000704700BF704700BF024B0146186800F0AE
:105210000BB800BF14000020024B01461868FFF7CE
:1052200077BE00BF140000202DE9F04F01F10B05FF
:10523000162D064683B025D8102900F2B88000F05C
:10524000F1FA102518224FF0020CB54F3A4453687A
:10525000A2F108018B4200F0B7805A68D96822F0A9
:1052600003021A449C683046E1608C60516803F187
:10527000080441F00101516000F0DAFA204603B061
:10528000BDE8F08F35F0070500F19180A94200F2EA
:105290008E8000F0C7FAB5F5FC7FC0F094816B0AF0
:1052A00000F08C80042B00F26A81AB0903F1390C09
:1052B00003F138044FEACC00994F3844436808386A
:1052C000984206D10CE0002980F22681DB689842E2
:1052D00006D05A6822F00302511B0F29F3DDA446C1
:1052E0003C69DFF840E274457AD0626822F003023C
:1052F000531B0F2B00F37681002BC7E904EE80F2DD
:105300006781B2F5007F80F019810121D30852092D
:105310000B4491407A6857F833000A4307EBC30106
:105320000839A060E1607A6047F83340C460012129
:105330004FEAAC039940914259D8114206D12CF062
:10534000030C490011420CF1040CFAD007EBCC0914
:1053500048466446D0F80C80404508D11CE1002B3B
:1053600080F22181D8F80C80404500F01581D8F8F2
:10537000042022F00302531B0F2BF0DD08EB050184
:1053800045F00105C8F804503046D8E90264F460DD
:10539000A66043F00104C7E904114C60C1E902EEC4
:1053A00048F8023000F044FA08F1080402E00C2347
:1053B00000243360204603B0BDE8F08F4FF4007046
:1053C0004FF0400C3F2477E7D3689A4208BF0CF1B6
:1053D000020C7FF442AF3C69DFF848E1744584D1A8
:1053E00001217A684FEAAC0399409142A5D9BC6883
:1053F000636823F003094D4503D8A9EB05030F2B80
:105400007ADCDFF824B1494BDBF800201B6801325D
:105410002B4404EB090A00F02F8103F580530F336E
:1054200023F47F6828F00F084146304600F084FCE2
:10543000411C024600F0EF80824500F2EA803C4BBE
:10544000196841440846196000F04981DBF80010F2
:10545000019301311BBFA2EB0A0A5044CBF8002094
:10546000186012F0070B00F01181CBF108010A441B
:10547000CBF5805190440831A1EB0801C1F30B0A30
:1054800051463046009200F057FC421CDDE90023F3
:1054900000F04B81801A00EB0A08196848F00100FF
:1054A0005144BC42BA601960506000F02481B9F1E7
:1054B0000F0F40F222814FF0050E6068A9F10C0C2D
:1054C0002CF0070C00F0010040EA0C006060BCF119
:1054D0000F0F04EB0C00C0E901EE00F22E81144620
:1054E0005068144B1A688A4238BF1960124B1A6808
:1054F0008A4238BF196090E0621943F0010345F019
:10550000010565603046BA600834536000F090F9D8
:10551000204603B0BDE8F08FD9681A44A2E600BF68
:10552000400400204804002048080020AC0C002063
:105530007C0C0020A40C0020A80C0020B2F5206FE9
:105540004FEA52235FD3142B00F2B18003F15C01C8
:10555000C9005B33781879580838884200F08F808A
:105560004B6823F00303934202D989688842F7D13C
:10557000C8687A68C4E902108460CC60D7E6142B4E
:1055800059D9542B00F29B802B0B03F16F0C03F1C4
:105590006E044FEACC008FE60134A30700F1080047
:1055A0007FF4D8AE53E0444642445368D8F80C1018
:1055B00043F00103536054F8083F3046D9608B60D4
:1055C00000F036F9F6E64FEAD50C05F108023CE6A4
:1055D00022445368304643F00103536000F028F939
:1055E0000834E7E6611945F00105656043F00105FF
:1055F000C7E904113046C1E902EE4D60A35000F046
:1056000017F90834D6E6930903F13901C900383394
:10561000A0E7BC425ED0BC68606820F00308454546
:10562000A8EB050302D80F2B3FF766AF304600F01A
:10563000FFF80024BEE603F15C0C03F15B044FEAC3
:10564000CC0039E659F808394B4540F095801CF0FC
:10565000030F0CF1FF3CF5D17B6823EA01037B606B
:10566000490099423FF6C3AE11B9C0E6490004347F
:105670001942FBD0A44669E603F11008D4E60122E2
:105680009B109A407B681A437A6073E702EB08012B
:105690004942C1F30B0A51463046009200F04CFBE0
:1056A000431CDDE900237FF4F5AEDA46F5E6542B22
:1056B00026D8130B03F16F01C9006E334AE7B3F527
:1056C000AA7F26D8EB0B03F1780C03F177044FEA9D
:1056D000CC00F1E5294B186840441860B6E6CAF3DF
:1056E0000B0CBCF1000F7FF4B1AEBC68C84448F0AD
:1056F00001006060F5E61446F3E60123536095E788
:10570000B3F5AA7F24D8D30B03F17801C90077330E
:1057100020E740F25452934224D8AB0C03F17D0CA5
:1057200003F17C044FEACC00C6E5ABF1080BD8448A
:105730004FF0000AA8EB0208AFE604F1080130467A
:105740000093FFF7E5FBBC68009B60681968C8E63A
:1057500040F254518B420BD8930C03F17D01C900E8
:105760007C33F7E64FF47E704FF07F0C7E24A3E588
:105770004FF47E717E23EDE67B6871E77C0C0020A0
:10578000830730B548D0541E002A3FD00346CAB222
:1057900001E0013C3AD303F8012B9D07F9D1032C1A
:1057A0002DD9CDB245EA05250F2C45EA054536D958
:1057B000A4F1100222F00F0C03F1200EE6444FEA90
:1057C000121C03F1100242E9045542E9025510325D
:1057D0007245F8D10CF1010214F00C0F03EB021228
:1057E00004F00F0C13D0ACF1040323F003030433D3
:1057F000134442F8045B9342FBD10CF003042CB138
:10580000CAB21C4403F8012B9C42FBD130BD644654
:105810001346002CF4D1F9E703461446BFE71A46B5
:10582000A446E0E70148FFF7E5BC00BF6C0C002090
:105830000148FFF7E7BC00BF6C0C00200EB400B5B8
:1058400082B003AB53F8042B8168019302F054FA41
:1058500002B05DF804EB03B0704700BF0FB400B5B1
:10586000074A83B004AB106853F8042B8168019396
:1058700002F042FA03B05DF804EB04B0704700BFD9
:1058800014000020826806F065BA00BF024B014692
:105890001868826806F05EBA1400002030B505462C
:1058A00089B008460C4600F0E1FA01210223214AA2
:1058B00004940692AA6B04AC0590084401940791E5
:1058C000AC680293039022B3636E13F0010FB4F936
:1058D0000C309AB201D1980525D5910406D4626E98
:1058E00043F4005322F40052A3816266284601AAC1
:1058F000214605F089F9636E002814BF4FF0FF358B
:105900000A25DA0702D4A3899B0506D5284609B0E3
:1059100030BD2846FFF786F9D6E7A06DFFF772FC89
:10592000284609B030BDA06DFFF764FCB4F90C3017
:105930009AB2D2E744EF0000024B01461868FFF725
:10594000ADBF00BF1400002003460A4602490868A4
:10595000194600F003B800BF140000202DE9F84FED
:105960001646002900F0988006F10B0580460C468B
:10597000FFF758FF162D5DD810252A46AE425ED897
:1059800054F8041CA4F1080921F00307974262DAD5
:10599000BC4B09EB0700D3F808C0844500F09780A2
:1059A000D0F804C02CF0010303445B68DB0768D423
:1059B0002CF0030C07EB0C03934247DACB0710D40F
:1059C00054F8083CA9EB030ADAF8043023F0030189
:1059D0008C44BC44944580F211817B18934280F240
:1059E000E88031464046FFF71FFC0646E0B154F818
:1059F000043CA0F1080223F001034B44934200F061
:105A0000D2803A1F242A00F2F580132A00F2AC80DB
:105A100003462246116819605168596092689A607D
:105A200021464046FFF774FA4046FFF701FF304633
:105A3000BDE8F88F25F00705002D2A469EDA0C23D5
:105A40000026C8F800303046BDE8F88F1F46D0E980
:105A50000223D3609A607B1B0F2B22D8D9F8043025
:105A600003F001033B43C9F804304F447B6843F023
:105A700001037B6026464046FFF7DAFE3046BDE86C
:105A8000F88FC907ADD454F8083CA9EB030ADAF83B
:105A9000041021F00301A0E71146BDE8F84FFFF71D
:105AA000C3BBD9F8041043F0010301F001012943FD
:105AB000C9F8041009EB05014B604F447B68404670
:105AC00043F0010308317B60FFF722FAD2E7DCF8EC
:105AD000040020F0030B07EB0B0C05F110008445CC
