:020000040021D9
:1000000000FC07207D010000C101000091030000F9
:10001000C5010000C7010000C90100000000000088
:10002000000000000000000000000000CB01000004
:10003000CD01000000000000CF010000D101000050
:10004000D3010000D5010000D7010000D901000054
:10005000DB010000DD010000DF010000E101000024
:10006000E3010000E5010000E701000000000000DE
:10007000E9010000EB010000ED010000EF010000CC
:10008000F1010000F3010000F5010000F70100009C
:10009000F9010000FB010000FD010000FF0100006C
:1000A0000102000003020000050200000702000038
:1000B000090200000B0200000D0200000F02000008
:1000C00010B5054C237833B9044B13B10448AFF392
:1000D00000800123237010BDC4090020000000002F
:1000E000008B000008B5034B1BB103490348AFF375
:1000F000008008BD00000000C8090020008B00003F
:10010000A3F5803A704700BF174B002B08BF134B75
:100110009D46FFF7F5FF00218B460F461348144A12
:10012000121A00F02FFA0E4B002B00D098470D4BFF
:10013000002B00D098470020002104000D000D483E
:10014000002802D00C4802F0E9F900F0F7F920008D
:10015000290000F035F900F0E1F900BF00000800C7
:10016000000000000000000000FC0720C40900207F
:10017000440A00201D250000ED3900000A490B4A01
:100180000B4B9B1A03DD043BC858D050FBDC0949DC
:10019000094A00209142BCBF41F8040BFAE7074826
:1001A0008047FFF7B1FF00000C8B0000000000202B
:1001B000C4090020C4090020440A00200D050000E5
:1001C000FEE7FEE7FEE7FEE7FEE7FEE7FEE7FEE707
:1001D000FEE7FEE7FEE7FEE7FEE7FEE7FEE7FEE7F7
:1001E000FEE7FEE7FEE7FEE7FEE7FEE7FEE7FEE7E7
:1001F000FEE7FEE7FEE7FEE7FEE7FEE7FEE7FEE7D7
:10020000FEE7FEE7FEE7FEE7FEE7FEE7FEE7FEE7C6
:10021000084BD3F8E02F252A09D9D3F8E02F292A53
:1002200005D8D3F8E40FB83818BF01207047012073
:10023000704700BF00F0014008B5074800F066FABB
:10024000BFF34F8F0549064BCA6802F4E0621343BF
:10025000CB60BFF34F8FFEE7B883000000ED00E0F6
:100260000400FA0538B5224C224800F04FFA2569FF
:100270002148294600F0E8F9012D24D01F4800F05C
:1002800045FA012323611C48216900F0DDF91C486F
:1002900000F03CFA0122164B9A609B68934204D00E
:1002A000184800F033FA00F01FF9114B1B69CBB965
:1002B0004FF040431448D3F8013000F027FABDE86E
:1002C000384000F011B90D4800F020FA256124698A
:1002D0000948214600F0B8F9002CD8D10B4800F0AD
:1002E00015FAD7E7064800F011FA00F0FDF8DFE74D
:1002F00000F00140E88300000084000098840000C2
:10030000188400004884000078840000AC84000059
:1003100038B5184C184800F0F9F9256917482946EE
:1003200000F092F9042D0FD0154800F0EFF90423E6
:1003300023611248216900F087F9124800F0E6F9BC
:10034000BDE8384000F0D0B80D4800F0DFF9256175
:1003500024690A48214600F077F9002CEDD10A48BB
:1003600000F0D4F9094800F0D1F9BDE8384000F0B8
:10037000BBB800BF00F00140E8830000008400002B
:100380009884000018840000E484000010850000B8
:1003900008B5084800F0BAF9074800F0B7F94FF07F
:1003A00040430648D3F8013000F0B0F9BDE80840FA
:1003B00000F09AB88086000098860000C086000091
:1003C00010B5224C00F062F8214800F09FF9D4F8F3
:1003D000E03F252B07D9D4F8E03F292B03D8D4F8E8
:1003E000E43FB82B06D01B4800F090F900F07CF8F1
:1003F000002010BD184800F089F92369D90710D4EE
:1004000023695A0715D423699B071AD5134800F0AE
:100410007DF9134800F07AF900F066F800F064F80E
:10042000E6E7104800F072F9FFF71CFF00F05CF8F7
:10043000F4E70D4800F06AF9FFF76AFF00F054F89E
:10044000FEE70A4800F062F9FFF7F6FE00F001400F
:10045000248500009485000080850000F885000058
:1004600014860000BC850000DC8500006886000062
:1004700070B516463AB14C1EA51814F8010F00F0DD
:1004800021F8AC42F9D1304670BD00BF0B203021BD
:10049000084B10B41B68084C084AA4FB03435B0CD0
:1004A0001361074B90609961D36810BC43F002035D
:1004B000D360704704000020C5B3A29100600040E3
:1004C00000100140024A5368DB07FCD410607047FB
:1004D00000600040034A53689B07FCD51068C0B217
:1004E000704700BF00600040034A5368DB07FCD43C
:1004F00004231360FEE700BF00600040014B024A86
:100500001A607047040000200024F400014B024AE6
:100510001A607047040000200024F40008B5002190
:10052000044601F099FF044B1868C36B03B1984768
:10053000204607F033FF00BFDC86000070B50D4E8B
:100540000D4D761BB61006D0002455F8043B01343F
:100550009847A642F9D1094E094D07F021FF761BB5
:10056000B61006D0002455F8043B01349847A64243
:10057000F9D170BDB8090020B8090020C0090020D9
:10058000B8090020830730B548D0541E002A3FD058
:100590000346CAB201E0013C3AD303F8012B9D07A0
:1005A000F9D1032C2DD9CDB245EA05250F2C45EA0A
:1005B000054536D9A4F1100222F00F0C03F1200EEC
:1005C000E6444FEA121C03F1100242E9045542E9E5
:1005D000025510327245F8D10CF1010214F00C0FE3
:1005E00003EB021204F00F0C13D0ACF1040323F060
:1005F00003030433134442F8045B9342FBD10CF031
:1006000003042CB1CAB21C4403F8012B9C42FBD159
:1006100030BD64461346002CF4D1F9E70346144676
:10062000BFE71A46A446E0E70EB400B582B003ABBC
:1006300053F8042B8168019300F09EF802B05DF836
:1006400004EB03B0704700BF0FB400B5074A83B096
:1006500004AB106853F8042B8168019300F08CF808
:1006600003B05DF804EB04B0704700BF0C0000203D
:1006700030B5054689B008460C4600F04FF8012118
:100680000223214A04940692AA6B04AC0590084404
:1006900001940791AC680293039022B3636E13F048
:1006A000010FB4F90C309AB201D1980525D5910407
:1006B00006D4626E43F4005322F40052A3816266B2
:1006C000284601AA214603F0F7FA636E002814BFFA
:1006D0004FF0FF350A25DA0702D4A3899B0506D51A
:1006E000284609B030BD284603F05AF8D6E7A06D79
:1006F00003F0BAFC284609B030BDA06D03F0ACFC95
:10070000B4F90C309AB2D2E790850000024B014652
:100710001868FFF7ADBF00BF0C00002020F00301F8
:1007200010F00300C0F1000051F8043B00F1040C8C
:100730004FEACC0C6FF000021CBF22FA0CF21343FC
:100740004FF0010C4CEA0C2C4CEA0C4CA3EB0C02C5
:1007500022EA030212EACC1204BF51F8043B04302F
:10076000F4D0C2F1000102EA0102B2FA82F2C2F14F
:100770001F0200EBD20070472DE9F04FD5B01C46A8
:10078000914607910546099003F054FC02680E94C7
:1007900010461792FFF7C2FF16901DB1AB6B002BEE
:1007A00000F01D82079A536EDD0740F12D81B2F9EA
:1007B0000C2091B28F0409D4079B42F400529A8115
:1007C00091B21A465B6E23F4005353660E0740F154
:1007D000C080079B1B69002B00F0BB8001F01A034F
:1007E0000A2B00F0C48000242BAB224698464D46CD
:1007F000CDE929442893129400230024CDE9143430
:100800002B78CDE91922CDE91B2218920B92002BEF
:1008100000F08F81AA4604E01AF8013F002B00F097
:10082000BB80252BF8D1BAEB050640F0B9809AF8C9
:100830000030002B00F07D8100234FF0FF324FF09D
:100840002B0920241F469AF8016008920AF1010A38
:100850008DF883300A930AF1010AA6F120035A2B7E
:1008600000F2E180DFE813F00503DF00DF000003A2
:10087000DF00DF00DF00DE02DF00DF006A006E0263
:10088000DF0055027802DF0073025B005B005B0053
:100890005B005B005B005B005B005B00DF00DF0078
:1008A000DF00DF00DF00DF00DF006C01DF00EA01B6
:1008B000C4016C016C016C01DF00DF00DF00DF00B0
:1008C000D002DF00DF002302DF00DF00DF00F801DD
:1008D000DF009202DF00DF008707DF00DF00DF00BC
:1008E000DF00DF00DF00DF00DF006C01DF00EA0176
:1008F000C6016C016C016C01B602C601BF01DF00CC
:10090000C302DF005A022502A402BF01DF00F80182
:1009100072008407DF00DF006507DF00720000223D
:10092000A6F130031AF8016B02EB820203EB4202DC
:10093000A6F13003092BF5D90A928EE70E9B53F8E6
:10094000042B002A0A920E93C0F2E0819AF800600C
:1009500081E7079D0998294601F00AFD002841F02A
:100960004D83A98901F01A030A2B7FF43CAF079A43
:10097000B2F90E30002BFFF636AF536ED80702D413
:10098000890541F1488123464A460799099855B09F
:10099000BDE8F04F01F0AABCBAEB050600F0C98033
:1009A0002A9BC8E9005633442A93299B0133072B1D
:1009B000299305DC08F108080B9B33440B9336E7B9
:1009C0000799099828AA05F007F880B90DF1AC0835
:1009D000F2E70799099828AA04F0FEFF002800F022
:1009E00099800D9B1BB11946099803F065F8079A89
:1009F000536ED90740F1E88093895B0601F10A83C1
:100A00000B9855B0BDE8F08F079BB3F90C2090050B
:100A100091B23FF5CFAE1D46986D03F01DFBB5F9C1
:100A20000C2091B2C6E6002E00F083800123002244
:100A30008DF8EC6006933BAD8DF883200C930D92FE
:100A400008920F921392109217F0020302D00699A7
:100A50000231069117F0840B07D10A990698A1EB91
:100A60000009B9F1000F00F390832A9C82B10122A2
:100A7000C8F80420299A013401320DF18301072AB4
:100A80002A942992C8F8001000F3D88308F10808C6
:100A90007BB10223C8F80430299B0234013321AA18
:100AA000072B2A942993C8F8002000F3D58308F176
:100AB0000808BBF1800F00F08882089B0C9AA3EB1A
:100AC000020BBBF1000F00F3CB82FB0500F11F828C
:100AD0000C9BC8F800501C44C8F80430299B2A9489
:100AE0000133072B299300F3448308F108087807A2
:100AF00005D50A9B069A9D1A002D00F3B983DDE9FE
:100B00000A2306998A42ACBF9B185B180B93002CF2
:100B10007FF45FAF002329930D9B1BB10D990998BA
:100B200002F0CAFF55460DF1AC082B78002B7FF47C
:100B300071AE2A9B002B41F010820023299356E7C7
:100B40000E9B073323F00702F2E80234CDE9143498
:100B5000DDE9143424F00044994618460E922146EB
:100B60004FF0FF32AB4B07F011FA002840F0188528
:100B7000484621464FF0FF32A64B07F0E9F900281E
:100B800040F00E85DDE914010022002307F0D6F9BC
:100B9000002840F065879DF88320002103209E4DAA
:100BA0009E4B27F080070D910690472EC8BF1D462B
:100BB00008910C900F9113911091002A3FF444AFCB
:100BC000069B013306933FE7079B9B899A053FF5F8
:100BD00014AF079CA06D03F047FAA3890DE70998AD
:100BE00002F0DEFDDEE59AF8006047F0200732E60D
:100BF00047F01007BA060E9B40F16E84073323F0CE
:100C000007031A465B6852F8084B99460E92002B70
:100C1000C0F26F84089B013300F0FB8254EA0903A1
:100C200027F0800B40F0F682089B002B40F0F78203
:100C30005F46002354AD08930C933DE10120002250
:100C40000E9B069053F8041B3BAD8DF883208DF866
:100C5000EC100E930C90F2E64FF000090E9C089BEE
:100C600054F8045B8DF88390002D00F0A1855A1C88
:100C700000F0A5861A464946284603F043FD0D902C
:100C8000002801F050810D9B9DF883205B1B0C9385
:100C900023EAE373CDF820900E940693CDF83490B8
:100CA000CDF83C90CDF84C90CDF8409085E747F0DA
:100CB000100717F0200900F0F2830E9B073323F092
:100CC0000703D3F8049053F8084B0E93002327F43E
:100CD000806B00228DF88320089A511C00F0D4808C
:100CE00054EA09012BF0800740F0CD80002A40F043
:100CF0000486002B9DD11BF001030C9300F030847F
:100D000030230DF24F158DF84F31D5E00A9B5B4231
:100D10000A939AF8006047F004079CE5BD0600F1CD
:100D2000FD84FC0600F1EE85780600F1B286B90577
:100D300040F1E8850E9B0B9953F8042B5546117032
:100D40000E93F2E69AF800608DF8839083E59AF8A6
:100D5000006047F080077EE5524612F8016B2A2EAC
:100D600001F08D82A6F13003092B924698BF002234
:100D700001F2E5801AF8016B02EB820203EB4202FA
:100D8000A6F13003092BF5D9089266E547F0100B60
:100D90001BF0200900F091830E9B073323F007031B
:100DA0001A4652F8084BD3F804900E92012390E7AC
:100DB000302278260E9B8DF8842053F8044B184A75
:100DC0000E934FF00009022347F0020B8DF8856067
:100DD00018927EE79AF80060682E03BF9AF80160C7
:100DE00047F400770AF1010A47F0400733E59AF823
:100DF00000606C2E03BF9AF8016047F020070AF1EB
:100E0000010A47F0100726E59AF8006047F0080746
:100E100021E500BFFFFFEF7FE0860000E4860000D1
:100E2000F0860000099E304603F004F94368184636
:100E30001B93FFF773FC034630461C931E4603F0DA
:100E4000F9F883681993002E3FF480AD199B002BAD
:100E50003FF47CAD199B1B78002B3FF477AD9AF8DB
:100E6000006047F48067F6E49AF8006047F00107F5
:100E7000F1E49DF88330002B7FF468AD9AF80060B0
:100E80008DF88340E7E4BB46012B00F0C381022BC1
:100E900054AD1FD1189A04F00F03D35C240944EA1F
:100EA00009744FEA191905F8013D54EA0903F2D112
:100EB0005F4654AB5B1B0C93089A0C9900238A4243
:100EC000B8BF0A460D9306920F939DF883201393A3
:100ED000109372E604F00703E40844EA49744FEA09
:100EE000D909303354EA09012A4605F8013DF1D108
:100EF0001BF0010FDCD0302BDAD03023023A05F89A
:100F0000013C54AB9B1A5F4615460C93D4E7652E03
:100F100040F3E980DDE914010022002307F004F822
:100F2000002800F0E1810123C8F80430299BC04A61
:100F300001330134072B2A942993C8F8002000F3C9
:100F4000BF8408F10808229B129A934280F2DC8247
:100F5000169B179A1C44C8E90023299B2A94013345
:100F6000072B299300F3178408F10808129B5D1ED4
:100F7000002D7FF7BCAD102D41F35D81DFF8B492F9
:100F8000224649461026B946299B0F46DDF824B073
:100F9000079C05E008F10808103D102D40F39D84E2
:100FA00001331032072BC8E90076CDE92932F1DD93
:100FB0002146584628AA04F00FFD00287FF411AD01
:100FC000DDE929320DF1AC08E6E70A9B069AA3EBAE
:100FD000020BBBF1000F7FF770ADBBF1100F41F3B7
:100FE0005280DFF85092204641464C46A8461023D6
:100FF000299A079DDDF8249006E0ABF1100BBBF1B8
:10100000100F01F1080119DD01321030072AC1E982
:101010000043CDE92920F0DD2946484628AA04F0FE
:10102000DBFC00287FF4DDACDDE92920ABF1100BFF
:10103000BBF1100F4FF010032BA9E5DC4546A1468C
:101040008846044601325C44072ACDE92924C8F8C1
:101050000090C8F804B000F3918308F108082CE56B
:10106000BBF1100F40F3E384DFF8C89120464146FE
:101070004C46A8461023299A079DDDF8249006E0E7
:10108000ABF1100BBBF1100F01F1080119DD0132BA
:101090001030072AC1E90043CDE92920F0DD2946B7
:1010A000484628AA04F098FC00287FF49AACDDE9B1
:1010B0002920ABF1100BBBF1100F4FF010032BA93F
:1010C000E5DC4546A1468846044601325C44072AD1
:1010D000CDE92924C8F80090C8F804B000F3D28103
:1010E00008F10808F1E4129B012B40F382810123EF
:1010F000299E01341E44072EC8F800502A94C8F8CF
:101100000430299600F36C8308F10808169B013619
:10111000179A1C44072EC8E90023CDE9296400F37F
:101120006C8308F108080022DDE91401002306F0B1
:10113000FBFE002840F07A81129B0136013B01350D
:101140001C44072EC8F800502996C8F804302A9489
:1011500000F35F8108F108081A9B01361C44C8F8A7
:101160000430072E24ABCDE92964C8F800307FF79E
:10117000BCAC0799099828AA04F02EFC00287FF43B
:1011800030AC2A9C0DF1AC08B1E4B9F1100F40F37A
:10119000C686DDE929214046CDE91D36B846102432
:1011A0004F46079EA946099D04E0103F102F00F10D
:1011B000080016DD0132204B1031072AC0E9003447
:1011C000CDE92921F1DD3146284628AA04F004FCA6
:1011D00000287FF406ACDDE92921103F102F2BA851
:1011E000E8DC4D46DDE91D36B9464746804609EB49
:1011F000010401321049072ACDE92924C8F80490D6
:10120000C8F8001000F340839DF8832008F1080817
:101210002CE4BB460A2C79F1000380F0FB82012309
:1012200030345F468DF84F410C930DF24F1543E675
:101230002087000034870000248700000799099860
:1012400028AA1D9304F0C8FB00287FF4CAAB2A9C8F
:101250001D9B0DF1AC081BE40799099828AA04F01E
:10126000BBFB00287FF4BDAB2A9C0DF1AC0820E449
:10127000102D40F3BE861026299B099FDDF81C9097
:1012800004E0103D102D08F1080817DD0133BA4ABB
:101290001034072BC8E90026CDE92934F1DD494691
:1012A000384628AA04F098FB00287FF49AABDDE9C1
:1012B0002934103D102D0DF1AC08E7DC0133AE4AA6
:1012C0002C44072BCDE92934C8F80450C8F8002075
:1012D0007FF715AC0799099828AA04F07DFB002830
:1012E0007FF47FAB2A9C0AE42299002940F3108105
:1012F000DDF84090129B9945A8BF9946B9F1000FBF
:101300000BDD299B4C440133072BC8E900592A9473
:10131000299300F3818508F10808109EB9F1000FA8
:10132000A8BFA6EB0906002E00F3F582DDF840B059
:101330007905AB4400F1AC84229B129A934202DB04
:10134000FA0740F19283169A17991444C8E90012DB
:10135000299A2A940132072A299200F3A88508F1D4
:101360000808129AAE18A6EB0B06D51AAE42A8BF13
:101370002E46002E0DDD299B34440133072BC8F87F
:1013800000B0C8F804602A94299300F3FC8508F1A2
:101390000808002EA8BFAD1B002D7FF7A8AB102DAD
:1013A00040F34987DFF8D491224649461026B946D2
:1013B000299B0F46DDF824B0079C05E008F10808DA
:1013C000103D102D40F3898201331032072BC8E9FC
:1013D0000076CDE92932F1DD2146584628AA04F0ED
:1013E000FBFA00287FF4FDAADDE929320DF1AC08F3
:1013F000E6E7FE073FF57BAE0123299E01341E443C
:10140000072EC8F800502A94C8F8043029967FF7B0
:10141000A1AE0799099828AA04F0DEFA00287FF403
:10142000E0AADDE929640DF1AC0895E6129B5D1E8A
:10143000002D7FF791AE102D40F3198722460897B3
:101440004FF0100BDFF83491099C079F05E008F17D
:101450000808103D102D40F3C78201361032072EC8
:10146000C8E9009BCDE92962F1DD3946204628AA6A
:1014700004F0B2FA00287FF4B4AADDE929620DF184
:10148000AC08E6E70799099828AA04F0A5FA00280D
:101490007FF4A7AA2A9C0DF1AC08FFF716BB17F042
:1014A000100377D117F0400200F0AC820E9A9946F3
:1014B00052F8044B0E92A4B208E41BF010030E9AEB
:1014C00054D11BF040014DD052F8044B99460E9276
:1014D0000123A4B2FFF7FDBB53F8044B0E93FB06A8
:1014E00053D47D064ED544F3C0394B4624B2FFF7A2
:1014F0008EBB2D2364428DF88330BB464FF0010331
:1015000069EB4909FFF7E8BBF8077FF5F0AA1FE58B
:101510000123C8F80430299B194A01330134072BF1
:101520002A942993C8F8002000F3688408F1080879
:10153000002940F02582129A07F0010313433FF47B
:10154000D6AA169B1799E218C8E90013299B2A927C
:101550000133072B299300F3508308F1080820E298
:1015600054ADA9E41BF4007940F0A08252F8044B7A
:1015700001230E92FFF7ADBB2487000034870000E3
:1015800020870000B80500F179824FEAE4794B46E4
:10159000FFF73DBB0E9B53F8044B0E93FFF796BB32
:1015A000DDE9140102460B4606F0F0FC002840F08D
:1015B000F785612E00F06C85412E00F07F82089B3C
:1015C000013300F0948526F02003472B069300F0AA
:1015D0007B85DDE9141247F480730F931346002BCB
:1015E000C0F2F4850C9300238B461D930D93069B4C
:1015F000462B00F02B84452B00F0148508990C9B9A
:1016000001910221009126A9049123A9039122A905
:101610005A460998029101F01FF8069B0546472B90
:1016200040F0448617F0010FB9460F9F40F0F78451
:10163000269B5B1B1293069B472B00F0F182069BB7
:10164000462B00F04284229B1093109B069A013B8C
:10165000412A229300F08A850021F2B2002B8DF8F6
:101660009020B6BF2D222B22109B8DF89120B8BF61
:10167000C3F10103092B40F381850DF19F0C6246F4
:10168000BA4F1C46104687FB0312D917C1EBA201C3
:1016900001EB8102A3EB42023032632C00F8012CF3
:1016A0000B4600F1FF32ECDC3033811EDBB28C459F
:1016B00002F8013C40F2FF850DF1920101E012F8C1
:1016C000013B944501F8013BF9D10DF1A1030DF166
:1016D00092021B1A134424AA9B1A1A93129B1A9A59
:1016E000012B1A440C9240F39E850C9B169A1344CE
:1016F0000C9300230C9A29F4806722EAE27247F4E3
:1017000080770F930692139310931D9B002B40F04C
:10171000B0829DF883200893FFF74FBA0E9B0B9879
:1017200053F8041BC2175546C1E900020E93FFF798
:10173000FCB98F4B189317F0200949D00E9B073343
:1017400023F00703D3F8049053F8084B0E93F807DF
:1017500009D554EA090306D030238DF8856047F097
:1017600002078DF88430022327F4806BFFF7B1BAAB
:10177000BB46FFF70DBB7F4B1893DCE70799099831
:1017800028AA04F029F900287FF42BA92A9C0DF13E
:10179000AC08FFF792B90799099828AA04F01CF938
:1017A00000287FF41EA92A9C0DF1AC08FFF7DEBBD0
:1017B000062B294628BF06232A4608950D95069331
:1017C0006D4D0E940C930F9113911091FFF7F5B995
:1017D00017F0100369D00E9B53F8044B0E93B6E735
:1017E0000799099828AA04F0F7F800287FF4F9A8C7
:1017F000DDE929640DF1AC0888E40799099828AA65
:1018000004F0EAF800287FF4ECA8DDE929640DF182
:10181000AC0888E400230BF48062CDE90CA806969E
:1018200092461E46DDF8648054AF0CE0002320464B
:1018300049460A2206F0E8FB0A2C79F100031BD383
:10184000044689462F4620460A220023494606F0D0
:10185000DBFB30327D1E013607F8012CBAF1000F98
:10186000E4D098F800309E42E0D1FF2EDED00A2C62
:1018700079F1000380F0E080CDF864801296DDE914
:101880000CA8069EFFF714BB0799099828AA1D9378
:1018900004F0A2F800287FF4A4A89DF883202A9CD5
:1018A0001D9B0DF1AC08FFF7E1B817F0400200F006
:1018B000B4800E9A994652F8044B0E92A4B246E7B1
:1018C0000799099828AA04F087F800287FF489A8C6
:1018D0002A9C0DF1AC08FFF736BB14463A464F463A
:1018E000914601332C44072BC8F80090C8F80450E7
:1018F000CDE929347FF7F9A83BE4012BBB467FF4FF
:10190000C6AA8CE40E9B0B9953F8042B5546116024
:101910000E93FFF70AB9102E40F3AD84DFF85C9008
:10192000214648464246B946A8464FF0100B0746A6
:10193000299B099C079D04E00832103E102E40F3BD
:10194000488201331031072BC2E9007BCDE92931F0
:10195000F2DD2946204628AA04F03EF800287FF44C
:1019600040A8DDE929312BAAE7E700BF6766666674
:10197000F08600000487000018870000348700000C
:10198000169B1798E218C8E90003299B2A92013395
:10199000072B299300F3318108F108080029C0F2D0
:1019A0000283129901338C18072BCDE92934C8F82A
:1019B0000050C8F804107FF798A8FFF7DABB284654
:1019C000CDF820900E94FEF7A9FE20EAE073CDE951
:1019D0000C099DF88320CDF83C90CDF84C90CDF8C3
:1019E00040900693FFF7E9B81446089F01362C444F
:1019F000072ECDE92964C8F80090C8F804507FF795
:101A0000A9AB06E517F400790E9B3DD053F8044BC3
:101A100091460E93E4B2FFF759B917F400790E9B83
:101A200040D053F8044B91460E93E4B28FE6299AC6
:101A3000DFF84C92FFF749BB1C9B1B99ED1A1A4625
:101A4000284603F059FF98F801300BB108F101085E
:101A5000204649460A220023002606F0D5FAEFE682
:101A60002D228DF88320FFF798B8129AAE18A6EBB6
:101A70000B06D51AAE42A8BF2E468AE444F3C0191D
:101A80004B4664B2FFF7C3B853F8044B0E93FFF70D
:101A90001DB90E9B0B9953F8042B554611800E93DC
:101AA000FFF743B853F8044B0E9350E652F8044B3B
:101AB000894601230E92E4B2FFF70BB930238DF86B
:101AC000843058238DF88530089B47F00204632B3F
:101AD00000F3E38200233BAD0D9347F481730F9332
:101AE000DDE914121346002B2746C0F240820C9306
:101AF00000238B461D9326F020030693612E00F0F1
:101B00001783412E7FF473AD22AA58460C9903F037
:101B100061FE00224FF07F5305F09EFF02460B4608
:101B2000CDE910230022002306F0FEF908B10123BD
:101B30002293544B0C93089BCDE912A6CDE91E7855
:101B4000DDE91067AB46DDF830A003F1FF391095F1
:101B500006E00022002309F1FF3906F0E5F9E8B9B3
:101B60000022494B3046394605F076FF0F460646BF
:101B700006F022FA044605F005FF0B4602463946F8
:101B8000304605F0B1FD1AF80430B9F1FF3FD846F0
:101B90004D4606460F460BF8013BDAD13046394632
:101BA00000223A4BA946DDF848A0109DCDF84880A8
:101BB000CDE91001DDF87C80139E1E9F06F0DCF954
:101BC000002840F04482DDE9100100222F4B06F08E
:101BD000ABF910B1E10700F13A824B46002B06DB6E
:101BE000302201335B440BF8012B5B45FBD1ABEB9F
:101BF0000503B94612930F9F1DE50799099828AA76
:101C000003F0EAFE00287EF4ECAEDDE929322299E9
:101C10000DF1AC08C2E6906D02F026FAFEF7B3BEF5
:101C2000229BDA1C109302DB089A934204DD023EE9
:101C300026F02003069308E5109B129A9342C0F207
:101C4000828119F0010F00F0A882169A13440C93B8
:101C500019F4806F00F09082109B6726002B00F330
:101C600046810C9B23EAE373069300230F9313939F
:101C70004BE52D2200238DF883200893FEF7A0BFAB
:101C80003487000004870000000030400000E03F7F
:101C9000129B4246DDF84C80EB185E460893CDF867
:101CA00030A010972146199FDDF87090DDF824A030
:101CB000DDF81CB00F9B1395B8F1000F2ED0002B50
:101CC0006CD1013F08F1FF381B9B4944C2E9003940
:101CD000299B2A910133072B299363DC0832089B47
:101CE00038789B1B8342A8BF0346002B1C460ADDA5
:101CF0002998194401300728C2E900632A912990E4
:101D00005BDC38780832002CB4BF0546051B002D7B
:101D100015DC06440F9BB8F1000FD0D1002B3DD14C
:101D2000DDE91235EB189E42B34619970C469046F2
:101D300028BF9B46DDF830A0109FFFF7FDBA102D9D
:101D400040F36F821024299804E0103D102D02F119
:101D5000080216DD0130A84B10310728C2E9003413
:101D6000CDE92901F1DD5946504628AA03F034FE99
:101D700000287EF436AEDDE92901103D102D2BAA96
:101D8000E8DC01309C4B29440728CDE92901556046
:101D900013604EDC387808320644BBE70F9B013BEA
:101DA0000F9391E75946504628AA03F015FE0028E4
:101DB0007EF417AE2A992BAA91E75946504628AAD5
:101DC00003F00AFE00287EF40CAE38782A992BAA7C
:101DD00099E7454690463A460C464F4691460133B0
:101DE0003444072BCDE92934C8F80090C8F80460C2
:101DF00000F35D8108F10808FFF798BA0799099880
:101E000028AA03F0E9FD00287EF4EBAD22992A9C74
:101E10000DF1AC08FFF78CBB0799099828AA03F0CD
:101E2000DBFD00287EF4DDAD2A9C0DF1AC08FFF748
:101E300074BA5946504628AA03F0CEFD00287EF415
:101E4000D0AD38782A992BAA064463E708990C9BF1
:101E500001910321009126A9049123A9039122A9AC
:101E60005A460998029100F0F7FB03780546302B9B
:101E700000F0C081229B089AB94613440F9FEC18CA
:101E80005846002200230C9906F04EF810B1234664
:101E9000FFF7CFBB269BA342BFF4CBAB30215A1C2C
:101EA00026921970269B9C42F9D8FFF7C2BB07996E
:101EB000099828AA03F090FD00287EF492AD229B99
:101EC0002A9C0DF1AC08FFF74CBA229A002A109216
:101ED00040F3B981089909F001030B4340F04081B8
:101EE0006626109B0C9319F4806F3FF4BAAE1999D3
:101EF0000B78FF2B00F0D6810024109A204604E0D6
:101F000001300131FF2B00F06481934280F2618146
:101F1000D21A4B78002BF3D10B780134F2E7DDE9CC
:101F20002921FFF764B9089B9DF883200E9406933E
:101F30000C9308900F9013901090FEF73EBE002374
:101F40000893FEF78ABC129B169A9A18109B0C9263
:101F5000002B40F35D816726C5E70799099828AAF9
:101F600003F03AFD00283EF4E8ADFEF740BD26F050
:101F7000200306932D22DDE914349B4604F100432F
:101F80001D920C93BAE50799099828AA03F024FD3D
:101F900000287EF426AD229D129B2A9C0DF1AC08F0
:101FA0005D1BFFF7F6B94E42103180F28181414648
:101FB0001024A846DFF84090DDF824B0079D04E027
:101FC0000831103E102E40F3998001331032072B58
:101FD000C1E90094CDE92932F2DD2946584628AA04
:101FE00003F0FAFC00287EF4FCACDDE929322BA9D1
:101FF000E7E7299BFFF762B934870000079B5B6E18
:10200000DD0707D4079B9B899C0503D4079B986D2C
:1020100002F02AF84FF0FF330B93FEF7F1BC089B58
:10202000EC182DE70221009108995A464C1C26A96C
:10203000049123A9039122A90C9B09980194029170
:1020400000F00AFB0546B9462C440F9F18E7129B87
:1020500026930C9B1BF8012CD97B5B468A4209D145
:10206000302003F8010C269B5A1E269213F8012CEF
:102070009142F6D0392A0BBF0C9A0132927AD2B231
:1020800003F8012CB3E5299ADFF83492FEF7DABFA2
:1020900030238DF88430782314E50998591C02F018
:1020A00085F80546002800F0F6800D9015E50799A3
:1020B000099828AA03F090FC00287EF492AC2A9C90
:1020C0000DF1AC08FFF732B9089B002B08BF0123C4
:1020D000089347F480730F93159B002BC0F2A980DF
:1020E000DDF850B01D900C930D90FFF787BA0623D2
:1020F000089326F020030693FFF76BBA45468846FF
:1021000001333244072BCDE92932C8F80090C8F8D2
:1021100004607FF722AA0799099828AA03F05CFCBB
:1021200000287EF45EACDDE929320DF1AC0838E41C
:1021300022AA58460C9903F04DFB00224FF07F5322
:1021400005F08AFC02460B46CDE91023002200234D
:1021500005F0EAFE08B1012322935A4B0C93EAE4FE
:10216000169B6626D31819440C91BCE606F10F02A3
:102170000121D2B2FFF772BA672672E500295FD15A
:1021800030228DF892200DF19302303302F8013B9A
:1021900024ABD31A1A93FFF7A1BA109B0C9357E5FF
:1021A000159B0320002BB8BF2D224FF00003A8BFC2
:1021B0009DF8832019460D93434D444BB8BF8DF8CD
:1021C000832027F080070690FEF7EFBC00230D93D5
:1021D000D0E61991109213900F940F9A139B1C99AB
:1021E00013440C9A01FB03230C9323EAE373069335
:1021F000FFF78BBA5846002200230C9905F094FE95
:1022000000287FF437AE089BC3F10103229332E626
:10221000C3F101031A4422EAE27367260C92069383
:1022200023E52998ADE519F0010F3FF462AAFFF705
:102230005CBA0D909EE6299BDFF88490FFF751BBB6
:102240000DF19202A1E7089A09F0010959EA020387
:1022500004D10123662606930C9306E5169B662699
:1022600001331A4422EAE2730C920693FDE4DFF88C
:102270005090FFF7BBBB299BDFF84490AFE50E9B66
:102280009AF80160924653F8042B0E9342EAE273E7
:102290000893FEF7E0BA079A938943F040039381CD
:1022A000FEF7A5BB00230F93139396E7089CCAE69D
:1022B000DFF80C9024E702231A93FFF70FBA00BF50
:1022C00034870000F0860000E8860000EC860000FD
:1022D0008C4600B586461346034A714610685DF881
:1022E00004EB6246FEF748BA0C000020F0B54FF44C
:1022F000806C1546002406461F46ADF26C4D1AABA5
:10230000009304938B8916A823F00203ADF80C30D8
:102310004B6E06941993CB890C46ADF80E30CB6901
:10232000CDF808C007934B6ACDF814C0099301F0AB
:102330008BFE2A463B4669463046FEF71DFA051ECF
:1023400007DB6946304601F07FF9002818BF4FF0DF
:10235000FF35BDF80C305B0603D5A38943F040037D
:10236000A381169801F074FE28460DF26C4DF0BD65
:1023700038B5334B05461B680C460BB19A6B12B34C
:10238000B4F90C3018079AB225D5216900292DD04F
:1023900012F0010007D000256069A5604042A061ED
:1023A00039B1002038BD950758BF6069A060002989
:1023B000F7D1120658BF0846F4D543F040034FF05A
:1023C000FF30A38138BD184601F0EAF9B4F90C30AA
:1023D00018079AB2D9D4D1062AD5520714D4216944
:1023E00043F00803A3819AB20029D1D102F42070EE
:1023F000B0F5007FCCD02146284601F037FEB4F975
:102400000C3021699AB2C3E7216B51B104F140024B
:10241000914204D0284601F04FFBB4F90C30002261
:1024200022630022216923F02403C4E90012D7E7C4
:10243000092243F040032A604FF0FF30A38138BDEA
:102440000C000020024B13B1024800F067B870473F
:1024500000000000ED3900002DE9F04F83462D4BC0
:1024600083B018680F46CDF804B001F0F5FD2A4B93
:10247000D3F80080D8F848619EB14FF001094FF0C1
:10248000000A7468651E0CD4013406EB84047FB125
:10249000D4F80031BB420BD0013D6B1CA4F1040405
:1024A000F5D11C4B186803B0BDE8F04F01F0DCBD5E
:1024B00073682268013BAB420CBF7560C4F800A092
:1024C000002AE9D0D6F8880109FA05F10142D6F8C8
:1024D00004B00BD1904772685A4512D1D8F84831F0
:1024E000B342D9D01E46002ECBD1DAE7D6F88C0104
:1024F00001420BD10198D4F88010904772685A4578
:10250000ECD0D8F84861002EBBD1CAE7D4F88000DF
:102510009047E0E738040020DC86000000230146F5
:102520001A46184604F092B92DE9F04F03690C6978
:1025300085B0A342C0F28980013C01F11405A300DB
:1025400000F11408019355F8243058F82420013381
:102550008A469A4208EB84018146B2FBF3F605EB0A
:10256000840702913AD30021AE4640460A46A3466C
:1025700003955EF8045B0468ABB206FB03132D0CF5
:10258000190C06FB05119BB2D21A1FFA84FC944465
:102590008AB2C2EB144202EB2C421FFA8CFC4CEACA
:1025A0000243774540F8043B4FEA11414FEA22428B
:1025B000DFD2019B5C4658F80330039D73B9029B40
:1025C000043B984504D307E0984504F1FF3403D257
:1025D00053F80429002AF7D0C9F81040514648465C
:1025E00002F0ACFC00282CDB40460023013655F8F5
:1025F000041BD0F800C08AB29A1A1FFA8CFE0B0C8A
:102600007244C3EB1C4303EB224392B242EA0342FF
:10261000AF4240F8042B4FEA2343E8D258F8242075
:1026200008EB84036AB9043B984504D307E0984556
:1026300004F1FF3403D253F80429002AF7D0C9F873
:102640001040304605B0BDE8F08F002005B0BDE871
:10265000F08F00BF000000002DE9F04F9046994632
:10266000016C99B00446CDE90489259D41B101234F
:10267000426C93408B604A6002F0B0F900232364FF
:10268000B9F1000AB4BF012300232B60764BBCBF15
:102690002AF0004ACDF814A033EA0A0300F0AA8019
:1026A000DDE904231046194600220023CDE90A0182
:1026B00005F03AFC074670B10123249A1360269B6B
:1026C000002B00F0E68269481860431E03930398CC
:1026D00019B0BDE8F08F16AB019317AB00932046FD
:1026E000DDE90A2302F07AFD5FEA1A56054640F05A
:1026F0009780DDE916763E4406F23240202840F30A
:10270000B783C0F140000AFA00FA06F2124028FA34
:1027100000F04AEA000005F025F90123013E0F937D
:10272000A1F1F8710022524B04F0DEFF48A3D3E977
:10273000002305F091F948A3D3E9002304F0D6FF64
:1027400080463046894605F01DF945A3D3E90023AC
:1027500005F082F902460B464046494604F0C6FFA2
:102760008046894605F028FC002283460023404627
:10277000494605F0E3FB002840F07E82BBF1160FCE
:1027800000F26D82DDE90A013A4B03EBCB03D3E99A
:10279000002305F0D3FB002872D00023BE1B0E934C
:1027A000731E0BF1FF3B069300F160820023099337
:1027B000BBF1000F6BDA099BCDF81CB0A3EB0B0348
:1027C0000993CBF100030D93229B4FF0000B092BD3
:1027D00066D8052B40F34A830026043B2293229BB4
:1027E000023B032B00F26C86DFE813F061045E0409
:1027F0005504380442F20F73249ACAF3130A136083
:102800005AEA08031AD1269B002B00F068861A4B5F
:1028100003930833269A0398136019B0BDE8F08F2C
:10282000DDE90A12C2F31303084643F07F510F9704
:10283000A6F2FF36169F41F4401173E7269B002B4A
:1028400040F0EF830D4B039341E700BFAFF30080EF
:1028500061436F63A787D23FB3C8608B288AC63FA6
:10286000FB799F501344D33F0000F07F2187000085
:102870000000F83F9088000048870000448700006F
:10288000BE1B731E069300F18A840E900990069B6E
:102890005B44CDE9063B00230D93229B092B98D97D
:1028A000002322934FF0FF330126089300230C9658
:1028B00023930021089B61641293204602F068F87C
:1028C0000390002800F00486039B2364089B0E2BD2
:1028D00000F21481002E00F011810799002940F3C5
:1028E0006084AF4B01F00F0203EBC2030A46D3E949
:1028F00000674FEA2118D10540F11784DDE90A018C
:10290000A84B4FF0030AD3E9082305F0CFF9CDE92E
:10291000100108F00F08B8F1000F13D0DFF884920F
:1029200018F0010F09D0D9E900233046394605F0E7
:1029300093F806460F460AF1010A5FEA680809F1B2
:102940000809EDD1DDE9100132463B4605F0AEF94C
:10295000804689460E9B43B1002240464946924B31
:1029600005F0ECFA002840F03585504605F00AF8ED
:1029700042464B4605F070F88C4B002204F0B6FE40
:10298000A1F15073CDE910011193089B002B00F0C9
:102990009780079B1493089B13930C9B002B00F0CC
:1029A000A984139A7E4B002003EBC20353E9022350
:1029B0007F4905F07BF9DDE9102304F095FECDE9B0
:1029C00010014946404605F0F7FA074604F0DAFFE1
:1029D00002460B464046494604F086FEDDE91023D8
:1029E000039E303706F8017B8046894605F0A6FA3B
:1029F000002840F02E85CDF854B00027DDE910AB5B
:102A00001095139D13942AE00137AF4280F22E8572
:102A1000504659460022674B05F01EF80022654BD0
:102A200082468B464046494605F016F88946804660
:102A300005F0C2FA044604F0A5FF02460B464046E4
:102A4000494604F051FE303452465B4606F8014BCD
:102A50008046894605F072FA002840F0F884424624
:102A60004B460020504904F03FFE52465B4605F0BD
:102A700065FA0028C8D0DDE91343109D039A079337
:102A800002E0964200F0CD84B24616F8013D392BA3
:102A9000F7D00133DBB23370079B01330793C8E1F2
:102AA000504604F06FFF42464B4604F0D5FF3F4BC3
:102AB000002204F01BFEA1F15073CDE91001119327
:102AC0004046494600223C4B04F00EFEDDE91089E9
:102AD0004B46424606460F4605F04EFA8146002810
:102AE00040F0AF84DDE91001024601F100433046B9
:102AF000394605F023FA002840F04883179B002B45
:102B0000C0F28C80079A0E2A00F38880244B03EBD6
:102B1000C203D3E900AB239B002B1BDA089B002BDD
:102B200018DC40F031830022234B5046594604F014
:102B300093FF02460B46DDE90A0105F009FADDF8CC
:102B400020904E46002800F0CA82239BDDF80C80BE
:102B5000DF43CCE25246DDE90A785B46384641461F
:102B600005F0A4F805F028FA8146099004F00AFF60
:102B700052465B4604F070FF039E0B4602464146F8
:102B8000384604F0B1FD09F1300306F8013B089B1B
:102B9000012B00F05F83069401271C4604952AE070
:102BA00090880000688800000000F03F00001C4092
:102BB0000000E03F000024400000144052465B4605
:102BC0004046494605F072F805F0F6F9054604F06E
:102BD000D9FE52465B4604F03FFF01370B460246E2
:102BE0004946404604F080FD05F13003A74206F84F
:102BF000013B00F02C830022AB4B04F02DFF0022A0
:102C000000238046894605F08FF90028D6D0049D20
:102C1000069C079BB246013307930AE10C9A002AEF
:102C20003DD0229A012A40F39F82089B03F1FF388E
:102C30000D9B4345C0F27082A3EB0808089B002B54
:102C4000C0F24083069A1A440692099A17461A441B
:102C500009920121204601F0C3FF064623E001232B
:102C6000BE1B0E93731E06937FF5A0ADC6F1010344
:102C70000993002306939BE5584604F083FE4246E1
:102C80004B4605F051F900287FF478AD0BF1FF3B7E
:102C900074E5864B0393039819B0BDE8F08FDDF817
:102CA0003480099F0C9E002F0CDD069900290B46ED
:102CB00008DDB942A8BF3B46099AFF1AD21ACB1ABF
:102CC000099206930D9BE3B10C9B002B00F06082F0
:102CD000B8F1000F10DD31464246204602F05CF8A4
:102CE00006462A463146204601F0A8FF03462946FB
:102CF00020461D4601F072FE0D9BB3EB080240F02A
:102D0000DB820121204601F06BFFBBF1000F814601
:102D100000F3B380229B012B40F388814FF0000A1F
:102D20000120BBF1000F40F0B480069A104410F06F
:102D30001F0000F09280C0F12003042B40F3D383E6
:102D4000099BC0F11C000344024409930744069206
:102D5000099B002B05DD29461A46204602F078F82B
:102D60000546069B002B05DD49461A46204602F023
:102D70006FF881460E9B002B40F03881089B002B9A
:102D800040F31E810C9B002B40F09F80079B01337A
:102D900007930127DDF80C80DDF820A007E0294625
:102DA00000230A22204601F023FE0546013749464A
:102DB0002846FFF7B9FB574500F1300308F8013BFF
:102DC000EDDB089A0027002ACCBF93464FF0010B99
:102DD000039A9344294601222046049302F038F8CE
:102DE0004946054602F0AAF8002840F3AB811BF8DB
:102DF000013C039A0BF1FF3B04E05A4500F0AD8122
:102E00001BF8013D392B0BF1010AF6D001338BF889
:102E100000304946204601F0E1FD56B12FB1B742DE
:102E200003D03946204601F0D9FD3146204601F055
:102E3000D5FD2946204601F0D1FD0023079A8AF8E6
:102E40000030249B1A60269B002B3FF440AC039873
:102E5000C3F800A019B0BDE8F08F1C20099B0744FF
:102E600003440993069B0344069371E70126B6E4E5
:102E7000C0F1200008FA00F04DE401465A46204611
:102E800001F08AFF229B8146012B40F3B6814FF06F
:102E9000000AD9F8103009EB8303186901F054FED9
:102EA000C0F1200041E700BF00002440208700005F
:102EB000314600230A22204601F09AFD129B064665
:102EC000002B40F3E982CDE90783002F00F31D8139
:102ED000BAF1000F40F0D981B046049B089903F085
:102EE0000102039B0A921F46013B1944229B089151
:102EF0001343099349462846FFF716FB314683469C
:102F0000284602F01BF8424649468246204602F017
:102F100035F8C26801460BF13003002A43D1049012
:102F20002846069302F00AF80246049920460492C5
:102F300001F054FD049A069B1AB90999002900F082
:102F40009B82BAF1000FC0F2648122994AEA010A19
:102F50000A9951EA0A0100F05C81002A00F3B68167
:102F6000089A07F1010A9742D3463B7000F0B481FA
:102F7000294600230A22204601F03AFD464505462F
:102F800031464FF000034FF00A02204612D001F004
:102F90002FFD4146064600230A22204601F028FD67
:102FA00057468046A6E72046049301F017FD01220C
:102FB000049BC6E701F01CFD57460646804699E78C
:102FC000229B022B7ADC0C9B002B7FF47EAF079BAD
:102FD0004946013328460793FFF7A6FADDF80CB0FF
:102FE00000F1300300270BF8013BF3E64946284681
:102FF00001F0A4FF0028BFF6C1AE294600230A2233
:10300000204601F0F5FC079B054603F1FF380C9BB9
:10301000002B7FF44DAF129B002B40F334820893BA
:10302000B7E6B04B03930333FFF7F4BBDDE90412BB
:1030300000297FF473AEC2F31303002B7FF46EAE4E
:10304000A94B1340002B00F00082099B4FF0010AAE
:1030500001330993069B0133069361E601230C9328
:10306000239B079A134412930133012B1F46B8BFC9
:10307000012708930021172F61647FF71EAC0122FE
:1030800004235B0003F11400B842114602F101026F
:10309000F7D9616411E401230C93239B002B4CDDD1
:1030A0001F4612930893E5E700230C93D8E700230B
:1030B0000C93F2E7129BCDF81C800893089B002B21
:1030C0007FF443AD49460522204601F091FC81463C
:1030D0002846494601F032FF00287FF736AD3123FC
:1030E0000398079F804600F8013B0137039049464B
:1030F000204601F073FC7B1CDDF80CA00793CDF893
:103100000C80002E7FF491AE93E631463A4620467D
:1031100001F09EFE0646DBE60D9BCDF83480A8EB61
:1031200003039B444FF0000888E5DDE90A234FF0D4
:10313000020ACDE91023FFF7EEBB01232393089386
:10314000FFF7B7BB03D1049BD8073FF550AEDA4673
:103150001BF8013D302BFAD05BE6079B039A013345
:1031600007933123137054E60F9A002A00F0288148
:1031700003F23343069ADDF834801A440692099A22
:1031800017461A44099264E54FF000094E46DCE404
:10319000294620460D9A01F0FFFD0546B1E50E9047
:1031A00064E500F01181DDE90A01079A4F4B5642B0
:1031B00006F00F0203EBC203D3E9002304F04CFC3A
:1031C00036118046894600F0708100234FF0020AD4
:1031D000474FF20706D5D7E9002304F03DFC012351
:1031E0000AF1010A761007F10807F2D1002B3FF42B
:1031F000B1AB80468946FFF7ADBB049B002B7FF443
:1032000046AEDDE90412C2F31303002B3FF418AFFE
:103210003DE6002A12DD294601222046049301F0F2
:1032200017FE4946054601F089FE0028049B40F33D
:103230001781392B00F0FB800BF13103BA46079A56
:1032400037460132464607920AF8013BE1E5099507
:10325000069C049D02460B4604F048FA52465B4623
:103260008046894604F088FE60B952465B46404677
:10327000494604F059FE00283FF4CBAC099BD9071E
:103280007FF5C7AC039AFFF7FFBB2046716801F0DA
:103290007FFB0746002800F00C81336906F10C0122
:1032A00002339A000C3001F075FA394601222046AB
:1032B00001F0CEFD804610E62946204601F06CFD67
:1032C00005461EE5DDE908239F1AC2E4392B00F00C
:1032D000AE80BA460133B2E7079A37460132464616
:1032E000079277E5448700000000F07F9088000097
:1032F00068880000DDF84CA08349DDE9102301EB6C
:10330000CA0151E9020104F0A7FBCDE910014946C9
:10331000404604F051FE064604F034FB0B460246DC
:103320004946404604F0E0F95346039F3036012BEE
:103330008046894607F8016B00F0AC80139E039B22
:103340001E440022714B4046494604F085FB8946E5
:10335000804604F031FE824604F014FB02460B4620
:103360004046494604F0C0F90AF1300A07F801ABBB
:10337000B74280468946E4D1DDE910010022644B62
:1033800004F0B4F942464B4604F0D8FD002862D15F
:10339000DDE9102300205E4904F0A6F942464B46C1
:1033A00004F0EAFD00283FF4A9AB16F8013CB24650
:1033B000302B06F1FF36F8D0149B0133079338E524
:1033C000169BC3F13603D5E64FF0020ADDE90A8900
:1033D000FFF7C0BA089B002B3FF462AB129B002B97
:1033E0007FF78CAB1393079B0022013B4046494675
:1033F0001493464B04F030FB804689460AF10100E5
:1034000004F0C0FA42464B4604F026FB414B002232
:1034100004F06CF9A1F15073CDE910011193FFF79D
:10342000BCBA079B013307933123FFF734BB079BDB
:10343000BB4601330793392337460BF8013B464619
:10344000D7E44FF000094E4649E69A4668E4109DDD
:10345000139CB246B0E7149B039A0793FFF714BB83
:103460007FF4ECAEDA077FF5E9AEE2E6DDF854B0C2
:10347000109D139CFFF742BB392BD8D0BAF1000F37
:103480003FF7DAAEDAE6229B022B3FF713AECDF818
:103490001C809CE53E466FE7229B022B3FF70AAE5D
:1034A000129BCDF81C8008930FE54FF0020AFFF73E
:1034B00051BA024640F2EA21174B184803F00CFAC1
:1034C000002620463146666401F062FA039078B91E
:1034D00000224FF4D571104B104803F0FDF9104B4A
:1034E0000393FFF7F4B83FF433ACC0F13C00B5E40C
:1034F000039B012223644FF0FF33239612930C9217
:103500000893FFF7FBBA00BF90880000000024403A
:103510000000E03F00001C40548700006887000066
:1035200048870000B1F90C20F8B50C461107074692
:1035300043D4636842F40062002BA2815BDDA56A7C
:10354000002D56D000233E683B6093B212F48052A7
:1035500055D101233846E169A847421C65D0A389AB
:10356000A56A5B0705D56368C01A236B0BB1E36BD3
:10357000C01A0246E16900233846A847411C40D1E1
:103580003B68002B3DD01D2B01D0162B54D10022BF
:10359000A38923F40063A3812369C4E90032216B6A
:1035A0003E6031B304F14003994202D0384600F046
:1035B00083FA002318462363F8BD2669CEB193B27F
:1035C0009A0718BF0023256808BF63692660AD1BF2
:1035D000A3600CE02B463246D4F824C03846E1699B
:1035E000E047B0F1000CA5EB0C05664416DD002D9C
:1035F000F0DC0020F8BDE36B002BA0DCF9E7206DC8
:10360000AFE70022B4F90C30626023F40063226952
:10361000A381DB042260C2D52065C0E7A3894FF0F7
:10362000FF3043F04003A381F8BD3B68002B96D0E8
:103630001D2B06D0162B04D0A38943F04003A38191
:10364000F8BD00203E60F8BD38B505460C4608B10F
:10365000836BA3B1B4F90C00B8B1636EDB0701D47E
:10366000810515D528462146FFF75CFF636E0546A8
:10367000DA0702D4A3899B050ED5284638BD00F091
:103680008FF8B4F90C000028E7D10546284638BD6C
:10369000A06D00F0E1FCE5E7A06D00F0E5FC284638
:1036A00038BD00BF38B548B3184B04461D680DB18E
:1036B000AB6BBBB1B4F90C0088B1636EDB0701D40E
:1036C000810513D528462146FFF72CFF636E05467A
:1036D000DA0702D4A3899B050CD5284638BD0546D8
:1036E000284638BD284600F05BF8E3E7A06D00F0FF
:1036F000B3FCE7E7A06D00F0B7FCEEE7044B05492B
:103700001868BDE8384000F06FBC00BF0C00002016
:10371000DC86000049360000014900F065BC00BFAE
:10372000A969000008B5436EDA0702D483899B05B6
:1037300001D5002008BD806D00F08EFC002008BD82
:1037400008B5436EDA0702D483899B0501D50020B2
:1037500008BD806D00F088FC002008BD682270B5AF
:103760004D1E02FB05F50E4605F1740100F01EFD2D
:10377000044640B100210C30C4E9016005F1680243
:103780002160FCF7FFFE204670BD00BF024B0349DD
:10379000186800F029BC00BFDC860000A9690000A1
:1037A0002DE9F0478246394800F056FCDAF83840F7
:1037B000002C66D1042303223549DAF80450CAF8F4
:1037C0003C10DFF8D090DFF8D080344F344E0AF54B
:1037D0003B71CAE9B921CAF8E0422146EB600822F0
:1037E000C5E90044C5E904446C66AC60AC6105F110
:1037F0005C00FCF7C7FEC5E90759C5E90987EE6219
:1038000005F1580000F020FCDAF80850254B21465D
:10381000EB600822C5E90044C5E904446C66AC606D
:10382000AC6105F15C00FCF7ADFEC5E90759C5E9DF
:103830000987EE6205F1580000F006FCDAF80C503A
:10384000194B2146EB600822C5E90044C5E9044450
:103850006C66AC60AC6105F15C00FCF793FE05F1B1
:103860005800C5E90759C5E90A76C5F8248000F073
:10387000EBFB01230548CAF83830BDE8F04700F0FB
:10388000F3BB0248BDE8F04700F0EEBBFC090020A6
:10389000193700006958000091580000D158000005
:1038A000F158000009000100120002002DE9F0416A
:1038B00007462D4800F0D0FB2C4B1E68B36B93B32A
:1038C0004FF0040806F53876D6E90134013B04D5FB
:1038D00025E05A1C04F1680421D0B4F90C50013BD6
:1038E000002DF6D1224B04F15800E360656600F02C
:1038F000ABFB1D4800F0B8FB08222946C4E901557E
:10390000C4E904552560A56104F15C00FCF73AFEAA
:10391000C4E90C55C4E911552046BDE8F08135686D
:103920002DB12E46D0E73046FFF73AFFC8E74FF4F7
:10393000D671384600F03AFC044668B10560294665
:103940000546C0F804800C304FF4D072A060FCF73C
:1039500019FE34602E46B7E70348346000F084FB5C
:103960000C233B60D8E700BFF8090020DC8600008C
:103970000100FFFF014800F06FBB00BFF809002005
:10398000014800F071BB00BFF8090020014800F0B9
:1039900063BB00BFFC090020014800F065BB00BF0D
:1039A000FC09002008B5054800F056FB044B05490A
:1039B0001868BDE8084000F0F7BA00BFF809002019
:1039C0000C0000202537000008B5054B0549186894
:1039D00000F0EAFABDE80840034800F045BB00BF2C
:1039E0000C00002041370000F809002038B5084BD2
:1039F000084D5B1B9C1007D0043B1D44013C55F84F
:103A000004399847002CF9D1BDE8384004F0CEBC09
:103A1000C4090020C0090020F8B50C46234F064613
:103A200000F0AAFFBB685D68C4F57E6325F003055E
:103A30000F332B4423F47F6323F00F03A3F580544B
:103A4000B4F5805F07DB0021304601F0FBFEBB6868
:103A50002B44984204D0304600F094FF0020F8BD7B
:103A60003046614201F0EEFE01300DD0104ABB68D5
:103A70002D1B45F001055D60136830461B1B13606C
:103A800000F080FF0120F8BD0021304601F0DAFE91
:103A9000BA68831A0F2BDEDD43F001035360054B38
:103AA00003491B68C01A0860D5E700BF3C0400202A
:103AB000040A00204408002000295ED0F8B50C4616
:103AC000064600F059FF54F8042C784FA4F108057D
:103AD00022F001016818D7F808C04368844523F034
:103AE000030300F08780D207436034D454F8082CD5
:103AF00007F10804AD1A1144AA68A24268D000EB8D
:103B0000030CDCF804E0D5F80CC01EF0010FC2F87D
:103B10000CC0CCF8082000F0918041F001036B60EC
:103B20000160B1F5007F31D24A09CB0801219140F3
:103B30007A6801331143796007EBC30257F83310F9
:103B4000083AC5E9021247F83350CD603046BDE867
:103B5000F84000F017BFC2185268D2070ED41944BB
:103B600007F108048368A34270D0C268DA609360EA
:103B700041F001036B606950D3E7704741F00103E6
:103B8000B1F5007F44F8043C0160CDD3B1F5206F5E
:103B90004FEA512347D28B0903F1390003F1380270
:103BA000C300F818FB580838984258D05A6822F0D9
:103BB00003028A4202D99B689842F7D1D868C5E9C6
:103BC000023085603046DD60BDE8F84000F0DABEC6
:103BD000C2185268D20763D40B44D0E90212CA60FB
:103BE000916043F001026A603046EB50BDE8F84056
:103BF00000F0C8BE0B44D10707D454F8082CAD1A06
:103C00001344D5E90212CA60916043F001026A6070
:103C1000274ABD6012689A4298D8264B30461968E8
:103C2000FFF7FAFE92E7142B0AD9542B1FD80B0B7F
:103C300003F16F0003F16E02C300B2E7194491E78C
:103C400003F15C0003F15B02C300AAE741F001034A
:103C5000C7E90455C5E902446B60695076E7012164
:103C6000921001FA02F279680A437A60A7E7B3F585
:103C7000AA7F06D8CB0B03F1780003F17702C300CB
:103C80008FE740F25452934206D88B0C03F17D002B
:103C900003F17C02C30084E74FF47E737E2280E749
:103CA00041F001036B60016050E700BF3C0400205D
:103CB00048080020340A00209368002B00F0B780E9
:103CC0002DE9F04FB1F90C300C4619078046174624
:103CD00083B098B225D523691BB310F002033D6869
:103CE0002DD04FF0000B5E46DFF8B8A2002E00F09A
:103CF0008B80564533465A4628BF53464046E169B5
:103D0000D4F824C0E047002840F38780BB68834490
:103D10001B1A361ABB60002BE8D1002003B0BDE8A7
:103D2000F08F21464046FEF723FB002840F0368105
:103D3000B4F90C303D6898B210F00203D1D110F004
:103D4000010976D14E46002E5AD08205D4F808B02B
:103D500040F1B580B3455A4600F2CD8010F4906F23
:103D600000F0CB8023682169A3EB010B636903EBAF
:103D7000430A0AEBDA7A0BF101034FEA6A0A334489
:103D80005345524684BF9A465246430540F1EA8065
:103D90001146404600F00AFA002800F0F9805A4621
:103DA0002169019000F0F6FCA289019B22F4906247
:103DB00042F08002A28103EB0B0023613246AAEBA2
:103DC0000B03B346C4F814A0A3602060B2460026DB
:103DD0004946019200F054FDA3682168019AA3EBC3
:103DE0000B030A44A3602260B868D144A0EB0A0028
:103DF000B860002891D0B4F90C0080B2002EA4D194
:103E0000D5E9009608359EE7D5E900B608356DE797
:103E100021464046FFF718FC80B3B4F90C304FF050
:103E2000FF3043F04003A38103B0BDE8F08F0020D2
:103E300070471E46AA46994618461D4656B30028A6
:103E400032D04A4620682169B24228BF32468842B1
:103E5000636904D9A16803EB010B5A4574DC9342F2
:103E600065DC2A464046E169D4F824C0E047B0F159
:103E7000000BD2DDB9EB0B09CAD00120BB685D4451
:103E8000A3EB0B03A6EB0B06BB60002B3FF445AF87
:103E9000002ED4D10AF1080353F8046C9A4653F863
:103EA000085C0833002EF7D032460A21284600F07D
:103EB00029FC002869D00130A0EB0509C1E7206882
:103EC000236998421BD86369B34218D86FF0004C3D
:103ED000B44528BFB4469CFBF3FC4A4603FB0CF3F5
:103EE0004046E169D4F824C0E047B0F1000A94DD0F
:103EF000A6EB0A0678E7B3463246206866E7B34584
:103F0000DA4628BFB2464946524600F0B9FCA368DB
:103F10002268A3EB0A035244A3602260002BE7D17E
:103F200021464046FFF790FB0028E1D075E729467F
:103F30009346019200F0A4FCA368019A9B1AA36027
:103F400023681A44226095E729465A4600F098FCF7
:103F5000236821465B4440462360FFF775FB002839
:103F600088D05AE7404601F047FA034600287FF41C
:103F700022AF40462169FFF79FFD0C22B4F90C30B7
:103F8000C8F8002023F0800349E7721C914659E7E6
:103F90000C22B4F90C30C8F8002040E74FF0FF3095
:103FA000BCE600BF00FCFF7F2DE9F04100268846FB
:103FB00000F53877D7E90154013D0ED4A389013DBE
:103FC000012B06D9B4F90E30013302D02046C04788
:103FD00006436B1C04F16804F0D13F68002FE9D15F
:103FE0003046BDE8F08100BF2DE9F8434FF00009ED
:103FF0000746884600F53876D6E90154013D10D4CD
:10400000A389013D012B08D9B4F90E30013304D046
:1040100021463846C04749EA00096B1C04F1680490
:10402000EED13668002EE7D14846BDE8F88300BFE0
:10403000F0307047004870473C0900200048704746
:104040003C090020704700BF704700BF704700BFA9
:10405000704700BF704700BF704700BF0120704726
:1040600001207047704700BF704700BF2DE9F04145
:104070008B890C46990796B008D5012204F14303B9
:10408000C4E90432236016B0BDE8F081B4F90E1023
:104090000646002927DB6A4602F0D4FD002821DB12
:1040A000019D4FF4806805F47045A5F50055B5FAFB
:1040B00085F54FF400676D094146304600F076F80B
:1040C000B4F90C30F0B1204A43F08003F263C4F835
:1040D0001480A3812060206135BB3B43A38116B0CF
:1040E000BDE8F081A38913F0800519D04FF0400896
:1040F00030464146002500F059F82F46B4F90C30FF
:104100000028E0D19A05BED4012123F0030304F175
:10411000430243F00203C4E90421A3812260B2E711
:104120004FF480682F46C7E73046B4F90E1002F00E
:104130009DFD10B9B4F90C30CFE7A38923F0030338
:1041400043F001031BB2C8E71937000070B50C46F5
:10415000B1F90E10154600291E4696B014DB6A46CA
:1041600002F070FD00280FDB019A4FF4806302F427
:104170007042A2F50052B2FA82F24FF40060520986
:1041800032602B6016B070BD0023B4F90C103360A0
:1041900011F0800004D0402218462A6016B070BD8D
:1041A0004FF480632B6016B070BD00BF2DE9F04F57
:1041B00001F10B05162D064683B025D8102900F213
:1041C000B88000F0D9FB102518224FF0020CB54F33
:1041D0003A445368A2F108018B4200F0B7805A6854
:1041E000D96822F003021A449C683046E1608C6072
:1041F000516803F1080441F00101516000F0C2FB75
:10420000204603B0BDE8F08F35F0070500F191803E
:10421000A94200F28E8000F0AFFBB5F5FC7FC0F044
:1042200094816B0A00F08C80042B00F26A81AB0948
:1042300003F1390C03F138044FEACC00994F3844AC
:1042400043680838984206D10CE0002980F22681A4
:10425000DB68984206D05A6822F00302511B0F29EE
:10426000F3DDA4463C69DFF840E274457AD0626829
:1042700022F00302531B0F2B00F37681002BC7E9BA
:1042800004EE80F26781B2F5007F80F01981012190
:10429000D30852090B4491407A6857F833000A4317
:1042A00007EBC3010839A060E1607A6047F833404A
:1042B000C46001214FEAAC039940914259D81142A0
:1042C00006D12CF0030C490011420CF1040CFAD079
:1042D00007EBCC0948466446D0F80C80404508D12D
:1042E0001CE1002B80F22181D8F80C80404500F0C1
:1042F0001581D8F8042022F00302531B0F2BF0DDA8
:1043000008EB050145F00105C8F804503046D8E92E
:104310000264F460A66043F00104C7E904114C6034
:10432000C1E902EE48F8023000F02CFB08F1080465
:1043300002E00C2300243360204603B0BDE8F08F78
:104340004FF400704FF0400C3F2477E7D3689A4257
:1043500008BF0CF1020C7FF442AF3C69DFF848E182
:10436000744584D101217A684FEAAC0399409142A7
:10437000A5D9BC68636823F003094D4503D8A9EBB0
:1043800005030F2B7ADCDFF824B1494BDBF8002062
:104390001B6801322B4404EB090A00F02F8103F55E
:1043A00080530F3323F47F6828F00F0841463046CE
:1043B00001F048FA411C024600F0EF80824500F20D
:1043C000EA803C4B196841440846196000F0498175
:1043D000DBF80010019301311BBFA2EB0A0A504425
:1043E000CBF80020186012F0070B00F01181CBF120
:1043F00008010A44CBF5805190440831A1EB080133
:10440000C1F30B0A51463046009201F01BFA421CE0
:10441000DDE9002300F04B81801A00EB0A081968DF
:1044200048F001005144BC42BA601960506000F08D
:104430002481B9F10F0F40F222814FF0050E606820
:10444000A9F10C0C2CF0070C00F0010040EA0C0064
:104450006060BCF10F0F04EB0C00C0E901EE00F24C
:104460002E8114465068144B1A688A4238BF19606E
:10447000124B1A688A4238BF196090E0621943F003
:10448000010345F0010565603046BA6008345360A9
:1044900000F078FA204603B0BDE8F08FD9681A44DE
:1044A000A2E600BF3C040020440400204408002091
:1044B000340A0020040A00202C0A0020300A0020C0
:1044C000B2F5206F4FEA52235FD3142B00F2B18074
:1044D00003F15C01C9005B337818795808388842C9
:1044E00000F08F804B6823F00303934202D9896860
:1044F0008842F7D1C8687A68C4E902108460CC6049
:10450000D7E6142B59D9542B00F29B802B0B03F1C7
:104510006F0C03F16E044FEACC008FE60134A30761
:1045200000F108007FF4D8AE53E04446424453689B
:10453000D8F80C1043F00103536054F8083F30469C
:10454000D9608B6000F01EFAF6E64FEAD50C05F153
:1045500008023CE622445368304643F001035360AE
:1045600000F010FA0834E7E6611945F001056560CE
:1045700043F00105C7E904113046C1E902EE4D6080
:10458000A35000F0FFF90834D6E6930903F139018E
:10459000C9003833A0E7BC425ED0BC68606820F038
:1045A00003084545A8EB050302D80F2B3FF766AF7C
:1045B000304600F0E7F90024BEE603F15C0C03F19D
:1045C0005B044FEACC0039E659F808394B4540F016
:1045D00095801CF0030F0CF1FF3CF5D17B6823EABA
:1045E00001037B60490099423FF6C3AE11B9C0E6B2
:1045F000490004341942FBD0A44669E603F11008CF
:10460000D4E601229B109A407B681A437A6073E7D4
:1046100002EB08014942C1F30B0A514630460092B1
:1046200001F010F9431CDDE900237FF4F5AEDA4612
:10463000F5E6542B26D8130B03F16F01C9006E3336
:104640004AE7B3F5AA7F26D8EB0B03F1780C03F108
:1046500077044FEACC00F1E5294B18684044186014
:10466000B6E6CAF30B0CBCF1000F7FF4B1AEBC6828
:10467000C84448F001006060F5E61446F3E6012303
:10468000536095E7B3F5AA7F24D8D30B03F17801E3
:10469000C900773320E740F25452934224D8AB0C40
:1046A00003F17D0C03F17C044FEACC00C6E5ABF1CD
:1046B000080BD8444FF0000AA8EB0208AFE604F15B
:1046C000080130460093FFF7F7F9BC68009B60686B
:1046D0001968C8E640F254518B420BD8930C03F191
:1046E0007D01C9007C33F7E64FF47E704FF07F0CFC
:1046F0007E24A3E54FF47E717E23EDE67B6871E7AF
:10470000040A00205FFA81FC810710D00346511E85
:104710002AB90AE09A0718460AD0013905D3184683
:1047200013F8012B6245F5D1704700207047114600
:1047300003290CD80029F8D00346014401E08B423C
:10474000F3D0184613F8012B6245F8D1ECE7024686
:1047500010B54CEA0C2444EA0444104603680432C1
:104760006340A3F1013E2EEA030313F0803F04D11E
:10477000043903291046F0D851B10346014401E041
:104780008B4205D0184613F8012B6245F8D110BDB5
:10479000002010BD844641EA000313F0030349D111
:1047A000403A23D30B6803604B6843608B68836097
:1047B000CB68C3600B6903614B6943618B6983619B
:1047C000CB69C3610B6A03624B6A43628B6A836283
:1047D000CB6AC3620B6B03634B6B43638B6B83636B
:1047E000CB6BC36340304031403ADBD230320BD325
:1047F0000B6803604B6843608B688360CB68C36061
:1048000010301031103AF3D20C3205D351F8043B7A
:1048100040F8043B043AF9D2043208D0D2071CBF56
:1048200011F8013B00F8013B01D30B88038060467F
:10483000704700BF082A13D38B07B1D010F00303D1
:10484000AED0C3F10403D21ADB071CBF11F8013B41
:1048500000F8013BA4D331F8023B20F8023B9FE76C
:10486000043AD9D3013A11F8013B00F8013BF9D2DF
:104870000B7803704B7843708B7883706046704779
:1048800088420DD98B1883420AD900EB020CBAB1C9
:10489000624613F801CD994202F801CDF9D1704773
:1048A0000F2A0ED8034602F1FF3C4AB10CF1010C6D
:1048B000013B8C4411F8012B614503F8012FF9D11C
:1048C000704740EA01039B074FD1A2F1100370B576
:1048D00001F1200C23F00F0501F1100E00F110047E
:1048E000AC441B095EF8105C0EF1100E44F8105C2D
:1048F0005EF81C5C103444F81C5C5EF8185C44F8EC
:10490000185C5EF8145CE64544F8145CEAD10133A7
:1049100012F00C0F01EB031102F00F0400EB031374
:1049200027D08E46043C24F003064FEA940C1E4424
:104930001C1F5EF8045B44F8045FB442F9D10CF12B
:10494000010402F0030203EB840301EB840102F192
:10495000FF3C4AB10CF1010C013B8C4411F8012BD6
:10496000614503F8012FF9D170BD034602F1FF3C08
:104970009CE72246EBE700BF0148FFF76DBB00BF95
:10498000F40900200148FFF76FBB00BFF4090020C5
:1049900038B5C36C05460C464BB153F8240080B1C2
:1049A000026843F824200023C0E9033338BD2122E4
:1049B000042101F0B7FF0346E8640028EDD1002090
:1049C00038BD0121284601FA04F56A1D920001F064
:1049D000A9FF0028F3D0C0E90145E4E731B1C36C79
:1049E0004A6853F82200086043F82210704700BF5D
:1049F0002DE9F0414FF0000E0E461C460D690746AA
:104A000001F1140001680EF1010E8BB202FB0343A9
:104A1000090C4FEA134C02FB01CC9BB203EB0C4395
:104A2000754540F8043B4FEA1C44EBDC3CB1B368ED
:104A3000AB4207DD06EB850301355C61356130462D
:104A4000BDE8F081716838460131FFF7A1FF80466B
:104A5000A8B1326906F10C01023292000C30FFF766
:104A600099FEFB6C726853F82210316043F82260A3
:104A7000464606EB850301355C613561DFE702469A
:104A8000B521024B024801F027FF00BF5487000008
:104A9000E88700002DE9F8431E46DFF8A0C017465E
:104AA00003F108028CFB023C092E4FEAE273054633
:104AB0000C46C3EB6C0339DD4FF0010C00214FEACB
:104AC0004C0C634501F10101F9DC2846FFF760FF5A
:104AD000014668B3089B092F43614FF0010303614E
:104AE00012DC09270A34BE420BDDF61B264414F8FB
:104AF000013B0A222846303BFFF77AFFA6420146D7
:104B0000F5D10846BDE8F88304F10909C8463C44DC
:104B100018F8013B0A222846303BFFF769FFA04501
:104B20000146F5D1A7F108044C44DCE70021CCE7AD
:104B30000246CE21024B034801F0CEFE398EE33807
:104B400054870000E8870000020C12040346CAB92B
:104B50001020834013F07F4F04BF1B02083013F076
:104B6000704F04BF1B01043013F0404F04BF9B0083
:104B70000230002B05DB13F0804F00F1010008BF6D
:104B8000202070470020E5E70368024613F0070085
:104B900009D0D9071FD498074BBF5B089B08012099
:104BA00002201360704799B209B91020C340D9B2EE
:104BB00009B908301B0A190704BF1B0904309907FB
:104BC00004BF9B080230D90703D45B0800F1010041
:104BD00003D013607047002070472020704700BF4B
:104BE00038B5C36C04460D464BB15868B0B1026885
:104BF0005A60002201234561C0E9032338BD212208
:104C0000042101F08FFE0346E0640028EDD100226C
:104C10004FF4A071074B084801F05EFE1C220121F1
:104C2000204601F07FFE0028F1D001220223C0E9D6
:104C30000123DEE754870000E88700002DE9F04FEC
:104C40000E6915698846AE42144685B005DB2A46D2
:104C5000234635460C4616469846A3686168AF1948
:104C6000BB42B8BF0131FFF793FE0190002800F06E
:104C70008780019B03F1140909EB870AD14505D20E
:104C80004B46002243F8042B9A45FBD808F1140840
:104C900008EB860B04F11403D8451A4603EB85058F
:104CA0005FD22B1B153B23F0030304331534A542BD
:104CB00038BF0423CDE902A7AC461F46924605E063
:104CC000000C29D1C34509F1040948D958F8040B4F
:104CD00085B2002DF4D056464C46002356F8040BFE
:104CE000216882B21FFA81FE05FB02EE000C0A0C5D
:104CF00005FB0022734402EB13429BB243EA0243DA
:104D0000B44544F8043B4FEA1243E7D849F807306A
:104D100058F8040C000CD5D0D9F800305446194688
:104D20004D4600222688090C00FB06119BB20A445E
:104D300043EA024345F8043B54F8046B2968360CF7
:104D40008BB200FB0633A44503EB12434FEA134238
:104D5000E8D8C34549F8073009F10409B6D8DDE9B8
:104D600002A7002F02DC05E0013F03D05AF8043D02
:104D7000002BF9D0019B18461F6105B0BDE8F08FEC
:104D8000024640F25D11024B024801F0A5FD00BF52
:104D900054870000E887000012F003032DE9F0417A
:104DA000144607462ED10E46A4101CD0BD6C95B3F8
:104DB000E3074FF0000806D4641014D02868A8B1A7
:104DC0000546E307F8D52A4631463846FFF736FF51
:104DD000B6B17168FB6C641053F82120326043F85F
:104DE00021600646EAD13046BDE8F0812A462946D0
:104DF0003846FFF723FF28600546C0F80080E0E74B
:104E00000646D9E70F4A013B52F823200023FFF75B
:104E1000EFFD0646C8E701213846FFF7B9FD054614
:104E200040B140F271230122C0E904230023B86499
:104E30000360BDE702464FF4A071034B034801F045
:104E40004BFD00BF8089000054870000E887000008
:104E50002DE9F0470C462669A36806EB6216751C1F
:104E60009D429046074649684FEA621904DD5B009F
:104E70009D4201F10101FADC3846FFF789FD002867
:104E800051D0B9F1000F00F114010FDD0B464FF0C6
:104E9000000C09F105024FEA820E00EB820243F892
:104EA00004CB9342FBD1AEF114031944226904F1FF
:104EB000140318F01F0803EB820C2CD08E464FF021
:104EC000000AC8F120091A6802FA08F242EA0A0246
:104ED0004EF8042B53F8042B9C4522FA09FAF2D819
:104EE000ACEB0403153B23F00303043304F1150278
:104EF000944538BF0423BAF1000F18BF2E4641F87D
:104F000003A0FB6C6268066153F82210216043F82D
:104F10002240BDE8F087043953F8042B9C4541F842
:104F2000042FF9D8EDE7024640F2D911014B0248AF
:104F300001F0D2FC54870000E887000084460B692A
:104F40000069C01A15D10CF1140C14310CEB83025A
:104F500010B401EB830301E0944508D252F8044DEC
:104F600053F8041D8C42F7D004D24FF0FF3010BC30
:104F700070477047012010BC704700BF2DE9F84F03
:104F80000C6913698946E41A002C17467DD101F19A
:104F90001406143202EB830206EB830301E09E4207
:104FA00076D253F8045D52F8041D8D42F7D067D3D2
:104FB000D9F80410FFF7ECFC002873D0D9F8105092
:104FC000C46000F1140426464FF0000A3B6909F161
:104FD000140807F1140E09F1100C08EB85020EEB12
:104FE00083095CF804BF5EF8041B1FFA8BF353447B
:104FF0001FFA81FA090CA3EB0A03C1EB1B4101EB79
:1050000023419BB243EA0143F14546F8043B4FEA92
:10501000214AE6D8A9EB070115391537B94521F022
:10502000030606F1040638BF042621F0030138BF49
:105030000021B044424526440C4418D93746444622
:1050400054F8041B8BB253444FEA234A0AEB114134
:105050009BB243EA0143A24247F8043B4FEA214A8C
:10506000EED8541EA4EB080424F00304344423B9FE
:1050700054F8043D013D002BFAD00561BDE8F88FDE
:105080004B460124B9461F4692E7F9DB00248FE71F
:105090000021FFF77DFC60B101220023C0E9042359
:1050A000BDE8F88F02464FF41071054B054801F03A
:1050B00013FC024640F23221014B024801F00CFC85
:1050C00054870000E88700000F4B0B40A3F150739A
:1050D000002B02DD0020194670475B42B3F1A07F30
:1050E0004FEA235205DA4FF40023002043FA02F17D
:1050F0007047143A1E2AD6BF4FF00043012223FA0C
:1051000002F20021104670470000F07F2DE9F041C7
:10511000076900F1140606EB87070C4657F8041CD4
:10512000A7F104080846FFF70FFDC0F120030A2885
:10513000236036DD46451ED2B0F10B0357F8082C2C
:1051400026D0C3F1200C994022FA0CF00843A7F1B5
:10515000080140F07F558E4245F440153AD202FADC
:1051600003F057F80C3C23FA0CF303431C4620468B
:105170002946BDE8F081B0F10B0308D001FA03F035
:10518000002340F07F551C4645F44015EFE71A46D2
:10519000144641F07F5545F4401520462946BDE8A8
:1051A000F081C0F10B0321FA03F2464542F07F552E
:1051B0002CBF002257F8082C45F4401538BFDA40C0
:1051C00000F1150301FA03F343EA020420462946DD
:1051D000BDE8F08102FA03F31C46C8E770B501216F
:1051E00082B016461D46FFF7D3FB044600284CD07C
:1051F0002B46C5F30A55C3F313030DB143F48013D3
:10520000002E019322D068460096FFF7BDFC0028CF
:1052100037D0019B0099C0F1200203FA02F20A4341
:10522000C34001936261002B14BF02210121A361DD
:105230002161B5B1069BA5F2334505441D60079B6E
:10524000C0F135001860204602B070BD01A8FFF71C
:105250009BFC0123019A1946626120302361002DD5
:10526000E8D104EB8102A0F232431069069A136080
:10527000FFF76AFCC0EB41112046079B196002B0A2
:1052800070BDDDE900236261CDE7024640F20A31DC
:10529000014B024801F020FB54870000E887000022
:1052A0002DE9F04383B0884669468146FFF72EFF1B
:1052B00004460D46404601A9FFF728FFD9F81030F3
:1052C000D8F810200F469A1ADDE90063F31A03EBB1
:1052D0004213002B0CDD05EB035906464D463246C2
:1052E0003B462046294602F0E1FC03B0BDE8F083CE
:1052F000C3EB033301EB035106460F46EFE700BF54
:10530000172870B506460ADD002000240749084D1D
:1053100022462B4602F0A0FB013EF9D170BD054BA1
:1053200003EBC006D6E9000170BD00BF0000F03FEE
:10533000000024409088000001F1FF3C116902F157
:1053400014034FEA6C1C03EB81010CF1010C8B423E
:1053500000EB8C0C16D210B5A0F1040E53F8044BE0
:1053600099424EF8044FF9D88B1A153B23F00303EA
:1053700004331844844504D9002340F8043B844591
:10538000FBD810BD844505D9002340F8043B844573
:10539000FBD87047704700BF03694A11934200F180
:1053A000140009DA00EB830302E053F8042DC2B9BC
:1053B0008342FAD80020704710DD11F01F010DD094
:1053C00010B450F8224000EB820324FA01F202FAF2
:1053D00001F18C420BD0012010BC704700EB82031E
:1053E000E6E70120704753F8042D002AF3D18342E9
:1053F000F9D8002010BC70472DE9F84F1646002957
:1054000000F0988006F10B0580460C46FFF7B4FAD1
:10541000162D5DD810252A46AE425ED854F8041CDD
:10542000A4F1080921F00307974262DABC4B09EBAB
:105430000700D3F808C0844500F09780D0F804C076
:105440002CF0010303445B68DB0768D42CF0030CE9
:1054500007EB0C03934247DACB0710D454F8083C0F
:10546000A9EB030ADAF8043023F003018C44BC44AE
:10547000944580F211817B18934280F2E880314696
:105480004046FEF793FE0646E0B154F8043CA0F116
:10549000080223F001034B44934200F0D2803A1FEC
:1054A000242A00F2F580132A00F2AC80034622463B
:1054B000116819605168596092689A6021464046A7
:1054C000FEF7FAFA4046FFF75DFA3046BDE8F88F7E
:1054D00025F00705002D2A469EDA0C230026C8F881
:1054E00000303046BDE8F88F1F46D0E90223D36074
:1054F0009A607B1B0F2B22D8D9F8043003F00103EC
:105500003B43C9F804304F447B6843F001037B60A0
:1055100026464046FFF736FA3046BDE8F88FC90701
:10552000ADD454F8083CA9EB030ADAF8041021F0D2
:105530000301A0E71146BDE8F84FFEF737BED9F8E2
:10554000041043F0010301F001012943C9F80410DC
:1055500009EB05014B604F447B68404643F0010373
:1055600008317B60FEF7A8FAD2E7DCF8040020F0EF
:10557000030B07EB0B0C05F1100084454DDAC9074E
:105580003FF57DAF54F8081CA9EB010ADAF80410C6
:1055900021F003018B44BB4458453FF76CAF56469E
:1055A000DAF80C1056F8080F3A1F242AC1608860F8
:1055B00000F2DB80132A40F2D68021681B2ACAF849
:1055C00008106168CAF80C1000F2E08008340AF193
:1055D00010022168116061685160A1689160ABEBB5
:1055E00005020AEB050142F0010299604A60DAF80F
:1055F0000430404603F001031D43CAF80450FFF78E
:10560000C1F96EE723681B2A03606368436068D8AA
:1056100004F1080200F108034AE709EB0502ACEBCC
:10562000050C9A604CF00103536054F8043C40466A
:1056300003F001031D4344F8045CFFF7A3F9264679
:105640004FE750F8043C23F003031F4451E756464C
:10565000DAF80C1056F8080F3A1F242AC160886047
:105660004CD8132A48D921681B2ACAF80810616847
:10567000CAF80C1056D808340AF110021F462368E5
:10568000D146136063685360A3683446936030E783
:105690002146FFF7F5F811E75646D0E90213CB6033
:1056A000996056F8081FDAF80C303A1F242ACB60AC
:1056B00099602DD8132A29D923681B2ACAF80830E3
:1056C0006368CAF80C3042D808340AF11003226823
:1056D00067461A606268D1465A60A26834469A608A
:1056E00007E7A368242A8360E368C36026D004F137
:1056F000100200F11003DBE63246BFE721463046D8
:105700001F46D146FFF7BCF83446F2E63346DEE7E3
:10571000214630466746D146FFF7B2F83446E8E600
:105720003C040020A168242ACAF81010E168CAF8D5
:10573000141020D010340AF118029FE7236904F1F5
:10574000180203616369436100F11803B0E6A368BE
:10575000242ACAF81030E368CAF8143022D0103472
:105760000AF11803B3E7324633E721463046FFF724
:1057700087F8174B33E722691834CAF8182054F811
:10578000042CCAF81C200AF1200277E7A168242A19
:10579000CAF81010E168CAF814100ED010340AF1DB
:1057A000180216E723691834CAF8183054F8043C74
:1057B000CAF81C300AF1200389E722691834CAF8B4
:1057C000182054F8042CCAF81C200AF1200200E723
:1057D0003C040020F8B50027DFF85CC021F000434E
:1057E000634504460D46176023DC844653EA0C0CDF
:1057F0001FD0DFF848C0164601EA0C0C0A46BCF17F
:10580000000F09D100220E4B02F026F96FF0350788
:1058100004460A4621F0004322F0FF421B1522F401
:10582000E002A3F2FE333B4442F07F55336045F47F
:10583000001520462946F8BDFFFFEF7F0000F07FEE
:1058400000005043002238B5064D044608462A6041
:1058500002F096FD431C00D038BD2B68002BFBD016
:10586000236038BD3C0A002010B50C46B1F90E107B
:1058700001F08AFA002803DB236D0344236510BD81
:10588000A38923F48053A38110BD00BF002070477B
:105890002DE9F0410C46B1F90C101F46CB05054629
:1058A00016460BD421F48051A1813B46324628464E
:1058B000B4F90E10BDE8F04100F0B2BFB4F90E101B
:1058C0000223002201F02AFAB4F90C10EAE700BF23
:1058D00010B50C46B1F90E1001F020FAA389421C54
:1058E0000EBF23F4805343F480532065A38110BD81
:1058F000B1F90E1001F046B830B540EA0104A30733
:1059000022D1032A20D90B468446194653F8045B5A
:10591000A5F1013424EA050414F0803F15D1043ABE
:10592000032A19464CF8045BEFD801F1FF3E52B14F
:1059300063461EF8011F541E03F8011B41B12246A5
:105940009C46002AF4D130BD844601F1FF3EEEE7CB
:105950006244002CF7D003F8011B9342FBD130BD09
:105960002DE9F84F4B6E90469C042DD59368126834
:1059700043B38B46064602F1080959E9025A5FEA29
:105980009A0715D00024043D01E0A7420ED05A46E4
:10599000304655F8041F01F0E7F8431C04F10104F8
:1059A000F3D10023C8E90133BDE8F88FD8F80830F7
:1059B0002AF0030AA3EB0A03C8F8083009F1080922
:1059C000002BDAD10020ECE7FEF776F90023C8E9D6
:1059D0000133BDE8F88F00BF10B4946814B110BC57
:1059E000FFF7BEBF2046546010BC70472DE9F04F52
:1059F000BDB01C461746CDE90530029118B1836B46
:105A0000002B00F07782029A536EDE0740F184810A
:105A1000B2F90C108AB2900408D441F400520299F1
:105A20004B6E8A8123F4005392B24B66110740F10A
:105A3000EC80029B1B69002B00F0E78002F01A0348
:105A40000A2B00F0F08013AB10930023CDE9113343
:105A5000CDE90933CDE90B330DF14C0904933B78C3
:105A6000002B00F046813C4604E014F8013F002B77
:105A700000F02181252BF8D1E51B40F01E81237811
:105A8000002B00F036814FF0000300254FF0FF3B64
:105A90004FF02B088DF83B3063780395671C013776
:105AA000A3F120025A2A00F24681DFE812F0A10297
:105AB000440144019D024401440144017C0244012B
:105AC00044016A00530244012902AF024401AB02BF
:105AD0005B005B005B005B005B005B005B005B00EE
