:020000040001F9
:10000000000007207D010000C1010000C3010000C5
:10001000C5010000C7010000C90100000000000088
:10002000000000000000000000000000CB01000004
:10003000CD01000000000000CF010000D101000050
:10004000D3010000D5010000D7010000D901000054
:10005000ED0C0000DD010000DF010000E101000007
:10006000E3010000E5010000E701000000000000DE
:10007000E9010000EB010000ED010000EF010000CC
:10008000F1010000F3010000F5010000F70100009C
:10009000F9010000FB010000FD010000FF0100006C
:1000A0000102000003020000050200000702000038
:1000B000090200000B0200000D0200000F02000008
:1000C00010B5054C237833B9044B13B10448AFF392
:1000D00000800123237010BDD00900200000000023
:1000E00058F0000008B5034B1BB103490348AFF3B8
:1000F000008008BD00000000D409002058F0000076
:10010000A3F5803A704700BF174B002B08BF134B75
:100110009D46FFF7F5FF00218B460F461348144A12
:10012000121A04F0F7FC0E4B002B00D098470D4B31
:10013000002B00D098470020002104000D000D483E
:10014000002802D00C4808F091FC04F0FFF92000D0
:10015000290000F0F7FD03F0F1FD00BF00000800EA
:10016000000000000000000000000720D00900206F
:10017000D40A00206D8A00007D9B00000A490B4ACA
:100180000B4B9B1A03DD043BC858D050FBDC0949DC
:10019000094A00209142BCBF41F8040BFAE7074826
:1001A0008047FFF7B1FF000064F00000000000206E
:1001B000D0090020D0090020D40A002031350000E9
:1001C000FEE7FEE7FEE7FEE7FEE7FEE7FEE7FEE707
:1001D000FEE7FEE7FEE7FEE7FEE7FEE7FEE7FEE7F7
:1001E000FEE7FEE7FEE7FEE7FEE7FEE7FEE7FEE7E7
:1001F000FEE7FEE7FEE7FEE7FEE7FEE7FEE7FEE7D7
:10020000FEE7FEE7FEE7FEE7FEE7FEE7FEE7FEE7C6
:1002100038B505461B200C4604F002FDBFF36F8F76
:10022000BFF36F8FBFF36F8F1148294604F0E0FCD6
:10023000104811490368A1FB03231B0B04FB03F3C4
:100240005BB10022BFF36F8F03680132A1FB035340
:100250001B0B04FB03F39342F4D81B2004F0E0FCD7
:10026000BFF36F8FBFF36F8FBFF36F8F38BD00BFCA
:1002700024E200000800002073B2E7452DE9F041B8
:1002800002F096FCB0F5907F80F0D1800A2004F057
:10029000C7FC02F053FB684804F018FD02F088FC2C
:1002A0000146664804F0A4FC02F08EFC0146644856
:1002B00004F09EFC02F09CFC074602F099FC064606
:1002C00002F096FC0346320ADBB239465D4804F080
:1002D0008FFC02F05FFC01465B4804F089FC02F0F1
:1002E0007DFE0146594C5A4D5A48002914BF2146FB
:1002F000294604F07DFC0A2004F092FC564804F0E4
:10030000E5FC02F0B1FC01465448002914BF29461F
:10031000214604F06DFC02F0ADFC0146504BDFF8C5
:1003200044815148002914BF4146194604F060FC3D
:1003300002F0BEFC01464D4804F05AFC02F0CCFC31
:100340004B4A4C49002818BF11464B4804F050FC5A
:1003500002F0D6FC0146494804F04AFC02F0E4FCF5
:100360000146474804F044FC0A2004F059FC454883
:1003700004F0ACFC02F050FD01464348002914BFD4
:100380002946214604F034FC4146404804F030FC44
:1003900002F068FD01463E4804F02AFC02F074FDBC
:1003A00001463C4A3C4B3D48002914BF11461946C2
:1003B00004F01EFC0A2004F033FC394804F086FCEB
:1003C00002F0D4FB0146374804F012FC02F064FD51
:1003D0000146354804F00CFC02F0A4FD0146334808
:1003E00004F006FC02F076FD0146314804F000FC02
:1003F00002F0B8FD01462F4804F0FAFB02F0C6FDFA
:1004000001462D48002914BF2946214604F0F0FB7F
:1004100002F0D0FD01462948002914BF2946214693
:1004200004F0E6FBBDE8F0410A2004F0F9BB2448E3
:10043000BDE8F04104F04ABCB0E20000C0E20000B8
:10044000DCE20000FCE2000028E3000028E20000FB
:1004500034E2000044E3000060E3000070E30000C9
:1004600044E200003CE200008CE30000A8E300004E
:1004700050E2000058E20000C4E30000E0E30000A6
:10048000FCE300001CE400002CE4000044E4000055
:100490005CE400005CE2000060E2000074E4000044
:1004A0008CE400009CE40000B4E40000D0E4000010
:1004B000E8E4000000E500001CE5000034E5000071
:1004C00064E2000000222DE9F041A74FA7493B6CF0
:1004D00090B03846FA54884604F0C8FCADF10405E3
:1004E0002C4603460FAE44F8043F4146002004F07A
:1004F000BDFCA6420346F6D1009B1B78482B2DD0AD
:10050000492B20D09A4804F073FB9A4C55F8041FED
:1005100011B1204604F06CFBAE42F7D1964804F0CE
:10052000D5FB964B1B68986803F0D8FC042002F0BA
:10053000FDFE402200218C4804F0ECFA00233B64CD
:1005400010B0BDE8F081019B1B78412BDAD102F09D
:1005500075FD01468A4804F04BFBE2E7019B1B78DE
:10056000412B6CD0422B71D0432B5AD0442B7ED0E0
:10057000452B00F08A80462B6BD0492B00F09980E8
:100580004A2B00F0AA804B2B00F0B4804C2B00F0DB
:10059000DC804F2B00F01981502B00F03881512B5B
:1005A00000F0AB81522B00F08183532B00F0668367
:1005B000542B00F04D83552B00F04483562B00F054
:1005C0002B83572B00F09882582B00F08382592BF5
:1005D00000F074825A2B00F065825B2B00F0508291
:1005E0005C2B00F036825D2B00F020825E2B00F049
:1005F00011825F2B00F0E082602B00F0C782612B3C
:1006000000F0BE82622B00F0AF82632B00F0878186
:10061000642B7FF477AF029803F088FB02F074FA42
:100620007FE7029B1B78412B3DD0422B7FF46AAFC2
:1006300002F09CFA0146534804F0DAFA71E702F03E
:100640007DFA01464E4804F0D3FA6AE7FFF716FE3A
:1006500067E7029B1B78412B6FD0422B7FF452AF90
:1006600002F0B2FA0146474804F0C2FA59E7029B89
:100670001B78412B2BD0422B7FF444AF02F08AFA37
:100680000146404804F0B4FA4BE7029B1B78412B2B
:100690004DD0422B7FF436AF02F08AFA014639483A
:1006A00004F0A6FA3DE7039803F040FB02F052FA8B
:1006B00037E7029B1B78412B7FD0422B7FF422AF80
:1006C00002F096FA01462F4804F092FA29E70398BF
:1006D00003F02CFB02F052FA23E7029B1B78412B1C
:1006E00052D0422B00F0BE80432B7FF40BAF02F0C0
:1006F000C9FA16E7029B1B78412B00F0F080422BD1
:100700007FF40FAF039B1B78412B00F00E81422B2F
:1007100000F06F82432B00F06582442B7FF4F2AE31
:1007200002F03AFB0146174804F062FAF9E6039832
:1007300003F0FCFA02F036FAF3E6002203981146C1
:1007400004F04CFD02F03AFAEBE6029B1B78412BD9
:1007500000F0B480422B00F09F80442B7FF4D2AE97
:1007600002F068FBDDE600BFEC09002078E5000040
:1007700068E5000024E200007CE500001000002095
:100780004CE5000054E50000039B1B78412B00F072
:10079000CB81432B00F0C281442B00F0B981452B63
:1007A00000F0B081462B7FF4ADAE002204981146D4
:1007B00004F014FD02F0ACFAB3E6002203981146EF
:1007C00004F00CFD02F006FAABE6029B1B78412B0D
:1007D00031D0422B7FF496AE039B1B78412B00F067
:1007E0005382422B00F00F81432B00F00581442BF4
:1007F00000F0FB80452B00F0F180462B7FF482AEA9
:1008000002F0D8FB0146B94804F0F2F989E6029BF0
:100810001B78412B00F03F82422B7FF473AE039B89
:100820001B78412B7FF46EAE02F0D8FB0146AF4837
:1008300004F0DEF975E6039B1B78422B00F08E81F5
:10084000432B00F08581442B00F07A81452B00F08A
:100850007181462B7FF456AE049803F067FA02F0DC
:100860009DFB5EE6039B1B78412B00F0B080422B82
:1008700000F0A680432B00F09C80442B00F0928077
:10088000452B73D0462B7FF43DAE02F04DFA014666
:10089000974804F0ADF944E6039B1B78412B7AD0CE
:1008A000422B71D0432B68D0442B7FF42BAE02F047
:1008B000EBFA01468D4804F09BF932E6039B1B7866
:1008C000412B00F0A381432B00F09A81442B7FF44D
:1008D00019AE049803F02AFA02F0CAFA21E6039B43
:1008E0001B78422B00F0F881432B7FF40BAE049869
:1008F00003F01CFA02F03CFA13E6029B1B78412B32
:1009000026D0422B18D1039B1B78412B7FF4FAADE4
:1009100002F078FB0146754804F06AF901E6029896
:1009200003F004FA01F0BCFFFBE502F005FA014612
:100930006E4804F05DF9F4E5452B14D0462B7FF4A6
:10094000E1AD02F073FB0146684804F051F9E8E5B7
:10095000039B1B78412B7FF4D5AD049803F0E6F997
:1009600002F044FBDDE502F055FBDAE502F0C8F9E0
:1009700001465E4804F03CF9D3E502F073FA014603
:100980005A4804F035F9CCE502F04EFA01465748D2
:1009900004F02EF9C5E502F03FFA0146534804F091
:1009A00027F9BEE502F098F90146504804F020F915
:1009B000B7E502F07DF901464C4804F019F9B0E5BD
:1009C00002F058F90146494804F012F9A9E502F08D
:1009D0004BF90146454804F00BF9A2E502F0D6FABE
:1009E0000146424804F004F99BE502F0BBFA0146D7
:1009F000404804F0FDF894E502F094FA01463B48C3
:100A000004F0F6F88DE502F065FA0146374804F087
:100A1000EFF886E5029803F089F90446039803F09D
:100A200085F90146204601F0D5F87AE5029803F0F1
:100A30007DF90446039803F079F900220546114632
:100A4000049804F0CBFB29460246204601F0A4F8A6
:100A500067E5029803F06AF90446039803F066F923
:100A6000002205461146049804F0B8FB29460246C8
:100A7000204600F09DFB01461C4804F0B9F850E503
:100A8000029803F053F9002204461146039804F03B
:100A9000A5FB0146204600F03DFB0146154804F049
:100AA000A7F83EE5029803F041F90446039803F0E5
:100AB0003DF90146204600F01BFB32E5029803F0A9
:100AC00035F90446039803F031F90146204600F059
:100AD00063FC26E5029803F029F90446039803F025
:100AE00025F90146204600F06FFA1AE554E50000AA
:100AF00058E5000060E50000029803F017F900F0E7
:100B00001BFA0EE5049803F011F902F0EDF808E580
:100B1000049803F00BF902F0D3F802E5049803F00F
:100B200005F902F0B9F8FCE4049803F0FFF802F0CC
:100B30006BF8F6E4049803F0F9F802F01BFAF0E41D
:100B400000220498114604F049FB02F0FDF9E8E4A4
:100B5000049803F0EBF802F0CFF9E2E4049803F014
:100B6000E5F802F0A1F9DCE4029803F0DFF80446AE
:100B7000039803F0DBF80146204601F0DFFAD0E4E9
:100B8000029803F0D3F801F0A5FACAE4029803F042
:100B9000CDF80446039803F0C9F80546049803F01D
:100BA000C5F80646059803F0C1F8324603462946C3
:100BB000204601F093F9B4E4029803F0B7F8044634
:100BC000039803F0B3F80546049803F0AFF806461F
:100BD000059803F0ABF8324603462946204601F05B
:100BE00011F89EE402F0D0F801463E4804F000F807
:100BF00097E402F0B5F801463A4803F0F9FF90E4B3
:100C0000049803F093F802F023F98AE4049803F0BF
:100C10008DF802F0C7F884E4029803F087F80446E0
:100C2000039803F083F80546049803F07FF806461E
:100C3000059803F07BF8324603462946204600F02B
:100C40005FF96EE4029803F071F800F011F968E4BE
:100C5000029803F06BF80446039803F067F8054622
:100C6000049803F063F80646059803F05FF83246EF
:100C700003462946204600F0DFF852E4029803F0CC
:100C800055F800F091F84CE402F006F901461648D8
:100C900003F0AEFF45E4039B1B78412B7FF432AC9D
:100CA000049803F043F802F08DF93AE4029803F057
:100CB0003DF80446039803F039F80546049803F01C
:100CC00035F80646059803F031F8324603462946C2
:100CD000204600F04DF824E4049803F027F802F0D1
:100CE00033F81EE454E5000060E5000038B50A481A
:100CF0000A4C02F0CFFB0848256C02F0ADFB236CD8
:100D00006055E25C0A2A03D00AB10133236438BD7E
:100D1000BDE83840FFF7D6BB00600040EC0900207A
:100D200008B5064803F0D2FF1022054B04201A60D4
:100D3000C3F8802102F0FAFAFEE700BF88E5000060
:100D400000E100E008B502F0D5FA0A2003F068FFE0
:100D50000449054803F04CFF0A2003F061FFFFF748
:100D6000DFFF00BFACE50000B8E5000000000000B8
:100D700010B40C4C2468B4F800C0844509D04FF07E
:100D8000000C84F81CC020806180A280E38010BC2D
:100D90007047B4F802C08C45F1D1B4F804C0944552
:100DA000EDD1F0E704000020F0B5214D04462E6897
:100DB0008BB0337F022B23D04227019743273688FD
:100DC0004C2341221B49009602A803F0B7FF0A21D9
:100DD00002A8FFF71DFA2E68019776884C2341225E
:100DE000144902A8009603F0A9FF962102A8FFF774
:100DF0000FFA2B68988802F02BF8012002F038F8DF
:100E0000204601F0E7FE2B68DA886AB10024012051
:100E100001F0C8FF02F00EF8002001F0C3FF2B68BC
:100E20000134DA88A242F2D802221A770BB0F0BD60
:100E300004000020F0E5000010B40C4C2468B4F865
:100E400008C0844509D04FF0000C84F81CC02081F4
:100E50006181A281E38110BC7047B4F80AC08C455F
:100E6000F1D1B4F80CC09445EDD1F0E704000020B6
:100E7000F0B5214D04462E688BB0337F042B23D070
:100E800042270197432736894C2341221B4900966C
:100E900002A803F053FF0A2102A8FFF7B9F92E6850
:100EA000019776894C234122144902A8009603F049
:100EB00045FF962102A8FFF7ABF92B68988901F04E
:100EC000C7FF012001F0D4FF204601F083FE2B680C
:100ED000DA896AB10024012001F064FF01F0AAFF61
:100EE000002001F05FFF2B680134DA89A242F2D8BA
:100EF00004221A770BB0F0BD04000020F0E50000DA
:100F000010B40C4C2468B4F810C0844509D04FF0DC
:100F1000000C84F81CC020826182A282E38210BC93
:100F20007047B4F812C08C45F1D1B4F814C09445A0
:100F3000EDD1F0E704000020F0B5214D04462E6805
:100F40008BB0337F032B23D0422701974327368A68
:100F50004C2341221B49009602A803F0EFFE0A2110
:100F600002A8FFF755F92E680197768A4C23412293
:100F7000144902A8009603F0E1FE962102A8FFF7AB
:100F800047F92B68988A01F063FF002001F070FF99
:100F9000204601F01FFE2B68DA8A6AB10024012086
:100FA00001F000FF01F046FF002001F0FBFE2B687E
:100FB0000134DA8AA242F2D803221A770BB0F0BDCC
:100FC00004000020F0E500002DE9F04F11F0010BC6
:100FD0000C4683B020F0E00540F0868014F0020A51
:100FE0007DD114F0040975D114F008086DD114F006
:100FF000100765D114F020065DD114F04003019371
:1010000054D114F0800449D1BBF1000F3FD0BAF1A4
:10101000000F34D0B9F1000F29D0B8F1000F1FD064
:101020009FB1C6B1019B1BB144B103B0BDE8F08FC5
:1010300005F1C000FFF780FF002CF6D105F1E000BC
:1010400003B0BDE8F04FFFF777BF05F18000FFF771
:1010500073FF002EE6D105F1A000FFF76DFFE1E779
:1010600005F16000FFF768FF002FDAD1EDE705F129
:101070004000FFF761FFB8F1000FD1D1F0E705F1B3
:101080002000FFF759FFB9F1000FC6D1EFE728465E
:10109000FFF752FFBAF1000FBCD1F0E705F1E00015
:1010A000FFF7E6FEBBF1000FB1D1F0E705F1C0009C
:1010B000FFF7DEFEA5E705F1A000FFF7D9FE9CE7EC
:1010C00005F18000FFF7D4FE94E705F16000FFF71B
:1010D000CFFE8CE705F14000FFF7CAFE84E705F17B
:1010E0002000FFF7C5FE7CE72846FFF7C1FE75E745
:1010F000074B1B681A8B824204D0002218831A7790
:10110000598370475A8B8A42F7D1188359837047A5
:1011100004000020F0B5244D8BB004460F4601F0CA
:1011200047FD2B681A7F012A24D0432206460192EC
:101130001B8B41221D49009302A84C2303F0FEFDA6
:10114000962102A8FFF764F82B68588B01F0A4FDE4
:101150002B683344587F01F0CFFE2B68334493F85B
:101160003D0101F0A1FE286800EB4600B0F85E02E8
:1011700001F0EAFE204601F02DFD384601F0C8FDE1
:10118000012001F041FD01F07DFD002001F03CFD5A
:1011900001222B68C4F342101A7701F0DBFC0BB07C
:1011A000BDE8F04001F078BE04000020F0E500004A
:1011B0002DE9F04F89B01646044601F0F9FC31469E
:1011C00005462046FFF7A6FF002E00F0E080002431
:1011D000731E01341E40E4B2FAD1B42100266D4BD7
:1011E00005FB01F11B6804EB84002B4493F89E344B
:1011F000A4F1040A0493A31F0393E31F0593A4F12E
:1012000008030693A4F10903079301EB8003CDE9DA
:10121000016353464FF05A0CA4F10309CA4699469C
:101220000CFB05F5671EA4F1020BA4F1050830467E
:1012300001F090FC01F030FE42F69E01554B029AFF
:101240001B6803EB020E3EF80110884240F29380C7
:101250007A1C75D041F24C4E07EBC701294421445A
:10126000714403EB4101C988814280F08680BBF163
:10127000FF3F65D00BEBCB0129442144714403EBC4
:101280004101C98888427AD9BAF1FF3F58D00AEBA8
:10129000CA0129442144714403EB4101C9888842B1
:1012A0006FD9B9F1FF3F4BD009EBC9012944214463
:1012B000714403EB4101C988884264D9B8F1FF3F0A
:1012C0003ED008EBC80129442144714403EB41019D
:1012D000C988884259D9039A511C31D002EBC20106
:1012E00029442144714403EB4101C98888422FD924
:1012F000059A511C24D002EBC201294421447144B7
:1013000003EB4101C988884222D9069A511C17D0A3
:1013100002EBC20129442144714403EB4101C98815
:10132000884215D9079A511C0AD002EBC201294400
:101330002144714403EB410CBCF80610814207D2F2
:101340000136082E7FF473AF019809B0BDE8F08F25
:101350001146049B012B04D0019BB1400B44019327
:10136000EEE7072EF8D1019BA3EBC113019301987F
:1013700009B0BDE8F08F2146EBE73946E9E7594669
:10138000E7E75146E5E74946E3E74146E1E734460A
:1013900023E700BF040000202DE9F04F4FF00309C0
:1013A00006460C4620F0E00589B005F580782F460A
:1013B00038462037FFF7C0FDB845F9D1012200219A
:1013C0003046FFF7F5FE20B109F1FF3919F0FF09AA
:1013D000EDD105F1200005F1800C0290CDF804C09C
:1013E00005F1400005F1A00C0390CDF814C005F103
:1013F000600005F1C00C14F0010F04F0020704F0C6
:10140000040804F0080904F0100A04F0200204F0B3
:10141000400104F080030690CDF810C005F1E00B08
:101420004DD123BB002940F0A2810325002A40F0C2
:101430002782234683464446B0464E469946002FAF
:1014400078D1002C70D1002E64D1BAF1000F67D191
:10145000012200214046FFF7ABFE484505F1FF356C
:1014600002D015F0FF05EAD109B0BDE8F08F0325E1
:10147000002940F0FC80002A40F0A5802346444625
:10148000B0464E469946002F64D1002C5CD1002E08
:1014900056D1BAF1000F40F030825846FFF7E8FC11
:1014A000012200214046FFF783FE484505F1FF3544
:1014B000DAD015F0FF05D7D0002FE6D04AE0002B98
:1014C00040F08A814FF0030B002940F0AB80002AE6
:1014D00040F09F8023464446A8464D46B1465646B6
:1014E0009A464046FFF7C4FC002F43D1002C3BD165
:1014F000002D35D1002E40F0F88101220021484610
:10150000FFF756FE82450BF1FF3BADD01BF0FF0B02
:10151000E7D1A9E75846FFF7ABFCBAF1000F97D027
:101520000198FFF7A5FC93E70398FFF7A1FC002EB5
:101530008BD0EFE70298FFF79BFC002C83D0F3E7FA
:101540000698FFF795FCA4E70398FFF791FC002E9F
:101550009FD0F5E70298FFF78BFC002C97D0F3E7BC
:101560000698FFF785FCC5E70398FFF781FC002D7F
:10157000C0D0F5E70298FFF77BFC002CB8D0F3E76A
:101580000298FFF775FCB8F1000F40F0FE81B9F149
:10159000000F40F0F681BAF1000F40F0808205980C
:1015A000FFF766FC5846FFF763FC01220021304636
:1015B000FFF7FEFDA04205F1FF353FF455AF15F0F2
:1015C000FF053FF451AF002FDAD1B8F1000FDED0A4
:1015D000DBE10298FFF74CFCB8F1000F40F0C98145
:1015E000B9F1000F40F0C181BAF1000F40F05F8205
:1015F0000598FFF73DFC012200213046FFF7D8FD9A
:1016000084420BF1FF3B3FF42FAF1BF0FF0B3FF485
:101610002BAF2846FFF72CFC002FDAD1B8F1000FD2
:10162000DED0A6E1002A6DD12846FFF721FC002F6D
:1016300040F09381B8F1000F40F08781B9F1000FBD
:1016400040F07F81BAF1000F40F02D820498FFF73F
:101650000FFC012200213046FFF7AAFD84420BF166
:10166000FF3B3FF401AF1BF0FF0BDDD1FCE6002A8E
:1016700077D1002F40F05D81B8F1000F40F051812B
:10168000B9F1000F40F04981BAF1000F40F0038238
:101690000498FFF7EDFB5846FFF7EAFB0122002113
:1016A0003046FFF785FDA04205F1FF353FF4DCAE83
:1016B00015F0FF053FF4D8AE002FDDD039E10298D8
:1016C000FFF7D6FBB8F1000F40F06F81B9F1000FC2
:1016D00040F06381BAF1000F40F097810598FFF761
:1016E000C7FB0498FFF7C4FB012200213046FFF737
:1016F0005FFD84420BF1FF3B3FF4B6AE1BF0FF0BE6
:101700003FF4B2AE2846FFF7B3FB002FD7D1B8F1B4
:10171000000FDBD049E10298FFF7AAFBB8F1000FF8
:1017200040F06B81B9F1000F40F05F81BAF1000F1A
:1017300040F057810598FFF79BFB0498FFF798FB53
:101740005846FFF795FB012200213046FFF730FD98
:10175000A04205F1FF353FF487AE15F0FF053FF4D9
:1017600083AE002FD7D1B8F1000FDBD045E1002ABE
:1017700040F04F812346E34644460325B0464E469B
:1017800099461FBBE4B9BEB9BAF1000F40F0B18071
:101790005846FFF76DFB012200214046FFF708FD88
:1017A000484505F1FF353FF45FAE15F0FF053FF406
:1017B0005BAE002FE6D009E00698FFF759FBE3E7A0
:1017C0000398FFF755FB002EDED0F5E70298FFF7F0
:1017D0004FFB002CD7D0F3E70323002940F06B81A7
:1017E000CDF810809846002A44D12846FFF740FBE8
:1017F000002F40F04C81049B002B40F08680B9F113
:10180000000F7ED1BAF1000F40F03D815846FFF73E
:101810002FFB012200213046FFF7CAFC844208F169
:10182000FF383FF421AE18F0FF08DED11CE6029825
:10183000FFF71EFB049B002B40F0CB80B9F1000F9B
:1018400040F0BF80BAF1000F40F0B7800598FFF775
:101850000FFB5846FFF70CFB012200213046FFF733
:10186000A7FC844208F1FF383FF4FEAD18F0FF08F2
:101870003FF4FAAD2846FFF7FBFA002FDAD0D6E79F
:101880002346DDF814B04446B0464E46994617BB91
:10189000DCB9B6B9BAF1000F23D15846FFF7E8FA20
:1018A000012200214046FFF783FC814505F1FF3509
:1018B0003FF4DAAD15F0FF053FF4D6AD002FE7D0C9
:1018C00009E00698FFF7D4FAE4E70398FFF7D0FAA7
:1018D000002EDFD0F5E70298FFF7CAFA002CD8D027
:1018E000F3E70198FFF7C4FAD7E70198FFF7C0FACA
:1018F00003E60198FFF7BCFA4AE70198FFF7B8FA48
:10190000CBE50698FFF7B4FA7CE70398FFF7B0FA47
:10191000B9F1000F3FF476AFF3E70698FFF7A8FAA6
:10192000B2E60398FFF7A4FAB9F1000F3FF4ACAEAA
:10193000F3E70298FFF79CFAB8F1000F3FF4A0AE6E
:10194000EFE70698FFF794FA7CE60398FFF790FA22
:10195000B9F1000F3FF476AEF3E70298FFF788FA8B
:10196000B8F1000F3FF46AAEEFE70698FFF780FA90
:101970003AE60398FFF77CFAB9F1000F3FF434AE72
:10198000F3E70698FFF774FA05E60398FFF770FA95
:10199000B9F1000F3FF4FFADF3E70698FFF768FADF
:1019A000BAF1000F3FF49AAE2FE00398FFF760FA08
:1019B000B9F1000F3FF48EAEEFE70198FFF758FA48
:1019C00044E70698FFF754FABAF1000F3FF43EAF30
:1019D000F3E70398FFF74CFAB9F1000F3FF432AF89
:1019E000EFE70198FFF744FAA4E60698FFF740FAFC
:1019F000BAF1000F3FF49EAEF3E70398FFF738FA11
:101A0000B9F1000F3FF492AEEFE70198FFF730FA1B
:101A100064E60325DDF814B057BBB8F1000F20D100
:101A2000B9F1000F19D1BAF1000F28D15846FFF7CC
:101A30001FFA0498FFF71CFA012200213046FFF735
:101A4000B7FBA04205F1FF353FF40EAD15F0FF05E1
:101A50003FF40AAD002FE0D00AE00698FFF708FA3D
:101A6000E1E70398FFF704FAB9F1000FDBD0F4E7E0
:101A70000298FFF7FDF9B8F1000FD1D0F1E7019816
:101A8000FFF7F6F9D2E70198FFF7F2F9BEE6029800
:101A9000FFF7EEF9AFE60198FFF7EAF9F8E50198EC
:101AA000FFF7E6F97BE50198FFF7E2F9CEE501984B
:101AB000FFF7DEF99CE5AABBCDF8148098462846CE
:101AC000FFF7D6F957BB059BEBB9B9F1000F16D15B
:101AD000BAF1000F1ED10498FFF7CAF95846FFF774
:101AE000C7F9012200213046FFF762FB844208F16A
:101AF000FF383FF4B9AC18F0FF08E0D1B4E4069821
:101B0000FFF7B6F9E4E70398FFF7B2F9B9F1000F70
:101B1000DED0F4E70198FFF7ABF9DCE70298FFF7B6
:101B2000A7F9D0E7CDF81C8098462846FFF7A0F922
:101B30006FBB079B03BBB9F1000F19D1BAF1000FBE
:101B400021D10598FFF794F90498FFF791F95846C9
:101B5000FFF78EF9012200213046FFF729FBA04252
:101B600008F1FF383FF480AC18F0FF08DDD17BE4CA
:101B70000698FFF77DF9E1E70398FFF779F9B9F1E6
:101B8000000FDBD0F4E70198FFF772F9D9E702986C
:101B9000FFF76EF9CDE700BF70B50D461446064657
:101BA00001F006F802460A4B30461B68991803EB11
:101BB00042034E7781F83D51A3F85E4201F09CF953
:101BC000284601F071F92046BDE8704001F0BCB92B
:101BD0000400002038B50C46054600F0E9FF024637
:101BE000074B28461B68134483F89E5483F8BE4570
:101BF00001F0AAF82046BDE8384001F0B9B800BFAE
:101C0000040000202DE9F04F93B08A46039204931C
:101C1000044600F0CDFF059001F084F9069001F034
:101C200059F9079001F09EF9034600262046DFF897
:101C30009082089300F0B6FF012001F0AFF9324620
:101C40003146404603F0CAFA01F07EF9012000F067
:101C5000DBFF012001F020F832463146404603F018
:101C6000BDFA01F071F94222DFF858B24523594616
:101C7000CDF800A00AA8019203F060F80A210AA892
:101C80003F27DFF84492FEF7C3FAF5196D0828469E
:101C900001F032F900F0F6FF01F0FEF800220446F0
:101CA0001146404603F09AFAA04200F0D580002287
:101CB0004846114603F092FAA04277D02E46BB1B4D
:101CC000012BE2D800227E48114603F087FAA04299
:101CD00040F0E0803E444FEA560B42223F26002768
:101CE000039B78490093019245230AA88A4603F092
:101CF00025F80A210AA8FEF78BFADFF8D081CDF883
:101D000024B0DFF8CC91DDF810B0F5196D08284645
:101D100001F0CAF800F0B6FF01F0BEF80022044658
:101D20001146404603F05AFAA04277D000224846B6
:101D3000114603F053FAA04255D02E46F31B012B57
:101D4000E3D8002262481146DDF824B003F046FAD9
:101D5000A04240F0AA803E447608002000F054FFE4
:101D6000002001F01BF9059800F01CFF00F020FF97
:101D70000146584B06981B68079C089D5A1803EBB0
:101D80004103507782F83D41A3F85E5201F0B4F868
:101D9000204601F089F8284601F0D6F83246594627
:101DA0004D4802F025FF13B0BDE8F08F4222049B9E
:101DB0000192AAEB0303594600930AA8452302F0B7
:101DC000BDFF0A210AA8FEF723FA00F05BFF01F02D
:101DD00063F8002204461146404603F0FFF9A04292
:101DE0007FF46CAF6EE74222039B01925B44514645
:101DF00000930AA8452302F0A1FF0A210AA8FEF7D2
:101E000007FA00F03FFF01F047F8002204461146B0
:101E1000404603F0E3F9A0428FD192E74222039BB0
:101E20000192A3EB0B010091452351460AA802F051
:101E300085FF0A210AA8FEF7EBF900F023FF01F065
:101E40002BF8002204461146484603F0C7F9A04289
:101E50003FF477AF2F4671E74222049B01920AEBD1
:101E600003010091452359460AA802F067FF0A21A1
:101E70000AA8FEF7CDF900F005FF01F00DF80022E9
:101E800004461146484603F0A9F9A0423FF41AAFB0
:101E90002F4614E700220C48114603F09FF9A04298
:101EA0003FF418AF4FF0FF3B17E7002207481146F9
:101EB00003F094F9A0423FF44EAF4FF0FF364CE7E9
:101EC00000E60000F0E5000008E6000010E6000073
:101ED00018E600000400002020E600002DE9F04F85
:101EE000DFF8E4A1C0EB00191E464FEA4909DAF811
:101EF0000030074609F2DE6095B018440C461546DE
:101F0000FF211E2202F006FE00F052FE83463846F4
:101F1000CDF80CB000F046FE012001F03FF80120A2
:101F200000F072FE012000F0B7FE4222452301922C
:101F30006649009404A802F001FF0A2104A8FEF7F4
:101F400067F900226248114603F048F9AC4202905A
:101F500080F0AA805D4F03E03444A54240F2A480A3
:101F600042224523CDE9004239460CA802F0E6FEA4
:101F70000A210CA8FEF74CF900F084FE00F08CFF5B
:101F8000834600F07FFE00F087FF804600F07AFE77
:101F900000F082FFC345DFD18345DDD1029B9B4525
:101FA000DAD28BEA030818F0010F04D0DAF8002027
:101FB0004A44A2F8DE4618F0020F04D0DAF80020F6
:101FC0004A44A2F8E04618F0040F04D0DAF80020E2
:101FD0004A44A2F8E24618F0080F04D0DAF80020CC
:101FE0004A44A2F8E44618F0100F04D0DAF80020B2
:101FF0004A44A2F8E64618F0200F04D0DAF8002090
:102000004A44A2F8E84618F0400F04D0DAF800205D
:102010004A44A2F8EA4618F0800F04D0DAF800200B
:102020004A44A2F8EC4618F4807F04D0DAF8002085
:102030004A44A2F8EE4618F4007F04D0DAF80020F3
:102040004A44A2F8F04618F4806F04D0DAF8002071
:102050004A44A2F8F24618F4006F04D0DAF80020DF
:102060004A44A2F8F44618F4805F04D0DAF800205D
:102070004A44A2F8F64618F4005F04D0DAF80020CB
:102080004A44A2F8F84618F4804F04D0DAF8002049
:102090004A44A2F8FA46BBF1000F05D03444A542E9
:1020A000CDF808B03FF65CAF002000F0ADFD002099
:1020B00000F074FF039800F075FD0022DAF800309C
:1020C0001A7715B0BDE8F08F04000020F0E500009D
:1020D00000E60000F8B50546134802F0F7FD134886
:1020E00002F0F4FD104802F0F1FD1148002402F066
:1020F0007FFD104F104EC5EB05153B682A1903EB09
:1021000042033046B3F9DE16013402F071FD0F2CA4
:10211000F3D10A2002F084FD034802F0D7FDBDE8A8
:10212000F8400A2002F07CBD28E6000094E600009A
:1021300000E700000400002014E700002DE9F04F44
:10214000A74EFBB019ACA04605460F460FCE0FC4F4
:102150000FCE0FC43368A348236002F0B7FDB8F870
:102160000240B8F8003004F5106606EB032604EBD5
:102170000324204604F58074FEF7DEFEB442F8D155
:1021800008F1040822AB9845E9D1974802F09EFD7A
:102190000DF16408B8F80030B8F8024003F1090204
:1021A00004F5905606EB032604EB0224204604F5C2
:1021B0008074FEF75DFEB442F8D108F1040822AB4A
:1021C0009845E7D1002F00F05E83FBB21A460E93CC
:1021D0005A23934603FB05F30F93A2F10903DBB2E5
:1021E00005934FF0010A00275946804802F000FD90
:1021F0000AFA0BFA19AB06930AF1FF3A00263446A5
:10220000069BB3F80090B3F80280059B5146F01A84
:10221000C0B2484408EB0020FEF77CFF04EBC40486
:10222000E3197AAA02EB430323F8B40C80B236AA6E
:10223000C0F50040151901F0D5FA0BF05DFD66A35D
:10224000D3E9002301F062FC01F048FD0136F4B24D
:10225000A345E855D9D2069B01370433092F0693CD
:10226000CCD1634802F0C4FC624C204602F0C0FCB2
:102270007B1E13F0FF07F8D10A2002F0D1FC5E4864
:1022800002F0B6FC5D4D19AC6288284634F8041B98
:1022900002F0AEFC22AB9C42F6D10A2002F0C0FC58
:1022A000534802F0A5FC0924524D284602F0A0FC38
:1022B000631E13F0FF04F8D10A2002F0B1FC4FFABC
:1022C0008BF3002B099321DB1F4603EBC30651AAB6
:1022D000DFF82C914B4D02EB4606A3EB0B08394679
:1022E0004846B246123E02F083FC344634F8021FE0
:1022F000284602F07DFCA245F8D10A2002F090FCAD
:10230000B84507F1FF3301D01F46E8E7384802F02F
:102310006FFC0924374D284602F06AFC631E13F057
:10232000FF04F8D10A2002F07BFC314802F060FC87
:102330000924304D284602F05BFC631E13F0FF04B5
:10234000F8D10A2002F06CFC2B4802F051FC2B4D16
:1023500019AC6288284634F8041B02F049FC22AB11
:102360009C42F6D10A2002F05BFC214802F040FCBE
:102370000924204D284602F03BFC631E13F0FF04A5
:10238000F8D10A2002F04CFC099B002B3EDB1F46D3
:1023900003EBC3060DF1E102DFF864901A4D164419
:1023A000A3EB0B0839464846B246093E02F020FC32
:1023B000344614F8011B284602F01AFCA245F8D155
:1023C0000A2002F02DFCB84507F1FF331ED01F464E
:1023D000E8E700BFAFF30080EF39FAFE422EE63F98
:1023E000D4EB00001CE700003CE7000058E70000C9
:1023F000A0E80000A4E800007CE7000090E70000EF
:10240000A0E70000ACE70000BCE70000984802F03D
:10241000EFFB0924974D2846013C02F0E9FB14F03C
:10242000FF04F8D10A2002F0FBFB099F002FC0F245
:102430001A8222AA02EBC70A10AA0BF101063A443B
:10244000A7EB0B0510A90A9248199046FF213246C6
:102450000C96CDF82CA002F05DFB13A9324648196A
:10246000214602F057FB22ABA7EB0B00214603EB02
:10247000C000F20002F04EFB0DF14B01CB19A3EBB3
:102480000B0307EBC706089336AB1E44FB000D9306
:1024900013ABB946DF19ADE0254688F80040002CA3
:1024A00040F0AD80002200237078A04284BF3870D5
:1024B0000446CDE9062301F085F9DDE9062301F0A4
:1024C00045F802460B46B078CDE90623A8423CBF4A
:1024D000054688F80000A04284BF3870044601F029
:1024E00071F9DDE9062301F031F802460B46F07878
:1024F000CDE90623A8423CBF054688F80000A0426B
:1025000084BF3870044601F05DF9DDE9062301F06F
:102510001DF802460B463079CDE90623A8423CBFA0
:10252000054688F80000A04284BF3870044601F0D8
:1025300049F9DDE9062301F009F802460B467079F6
:10254000CDE90623A8423CBF054688F80000A0421A
:1025500084BF3870044601F035F9DDE9062300F048
:10256000F5FF02460B46B079CDE90623A8423CBFF1
:10257000054688F80000A04284BF3870044601F088
:1025800021F9DDE9062300F0E1FF02460B46F07970
:10259000CDE90623A8423CBF054688F80000A042CA
:1025A00084BF3870044601F00DF9DDE9062300F020
:1025B000CDFF02460B46307ACDE90623A84238BF4C
:1025C00088F80000A0428CBF07F8010907F1FF3727
:1025D00001F0F8F8DDE9062300F0B8FF264B0022F1
:1025E00001F094FA6AE80201089B093EBB4208F137
:1025F000FF3815D03478FF2C7FF44EAF25462046A7
:102600003C7001F0DFF80022002300F09FFF02463B
:1026100070780B46A0423CBF054688F8000044E7AE
:10262000099B0DF1580A0AEB03061C46B0460A9DA9
:102630000B9F5BB214E02B7812F8012C9A4214D352
:10264000D7E9000101F04AFB88F80000013C63B2C1
:10265000002BA7F1080708F1FF3805F1FF350DDB66
:1026600013AA2244002BE6D12B780AF80430EDE7B8
:10267000A0E80000A4E8000000002240844802F026
:1026800025FB844C844802F021FB814802F01EFBAC
:10269000DDE90A5713AB13F809304946009315F8E2
:1026A00001392046019316F8013909F1FF390293E7
:1026B00077E8022302F09CFA19F0800FEAD0744800
:1026C00002F004FB099A0D9B1AF80240134441F2F0
:1026D0004C4001220F9E7149334409685B440BF161
:1026E000FF35034402FA04F4C4F500446DB201EB73
:1026F0004303DC806C1C00F0A98005EBC5031AF8CD
:10270000054033445B44034402FA04F401EB430301
:10271000C4F50044DC80ABF1020464B2631C00F039
:10272000958004EBC40333441AF804405B4403442B
:1027300002FA04F4C4F5004401EB4303DC80ABF17E
:10274000030464B2671C00F0818004EBC4033344CB
:102750001AF804405B44034402FA04F401EB430317
:10276000C4F50044DC80ABF1040464B2631C6DD09A
:1027700004EBC40333441AF804405B44034402FAF4
:1027800004F4C4F5004401EB4303DC80ABF1050421
:1027900064B2671C5AD004EBC40333441AF80440F3
:1027A0005B44034402FA04F401EB4303C4F5004420
:1027B000DC80ABF1060464B2631C47D004EBC403B5
:1027C00033441AF804405B44034402FA04F4C4F5A9
:1027D000004401EB4303DC80ABF1070464B2671CE7
:1027E00034D004EBC40333441AF804405B4403447C
:1027F00002FA04F401EB4303C4F50044DC80ABF1BE
:1028000008035BB25C1C21D003EBC3041AF803304D
:1028100002FA03F3A2195A44024401EB4202C3F53F
:102820000043D380059AFF2A53B20FD001221AF831
:10283000030003EBC30333445B4403F5A2530C339F
:10284000824001EB4303C2F50042DA80059B9DF80C
:1028500030B00133DBB205930E9B5B45BFF4C1ACD6
:102860007BB0BDE8F08F0BF1010309480C9302F037
:102870002DFA094802F02AFA054802F027FA04481E
:1028800002F024FAE2E709230E9301231A469FE49B
:10289000E8E70000C4E700001CE800000400002096
:1028A0002DE9F84380461F4802F010FA1E4802F056
:1028B0000DFA1C4802F00AFA5A23092503FB08F80E
:1028C000DFF868901A4F2946484605EBC5060124F3
:1028D00002F08EF9464404E0013402F089F90A2C32
:1028E00011D0331903F5A253A542124803F10C038A
:1028F000F2DC3A68104802EB4303D988013402F055
:1029000077F90A2CEDD12046013D02F089F96B1CC4
:10291000D9D1044802F0DAF92046BDE8F84302F0C4
:102920007FB900BF50E80000B4E8000018E90000DB
:102930000400002024E90000B0E700002DE9F04188
:1029400082B000F035F98046584802F0BFF9584887
:10295000584D02F0BBF9584802F0B8F9544802F05B
:10296000B5F92E685548B38872883188F6880024F6
:10297000009602F03DF92E685148B3897289318979
:10298000F689504F009602F033F92E684E48B38A0C
:10299000728A318AF68A009602F02AF94B492A682F
:1029A0004B48538B128B009102F022F9404802F001
:1029B0008DF90A2002F034F94146464802F018F930
:1029C000454802F083F9454802F080F9424802F098
:1029D0007DF92B68424803EB080103EB480391F8AB
:1029E0003D21B3F85E32497F02F002F93A4802F025
:1029F0006DF90A2002F014F941463A4802F0F8F85D
:102A0000394802F063F9394802F060F9364802F0BB
:102A10005DF92B683648434493F8BE2593F89E141D
:102A200002F0E6F8304802F051F9C8EB08160A2027
:102A300002F0F6F82A68730003F2DE6341461A4496
:102A40002C4802F0D5F82C4802F040F92B4802F04F
:102A50003DF9294802F03AF9294802F0C9F82B68F3
:102A6000321903EB42033846B3F9DE16013402F0A3
:102A7000BFF80F2CF3D10A2002F0D2F81E4802F062
:102A800025F90A2002F0CCF8B42442F69E0304FB98
:102A900008332A6841461A441A4802F0A9F8404609
:102AA00002B0BDE8F041FFF7FBBE00BF30E9000017
:102AB00054E900000400002090E90000CCE9000087
:102AC000F4E9000014E700001CEA000044EA0000FA
:102AD0004CEA000074EA0000A0EA0000BCEA000032
:102AE000D8EA0000F0EA00001CEB000034EB000024
:102AF0004CEB000060EB000028E6000094E60000CC
:102B000000E7000094EB000038B50446FEF7B0F98A
:102B100001212046FEF7FEFA05462046FEF70CFA94
:102B200001212046FEF7F6FA2946BDE83840024664
:102B3000014802F05DB800BFC8EB0000014BD86A45
:102B4000704700BF00200140014B5868704700BF2C
:102B500000200140044AC003536800F4603023F4AD
:102B6000603318435060704700200140024B5868A2
:102B7000C0F3C230704700BF00200140044A800407
:102B8000536800F47C0023F47C03184350607047C2
:102B900000200140024B5868C0F38540704700BFD9
:102BA00000200140014B5862704700BF00200140E7
:102BB000014B586A704700BF00200140014B9862EA
:102BC000704700BF00200140014B986A704700BF6A
:102BD00000200140054902020B681B0C1B0443EA5C
:102BE000102390B203430B60704700BF00200140E8
:102BF000044B18681B68C0B2C3F3072303EB002023
:102C0000704700BF00200140164B10B51A680446FB
:102C1000510007D4134A136823F0004343EAC473F6
:102C2000136010BD1A68002A05DB0E4A136823F0F2
:102C300080431360EEE71A68520005D4094A13680E
:102C400023F000431360F0E71B68002B05DB054A07
:102C5000136823F080431360F0E70020FFF7D4FFF0
:102C6000F5E700BF00200140014B1868C00F704716
:102C700000200140024B5868C0F38070704700BFCD
:102C800000200140034A136883F400231360BFF35C
:102C90006F8F704700200140044A0004936800F4DD
:102CA0007F0023F47F0318439060704700200140A9
:102CB000024B9868C0F30740704700BF00200140F6
:102CC000044A0006536800F0807023F080731843B4
:102CD0005060704700200140024B5868C0F300600C
:102CE000704700BF00200140044A0004136800F44C
:102CF000E02023F4E02318431060704700200140D7
:102D0000024B1868C0F30240704700BF002001402A
:102D1000044A136823F0FF5323F4801343EA00535B
:102D20001360704700200140024B1868C0F3085040
:102D3000704700BF00200140024B5868C0F340704C
:102D4000704700BF00200140044A0003536800F4AC
:102D5000805023F480531843506070470020014096
:102D6000024B5868C0F30030704700BF002001409C
:102D7000044A8002536800F4406023F4406318431F
:102D80005060704700200140024B5868C0F381201A
:102D9000704700BF00200140014BD868704700BF5A
:102DA000002001401B4B10B51A680446002A09DBBD
:102DB000184AA407136804F0804423F080431C439E
:102DC000146010BD1A68510005D4124A136823F02C
:102DD00000431360ECE71A68002A05DB0D4A13680C
:102DE00023F080431360F0E71A68520005D4094AC3
:102DF000136823F000431360F0E71B68002B05DB2A
:102E0000044A136823F080431360F0E70020FFF7C3
:102E1000FBFEF5E700200140024B1868C0F380700C
:102E2000704700BF00200140014B5868C00F704739
:102E300000200140054B1A6842F000521A60BFF3AF
:102E40006F8F1A6822F000521A607047002001400C
:102E5000034A80B293681B0C1B04034393607047C2
:102E600000200140014B986880B27047002001406B
:102E7000044A4002536800F4007023F400731843BE
:102E80005060704700200140024B5868C0F340205A
:102E9000704700BF00200140024B186AC0F30E00CB
:102EA000704700BF00200140C04301220849C0F321
:102EB000C20C4B6902FA0CF223F47F73013A00F062
:102EC000070023F0030300EBC2001843486170477A
:102ED00000200140074B5A6912F47E7FC2F3C603FB
:102EE00002F0070003D05B0800F10800FBD1C0F13D
:102EF0003F00704700200140C04301220849C0F351
:102F0000C20C8B6902FA0CF223F47F73013A00F0D1
:102F1000070023F0030300EBC200184388617047E9
:102F200000200140074B9A6912F47E7FC2F3C6036A
:102F300002F0070003D05B0800F10800FBD1C0F1EC
:102F40003F00704700200140054AC0F30E00D369DE
:102F500023F4FF4323F07F030343D361704700BF93
:102F600000200140024BD869C0F30E00704700BF3B
:102F700000200140044AC0015368C0B223F080031E
:102F800018435060704700BF00200140024B586852
:102F9000C0F3C010704700BF00200140044A000287
:102FA000536800F4807023F48073184350607047B6
:102FB00000200140024B5868C0F30020704700BF5A
:102FC00000200140044A4006536800F0007023F0DE
:102FD000007318435060704700200140024B58684E
:102FE000C0F34060704700BF00200140044A8003E6
:102FF000536800F4804023F48043184350607047C6
:1030000000200140024B5868C0F38030704700BF79
:1030100000200140044B5A6882F400525A605A68FA
:1030200082F400525A60704700200140024B5868F9
:10303000C0F3C060704700BF00200140014B986999
:10304000704700BF00300140024A136843F000435C
:103050001360704700300140024A136823F00043B8
:10306000136070470030014030B4164D2C68C0B971
:1030700024F000542C60CBB9124B1C6824F47F5C04
:103080002CF03F0C4CEA010119600E4B023043F862
:1030900020201A6882F080421A60BFF36F8F30BC24
:1030A000704744F000542C60002BE5D0054CC1F56E
:1030B0007F5123683F3123F47F5323F03F030B43B9
:1030C0002360E2E70030014010B4144C236898B943
:1030D00023F000532360A2B9104A136823F47F53EE
:1030E00023F03F0319431160BFF36F8F0B4B043084
:1030F00053F8200010BC704743F000532360002AAF
:10310000EAD0064AC1F57F5113683F3123F47F535B
:1031100023F03F0319431160E6E700BF0030014090
:10312000074A136840B923F400131360044A136874
:1031300083F080631360704743F400131360F5E776
:1031400000300140074A136840B923F400131360AC
:10315000044A136883F080531360704743F40013EC
:103160001360F5E7003001409AB9134A136823F45D
:103170007F5323F03F03194311600F4A1368B8B916
:1031800023F4001313600C4A136883F00063136088
:103190007047094AC1F57F5113683F3123F47F53CB
:1031A00023F03F0319431160034A13680028E7D056
:1031B00043F400131360E6E700300140034A53680C
:1031C0001B0C1B0403435360704700BF00300140D9
:1031D000024A136843F000731360704700300140E7
:1031E000024A136823F000731360704700300140F7
:1031F000034A536823F0604343EA407353607047C7
:10320000003001400C4A61B9136823F47F5323F066
:103210003F0318431060084A136883F400031360E7
:1032200070471368C0F57F5023F47F533F3023F07D
:103230003F0318431060EEE7003001409AB9104A8E
:10324000136823F47F5323F03F03184310600C4AA4
:10325000136823F4E01343EA81411160136883F09B
:10326000807313607047064AC0F57F5013683F3083
:1032700023F47F5323F03F0318431060E7E700BFB8
:103280000030014030B4134C256825F4E01C4CEAB2
:1032900081412160216821F4703141EA823121604D
:1032A0006BB9236823F47F5323F03F031843206056
:1032B000084A30BC136883F080731360704723683A
:1032C000C0F57F5023F47F5323F03F033F30184372
:1032D0002060EDE70030014070B516463AB14C1E53
:1032E000A51814F8010F00F021F8AC42F9D13046CE
:1032F00070BD00BF0B203021084B10B41B68084C78
:10330000084AA4FB03435B0C1361074B906099616F
:10331000D36810BC43F00203D3607047080000205C
:10332000C5B3A2910060004000100140024A5368FA
:10333000DB07FCD41060704700600040034A53680C
:103340009B07FCD51068C0B2704700BF006000400A
:10335000034A5368DB07FCD404231360FEE700BF75
:1033600000600040036843F008030360704700BF3B
:10337000036823F008030360704700BF036843F04D
:1033800001030360704700BF036823F0010303607B
:10339000704700BF40687047416070478068704761
:1033A000816070470123C360704700BFC0687047E9
:1033B000002303604160816012B1092303607047FC
:1033C00001230360704700BF0023036041608160F8
:1033D00012B10D230360704705230360704700BFDF
:1033E000002303604160816012B10B2303607047CA
:1033F00003230360704700BF003A18BF01220BB1DE
:1034000042F00202009B0BB142F00402019B0BB19F
:1034100042F00802029B0BB142F01002039B0BB179
:1034200042F020020023836001618260436813F050
:103430000C0F14BF01200020704700BF4068C0F38C
:1034400040007047406800F0010070474368DB07A8
:10345000FCD40160704700BF43689B07FCD500683F
:10346000C0B270474068C0F3810070470C234360CE
:103470004068C0F38100704700697047C06800F081
:1034800001007047C068C0F3400070470123C3606B
:10349000704700BF0223C360704700BF01617047DF
:1034A000416170470069704781617047C161704731
:1034B0008069704701238B408363806B704700BF36
:1034C00001238B400362006A704700BF01238B40D9
:1034D0004362406A704700BF012303FA01F1C162F1
:1034E00001637047012303FA01F1816201637047B0
:1034F000012303FA01F1C16241637047012303FA1A
:1035000001F1816241637047D3B2C2F3072203F530
:10351000807302F5007240F8231040F822107047C3
:10352000014B024A1A607047080000200024F40092
:10353000014B024A1A607047080000200024F40082
:1035400081F0004102E000BF83F0004330B54FEA54
:1035500041044FEA430594EA050F08BF90EA020FC1
:103560001FBF54EA000C55EA020C7FEA645C7FEA54
:10357000655C00F0E2804FEA5454D4EB5555B8BF77
:103580006D420CDD2C4480EA020281EA030382EAE8
:10359000000083EA010180EA020281EA0303362D7A
:1035A00088BF30BD11F0004F4FEA01314FF4801C4D
:1035B0004CEA113102D0404261EB410113F0004F5F
:1035C0004FEA03334CEA133302D0524263EB430316
:1035D00094EA050F00F0A780A4F10104D5F1200EB4
:1035E0000DDB02FA0EFC22FA05F2801841F100010F
:1035F00003FA0EF2801843FA05F359410EE0A5F1E3
:1036000020050EF1200E012A03FA0EFC28BF4CF013
:10361000020C43FA05F3C01851EBE37101F00045C9
:1036200007D54FF0000EDCF1000C7EEB00006EEBD6
:103630000101B1F5801F1BD3B1F5001F0CD3490860
:103640005FEA30004FEA3C0C04F101044FEA4452B7
:1036500012F5800F80F09A80BCF1004F08BF5FEA3E
:10366000500C50F1000041EB045141EA050130BD1E
:103670005FEA4C0C404141EB0101013C28BFB1F530
:10368000801FE9D291F0000F04BF01460020B1FA7B
:1036900081F308BF2033A3F10B03B3F120020CDA4E
:1036A0000C3208DD02F1140CC2F10C0201FA0CF02C
:1036B00021FA02F10CE002F11402D8BFC2F1200C91
:1036C00001FA02F120FA0CFCDCBF41EA0C01904047
:1036D000E41AA2BF01EB0451294330BD6FEA040490
:1036E0001F3C1CDA0C340EDC04F11404C4F120027B
:1036F00020FA04F001FA02F340EA030021FA04F38D
:1037000045EA030130BDC4F10C04C4F1200220FAE3
:1037100002F001FA04F340EA0300294630BD21FA21
:1037200004F0294630BD94F0000F83F4801306BFE7
:1037300081F480110134013D4EE77FEA645C18BFDB
:103740007FEA655C29D094EA050F08BF90EA020F72
:1037500005D054EA000C04BF1946104630BD91EA6A
:10376000030F1EBF0021002030BD5FEA545C05D16D
:103770004000494128BF41F0004130BD14F58004AC
:103780003CBF01F5801130BD01F0004545F0FE4120
:1037900041F470014FF0000030BD7FEA645C1ABF55
:1037A000194610467FEA655C1CBF0B46024650EA8C
:1037B000013406BF52EA033591EA030F41F40021B8
:1037C00030BD00BF90F0000F04BF0021704730B53E
:1037D0004FF4806404F132044FF000054FF0000113
:1037E00050E700BF90F0000F04BF0021704730B5D4
:1037F0004FF4806404F1320410F0004548BF4042A9
:103800004FF000013EE700BF42004FEAE2014FEAFD
:1038100031014FEA02701FBF12F07F4393F07F4FD8
:1038200081F06051704732F07F4208BF704793F0DB
:103830007F4F04BF41F40021704730B54FF46074EE
:1038400001F0004521F000411CE700BF50EA0102F1
:1038500008BF704730B54FF000050AE050EA01029A
:1038600008BF704730B511F0004502D5404261EB0A
:1038700041014FF4806404F132045FEA915C3FF44B
:10388000D8AE4FF003025FEADC0C18BF03325FEAE8
:10389000DC0C18BF033202EBDC02C2F1200300FA99
:1038A00003FC20FA02F001FA03FE40EA0E0021FABE
:1038B00002F11444BDE600BF70B54FF0FF0C4CF4AC
:1038C000E06C1CEA11541DBF1CEA135594EA0C0F5E
:1038D00095EA0C0F00F0DEF82C4481EA030621EA99
:1038E0004C5123EA4C5350EA013518BF52EA0335D4
:1038F00041F4801143F4801338D0A0FB02CE4FF086
:103900000005E1FB02E506F00042E0FB03E54FF0B5
:103910000006E1FB03569CF0000F18BF4EF0010EAD
:10392000A4F1FF04B6F5007F64F5407404D25FEAA9
:103930004E0E6D4146EB060642EAC62141EA55515C
:103940004FEAC52040EA5E504FEACE2EB4F1FD0C9E
:1039500088BFBCF5E06F1ED8BEF1004F08BF5FEA1C
:10396000500E50F1000041EB045170BD06F00046CE
:1039700046EA010140EA020081EA0301B4EB5C047B
:10398000C2BFD4EB0C0541EA045170BD41F4801173
:103990004FF0000E013C00F3AB8014F1360FDEBF98
:1039A000002001F0004170BDC4F10004203C35DA74
:1039B0000C341BDC04F11404C4F1200500FA05F3F7
:1039C00020FA04F001FA05F240EA020001F0004298
:1039D00021F0004110EBD37021FA04F642EB06010E
:1039E0005EEA430E08BF20EAD37070BDC4F10C0438
:1039F000C4F1200500FA04F320FA05F001FA04F2FC
:103A000040EA020001F0004110EBD37041F10001E7
:103A10005EEA430E08BF20EAD37070BDC4F12005F2
:103A200000FA05F24EEA020E20FA04F301FA05F25A
:103A300043EA020321FA04F001F0004121FA04F202
:103A400020EA020000EBD3705EEA430E08BF20EAD2
:103A5000D37070BD94F0000F0FD101F0004640000C
:103A600041EB010111F4801F08BF013CF7D041EA8E
:103A7000060195F0000F18BF704703F00046520092
:103A800043EB030313F4801F08BF013DF7D043EA63
:103A90000603704794EA0C0F0CEA135518BF95EA19
:103AA0000C0F0CD050EA410618BF52EA4306D1D1A0
:103AB00081EA030101F000414FF0000070BD50EABF
:103AC000410606BF1046194652EA430619D094EA49
:103AD0000C0F02D150EA013613D195EA0C0F05D133
:103AE00052EA03361CBF104619460AD181EA030187
:103AF00001F0004141F0FE4141F470014FF000003F
:103B000070BD41F0FE4141F4780170BD70B54FF0D9
:103B1000FF0C4CF4E06C1CEA11541DBF1CEA135559
:103B200094EA0C0F95EA0C0F00F0A7F8A4EB05043B
:103B300081EA030E52EA03354FEA013100F0888032
:103B40004FEA03334FF0805545EA131343EA1263FB
:103B50004FEA022245EA111545EA10654FEA0026B0
:103B60000EF000419D4208BF964244F1FD0404F569
:103B7000407402D25B084FEA3202B61A65EB0305C5
:103B80005B084FEA32024FF480104FF4002CB6EB82
:103B9000020E75EB030E22BFB61A754640EA0C0002
:103BA0005B084FEA3202B6EB020E75EB030E22BF42
:103BB000B61A754640EA5C005B084FEA3202B6EB83
:103BC000020E75EB030E22BFB61A754640EA9C0042
:103BD0005B084FEA3202B6EB020E75EB030E22BF12
:103BE000B61A754640EADC0055EA060E18D04FEAD0
:103BF000051545EA16754FEA06164FEAC30343EA70
:103C000052734FEAC2025FEA1C1CC0D111F4801F3C
:103C10000BD141EA00014FF000004FF0004CB6E735
:103C200011F4801F04BF01430020B4F1FD0C88BFD4
:103C3000BCF5E06F3FF6AFAEB5EB030C04BFB6EBDF
:103C4000020C5FEA500C50F1000041EB045170BDD2
:103C50000EF0004E4EEA113114EB5C04C2BFD4EBFF
:103C60000C0541EA045170BD41F480114FF0000E83
:103C7000013C90E645EA060E8DE60CEA135594EAFF
:103C80000C0F08BF95EA0C0F3FF43BAF94EA0C0F02
:103C90000AD150EA01347FF434AF95EA0C0F7FF477
:103CA00025AF104619462CE795EA0C0F06D152EACB
:103CB00003353FF4FDAE1046194622E750EA4106AF
:103CC00018BF52EA43067FF4C5AE50EA41047FF4C0
:103CD0000DAF52EA43057FF4EBAE12E74FEA410223
:103CE00012F5001215D211D56FF47873B3EB62524E
:103CF00012D94FEAC12343F0004343EA505311F075
:103D0000004F23FA02F018BF404270474FF0000006
:103D1000704750EA013005D111F0004008BF6FF044
:103D2000004070474FF00000704700BF0A2200219A
:103D300001F090B90A23002201F068B908B500210A
:103D4000044604F031FE044B1868C36B03B1984776
:103D500020460AF059FA00BFF8EB0000B1F90C2038
:103D6000F8B50C461107074643D4636842F4006275
:103D7000002BA2815BDDA56A002D56D000233E6892
:103D80003B6093B212F4805255D101233846E16969
:103D9000A847421C65D0A389A56A5B0705D563685F
:103DA000C01A236B0BB1E36BC01A0246E169002312
:103DB0003846A847411C40D13B68002B3DD01D2B05
:103DC00001D0162B54D10022A38923F40063A381D0
:103DD0002369C4E90032216B3E6031B304F1400332
:103DE000994202D0384600F06DFA0023184623634A
:103DF000F8BD2669CEB193B29A0718BF0023256893
:103E000008BF63692660AD1BA3600CE02B463246F9
:103E1000D4F824C03846E169E047B0F1000CA5EBC6
:103E20000C05664416DD002DF0DC0020F8BDE36BC8
:103E3000002BA0DCF9E7206DAFE70022B4F90C30CD
:103E4000626023F400632269A381DB042260C2D58F
:103E50002065C0E7A3894FF0FF3043F04003A38102
:103E6000F8BD3B68002B96D01D2B06D0162B04D036
:103E7000A38943F04003A381F8BD00203E60F8BD54
:103E800038B505460C4608B1836BA3B1B4F90C00F4
:103E9000B8B1636EDB0701D4810515D528462146EC
:103EA000FFF75CFF636E0546DA0702D4A3899B0522
:103EB0000ED5284638BD00F08FF8B4F90C00002864
:103EC000E7D10546284638BDA06D00F06DFBE5E75B
:103ED000A06D00F071FB284638BD00BF38B548B36F
:103EE000184B04461D680DB1AB6BBBB1B4F90C00A7
:103EF00088B1636EDB0701D4810513D528462146BE
:103F0000FFF72CFF636E0546DA0702D4A3899B05F1
:103F10000CD5284638BD0546284638BD284600F051
:103F20005BF8E3E7A06D00F03FFBE7E7A06D00F072
:103F300043FBEEE7044B05491868BDE8384000F044
:103F4000E1BA00BF10000020F8EB0000813E000045
:103F5000014900F0D7BA00BFA19A000008B5436E2E
:103F6000DA0702D483899B0501D5002008BD806D46
:103F700000F01AFB002008BD08B5436EDA0702D432
:103F800083899B0501D5002008BD806D00F014FBDE
:103F9000002008BD682270B54D1E02FB05F50E46D7
:103FA00005F1740100F00AFB044640B100210C3019
:103FB000C4E9016005F16802216000F0ABFD204614
:103FC00070BD00BF024B0349186800F09BBA00BFE8
:103FD000F8EB0000A19A00002DE9F047824639482D
:103FE00000F0E2FADAF83840002C66D1042303220C
:103FF0003549DAF80450CAF83C10DFF8D090DFF801
:10400000D080344F344E0AF53B71CAE9B921CAF861
:10401000E0422146EB600822C5E90044C5E90444BA
:104020006C66AC60AC6105F15C0000F073FDC5E945
:104030000759C5E90987EE6205F1580000F0ACFAAE
:10404000DAF80850254B2146EB600822C5E9004408
:10405000C5E904446C66AC60AC6105F15C0000F03D
:1040600059FDC5E90759C5E90987EE6205F1580010
:1040700000F092FADAF80C50194B2146EB60082256
:10408000C5E90044C5E904446C66AC60AC6105F167
:104090005C0000F03FFD05F15800C5E90759C5E98E
:1040A0000A76C5F8248000F077FA01230548CAF89B
:1040B0003830BDE8F04700F07FBA0248BDE8F0476D
:1040C00000F07ABA8C0A0020513F0000814D0000B8
:1040D000A94D0000E94D0000094E00000900010053
:1040E000120002002DE9F04107462D4800F05CFA6D
:1040F0002C4B1E68B36B93B34FF0040806F538766B
:10410000D6E90134013B04D525E05A1C04F16804CA
:1041100021D0B4F90C50013B002DF6D1224B04F113
:104120005800E360656600F037FA1D4800F044FA75
:1041300008222946C4E90155C4E904552560A56152
:1041400004F15C0000F0E6FCC4E90C55C4E911552B
:104150002046BDE8F08135682DB12E46D0E73046C7
:10416000FFF73AFFC8E74FF4D671384600F026FA59
:10417000044668B1056029460546C0F804800C3045
:104180004FF4D072A06000F0C5FC34602E46B7E753
:104190000348346000F010FA0C233B60D8E700BFFE
:1041A000880A0020F8EB00000100FFFF014800F042
:1041B000FBB900BF880A0020014800F0FDB900BF2C
:1041C000880A0020014800F0EFB900BF8C0A0020E7
:1041D000014800F0F1B900BF8C0A002008B505487D
:1041E00000F0E2F9044B05491868BDE8084000F00A
:1041F00069B900BF880A0020100000205D3F000060
:1042000008B5054B0549186800F05CF9BDE80840A1
:10421000034800F0D1B900BF10000020793F000032
:10422000880A0020F8B50C46234F064600F0C4FC6F
:10423000BB685D68C4F57E6325F003050F332B442E
:1042400023F47F6323F00F03A3F58054B4F5805F5C
:1042500007DB0021304600F041FDBB682B4498424B
:1042600004D0304600F0AEFC0020F8BD304661427C
:1042700000F034FD01300DD0104ABB682D1B45F015
:1042800001055D60136830461B1B136000F09AFC4B
:104290000120F8BD0021304600F020FDBA68831AE5
:1042A0000F2BDEDD43F001035360054B03491B6810
:1042B000C01A0860D5E700BF40040020940A00201F
:1042C0004808002000295ED0F8B50C46064600F0EC
:1042D00073FC54F8042C784FA4F1080522F0010176
:1042E0006818D7F808C04368844523F0030300F03A
:1042F0008780D207436034D454F8082C07F10804AF
:10430000AD1A1144AA68A24268D000EB030CDCF895
:1043100004E0D5F80CC01EF0010FC2F80CC0CCF8B8
:10432000082000F0918041F001036B600160B1F55D
:10433000007F31D24A09CB08012191407A680133CC
:104340001143796007EBC30257F83310083AC5E907
:10435000021247F83350CD603046BDE8F84000F017
:1043600031BCC2185268D2070ED4194407F10804B0
:104370008368A34270D0C268DA60936041F00103A1
:104380006B606950D3E7704741F00103B1F5007FDE
:1043900044F8043C0160CDD3B1F5206F4FEA5123BE
:1043A00047D28B0903F1390003F13802C300F81832
:1043B000FB580838984258D05A6822F003028A42C3
:1043C00002D99B689842F7D1D868C5E90230856068
:1043D0003046DD60BDE8F84000F0F4BBC21852681A
:1043E000D20763D40B44D0E90212CA60916043F053
:1043F00001026A603046EB50BDE8F84000F0E2BBD5
:104400000B44D10707D454F8082CAD1A1344D5E94E
:104410000212CA60916043F001026A60274ABD60DF
:1044200012689A4298D8264B30461968FFF7FAFE70
:1044300092E7142B0AD9542B1FD80B0B03F16F00F2
:1044400003F16E02C300B2E7194491E703F15C0087
:1044500003F15B02C300AAE741F00103C7E9045579
:10446000C5E902446B60695076E70121921001FAB8
:1044700002F279680A437A60A7E7B3F5AA7F06D803
:10448000CB0B03F1780003F17702C3008FE740F212
:104490005452934206D88B0C03F17D0003F17C0249
:1044A000C30084E74FF47E737E2280E741F001036E
:1044B0006B60016050E700BF400400204C08002002
:1044C000C40A00202DE9F0410026884600F538771F
:1044D000D7E90154013D0ED4A389013D012B06D932
:1044E000B4F90E30013302D02046C04706436B1C9E
:1044F00004F16804F0D13F68002FE9D13046BDE8EF
:10450000F08100BF2DE9F8434FF0000907468846C7
:1045100000F53876D6E90154013D10D4A389013D58
:10452000012B08D9B4F90E30013304D021463846A6
:10453000C04749EA00096B1C04F16804EED13668F3
:10454000002EE7D14846BDE8F88300BF70B50D4E98
:104550000D4D761BB61006D0002455F8043B0134EF
:104560009847A642F9D1094E094D09F04FFE761B36
:10457000B61006D0002455F8043B01349847A642F3
:10458000F9D170BDC4090020C4090020CC09002065
:10459000C4090020704700BF704700BF704700BFCC
:1045A000704700BF704700BF704700BF01207047D1
:1045B00001207047704700BF704700BF2DE9F04FE2
:1045C00001F10B05162D064683B025D8102900F2FF
:1045D000B88000F0F1FA102518224FF0020CB54F08
:1045E0003A445368A2F108018B4200F0B7805A6840
:1045F000D96822F003021A449C683046E1608C605E
:10460000516803F1080441F00101516000F0DAFA49
:10461000204603B0BDE8F08F35F0070500F191802A
:10462000A94200F28E8000F0C7FAB5F5FC7FC0F019
:1046300094816B0A00F08C80042B00F26A81AB0934
:1046400003F1390C03F138044FEACC00994F384498
:1046500043680838984206D10CE0002980F2268190
:10466000DB68984206D05A6822F00302511B0F29DA
:10467000F3DDA4463C69DFF840E274457AD0626815
:1046800022F00302531B0F2B00F37681002BC7E9A6
:1046900004EE80F26781B2F5007F80F0198101217C
:1046A000D30852090B4491407A6857F833000A4303
:1046B00007EBC3010839A060E1607A6047F8334036
:1046C000C46001214FEAAC039940914259D811428C
:1046D00006D12CF0030C490011420CF1040CFAD065
:1046E00007EBCC0948466446D0F80C80404508D119
:1046F0001CE1002B80F22181D8F80C80404500F0AD
:104700001581D8F8042022F00302531B0F2BF0DD93
:1047100008EB050145F00105C8F804503046D8E91A
:104720000264F460A66043F00104C7E904114C6020
:10473000C1E902EE48F8023000F044FA08F108043A
:1047400002E00C2300243360204603B0BDE8F08F64
:104750004FF400704FF0400C3F2477E7D3689A4243
:1047600008BF0CF1020C7FF442AF3C69DFF848E16E
:10477000744584D101217A684FEAAC039940914293
:10478000A5D9BC68636823F003094D4503D8A9EB9C
:1047900005030F2B7ADCDFF824B1494BDBF800204E
:1047A0001B6801322B4404EB090A00F02F8103F54A
:1047B00080530F3323F47F6828F00F0841463046BA
:1047C00000F08CFA411C024600F0EF80824500F2B6
:1047D000EA803C4B196841440846196000F0498161
:1047E000DBF80010019301311BBFA2EB0A0A504411
:1047F000CBF80020186012F0070B00F01181CBF10C
:1048000008010A44CBF5805190440831A1EB08011E
:10481000C1F30B0A51463046009200F05FFA421C89
:10482000DDE9002300F04B81801A00EB0A081968CB
:1048300048F001005144BC42BA601960506000F079
:104840002481B9F10F0F40F222814FF0050E60680C
:10485000A9F10C0C2CF0070C00F0010040EA0C0050
:104860006060BCF10F0F04EB0C00C0E901EE00F238
:104870002E8114465068144B1A688A4238BF19605A
:10488000124B1A688A4238BF196090E0621943F0EF
:10489000010345F0010565603046BA600834536095
:1048A00000F090F9204603B0BDE8F08FD9681A44B3
:1048B000A2E600BF40040020480400204808002071
:1048C000C40A0020940A0020BC0A0020C00A00206C
:1048D000B2F5206F4FEA52235FD3142B00F2B18060
:1048E00003F15C01C9005B337818795808388842B5
:1048F00000F08F804B6823F00303934202D989684C
:104900008842F7D1C8687A68C4E902108460CC6034
:10491000D7E6142B59D9542B00F29B802B0B03F1B3
:104920006F0C03F16E044FEACC008FE60134A3074D
:1049300000F108007FF4D8AE53E044464244536887
:10494000D8F80C1043F00103536054F8083F304688
:10495000D9608B6000F036F9F6E64FEAD50C05F128
:1049600008023CE622445368304643F0010353609A
:1049700000F028F90834E7E6611945F001056560A3
:1049800043F00105C7E904113046C1E902EE4D606C
:10499000A35000F017F90834D6E6930903F1390162
:1049A000C9003833A0E7BC425ED0BC68606820F024
:1049B00003084545A8EB050302D80F2B3FF766AF68
:1049C000304600F0FFF80024BEE603F15C0C03F172
:1049D0005B044FEACC0039E659F808394B4540F002
:1049E00095801CF0030F0CF1FF3CF5D17B6823EAA6
:1049F00001037B60490099423FF6C3AE11B9C0E69E
:104A0000490004341942FBD0A44669E603F11008BA
:104A1000D4E601229B109A407B681A437A6073E7C0
:104A200002EB08014942C1F30B0A5146304600929D
:104A300000F054F9431CDDE900237FF4F5AEDA46BB
:104A4000F5E6542B26D8130B03F16F01C9006E3322
:104A50004AE7B3F5AA7F26D8EB0B03F1780C03F1F4
:104A600077044FEACC00F1E5294B18684044186000
:104A7000B6E6CAF30B0CBCF1000F7FF4B1AEBC6814
:104A8000C84448F001006060F5E61446F3E60123EF
:104A9000536095E7B3F5AA7F24D8D30B03F17801CF
:104AA000C900773320E740F25452934224D8AB0C2C
:104AB00003F17D0C03F17C044FEACC00C6E5ABF1B9
:104AC000080BD8444FF0000AA8EB0208AFE604F147
:104AD000080130460093FFF7F5FBBC68009B606857
:104AE0001968C8E640F254518B420BD8930C03F17D
:104AF0007D01C9007C33F7E64FF47E704FF07F0CE8
:104B00007E24A3E54FF47E717E23EDE67B6871E79A
:104B1000940A0020830730B548D0541E002A3FD0A5
:104B20000346CAB201E0013C3AD303F8012B9D07CA
:104B3000F9D1032C2DD9CDB245EA05250F2C45EA34
:104B4000054536D9A4F1100222F00F0C03F1200E16
:104B5000E6444FEA121C03F1100242E9045542E90F
:104B6000025510327245F8D10CF1010214F00C0F0D
:104B700003EB021204F00F0C13D0ACF1040323F08A
:104B800003030433134442F8045B9342FBD10CF05B
:104B900003042CB1CAB21C4403F8012B9C42FBD184
:104BA00030BD64461346002CF4D1F9E703461446A1
:104BB000BFE71A46A446E0E70148FFF7F5BC00BF8F
:104BC000840A00200148FFF7F7BC00BF840A0020D8
:104BD0000EB400B582B003AB53F8042B8168019387
:104BE00002F05CF802B05DF804EB03B0704700BF60
:104BF0000FB400B5074A83B004AB106853F8042B18
:104C00008168019302F04AF803B05DF804EB04B048
:104C1000704700BF10000020826806F06BB800BF2C
:104C2000024B01461868826806F064B81000002044
:104C300030B5054689B008460C4600F0E9F8012178
:104C40000223214A04940692AA6B04AC05900844FE
:104C500001940791AC680293039022B3636E13F042
:104C6000010FB4F90C309AB201D1980525D5910401
:104C700006D4626E43F4005322F40052A3816266AC
:104C8000284601AA214604F08FFF636E002814BF56
:104C90004FF0FF350A25DA0702D4A3899B0506D514
:104CA000284609B030BD2846FFF796F9D6E7A06D33
:104CB000FFF782FC284609B030BDA06DFFF774FCF9
:104CC000B4F90C309AB2D2E724E30000024B01465B
:104CD0001868FFF7ADBF00BF10000020002238B5F4
:104CE000064D044608462A6009F080FA431C00D0AD
:104CF00038BD2B68002BFBD0236038BDC80A0020CC
:104D00000CB430B50C466FF000459DB00A4A20AB9C
:104D1000059253F8042B02A9CDE9013407950495B7
:104D2000069400F069FA0022029B1A701DB0BDE8DB
:104D3000304002B0704700BF0802FFFF0EB430B52C
:104D400004466FF000459CB00B4A1FAB0B4905921F
:104D500053F8042B086802A9CDE90134079504959E
:104D6000069400F049FA0022029B1A701CB0BDE8BC
:104D7000304003B0704700BF0802FFFF1000002062
:104D800010B50C46B1F90E1006F02CF8002803DB24
:104D9000236D0344236510BDA38923F48053A381AD
:104DA00010BD00BF002070472DE9F0410C46B1F95D
:104DB0000C101F46CB05054616460BD421F4805136
:104DC000A1813B4632462846B4F90E10BDE8F041B9
:104DD00003F060BDB4F90E100223002205F066F85E
:104DE000B4F90C10EAE700BF10B50C46B1F90E108B
:104DF00005F05CF8A389421C0EBF23F4805343F4F2
:104E000080532065A38110BDB1F90E1003F034BEAC
:104E100020F0030110F00300C0F1000051F8043B42
:104E200000F1040C4FEACC0C6FF000021CBF22FA18
:104E30000CF213434FF0010C4CEA0C2C4CEA0C4CD6
:104E4000A3EB0C0222EA030212EACC1204BF51F8CF
:104E5000043B0430F4D0C2F1000102EA0102B2FACC
:104E600082F2C2F11F0200EBD2007047024A012316
:104E700012685C3200F002B810000020F0B407465F
:104E800010B33E468C4616F8015B01E0A54216D0F1
:104E90001CF8014B002CF9D1DDB10C4616F8015B72
:104EA00001E0002BF9D014F8013B9D42F9D14DB13E
:104EB000002306F8013C38461660F0BC704763B129
:104EC0003746DEE72E46F6E71768002FD9D1384679
:104ED000F3E728461560F0BC7047166038463B7013
:104EE000EBE700BF0123FFF7C9BF00BF2DE9F04F7B
:104EF00081468E46444D70461EF801CB15F80C4095
:104F000014F00804F7D1BCF12D0FE34653D06FF035
:104F10000048BCF12B0F04BF9EF800B000F1020E58
:104F20001BB1102B4FD01F4604E0BBF1300F55D002
:104F30000A231F460025B8FBF7F6284607FB168A0A
:104F400007E0864215D329D0012507FB00C01EF8D3
:104F500001BBABF1300CBCF1090F06D9ABF1410C30
:104F6000BCF1190F08D8ABF1370C63450DDD002DEE
:104F7000E7DA4FF0FF35EAE7ABF1610CBCF1190F4E
:104F800003D8ABF1570C6345F1DC002D0BDB04B10A
:104F900040420AB195BB1160BDE8F08FE245D3DA1B
:104FA0004FF0FF35D3E72223C9F800301AB340464B
:104FB0000EF1FF31EFE79EF800B04FF000480124FA
:104FC00000F1020EACE7BBF1300FACD19EF800004F
:104FD00000F0DF00582807D01F46ABE79EF80030EE
:104FE00003F0DF03582B0BD110279EF801B03B468E
:104FF0000EF1020E9EE74046BDE8F08F8046D6E7F0
:1050000008231F4696E700BF81EC0000012B03D068
:10501000242B01D8FFF76ABF10B504F03BFD16231F
:105020000360002010BD00BF012A10B50AD0242A59
:1050300008D8074C13460A4601462068BDE81040D0
:10504000FFF754BF04F026FD16230360002010BDB7
:1050500010000020012A10B50AD0242A08D8074CD5
:1050600013460A4601462068BDE81040FFF73EBFE0
:1050700004F010FD16230360002010BD1000002076
:105080002DE9F04707460E464A4D304616F801CB4B
:1050900015F80C4014F00804F7D1BCF12D0FE646CA
:1050A00058D0BCF12B0F04BF96F800E0861C5BB112
:1050B000102B54D04FF0FF38B8FBF3F803FB08FA7D
:1050C00099466FEA0A0A08E0BEF1300F5AD00A2367
:1050D0004FF0050A9946DFF8E0800025284607E0F2
:1050E000404515D829D0012509FB00C016F801EB71
:1050F000AEF1300CBCF1090F06D9AEF1410CBCF198
:10510000190F08D8AEF1370C63450DDD002DE7DA35
:105110004FF0FF35EAE7AEF1610CBCF1190F03D88F
:10512000AEF1570C6345F1DC002D0BDB04B14042BE
:105130000AB16DB91160BDE8F087D445D3DD4FF0F9
:10514000FF35D3E722234FF0FF303B60002AF2D037
:10515000711EEFE796F800E00124861CA7E7BEF178
:10516000300F21D1307800F0DF00582816D14FF0F1
:10517000100996F801E04FF00F0A6FF070484B46A7
:105180000236AAE7337803F0DF03582BEFD0082369
:105190004FF0070A6FF0604899469EE799466FF016
:1051A00070484FF00F0A98E74FF00F0A6FF0704801
:1051B000994692E781EC000099999919FFF760BF31
:1051C0008C4600B586461346034A714610685DF862
:1051D00004EB6246FFF754BF100000208C4600B578
:1051E00086461346034A714610685DF804EB624632
:1051F000FFF746BF100000202DE9F04FD5B00C4658
:105200000C9191460E930A9004F048FE03681846EC
:105210001793FFF7FDFDA3891690190603D523699F
:10522000002B00F08F8700242BAB224698464D467A
:10523000CDE929442893129400230024CDE91434A5
:105240002B78CDE91922CDE91B2218920892002B68
:1052500000F0CE81AA4604E01AF8013F002B00F0CE
:105260000981252BF8D1BAEB050640F007819AF8A1
:105270000030002B00F0BC8100234FF0FF324FF0D4
:105280002B0920241F469AF8016007920AF1010AAF
:105290008DF8833009930AF1010AA6F120035A2BF5
:1052A00000F22081DFE813F0CA021E011E01C502D0
:1052B0001E011E011E01A3021E011E016A00F3024F
:1052C0001E014702D9021E01D4025B005B005B0095
:1052D0005B005B005B005B005B005B001E011E016E
:1052E0001E011E011E011E011E01B0011E010B0246
:1052F0007A00B001B001B0011E011E011E011E01A5
:105300009E021E011E01B6001E011E011E01190291
:105310001E014C021E011E013F071E011E011E013F
:105320001E011E011E011E011E01B0011E010B0205
:105330007C00B001B001B00191027C0075001E013B
:1053400084021E017002B8005E0275001E0119027F
:1053500072001C071E011E011F071E0172000022A1
:10536000A6F130031AF8016B02EB820203EB420252
:10537000A6F13003092BF5D909928EE70E9B53F85D
:10538000042B002A09920E93C0F2D2819AF8006091
:1053900081E79AF8006047F020077CE747F01007A4
:1053A000BA060E9B40F17D81073323F007031A46AE
:1053B0005B6852F8084B99460E92002BC0F27F852D
:1053C000079B013301F0398054EA090327F0800B71
:1053D00000F005850A2C79F1000380F09387012302
:1053E0005F4630348DF84F410B930DF24F15079AFD
:1053F0000B9900238A42B8BF0A4606929DF8832083
:105400000D930F9313931093002A7CD0069B0133C6
:10541000069378E047F0100717F0200900F032817A
:105420000E9B073323F00703D3F8049053F8084B7F
:105430000E93002327F4806B00228DF88320079AB7
:10544000511C00F02A8254EA09012BF0800740F039
:105450002382002A41F02B80002B40F0C5841BF0F2
:1054600001030B9300F0548530230DF24F158DF896
:105470004F31BCE7BAEB050600F0BA802A9BC8E9B9
:10548000005633442A93299B0133072B299305DCCB
:1054900008F10808089B33440893E8E60C990A9839
:1054A00028AA05F07BFF80B90DF1AC08F2E70C9952
:1054B0000A9828AA05F072FF002800F08A800D9B48
:1054C0001BB10D990A98FEF7FDFE0C9B9B8913F00A
:1054D000400F089B18BF4FF0FF330893089855B052
:1054E000BDE8F08F002E00F08380012300228DF8AC
:1054F000EC6006933BAD8DF883200B930D920792E1
:105500000F921392109217F0020302D00699023103
:10551000069117F0840B07D109990698A1EB0009B1
:10552000B9F1000F00F336832A9C82B10122C8F83A
:105530000420299A013401320DF18301072A2A94AB
:105540002992C8F8001000F3698308F108087BB1BC
:105550000223C8F80430299B0234013321AA072B07
:105560002A942993C8F8002000F36C8308F10808F6
:10557000BBF1800F00F02E82079B0B9AA3EB020B6E
:10558000BBF1000F00F37182FB0500F1C5810B9B9D
:10559000C8F800501C44C8F80430299B2A940133F1
:1055A000072B299300F3EA8208F108087B0705D549
:1055B000099B069A9D1A002D00F35083DDE90832FD
:1055C00006998A42ACBF9B185B180893002C7FF4A5
:1055D0006EAF002329930D9B1BB10D990A98FEF71E
:1055E00071FE55460DF1AC082B78002B7FF432AEDE
:1055F0002A9B002B3FF469AF0C9C0A98214628AAED
:1056000005F0CCFEA38962E70E9B073323F0070267
:10561000F2E80234CDE91434DDE9143424F0004416
:10562000994618460E9221464FF0FF32B64B08F0CD
:10563000C9F9002840F09684484621464FF0FF32D1
:10564000B14B08F0A1F9002840F08C84DDE9140189
:105650000022002308F08EF9002840F0A6879DF86C
:10566000832000210320A94DA94B27F080070D912D
:105670000690472EC8BF1D4607910B900F911391BE
:105680001091C1E617F0100340F0628417F0400259
:1056900000F07B870E9A994652F8044B0E92A4B202
:1056A000C7E653F8044B0E93FB0600F141847D06D8
:1056B00040F13B8444F3C0394B4624B27DE60120DF
:1056C00000220E9B069053F8041B3BAD8DF88320FF
:1056D0008DF8EC100E930B9010E74FF000090E9C24
:1056E000079B54F8045B8DF88390002D00F0EE8644
:1056F0005A1C00F060851A464946284604F08CFC86
:105700000D90002801F09E800D9B9DF883205B1B6F
:105710000B9323EAE373CDF81C900E940693CDF817
:105720003490CDF83C90CDF84C90CDF840906BE69D
:10573000099B5B4209939AF8006047F00407AAE5C9
:1057400047F0100B1BF0200900F0AA830E9B0733D3
:1057500023F007031A4652F8084BD3F804900E9230
:10576000012369E6302278260E9B8DF8842053F8B9
:10577000044B684A0E934FF00009022347F0020BD6
:105780008DF88560189257E6BD0600F1D683FC06B9
:1057900000F19386780600F15D87B90540F18D86AA
:1057A0000E9B089953F8042B554611700E931BE776
:1057B0009AF800606C2E03BF9AF8016047F020074A
:1057C0000AF1010A47F0100765E59AF80060682EB3
:1057D00003BF9AF8016047F400770AF1010A47F025
:1057E000400758E59AF8006047F0080753E50A9E1D
:1057F000304604F053FB436818461B93FFF708FB41
:10580000034630461C931E4604F048FB83681993F8
:10581000002E3FF4BBAD199B002B3FF4B7AD199B95
:105820001B78002B3FF4B2AD9AF8006047F4806714
:1058300031E59AF8006047F001072CE59DF88330C8
:10584000002B7FF4A3AD9AF800608DF8834022E529
:105850009AF8006047F080071DE5524612F8016B88
:105860002A2E01F0EB81A6F13003092B924698BF56
:10587000002201F203801AF8016B02EB820203EBB3
:105880004202A6F13003092BF5D9079205E59AF8F3
:1058900000608DF88390FEE4BB46012B3FF49AAD87
:1058A000022B54AD12D1189A04F00F03D35C2409D3
:1058B00044EA09744FEA191905F8013D54EA09034D
:1058C000F2D154AB5B1B5F460B9390E504F00703EA
:1058D000E40844EA49744FEAD909303354EA09012B
:1058E0002A4605F8013DF1D11BF0010FE9D0302B1C
:1058F000E7D03023023A05F8013C54AB9B1A5F46CF
:1059000015460B9373E500BFFFFFEF7FFCEB000034
:1059100000EC00000CEC0000652E40F3E980DDE9AE
:1059200014010022002308F01BF8002800F0D281A7
:105930000123C8F80430299BBF4A01330134072BE7
:105940002A942993C8F8002000F37A8508F1080802
:10595000229B129A934280F2D782169B179A1C447C
:10596000C8E90023299B2A940133072B299300F3CC
:10597000DD8308F10808129B5D1E002D7FF716AE2F
:10598000102D41F34181DFF8B4922246494610269A
:10599000B946299B0F46DDF828B00C9C05E008F1BC
:1059A0000808103D102D40F3588501331032072BA5
:1059B000C8E90076CDE92932F1DD2146584628AA0A
:1059C00005F0ECFC00287FF47AADDDE929320DF119
:1059D000AC08E6E7099B069AA3EB020BBBF1000FAC
:1059E0007FF7CAADBBF1100F41F30580DFF84C9291
:1059F00041462046A8464C461023299A0C9DDDF8C6
:105A0000289006E0ABF1100BBBF1100F01F108017B
:105A100019DD01321030072AC1E90043CDE9292000
:105A2000F0DD2946484628AA05F0B8FC00287FF496
:105A300046ADDDE92920ABF1100BBBF1100F4FF0A3
:105A400010032BA9E5DC4546A146884604460132F1
:105A50005C44072ACDE92924C8F80090C8F804B0AE
:105A600000F3188508F1080886E5BBF1100F40F334
:105A70009785DFF8C89141462046A8464C4610233A
:105A8000299A0C9DDDF8289006E0ABF1100BBBF1D4
:105A9000100F01F1080119DD01321030072AC1E9A8
:105AA0000043CDE92920F0DD2946484628AA05F023
:105AB00075FC00287FF403ADDDE92920ABF1100B64
:105AC000BBF1100F4FF010032BA9E5DC4546A146B2
:105AD0008846044601325C44072ACDE92924C8F8E7
