:02000004002DCD
:1000000000FC07207D010000C1010000C3010000C9
:10001000C5010000C7010000C90100000000000088
:10002000000000000000000000000000CB01000004
:10003000CD01000000000000CF010000D101000050
:100040001114000071140000D114000031150000DB
:100050009D160000FD160000DF010000E101000018
:10006000E3010000E5010000E701000000000000DE
:1000700091150000191600005D170000EF01000047
:10008000F1010000F3010000F5010000F70100009C
:10009000F9010000FB010000FD010000FF0100006C
:1000A0000102000003020000050200000702000038
:1000B000090200000B0200000D0200000F02000008
:1000C00010B5054C237833B9044B13B10448AFF392
:1000D00000800123237010BDC4090020000000002F
:1000E000D4A3000008B5034B1BB103490348AFF389
:1000F000008008BD00000000C8090020D4A3000053
:10010000A3F5803A704700BF174B002B08BF134B75
:100110009D46FFF7F5FF00218B460F461348144A12
:10012000121A01F075FC0E4B002B00D098470D4BB6
:10013000002B00D098470020002104000D000D483E
:10014000002802D00C4803F00DFD01F03DFC20001A
:10015000290001F045FB01F027FC00BF000008006A
:10016000000000000000000000FC0720C40900207F
:100170005C0A0020653B0000355000000A490B4A2C
:100180000B4B9B1A03DD043BC858D050FBDC0949DC
:10019000094A00209142BCBF41F8040BFAE7074826
:1001A0008047FFF7B1FF0000E0A30000000000203F
:1001B000C4090020C40900205C0A0020991900002D
:1001C000FEE7FEE7FEE7FEE7FEE7FEE7FEE7FEE707
:1001D000FEE7FEE7FEE7FEE7FEE7FEE7FEE7FEE7F7
:1001E000FEE7FEE7FEE7FEE7FEE7FEE7FEE7FEE7E7
:1001F000FEE7FEE7FEE7FEE7FEE7FEE7FEE7FEE7D7
:10020000FEE7FEE7FEE7FEE7FEE7FEE7FEE7FEE7C6
:100210000022F0B54FF0402C04460E468BB0344B14
:1002200005ADCDF8212009920FCB07C5314F2B70BA
:10023000CCF81040DCF810003E613B69241A18BF6E
:1002400001249E424FF040239A6818BF023442F0C6
:1002500001029A609B6805A8DA07264B58BF043450
:100260009A684FF0402542F002029A609B689B0713
:1002700058BF083401F076FD00239E461D496A6888
:100280000AAED70706EB030C08D4704506D93246F0
:10029000724412F8142C0EF1010E2A604A6892077B
:1002A0001BD50A68013398420CF8282CE7D80025A2
:1002B000694605A84DF8035001F076FC4FF0402246
:1002C0000C4B68B1956010349D60214601240A48AA
:1002D00001F000FC20460BB0F0BD9842CFD8E6E715
:1002E00090609860002CF0D120460BB0F0BD00BFAC
:1002F0008C9F000000500040449800000A22014BEF
:100300009A617047001001402DE9F04F044683B018
:10031000844801F041FC20686368003818BF012060
:1003200003B10230A36803B10430E36803B10830BD
:10033000236903B110307C4B9C4200F0DD8003F553
:1003400080539C4200F0BB80784B794A019313465E
:10035000784C794D794E7A4FDFF8E8C1DFF8E8E163
:10036000DFF8E881DFF8E891DFF8E8A1DFF8E8B12D
:1003700011680429DBF8001018BF203001B14030AB
:10038000DAF8001001B18030D9F8001009B100F599
:100390008070D8F800102129DEF8001018BF00F591
:1003A0000070B829DCF8001018BF00F580601B2928
:1003B000396818BF00F5006009B100F58050316858
:1003C0000D29296818BF00F50050F029216818BFD1
:1003D00000F580400529019918BF00F50040096823
:1003E000B129196818BF00F58030C94319605968F0
:1003F000C94359609968C9439960D968C943D960AC
:100400001969C94319615969C94359619969C9434E
:100410009961D969C943D961196AC9431962596A8D
:10042000C9435962996AC9439962D96AC943D96271
:100430001368042BDBF8003018BF40F020000BB12C
:1004400040F04000DAF800300BB140F08000D9F8FD
:1004500000300BB140F48070D8F80030212BDEF86A
:10046000003018BF40F40070B82BDCF8003018BF23
:1004700040F480601B2B3B6818BF40F400600BB158
:1004800040F4805033680D2B2B6818BF40F40050A7
:10049000F02B236818BF40F48040052B019B1B689C
:1004A00023D0B12B40F4004001D040F4803001460D
:1004B0002A4801F00FFB012003B0BDE8F08F284A65
:1004C00003F6FC730193274C1346274D274E284F04
:1004D000DFF8A0C0DFF8A0E0DFF8A080DFF8A09090
:1004E000DFF8A0A0DFF8A0B042E7B12BDDD10028F3
:1004F000DDD103B0BDE8F08F244B254A0193254C94
:100500001346254D254E264FDFF898C0DFF898E0BA
:10051000DFF89880DFF89890DFF898A0DFF898B0BF
:1005200026E700BF6898000000500040FC4F0040E4
:10053000D04F0040F84F0040F44F0040F04F0040D3
:10054000EC4F0040E84F0040E44F0040E04F0040D7
:10055000DC4F0040D84F0040D44F0040809800004E
:10056000D06F0040F86F0040F46F0040F06F004023
:10057000EC6F0040E86F0040E46F0040E06F004027
:10058000DC6F0040D86F0040D46F0040FC5F00403B
:10059000D05F0040F85F0040F45F0040F05F004033
:1005A000EC5F0040E85F0040E45F0040E05F004037
:1005B000DC5F0040D85F0040D45F00402DE9F0418F
:1005C000002705468AB04E4B05AE0C4690460FCB31
:1005D00007C64C483370CDF82170099701F0DCFA5A
:1005E0002D2001F0B5F9202001F0B2F9B5F1402F2E
:1005F00063D0454B9D424DD14FF040262C612F6971
:1006000034613F1B18BF01273369A342AB6818BF91
:10061000023743F00103AB60AB68D907B36858BF3A
:10062000043743F00203B360B3689A0758BF083732
:10063000B8F1000F43D1444641466B680AAADB0774
:10064000224407D40B2905D80AAB0B4413F8143CF9
:1006500001312B607368980724D5336801340B2C63
:1006600002F8283CE9D94FF00008694605A84DF882
:10067000048001F099FAC0B1C5F808801037C6F8B7
:10068000088039460127214801F024FA38460AB08B
:10069000BDE8F08101271E4801F07EFA38460AB015
:1006A000BDE8F0810B2CC8D9DDE7A860B060002F51
:1006B000E7D138460AB0BDE8F081134E9EE700242A
:1006C000A0466B680AAAD907224409D4B8F10B0FD7
:1006D00006D80AAB434413F8143C08F101082B6018
:1006E00073689B0709D530680134C0B202F8280C42
:1006F00001F02EF90B2CE4D9B5E70B2CE1D9B2E7C8
:100700008C9F0000A898000000500040F498000062
:10071000B49800002DE9F04F00254E4C8DB00FCC61
:1007200054F810E907AE0DF1080CACE80F000FCC3F
:1007300037460FC64848DFF824B10DF10808CCF859
:1007400000E00195C6F800E001F026FA11E0484605
:10075000FFF75EFD46F0020608B146F004060123ED
:100760002A46314658460135019301F0B3F90A2D66
:1007700022D037F902AB38F9029B51464846FFF7C1
:1007800047FD04460AF10101261E484618BF01260E
:10079000FFF73EFD0AF1FF310028D8D14846FFF7A8
:1007A00037FD0028D9D1002C51D149462C480135BC
:1007B00001F090F90A2DDCD14FF0402300224FF0D8
:1007C000FF35284E284C9A60B2601D611A6927498E
:1007D0001C611B692648511A18BF0121002283425F
:1007E0004FF040231A611B6918BF41F002010BB1A1
:1007F00041F004014FF0FF301A4B1C4A18611B698D
:100800001C489342174B1C4A1861186918BF41F0E5
:10081000080190424FF000020FD01A611B6941F0AD
:1008200010010BB141F02001144801F053F90123EC
:10083000019301980DB0BDE8F08F1A611B69002B80
:10084000F0D10029F0D101980DB0BDE8F08F01265C
:1008500085E700BFA09F0000189900002C990000B8
:100860006099000000500040C3AA55FFFFFF0F0031
:10087000C3AA05009966FFAA99660F00789900003F
:100880002DE9F04105464FF000088AB04B4F05AE08
:100890008E4694461C4697E80F0007C6B5F1402FD8
:1008A000CDF821803370CDF8248064D0444B9D4234
:1008B0004ED14FF04026C5F810E02F69C6F810C0A1
:1008C000B7EB0E0718BF012733696345AB6818BF44
:1008D000023743F00103AB60AB68D907B36858BF78
:1008E000043743F00203B360B3689A0758BF083770
:1008F000002C42D121466B680AAADB07224407D4A8
:100900000B2905D80AAB0B4413F8143C01312B60BA
:100910007368980724D5336801340B2C02F8283CFF
:10092000E9D94FF00008694605A84DF8048001F0A8
:100930003BF9C0B1C5F808801037C6F808803946C1
:100940000127204801F0C6F838460AB0BDE8F0811A
:1009500001271D4801F020F938460AB0BDE8F081B2
:100960000B2CC8D9DDE7A860B060002FE7D138466E
:100970000AB0BDE8F081124E9DE70024A0466B68E6
:100980000AAAD907224409D4B8F10B0F06D80AAB3A
:10099000434413F8143C08F101082B6073689B076B
:1009A00009D530680134C0B202F8280C00F0D0FF3D
:1009B0000B2CE4D9B5E70B2CE1D9B2E78C9F0000F2
:1009C0000050004044980000A0990000B0F1402F72
:1009D00070B5054600F0D180694B984240F0C78061
:1009E0004FF04024674801F0D7F820232B612E698F
:1009F0002361203E18BF012623696348202B18BFBE
:100A0000023601F0C9F8AB6843F00103AB60AB6894
:100A1000DA07A36858BF043643F00203A360A36853
:100A20009B076B6858BF0836D80740F19480103692
:100A3000412278232A60BFF36F8F013BFBD16B68A3
:100A4000DA0740F18380203623686268DBB29007C2
:100A500048BF40364D48412B18BF803601F09CF806
:100A6000AB6823F00103AB60AB68D9076B6848BF84
:100A700006F58076DA0765D506F5007642227823FA
:100A80002A60BFF36F8F013BFBD16368AA689807A8
:100A90004FF0780342F0010248BF06F58066AA6075
:100AA000BFF36F8F013BFBD16B68D90746D506F5C5
:100AB0000066374801F070F8A368432223F0020370
:100AC000A360A3682A609B074FF0780348BF06F530
:100AD0008056BFF36F8F013BFBD16B68D80729D5D8
:100AE00006F500567823A26842F00202A260BFF326
:100AF0006F8F013BFBD16A68D2070ED50023AB6034
:100B0000A360636806F58046990729D52368636862
:100B10009B07FBD426BB304670BD62689007EDD4BE
:100B2000AB60A36063689A07F4D5236863689B078A
:100B3000ECD4EFE763689907D4D5D1E763689A07E7
:100B4000B7D5B4E763689B0798D595E763689B07BB
:100B50003FF57AAF77E7636899077FF569AF66E796
:100B6000314601260B4800F0B5FF304670BD012626
:100B7000094801F011F8304670BD014C32E700BF62
:100B800000500040309A0000449A0000649A00002F
:100B9000749A0000849A0000EC990000B0F1402F94
:100BA000F8B5064600F099819B4B984240F02F81A2
:100BB0009A4800F0F1FF21224FF04023326135695D
:100BC0001A61AD1A18BF01251B699548934218BFD9
:100BD000023500F0E1FF0023012008214FF04024FE
:100BE000904F914A3B607860BB60FB6011600522CA
:100BF0000223B260A3607268636802F0010203F02E
:100C0000020313434FF041024FF0780318BF04353D
:100C10003260BFF36F8F013BFBD1B6F1402F00F084
:100C2000E7807D4B9E4200F02681F36803B12035BA
:100C3000E36803B1403563687C489A07236858BF6E
:100C40008035DBB2412B636818BF05F580759B07C3
:100C500048BF05F5007500F09FFFB6F1402F00F08A
:100C600032816D4B9E4200F0258102230122B26049
:100C7000A3607368D80700F1C7806368990700F123
:100C8000C380422278233260BFF36F8F013BFBD1D8
:100C9000BB680BB105F50065FB680BB105F5805528
:100CA00063689A07236858BF05F50055DBB2422BED
:100CB000636818BF05F580459B07F36848BF05F5D5
:100CC00000450BB105F58035E3680BB105F500353E
:100CD000574800F061FFB6F1402F00F0C2804E4B44
:100CE0009E4207D1002301224F493A607B60BB60DE
:100CF000FB600A6001200A2143227823B060A160D2
:100D00003260BFF36F8F013BFBD1B6F1402F00F093
:100D1000C680414B9E4200F0B780F3680BB105F5E9
:100D20008015E3680BB105F5001563689807236823
:100D300058BF05F58005DBB2432B636818BF05F586
:100D400000053C48990748BF05F1807500F024FF75
:100D50000023022201213B607B60BB60FB60B1602D
:100D6000A2607368DA074CD463689B0749D44422B5
:100D700078233260BFF36F8F013BFBD1BB680BB1AF
:100D800005F18065FB680BB105F1006563689F079D
:100D9000236858BF05F18055DBB2442B636818BF48
:100DA00005F100559807F36848BF05F180451BB968
:100DB000E368002B00F08A800023B360A3606368BF
:100DC00045F00045990739D5236863689B07FBD434
:100DD0000124042002210822134BC3F88040C3F8E9
:100DE0008000C3F88010C3F88020A5BB2846F8BD5A
:100DF000BB6803B90835FB68002B3FF416AF10350C
:100E000013E705F10075B2E705F5806539E70A4893
:100E100000F0C2FE0120F8BD00500040649B0000BD
:100E2000549B0000E009002000E100E0EC9A000083
:100E3000009B0000109B0000A89A000001240420E1
:100E400002210822364BC3F88040C3F88000C3F863
:100E50008010C3F880202946324800F03BFE012074
:100E6000F8BD0023012004212D4A3B607860BB605F
:100E7000FB6011603EE7FB6803B90835BB68002BD7
:100E80003FF4D3AE1035D0E6FB680BB105F58025F5
:100E9000BB68002B7FF441AF05F500253DE7BB683B
:100EA0000BB105F58025FB68002B7FF436AF05F507
:100EB000002532E700230821194A3B607B60BB60B4
:100EC000FB601160D1E600230221F5E7B360A36067
:100ED00063689A077FF57CAF76E7134800F05CFE05
:100EE0002122124B326135691A611B69AD1A18BF94
:100EF000012593420FD00E48023500F04DFE00232D
:100F0000012102220B4F094C39607B60BB60FB6002
:100F1000034B1A606BE6064800F03EFEEFE700BFA9
:100F200000E100E0249B0000649B000000500040B2
:100F3000549B0000E0090020B0F1402F2DE9F04162
:100F4000054600F04381A24B984240F00B814FF0E0
:100F50004024A04800F020FE22232B612E6923614B
:100F6000223E18BF012623699B48222B18BF023658
:100F700000F012FE002341214FF0010C022042221A
:100F8000964F3B607B60BB60FB60C5F808C0A0600B
:100F900029602A606B68590748BF043663689A075E
:100FA000FCD52368DBB2412B18BF083663689B076A
:100FB000FCD52368DBB2422B636818BF1036002BC8
:100FC00000F0C0802036864800F0E6FD4323412132
:100FD000422229602A602B606B68580758BF403650
:100FE00063689907FCD52368DBB2412B18BF8036B4
:100FF00063689A07FCD523686B685B07EB6858BF8A
:1010000006F5807658074FF01103AB60EB6848BFD8
:1010100006F50076590758BF06F58066B5F1402FF2
:1010200000F095806A4B9D4209D1002301204FF4C6
:1010300000516C4A3B607860BB60FB601160BFF39D
:101040004F8FBFF36F8F6B685A0748BF06F5006676
:10105000B5F1402F00F0B3805D4B9D4200F0A880B9
:101060004FF0020E4FF4805C4FF400514FF0010836
:1010700000235C4AC5F808805B48C4F808E0C2F861
:1010800080C0C2F880103B607B6000F085FD422389
:1010900041222A602B606B685B0748BF06F500564B
:1010A00063689807FCD56368190748BF06F5804652
:1010B00063681A07FCD5E3681B074FF02203A3609F
:1010C000E36848BF06F50046180758BF06F58036A6
:1010D000B5F1402F61D03E4B9D4209D10023012044
:1010E0004FF480513F4A38607B60BB60FB60116009
:1010F000BFF34F8FBFF36F8F6368190748BF06F5C3
:101100000036B5F1402F42D0314B9D4239D00023FB
:101110003B607B60BB60FB60AB60A36063689A0769
:1011200003D5236863689B07FBD44FF480514FF4C9
:1011300000522C4BC3F88010C3F88020CEB9304643
:10114000BDE8F0816B68002B3FF43DAF3AE7002328
:1011500001204FF48051234A38607B60BB60FB6004
:1011600011606CE70126214800F016FD3046BDE80D
:10117000F081314601261E4800F0ACFC3046BDE847
:10118000F081BB68002BC2D106F58026BFE7FB6863
:10119000002BBCD106F58026B9E7002301204FF4CF
:1011A0000051104A3B607860BB60FB6011609FE7B4
:1011B000FB68002B7FF454AF06F5805650E7BB6800
:1011C000002B7FF44DAF06F5805649E7004CC0E692
:1011D00000500040C49B0000E09B0000E00900209C
:1011E000F89B000000E100E00C9C00007C9B0000EC
:1011F0001C9C00002DE9F041614800F0CDFC6148E5
:1012000000F0CAFC4FF02008052301245E4E5F4F1A
:101210005F4DB3602E20C7F800806C6100F098FB32
:10122000BFF36F8FBFF36F8FBFF36F8F0023B46077
:101230002C6958482B61C7F8808000F0ADFCB4FAE7
:1012400084F42E234FF48041112239606409B26086
:10125000336033603360BFF36F8FBFF36F8FBFF3C3
:101260006F8F2B6903B9023400224FF48043474E3D
:101270002A614948C6F8803000F08EFC10210B2707
:10128000464A4148116153680B435360316087609F
:10129000536823F010035360BFF36F8FBFF36F8F5A
:1012A0007823516841F010015160BFF36F8F013B0B
:1012B000FBD12B6903B90434334B00225B68324EF7
:1012C00098074FF01003314F316835482A61C7F84D
:1012D000803058BF083400F05FFC4FF48041232376
:1012E0002E4A3960B360536823F010035360BFF394
:1012F0006F8FBFF36F8F7823516841F010015160F9
:10130000BFF36F8F013BFBD1244A536823F01003D6
:101310005360BFF36F8FBFF36F8F7823516841F035
:1013200010015160BFF36F8F013BFBD12B6903B9F3
:101330001034154B5A68920703D51A685A689107FA
:10134000FBD4002110224FF4804C0126134B0F4F89
:101350000D482961C7F880C086605A615A6822F03A
:1013600010025A60696114B92046BDE8F081214637
:1013700034460C4800F0AEFB2046BDE8F08100BFCB
:10138000749D0000989D00000060004000E100E0B6
:10139000E0090020A89D0000C49D0000001001404D
:1013A000D89D00001C9C00007823BFF36F8F013B89
:1013B000FBD170474FF04023D3F8E02F212A05D10D
:1013C000D3F8E40FB83818BF0120704701207047E8
:1013D000064BD3F8E02F212A05D1D3F8E40FB83813
:1013E00018BF012070470120704700BF0050004027
:1013F000064BD3F8E02F202A05D1D3F8E40FB838F4
:1014000018BF012070470120704700BF0010014045
:10141000154B4FF04022186810B5B0FA80F1D4682F
:101420004909A4070FD40220D060D2680144900774
:1014300015D59A68043101329A600C4800F04AFBD5
:1014400000F098FAFEE70224D460D2689207F0D444
:101450009A6801329A6000B110BD0121EDE79A68E7
:1014600001329A60E9E700BFE0090020F49D000026
:10147000154B4FF04022186810B5B0FA80F1D468CF
:101480004909E4070FD40120D060D2680231D007A7
:1014900015D59A68043101329A600C4800F01AFBA5
:1014A00000F068FAFEE70124D460D268D207F0D4D5
:1014B0009A6801329A6000B110BD2146EDE79A6842
:1014C00001329A60E9E700BFE0090020209E000099
:1014D000144B154A586810B5B0FA80F1D468490920
:1014E000A4070FD40220D060D2680144900715D51C
:1014F000DA6804310132DA600C4800F0EBFA00F0EF
:1015000039FAFEE70224D460D2689207F0D4DA6890
:101510000132DA6000B110BD0121EDE7DA68013275
:10152000DA60E9E7E0090020005000404C9E00002E
:10153000144B154A586810B5B0FA80F1D4684909BF
:10154000E4070FD40120D060D2680231D00715D54E
:10155000DA6804310132DA600C4800F0BBFA00F0BE
:1015600009FAFEE70124D460D268D207F0D4DA6821
:101570000132DA6000B110BD2146EDE7DA680132D0
:10158000DA60E9E7E009002000500040789E0000A2
:101590004FF0402208B51E4B1968D068D26800F0A1
:1015A000040002F0080202434FF04022B1FA81F138
:1015B000D0684FEA511108BF0231400744BF0420F0
:1015C00050604FF04022D068000744BF08205060B0
:1015D0004FF04022D068D26840070DD5100701F1C6
:1015E000040111D59A68083101329A60094800F067
:1015F00071FA00F0BFF9FEE71207F3D49A680132DE
:101600009A600029F2D108BD9A6801329A60EDE72C
:10161000E0090020A49E000008B51D4B1D4A596832
:10162000D068B1FA81F1D26800F0040002F008023B
:101630000243184A4FEA5111D06808BF02314007EF
:1016400044BF04205060134AD068000744BF0820FC
:101650005060104AD068D26840070DD5100701F1DC
:10166000040111D5DA6808310132DA600A4800F065
:1016700031FA00F07FF9FEE71207F3D4DA6801329D
:10168000DA600029F2D108BDDA680132DA60EDE7EC
:10169000E009002000500040D49E0000144B154A81
:1016A000586910B5B0FA80F1D4684909A4070FD47D
:1016B0000220D060D2680144900715D51A69043120
:1016C00001321A610C4800F005FA00F053F9FEE708
:1016D0000224D460D2689207F0D41A6901321A61E8
:1016E00000B110BD0121EDE71A6901321A61E9E785
:1016F000E009002000600040049F0000144B154AE0
:10170000586910B5B0FA80F1D4684909E4070FD4DC
:101710000120D060D2680231D00715D51A69043192
:1017200001321A610C4800F0D5F900F023F9FEE708
:101730000124D460D268D207F0D41A6901321A6148
:1017400000B110BD2146EDE71A6901321A61E9E7DF
:10175000E009002000600040309F000008B51D4BEC
:101760001D4A5969D068B1FA81F1D26800F00400CD
:1017700002F008020243184A4FEA5111D06808BF2C
:101780000231400744BF04205060134AD06800076C
:1017900044BF08205060104AD068D26840070DD579
:1017A000100701F1040111D51A69083101321A61DB
:1017B0000A4800F08FF900F0DDF8FEE71207F3D4D5
:1017C0001A6901321A610029F2D108BD1A69013281
:1017D0001A61EDE7E0090020006000405C9F000016
:1017E000F8B54FF0402400F097F83B4800F0D4F9EA
:1017F000D4F8E03F212B03D1D4F8E43FB82B06D036
:10180000364800F0C9F900F0B5F80020F8BD344DB5
:10181000D5F8E03F212BF3D1D5F8E43FB82BEFD139
:10182000304BD3F8E07F202FEAD1D3F8E42FB82A49
:10183000E6D100210A262C4A20469160D160116031
:101840005160116151619E61FEF75EFD06462846BA
:10185000FEF75AFD034625481E4400F09DF901227B
:1018600039462046FEF7AAFE0644FEF753FF03461C
:1018700020461E44FFF7AAF8034620461E44FFF701
:101880008DF903462046F418FFF756FB0346184827
:101890001C4400F081F9102101222846FEF78EFE3B
:1018A000034628461C44FFF791F8034628461C448B
:1018B000FFF774F9034628461C44FFF73DFB211847
:1018C00005D10C4800F068F900F054F89DE70A488B
:1018D00000F000F9F8E700BF489C0000F89C000009
:1018E0000050004000100140E0090020A09C0000D2
:1018F000CC9C0000349D0000489D000070B5164649
:101900003AB14C1EA51814F8010F00F021F8AC42B2
:10191000F9D1304670BD00BF0B203021084B10B408
:101920001B68084C084AA4FB03435B0C1361074B7C
:1019300090609961D36810BC43F00203D360704794
:1019400004000020C5B3A2910060004000100140D7
:10195000024A5368DB07FCD4106070470060004007
:10196000034A53689B07FCD51068C0B2704700BF9C
:1019700000600040034A5368DB07FCD40423136073
:10198000FEE700BF00600040014B024A1A6070474A
:10199000040000200024F400014B024A1A60704742
:1019A000040000200024F40008B50021044602F0E1
:1019B00077F8044B1868C36B03B19847204607F0CB
:1019C00033FF00BFB49F000070B50D4E0D4D761B68
:1019D000B61006D0002455F8043B01349847A642BF
:1019E000F9D1094E094D07F021FF761BB61006D03C
:1019F000002455F8043B01349847A642F9D170BD44
:101A0000B8090020B8090020C0090020B80900204A
:101A1000830730B548D0541E002A3FD00346CAB2CF
:101A200001E0013C3AD303F8012B9D07F9D1032CC7
:101A30002DD9CDB245EA05250F2C45EA054536D905
:101A4000A4F1100222F00F0C03F1200EE6444FEA3D
:101A5000121C03F1100242E9045542E9025510320A
:101A60007245F8D10CF1010214F00C0F03EB0212D5
:101A700004F00F0C13D0ACF1040323F00303043380
:101A8000134442F8045B9342FBD10CF003042CB1E5
:101A9000CAB21C4403F8012B9C42FBD130BD644602
:101AA0001346002CF4D1F9E703461446BFE71A4663
:101AB000A446E0E70EB400B582B003AB53F8042BA4
:101AC0008168019300F07CF902B05DF804EB03B08B
:101AD000704700BF0FB400B5074A83B004AB10686D
:101AE00053F8042B8168019300F06AF903B05DF8A4
:101AF00004EB04B0704700BF0C00002030B5054671
:101B000089B008460C4600F02DF901210223214A34
:101B100004940692AA6B04AC0590084401940791C2
:101B2000AC680293039022B3636E13F0010FB4F913
:101B30000C309AB201D1980525D5910406D4626E75
:101B400043F4005322F40052A3816266284601AA9E
:101B5000214603F0D5FB636E002814BF4FF0FF351C
:101B60000A25DA0702D4A3899B0506D5284609B0C1
:101B700030BD284603F038F9D6E7A06D03F098FD94
:101B8000284609B030BDA06D03F08AFDB4F90C30D1
:101B90009AB2D2E79C9C0000024B01461868FFF7FE
:101BA000ADBF00BF0C00002080EA010C1CF0030F49
:101BB00037D110F0030C20F0030021F0030150F89E
:101BC000042B08BF51F8043B0ED08CF0030C6FF0CF
:101BD0007F434FEACC0C23FA0CFC51F8043B42EA59
:101BE0000C0243EA0C0300BFA2F1013C9A4201BF80
:101BF0002CEA020C1CF0803F50F8042B51F8043BF7
:101C0000F2D04FEA02604FEA1222012828BFB0EB5F
:101C1000036F08BF1B0AF4D003F0FF03000EC01AC5
:101C2000704710F0030F0AD010F8012B11F8013B98
:101C3000012A28BF9A42F4D0A2EB030070474DF866
:101C4000045D50F8042B01F0030521F0030151F865
:101C5000043B022D26D04DD822F07F45B5EB132F43
:101C6000A2F1013C2CEA020C0DD11CF0803C08BF13
:101C700051F8043B0AD185EA0205B5EB036F0CD19C
:101C800050F8042BE8E74FEA13235BE03CF07F4C6D
:101C900054D10B784FEA126554E04FEA126503F015
:101CA000FF034FE04FEA0245A2F1013C4FEA154520
:101CB0002CEA020CB5EB134F18D11CF0803C08BF86
:101CC00051F8043B07D185EA0205B5EB034F09D172
:101CD00050F8042BE6E75FEA0C4C2FD10B884FEA53
:101CE00012452FE04FEA03434FEA12454FEA1343F0
:101CF00028E000BF02F0FF05B5EB136FA2F1013C35
:101D00002CEA020C0DD11CF0803C08BF51F8043BBA
:101D10000AD185EA0205B5EB032F0AD150F8042B4E
:101D2000E8E74FEA13630DE012F0FF0F06D051F819
:101D3000043B4FEA122523F07F4303E04FF00000FD
:101D400020BC704705F0FF0203F0FF00012828BF08
:101D5000904204BF2D0A1B0AF4D0A2EB000020BC65
:101D6000704700BF20F0030110F00300C0F1000035
:101D700051F8043B00F1040C4FEACC0C6FF0000268
:101D80001CBF22FA0CF213434FF0010C4CEA0C2C4E
:101D90004CEA0C4CA3EB0C0222EA030212EACC122E
:101DA00004BF51F8043B0430F4D0C2F1000102EA50
:101DB0000102B2FA82F2C2F11F0200EBD2007047B8
:101DC0002DE9F04FD5B01C46914607910546099084
:101DD00003F054FC02680E9410461792FFF7C2FFFE
:101DE00016901DB1AB6B002B00F01D82079A536E4D
:101DF000DD0740F12D81B2F90C2091B28F0409D496
:101E0000079B42F400529A8191B21A465B6E23F40A
:101E1000005353660E0740F1C080079B1B69002BDF
:101E200000F0BB8001F01A030A2B00F0C4800024EC
:101E30002BAB224698464D46CDE92944289312946F
:101E400000230024CDE914342B78CDE91922CDE903
:101E50001B2218920B92002B00F08F81AA4604E0FF
:101E60001AF8013F002B00F0BB80252BF8D1BAEB0C
:101E7000050640F0B9809AF80030002B00F07D8113
:101E800000234FF0FF324FF02B0920241F469AF811
:101E9000016008920AF1010A8DF883300A930AF171
:101EA000010AA6F120035A2B00F2E180DFE813F0CB
:101EB0000503DF00DF000003DF00DF00DF00DE02DC
:101EC000DF00DF006A006E02DF0055027802DF00EB
:101ED00073025B005B005B005B005B005B005B0010
:101EE0005B005B00DF00DF00DF00DF00DF00DF0002
:101EF000DF006C01DF00EA01C4016C016C016C01C0
:101F0000DF00DF00DF00DF00D002DF00DF002302A0
:101F1000DF00DF00DF00F801DF009202DF00DF00FA
:101F20008707DF00DF00DF00DF00DF00DF00DF000A
:101F3000DF006C01DF00EA01C6016C016C016C017D
:101F4000B602C601BF01DF00C302DF005A0225024C
:101F5000A402BF01DF00F80172008407DF00DF0088
:101F60006507DF0072000022A6F130031AF8016B4A
:101F700002EB820203EB4202A6F13003092BF5D9F2
:101F80000A928EE70E9B53F8042B002A0A920E93B6
:101F9000C0F2E0819AF8006081E7079D0998294620
:101FA00001F00AFD002841F04D83A98901F01A03D0
:101FB0000A2B7FF43CAF079AB2F90E30002BFFF6E4
:101FC00036AF536ED80702D4890541F148812346C4
:101FD0004A460799099855B0BDE8F04F01F0AABCF0
:101FE000BAEB050600F0C9802A9BC8E900563344C5
:101FF0002A93299B0133072B299305DC08F1080854
:102000000B9B33440B9336E70799099828AA05F0F0
:1020100007F880B90DF1AC08F2E70799099828AAEA
:1020200004F0FEFF002800F099800D9B1BB11946BB
:10203000099803F065F8079A536ED90740F1E880D4
:1020400093895B0601F10A830B9855B0BDE8F08FC8
:10205000079BB3F90C20900591B23FF5CFAE1D461A
:10206000986D03F01DFBB5F90C2091B2C6E6002E69
:1020700000F08380012300228DF8EC6006933BADD5
:102080008DF883200C930D9208920F921392109268
:1020900017F0020302D006990231069117F0840B63
:1020A00007D10A990698A1EB0009B9F1000F00F3D6
:1020B00090832A9C82B10122C8F80420299A013415
:1020C00001320DF18301072A2A942992C8F80010E1
:1020D00000F3D88308F108087BB10223C8F8043064
:1020E000299B0234013321AA072B2A942993C8F88B
:1020F000002000F3D58308F10808BBF1800F00F041
:102100008882089B0C9AA3EB020BBBF1000F00F333
:10211000CB82FB0500F11F820C9BC8F800501C44C9
:10212000C8F80430299B2A940133072B299300F324
:10213000448308F10808780705D50A9B069A9D1A7A
:10214000002D00F3B983DDE90A2306998A42ACBF6A
:102150009B185B180B93002C7FF45FAF002329932F
:102160000D9B1BB10D99099802F0CAFF55460DF160
:10217000AC082B78002B7FF471AE2A9B002B41F02A
:1021800010820023299356E70E9B073323F00702A2
:10219000F2E80234CDE91434DDE9143424F00044CB
:1021A000994618460E9221464FF0FF32AB4B07F08E
:1021B00033F9002840F01885484621464FF0FF3299
:1021C000A64B07F00BF9002840F00E85DDE914015D
:1021D0000022002307F0F8F8002840F065879DF8FA
:1021E0008320002103209E4D9E4B27F080070D91F8
:1021F0000690472EC8BF1D4608910C900F91139171
:102200001091002A3FF444AF069B013306933FE749
:10221000079B9B899A053FF514AF079CA06D03F0BF
:1022200047FAA3890DE7099802F0DEFDDEE59AF88A
:10223000006047F0200732E647F01007BA060E9B11
:1022400040F16E84073323F007031A465B6852F8A7
:10225000084B99460E92002BC0F26F84089B013305
:1022600000F0FB8254EA090327F0800B40F0F6826D
:10227000089B002B40F0F7825F46002354AD089383
:102280000C933DE1012000220E9B069053F8041BA5
:102290003BAD8DF883208DF8EC100E930C90F2E698
:1022A0004FF000090E9C089B54F8045B8DF8839056
:1022B000002D00F0A1855A1C00F0A5861A4649465B
:1022C000284603F043FD0D90002801F050810D9B3E
:1022D0009DF883205B1B0C9323EAE373CDF82090D9
:1022E0000E940693CDF83490CDF83C90CDF84C90F8
:1022F000CDF8409085E747F0100717F0200900F06F
:10230000F2830E9B073323F00703D3F8049053F8AE
:10231000084B0E93002327F4806B00228DF8832056
:10232000089A511C00F0D48054EA09012BF0800770
:1023300040F0CD80002A40F00486002B9DD11BF098
:1023400001030C9300F0308430230DF24F158DF80B
:102350004F31D5E00A9B5B420A939AF8006047F040
:1023600004079CE5BD0600F1FD84FC0600F1EE8546
:10237000780600F1B286B90540F1E8850E9B0B990D
:1023800053F8042B554611700E93F2E69AF800604C
:102390008DF8839083E59AF8006047F080077EE52A
:1023A000524612F8016B2A2E01F08D82A6F13003FD
:1023B000092B924698BF002201F2E5801AF8016BC2
:1023C00002EB820203EB4202A6F13003092BF5D99E
:1023D000089266E547F0100B1BF0200900F091838E
:1023E0000E9B073323F007031A4652F8084BD3F825
:1023F00004900E92012390E7302278260E9B8DF8F0
:10240000842053F8044B184A0E934FF0000902231E
:1024100047F0020B8DF8856018927EE79AF800600D
:10242000682E03BF9AF8016047F400770AF1010AA9
:1024300047F0400733E59AF800606C2E03BF9AF826
:10244000016047F020070AF1010A47F0100726E56E
:102450009AF8006047F0080721E500BFFFFFEF7F13
:10246000B89F0000BC9F0000C89F0000099E304636
:1024700003F004F9436818461B93FFF773FC034607
:1024800030461C931E4603F0F9F883681993002E1A
:102490003FF480AD199B002B3FF47CAD199B1B785A
:1024A000002B3FF477AD9AF8006047F48067F6E4BC
:1024B0009AF8006047F00107F1E49DF88330002BA3
:1024C0007FF468AD9AF800608DF88340E7E4BB467E
:1024D000012B00F0C381022B54AD1FD1189A04F0D8
:1024E0000F03D35C240944EA09744FEA191905F86B
:1024F000013D54EA0903F2D15F4654AB5B1B0C93D8
:10250000089A0C9900238A42B8BF0A460D93069296
:102510000F939DF883201393109372E604F0070342
:10252000E40844EA49744FEAD909303354EA09010E
:102530002A4605F8013DF1D11BF0010FDCD0302B0C
:10254000DAD03023023A05F8013C54AB9B1A5F46BF
:1025500015460C93D4E7652E40F3E980DDE91401BC
:102560000022002306F026FF002800F0E18101236D
:10257000C8F80430299BC04A01330134072B2A9440
:102580002993C8F8002000F3BF8408F10808229BB3
:10259000129A934280F2DC82169B179A1C44C8E977
:1025A0000023299B2A940133072B299300F31784D6
:1025B00008F10808129B5D1E002D7FF7BCAD102DA1
:1025C00041F35D81DFF8B492224649461026B946B0
:1025D000299B0F46DDF824B0079C05E008F10808A8
:1025E000103D102D40F39D8401331032072BC8E9B4
:1025F0000076CDE92932F1DD2146584628AA04F0BB
:102600000FFD00287FF411ADDDE929320DF1AC0892
:10261000E6E70A9B069AA3EB020BBBF1000F7FF7DC
:1026200070ADBBF1100F41F35280DFF8509220469D
:1026300041464C46A8461023299A079DDDF8249070
:1026400006E0ABF1100BBBF1100F01F1080119DD31
:1026500001321030072AC1E90043CDE92920F0DD1D
:102660002946484628AA04F0DBFC00287FF4DDACAC
:10267000DDE92920ABF1100BBBF1100F4FF0100377
:102680002BA9E5DC4546A1468846044601325C4458
:10269000072ACDE92924C8F80090C8F804B000F34F
:1026A000918308F108082CE5BBF1100F40F3E38497
:1026B000DFF8C891204641464C46A8461023299A87
:1026C000079DDDF8249006E0ABF1100BBBF1100F75
:1026D00001F1080119DD01321030072AC1E9004378
:1026E000CDE92920F0DD2946484628AA04F098FCC7
:1026F00000287FF49AACDDE92920ABF1100BBBF187
:10270000100F4FF010032BA9E5DC4546A146884683
:10271000044601325C44072ACDE92924C8F8009018
:10272000C8F804B000F3D28108F10808F1E4129B64
:10273000012B40F382810123299E01341E44072E80
:10274000C8F800502A94C8F80430299600F36C8326
:1027500008F10808169B0136179A1C44072EC8E991
:102760000023CDE9296400F36C8308F108080022F6
:10277000DDE91401002306F01DFE002840F07A81F7
:10278000129B0136013B01351C44072EC8F800504E
:102790002996C8F804302A9400F35F8108F10808EC
:1027A0001A9B01361C44C8F80430072E24ABCDE92F
:1027B0002964C8F800307FF7BCAC0799099828AAAB
:1027C00004F02EFC00287FF430AC2A9C0DF1AC08FC
:1027D000B1E4B9F1100F40F3C686DDE92921404686
:1027E000CDE91D36B84610244F46079EA946099DDF
:1027F00004E0103F102F00F1080016DD0132204BDD
:102800001031072AC0E90034CDE92921F1DD314634
:10281000284628AA04F004FC00287FF406ACDDE971
:102820002921103F102F2BA8E8DC4D46DDE91D368D
:10283000B9464746804609EB010401321049072A90
:10284000CDE92924C8F80490C8F8001000F34083AB
:102850009DF8832008F108082CE4BB460A2C79F186
:10286000000380F0FB82012330345F468DF84F4136
:102870000C930DF24F1543E6F89F00000CA00000EA
:10288000FC9F00000799099828AA1D9304F0C8FB33
:1028900000287FF4CAAB2A9C1D9B0DF1AC081BE4F9
:1028A0000799099828AA04F0BBFB00287FF4BDAB68
:1028B0002A9C0DF1AC0820E4102D40F3BE861026B2
:1028C000299B099FDDF81C9004E0103D102D08F1B4
:1028D000080817DD0133BA4A1034072BC8E900266F
:1028E000CDE92934F1DD4946384628AA04F098FBA1
:1028F00000287FF49AABDDE92934103D102D0DF14D
:10290000AC08E7DC0133AE4A2C44072BCDE929346F
:10291000C8F80450C8F800207FF715AC079909984B
:1029200028AA04F07DFB00287FF47FAB2A9C0AE4F0
:102930002299002940F31081DDF84090129B9945BF
:10294000A8BF9946B9F1000F0BDD299B4C44013318
:10295000072BC8E900592A94299300F3818508F1CF
:102960000808109EB9F1000FA8BFA6EB0906002EBB
:1029700000F3F582DDF840B07905AB4400F1AC849A
:10298000229B129A934202DBFA0740F19283169A35
:1029900017991444C8E90012299A2A940132072A87
:1029A000299200F3A88508F10808129AAE18A6EB40
:1029B0000B06D51AAE42A8BF2E46002E0DDD299B70
:1029C00034440133072BC8F800B0C8F804602A94D7
:1029D000299300F3FC8508F10808002EA8BFAD1B61
:1029E000002D7FF7A8AB102D40F34987DFF8D49175
:1029F000224649461026B946299B0F46DDF824B0E9
:102A0000079C05E008F10808103D102D40F389826D
:102A100001331032072BC8E90076CDE92932F1DD08
:102A20002146584628AA04F0FBFA00287FF4FDAAA4
:102A3000DDE929320DF1AC08E6E7FE073FF57BAE94
:102A40000123299E01341E44072EC8F800502A9401
:102A5000C8F8043029967FF7A1AE0799099828AAEB
:102A600004F0DEFA00287FF4E0AADDE929640DF124
:102A7000AC0895E6129B5D1E002D7FF791AE102DE0
:102A800040F31987224608974FF0100BDFF8349176
:102A9000099C079F05E008F10808103D102D40F340
:102AA000C78201361032072EC8E9009BCDE92962A2
:102AB000F1DD3946204628AA04F0B2FA00287FF456
:102AC000B4AADDE929620DF1AC08E6E70799099897
:102AD00028AA04F0A5FA00287FF4A7AA2A9C0DF1E1
:102AE000AC08FFF716BB17F0100377D117F04002C0
:102AF00000F0AC820E9A994652F8044B0E92A4B2A2
:102B000008E41BF010030E9A54D11BF040014DD085
:102B100052F8044B99460E920123A4B2FFF7FDBB75
:102B200053F8044B0E93FB0653D47D064ED544F365
:102B3000C0394B4624B2FFF78EBB2D2364428DF87B
:102B40008330BB464FF0010369EB4909FFF7E8BB4F
:102B5000F8077FF5F0AA1FE50123C8F80430299B88
:102B6000194A01330134072B2A942993C8F800200D
:102B700000F3688408F10808002940F02582129AC1
:102B800007F0010313433FF4D6AA169B1799E218E6
:102B9000C8E90013299B2A920133072B299300F3DC
:102BA000508308F1080820E254ADA9E41BF4007931
:102BB00040F0A08252F8044B01230E92FFF7ADBB08
:102BC000FC9F00000CA00000F89F0000B80500F179
:102BD00079824FEAE4794B46FFF73DBB0E9B53F8F1
:102BE000044B0E93FFF796BBDDE9140102460B463A
:102BF00006F012FC002840F0F785612E00F06C858D
:102C0000412E00F07F82089B013300F0948526F06E
:102C10002003472B069300F07B85DDE9141247F46F
:102C200080730F931346002BC0F2F4850C9300239E
:102C30008B461D930D93069B462B00F02B84452B52
:102C400000F0148508990C9B01910221009126A99E
:102C5000049123A9039122A95A460998029101F0EF
:102C60001FF8069B0546472B40F0448617F0010FDE
:102C7000B9460F9F40F0F784269B5B1B1293069B7F
:102C8000472B00F0F182069B462B00F04284229BEA
:102C90001093109B069A013B412A229300F08A85EB
:102CA0000021F2B2002B8DF89020B6BF2D222B22EE
:102CB000109B8DF89120B8BFC3F10103092B40F39D
:102CC00081850DF19F0C6246BA4F1C46104687FB6A
:102CD0000312D917C1EBA20101EB8102A3EB42025F
:102CE0003032632C00F8012C0B4600F1FF32ECDC93
:102CF0003033811EDBB28C4502F8013C40F2FF8587
:102D00000DF1920101E012F8013B944501F8013BFD
:102D1000F9D10DF1A1030DF192021B1A134424AA5B
:102D20009B1A1A93129B1A9A012B1A440C9240F385
:102D30009E850C9B169A13440C9300230C9A29F43D
:102D4000806722EAE27247F480770F93069213932A
:102D500010931D9B002B40F0B0829DF883200893B8
:102D6000FFF74FBA0E9B0B9853F8041BC21755463A
:102D7000C1E900020E93FFF7FCB98F4B189317F0CF
:102D8000200949D00E9B073323F00703D3F80490A2
:102D900053F8084B0E93F80709D554EA090306D0F7
:102DA00030238DF8856047F002078DF884300223C8
:102DB00027F4806BFFF7B1BABB46FFF70DBB7F4B23
:102DC0001893DCE70799099828AA04F029F9002844
:102DD0007FF42BA92A9C0DF1AC08FFF792B9079953
:102DE000099828AA04F01CF900287FF41EA92A9C3F
:102DF0000DF1AC08FFF7DEBB062B294628BF0623E2
:102E00002A4608950D9506936D4D0E940C930F91DF
:102E100013911091FFF7F5B917F0100369D00E9BCD
:102E200053F8044B0E93B6E70799099828AA04F0C3
:102E3000F7F800287FF4F9A8DDE929640DF1AC0862
:102E400088E40799099828AA04F0EAF800287FF492
:102E5000ECA8DDE929640DF1AC0888E400230BF44B
:102E60008062CDE90CA8069692461E46DDF8648085
:102E700054AF0CE00023204649460A2206F00AFB24
:102E80000A2C79F100031BD3044689462F462046BD
:102E90000A220023494606F0FDFA30327D1E013633
:102EA00007F8012CBAF1000FE4D098F800309E42E8
:102EB000E0D1FF2EDED00A2C79F1000380F0E08013
:102EC000CDF864801296DDE90CA8069EFFF714BBCE
:102ED0000799099828AA1D9304F0A2F800287FF406
:102EE000A4A89DF883202A9C1D9B0DF1AC08FFF738
:102EF000E1B817F0400200F0B4800E9A994652F8FB
:102F0000044B0E92A4B246E70799099828AA04F048
:102F100087F800287FF489A82A9C0DF1AC08FFF7F8
:102F200036BB14463A464F46914601332C44072B94
:102F3000C8F80090C8F80450CDE929347FF7F9A803
:102F40003BE4012BBB467FF4C6AA8CE40E9B0B9995
:102F500053F8042B554611600E93FFF70AB9102E53
:102F600040F3AD84DFF85C90214648464246B946BE
:102F7000A8464FF0100B0746299B099C079D04E0CB
:102F80000832103E102E40F3488201331031072BD7
:102F9000C2E9007BCDE92931F2DD2946204628AA85
:102FA00004F03EF800287FF440A8DDE929312BAA7F
:102FB000E7E700BF67666666C89F0000DC9F000009
:102FC000F09F00000CA00000169B1798E218C8E9BB
:102FD0000003299B2A920133072B299300F33181A7
:102FE00008F108080029C0F20283129901338C18F5
:102FF000072BCDE92934C8F80050C8F804107FF732
:1030000098A8FFF7DABB2846CDF820900E94FEF77B
:10301000A9FE20EAE073CDE90C099DF88320CDF8E4
:103020003C90CDF84C90CDF840900693FFF7E9B86E
:103030001446089F01362C44072ECDE92964C8F8B0
:103040000090C8F804507FF7A9AB06E517F40079A3
:103050000E9B3DD053F8044B91460E93E4B2FFF71C
:1030600059B917F400790E9B40D053F8044B9146A0
:103070000E93E4B28FE6299ADFF84C92FFF749BB32
:103080001C9B1B99ED1A1A46284603F059FF98F825
:1030900001300BB108F10108204649460A220023FD
:1030A000002606F0F7F9EFE62D228DF88320FFF7D2
:1030B00098B8129AAE18A6EB0B06D51AAE42A8BF66
:1030C0002E468AE444F3C0194B4664B2FFF7C3B8F6
:1030D00053F8044B0E93FFF71DB90E9B0B9953F851
:1030E000042B554611800E93FFF743B853F8044B59
:1030F0000E9350E652F8044B894601230E92E4B237
:10310000FFF70BB930238DF8843058238DF88530C4
:10311000089B47F00204632B00F3E38200233BADDE
:103120000D9347F481730F93DDE914121346002BBE
:103130002746C0F240820C9300238B461D9326F055
:1031400020030693612E00F01783412E7FF473ADA8
:1031500022AA58460C9903F061FE00224FF07F53DB
:1031600005F0C0FE02460B46CDE9102300220023E5
:1031700006F020F908B101232293544B0C93089BCD
:10318000CDE912A6CDE91E78DDE91067AB46DDF882
:1031900030A003F1FF39109506E00022002309F169
:1031A000FF3906F007F9E8B90022494B30463946A5
:1031B00005F098FE0F46064606F044F9044605F071
:1031C00027FE0B4602463946304605F0D3FC1AF876
:1031D0000430B9F1FF3FD8464D4606460F460BF87E
:1031E000013BDAD13046394600223A4BA946DDF898
:1031F00048A0109DCDF84880CDE91001DDF87C8015
:10320000139E1E9F06F0FEF8002840F04482DDE980
:10321000100100222F4B06F0CDF810B1E10700F1AC
:103220003A824B46002B06DB302201335B440BF81D
:10323000012B5B45FBD1ABEB0503B94612930F9F06
:103240001DE50799099828AA03F0EAFE00287EF4F4
:10325000ECAEDDE9293222990DF1AC08C2E6906DA1
:1032600002F026FAFEF7B3BE229BDA1C109302DBB3
:10327000089A934204DD023E26F02003069308E5F7
:10328000109B129A9342C0F2828119F0010F00F054
:10329000A882169A13440C9319F4806F00F0908260
:1032A000109B6726002B00F346810C9B23EAE373F7
:1032B000069300230F9313934BE52D2200238DF8E3
:1032C00083200893FEF7A0BF0CA00000DC9F000045
:1032D000000030400000E03F129B4246DDF84C8089
:1032E000EB185E460893CDF830A010972146199F41
:1032F000DDF87090DDF824A0DDF81CB00F9B13956D
:10330000B8F1000F2ED0002B6CD1013F08F1FF382F
:103310001B9B4944C2E90039299B2A910133072BA1
:10332000299363DC0832089B38789B1B8342A8BF33
:103330000346002B1C460ADD299819440130072852
:10334000C2E900632A9129905BDC38780832002CAE
:10335000B4BF0546051B002D15DC06440F9BB8F1D4
:10336000000FD0D1002B3DD1DDE91235EB189E4284
:10337000B34619970C46904628BF9B46DDF830A00F
:10338000109FFFF7FDBA102D40F36F82102429988B
:1033900004E0103D102D02F1080216DD0130A84BAB
:1033A00010310728C2E90034CDE92901F1DD594681
:1033B000504628AA03F034FE00287EF436AEDDE93C
:1033C0002901103D102D2BAAE8DC01309C4B29442B
:1033D0000728CDE92901556013604EDC38780832A2
:1033E0000644BBE70F9B013B0F9391E759465046BC
:1033F00028AA03F015FE00287EF417AE2A992BAAFE
:1034000091E75946504628AA03F00AFE00287EF4A8
:103410000CAE38782A992BAA99E7454690463A4649
:103420000C464F46914601333444072BCDE92934ED
:10343000C8F80090C8F8046000F35D8108F108083E
:10344000FFF798BA0799099828AA03F0E9FD002820
:103450007EF4EBAD22992A9C0DF1AC08FFF78CBBF2
:103460000799099828AA03F0DBFD00287EF4DDAD5A
:103470002A9C0DF1AC08FFF774BA5946504628AAA9
:1034800003F0CEFD00287EF4D0AD38782A992BAA1F
:10349000064463E708990C9B01910321009126A93A
:1034A000049123A9039122A95A460998029100F098
:1034B000F7FB03780546302B00F0C081229B089A69
:1034C000B94613440F9FEC185846002200230C996C
:1034D00005F070FF10B12346FFF7CFBB269BA34238
:1034E000BFF4CBAB30215A1C26921970269B9C420C
:1034F000F9D8FFF7C2BB0799099828AA03F090FDF5
:1035000000287EF492AD229B2A9C0DF1AC08FFF7B7
:103510004CBA229A002A109240F3B981089909F016
:1035200001030B4340F040816626109B0C9319F475
:10353000806F3FF4BAAE19990B78FF2B00F0D6815B
:103540000024109A204604E001300131FF2B00F0E6
:103550006481934280F26181D21A4B78002BF3D1BF
:103560000B780134F2E7DDE92921FFF764B9089B04
:103570009DF883200E9406930C9308900F9013905F
:103580001090FEF73EBE00230893FEF78ABC129B04
:10359000169A9A18109B0C92002B40F35D816726B7
:1035A000C5E70799099828AA03F03AFD00283EF4D8
:1035B000E8ADFEF740BD26F0200306932D22DDE99D
:1035C00014349B4604F100431D920C93BAE507990D
:1035D000099828AA03F024FD00287EF426AD229D38
:1035E000129B2A9C0DF1AC085D1BFFF7F6B94E4209
:1035F000103180F2818141461024A846DFF84090C6
:10360000DDF824B0079D04E00831103E102E40F391
:10361000998001331032072BC1E90094CDE929329A
:10362000F2DD2946584628AA03F0FAFC00287EF469
:10363000FCACDDE929322BA9E7E7299BFFF762B94A
:103640000CA00000079B5B6EDD0707D4079B9B89DE
:103650009C0503D4079B986D02F02AF84FF0FF33C6
:103660000B93FEF7F1BC089BEC182DE702210091AB
:1036700008995A464C1C26A9049123A9039122A912
:103680000C9B09980194029100F00AFB0546B9468B
:103690002C440F9F18E7129B26930C9B1BF8012CC0
:1036A000D97B5B468A4209D1302003F8010C269B66
:1036B0005A1E269213F8012C9142F6D0392A0BBFDC
:1036C0000C9A0132927AD2B203F8012CB3E5299A0E
:1036D000DFF83492FEF7DABF30238DF88430782398
:1036E00014E50998591C02F085F80546002800F0F9
:1036F000F6800D9015E50799099828AA03F090FC2B
:1037000000287EF492AC2A9C0DF1AC08FFF732B988
:10371000089B002B08BF0123089347F480730F9385
:10372000159B002BC0F2A980DDF850B01D900C93C2
:103730000D90FFF787BA0623089326F0200306931F
:10374000FFF76BBA4546884601333244072BCDE973
:103750002932C8F80090C8F804607FF722AA0799B8
:10376000099828AA03F05CFC00287EF45EACDDE931
:1037700029320DF1AC0838E422AA58460C9903F01E
:103780004DFB00224FF07F5305F0ACFB02460B4689
:10379000CDE910230022002305F00CFE08B101231F
:1037A00022935A4B0C93EAE4169B6626D3181944CD
:1037B0000C91BCE606F10F020121D2B2FFF772BAFA
:1037C000672672E500295FD130228DF892200DF135
:1037D0009302303302F8013B24ABD31A1A93FFF75C
:1037E000A1BA109B0C9357E5159B0320002BB8BF83
:1037F0002D224FF00003A8BF9DF8832019460D939A
:10380000434D444BB8BF8DF8832027F080070690C6
:10381000FEF7EFBC00230D93D0E6199110921390A0
:103820000F940F9A139B1C9913440C9A01FB0323CA
:103830000C9323EAE3730693FFF78BBA58460022F2
:1038400000230C9905F0B6FD00287FF437AE089BE5
:10385000C3F10103229332E6C3F101031A4422EAC1
:10386000E27367260C92069323E52998ADE519F0DB
:10387000010F3FF462AAFFF75CBA0D909EE6299B08
:10388000DFF88490FFF751BB0DF19202A1E7089A8F
:1038900009F0010959EA020304D1012366260693BF
:1038A0000C9306E5169B662601331A4422EAE2735E
:1038B0000C920693FDE4DFF85090FFF7BBBB299B09
:1038C000DFF84490AFE50E9B9AF80160924653F8FA
:1038D000042B0E9342EAE2730893FEF7E0BA079ACC
:1038E000938943F040039381FEF7A5BB00230F9318
:1038F000139396E7089CCAE6DFF80C9024E70223AE
:103900001A93FFF70FBA00BF0CA00000C89F000079
:10391000C09F0000C49F00008C4600B58646134639
:10392000034A714610685DF804EB6246FEF748BA38
:103930000C000020F0B54FF4806C154600240646BC
:103940001F46ADF26C4D1AAB009304938B8916A8F9
:1039500023F00203ADF80C304B6E06941993CB891B
:103960000C46ADF80E30CB69CDF808C007934B6A12
:10397000CDF814C0099301F08BFE2A463B466946F8
:103980003046FEF71DFA051E07DB6946304601F09A
:103990007FF9002818BF4FF0FF35BDF80C305B06EB
:1039A00003D5A38943F04003A381169801F074FE68
:1039B00028460DF26C4DF0BD38B5334B05461B68FB
:1039C0000C460BB19A6B12B3B4F90C3018079AB2CB
:1039D00025D5216900292DD012F0010007D000253E
:1039E0006069A5604042A06139B1002038BD9507EB
:1039F00058BF6069A0600029F7D1120658BF084679
:103A0000F4D543F040034FF0FF30A38138BD184692
:103A100001F0EAF9B4F90C3018079AB2D9D4D106FA
:103A20002AD5520714D4216943F00803A3819AB21E
:103A30000029D1D102F42070B0F5007FCCD021460E
:103A4000284601F037FEB4F90C3021699AB2C3E779
:103A5000216B51B104F14002914204D0284601F09B
:103A60004FFBB4F90C30002222630022216923F0BD
:103A70002403C4E90012D7E7092243F040032A6077
:103A80004FF0FF30A38138BD0C000020024B13B172
:103A9000024800F067B87047000000003550000091
:103AA0002DE9F04F83462D4B83B018680F46CDF8B3
:103AB00004B001F0F5FD2A4BD3F80080D8F8486136
:103AC0009EB14FF001094FF0000A7468651E0CD4D6
:103AD000013406EB84047FB1D4F80031BB420BD033
:103AE000013D6B1CA4F10404F5D11C4B186803B014
:103AF000BDE8F04F01F0DCBD73682268013BAB42CA
:103B00000CBF7560C4F800A0002AE9D0D6F888017F
:103B100009FA05F10142D6F804B00BD1904772685A
:103B20005A4512D1D8F84831B342D9D01E46002E9A
:103B3000CBD1DAE7D6F88C0101420BD10198D4F849
:103B40008010904772685A45ECD0D8F84861002E32
:103B5000BBD1CAE7D4F880009047E0E738040020E2
:103B6000B49F0000002301461A46184604F092B99B
:103B70002DE9F04F03690C6985B0A342C0F289803A
:103B8000013C01F11405A30000F11408019355F85C
:103B9000243058F8242001338A469A4208EB8401E5
:103BA0008146B2FBF3F605EB840702913AD300217C
:103BB000AE4640460A46A34603955EF8045B046899
:103BC000ABB206FB03132D0C190C06FB05119BB2BF
:103BD000D21A1FFA84FC94448AB2C2EB144202EB5C
:103BE0002C421FFA8CFC4CEA0243774540F8043B18
:103BF0004FEA11414FEA2242DFD2019B5C4658F85E
:103C00000330039D73B9029B043B984504D307E03E
:103C1000984504F1FF3403D253F80429002AF7D061
:103C2000C9F810405146484602F0ACFC00282CDB95
:103C300040460023013655F8041BD0F800C08AB274
:103C40009A1A1FFA8CFE0B0C7244C3EB1C4303EB55
:103C5000224392B242EA0342AF4240F8042B4FEAB9
:103C60002343E8D258F8242008EB84036AB9043BC4
:103C7000984504D307E0984504F1FF3403D253F884
:103C80000429002AF7D0C9F81040304605B0BDE835
:103C9000F08F002005B0BDE8F08F00BF00000000ED
:103CA0002DE9F04F90469946016C99B00446CDE954
:103CB0000489259D41B10123426C93408B604A6089
:103CC00002F0B0F900232364B9F1000AB4BF012364
:103CD00000232B60764BBCBF2AF0004ACDF814A01D
:103CE00033EA0A0300F0AA80DDE9042310461946EE
:103CF00000220023CDE90A0105F05CFB074670B104
:103D00000123249A1360269B002B00F0E682694869
:103D10001860431E0393039819B0BDE8F08F16ABEB
:103D2000019317AB00932046DDE90A2302F07AFDE8
:103D30005FEA1A56054640F09780DDE916763E4464
:103D400006F23240202840F3B783C0F140000AFA5F
:103D500000FA06F2124028FA00F04AEA000005F0E4
:103D600047F80123013E0F93A1F1F8710022524B55
:103D700004F000FF48A3D3E9002305F0B3F848A3FB
:103D8000D3E9002304F0F8FE80463046894605F06A
:103D90003FF845A3D3E9002305F0A4F802460B46FB
:103DA0004046494604F0E8FE8046894605F04AFB55
:103DB0000022834600234046494605F005FB0028C3
:103DC00040F07E82BBF1160F00F26D82DDE90A0140
:103DD0003A4B03EBCB03D3E9002305F0F5FA0028B7
:103DE00072D00023BE1B0E93731E0BF1FF3B069394
:103DF00000F1608200230993BBF1000F6BDA099B8D
:103E0000CDF81CB0A3EB0B030993CBF100030D938A
:103E1000229B4FF0000B092B66D8052B40F34A83F9
:103E20000026043B2293229B023B032B00F26C866C
:103E3000DFE813F061045E045504380442F20F73A6
:103E4000249ACAF3130A13605AEA08031AD1269B6C
:103E5000002B00F068861A4B03930833269A0398C8
:103E6000136019B0BDE8F08FDDE90A12C2F3130345
:103E7000084643F07F510F97A6F2FF36169F41F494
:103E8000401173E7269B002B40F0EF830D4B03930B
:103E900041E700BFAFF3008061436F63A787D23F64
:103EA000B3C8608B288AC63FFB799F501344D33F29
:103EB0000000F07FF99F00000000F83F68A10000BB
:103EC00020A000001CA00000BE1B731E069300F182
:103ED0008A840E900990069B5B44CDE9063B002343
:103EE0000D93229B092B98D9002322934FF0FF3387
:103EF0000126089300230C9623930021089B6164FC
:103F00001293204602F068F80390002800F004861F
:103F1000039B2364089B0E2B00F21481002E00F0FB
:103F200011810799002940F36084AF4B01F00F0223
:103F300003EBC2030A46D3E900674FEA2118D10513
:103F400040F11784DDE90A01A84B4FF0030AD3E9D9
:103F5000082305F0F1F8CDE9100108F00F08B8F1D9
:103F6000000F13D0DFF8849218F0010F09D0D9E9BF
:103F700000233046394604F0B5FF06460F460AF1E5
:103F8000010A5FEA680809F10809EDD1DDE91001CD
:103F900032463B4605F0D0F8804689460E9B43B139
:103FA000002240464946924B05F00EFA002840F0A8
:103FB0003585504604F02CFF42464B4604F092FFF4
:103FC0008C4B002204F0D8FDA1F15073CDE9100113
:103FD0001193089B002B00F09780079B1493089B7C
:103FE00013930C9B002B00F0A984139A7E4B0020A6
:103FF00003EBC20353E902237F4905F09DF8DDE995
:10400000102304F0B7FDCDE910014946404605F004
:1040100019FA074604F0FCFE02460B4640464946A4
:1040200004F0A8FDDDE91023039E303706F8017B7C
:104030008046894605F0C8F9002840F02E85CDF865
:1040400054B00027DDE910AB1095139D13942AE0BE
:104050000137AF4280F22E85504659460022674B09
:1040600004F040FF0022654B82468B46404649469D
:1040700004F038FF8946804605F0E4F9044604F070
:10408000C7FE02460B464046494604F073FD3034F5
:1040900052465B4606F8014B8046894605F094F986
:1040A000002840F0F88442464B460020504904F076
:1040B00061FD52465B4605F087F90028C8D0DDE96E
:1040C0001343109D039A079302E0964200F0CD84BB
:1040D000B24616F8013D392BF7D00133DBB233700D
:1040E000079B01330793C8E1504604F091FE424616
:1040F0004B4604F0F7FE3F4B002204F03DFDA1F1DA
:104100005073CDE9100111934046494600223C4BC3
:1041100004F030FDDDE910894B46424606460F4665
:1041200005F070F98146002840F0AF84DDE9100108
:10413000024601F100433046394605F045F90028B2
:1041400040F04883179B002BC0F28C80079A0E2A00
:1041500000F38880244B03EBC203D3E900AB239B1D
:10416000002B1BDA089B002B18DC40F03183002267
:10417000234B5046594604F0B5FE02460B46DDE996
:104180000A0105F02BF9DDF820904E46002800F0DA
:10419000CA82239BDDF80C80DF43CCE25246DDE986
:1041A0000A785B463846414604F0C6FF05F04AF9F6
:1041B0008146099004F02CFE52465B4604F092FEC4
:1041C000039E0B4602464146384604F0D3FC09F1F3
:1041D000300306F8013B089B012B00F05F83069437
:1041E00001271C4604952AE068A1000040A10000B8
:1041F0000000F03F00001C400000E03F00002440B1
:104200000000144052465B464046494604F094FF85
:1042100005F018F9054604F0FBFD52465B4604F034
:1042200061FE01370B4602464946404604F0A2FCB7
:1042300005F13003A74206F8013B00F02C83002271
:10424000AB4B04F04FFE002200238046894605F068
:10425000B1F80028D6D0049D069C079BB2460133D6
:1042600007930AE10C9A002A3DD0229A012A40F3D2
:104270009F82089B03F1FF380D9B4345C0F270827B
:10428000A3EB0808089B002BC0F24083069A1A444F
:104290000692099A17461A4409920121204601F014
:1042A000C3FF064623E00123BE1B0E93731E069335
:1042B0007FF5A0ADC6F101030993002306939BE5AA
:1042C000584604F0A5FD42464B4605F073F8002819
:1042D0007FF478AD0BF1FF3B74E5864B03930398B5
:1042E00019B0BDE8F08FDDF83480099F0C9E002FD7
:1042F0000CDD069900290B4608DDB942A8BF3B46F4
:10430000099AFF1AD21ACB1A099206930D9BE3B1B0
:104310000C9B002B00F06082B8F1000F10DD3146DD
:104320004246204602F05CF806462A4631462046C0
:1043300001F0A8FF0346294620461D4601F072FE03
:104340000D9BB3EB080240F0DB820121204601F017
:104350006BFFBBF1000F814600F3B380229B012B62
:1043600040F388814FF0000A0120BBF1000F40F0BC
:10437000B480069A104410F01F0000F09280C0F143
:104380002003042B40F3D383099BC0F11C0003449A
:104390000244099307440692099B002B05DD294638
:1043A0001A46204602F078F80546069B002B05DDEC
:1043B00049461A46204602F06FF881460E9B002BB4
:1043C00040F03881089B002B40F31E810C9B002B92
:1043D00040F09F80079B013307930127DDF80C8095
:1043E000DDF820A007E0294600230A22204601F03C
:1043F00023FE0546013749462846FFF7B9FB5745D6
:1044000000F1300308F8013BEDDB089A0027002A91
:10441000CCBF93464FF0010B039A934429460122E7
:104420002046049302F038F84946054602F0AAF8FF
:10443000002840F3AB811BF8013C039A0BF1FF3BD2
:1044400004E05A4500F0AD811BF8013D392B0BF11A
:10445000010AF6D001338BF800304946204601F0BE
:10446000E1FD56B12FB1B74203D03946204601F0E5
:10447000D9FD3146204601F0D5FD2946204601F000
:10448000D1FD0023079A8AF80030249B1A60269BEE
:10449000002B3FF440AC0398C3F800A019B0BDE86E
:1044A000F08F1C20099B074403440993069B034497
:1044B000069371E70126B6E4C0F1200008FA00F087
:1044C0004DE401465A46204601F08AFF229B814670
:1044D000012B40F3B6814FF0000AD9F8103009EBF8
:1044E0008303186901F054FEC0F1200041E700BFCA
:1044F00000002440F89F0000314600230A22204695
:1045000001F09AFD129B0646002B40F3E982CDE9AB
:104510000783002F00F31D81BAF1000F40F0D9810D
:10452000B046049B089903F00102039B0A921F46C0
:10453000013B1944229B089113430993494628469D
:10454000FFF716FB31468346284602F01BF8424629
:1045500049468246204602F035F8C26801460BF112
:104560003003002A43D104902846069302F00AF84B
:10457000024604992046049201F054FD049A069BD9
:104580001AB90999002900F09B82BAF1000FC0F214
:10459000648122994AEA010A0A9951EA0A0100F063
:1045A0005C81002A00F3B681089A07F1010A97425C
:1045B000D3463B7000F0B481294600230A222046EE
:1045C00001F03AFD4645054631464FF000034FF0F5
:1045D0000A02204612D001F02FFD41460646002374
:1045E0000A22204601F028FD57468046A6E72046CD
:1045F000049301F017FD0122049BC6E701F01CFDA6
:1046000057460646804699E7229B022B7ADC0C9B94
:10461000002B7FF47EAF079B494601332846079362
:10462000FFF7A6FADDF80CB000F1300300270BF815
:10463000013BF3E64946284601F0A4FF0028BFF6F7
:10464000C1AE294600230A22204601F0F5FC079B53
:10465000054603F1FF380C9B002B7FF44DAF129BF6
:10466000002B40F334820893B7E6B04B0393033337
:10467000FFF7F4BBDDE9041200297FF473AEC2F347
:104680001303002B7FF46EAEA94B1340002B00F0F8
:104690000082099B4FF0010A01330993069B013305
:1046A000069361E601230C93239B079A134412930C
:1046B0000133012B1F46B8BF012708930021172F94
:1046C00061647FF71EAC012204235B0003F1140038
:1046D000B842114602F10102F7D9616411E40123E5
:1046E0000C93239B002B4CDD1F4612930893E5E7A8
:1046F00000230C93D8E700230C93F2E7129BCDF82C
:104700001C800893089B002B7FF443AD494605228B
:10471000204601F091FC81462846494601F032FFCF
:1047200000287FF736AD31230398079F804600F8B5
:10473000013B013703904946204601F073FC7B1C86
:10474000DDF80CA00793CDF80C80002E7FF491AE1D
:1047500093E631463A46204601F09EFE0646DBE6E9
:104760000D9BCDF83480A8EB03039B444FF0000869
:1047700088E5DDE90A234FF0020ACDE91023FFF7AF
:10478000EEBB012323930893FFF7B7BB03D1049B30
:10479000D8073FF550AEDA461BF8013D302BFAD072
:1047A0005BE6079B039A013307933123137054E6AA
:1047B0000F9A002A00F0288103F23343069ADDF8AD
:1047C00034801A440692099A17461A44099264E5FD
:1047D0004FF000094E46DCE4294620460D9A01F0D0
:1047E000FFFD0546B1E50E9064E500F01181DDE9BD
:1047F0000A01079A4F4B564206F00F0203EBC20321
:10480000D3E9002304F06EFB36118046894600F0A0
:10481000708100234FF0020A474FF20706D5D7E90F
:10482000002304F05FFB01230AF1010A761007F16F
:104830000807F2D1002B3FF4B1AB80468946FFF761
:10484000ADBB049B002B7FF446AEDDE90412C2F33E
:104850001303002B3FF418AF3DE6002A12DD294672
:1048600001222046049301F017FE4946054601F057
:1048700089FE0028049B40F31781392B00F0FB8050
:104880000BF13103BA46079A374601324646079282
:104890000AF8013BE1E50995069C049D02460B469A
:1048A00004F06AF952465B468046894604F0AAFD48
:1048B00060B952465B464046494604F07BFD0028FD
:1048C0003FF4CBAC099BD9077FF5C7AC039AFFF740
:1048D000FFBB2046716801F07FFB0746002800F00F
:1048E0000C81336906F10C0102339A000C3001F09F
:1048F00075FA39460122204601F0CEFD804610E6C9
:104900002946204601F06CFD05461EE5DDE9082339
:104910009F1AC2E4392B00F0AE80BA460133B2E7E9
:10492000079A374601324646079277E51CA00000F9
:104930000000F07F68A1000040A10000DDF84CA05D
:104940008349DDE9102301EBCA0151E9020104F0BA
:10495000C9FACDE910014946404604F073FD064608
:1049600004F056FA0B4602464946404604F002F966
:104970005346039F3036012B8046894607F8016B6A
:1049800000F0AC80139E039B1E440022714B4046F6
:10499000494604F0A7FA8946804604F053FD824652
:1049A00004F036FA02460B464046494604F0E2F867
:1049B0000AF1300A07F801ABB74280468946E4D1D4
:1049C000DDE910010022644B04F0D6F842464B4664
:1049D00004F0FAFC002862D1DDE9102300205E49D2
:1049E00004F0C8F842464B4604F00CFD00283FF4A2
:1049F000A9AB16F8013CB246302B06F1FF36F8D0D1
:104A0000149B0133079338E5169BC3F13603D5E6B3
:104A10004FF0020ADDE90A89FFF7C0BA089B002BB4
:104A20003FF462AB129B002B7FF78CAB1393079B79
:104A30000022013B404649461493464B04F052FA8B
:104A4000804689460AF1010004F0E2F942464B46ED
:104A500004F048FA414B002204F08EF8A1F15073A3
:104A6000CDE910011193FFF7BCBA079B01330793FF
:104A70003123FFF734BB079BBB4601330793392330
:104A800037460BF8013B4646D7E44FF000094E4647
:104A900049E69A4668E4109D139CB246B0E7149B21
:104AA000039A0793FFF714BB7FF4ECAEDA077FF5A8
:104AB000E9AEE2E6DDF854B0109D139CFFF742BB6F
:104AC000392BD8D0BAF1000F3FF7DAAEDAE6229BE5
:104AD000022B3FF713AECDF81C809CE53E466FE7F6
:104AE000229B022B3FF70AAE129BCDF81C80089345
:104AF0000FE54FF0020AFFF751BA024640F2EA21F1
:104B0000174B184803F00CFA00262046314666641D
:104B100001F062FA039078B900224FF4D571104B7E
:104B2000104803F0FDF9104B0393FFF7F4B83FF47E
:104B300033ACC0F13C00B5E4039B012223644FF089
:104B4000FF33239612930C920893FFF7FBBA00BF32
:104B500068A10000000024400000E03F00001C406D
:104B60002CA0000040A0000020A00000B1F90C2003
:104B7000F8B50C461107074643D4636842F4006257
:104B8000002BA2815BDDA56A002D56D000233E6874
:104B90003B6093B212F4805255D101233846E1694B
:104BA000A847421C65D0A389A56A5B0705D5636841
:104BB000C01A236B0BB1E36BC01A0246E1690023F4
:104BC0003846A847411C40D13B68002B3DD01D2BE7
:104BD00001D0162B54D10022A38923F40063A381B2
:104BE0002369C4E90032216B3E6031B304F1400314
:104BF000994202D0384600F083FA00231846236316
:104C0000F8BD2669CEB193B29A0718BF0023256874
:104C100008BF63692660AD1BA3600CE02B463246DB
:104C2000D4F824C03846E169E047B0F1000CA5EBA8
:104C30000C05664416DD002DF0DC0020F8BDE36BAA
:104C4000002BA0DCF9E7206DAFE70022B4F90C30AF
:104C5000626023F400632269A381DB042260C2D571
:104C60002065C0E7A3894FF0FF3043F04003A381E4
:104C7000F8BD3B68002B96D01D2B06D0162B04D018
:104C8000A38943F04003A381F8BD00203E60F8BD36
:104C900038B505460C4608B1836BA3B1B4F90C00D6
:104CA000B8B1636EDB0701D4810515D528462146CE
:104CB000FFF75CFF636E0546DA0702D4A3899B0504
:104CC0000ED5284638BD00F08FF8B4F90C00002846
:104CD000E7D10546284638BDA06D00F0E1FCE5E7C8
:104CE000A06D00F0E5FC284638BD00BF38B548B3DC
:104CF000184B04461D680DB1AB6BBBB1B4F90C0089
:104D000088B1636EDB0701D4810513D5284621469F
:104D1000FFF72CFF636E0546DA0702D4A3899B05D3
:104D20000CD5284638BD0546284638BD284600F033
:104D30005BF8E3E7A06D00F0B3FCE7E7A06D00F0DF
:104D4000B7FCEEE7044B05491868BDE8384000F0B1
:104D50006FBC00BF0C000020B49F0000914C00000D
:104D6000014900F065BC00BFF17F000008B5436E4B
:104D7000DA0702D483899B0501D5002008BD806D28
:104D800000F08EFC002008BD08B5436EDA0702D49F
:104D900083899B0501D5002008BD806D00F088FC4B
:104DA000002008BD682270B54D1E02FB05F50E46B9
:104DB00005F1740100F01EFD044640B100210C30E5
:104DC000C4E9016005F168022160FCF721FE20467C
:104DD00070BD00BF024B0349186800F029BC00BF3A
:104DE000B49F0000F17F00002DE9F047824639486A
:104DF00000F056FCDAF83840002C66D10423032278
:104E00003549DAF80450CAF83C10DFF8D090DFF8E2
:104E1000D080344F344E0AF53B71CAE9B921CAF843
:104E2000E0422146EB600822C5E90044C5E904449C
:104E30006C66AC60AC6105F15C00FCF7E9FDC5E9AE
:104E40000759C5E90987EE6205F1580000F020FC1A
:104E5000DAF80850254B2146EB600822C5E90044EA
:104E6000C5E904446C66AC60AC6105F15C00FCF71C
:104E7000CFFDC5E90759C5E90987EE6205F158007C
:104E800000F006FCDAF80C50194B2146EB600822C2
:104E9000C5E90044C5E904446C66AC60AC6105F149
:104EA0005C00FCF7B5FD05F15800C5E90759C5E9F7
:104EB0000A76C5F8248000F0EBFB01230548CAF808
:104EC0003830BDE8F04700F0F3BB0248BDE8F047DA
:104ED00000F0EEBB140A0020614D0000B16E00002E
:104EE000D96E0000196F0000396F00000900010041
:104EF000120002002DE9F04107462D4800F0D0FBDA
:104F00002C4B1E68B36B93B34FF0040806F538764C
:104F1000D6E90134013B04D525E05A1C04F16804AC
:104F200021D0B4F90C50013B002DF6D1224B04F1F5
:104F30005800E360656600F0ABFB1D4800F0B8FB6D
:104F400008222946C4E90155C4E904552560A56134
:104F500004F15C00FCF75CFDC4E90C55C4E9115593
:104F60002046BDE8F08135682DB12E46D0E73046A9
:104F7000FFF73AFFC8E74FF4D671384600F03AFC25
:104F8000044668B1056029460546C0F804800C3027
:104F90004FF4D072A060FCF73BFD34602E46B7E7BB
:104FA0000348346000F084FB0C233B60D8E700BF6B
:104FB000100A0020B49F00000100FFFF014800F02C
:104FC0006FBB00BF100A0020014800F071BB00BF9A
:104FD000100A0020014800F063BB00BF140A002043
:104FE000014800F065BB00BF140A002008B5054861
:104FF00000F056FB044B05491868BDE8084000F076
:10500000F7BA00BF100A00200C0000206D4D000010
:1050100008B5054B0549186800F0EAFABDE80840F4
:10502000034800F045BB00BF0C000020894D000084
:10503000100A002038B5084B084D5B1B9C1007D0A8
:10504000043B1D44013C55F804399847002CF9D124
:10505000BDE8384004F0F0BBC4090020C0090020BE
:10506000F8B50C46234F064600F0AAFFBB685D6802
:10507000C4F57E6325F003050F332B4423F47F63CF
:1050800023F00F03A3F58054B4F5805F07DB002104
:10509000304601F0FBFEBB682B44984204D03046FA
:1050A00000F094FF0020F8BD3046614201F0EEFEB2
:1050B00001300DD0104ABB682D1B45F001055D6025
:1050C000136830461B1B136000F080FF0120F8BD01
:1050D0000021304601F0DAFEBA68831A0F2BDEDDBC
:1050E00043F001035360054B03491B68C01A086075
:1050F000D5E700BF3C0400201C0A00204408002023
:1051000000295ED0F8B50C46064600F059FF54F869
:10511000042C784FA4F1080522F001016818D7F893
:1051200008C04368844523F0030300F08780D2075A
:10513000436034D454F8082C07F10804AD1A114424
:10514000AA68A24268D000EB030CDCF804E0D5F8B2
:105150000CC01EF0010FC2F80CC0CCF8082000F003
:10516000918041F001036B600160B1F5007F31D2A5
:105170004A09CB08012191407A68013311437960D3
:1051800007EBC30257F83310083AC5E9021247F893
:105190003350CD603046BDE8F84000F017BFC2186C
:1051A0005268D2070ED4194407F108048368A34259
:1051B00070D0C268DA60936041F001036B6069509F
:1051C000D3E7704741F00103B1F5007F44F8043C98
:1051D0000160CDD3B1F5206F4FEA512347D28B093F
:1051E00003F1390003F13802C300F818FB580838FE
:1051F000984258D05A6822F003028A4202D99B682A
:105200009842F7D1D868C5E9023085603046DD6044
:10521000BDE8F84000F0DABEC2185268D20763D485
:105220000B44D0E90212CA60916043F001026A6047
:105230003046EB50BDE8F84000F0C8BE0B44D10743
:1052400007D454F8082CAD1A1344D5E90212CA60E9
:10525000916043F001026A60274ABD6012689A4279
:1052600098D8264B30461968FFF7FAFE92E7142BC0
:105270000AD9542B1FD80B0B03F16F0003F16E02F8
:10528000C300B2E7194491E703F15C0003F15B024C
:10529000C300AAE741F00103C7E90455C5E9024488
:1052A0006B60695076E70121921001FA02F2796889
:1052B0000A437A60A7E7B3F5AA7F06D8CB0B03F1C0
:1052C000780003F17702C3008FE740F25452934213
:1052D00006D88B0C03F17D0003F17C02C30084E748
:1052E0004FF47E737E2280E741F001036B60016022
:1052F00050E700BF3C040020480800204C0A002072
:105300009368002B00F0B7802DE9F04FB1F90C3015
:105310000C4619078046174683B098B225D52369F5
:105320001BB310F002033D682DD04FF0000B5E461A
:10533000DFF8B8A2002E00F08B80564533465A465F
:1053400028BF53464046E169D4F824C0E04700280E
:1053500040F38780BB6883441B1A361ABB60002B5E
:10536000E8D1002003B0BDE8F08F21464046FEF7AB
:1053700023FB002840F03681B4F90C303D6898B228
:1053800010F00203D1D110F0010976D14E46002E63
:105390005AD08205D4F808B040F1B580B3455A46DA
:1053A00000F2CD8010F4906F00F0CB80236821696B
:1053B000A3EB010B636903EB430A0AEBDA7A0BF107
:1053C00001034FEA6A0A33445345524684BF9A4662
:1053D0005246430540F1EA801146404600F00AFA81
:1053E000002800F0F9805A462169019000F0F6FC8F
:1053F000A289019B22F4906242F08002A28103EB19
:105400000B0023613246AAEB0B03B346C4F814A089
:10541000A3602060B24600264946019200F054FD88
:10542000A3682168019AA3EB0B030A44A3602260DE
:10543000B868D144A0EB0A00B860002891D0B4F954
:105440000C0080B2002EA4D1D5E9009608359EE765
:10545000D5E900B608356DE721464046FFF718FC50
:1054600080B3B4F90C304FF0FF3043F04003A38118
:1054700003B0BDE8F08F002070471E46AA4699464B
:1054800018461D4656B3002832D04A462068216986
:10549000B24228BF32468842636904D9A16803EB4F
:1054A000010B5A4574DC934265DC2A464046E169AB
:1054B000D4F824C0E047B0F1000BD2DDB9EB0B0902
:1054C000CAD00120BB685D44A3EB0B03A6EB0B061F
:1054D000BB60002B3FF445AF002ED4D10AF1080386
:1054E00053F8046C9A4653F8085C0833002EF7D042
:1054F00032460A21284600F029FC002869D00130F4
:10550000A0EB0509C1E72068236998421BD86369AD
:10551000B34218D86FF0004CB44528BFB4469CFB8A
:10552000F3FC4A4603FB0CF34046E169D4F824C07F
:10553000E047B0F1000A94DDA6EB0A0678E7B3462F
:105540003246206866E7B345DA4628BFB246494688
:10555000524600F0B9FCA3682268A3EB0A03524448
:10556000A3602260002BE7D121464046FFF790FB65
:105570000028E1D075E729469346019200F0A4FC8B
:10558000A368019A9B1AA36023681A44226095E7D6
:1055900029465A4600F098FC236821465B44404661
:1055A0002360FFF775FB002888D05AE7404601F0DA
:1055B00047FA034600287FF422AF40462169FFF7EF
:1055C0009FFD0C22B4F90C30C8F8002023F08003B2
:1055D00049E7721C914659E70C22B4F90C30C8F81F
:1055E000002040E74FF0FF30BCE600BF00FCFF7F2B
:1055F0002DE9F0410026884600F53877D7E90154B7
:10560000013D0ED4A389013D012B06D9B4F90E301A
:10561000013302D02046C04706436B1C04F16804E6
:10562000F0D13F68002FE9D13046BDE8F08100BFDE
:105630002DE9F8434FF000090746884600F5387613
:10564000D6E90154013D10D4A389013D012B08D9AD
:10565000B4F90E30013304D021463846C04749EA38
:1056600000096B1C04F16804EED13668002EE7D106
:105670004846BDE8F88300BFF030704700487047E7
:105680003C090020004870473C090020704700BFDB
:10569000704700BF704700BF704700BF704700BF32
:1056A000704700BF0120704701207047704700BF5E
:1056B000704700BF2DE9F0418B890C46990796B0E1
:1056C00008D5012204F14303C4E90432236016B073
:1056D000BDE8F081B4F90E100646002927DB6A46C2
:1056E00002F0D4FD002821DB019D4FF4806805F411
:1056F0007045A5F50055B5FA85F54FF400676D09BD
:105700004146304600F076F8B4F90C30F0B1204A4A
:1057100043F08003F263C4F81480A3812060206109
:1057200035BB3B43A38116B0BDE8F081A38913F0DC
:10573000800519D04FF0400830464146002500F062
:1057400059F82F46B4F90C300028E0D19A05BED4A0
:10575000012123F0030304F1430243F00203C4E9EF
:105760000421A3812260B2E74FF480682F46C7E787
:105770003046B4F90E1002F09DFD10B9B4F90C30AA
:10578000CFE7A38923F0030343F001031BB2C8E76B
:10579000614D000070B50C46B1F90E101546002998
:1057A0001E4696B014DB6A4602F070FD00280FDB3F
:1057B000019A4FF4806302F47042A2F50052B2FAEB
:1057C00082F24FF40060520932602B6016B070BD57
:1057D0000023B4F90C10336011F0800004D0402293
:1057E00018462A6016B070BD4FF480632B6016B067
:1057F00070BD00BF2DE9F04F01F10B05162D0646D7
:1058000083B025D8102900F2B88000F0D9FB10250C
:1058100018224FF0020CB54F3A445368A2F1080128
:105820008B4200F0B7805A68D96822F003021A440C
:105830009C683046E1608C60516803F1080441F0D7
:105840000101516000F0C2FB204603B0BDE8F08FBB
:1058500035F0070500F19180A94200F28E8000F03A
:10586000AFFBB5F5FC7FC0F094816B0A00F08C8033
:10587000042B00F26A81AB0903F1390C03F13804FF
:105880004FEACC00994F384443680838984206D113
:105890000CE0002980F22681DB68984206D05A6825
:1058A00022F00302511B0F29F3DDA4463C69DFF807
:1058B00040E274457AD0626822F00302531B0F2B3A
:1058C00000F37681002BC7E904EE80F26781B2F520
:1058D000007F80F019810121D30852090B449140C7
:1058E0007A6857F833000A4307EBC3010839A06010
:1058F000E1607A6047F83340C46001214FEAAC03AD
:105900009940914259D8114206D12CF0030C49001C
:1059100011420CF1040CFAD007EBCC09484664465E
:10592000D0F80C80404508D11CE1002B80F2218189
:10593000D8F80C80404500F01581D8F8042022F0FA
:105940000302531B0F2BF0DD08EB050145F00105A9
:10595000C8F804503046D8E90264F460A66043F009
:105960000104C7E904114C60C1E902EE48F80230B5
:1059700000F02CFB08F1080402E00C230024336043
:10598000204603B0BDE8F08F4FF400704FF0400C9C
:105990003F2477E7D3689A4208BF0CF1020C7FF4EA
:1059A00042AF3C69DFF848E1744584D101217A684F
:1059B0004FEAAC0399409142A5D9BC68636823F0D3
:1059C00003094D4503D8A9EB05030F2B7ADCDFF85B
:1059D00024B1494BDBF800201B6801322B4404EB57
:1059E000090A00F02F8103F580530F3323F47F68F9
:1059F00028F00F084146304601F048FA411C0246A3
:105A000000F0EF80824500F2EA803C4B1968414487
:105A10000846196000F04981DBF80010019301315C
:105A20001BBFA2EB0A0A5044CBF80020186012F00A
:105A3000070B00F01181CBF108010A44CBF580512E
:105A400090440831A1EB0801C1F30B0A51463046DE
:105A5000009201F01BFA421CDDE9002300F04B81AB
:105A6000801A00EB0A08196848F001005144BC4252
:105A7000BA601960506000F02481B9F10F0F40F254
:105A800022814FF0050E6068A9F10C0C2CF0070C78
:105A900000F0010040EA0C006060BCF10F0F04EB65
:105AA0000C00C0E901EE00F22E8114465068144B40
:105AB0001A688A4238BF1960124B1A688A4238BF86
:105AC000196090E0621943F0010345F0010565603B
:105AD0003046BA600834536000F078FA204603B0CC
