:020000040019E1
:1000000000FC07207D010000C1010000C3010000C9
:10001000C5010000C7010000C90100000000000088
:10002000000000000000000000000000CB01000004
:10003000CD01000000000000CF010000D101000050
:10004000D3010000D5010000D7010000D901000054
:10005000DB010000DD010000DF010000E101000024
:10006000E3010000E5010000E701000000000000DE
:10007000E9010000EB010000ED010000EF010000CC
:10008000F1010000F3010000F5010000F70100009C
:10009000F9010000FB010000FD010000FF0100006C
:1000A0000102000003020000050200000702000038
:1000B000090200000B0200000D0200000F02000008
:1000C00010B5054C237833B9044B13B10448AFF392
:1000D00000800123237010BD58080020000000009C
:1000E0007823000008B5034B1BB103490348AFF365
:1000F000008008BD000000005C080020782300009C
:10010000A3F5803A704700BF174B002B08BF134B75
:100110009D46FFF7F5FF00218B460F461348144A12
:10012000121A00F011F90E4B002B00D098470D4B1E
:10013000002B00D098470020002104000D000D483E
:10014000002802D00C4800F041FA00F0D9F8200055
:10015000290000F05DF800F0C3F800BF00000800BF
:10016000000000000000000000FC072058080020EC
:10017000D4080020CD050000AD0800000A490B4A54
:100180000B4B9B1A03DD043BC858D050FBDC0949DC
:10019000094A00209142BCBF41F8040BFAE7074826
:1001A0008047FFF7B1FF000084230000000000201B
:1001B0005808002058080020D4080020D102000070
:1001C000FEE7FEE7FEE7FEE7FEE7FEE7FEE7FEE707
:1001D000FEE7FEE7FEE7FEE7FEE7FEE7FEE7FEE7F7
:1001E000FEE7FEE7FEE7FEE7FEE7FEE7FEE7FEE7E7
:1001F000FEE7FEE7FEE7FEE7FEE7FEE7FEE7FEE7D7
:10020000FEE7FEE7FEE7FEE7FEE7FEE7FEE7FEE7C6
:1002100008B500F01DF8054800F036F9044800F074
:1002200033F900F043F8002008BD00BF5023000060
:100230005C23000070B516463AB14C1EA51814F8A0
:10024000010F00F021F8AC42F9D1304670BD00BF7B
:100250000B203021084B10B41B68084C084AA4FB43
:1002600003435B0C1361074B90609961D36810BC2A
:1002700043F00203D360704704000020C5B3A2918D
:100280000060004000100140024A5368DB07FCD4C4
:100290001060704700600040034A53689B07FCD51C
:1002A0001068C0B2704700BF00600040034A536846
:1002B000DB07FCD404231360FEE700BF00600040AE
:1002C000014B024A1A607047040000200024F40029
:1002D000014B024A1A607047040000200024F40019
:1002E00008B50021044600F00FF9044B1868C36BF1
:1002F00003B19847204602F01DF800BF70230000AC
:1003000070B50D4E0D4D761BB61006D0002455F875
:10031000043B01349847A642F9D1094E094D02F039
:100320000BF8761BB61006D0002455F8043B0134B8
:100330009847A642F9D170BD4C0800204C08002017
:10034000540800204C080020830730B548D0541EC4
:10035000002A3FD00346CAB201E0013C3AD303F879
:10036000012B9D07F9D1032C2DD9CDB245EA0525E6
:100370000F2C45EA054536D9A4F1100222F00F0CE6
:1003800003F1200EE6444FEA121C03F1100242E989
:10039000045542E9025510327245F8D10CF10102C0
:1003A00014F00C0F03EB021204F00F0C13D0ACF19D
:1003B000040323F003030433134442F8045B934221
:1003C000FBD10CF003042CB1CAB21C4403F8012B7E
:1003D0009C42FBD130BD64461346002CF4D1F9E7B2
:1003E00003461446BFE71A46A446E0E730B5054683
:1003F00089B008460C4600F04FF801210223214A3B
:1004000004940692AA6B04AC0590084401940791E9
:10041000AC680293039022B3636E13F0010FB4F93A
:100420000C309AB201D1980525D5910406D4626E9C
:1004300043F4005322F40052A3816266284601AAC5
:10044000214600F049FA636E002814BF4FF0FF35D3
:100450000A25DA0702D4A3899B0506D5284609B0E8
:1004600030BD284600F0FCF8D6E7A06D00F002FC95
:10047000284609B030BDA06D00F0F4FBB4F90C3093
:100480009AB2D2E774230000024B01461868FFF7C6
:10049000ADBF00BF0C00002020F0030110F00300EE
:1004A000C0F1000051F8043B00F1040C4FEACC0C01
:1004B0006FF000021CBF22FA0CF213434FF0010C44
:1004C0004CEA0C2C4CEA0C4CA3EB0C0222EA030283
:1004D00012EACC1204BF51F8043B0430F4D0C2F14C
:1004E000000102EA0102B2FA82F2C2F11F0200EB3D
:1004F000D2007047024B13B1024800F067B8704752
:1005000000000000AD0800002DE9F04F83462D4BA0
:1005100083B018680F46CDF804B000F0A3FB2A4B57
:10052000D3F80080D8F848619EB14FF001094FF030
:10053000000A7468651E0CD4013406EB84047FB194
:10054000D4F80031BB420BD0013D6B1CA4F1040474
:10055000F5D11C4B186803B0BDE8F04F00F08ABB22
:1005600073682268013BAB420CBF7560C4F800A001
:10057000002AE9D0D6F8880109FA05F10142D6F837
:1005800004B00BD1904772685A4512D1D8F848315F
:10059000B342D9D01E46002ECBD1DAE7D6F88C0173
:1005A00001420BD10198D4F88010904772685A45E7
:1005B000ECD0D8F84861002EBBD1CAE7D4F880004F
:1005C0009047E0E738040020702300000023014634
:1005D0001A46184601F00ABA014900F015BB00BFDF
:1005E0009D1A000008B5436EDA0702D483899B0583
:1005F00001D5002008BD806D00F034FB002008BD4F
:1006000008B5436EDA0702D483899B0501D5002023
:1006100008BD806D00F02EFB002008BD682270B57B
:100620004D1E02FB05F50E4605F1740100F024FB9A
:10063000044640B100210C30C4E9016005F16802B4
:100640002160FFF781FE204670BD00BF024B0349C9
:10065000186800F0D9BA00BF702300009D1A00008E
:100660002DE9F0478246394800F0FCFADAF83840C4
:10067000002C66D1042303223549DAF80450CAF865
:100680003C10DFF8D090DFF8D080344F344E0AF5BC
:100690003B71CAE9B921CAF8E0422146EB60082261
:1006A000C5E90044C5E904446C66AC60AC6105F181
:1006B0005C00FFF749FEC5E90759C5E90987EE6205
:1006C00005F1580000F0C6FADAF80850254B21462B
:1006D000EB600822C5E90044C5E904446C66AC60DF
:1006E000AC6105F15C00FFF72FFEC5E90759C5E9CC
:1006F0000987EE6205F1580000F0ACFADAF80C5008
:10070000194B2146EB600822C5E90044C5E90444C1
:100710006C66AC60AC6105F15C00FFF715FE05F19D
:100720005800C5E90759C5E90A76C5F8248000F0E4
:1007300091FA01230548CAF83830BDE8F04700F0C7
:1007400099BA0248BDE8F04700F094BA900800203A
:10075000D90500005D18000085180000C5180000CC
:10076000E518000009000100120002002DE9F04127
:1007700007462D4800F076FA2C4B1E68B36B93B3F6
:100780004FF0040806F53876D6E90134013B04D56C
:1007900025E05A1C04F1680421D0B4F90C50013B47
:1007A000002DF6D1224B04F15800E360656600F09D
:1007B00051FA1D4800F05EFA08222946C4E90155A5
:1007C000C4E904552560A56104F15C00FFF7BCFD98
:1007D000C4E90C55C4E911552046BDE8F0813568DF
:1007E0002DB12E46D0E73046FFF73AFFC8E74FF469
:1007F000D671384600F040FA044668B105602946D3
:100800000546C0F804800C304FF4D072A060FFF7AA
:100810009BFD34602E46B7E70348346000F02AFAA7
:100820000C233B60D8E700BF8C0800207023000039
:100830000100FFFF014800F015BA00BF8C0800203E
:10084000014800F017BA00BF8C080020014800F0F2
:1008500009BA00BF90080020014800F00BBA00BFA1
:100860009008002008B5054800F0FCF9044B054944
:100870001868BDE8084000F0A7B900BF8C08002048
:100880000C000020E505000008B5054B0549186877
:1008900000F09AF9BDE80840034800F0EBB900BF4A
:1008A0000C000020010600008C08002038B5084B21
:1008B000084D5B1B9C1007D0043B1D44013C55F8C0
:1008C00004399847002CF9D1BDE8384001F03ABD11
:1008D00058080020540800209368002B00F0B780CF
:1008E0002DE9F04FB1F90C300C4619078046174638
:1008F00083B098B225D523691BB310F002033D687D
:100900002DD04FF0000B5E46DFF8B8A2002E00F0AD
:100910008B80564533465A4628BF53464046E169C8
:10092000D4F824C0E047002840F38780BB688344A4
:100930001B1A361ABB60002BE8D1002003B0BDE8BB
:10094000F08F2146404600F0E7FF002840F0368156
:10095000B4F90C303D6898B210F00203D1D110F018
:10096000010976D14E46002E5AD08205D4F808B03F
:1009700040F1B580B3455A4600F2CD8010F4906F37
:1009800000F0CB8023682169A3EB010B636903EBC3
:10099000430A0AEBDA7A0BF101034FEA6A0A33449D
:1009A0005345524684BF9A465246430540F1EA8079
:1009B0001146404600F060F9002800F0F9805A46E0
:1009C0002169019000F04CFCA289019B22F4906205
:1009D00042F08002A28103EB0B0023613246AAEBB6
:1009E0000B03B346C4F814A0A3602060B2460026EF
:1009F0004946019200F0AAFCA3682168019AA3EB82
:100A00000B030A44A3602260B868D144A0EB0A003B
:100A1000B860002891D0B4F90C0080B2002EA4D1A7
:100A2000D5E9009608359EE7D5E900B608356DE7AB
:100A30002146404601F032F980B3B4F90C304FF052
:100A4000FF3043F04003A38103B0BDE8F08F0020E6
:100A500070471E46AA46994618461D4656B30028BA
:100A600032D04A4620682169B24228BF32468842C5
:100A7000636904D9A16803EB010B5A4574DC934206
:100A800065DC2A464046E169D4F824C0E047B0F16D
:100A9000000BD2DDB9EB0B09CAD00120BB685D4465
:100AA000A3EB0B03A6EB0B06BB60002B3FF445AF9B
:100AB000002ED4D10AF1080353F8046C9A4653F877
:100AC000085C0833002EF7D032460A21284600F091
:100AD0007FFB002869D00130A0EB0509C1E7206841
:100AE000236998421BD86369B34218D86FF0004C51
:100AF000B44528BFB4469CFBF3FC4A4603FB0CF309
:100B00004046E169D4F824C0E047B0F1000A94DD22
:100B1000A6EB0A0678E7B3463246206866E7B34597
:100B2000DA4628BFB2464946524600F00FFCA36899
:100B30002268A3EB0A035244A3602260002BE7D192
:100B40002146404601F0AAF80028E1D075E7294681
:100B50009346019200F0FAFBA368019A9B1AA360E6
:100B600023681A44226095E729465A4600F0EEFBB6
:100B7000236821465B444046236001F08FF800283B
:100B800088D05AE7404600F069FC034600287FF40D
:100B900022AF4046216901F039F90C22B4F90C303A
:100BA000C8F8002023F0800349E7721C914659E7FA
:100BB0000C22B4F90C30C8F8002040E74FF0FF30A9
:100BC000BCE600BF00FCFF7F2DE9F041002688460F
:100BD00000F53877D7E90154013D0ED4A389013DD2
:100BE000012B06D9B4F90E30013302D02046C0479C
:100BF00006436B1C04F16804F0D13F68002FE9D173
:100C00003046BDE8F08100BF2DE9F8434FF0000900
:100C10000746884600F53876D6E90154013D10D4E0
:100C2000A389013D012B08D9B4F90E30013304D05A
:100C300021463846C04749EA00096B1C04F16804A4
:100C4000EED13668002EE7D14846BDE8F88300BFF4
:100C5000704700BF704700BF704700BF704700BFBC
:100C6000704700BF704700BF0120704701207047E8
:100C7000704700BF704700BF2DE9F04F01F10B0531
:100C8000162D064683B025D8102900F2B88000F052
:100C9000D9FB102518224FF0020CB54F3A44536887
:100CA000A2F108018B4200F0B7805A68D96822F09F
:100CB00003021A449C683046E1608C60516803F17D
:100CC000080441F00101516000F0C2FB204603B06E
:100CD000BDE8F08F35F0070500F19180A94200F2E0
:100CE0008E8000F0AFFBB5F5FC7FC0F094816B0AFD
:100CF00000F08C80042B00F26A81AB0903F1390CFF
:100D000003F138044FEACC00994F3844436808385F
:100D1000984206D10CE0002980F22681DB689842D7
:100D200006D05A6822F00302511B0F29F3DDA446B6
:100D30003C69DFF840E274457AD0626822F0030231
:100D4000531B0F2B00F37681002BC7E904EE80F2D2
:100D50006781B2F5007F80F019810121D308520923
:100D60000B4491407A6857F833000A4307EBC301FC
:100D70000839A060E1607A6047F83340C46001211F
:100D80004FEAAC039940914259D8114206D12CF058
:100D9000030C490011420CF1040CFAD007EBCC090A
:100DA00048466446D0F80C80404508D11CE1002B31
:100DB00080F22181D8F80C80404500F01581D8F8E8
:100DC000042022F00302531B0F2BF0DD08EB05017A
:100DD00045F00105C8F804503046D8E90264F460D3
:100DE000A66043F00104C7E904114C60C1E902EEBA
:100DF00048F8023000F02CFB08F1080402E00C2354
:100E000000243360204603B0BDE8F08F4FF400703B
:100E10004FF0400C3F2477E7D3689A4208BF0CF1AB
:100E2000020C7FF442AF3C69DFF848E1744584D19D
:100E300001217A684FEAAC0399409142A5D9BC6878
:100E4000636823F003094D4503D8A9EB05030F2B75
:100E50007ADCDFF824B1494BDBF800201B68013253
:100E60002B4404EB090A00F02F8103F580530F3364
:100E700023F47F6828F00F084146304600F0DCFC80
:100E8000411C024600F0EF80824500F2EA803C4BB4
:100E9000196841440846196000F04981DBF80010E8
:100EA000019301311BBFA2EB0A0A5044CBF800208A
:100EB000186012F0070B00F01181CBF108010A4411
:100EC000CBF5805190440831A1EB0801C1F30B0A26
:100ED00051463046009200F0AFFC421CDDE9002391
:100EE00000F04B81801A00EB0A08196848F00100F5
:100EF0005144BC42BA601960506000F02481B9F1DD
:100F00000F0F40F222814FF0050E6068A9F10C0C22
:100F10002CF0070C00F0010040EA0C006060BCF10E
:100F20000F0F04EB0C00C0E901EE00F22E81144615
:100F30005068144B1A688A4238BF1960124B1A68FD
:100F40008A4238BF196090E0621943F0010345F00E
:100F5000010565603046BA600834536000F078FAE5
:100F6000204603B0BDE8F08FD9681A44A2E600BF5E
:100F70003C0400204404002044080020C80800204D
:100F800098080020C0080020C4080020B2F5206F97
:100F90004FEA52235FD3142B00F2B18003F15C01BE
:100FA000C9005B33781879580838884200F08F8080
:100FB0004B6823F00303934202D989688842F7D132
:100FC000C8687A68C4E902108460CC60D7E6142B44
:100FD00059D9542B00F29B802B0B03F16F0C03F1BA
:100FE0006E044FEACC008FE60134A30700F108003D
:100FF0007FF4D8AE53E0444642445368D8F80C100E
:1010000043F00103536054F8083F3046D9608B60C9
:1010100000F01EFAF6E64FEAD50C05F108023CE6B0
:1010200022445368304643F00103536000F010FA45
:101030000834E7E6611945F00105656043F00105F4
:10104000C7E904113046C1E902EE4D60A35000F03B
:10105000FFF90834D6E6930903F13901C9003833A2
:10106000A0E7BC425ED0BC68606820F0030845453C
:10107000A8EB050302D80F2B3FF766AF304600F010
:10108000E7F90024BEE603F15C0C03F15B044FEAD0
:10109000CC0039E659F808394B4540F095801CF0F2
:1010A000030F0CF1FF3CF5D17B6823EA01037B6061
:1010B000490099423FF6C3AE11B9C0E64900043475
:1010C0001942FBD0A44669E603F11008D4E60122D8
:1010D0009B109A407B681A437A6073E702EB080121
:1010E0004942C1F30B0A51463046009200F0A4FB7E
:1010F000431CDDE900237FF4F5AEDA46F5E6542B18
:1011000026D8130B03F16F01C9006E334AE7B3F51C
:10111000AA7F26D8EB0B03F1780C03F177044FEA92
:10112000CC00F1E5294B186840441860B6E6CAF3D4
:101130000B0CBCF1000F7FF4B1AEBC68C84448F0A2
:1011400001006060F5E61446F3E60123536095E77D
:10115000B3F5AA7F24D8D30B03F17801C900773304
:1011600020E740F25452934224D8AB0C03F17D0C9B
:1011700003F17C044FEACC00C6E5ABF1080BD84480
:101180004FF0000AA8EB0208AFE604F10801304670
:10119000009300F03BFEBC68009B60681968C8E6DD
:1011A00040F254518B420BD8930C03F17D01C900DE
:1011B0007C33F7E64FF47E704FF07F0C7E24A3E57E
:1011C0004FF47E717E23EDE67B6871E7980800207E
:1011D0005FFA81FC810710D00346511E2AB90AE04C
:1011E0009A0718460AD0013905D3184613F8012B7F
:1011F0006245F5D1704700207047114603290CD88D
:101200000029F8D00346014401E08B42F3D0184690
:1012100013F8012B6245F8D1ECE7024610B54CEA11
:101220000C2444EA04441046036804326340A3F1EA
:10123000013E2EEA030313F0803F04D10439032951
:101240001046F0D851B10346014401E08B4205D06D
:10125000184613F8012B6245F8D110BD002010BDCF
:10126000844641EA000313F0030349D1403A23D3F3
:101270000B6803604B6843608B688360CB68C36016
:101280000B6903614B6943618B698361CB69C361FE
:101290000B6A03624B6A43628B6A8362CB6AC362E6
:1012A0000B6B03634B6B43638B6B8363CB6BC363CE
:1012B00040304031403ADBD230320BD30B68036010
:1012C0004B6843608B688360CB68C360103010311B
:1012D000103AF3D20C3205D351F8043B40F8043BEA
:1012E000043AF9D2043208D0D2071CBF11F8013BEE
:1012F00000F8013B01D30B8803806046704700BFB4
:10130000082A13D38B07B1D010F00303AED0C3F17A
:101310000403D21ADB071CBF11F8013B00F8013BA4
:10132000A4D331F8023B20F8023B9FE7043AD9D31B
:10133000013A11F8013B00F8013BF9D20B78037038
:101340004B7843708B7883706046704788420DD924
:101350008B1883420AD900EB020CBAB1624613F82B
:1013600001CD994202F801CDF9D170470F2A0ED86C
:10137000034602F1FF3C4AB10CF1010C013B8C44E5
:1013800011F8012B614503F8012FF9D1704740EAAC
:1013900001039B074FD1A2F1100370B501F1200C9E
:1013A00023F00F0501F1100E00F11004AC441B09ED
:1013B0005EF8105C0EF1100E44F8105C5EF81C5CD8
:1013C000103444F81C5C5EF8185C44F8185C5EF855
:1013D000145CE64544F8145CEAD1013312F00C0FBA
:1013E00001EB031102F00F0400EB031327D08E462C
:1013F000043C24F003064FEA940C1E441C1F5EF8C4
:10140000045B44F8045FB442F9D10CF1010402F02A
:10141000030203EB840301EB840102F1FF3C4AB1B8
:101420000CF1010C013B8C4411F8012B614503F8D0
:10143000012FF9D170BD034602F1FF3C9CE7224623
:10144000EBE700BF0148FFF70DBC00BF8808002094
:101450000148FFF70FBC00BF880800202DE9F84FB6
:101460001646002900F0988006F10B0580460C46D0
:10147000FFF7E8FF162D5DD810252A46AE425ED84C
:1014800054F8041CA4F1080921F00307974262DA1A
:10149000BC4B09EB0700D3F808C0844500F09780E7
:1014A000D0F804C02CF0010303445B68DB0768D468
:1014B0002CF0030C07EB0C03934247DACB0710D454
:1014C00054F8083CA9EB030ADAF8043023F00301CE
:1014D0008C44BC44944580F211817B18934280F285
:1014E000E88031464046FFF7C7FB0646E0B154F8B6
:1014F000043CA0F1080223F001034B44934200F0A6
:10150000D2803A1F242A00F2F580132A00F2AC8020
:1015100003462246116819605168596092689A60C2
:101520002146404600F072FC4046FFF791FF3046EE
:10153000BDE8F88F25F00705002D2A469EDA0C231A
:101540000026C8F800303046BDE8F88F1F46D0E9C5
:101550000223D3609A607B1B0F2B22D8D9F804306A
:1015600003F001033B43C9F804304F447B6843F068
:1015700001037B6026464046FFF76AFF3046BDE820
:10158000F88FC907ADD454F8083CA9EB030ADAF880
:10159000041021F00301A0E71146BDE8F84FFFF762
:1015A0006BBBD9F8041043F0010301F0010129439A
:1015B000C9F8041009EB05014B604F447B684046B5
:1015C00043F0010308317B6000F020FCD2E7DCF837
:1015D000040020F0030B07EB0B0C05F11000844511
:1015E0004DDAC9073FF57DAF54F8081CA9EB010A95
:1015F000DAF8041021F003018B44BB4458453FF74F
:101600006CAF5646DAF80C1056F8080F3A1F242A29
:10161000C160886000F2DB80132A40F2D680216826
:101620001B2ACAF808106168CAF80C1000F2E080A2
:1016300008340AF110022168116061685160A168E4
:101640009160ABEB05020AEB050142F001029960E3
:101650004A60DAF80430404603F001031D43CAF83B
:101660000450FFF7F5FE6EE723681B2A03606368EA
:10167000436068D804F1080200F108034AE709EB67
:101680000502ACEB050C9A604CF00103536054F872
:10169000043C404603F001031D4344F8045CFFF79B
:1016A000D7FE26464FE750F8043C23F003031F44BF
:1016B00051E75646DAF80C1056F8080F3A1F242A5C
:1016C000C16088604CD8132A48D921681B2ACAF8FF
:1016D00008106168CAF80C1056D808340AF11002D4
:1016E0001F462368D146136063685360A36834467D
:1016F000936030E72146FFF729FE11E75646D0E90F
:101700000213CB60996056F8081FDAF80C303A1FC4
:10171000242ACB6099602DD8132A29D923681B2A43
:10172000CAF808306368CAF80C3042D808340AF1A5
:101730001003226867461A606268D1465A60A26840
:1017400034469A6007E7A368242A8360E368C3608D
:1017500026D004F1100200F11003DBE63246BFE7A9
:10176000214630461F46D146FFF7F0FD3446F2E6EB
:101770003346DEE7214630466746D146FFF7E6FDB1
:101780003446E8E63C040020A168242ACAF8101078
:10179000E168CAF8141020D010340AF118029FE74B
:1017A000236904F1180203616369436100F11803BE
:1017B000B0E6A368242ACAF81030E368CAF81430E7
:1017C00022D010340AF11803B3E7324633E721463A
:1017D0003046FFF7BBFD174B33E722691834CAF8D0
:1017E000182054F8042CCAF81C200AF1200277E7CC
:1017F000A168242ACAF81010E168CAF814100ED0A3
:1018000010340AF1180216E723691834CAF81830A0
:1018100054F8043CCAF81C300AF1200389E7226915
:101820001834CAF8182054F8042CCAF81C200AF1FD
:10183000200200E73C040020002238B5064D044693
:1018400008462A6000F068FD431C00D038BD2B68B4
:10185000002BFBD0236038BDCC08002010B50C460F
:10186000B1F90E1000F088FC002803DB236D03445F
:10187000236510BDA38923F48053A38110BD00BF4D
:10188000002070472DE9F0410C46B1F90C101F46BD
:10189000CB05054616460BD421F48051A1813B4669
:1018A00032462846B4F90E10BDE8F04100F01EB8EB
:1018B000B4F90E100223002200F0A8FBB4F90C10BA
:1018C000EAE700BF10B50C46B1F90E1000F09EFB20
:1018D000A389421C0EBF23F4805343F48053206538
:1018E000A38110BDB1F90E1000F0C6B838B50C4692
:1018F000114600228446074D20462A601A46644657
:10190000FEF798FC431C00D038BD2B68002BFBD0A1
:10191000236038BDCC08002038B5334B05461B6822
:101920000C460BB19A6B12B3B4F90C3018079AB28B
:1019300025D5216900292DD012F0010007D00025FE
:101940006069A5604042A06139B1002038BD9507AB
:1019500058BF6069A0600029F7D1120658BF084639
:10196000F4D543F040034FF0FF30A38138BD184653
:10197000FEF776FEB4F90C3018079AB2D9D4D10626
:101980002AD5520714D4216943F00803A3819AB2DF
:101990000029D1D102F42070B0F5007FCCD02146CF
:1019A000284600F049FBB4F90C3021699AB2C3E72C
:1019B000216B51B104F14002914204D0284600F05D
:1019C00025FAB4F90C30002222630022216923F0A9
:1019D0002403C4E90012D7E7092243F040032A6038
:1019E0004FF0FF30A38138BD0C0000202DE9F047F7
:1019F000DFF87CA00646DAF8000098460F469146CC
:101A0000FFF730F91B4B1B68D3F8484124B36568D6
:101A10001F2D26DC5EB96B1C0235DAF8000063600E
:101A200044F82570FFF726F90020BDE8F087012370
:101A300004EB8501C1F88890D4F88821AB401A43A3
:101A4000022EC4F88821C1F80881E4D1D4F88C2191
:101A50001343C4F88C31DEE703F5A674C3F848419C
:101A6000D5E7DAF80000FFF705F94FF0FF30DCE7C3
:101A70003804002070230000002238B5064D0446CB
:101A800008462A6000F020FC431C00D038BD2B68BB
:101A9000002BFBD0236038BDCC08002070B5002996
:101AA0004BD006460C4610B1836B002B48D0636EBA
:101AB000D80734D5B4F90C30002B3ED0214630463F
:101AC00000F05AF8E36A054633B13046E1699847B9
:101AD0000028B8BF4FF0FF35A3891A063BD4216B0D
:101AE00041B104F14003994202D0304600F08EF932
:101AF00000232363616C21B1304600F087F9002395
:101B00006364FEF797FE0022636EA281DB0727D590
:101B1000A06DFFF7A3F8FEF793FE284670BDA389DA
:101B20009905CBD4A06DFFF79DF8B4F90C30002BCC
:101B3000C4D1656E15F0010508D00025284670BD9A
:101B4000FEF78EFD636ED807B4D4E8E7A06DFFF70B
:101B500091F8284670BD3046216900F057F9BEE77C
:101B6000A06DFFF787F8D3E7024B01461868FFF72F
:101B700095BF00BF0C000020B1F90C20F8B50C4651
:101B80001107074643D4636842F40062002BA28128
:101B90005BDDA56A002D56D000233E683B6093B202
:101BA00012F4805255D101233846E169A847421CFE
:101BB00065D0A389A56A5B0705D56368C01A236B46
:101BC0000BB1E36BC01A0246E16900233846A8470F
:101BD000411C40D13B68002B3DD01D2B01D0162B62
:101BE00054D10022A38923F40063A3812369C4E9AB
:101BF0000032216B3E6031B304F14003994202D0C0
:101C0000384600F003F9002318462363F8BD26691F
:101C1000CEB193B29A0718BF0023256808BF636945
:101C20002660AD1BA3600CE02B463246D4F824C0DE
:101C30003846E169E047B0F1000CA5EB0C056644BD
:101C400016DD002DF0DC0020F8BDE36B002BA0DCDE
:101C5000F9E7206DAFE70022B4F90C30626023F49D
:101C600000632269A381DB042260C2D52065C0E73E
:101C7000A3894FF0FF3043F04003A381F8BD3B68D8
:101C8000002B96D01D2B06D0162B04D0A38943F031
:101C90004003A381F8BD00203E60F8BD38B505467D
:101CA0000C4608B1836BA3B1B4F90C00B8B1636EF4
:101CB000DB0701D4810515D528462146FFF75CFFD7
:101CC000636E0546DA0702D4A3899B050ED5284624
:101CD00038BDFEF7C5FCB4F90C000028E7D1054675
:101CE000284638BDA06DFEF7BDFFE5E7A06DFEF705
:101CF000C1FF284638BD00BF38B548B3184B04466D
:101D00001D680DB1AB6BBBB1B4F90C0088B1636E4B
:101D1000DB0701D4810513D528462146FFF72CFFA8
:101D2000636E0546DA0702D4A3899B050CD52846C5
:101D300038BD0546284638BD2846FEF791FCE3E746
:101D4000A06DFEF78FFFE7E7A06DFEF793FFEEE7CC
:101D5000044B05491868BDE83840FEF755BF00BF81
:101D60000C000020702300009D1C0000F8B50C46FC
:101D7000234F0646FFF766FBBB685D68C4F57E63CC
:101D800025F003050F332B4423F47F6323F00F0367
:101D9000A3F58054B4F5805F07DB00213046FFF7E0
:101DA0004BFDBB682B44984204D03046FFF750FBF4
:101DB0000020F8BD30466142FFF73EFD01300DD0F6
:101DC000104ABB682D1B45F001055D601368304665
:101DD0001B1B1360FFF73CFB0120F8BD00213046C0
:101DE000FFF72AFDBA68831A0F2BDEDD43F00103EB
:101DF0005360054B03491B68C01A0860D5E700BF54
:101E00003C040020980800204408002000295ED0EF
:101E1000F8B50C460646FFF715FB54F8042C784F2E
:101E2000A4F1080522F001016818D7F808C043683A
:101E3000844523F0030300F08780D207436034D445
:101E400054F8082C07F10804AD1A1144AA68A242FC
:101E500068D000EB030CDCF804E0D5F80CC01EF0F1
:101E6000010FC2F80CC0CCF8082000F0918041F0BE
:101E700001036B600160B1F5007F31D24A09CB08E4
:101E8000012191407A6801331143796007EBC30265
:101E900057F83310083AC5E9021247F83350CD60BD
:101EA0003046BDE8F840FFF7D3BAC2185268D207EF
:101EB0000ED4194407F108048368A34270D0C268A5
:101EC000DA60936041F001036B606950D3E77047BB
:101ED00041F00103B1F5007F44F8043C0160CDD32B
:101EE000B1F5206F4FEA512347D28B0903F1390036
:101EF00003F13802C300F818FB580838984258D04C
:101F00005A6822F003028A4202D99B689842F7D1AC
:101F1000D868C5E9023085603046DD60BDE8F8402C
:101F2000FFF796BAC2185268D20763D40B44D0E9BF
:101F30000212CA60916043F001026A603046EB50C1
:101F4000BDE8F840FFF784BA0B44D10707D454F832
:101F5000082CAD1A1344D5E90212CA60916043F00F
:101F600001026A60274ABD6012689A4298D8264BDF
:101F700030461968FFF7FAFE92E7142B0AD9542B62
:101F80001FD80B0B03F16F0003F16E02C300B2E721
:101F9000194491E703F15C0003F15B02C300AAE777
:101FA00041F00103C7E90455C5E902446B6069507B
:101FB00076E70121921001FA02F279680A437A6009
:101FC000A7E7B3F5AA7F06D8CB0B03F1780003F19E
:101FD0007702C3008FE740F25452934206D88B0C2D
:101FE00003F17D0003F17C02C30084E74FF47E73AC
:101FF0007E2280E741F001036B60016050E700BF83
:102000003C04002048080020C808002038B50C46D1
:10201000114600228446074D20462A601A4664462F
:1020200000F06AF9431C00D038BD2B68002BFBD0B0
:10203000236038BDCC0800202DE9F0418B890C4687
:10204000990796B008D5012204F14303C4E904328C
:10205000236016B0BDE8F081B4F90E1006460029E1
:1020600027DB6A4600F00AF9002821DB019D4FF4C6
:10207000806805F47045A5F50055B5FA85F54FF46F
:1020800000676D0941463046FEF7F6FDB4F90C30A5
:10209000F0B1204A43F08003F263C4F81480A381B6
:1020A0002060206135BB3B43A38116B0BDE8F081C1
:1020B000A38913F0800519D04FF0400830464146FF
:1020C0000025FEF7D9FD2F46B4F90C300028E0D1E9
:1020D0009A05BED4012123F0030304F1430243F027
:1020E0000203C4E90421A3812260B2E74FF48068AF
:1020F0002F46C7E73046B4F90E1000F0D3F810B9F8
:10210000B4F90C30CFE7A38923F0030343F00103B4
:102110001BB2C8E7D905000070B50C46B1F90E1026
:10212000154600291E4696B014DB6A4600F0A6F854
:1021300000280FDB019A4FF4806302F47042A2F58D
:102140000052B2FA82F24FF40060520932602B6002
:1021500016B070BD0023B4F90C10336011F080008C
:1021600004D0402218462A6016B070BD4FF4806338
:102170002B6016B070BD00BF38B50C46114600226A
:102180008446074D20462A601A46644600F0BCF893
:10219000431C00D038BD2B68002BFBD0236038BD1A
:1021A000CC0800202DE9F0410E680C460546BEB172
:1021B00037688FB1D7F80080B8F1000F08D0D8F891
:1021C000001009B1FFF7EEFF41462846FFF71EFE5B
:1021D00039462846FFF71AFE31462846FFF716FE15
:1021E00021462846BDE8F041FFF710BE224B1B6890
:1021F000834240D0C16C70B5054681B100268C5930
:102200003CB1214624682846FFF700FE002CF8D197
:10221000E96C0436802EF2D12846FFF7F7FD296CD1
:1022200011B12846FFF7F2FDD5F8484154B105F544
:10223000A676B44206D0214624682846FFF7E6FD7C
:10224000A642F8D1696D11B12846FFF7DFFDAB6BEF
:1022500083B12846EB6B9847D5F8E04254B121682A
:1022600011B12846FFF79EFF21462846BDE8704081
:10227000FFF7CCBD70BD70470C00002070B5002684
:10228000074D0446084611462E6000F025F8431C11
:1022900000D070BD2B68002BFBD0236070BD00BF49
:1022A000CC080020002238B5064D044608462A60B6
:1022B00000F01AF8431C00D038BD2B68002BFBD06F
:1022C000236038BDCC0800205822024B4FF0FF306D
:1022D0001A607047CC0800205822024B4FF0FF30A4
:1022E0001A607047CC0800205822024B00201A6068
:1022F000704700BFCC0800205822024B4FF0FF303F
:102300001A607047CC0800205822024B4FF0FF3073
:102310001A607047CC080020044A05491368002B56
:1023200008BF0B461844106018467047D0080020BC
:10233000D8080020FEE700BFF8B500BFF8BC08BC15
:102340009E467047F8B500BFF8BC08BC9E46704773
:1023500048656C6C6F20776F726C64002A2A205479
:1023600045535420504153534544202A2A0000002D
:10237000100000200A0000000000000084DDFF7F44
:1023800001000000000000000024F4000024F4001C
:102390001000002000000000FC0200206403002068
:1023A000CC0300200000000000000000000000003E
:1023B000000000000000000000000000000000001D
:1023C000000000000000000000000000000000000D
:1023D00000000000000000000000000000000000FD
:1023E00000000000000000000000000000000000ED
:1023F00000000000000000000000000000000000DD
:1024000000000000000000000000000000000000CC
:1024100000000000000000000000000000000000BC
:1024200000000000000000000000000000000000AC
:10243000000000000000000000000000010000009B
:10244000000000000E33CDAB34126DE6ECDE05006B
:102450000B00000000000000000000000000000071
:10246000000000000000000000000000000000006C
:10247000000000000000000000000000000000005C
:10248000000000000000000000000000000000004C
:10249000000000000000000000000000000000003C
:1027B0000000000000000000000000007C08002075
:1027C00000000000000000003C0400203C04002049
:1027D00044040020440400204C0400204C04002049
:1027E00054040020540400205C0400205C040020F9
:1027F00064040020640400206C0400206C040020A9
:1028000074040020740400207C0400207C04002058
:1028100084040020840400208C0400208C04002008
:1028200094040020940400209C0400209C040020B8
:10283000A4040020A4040020AC040020AC04002068
:10284000B4040020B4040020BC040020BC04002018
:10285000C4040020C4040020CC040020CC040020C8
:10286000D4040020D4040020DC040020DC04002078
:10287000E4040020E4040020EC040020EC04002028
:10288000F4040020F4040020FC040020FC040020D8
:1028900004050020040500200C0500200C05002084
:1028A00014050020140500201C0500201C05002034
:1028B00024050020240500202C0500202C050020E4
:1028C00034050020340500203C0500203C05002094
:1028D00044050020440500204C0500204C05002044
:1028E00054050020540500205C0500205C050020F4
:1028F00064050020640500206C0500206C050020A4
:1029000074050020740500207C0500207C05002053
:1029100084050020840500208C0500208C05002003
:1029200094050020940500209C0500209C050020B3
:10293000A4050020A4050020AC050020AC05002063
:10294000B4050020B4050020BC050020BC05002013
:10295000C4050020C4050020CC050020CC050020C3
:10296000D4050020D4050020DC050020DC05002073
:10297000E4050020E4050020EC050020EC05002023
:10298000F4050020F4050020FC050020FC050020D3
:1029900004060020040600200C0600200C0600207F
:1029A00014060020140600201C0600201C0600202F
:1029B00024060020240600202C0600202C060020DF
:1029C00034060020340600203C0600203C0600208F
:1029D00044060020440600204C0600204C0600203F
:1029E00054060020540600205C0600205C060020EF
:1029F00064060020640600206C0600206C0600209F
:102A000074060020740600207C0600207C0600204E
:102A100084060020840600208C0600208C060020FE
:102A200094060020940600209C0600209C060020AE
:102A3000A4060020A4060020AC060020AC0600205E
:102A4000B4060020B4060020BC060020BC0600200E
:102A5000C4060020C4060020CC060020CC060020BE
:102A6000D4060020D4060020DC060020DC0600206E
:102A7000E4060020E4060020EC060020EC0600201E
:102A8000F4060020F4060020FC060020FC060020CE
:102A900004070020040700200C0700200C0700207A
:102AA00014070020140700201C0700201C0700202A
:102AB00024070020240700202C0700202C070020DA
:102AC00034070020340700203C0700203C0700208A
:102AD00044070020440700204C0700204C0700203A
:102AE00054070020540700205C0700205C070020EA
:102AF00064070020640700206C0700206C0700209A
:102B000074070020740700207C0700207C07002049
:102B100084070020840700208C0700208C070020F9
:102B200094070020940700209C0700209C070020A9
:102B3000A4070020A4070020AC070020AC07002059
:102B4000B4070020B4070020BC070020BC07002009
:102B5000C4070020C4070020CC070020CC070020B9
:102B6000D4070020D4070020DC070020DC07002069
:102B7000E4070020E4070020EC070020EC07002019
:102B8000F4070020F4070020FC070020FC070020C9
:102B900004080020040800200C0800200C08002075
:102BA00014080020140800201C0800201C08002025
:102BB00024080020240800202C0800202C080020D5
:102BC0003408002034080020FFFFFFFF000002004F
:0C2BD000F5040000E5000000C10000005A
:00000001FF
