:020000040000FA
:10000000004000207D010000C1010000C30100008C
:10001000C5010000C7010000C90100000000000088
:10002000000000000000000000000000CB01000004
:10003000CD01000000000000CF010000D101000050
:10004000D3010000D5010000D7010000D901000054
:10005000DB010000DD010000DF010000E101000024
:10006000E3010000E5010000E701000000000000DE
:10007000E9010000EB010000ED010000EF010000CC
:10008000F1010000F3010000F5010000F70100009C
:10009000F9010000FB010000FD010000FF0100006C
:1000A0000102000003020000050200000702000038
:1000B000090200000B0200000D0200000F02000008
:1000C00010B5054C237833B9044B13B10448AFF392
:1000D00000800123237010BD440A002000000000AE
:1000E00080AC000008B5034B1BB103490348AFF3D4
:1000F000008008BD00000000480A002080AC00001D
:10010000A3F5803A704700BF174B002B08BF134B75
:100110009D46FFF7F5FF00218B460F461348144A12
:10012000121A01F041FF0E4B002B00D098470D4BE7
:10013000002B00D098470020002104000D000D483E
:10014000002802D00C4803F007FF01F009FF20004F
:10015000290000F0D5FC01F0F3FE00BF000008000C
:10016000000000000000000000400020440A0020C1
:10017000840B0020593F0000255400000A490B4A17
:100180000B4B9B1A03DD043BC858D050FBDC0949DC
:10019000094A00209142BCBF41F8040BFAE7074826
:1001A0008047FFF7B1FF00008CAC0000000000208A
:1001B000440A0020440A0020840B0020091F00008C
:1001C000FEE7FEE7FEE7FEE7FEE7FEE7FEE7FEE707
:1001D000FEE7FEE7FEE7FEE7FEE7FEE7FEE7FEE7F7
:1001E000FEE7FEE7FEE7FEE7FEE7FEE7FEE7FEE7E7
:1001F000FEE7FEE7FEE7FEE7FEE7FEE7FEE7FEE7D7
:10020000FEE7FEE7FEE7FEE7FEE7FEE7FEE7FEE7C6
:1002100008B5024801F098FF012008BDE09E0000EB
:1002200010B50446954B1968592900F008821ED86C
:1002300059B3232940F03A84914B5A6801325A60ED
:100240009B68102B00F2F381DFE813F02A0098007E
:10025000A600F1013001F101F101F1015A01F101B2
:10026000F101F101F101F101F101F101D7017D2964
:1002700040F01C84002840F01384814AD2F8943066
:100280000133C2F89430002010BD0028FBD0014695
:100290007C4801F0EBFE7A4A136801331360F2E701
:1002A00030B9774B01229A60DA680132DA60EAE706
:1002B00010F0010F17D0724A136923F07F0300F08A
:1002C0007E010B43136110F0800F04D16C4AD36997
:1002D0000133D361D7E7134602229A601875DA68B2
:1002E0000132DA60CFE7082815D00C2817D066282D
:1002F0001AD076281DD010F0800F1FD140F00404D2
:10030000462C33D15E4B08229A600022DA601A6BC9
:1003100001321A63B7E75A4B04229A60B3E7584A8E
:10032000136A01331362AEE7554A536A01335362CD
:10033000A9E7534A936A01339362A4E7504AD36A08
:100340000133D36210F0030F9DD000F0F004802C35
:1003500004D14B4AD36A0133D36294E74A4801F08F
:10036000F3FE474A136801331360F2E7444A136807
:1003700001331360454801F0E7FE84E720B9404AA5
:10038000D3680133D3607EE780287FF47CAF3C4B99
:100390000022DA609A6076E7394AD368D118087586
:1003A0000133D36010F0800F37D1023B032B0CD800
:1003B000DFE803F00217212B31490B6923F43E5388
:1003C000820102F4786213430B612D4BDA6901322A
:1003D000DA610022DA60A309294B18BF10229A6063
:1003E00051E727490B6923F47C23420302F4F822E6
:1003F00013430B61E9E722490B6923F0FC63020513
:1004000002F0787213430B61DFE71D4A1368013372
:1004100013601F4801F098FED7E7062B7FF633AF35
:100420001C4801F091FE164B1A6801321A60DB6815
:10043000023B032B3FF627AFDFE803F0020C162E3A
:100440000F490B6923F47E53A20102F4FC521343BB
:100450000B6118E70A490B6923F4FE13620302F4E7
:100460007C2213430B610EE705490B6923F07E6381
:10047000220502F0FC6213430B6104E70400002034
:10048000600A0020F09E00001C9F00002C9F0000CE
:100490003C9F0000549F0000A5490B6923F0704366
:1004A000E20602F0704213430B61ECE6A04AD36807
:1004B000D11808750133D360052B7FF4E4AE537D6A
:1004C00003F0FE03917D43EA0123D17D43EA01431A
:1004D000117E43EA01631361117D01F09F03012B3B
:1004E00007D1934B5A6B01325A630022DA609A604B
:1004F000C9E61368013313608E4801F0B7FDF0E7D9
:100500008B4AD368591CD160062B0DD8DFE803F065
:1005100004212B353F566000854A936B23F07F03FF
:1005200000F07F010B43936314F0800F7FF4ABAEB8
:100530007F4B9A6B1B6C9A423BD27D4BDB68042B42
:1005400037D87D4801F000FE794A13680133136003
:100550002FE077498B6B23F47E53C20102F47E5265
:1005600013438B63E0E772498B6B23F4FE13820322
:1005700002F4FE1213438B63D6E76D498B6B23F0B5
:100580007E63420502F07E6213438B63CCE7684AC8
:10059000936B23F0704343EA00739363D36B23F0B0
:1005A0000703C0F302110B43D36314F0800F7FF4F1
:1005B0006AAE5F4B00229A60DA6064E65C49CB6BFE
:1005C00023F47E73C20002F47E721343CB63ECE724
:1005D0005749CB6B23F47C43820292B21343CB6323
:1005E00010F0010FE1D0554801F0AEFD504B1A68F4
:1005F00001321A6000229A6096E74D4AD3680133AF
:10060000D36010F0800F07D113460022DA609A60A1
:100610005A6C01325A6436E6022B7FF634AE444AF5
:10062000136801331360464801F08EFD2BE6454800
:1006300001F08AFD3E4A13680133136023E6014648
:10064000414801F013FD3A4B9A6C01329A64DB6C1D
:10065000102B3FF618AE01A252F823F0A1060000BD
:1006600083070000BF0700008702000007080000A2
:10067000870200008702000087020000BD0800001A
:100680008702000087020000870200008702000046
:10069000870200008702000087020000B109000005
:1006A00024B9234B0122DA641A65ECE5702C0AD0D8
:1006B00014F00F0F16D114F0800F09D11C4A936D5E
:1006C00001339365DFE51A4A536D01335365DAE56B
:1006D000174B0222DA6483F85C4000221A6601227A
:1006E0001A65D0E5942C17D0B42C2FD014F0030346
:1006F0003FD00F4A1021D16482F85C40002111667E
:100700001165022B2DD0032B2FD0012B7FF4BBAD15
:10071000134601225A66B6E5054B0422DA64942298
:1007200083F85C2000221A6601221A65ABE500BF3F
:10073000600A00206C9F0000BC9F0000909F00009A
:10074000D49F0000F09F000008A00000914B0822F9
:10075000DA64B42283F85C2000221A6601221A654A
:1007600091E58C4B02225A668DE58A4B04225A662B
:1007700089E5884A136801331360874801F0E4FC77
:1007800081E5844A136D01331365802C0FD014F07A
:100790007F0F3FF478AD7F4B1A6801321A60002258
:1007A000DA641A6521467D4801F060FC6BE513466A
:1007B000926E01329A660022DA641A6563E5754A20
:1007C000116E04F07F0343EAC113136614F0800F27
:1007D00007D11346926D01329A650022DA641A65D8
:1007E00051E56C4A136D01331365052B7FF64BAD54
:1007F0001446136801331360694801F0A5FC002317
:10080000E36423653FE5634B1B6D5A1E032A4BD8F7
:10081000DFE802F0021D27315E49CA6E22F0EF02C6
:1008200004F07F000243CA6601335A4A136514F08C
:10083000800F7FF428AD574B1A6F01321A67DB6EB9
:100840000BB1544A5367534B0022DA641BE55148FD
:10085000C26E22F47E52E10101F47E510A43C26667
:10086000E2E74C48C26E22F47C22A10301F4FE119F
:100870000A43C266D8E7474AD36E23F46F03610583
:1008800001F07E610B43D3660523136514F0800FDE
:10089000D1D0444801F058FC3E4B1A6801321A602E
:1008A0000022DA641A65EEE401333A4A136514F063
:1008B000800FC0D0052B7FF4E6ACEAE7354B1B6D0B
:1008C0005A1E032A4BD8DFE802F00219232D3149C2
:1008D0008A6F22F0EF0204F07F0002438A6701333F
:1008E0002C4A136514F0800F7FF4CDAC294AD36FE6
:1008F0000133D367274B0022DA64C4E42548826FB2
:1009000022F47E52E10101F47E510A438267E6E758
:100910002048826F22F47C22A10301F4FE110A43D5
:100920008267DCE71B4A936F23F46F03610501F0D4
:100930007E610B4393670523136514F0800F1ED16E
:10094000144AD36F0133D36714F0010FD2D0164885
:1009500001F0FAFB0F4A136801331360CAE7013351
:100960000C4A136514F0800F06D11146D26F013284
:10097000CA67052BE8D0BDE7052B7FF484AC0B4894
:1009800001F0E2FB034B1A6801321A600022DA64BC
:100990001A6578E4600A002014A0000028A0000076
:1009A00040A0000060A0000074A000009CA0000017
:1009B000434A136DD9008C40116E0C431466013309
:1009C0001365526E93427FF45EAC3D4B93F85C30FE
:1009D00013F0040F0AD13A4AD2F880300133C2F83A
:1009E0008030374B0022DA641A654CE4DA08012AB9
:1009F00043D0022A48D04AB15B09032B4BD0304A7E
:100A0000D2F890300133C2F89030EAE714F0010FC9
:100A100005D02B4AD2F884300133C2F8843014F068
:100A2000020F05D0264AD2F884300133C2F8843050
:100A300014F0040F05D0224AD2F884300133C2F8F2
:100A4000843014F0080F05D01D4AD2F884300133E9
:100A5000C2F8843014F0100F05D0194AD2F884304F
:100A60000133C2F8843014F0200FBAD0144AD2F8FF
:100A700084300133C2F88430B3E7114AD2F88830A9
:100A80000133C2F88830ACE70D4AD2F88C3001331C
:100A9000C2F88C30A5E70A4A136801331360AEE749
:100AA0000146084801F0E2FAFFF7E7BB044A136881
:100AB00001331360044801F0D9FAFFF7E4BB00BF2B
:100AC000600A0020B0A00000D8A000000B4B00225C
:100AD000C3F898200221C3F89C10C3F8A020FF217E
:100AE000C3F8A4104FF0FF31C3F8A810C3F8AC202E
:100AF00083F8B02083F8B120704700BF600A00205F
:100B000070B54FF0804300245C604CF267021A61BC
:100B1000194A5460FF21116101225A60FFF7D6FF84
:100B2000164BC3F8B440C3F8B8404FF080440025DA
:100B3000134E04E0C4F8005A124801F005FBD4F843
:100B40008038002BFBD0C4F80059D4F87C28120A56
:100B50004FF40043C4F8003AD4F88038002BFBD19E
:100B600006EB82035B6898470028E3D04FF480438C
:100B7000C4F80039DEE700BF00100040600A002022
:100B800004000020ECA0000000BA7047034658B1F2
:100B90004FF0804202200021C2F80804C2F8081475
:100BA000013B13F0FF03F7D17047C9B12DE9F041C4
:100BB00005460C464FF080464FF00008202715F000
:100BC000010F14BFC6F88074C6F880846D08012038
:100BD000FFF7DCFF631E13F0FF04F0D1BDE8F081E6
:100BE000704738B50F4801F0AFFA0F4BD3F8A0406B
:100BF0002CB10E4801F0A8FA0124204638BD012589
:100C0000094BC3F898504FF080434022C3F80025A9
:100C10000521FF20FFF7C9FF29460020FFF7C5FF88
:100C2000EBE700BF24A10000600A002038A100000B
:100C30002DE9F04F83B088464FF080430021C3F880
:100C400080140192002A44D0044616460D460F46F1
:100C50008B4699464FF0040A09E0C9F810B40CE03D
:100C6000012E1BD00120FFF791FF013EF6B204F0E8
:100C70000103002BF1D0C9F810A4640844EAC87439
:100C80004FEA58086D087B0845EAC7751F46D9F832
:100C90002024002AE4D043F00047E1E74FF08043EE
:100CA0002022C3F880240120FFF770FF019AC2F1CF
:100CB0004001A2F12003C2F12000CD4007FA03F366
:100CC0001D4327FA00F0284327FA01F103B0BDE8DD
:100CD000F08F00252F46E9E710B5044604210320D4
:100CE000FFF763FF042220460021FFF7A1FF022146
:100CF0000120FFF75AFF10BD094BD3F89C30834207
:100D00000DD010B5044630B10B20FFF7E5FF044BC2
:100D1000C3F89C4010BD0A20FFF7DEFFF7E77047DD
:100D2000600A002038B50E20FFF7D6FF032101200E
:100D3000FFF73BFF202200200021FFF779FF054647
:100D40000C4602210120FFF730FF2846214638BD1E
:100D50002DE9F04780460F464FF0030A0126DFF8E1
:100D6000349051463046FFF720FF23224046394653
:100D7000FFF75EFF04460D4602213046FFF715FFE0
:100D800004F0070389F8B030012BEAD02046294649
:100D9000BDE8F087600A00204FF080434022C3F88E
:100DA0000025B1B12DE9F04104460D461E464FF035
:100DB0000008202714F0010F14BFC6F88074C6F88D
:100DC00080840120FFF7E2FE6408013DF2D1BDE816
:100DD000F081704710B504460120FFF7D7FE0C4B99
:100DE00093F8B030012B00D010BD20212046FFF732
:100DF000D3FF20220020012304EA0301002918BFA9
:100E000001305B00013AF7D10121FFF7C5FFEBE7A5
:100E1000600A0020F8B54FF080430022C3F8002597
:100E2000054680B114461F46012604E03046FFF710
:100E3000ADFE013D08D06408D7F84034002BF5D052
:100E400044F00044F2E704462046F8BD10B50B4BD1
:100E500093F8B030012B09D00120FFF797FE084C22
:100E60002146084801F002F9204610BD2020FFF776
:100E7000D1FF04460220FFF7CDFFF1E7600A002012
:100E8000EFBEADDE68A100002DE9F0410546082760
:100E90000426DFF86C8016E0194BD3F8AC20013241
:100EA000C3F8AC20042283F8B020164801F0DEF825
:100EB000154801F049F917E001210020FFF76CFF08
:100EC000022388F8B03039462846FFF765FF3046E0
:100ED000FFF7A0FF440F042CDED0022CECD0084B0F
:100EE00083F8B040012C02D12046BDE8F0810548CE
:100EF00001F0BCF82146054801F0B8F8F4E700BF5E
:100F0000600A002084A10000ACA10000B4A1000090
:100F10000F4BD3F8A430834219D010B504460C4BC4
:100F2000D3F8983063B10020FFF7E6FEE00140F00F
:100F300004000021FFF70CFF054BC3F8A44010BDCF
:100F4000B120FFF7A1FF2001FFF744FFF4E770474E
:100F5000600A002010B504460A4BD3F898304BB114
:100F60000020FFF7C9FEE00040F00200610FFFF72C
:100F7000EFFE10BDA920FFF787FF2046FFF72AFFED
:100F8000F7E700BF600A0020104BD3F8A830834277
:100F900000D1704710B504460020FFF7B9FF0B4B96
:100FA000D3F8983053B10120FFF7A6FEE000610F9F
:100FB000FFF7CEFE054BC3F8A84010BDA320FFF7F6
:100FC00063FF2046FFF706FFF4E700BF600A00203A
:100FD00010B504460020FFF79BFF0A4BD3F898306A
:100FE0004BB10120FFF788FEE00040F00200610FE6
:100FF000FFF7AEFE10BD8B20FFF746FF2046FFF740
:10100000E9FEF7E7600A002008B50020FFF780FF3F
:101010000A4BD3F8983053B10120FFF76DFE07203B
:101020000021FFF795FEC00840EA417008BD9F20EF
:10103000FFF72AFFFFF70AFFF8E700BF600A00206A
:1010400010B504460020FFF763FF0A4BD3F8983031
:101050004BB10120FFF750FEE00040F00600610FA9
:10106000FFF776FE10BDBB20FFF70EFF2046FFF70F
:10107000B1FEF7E7600A002008B50A4BD3F89830B4
:1010800053B10020FFF738FE07200021FFF760FE74
:10109000C00840EA417008BDBD20FFF7F5FEFFF72C
:1010A000D5FEF8E7600A002038B505460848FFF786
:1010B0006BFF2846FFF78CFFFFF7A6FFFFF7DCFF6B
:1010C000044602462946034800F0D0FF204638BDBA
:1010D00002000022C4A1000008B5094BD3F8B430C7
:1010E00003B108BD074801F02FF80020FFF7DCFF2F
:1010F00001BA034BC3F8B410034800F0B7FFF0E7A0
:10110000600A0020E0A10000F4A1000008B5044B33
:10111000D3F8B43003EB8000FFF7C6FF00BA08BD78
:10112000600A002008B50A4801F00EF8094BD3F810
:10113000A0300BB9012008BDFFF7CEFF0020FFF75C
:10114000E5FF0120FFF7E2FF034800F0FDFFF1E7B4
:1011500018A20000600A002024A2000038B505464D
:101160000848FFF711FF2846FFF732FFFFF74CFF53
:10117000FFF782FF044602462946034800F076FF47
:10118000204638BD0100002244A2000038B50546C3
:101190004FF00850FFF7F8FE2846FFF719FFFFF75A
:1011A00033FFFFF769FF044602462946024800F074
:1011B0005DFF204638BD00BF60A200002DE9F04170
:1011C00005460E4690460A460146164800F04EFF78
:1011D0001548FFF7D9FE2846FFF7FAFEC6B10024EE
:1011E000A8F1040709E02846FFF7F2FE09E0FFF73F
:1011F0000BFF04350134A6420AD0C5F30903002BC6
:10120000F1D0002CF3D0FFF7FFFE47F82400F0E701
:1012100006F18046013EFFF72FFF48F82600BDE8A3
:10122000F08100BF7CA200001200002238B5054604
:101230000C460A460146074800F018FF0648FFF72B
:10124000A3FE2846FFF7C4FE2046FFF7F9FEFFF78E
:1012500013FF38BD94A200000200002208B5044B21
:10126000D3F8B43009BA03EB8000FFF7DFFF08BD05
:10127000600A00202DE9F04387B08C4800F064FF3D
:101280008B4BD3F8A030002B00F00C81884BD3F8A7
:10129000B83033B3FFF720FF854C0023C4F8B830D3
:1012A000844800F051FF22680721834800F0DEFEE9
:1012B000824CA168824800F0D9FE6169814800F043
:1012C000D5FEA268636903F0080313430ED07B4B7D
:1012D0005B6913F0080F0ED07B4800F035FF01204A
:1012E000E1E07A4800F030FF0120DCE0784800F0CF
:1012F0002BFF0120D7E06E4B1A6807216E4800F0E3
:10130000B5FE6B4F734E3D681DBB2E2000F0C6FE30
:1013100002AA2946694C6FF0004010E0059B01933A
:10132000049B0093039B029A6B4800F09FFE604A67
:101330001368013313600CE0013104295DD0636848
:1013400042F8043B8342F7D10029E7D1634800F01B
:10135000FBFE574C2168624800F088FED4F89420C8
:10136000A36C1B0543EA8273D4F8BC201343616865
:1013700043EA01210020FFF771FF626BE3691B055F
:1013800043EA8233E26A1343616C43EA017101204C
:10139000FFF764FF226B636A1B0343EA0213A26A2E
:1013A0001343226A43EA8233226F43EA0243E26F25
:1013B00043EA0263626D43EA0273A16E43EA81016C
:1013C0000220FFF74BFFA26DD4F880309B0543EA63
:1013D000C263D4F890201343D4F8842043EA024334
:1013E000D4F88C2043EAC223D4F8881043EA811150
:1013F0000320FFF733FF206855E0D7F8BC300133F6
:10140000C7F8BC309DF8179011E0C4F34603336071
:10141000C4F30720FEF704FF06AB03EB8808240C97
:1014200048F8104C4FEA59090135072D20D04FEAF2
:10143000550806AB03EB880353F8104C14F0010F6A
:101440000AD019F0010FE0D0C4F30720FEF7E8FE40
:10145000C4F346033360DFE709F0010304F0FE0044
:101460001843FEF7DDFEC4F30720FEF7D9FED3E7ED
:10147000059B13F0010F0DD0B9F1000F03D1C3F399
:10148000460333603FE73B6801333B60154800F09B
:101490005BFE38E723F0010343EA0900C0B2FEF720
:1014A000BFFE30E7012007B0BDE8F083A8A200002E
:1014B000600A00202CA3000040A300000020004090
:1014C00060A300007CA30000ACA30000B8A2000051
:1014D00098A3000004000020DCA30000CCA30000BF
:1014E00038A400000CA400002DE9F8430646884605
:1014F000174613460A460146174800F0B7FD17483D
:10150000FFF742FD3046FFF763FD3146144800F017
:10151000ADFDB8F1000F1AD03D1F0024F71B0437B2
:10152000DFF83C9006E055F8040FFFF789FD013421
:10153000A0450CD07E19C6F30903002BF3D1304629
:10154000FFF746FD3146484600F090FDEBE7FFF718
:1015500093FDBDE8F88300BF54A4000012000022F0
:1015600070A4000038B5054641EA01442246014610
:10157000074800F07BFD0748FFF706FD2846FFF708
:1015800027FD2046FFF75CFDFFF776FD38BD00BF65
:1015900088A400000100002238B5054641EA012474
:1015A00044EA044422460146074800F05FFD4FF03C
:1015B0000850FFF7E9FC2846FFF70AFD2046FFF731
:1015C0003FFDFFF759FD38BD9CA4000008B50A4B4C
:1015D000D3F898304BB10020FFF78EFB0320002199
:1015E000FFF7B6FBFFF748FD08BD8D20FFF74CFC69
:1015F000FFF72CFCF8E700BF600A002008B50D4B90
:10160000D3F8983023B90B4BD3F8AC0060B908BDC0
:10161000FFF7DCFF10F0200FF5D0064AD2F8AC300F
:101620000133C2F8AC30EEE7034800F08DFD012035
:10163000EDE700BF600A0020B0A4000008B50B4829
:1016400000F082FDFFF748FD094BD3F89830012BDD
:1016500018BF012000D008BDFFF764FB0146002041
:10166000FFF7FCFDFFF7CAFFF5E700BFDCA40000B1
:10167000600A002038B5114800F066FD104BD3F821
:10168000A0300BB9012038BDFFF726FD0020FFF781
:101690003DFD044601460B4800F0E8FC2046FFF7FC
:1016A00003FD054602462146074800F0DFFC2946B7
:1016B0000020FFF7D3FDFFF7A1FFE4E7E8A4000057
:1016C000600A0020F4A4000004A5000030B58DB02D
:1016D000264800F039FD264BD3F8A03013B901207D
:1016E0000DB030BDFFF7F8FC0020FFF70FFD6A4694
:1016F0000C2100F57D60FFF761FD9DF80040039B24
:1017000044EA0364019B1B029BB22343029C240412
:1017100004F47F041C439DF81050079B45EA0365C1
:10172000059B1B029BB22B43069D2D0405F47F05F0
:101730001D439DF820300B9943EA0163099A120278
:1017400092B213430A99090401F47F01194300205E
:10175000FFF784FD29460120FFF780FD2146022086
:10176000FFF77CFDFFF74AFFBAE700BF20A50000A6
:10177000600A002010B51D4800F0E6FC1C4BD3F8B1
:10178000A0300BB9012010BDFFF7A6FC1948FFF7E8
:101790008BFC10F4802F24D0174800F0D5FC17499B
:1017A0001448FFF743FD164800F0CEFC114C2046CC
:1017B000FFF77AFC10F4003FF9D0124800F0C4FCA7
:1017C00001210020FFF74AFD0F4800F0BDFC0F4942
:1017D0000848FFF72BFD0E4800F0B6FCFFF70EFFA0
:1017E000D1E70C4800F0B0FC0120CCE730A50000A8
:1017F000600A0020F0ED00E044A5000003005FA0B7
:1018000054A5000064A5000070A5000000005FA0C2
:1018100080A5000090A5000008B50B4800F094FCDE
:101820000A4BD3F8A0300BB9012008BD064800F0E0
:101830008BFC07490748FFF7F9FC074800F084FCD8
:10184000FFF7DCFEF1E700BFA4A50000600A00205E
:1018500001005FA0F0ED00E0BCA5000038B5324803
:1018600000F072FC314BD3F8A0300BB9012038BD29
:10187000FFF732FC2E48FFF717FC10F4002F4ED074
:101880002C4800F061FC2C492948FFF7CFFC2B487D
:1018900000F05AFC264C2046FFF706FC10F4003FEF
:1018A000F9D0274800F050FC0220FFF72FFC01463A
:1018B0000320FFF7D3FC0F212248FFF7B7FC1C4C95
:1018C0002046FFF7F1FB10F4803FF9D01E4C204674
:1018D000FFF7EAFB01461D4800F0C8FB134BD3F8A5
:1018E000B4500C3529462046FFF7A0FC184915488E
:1018F000FFF79CFC083C2046FFF7D6FB10F4803F26
:10190000F9D02946134800F0B1FB13490848FFF706
:101910008DFC124800F018FCFFF770FEA7E7104896
:1019200000F012FC0120A2E7D0A50000600A002010
:10193000F0ED00E0E8A5000003005FA054A5000062
:1019400064A50000F4ED00E0F8ED00E0F8A500006B
:101950000F00010018A6000000005FA034A60000E0
:1019600044A6000038B5284800F0EEFB274BD3F81A
:10197000A0300BB9012038BDFFF7AEFB234C00218E
:10198000D4F8B400FFF752FCD4F8B400FFF78CFB96
:10199000002834D000241D4DD5F8B40043F2564140
:1019A0000230FFF7DFFDD5F8B400FFF77DFB184BE1
:1019B000984206BF44F002041648174800F0C4FBE2
:1019C000124DD5F8B40012210130FFF7E5FDD5F82E
:1019D000B400FFF769FB114B984206BF44F00404C2
:1019E0000C480D4800F0B0FB21460020FFF736FC04
:1019F00021460B4800F03AFBFFF700FEBBE7094821
:101A000000F0A2FB0124C6E758A60000600A0020EF
:101A10000000563474A600008CA600000012563454
:101A2000A4A6000064A6000008B50D4800F08CFBD9
:101A30000C4BD3F8A0300BB9012008BDFFF74CFBCD
:101A40000020FFF763FB084B18601968074800F097
:101A50000DFB044B0122C3F8B820FFF7CFFDECE7E4
:101A6000B8A60000600A002000200040C8A60000C0
:101A700008B50F4800F068FB0E4BD3F8A03023B137
:101A80000D4800F061FB012008BD4FF0A040FFF7BA
:101A900061FAFFF79BFD00F07040B0F1704FF8D194
:101AA000044B0122C3F8A020FFF7A8FDECE700BF1C
:101AB000DCA60000600A0020ECA6000070B511480A
:101AC00000F042FB104BD3F8A030012B04D00F489C
:101AD00000F03AFB012070BD0020FFF73BFAFFF752
:101AE00075FD10F0704FFAD1074CD4F89860D4F817
:101AF000AC50FEF7EBFFC4F89860C4F8AC50FFF7A9
:101B00007DFDE8E700A70000600A002010A70000A4
:101B100010B51D4800F018FB1C4BD3F8A0300BB9D2
:101B2000012010BDFFF7D8FA0020FFF7EFFA0446B6
:101B3000164BD3F898309BB10020FFF7DDF8600812
:101B400000F0060040F001000021FFF701F9FFF767
:101B500093FA01460020FFF781FBFFF74FFDE0E716
:101B600080F00400C0F38000C4F3C0034340600071
:101B700000F0180040EA431040F08500FFF784F9B8
:101B8000FFF764F90146E5E728A70000600A002096
:101B900010B51F4800F0D8FA1E4BD3F8A0300BB98F
:101BA000012010BDFFF798FA0020FFF7AFFA0446B6
:101BB000C0F30310FFF7ACF9164BD3F898309BB184
:101BC0000120FFF799F8600800F0060040F00100DE
:101BD0000021FFF7BDF8FFF74FFA01460020FFF79D
:101BE0003DFBFFF70BFDDCE7E00880EA94004001D5
:101BF00000F02003600000F01800184340F0870058
:101C0000FFF742F9FFF722F9FFF736FA0146E5E759
:101C100034A70000600A002008B50020FFF778F91B
:101C20000A4BD3F898304BB10120FFF765F801203B
:101C30000021FFF78DF8FFF71FFA08BD8720FFF797
:101C400023F9FFF703F9FFF717FAF6E7600A002018
:101C500008B50A4BD3F898304BB10020FFF74CF889
:101C600001200021FFF774F8FFF706FA08BDA52050
:101C7000FFF70AF9FFF7EAF8F8E700BF600A00206B
:101C800008B50F20FFF744F90A4BD3F898304BB151
:101C90000120FFF731F807200021FFF759F8FFF77F
:101CA000EBF908BD9F20FFF7EFF8FFF7CFF8FFF73C
:101CB000E3F9F6E7600A002008B50F20FFF728F9DE
:101CC0000A4BD3F898304BB10120FFF715F80520E7
:101CD0000021FFF73DF8FFF7CFF908BDB720FFF768
:101CE000D3F8FFF7B3F8FFF7C7F9F6E7600A00206B
:101CF00010B50420FFF70CF90C4BD3F8983073B1F2
:101D00000020FEF7F9FF03200021FFF721F8FFF77D
:101D1000B3F904460020FFF7FBF8204610BD8D20E4
:101D2000FFF7B2F8FFF792F80446F3E7600A0020E5
:101D300008B50A4BD3F8983043B10020FEF7DCFF1A
:101D40004FF481700021FFF703F808BD8120FFF7F1
:101D50009BF82020FFF73EF8F7E700BF600A00205D
:101D600038B50546114341F00050FFF70DF92846FC
:101D7000FFF72EF9FFF748F9FFF77EF90446234BEA
:101D8000D3F898306BB9214BD3F8AC30012B2AD063
:101D9000012B37D8224629461D4800F067F9204616
:101DA00038BDFFF713FC10F0200F05D0174AD2F80A
:101DB000AC300133C2F8AC30144BD3F8AC30012B4B
:101DC000E6D1124BD3F898306BB1124800F0BCF951
:101DD000FFF7AEFF0D4B012283F8B1200B4B002221
:101DE000C3F8AC20D6E7FFF7F1FB10F0200FF5D0D9
:101DF000084800F0A9F9FFF79BFF044B012283F884
:101E0000B120EBE7044800F09FF9C3E7600A002027
:101E1000BCA7000040A7000070A7000070B50446F2
:101E20004FF080450026C5F808646023C5F880356A
:101E30003220FEF7ABFEC5F880642046FEF7A6FE12
:101E400070BD08B50020FFF7E9FF10214EF29E702B
:101E5000FEF7A2FF0820FFF7E1FFA520FFF714F827
:101E6000FEF7F4FF0146034800F000F9FFF7C6FB58
:101E700008BD00BFE0A7000008B5094800F064F9FC
:101E8000084BD3F8A03023B1074800F05DF90120DA
:101E900008BD044B0022C3F89820FFF7D2FFF7E7F4
:101EA00000A80000600A002014A8000008B511482E
:101EB00000F04AF90821FF20FEF76EFF20210E48AE
:101EC000FEF76AFF20210D48FEF766FF20210C482F
:101ED000FEF762FF20210B48FEF75EFF0421002081
:101EE000FEF75AFF08211A20FEF756FF0220FFF7DF
:101EF00095FF08BD40A8000092F30962952D8586E4
:101F0000E9AFDDE3A20EBC1970470000044BC3F833
:101F1000FC058022C3F800260022C3F80026704783
:101F20000010004070B516463AB14C1EA51814F8C2
:101F3000010FFFF7EBFFAC42F9D1304670BD00BF97
:101F400008B50021044601F0A5FF044B1868C36BD7
:101F500003B19847204607F0B5FF00BF58A800001E
:101F600070B50D4E0D4D761BB61006D0002455F8F9
:101F7000043B01349847A642F9D1094E094D07F0B8
:101F8000A3FF761BB61006D0002455F8043B01349D
:101F90009847A642F9D170BD380A0020380A0020BF
:101FA000400A0020380A0020830730B548D0541E6C
:101FB000002A3FD00346CAB201E0013C3AD303F8FD
:101FC000012B9D07F9D1032C2DD9CDB245EA05256A
:101FD0000F2C45EA054536D9A4F1100222F00F0C6A
:101FE00003F1200EE6444FEA121C03F1100242E90D
:101FF000045542E9025510327245F8D10CF1010244
:1020000014F00C0F03EB021204F00F0C13D0ACF120
:10201000040323F003030433134442F8045B9342A4
:10202000FBD10CF003042CB1CAB21C4403F8012B01
:102030009C42FBD130BD64461346002CF4D1F9E735
:1020400003461446BFE71A46A446E0E70EB400B5BF
:1020500082B003AB53F8042B8168019300F0AAF817
:1020600002B05DF804EB03B0704700BF0FB400B5D9
:10207000074A83B004AB106853F8042B81680193BE
:1020800000F098F803B05DF804EB04B0704700BFAF
:102090008C000020826804F0CBBE00BF024B0146DA
:1020A0001868826804F0C4BE8C00002030B5054674
:1020B00089B008460C4600F04FF801210223214A5E
:1020C00004940692AA6B04AC05900844019407910D
:1020D000AC680293039022B3636E13F0010FB4F95E
:1020E0000C309AB201D1980525D5910406D4626EC0
:1020F00043F4005322F40052A3816266284601AAE9
:10210000214603F0F5FA636E002814BF4FF0FF3547
:102110000A25DA0702D4A3899B0506D5284609B00B
:1021200030BD284603F058F8D6E7A06D03F0B8FCA0
:10213000284609B030BDA06D03F0AAFCB4F90C30FC
:102140009AB2D2E790A20000024B01461868FFF74E
:10215000ADBF00BF8C00002020F0030110F0030091
:10216000C0F1000051F8043B00F1040C4FEACC0C24
:102170006FF000021CBF22FA0CF213434FF0010C67
:102180004CEA0C2C4CEA0C4CA3EB0C0222EA0302A6
:1021900012EACC1204BF51F8043B0430F4D0C2F16F
:1021A000000102EA0102B2FA82F2C2F11F0200EB60
:1021B000D20070472DE9F04FD5B01C4691460791EB
:1021C0000546099003F052FC02680E9410461792DF
:1021D000FFF7C2FF16901DB1AB6B002B00F01D8204
:1021E000079A536EDD0740F12D81B2F90C2091B2B0
:1021F0008F0409D4079B42F400529A8191B21A4687
:102200005B6E23F4005353660E0740F1C080079BBA
:102210001B69002B00F0BB8001F01A030A2B00F0B1
:10222000C48000242BAB224698464D46CDE9294474
:102230002893129400230024CDE914342B78CDE99F
:102240001922CDE91B2218920B92002B00F08F81EE
:10225000AA4604E01AF8013F002B00F0BB80252BB2
:10226000F8D1BAEB050640F0B9809AF80030002B9F
:1022700000F07D8100234FF0FF324FF02B09202426
:102280001F469AF8016008920AF1010A8DF883301E
:102290000A930AF1010AA6F120035A2B00F2E18009
:1022A000DFE813F00503DF00DF000003DF00DF00DD
:1022B000DF00DE02DF00DF006A006E02DF00550291
:1022C0007802DF0073025B005B005B005B005B0079
:1022D0005B005B005B005B00DF00DF00DF00DF0016
:1022E000DF00DF00DF006C01DF00EA01C4016C01E8
:1022F0006C016C01DF00DF00DF00DF00D002DF00D7
:10230000DF002302DF00DF00DF00F801DF009202C0
:10231000DF00DF008707DF00DF00DF00DF00DF0016
:10232000DF00DF00DF006C01DF00EA01C6016C01A5
:102330006C016C01B602C601BF01DF00C302DF0001
:102340005A022502A402BF01DF00F80172008407CF
:10235000DF00DF006507DF0072000022A6F1300316
:102360001AF8016B02EB820203EB4202A6F1300382
:10237000092BF5D90A928EE70E9B53F8042B002AFD
:102380000A920E93C0F2E0819AF8006081E7079DFF
:102390000998294601F00AFD002841F04D83A989DA
:1023A00001F01A030A2B7FF43CAF079AB2F90E3002
:1023B000002BFFF636AF536ED80702D4890541F1E2
:1023C000488123464A460799099855B0BDE8F04F21
:1023D00001F0AABCBAEB050600F0C9802A9BC8E947
:1023E000005633442A93299B0133072B299305DC9C
:1023F00008F108080B9B33440B9336E707990998BB
:1024000028AA05F07DF880B90DF1AC08F2E707992C
:10241000099828AA05F074F8002800F099800D9B0F
:102420001BB11946099803F063F8079A536ED90750
:1024300040F1E88093895B0601F10A830B9855B05F
:10244000BDE8F08F079BB3F90C20900591B23FF5E2
:10245000CFAE1D46986D03F01BFBB5F90C2091B271
:10246000C6E6002E00F08380012300228DF8EC6088
:1024700006933BAD8DF883200C930D9208920F923A
:102480001392109217F0020302D0069902310691BE
:1024900017F0840B07D10A990698A1EB0009B9F14E
:1024A000000F00F390832A9C82B10122C8F8042017
:1024B000299A013401320DF18301072A2A942992C5
:1024C000C8F8001000F3D88308F108087BB1022394
:1024D000C8F80430299B0234013321AA072B2A941F
:1024E0002993C8F8002000F3D58308F10808BBF150
:1024F000800F00F08882089B0C9AA3EB020BBBF1C3
:10250000000F00F3CB82FB0500F11F820C9BC8F883
:1025100000501C44C8F80430299B2A940133072B2F
:10252000299300F3448308F10808780705D50A9B2E
:10253000069A9D1A002D00F3B983DDE90A23069956
:102540008A42ACBF9B185B180B93002C7FF45FAFE3
:10255000002329930D9B1BB10D99099802F0C8FF28
:1025600055460DF1AC082B78002B7FF471AE2A9BF9
:10257000002B41F010820023299356E70E9B07336E
:1025800023F00702F2E80234CDE91434DDE9143413
:1025900024F00044994618460E9221464FF0FF322F
:1025A000AB4B07F087FA002840F0188548462146D3
:1025B0004FF0FF32A64B07F05FFA002840F00E857F
:1025C000DDE914010022002307F04CFA002840F056
:1025D00065879DF88320002103209E4D9E4B27F0A8
:1025E00080070D910690472EC8BF1D4608910C909C
:1025F0000F9113911091002A3FF444AF069B0133D1
:1026000006933FE7079B9B899A053FF514AF079C0C
:10261000A06D03F045FAA3890DE7099802F0DCFDEF
:10262000DEE59AF8006047F0200732E647F0100731
:10263000BA060E9B40F16E84073323F007031A4657
:102640005B6852F8084B99460E92002BC0F26F84DB
:10265000089B013300F0FB8254EA090327F0800B4A
:1026600040F0F682089B002B40F0F7825F46002383
:1026700054AD08930C933DE1012000220E9B06907F
:1026800053F8041B3BAD8DF883208DF8EC100E93AE
:102690000C90F2E64FF000090E9C089B54F8045B86
:1026A0008DF88390002D00F0A1855A1C00F0A586BE
:1026B0001A464946284603F041FD0D90002801F0D6
:1026C00050810D9B9DF883205B1B0C9323EAE373E1
:1026D000CDF820900E940693CDF83490CDF83C9030
:1026E000CDF84C90CDF8409085E747F0100717F0F3
:1026F000200900F0F2830E9B073323F00703D3F881
:10270000049053F8084B0E93002327F4806B0022AB
:102710008DF88320089A511C00F0D48054EA0901F6
:102720002BF0800740F0CD80002A40F00486002B7B
:102730009DD11BF001030C9300F0308430230DF287
:102740004F158DF84F31D5E00A9B5B420A939AF8FA
:10275000006047F004079CE5BD0600F1FD84FC061F
:1027600000F1EE85780600F1B286B90540F1E88502
:102770000E9B0B9953F8042B554611700E93F2E6FD
:102780009AF800608DF8839083E59AF8006047F02E
:1027900080077EE5524612F8016B2A2E01F08D82E9
:1027A000A6F13003092B924698BF002201F2E58082
:1027B0001AF8016B02EB820203EB4202A6F130032E
:1027C000092BF5D9089266E547F0100B1BF020099C
:1027D00000F091830E9B073323F007031A4652F84B
:1027E000084BD3F804900E92012390E7302278260C
:1027F0000E9B8DF8842053F8044B184A0E934FF02B
:102800000009022347F0020B8DF8856018927EE7DD
:102810009AF80060682E03BF9AF8016047F40077C9
:102820000AF1010A47F0400733E59AF800606C2E80
:1028300003BF9AF8016047F020070AF1010A47F048
:10284000100726E59AF8006047F0080721E500BF69
:10285000FFFFEF7F5CA8000060A800006CA80000EC
:10286000099E304603F002F9436818461B93FFF7B0
:1028700073FC034630461C931E4603F0F7F883684A
:102880001993002E3FF480AD199B002B3FF47CADD3
:10289000199B1B78002B3FF477AD9AF8006047F442
:1028A0008067F6E49AF8006047F00107F1E49DF8CC
:1028B0008330002B7FF468AD9AF800608DF8834078
:1028C000E7E4BB46012B00F0C381022B54AD1FD1BE
:1028D000189A04F00F03D35C240944EA09744FEA00
:1028E000191905F8013D54EA0903F2D15F4654ABCA
:1028F0005B1B0C93089A0C9900238A42B8BF0A46C6
:102900000D9306920F939DF883201393109372E614
:1029100004F00703E40844EA49744FEAD909303364
:1029200054EA09012A4605F8013DF1D11BF0010FD7
:10293000DCD0302BDAD03023023A05F8013C54AB1E
:102940009B1A5F4615460C93D4E7652E40F3E98049
:10295000DDE914010022002307F07AF8002800F0D6
:10296000E1810123C8F80430299BC04A01330134B6
:10297000072B2A942993C8F8002000F3BF8408F19C
:102980000808229B129A934280F2DC82169B179AC7
:102990001C44C8E90023299B2A940133072B29935F
:1029A00000F3178408F10808129B5D1E002D7FF7C5
:1029B000BCAD102D41F35D81DFF8B492224649464B
:1029C0001026B946299B0F46DDF824B0079C05E088
:1029D00008F10808103D102D40F39D84013310329A
:1029E000072BC8E90076CDE92932F1DD21465846AA
:1029F00028AA04F085FD00287FF411ADDDE9293215
:102A00000DF1AC08E6E70A9B069AA3EB020BBBF1BB
:102A1000000F7FF770ADBBF1100F41F35280DFF86C
:102A20005092204641464C46A8461023299A079DBD
:102A3000DDF8249006E0ABF1100BBBF1100F01F1B3
:102A4000080119DD01321030072AC1E90043CDE940
:102A50002920F0DD2946484628AA04F051FD002827
:102A60007FF4DDACDDE92920ABF1100BBBF1100FD9
:102A70004FF010032BA9E5DC4546A14688460446E5
:102A800001325C44072ACDE92924C8F80090C8F82F
:102A900004B000F3918308F108082CE5BBF1100F96
:102AA00040F3E384DFF8C891204641464C46A846EF
:102AB0001023299A079DDDF8249006E0ABF1100B56
:102AC000BBF1100F01F1080119DD01321030072AA6
:102AD000C1E90043CDE92920F0DD2946484628AA6E
:102AE00004F00EFD00287FF49AACDDE92920ABF15B
:102AF000100BBBF1100F4FF010032BA9E5DC45467E
:102B0000A1468846044601325C44072ACDE92924BF
:102B1000C8F80090C8F804B000F3D28108F10808A2
:102B2000F1E4129B012B40F382810123299E0134A1
:102B30001E44072EC8F800502A94C8F8043029967D
:102B400000F36C8308F10808169B0136179A1C44A1
:102B5000072EC8E90023CDE9296400F36C8308F14E
:102B600008080022DDE91401002306F071FF0028A7
:102B700040F07A81129B0136013B01351C44072E3F
:102B8000C8F800502996C8F804302A9400F35F81F1
:102B900008F108081A9B01361C44C8F80430072EB7
:102BA00024ABCDE92964C8F800307FF7BCAC0799A5
:102BB000099828AA04F0A4FC00287FF430AC2A9CD1
:102BC0000DF1AC08B1E4B9F1100F40F3C686DDE9B0
:102BD00029214046CDE91D36B84610244F46079EB0
:102BE000A946099D04E0103F102F00F1080016DDF2
:102BF0000132204B1031072AC0E90034CDE92921E8
:102C0000F1DD3146284628AA04F07AFC00287FF43A
:102C100006ACDDE92921103F102F2BA8E8DC4D463A
:102C2000DDE91D36B9464746804609EB010401320D
:102C30001049072ACDE92924C8F80490C8F80010E3
:102C400000F340839DF8832008F108082CE4BB467C
:102C50000A2C79F1000380F0FB82012330345F46B7
:102C60008DF84F410C930DF24F1543E69CA80000E0
:102C7000B0A80000A0A800000799099828AA1D93F1
:102C800004F03EFC00287FF4CAAB2A9C1D9B0DF18A
:102C9000AC081BE40799099828AA04F031FC002825
:102CA0007FF4BDAB2A9C0DF1AC0820E4102D40F35D
:102CB000BE861026299B099FDDF81C9004E0103D7C
:102CC000102D08F1080817DD0133BA4A1034072B1C
:102CD000C8E90026CDE92934F1DD4946384628AA5D
:102CE00004F00EFC00287FF49AABDDE92934103D96
:102CF000102D0DF1AC08E7DC0133AE4A2C44072B54
:102D0000CDE92934C8F80450C8F800207FF715AC85
:102D10000799099828AA04F0F3FB00287FF47FABF9
:102D20002A9C0AE42299002940F31081DDF84090A2
:102D3000129B9945A8BF9946B9F1000F0BDD299B5D
:102D40004C440133072BC8E900592A94299300F316
:102D5000818508F10808109EB9F1000FA8BFA6EB05
:102D60000906002E00F3F582DDF840B07905AB448A
:102D700000F1AC84229B129A934202DBFA0740F1E5
:102D80009283169A17991444C8E90012299A2A9432
:102D90000132072A299200F3A88508F10808129A3F
:102DA000AE18A6EB0B06D51AAE42A8BF2E46002ED3
:102DB0000DDD299B34440133072BC8F800B0C8F857
:102DC00004602A94299300F3FC8508F10808002E7A
:102DD000A8BFAD1B002D7FF7A8AB102D40F349878E
:102DE000DFF8D491224649461026B946299B0F4662
:102DF000DDF824B0079C05E008F10808103D102D0F
:102E000040F3898201331032072BC8E90076CDE9FF
:102E10002932F1DD2146584628AA04F071FB00282A
:102E20007FF4FDAADDE929320DF1AC08E6E7FE07E3
:102E30003FF57BAE0123299E01341E44072EC8F8BE
:102E400000502A94C8F8043029967FF7A1AE07995C
:102E5000099828AA04F054FB00287FF4E0AADDE9D1
:102E600029640DF1AC0895E6129B5D1E002D7FF7DD
:102E700091AE102D40F31987224608974FF0100BA2
:102E8000DFF83491099C079F05E008F10808103D20
:102E9000102D40F3C78201361032072EC8E9009B7F
:102EA000CDE92962F1DD3946204628AA04F028FB45
:102EB00000287FF4B4AADDE929620DF1AC08E6E749
:102EC0000799099828AA04F01BFB00287FF4A7AAF9
:102ED0002A9C0DF1AC08FFF716BB17F0100377D151
:102EE00017F0400200F0AC820E9A994652F8044B5B
:102EF0000E92A4B208E41BF010030E9A54D11BF0FA
:102F000040014DD052F8044B99460E920123A4B2D1
:102F1000FFF7FDBB53F8044B0E93FB0653D47D061D
:102F20004ED544F3C0394B4624B2FFF78EBB2D2358
:102F300064428DF88330BB464FF0010369EB4909C9
:102F4000FFF7E8BBF8077FF5F0AA1FE50123C8F8F3
:102F50000430299B194A01330134072B2A94299301
:102F6000C8F8002000F3688408F10808002940F040
:102F70002582129A07F0010313433FF4D6AA169B49
:102F80001799E218C8E90013299B2A920133072BED
:102F9000299300F3508308F1080820E254ADA9E416
:102FA0001BF4007940F0A08252F8044B01230E92EA
:102FB000FFF7ADBBA0A80000B0A800009CA80000CF
:102FC000B80500F179824FEAE4794B46FFF73DBB43
:102FD0000E9B53F8044B0E93FFF796BBDDE91401EB
:102FE00002460B4606F066FD002840F0F785612E8C
:102FF00000F06C85412E00F07F82089B013300F0C9
:10300000948526F02003472B069300F07B85DDE9AD
:10301000141247F480730F931346002BC0F2F4850B
:103020000C9300238B461D930D93069B462B00F0BB
:103030002B84452B00F0148508990C9B01910221EB
:10304000009126A9049123A9039122A95A4609981F
:10305000029101F01DF8069B0546472B40F044867F
:1030600017F0010FB9460F9F40F0F784269B5B1BBA
:103070001293069B472B00F0F182069B462B00F033
:103080004284229B1093109B069A013B412A229373
:1030900000F08A850021F2B2002B8DF89020B6BF97
:1030A0002D222B22109B8DF89120B8BFC3F1010374
:1030B000092B40F381850DF19F0C6246BA4F1C46E7
:1030C000104687FB0312D917C1EBA20101EB810265
:1030D000A3EB42023032632C00F8012C0B4600F1C6
:1030E000FF32ECDC3033811EDBB28C4502F8013C50
:1030F00040F2FF850DF1920101E012F8013B944589
:1031000001F8013BF9D10DF1A1030DF192021B1A57
:10311000134424AA9B1A1A93129B1A9A012B1A443D
:103120000C9240F39E850C9B169A13440C9300233B
:103130000C9A29F4806722EAE27247F480770F93B1
:103140000692139310931D9B002B40F0B0829DF8C4
:1031500083200893FFF74FBA0E9B0B9853F8041B7C
:10316000C2175546C1E900020E93FFF7FCB98F4B19
:10317000189317F0200949D00E9B073323F007035B
:10318000D3F8049053F8084B0E93F80709D554EA86
:10319000090306D030238DF8856047F002078DF8CB
:1031A0008430022327F4806BFFF7B1BABB46FFF7E8
:1031B0000DBB7F4B1893DCE70799099828AA04F008
:1031C0009FF900287FF42BA92A9C0DF1AC08FFF78A
:1031D00092B90799099828AA04F092F900287FF477
:1031E0001EA92A9C0DF1AC08FFF7DEBB062B294671
:1031F00028BF06232A4608950D9506936D4D0E941B
:103200000C930F9113911091FFF7F5B917F010037C
:1032100069D00E9B53F8044B0E93B6E707990998B3
:1032200028AA04F06DF900287FF4F9A8DDE92964E3
:103230000DF1AC0888E40799099828AA04F060F910
:1032400000287FF4ECA8DDE929640DF1AC0888E4DE
:1032500000230BF48062CDE90CA8069692461E4628
:10326000DDF8648054AF0CE00023204649460A2272
:1032700006F05EFC0A2C79F100031BD30446894654
:103280002F4620460A220023494606F051FC3032E0
:103290007D1E013607F8012CBAF1000FE4D098F832
:1032A00000309E42E0D1FF2EDED00A2C79F10003DF
:1032B00080F0E080CDF864801296DDE90CA8069ECF
:1032C000FFF714BB0799099828AA1D9304F018F971
:1032D00000287FF4A4A89DF883202A9C1D9B0DF153
:1032E000AC08FFF7E1B817F0400200F0B4800E9A86
:1032F000994652F8044B0E92A4B246E707990998F2
:1033000028AA04F0FDF800287FF489A82A9C0DF172
:10331000AC08FFF736BB14463A464F469146013398
:103320002C44072BC8F80090C8F80450CDE9293484
:103330007FF7F9A83BE4012BBB467FF4C6AA8CE4D7
:103340000E9B0B9953F8042B554611600E93FFF713
:103350000AB9102E40F3AD84DFF85C902146484650
:103360004246B946A8464FF0100B0746299B099CD8
:10337000079D04E00832103E102E40F348820133CE
:103380001031072BC2E9007BCDE92931F2DD294656
:10339000204628AA04F0B4F800287FF440A8DDE90C
:1033A00029312BAAE7E700BF676666666CA80000B4
:1033B00080A8000094A80000B0A80000169B1798F1
:1033C000E218C8E90003299B2A920133072B2993AD
:1033D00000F3318108F108080029C0F20283129934
:1033E00001338C18072BCDE92934C8F80050C8F8F0
:1033F00004107FF798A8FFF7DABB2846CDF8209095
:103400000E94FEF7A9FE20EAE073CDE90C099DF8C1
:103410008320CDF83C90CDF84C90CDF840900693A9
:10342000FFF7E9B81446089F01362C44072ECDE972
:103430002964C8F80090C8F804507FF7A9AB06E5E6
:1034400017F400790E9B3DD053F8044B91460E9330
:10345000E4B2FFF759B917F400790E9B40D053F846
:10346000044B91460E93E4B28FE6299ADFF84C9212
:10347000FFF749BB1C9B1B99ED1A1A46284603F01F
:10348000CFFF98F801300BB108F1010820464946FA
:103490000A220023002606F04BFBEFE62D228DF8D2
:1034A0008320FFF798B8129AAE18A6EB0B06D51A30
:1034B000AE42A8BF2E468AE444F3C0194B4664B21C
:1034C000FFF7C3B853F8044B0E93FFF71DB90E9BDB
:1034D0000B9953F8042B554611800E93FFF743B810
:1034E00053F8044B0E9350E652F8044B89460123DF
:1034F0000E92E4B2FFF70BB930238DF884305823D5
:103500008DF88530089B47F00204632B00F3E382BB
:1035100000233BAD0D9347F481730F93DDE9141243
:103520001346002B2746C0F240820C9300238B46A3
:103530001D9326F020030693612E00F01783412E81
:103540007FF473AD22AA58460C9903F0D7FE0022EF
:103550004FF07F5306F014F802460B46CDE91023D6
:103560000022002306F074FA08B101232293544B81
:103570000C93089BCDE912A6CDE91E78DDE9106712
:10358000AB46DDF830A003F1FF39109506E00022CC
:10359000002309F1FF3906F05BFAE8B90022494B34
:1035A0003046394605F0ECFF0F46064606F098FA1D
:1035B000044605F07BFF0B4602463946304605F0CF
:1035C00027FE1AF80430B9F1FF3FD8464D460646AB
:1035D0000F460BF8013BDAD13046394600223A4B10
:1035E000A946DDF848A0109DCDF84880CDE910012E
:1035F000DDF87C80139E1E9F06F052FA002840F0F2
:103600004482DDE9100100222F4B06F021FA10B1AF
:10361000E10700F13A824B46002B06DB30220133F2
:103620005B440BF8012B5B45FBD1ABEB0503B946C3
:1036300012930F9F1DE50799099828AA03F060FFD0
:1036400000287EF4ECAEDDE9293222990DF1AC08B8
:10365000C2E6906D02F024FAFEF7B3BE229BDA1C9C
:10366000109302DB089A934204DD023E26F0200309
:10367000069308E5109B129A9342C0F2828119F0DA
:10368000010F00F0A882169A13440C9319F4806F6E
:1036900000F09082109B6726002B00F346810C9B64
:1036A00023EAE373069300230F9313934BE52D2234
:1036B00000238DF883200893FEF7A0BFB0A8000078
:1036C00080A80000000030400000E03F129B42460E
:1036D000DDF84C80EB185E460893CDF830A01097CB
:1036E0002146199FDDF87090DDF824A0DDF81CB0AC
:1036F0000F9B1395B8F1000F2ED0002B6CD1013F1A
:1037000008F1FF381B9B4944C2E90039299B2A91E3
:103710000133072B299363DC0832089B38789B1B05
:103720008342A8BF0346002B1C460ADD2998194492
:1037300001300728C2E900632A9129905BDC3878C0
:103740000832002CB4BF0546051B002D15DC0644CD
:103750000F9BB8F1000FD0D1002B3DD1DDE9123520
:10376000EB189E42B34619970C46904628BF9B46DD
:10377000DDF830A0109FFFF7FDBA102D40F36F82E7
:103780001024299804E0103D102D02F1080216DDE6
:103790000130A84B10310728C2E90034CDE92901D6
:1037A000F1DD5946504628AA03F0AAFE00287EF40F
:1037B00036AEDDE92901103D102D2BAAE8DC0130E1
:1037C0009C4B29440728CDE92901556013604EDC44
:1037D000387808320644BBE70F9B013B0F9391E713
:1037E0005946504628AA03F08BFE00287EF417AEF7
:1037F0002A992BAA91E75946504628AA03F080FE41
:1038000000287EF40CAE38782A992BAA99E7454611
:1038100090463A460C464F46914601333444072BB6
:10382000CDE92934C8F80090C8F8046000F35D8140
:1038300008F10808FFF798BA0799099828AA03F031
:103840005FFE00287EF4EBAD22992A9C0DF1AC08B6
:10385000FFF78CBB0799099828AA03F051FE0028AE
:103860007EF4DDAD2A9C0DF1AC08FFF774BA594621
:10387000504628AA03F044FE00287EF4D0AD3878E4
:103880002A992BAA064463E708990C9B019103210E
:10389000009126A9049123A9039122A95A460998C7
:1038A000029100F0F5FB03780546302B00F0C08153
:1038B000229B089AB94613440F9FEC1858460022E1
:1038C00000230C9906F0C4F810B12346FFF7CFBBD4
:1038D000269BA342BFF4CBAB30215A1C2692197011
:1038E000269B9C42F9D8FFF7C2BB0799099828AAE2
:1038F00003F006FE00287EF492AD229B2A9C0DF177
:10390000AC08FFF74CBA229A002A109240F3B98112
:10391000089909F001030B4340F040816626109B93
:103920000C9319F4806F3FF4BAAE19990B78FF2B02
:1039300000F0D6810024109A204604E001300131C5
:10394000FF2B00F06481934280F26181D21A4B78A0
:10395000002BF3D10B780134F2E7DDE92921FFF7E1
:1039600064B9089B9DF883200E9406930C930890ED
:103970000F9013901090FEF73EBE00230893FEF7C1
:103980008ABC129B169A9A18109B0C92002B40F33B
:103990005D816726C5E70799099828AA03F0B0FD5D
:1039A00000283EF4E8ADFEF740BD26F02003069364
:1039B0002D22DDE914349B4604F100431D920C9343
:1039C000BAE50799099828AA03F09AFD00287EF421
:1039D00026AD229D129B2A9C0DF1AC085D1BFFF7C2
:1039E000F6B94E42103180F2818141461024A8463A
:1039F000DFF84090DDF824B0079D04E00831103E68
:103A0000102E40F3998001331032072BC1E9009446
:103A1000CDE92932F2DD2946584628AA03F070FD87
:103A200000287EF4FCACDDE929322BA9E7E7299BCD
:103A3000FFF762B9B0A80000079B5B6EDD0707D4F3
:103A4000079B9B899C0503D4079B986D02F028F87F
:103A50004FF0FF330B93FEF7F1BC089BEC182DE7FA
:103A60000221009108995A464C1C26A9049123A9C9
:103A7000039122A90C9B09980194029100F008FB84
:103A80000546B9462C440F9F18E7129B26930C9BC2
:103A90001BF8012CD97B5B468A4209D1302003F800
:103AA000010C269B5A1E269213F8012C9142F6D047
:103AB000392A0BBF0C9A0132927AD2B203F8012C48
:103AC000B3E5299ADFF83492FEF7DABF30238DF898
:103AD0008430782314E50998591C02F083F80546D0
:103AE000002800F0F6800D9015E50799099828AA9E
:103AF00003F006FD00287EF492AC2A9C0DF1AC0880
:103B0000FFF732B9089B002B08BF0123089347F445
:103B100080730F93159B002BC0F2A980DDF850B085
:103B20001D900C930D90FFF787BA0623089326F09B
:103B300020030693FFF76BBA4546884601333244AB
:103B4000072BCDE92932C8F80090C8F804607FF748
:103B500022AA0799099828AA03F0D2FC00287EF42B
:103B60005EACDDE929320DF1AC0838E422AA5846F2
:103B70000C9903F0C3FB00224FF07F5305F000FDCA
:103B800002460B46CDE910230022002305F060FF1A
:103B900008B1012322935A4B0C93EAE4169B662644
:103BA000D31819440C91BCE606F10F020121D2B2E0
:103BB000FFF772BA672672E500295FD130228DF8CF
:103BC00092200DF19302303302F8013B24ABD31A5B
:103BD0001A93FFF7A1BA109B0C9357E5159B03208E
:103BE000002BB8BF2D224FF00003A8BF9DF8832003
:103BF00019460D93434D444BB8BF8DF8832027F0F1
:103C000080070690FEF7EFBC00230D93D0E61991D4
:103C1000109213900F940F9A139B1C9913440C9AB3
:103C200001FB03230C9323EAE3730693FFF78BBA9C
:103C30005846002200230C9905F00AFF00287FF463
:103C400037AE089BC3F10103229332E6C3F10103AF
:103C50001A4422EAE27367260C92069323E5299818
:103C6000ADE519F0010F3FF462AAFFF75CBA0D90C1
:103C70009EE6299BDFF88490FFF751BB0DF192027D
:103C8000A1E7089A09F0010959EA020304D10123C6
:103C9000662606930C9306E5169B662601331A44A6
:103CA00022EAE2730C920693FDE4DFF85090FFF7EE
:103CB000BBBB299BDFF84490AFE50E9B9AF80160EF
:103CC000924653F8042B0E9342EAE2730893FEF7F0
:103CD000E0BA079A938943F040039381FEF7A5BBAE
:103CE00000230F93139396E7089CCAE6DFF80C9025
:103CF00024E702231A93FFF70FBA00BFB0A8000011
:103D00006CA8000064A8000068A800008C4600B5FC
:103D100086461346034A714610685DF804EB624616
:103D2000FEF748BA8C000020F0B54FF4806C1546C1
:103D3000002406461F46ADF26C4D1AAB0093049367
:103D40008B8916A823F00203ADF80C304B6E069455
:103D50001993CB890C46ADF80E30CB69CDF808C06D
:103D600007934B6ACDF814C0099301F089FE2A46E7
:103D70003B4669463046FEF71DFA051E07DB6946DD
:103D8000304601F07DF9002818BF4FF0FF35BDF82F
:103D90000C305B0603D5A38943F04003A38116983A
:103DA00001F072FE28460DF26C4DF0BD38B5334B74
:103DB00005461B680C460BB19A6B12B3B4F90C3074
:103DC00018079AB225D5216900292DD012F00100DB
:103DD00007D000256069A5604042A06139B100208C
:103DE00038BD950758BF6069A0600029F7D1120659
:103DF00058BF0846F4D543F040034FF0FF30A3818D
:103E000038BD184601F0E8F9B4F90C3018079AB239
:103E1000D9D4D1062AD5520714D4216943F0080316
:103E2000A3819AB20029D1D102F42070B0F5007FAD
:103E3000CCD02146284601F035FEB4F90C3021697A
:103E40009AB2C3E7216B51B104F14002914204D010
:103E5000284601F04DFBB4F90C3000222263002209
:103E6000216923F02403C4E90012D7E7092243F0B3
:103E700040032A604FF0FF30A38138BD8C00002042
:103E8000024B13B1024800F067B870470000000011
:103E9000255400002DE9F04F83462D4B83B0186860
:103EA0000F46CDF804B001F0F3FD2A4BD3F80080A3
:103EB000D8F848619EB14FF001094FF0000A7468CC
:103EC000651E0CD4013406EB84047FB1D4F80031B4
:103ED000BB420BD0013D6B1CA4F10404F5D11C4B7B
:103EE000186803B0BDE8F04F01F0DABD73682268CE
:103EF000013BAB420CBF7560C4F800A0002AE9D0BA
:103F0000D6F8880109FA05F10142D6F804B00BD1C0
:103F1000904772685A4512D1D8F84831B342D9D087
:103F20001E46002ECBD1DAE7D6F88C0101420BD128
:103F30000198D4F88010904772685A45ECD0D8F8B0
:103F40004861002EBBD1CAE7D4F880009047E0E773
:103F5000B804002058A80000002301461A4618465D
:103F600004F06ABA2DE9F04F03690C6985B0A342E9
:103F7000C0F28980013C01F11405A30000F114088E
:103F8000019355F8243058F8242001338A469A4288
:103F900008EB84018146B2FBF3F605EB840702913E
:103FA0003AD30021AE4640460A46A34603955EF842
:103FB000045B0468ABB206FB03132D0C190C06FB63
:103FC00005119BB2D21A1FFA84FC94448AB2C2EB48
:103FD000144202EB2C421FFA8CFC4CEA0243774558
:103FE00040F8043B4FEA11414FEA2242DFD2019BE5
:103FF0005C4658F80330039D73B9029B043B984517
:1040000004D307E0984504F1FF3403D253F80429A0
:10401000002AF7D0C9F810405146484602F0AAFCE1
:1040200000282CDB40460023013655F8041BD0F84D
:1040300000C08AB29A1A1FFA8CFE0B0C7244C3EBB2
:104040001C4303EB224392B242EA0342AF4240F8E0
:10405000042B4FEA2343E8D258F8242008EB8403CA
:104060006AB9043B984504D307E0984504F1FF344E
:1040700003D253F80429002AF7D0C9F8104030467B
:1040800005B0BDE8F08F002005B0BDE8F08F00BF9F
:104090002DE9F04F90469946016C99B00446CDE960
:1040A0000489259D41B10123426C93408B604A6095
:1040B00002F0B0F900232364B9F1000AB4BF012370
:1040C00000232B60764BBCBF2AF0004ACDF814A029
:1040D00033EA0A0300F0AA80DDE9042310461946FA
:1040E00000220023CDE90A0105F0B2FC074670B1B9
:1040F0000123249A1360269B002B00F0E682694876
:104100001860431E0393039819B0BDE8F08F16ABF7
:10411000019317AB00932046DDE90A2302F07AFDF4
:104120005FEA1A56054640F09780DDE916763E4470
:1041300006F23240202840F3B783C0F140000AFA6B
:1041400000FA06F2124028FA00F04AEA000005F0F0
:104150009DF90123013E0F93A1F1F8710022524B0A
:1041600005F056F848A3D3E9002305F009FA48A35F
:10417000D3E9002305F04EF880463046894605F025
:1041800095F945A3D3E9002305F0FAF902460B4659
:104190004046494605F03EF88046894605F0A0FCB9
:1041A0000022834600234046494605F05BFC002878
:1041B00040F07E82BBF1160F00F26D82DDE90A014C
:1041C0003A4B03EBCB03D3E9002305F04BFC00286B
:1041D00072D00023BE1B0E93731E0BF1FF3B0693A0
:1041E00000F1608200230993BBF1000F6BDA099B99
:1041F000CDF81CB0A3EB0B030993CBF100030D9397
:10420000229B4FF0000B092B66D8052B40F34A8305
:104210000026043B2293229B023B032B00F26C8678
:10422000DFE813F061045E045504380442F20F73B2
:10423000249ACAF3130A13605AEA08031AD1269B78
:10424000002B00F068861A4B03930833269A0398D4
:10425000136019B0BDE8F08FDDE90A12C2F3130351
:10426000084643F07F510F97A6F2FF36169F41F4A0
:10427000401173E7269B002B40F0EF830D4B039317
:1042800041E700BFAFF3008061436F63A787D23F70
:10429000B3C8608B288AC63FFB799F501344D33F35
:1042A0000000F07F9DA800000000F83F10AA000069
:1042B000C4A80000C0A80000BE1B731E069300F136
:1042C0008A840E900990069B5B44CDE9063B00234F
:1042D0000D93229B092B98D9002322934FF0FF3393
:1042E0000126089300230C9623930021089B616408
:1042F0001293204602F068F80390002800F004862C
:10430000039B2364089B0E2B00F21481002E00F007
:1043100011810799002940F36084AF4B01F00F022F
:1043200003EBC2030A46D3E900674FEA2118D1051F
:1043300040F11784DDE90A01A84B4FF0030AD3E9E5
:10434000082305F047FACDE9100108F00F08B8F18D
:10435000000F13D0DFF8849218F0010F09D0D9E9CB
:1043600000233046394605F00BF906460F460AF1A0
:10437000010A5FEA680809F10809EDD1DDE91001D9
:1043800032463B4605F026FA804689460E9B43B1ED
:10439000002240464946924B05F064FB002840F05D
:1043A0003585504605F082F842464B4605F0E8F860
:1043B0008C4B002204F02EFFA1F15073CDE91001C7
:1043C0001193089B002B00F09780079B1493089B88
:1043D00013930C9B002B00F0A984139A7E4B0020B2
:1043E00003EBC20353E902237F4905F0F3F9DDE94A
:1043F000102304F00DFFCDE910014946404605F0B9
:104400006FFB074605F052F802460B464046494608
:1044100004F0FEFEDDE91023039E303706F8017B31
:104420008046894605F01EFB002840F02E85CDF819
:1044300054B00027DDE910AB1095139D13942AE0CA
:104440000137AF4280F22E85504659460022674B15
:1044500005F096F80022654B82468B464046494659
:1044600005F08EF88946804605F03AFB044605F0D3
:104470001DF802460B464046494604F0C9FE30345A
:1044800052465B4606F8014B8046894605F0EAFA3B
:10449000002840F0F88442464B460020504904F082
:1044A000B7FE52465B4605F0DDFA0028C8D0DDE9CC
:1044B0001343109D039A079302E0964200F0CD84C7
:1044C000B24616F8013D392BF7D00133DBB2337019
:1044D000079B01330793C8E1504604F0E7FF4246CB
:1044E0004B4605F04DF83F4B002204F093FEA1F13E
:1044F0005073CDE9100111934046494600223C4BD0
:1045000004F086FEDDE910894B46424606460F461A
:1045100005F0C6FA8146002840F0AF84DDE91001BD
:10452000024601F100433046394605F09BFA002867
:1045300040F04883179B002BC0F28C80079A0E2A0C
:1045400000F38880244B03EBC203D3E900AB239B29
:10455000002B1BDA089B002B18DC40F03183002273
:10456000234B5046594605F00BF802460B46DDE951
:104570000A0105F081FADDF820904E46002800F08F
:10458000CA82239BDDF80C80DF43CCE25246DDE992
:104590000A785B463846414605F01CF905F0A0FA5A
:1045A0008146099004F082FF52465B4604F0E8FF22
:1045B000039E0B4602464146384604F029FE09F1A7
:1045C000300306F8013B089B012B00F05F83069443
:1045D00001271C4604952AE010AA0000E8A9000063
:1045E0000000F03F00001C400000E03F00002440BD
:1045F0000000144052465B464046494605F0EAF842
:1046000005F06EFA054604F051FF52465B4604F091
:10461000B7FF01370B4602464946404604F0F8FD15
:1046200005F13003A74206F8013B00F02C8300227D
:10463000AB4B04F0A5FF002200238046894605F01D
:1046400007FA0028D6D0049D069C079BB24601338A
:1046500007930AE10C9A002A3DD0229A012A40F3DE
:104660009F82089B03F1FF380D9B4345C0F2708287
:10467000A3EB0808089B002BC0F24083069A1A445B
:104680000692099A17461A4409920121204601F020
:10469000C3FF064623E00123BE1B0E93731E069341
:1046A0007FF5A0ADC6F101030993002306939BE5B6
:1046B000584604F0FBFE42464B4605F0C9F9002877
:1046C0007FF478AD0BF1FF3B74E5864B03930398C1
:1046D00019B0BDE8F08FDDF83480099F0C9E002FE3
:1046E0000CDD069900290B4608DDB942A8BF3B4600
:1046F000099AFF1AD21ACB1A099206930D9BE3B1BD
:104700000C9B002B00F06082B8F1000F10DD3146E9
:104710004246204602F05CF806462A4631462046CC
:1047200001F0A8FF0346294620461D4601F072FE0F
:104730000D9BB3EB080240F0DB820121204601F023
:104740006BFFBBF1000F814600F3B380229B012B6E
:1047500040F388814FF0000A0120BBF1000F40F0C8
:10476000B480069A104410F01F0000F09280C0F14F
:104770002003042B40F3D383099BC0F11C000344A6
:104780000244099307440692099B002B05DD294644
:104790001A46204602F078F80546069B002B05DDF8
:1047A00049461A46204602F06FF881460E9B002BC0
:1047B00040F03881089B002B40F31E810C9B002B9E
:1047C00040F09F80079B013307930127DDF80C80A1
:1047D000DDF820A007E0294600230A22204601F048
:1047E00023FE0546013749462846FFF7BBFB5745E0
:1047F00000F1300308F8013BEDDB089A0027002A9E
:10480000CCBF93464FF0010B039A934429460122F3
:104810002046049302F038F84946054602F0AAF80B
:10482000002840F3AB811BF8013C039A0BF1FF3BDE
:1048300004E05A4500F0AD811BF8013D392B0BF126
:10484000010AF6D001338BF800304946204601F0CA
:10485000E1FD56B12FB1B74203D03946204601F0F1
:10486000D9FD3146204601F0D5FD2946204601F00C
:10487000D1FD0023079A8AF80030249B1A60269BFA
:10488000002B3FF440AC0398C3F800A019B0BDE87A
:10489000F08F1C20099B074403440993069B0344A3
:1048A000069371E70126B6E4C0F1200008FA00F093
:1048B0004DE401465A46204601F08AFF229B81467C
:1048C000012B40F3B6814FF0000AD9F8103009EB04
:1048D0008303186901F054FEC0F1200041E700BFD6
:1048E000000024409CA80000314600230A222046F4
:1048F00001F09AFD129B0646002B40F3E982CDE9B8
:104900000783002F00F31D81BAF1000F40F0D98119
:10491000B046049B089903F00102039B0A921F46CC
:10492000013B1944229B08911343099349462846A9
:10493000FFF718FB31468346284602F01BF8424633
:1049400049468246204602F035F8C26801460BF11E
:104950003003002A43D104902846069302F00AF857
:10496000024604992046049201F054FD049A069BE5
:104970001AB90999002900F09B82BAF1000FC0F220
:10498000648122994AEA010A0A9951EA0A0100F06F
:104990005C81002A00F3B681089A07F1010A974268
:1049A000D3463B7000F0B481294600230A222046FA
:1049B00001F03AFD4645054631464FF000034FF001
:1049C0000A02204612D001F02FFD41460646002380
:1049D0000A22204601F028FD57468046A6E72046D9
:1049E000049301F017FD0122049BC6E701F01CFDB2
:1049F00057460646804699E7229B022B7ADC0C9BA1
:104A0000002B7FF47EAF079B49460133284607936E
:104A1000FFF7A8FADDF80CB000F1300300270BF81F
:104A2000013BF3E64946284601F0A4FF0028BFF603
:104A3000C1AE294600230A22204601F0F5FC079B5F
:104A4000054603F1FF380C9B002B7FF44DAF129B02
:104A5000002B40F334820893B7E6B04B0393033343
:104A6000FFF7F4BBDDE9041200297FF473AEC2F353
:104A70001303002B7FF46EAEA94B1340002B00F004
:104A80000082099B4FF0010A01330993069B013311
:104A9000069361E601230C93239B079A1344129318
:104AA0000133012B1F46B8BF012708930021172FA0
:104AB00061647FF71EAC012204235B0003F1140044
:104AC000B842114602F10102F7D9616411E40123F1
:104AD0000C93239B002B4CDD1F4612930893E5E7B4
:104AE00000230C93D8E700230C93F2E7129BCDF838
:104AF0001C800893089B002B7FF443AD4946052298
:104B0000204601F091FC81462846494601F032FFDB
:104B100000287FF736AD31230398079F804600F8C1
:104B2000013B013703904946204601F073FC7B1C92
:104B3000DDF80CA00793CDF80C80002E7FF491AE29
:104B400093E631463A46204601F09EFE0646DBE6F5
:104B50000D9BCDF83480A8EB03039B444FF0000875
:104B600088E5DDE90A234FF0020ACDE91023FFF7BB
:104B7000EEBB012323930893FFF7B7BB03D1049B3C
:104B8000D8073FF550AEDA461BF8013D302BFAD07E
:104B90005BE6079B039A013307933123137054E6B6
:104BA0000F9A002A00F0288103F23343069ADDF8B9
:104BB00034801A440692099A17461A44099264E509
:104BC0004FF000094E46DCE4294620460D9A01F0DC
:104BD000FFFD0546B1E50E9064E500F01181DDE9C9
:104BE0000A01079A4F4B564206F00F0203EBC2032D
:104BF000D3E9002304F0C4FC36118046894600F056
:104C0000708100234FF0020A474FF20706D5D7E91B
:104C1000002304F0B5FC01230AF1010A761007F124
:104C20000807F2D1002B3FF4B1AB80468946FFF76D
:104C3000ADBB049B002B7FF446AEDDE90412C2F34A
:104C40001303002B3FF418AF3DE6002A12DD29467E
:104C500001222046049301F017FE4946054601F063
:104C600089FE0028049B40F31781392B00F0FB805C
:104C70000BF13103BA46079A37460132464607928E
:104C80000AF8013BE1E50995069C049D02460B46A6
:104C900004F0C0FA52465B468046894604F000FFA5
:104CA00060B952465B464046494604F0D1FE0028B2
:104CB0003FF4CBAC099BD9077FF5C7AC039AFFF74C
:104CC000FFBB2046716801F07FFB0746002800F01B
:104CD0000C81336906F10C0102339A000C3001F0AB
:104CE00075FA39460122204601F0CEFD804610E6D5
:104CF0002946204601F06CFD05461EE5DDE9082346
:104D00009F1AC2E4392B00F0AE80BA460133B2E7F5
:104D1000079A374601324646079277E5C0A8000059
:104D20000000F07F10AA0000E8A90000DDF84CA008
:104D30008349DDE9102301EBCA0151E9020104F0C6
:104D40001FFCCDE910014946404604F0C9FE064665
:104D500004F0ACFB0B4602464946404604F058FAC4
:104D60005346039F3036012B8046894607F8016B76
:104D700000F0AC80139E039B1E440022714B404602
:104D8000494604F0FDFB8946804604F0A9FE8246B0
:104D900004F08CFB02460B464046494604F038FAC4
:104DA0000AF1300A07F801ABB74280468946E4D1E0
:104DB000DDE910010022644B04F02CFA42464B4618
:104DC00004F050FE002862D1DDE9102300205E4986
:104DD00004F01EFA42464B4604F062FE00283FF4FF
:104DE000A9AB16F8013CB246302B06F1FF36F8D0DD
:104DF000149B0133079338E5169BC3F13603D5E6C0
:104E00004FF0020ADDE90A89FFF7C0BA089B002BC0
:104E10003FF462AB129B002B7FF78CAB1393079B85
:104E20000022013B404649461493464B04F0A8FB40
:104E3000804689460AF1010004F038FB42464B46A1
:104E400004F09EFB414B002204F0E4F9A1F1507301
:104E5000CDE910011193FFF7BCBA079B013307930B
:104E60003123FFF734BB079BBB460133079339233C
:104E700037460BF8013B4646D7E44FF000094E4653
:104E800049E69A4668E4109D139CB246B0E7149B2D
:104E9000039A0793FFF714BB7FF4ECAEDA077FF5B4
:104EA000E9AEE2E6DDF854B0109D139CFFF742BB7B
:104EB000392BD8D0BAF1000F3FF7DAAEDAE6229BF1
:104EC000022B3FF713AECDF81C809CE53E466FE702
:104ED000229B022B3FF70AAE129BCDF81C80089351
:104EE0000FE54FF0020AFFF751BA024640F2EA21FD
:104EF000174B184803F0E6FA002620463146666450
:104F000001F062FA039078B900224FF4D571104B8A
:104F1000104803F0D7FA104B0393FFF7F4B83FF4AF
:104F200033ACC0F13C00B5E4039B012223644FF095
:104F3000FF33239612930C920893FFF7FBBA00BF3E
:104F400010AA0000000024400000E03F00001C40C8
:104F5000D0A80000E4A80000C4A80000B1F90C200B
:104F6000F8B50C461107074643D4636842F4006263
:104F7000002BA2815BDDA56A002D56D000233E6880
:104F80003B6093B212F4805255D101233846E16957
:104F9000A847421C65D0A389A56A5B0705D563684D
:104FA000C01A236B0BB1E36BC01A0246E169002300
:104FB0003846A847411C40D13B68002B3DD01D2BF3
:104FC00001D0162B54D10022A38923F40063A381BE
:104FD0002369C4E90032216B3E6031B304F1400320
:104FE000994202D0384600F083FA00231846236322
:104FF000F8BD2669CEB193B29A0718BF0023256881
:1050000008BF63692660AD1BA3600CE02B463246E7
:10501000D4F824C03846E169E047B0F1000CA5EBB4
:105020000C05664416DD002DF0DC0020F8BDE36BB6
:10503000002BA0DCF9E7206DAFE70022B4F90C30BB
:10504000626023F400632269A381DB042260C2D57D
:105050002065C0E7A3894FF0FF3043F04003A381F0
:10506000F8BD3B68002B96D01D2B06D0162B04D024
:10507000A38943F04003A381F8BD00203E60F8BD42
:1050800038B505460C4608B1836BA3B1B4F90C00E2
:10509000B8B1636EDB0701D4810515D528462146DA
:1050A000FFF75CFF636E0546DA0702D4A3899B0510
:1050B0000ED5284638BD00F08FF8B4F90C00002852
:1050C000E7D10546284638BDA06D00F0E1FCE5E7D4
:1050D000A06D00F0E5FC284638BD00BF38B548B3E8
:1050E000184B04461D680DB1AB6BBBB1B4F90C0095
:1050F00088B1636EDB0701D4810513D528462146AC
:10510000FFF72CFF636E0546DA0702D4A3899B05DF
:105110000CD5284638BD0546284638BD284600F03F
:105120005BF8E3E7A06D00F0B3FCE7E7A06D00F0EB
:10513000B7FCEEE7044B05491868BDE8384000F0BD
:105140006FBC00BF8C00002058A8000081500000F8
:10515000014900F065BC00BF9585000008B5436EAD
:10516000DA0702D483899B0501D5002008BD806D34
:1051700000F08EFC002008BD08B5436EDA0702D4AB
:1051800083899B0501D5002008BD806D00F088FC57
:10519000002008BD682270B54D1E02FB05F50E46C5
:1051A00005F1740100F01EFD044640B100210C30F1
:1051B000C4E9016005F168022160FCF7F5FE2046B4
:1051C00070BD00BF024B0349186800F029BC00BF46
:1051D00058A80000958500002DE9F047824639481F
:1051E00000F056FCDAF83840002C66D10423032284
:1051F0003549DAF80450CAF83C10DFF8D090DFF8EF
:10520000D080344F344E0AF53B71CAE9B921CAF84F
:10521000E0422146EB600822C5E90044C5E90444A8
:105220006C66AC60AC6105F15C00FCF7BDFEC5E9E5
:105230000759C5E90987EE6205F1580000F020FC26
:10524000DAF80850254B2146EB600822C5E90044F6
:10525000C5E904446C66AC60AC6105F15C00FCF728
:10526000A3FEC5E90759C5E90987EE6205F15800B3
:1052700000F006FCDAF80C50194B2146EB600822CE
:10528000C5E90044C5E904446C66AC60AC6105F155
:105290005C00FCF789FE05F15800C5E90759C5E92E
:1052A0000A76C5F8248000F0EBFB01230548CAF814
:1052B0003830BDE8F04700F0F3BB0248BDE8F047E6
:1052C00000F0EEBB3C0B0020515100009173000038
:1052D000B9730000F973000019740000090001009F
:1052E000120002002DE9F04107462D4800F0D0FBE6
:1052F0002C4B1E68B36B93B34FF0040806F5387659
:10530000D6E90134013B04D525E05A1C04F16804B8
:1053100021D0B4F90C50013B002DF6D1224B04F101
:105320005800E360656600F0ABFB1D4800F0B8FB79
:1053300008222946C4E90155C4E904552560A56140
:1053400004F15C00FCF730FEC4E90C55C4E91155CA
:105350002046BDE8F08135682DB12E46D0E73046B5
:10536000FFF73AFFC8E74FF4D671384600F03AFC31
:10537000044668B1056029460546C0F804800C3033
:105380004FF4D072A060FCF70FFE34602E46B7E7F2
:105390000348346000F084FB0C233B60D8E700BF77
:1053A000380B002058A800000100FFFF014800F062
:1053B0006FBB00BF380B0020014800F071BB00BF7D
:1053C000380B0020014800F063BB00BF3C0B0020FD
:1053D000014800F065BB00BF3C0B002008B5054844
:1053E00000F056FB044B05491868BDE8084000F082
:1053F000F7BA00BF380B00208C0000205D51000080
:1054000008B5054B0549186800F0EAFABDE8084000
:10541000034800F045BB00BF8C000020795100001C
:10542000380B002038B5084B084D5B1B9C1007D08B
:10543000043B1D44013C55F804399847002CF9D130
:10544000BDE8384004F046BD440A0020400A002070
:10545000F8B50C46234F064600F0AAFFBB685D680E
:10546000C4F57E6325F003050F332B4423F47F63DB
:1054700023F00F03A3F58054B4F5805F07DB002110
:10548000304601F073FFBB682B44984204D030468D
:1054900000F094FF0020F8BD3046614201F066FF45
:1054A00001300DD0104ABB682D1B45F001055D6031
:1054B000136830461B1B136000F080FF0120F8BD0D
:1054C0000021304601F052FFBA68831A0F2BDEDD4F
:1054D00043F001035360054B03491B68C01A086081
:1054E000D5E700BFBC040020440B0020C408002006
:1054F00000295ED0F8B50C46064600F059FF54F876
:10550000042C784FA4F1080522F001016818D7F89F
:1055100008C04368844523F0030300F08780D20766
:10552000436034D454F8082C07F10804AD1A114430
:10553000AA68A24268D000EB030CDCF804E0D5F8BE
:105540000CC01EF0010FC2F80CC0CCF8082000F00F
:10555000918041F001036B600160B1F5007F31D2B1
:105560004A09CB08012191407A68013311437960DF
:1055700007EBC30257F83310083AC5E9021247F89F
:105580003350CD603046BDE8F84000F017BFC21878
:105590005268D2070ED4194407F108048368A34265
:1055A00070D0C268DA60936041F001036B606950AB
:1055B000D3E7704741F00103B1F5007F44F8043CA4
:1055C0000160CDD3B1F5206F4FEA512347D28B094B
:1055D00003F1390003F13802C300F818FB5808380A
:1055E000984258D05A6822F003028A4202D99B6836
:1055F0009842F7D1D868C5E9023085603046DD6051
:10560000BDE8F84000F0DABEC2185268D20763D491
:105610000B44D0E90212CA60916043F001026A6053
:105620003046EB50BDE8F84000F0C8BE0B44D1074F
:1056300007D454F8082CAD1A1344D5E90212CA60F5
:10564000916043F001026A60274ABD6012689A4285
:1056500098D8264B30461968FFF7FAFE92E7142BCC
:105660000AD9542B1FD80B0B03F16F0003F16E0204
:10567000C300B2E7194491E703F15C0003F15B0258
:10568000C300AAE741F00103C7E90455C5E9024494
:105690006B60695076E70121921001FA02F2796895
:1056A0000A437A60A7E7B3F5AA7F06D8CB0B03F1CC
:1056B000780003F17702C3008FE740F2545293421F
:1056C00006D88B0C03F17D0003F17C02C30084E754
:1056D0004FF47E737E2280E741F001036B6001602E
:1056E00050E700BFBC040020C8080020740B002055
:1056F0009368002B00F0B7802DE9F04FB1F90C3022
:105700000C4619078046174683B098B225D5236901
:105710001BB310F002033D682DD04FF0000B5E4626
:10572000DFF8B8A2002E00F08B80564533465A466B
:1057300028BF53464046E169D4F824C0E04700281A
:1057400040F38780BB6883441B1A361ABB60002B6A
:10575000E8D1002003B0BDE8F08F21464046FEF7B7
:1057600025FB002840F03681B4F90C303D6898B232
:1057700010F00203D1D110F0010976D14E46002E6F
:105780005AD08205D4F808B040F1B580B3455A46E6
:1057900000F2CD8010F4906F00F0CB802368216977
:1057A000A3EB010B636903EB430A0AEBDA7A0BF113
:1057B00001034FEA6A0A33445345524684BF9A466E
:1057C0005246430540F1EA801146404600F00AFA8D
:1057D000002800F0F9805A462169019000F0F6FC9B
:1057E000A289019B22F4906242F08002A28103EB25
:1057F0000B0023613246AAEB0B03B346C4F814A096
:10580000A3602060B24600264946019200F054FD94
:10581000A3682168019AA3EB0B030A44A3602260EA
:10582000B868D144A0EB0A00B860002891D0B4F960
:105830000C0080B2002EA4D1D5E9009608359EE771
:10584000D5E900B608356DE721464046FFF718FC5C
:1058500080B3B4F90C304FF0FF3043F04003A38124
:1058600003B0BDE8F08F002070471E46AA46994657
:1058700018461D4656B3002832D04A462068216992
:10588000B24228BF32468842636904D9A16803EB5B
:10589000010B5A4574DC934265DC2A464046E169B7
:1058A000D4F824C0E047B0F1000BD2DDB9EB0B090E
:1058B000CAD00120BB685D44A3EB0B03A6EB0B062B
:1058C000BB60002B3FF445AF002ED4D10AF1080392
:1058D00053F8046C9A4653F8085C0833002EF7D04E
:1058E00032460A21284600F029FC002869D0013000
:1058F000A0EB0509C1E72068236998421BD86369BA
:10590000B34218D86FF0004CB44528BFB4469CFB96
:10591000F3FC4A4603FB0CF34046E169D4F824C08B
:10592000E047B0F1000A94DDA6EB0A0678E7B3463B
:105930003246206866E7B345DA4628BFB246494694
:10594000524600F0B9FCA3682268A3EB0A03524454
:10595000A3602260002BE7D121464046FFF790FB71
:105960000028E1D075E729469346019200F0A4FC97
:10597000A368019A9B1AA36023681A44226095E7E2
:1059800029465A4600F098FC236821465B4440466D
:105990002360FFF775FB002888D05AE7404601F0E6
:1059A000BFFA034600287FF422AF40462169FFF783
:1059B0009FFD0C22B4F90C30C8F8002023F08003BE
:1059C00049E7721C914659E70C22B4F90C30C8F82B
:1059D000002040E74FF0FF30BCE600BF00FCFF7F37
:1059E0002DE9F0410026884600F53877D7E90154C3
:1059F000013D0ED4A389013D012B06D9B4F90E3027
:105A0000013302D02046C04706436B1C04F16804F2
:105A1000F0D13F68002FE9D13046BDE8F08100BFEA
:105A20002DE9F8434FF000090746884600F538761F
:105A3000D6E90154013D10D4A389013D012B08D9B9
:105A4000B4F90E30013304D021463846C04749EA44
:105A500000096B1C04F16804EED13668002EE7D112
:105A60004846BDE8F88300BFF030704700487047F3
:105A7000BC09002000487047BC090020704700BFE7
:105A8000704700BF704700BF704700BF704700BF3E
:105A9000704700BF0120704701207047704700BF6A
:105AA000704700BF2DE9F0418B890C46990796B0ED
:105AB00008D5012204F14303C4E90432236016B07F
:105AC000BDE8F081B4F90E100646002927DB6A46CE
:105AD00002F0AEFE002821DB019D4FF4806805F442
