:020000040001F9
:10000000000007207D010000C1010000C3010000C5
:10001000C5010000C7010000C90100000000000088
:10002000000000000000000000000000CB01000004
:10003000CD01000000000000CF010000D101000050
:10004000D3010000D5010000D7010000D901000054
:10005000210F0000DD010000DF010000E1010000D0
:10006000E3010000E5010000E701000000000000DE
:10007000E9010000EB010000ED010000EF010000CC
:10008000F1010000F3010000F5010000F70100009C
:10009000F9010000FB010000FD010000FF0100006C
:1000A0000102000003020000050200000702000038
:1000B000090200000B0200000D0200000F02000008
:1000C00010B5054C237833B9044B13B10448AFF392
:1000D00000800123237010BDD00900200000000023
:1000E00038FF000008B5034B1BB103490348AFF3C9
:1000F000008008BD00000000D409002038FF000087
:10010000A3F5803A704700BF174B002B08BF134B75
:100110009D46FFF7F5FF00218B460F461348144A12
:10012000121A05F0BFFB0E4B002B00D098470D4B69
:10013000002B00D098470020002104000D000D483E
:10014000002802D00C4809F051FD05F0B7F8200056
:10015000290000F011FF04F0A9FC00BF0000080016
:10016000000000000000000000000720D00900206F
:10017000BC0C0020ED9B0000FDAC00000A490B4ABE
:100180000B4B9B1A03DD043BC858D050FBDC0949DC
:10019000094A00209142BCBF41F8040BFAE7074826
:1001A0008047FFF7B1FF000044FF0000000000207F
:1001B000D0090020D0090020BC0C00202D420000F6
:1001C000FEE7FEE7FEE7FEE7FEE7FEE7FEE7FEE707
:1001D000FEE7FEE7FEE7FEE7FEE7FEE7FEE7FEE7F7
:1001E000FEE7FEE7FEE7FEE7FEE7FEE7FEE7FEE7E7
:1001F000FEE7FEE7FEE7FEE7FEE7FEE7FEE7FEE7D7
:10020000FEE7FEE7FEE7FEE7FEE7FEE7FEE7FEE7C6
:1002100038B505461B200C4605F0CAFBBFF36F8FAF
:10022000BFF36F8FBFF36F8F0D48294605F0A8FB12
:10023000BFF36F8FBFF36F8FBFF36F8F2CB10023AE
:10024000BFF36F8F01339C42FAD11B2005F0B0FB46
:10025000BFF36F8FBFF36F8FBFF36F8F38BD00BFDA
:1002600064EF00002DE9F04103F00CF9B0F5907F48
:1002700080F0D1800A2005F09BFB02F099FF6848CE
:1002800005F0ECFB03F0FEF80146664805F078FB4C
:1002900003F004F90146644805F072FB03F012F91B
:1002A000074603F00FF9064603F00CF90346320A3D
:1002B000DBB239465D4805F063FB03F0D5F8014633
:1002C0005B4805F05DFB03F0F7FA0146594C5A4DC7
:1002D0005A48002914BF2146294605F051FB0A203F
:1002E00005F066FB564805F0B9FB03F027F9014617
:1002F0005448002914BF2946214605F041FB03F06C
:1003000023F90146504BDFF844815148002914BFBE
:100310004146194605F034FB03F034F901464D48D7
:1003200005F02EFB03F042F94B4A4C49002818BF58
:1003300011464B4805F024FB03F04CF901464948AF
:1003400005F01EFB03F05AF90146474805F018FB7B
:100350000A2005F02DFB454805F080FB03F0C6F9A7
:1003600001464348002914BF2946214605F008FBF1
:100370004146404805F004FB03F0E2F901463E48DF
:1003800005F0FEFA03F0EEF901463C4A3C4B3D48CD
:10039000002914BF1146194605F0F2FA0A2005F0AB
:1003A00007FB394805F05AFB03F04AF80146374885
:1003B00005F0E6FA03F0DEF90146354805F0E0FA0B
:1003C00003F01EFA0146334805F0DAFA03F0F0F9BB
:1003D0000146314805F0D4FA03F032FA01462F48BD
:1003E00005F0CEFA03F040FA01462D48002914BF6B
:1003F0002946214605F0C4FA03F04AFA0146294885
:10040000002914BF2946214605F0BAFABDE8F0419B
:100410000A2005F0CDBA2448BDE8F04105F01EBB26
:10042000F0EF000000F000001CF000003CF00000C5
:1004300068F0000068EF000074EF000084F0000036
:10044000A0F00000B0F0000084EF00007CEF00009E
:10045000CCF00000E8F0000090EF000098EF000002
:1004600004F1000020F100003CF100005CF100000C
:100470006CF1000084F100009CF100009CEF000092
:10048000A0EF0000B4F10000CCF10000DCF10000AE
:10049000F4F1000010F2000028F2000040F2000029
:1004A0005CF2000074F20000A4EF000000222DE9CD
:1004B000F041B64FB6493B6C90B03846FA54884686
:1004C00005F094FDADF104052C4603460FAE44F84B
:1004D000043F4146002005F089FDA6420346F6D1BF
:1004E000009B1B78482B5FD0492B37D04A2B3AD141
:1004F000019B1B78422B00F0EC80412B00F0168111
:10050000432B00F02981442B00F03381452B00F070
:100510003381462B00F04A81472B00F0EC80482BBA
:1005200000F06681492B00F08281502B00F0CB81D6
:10053000512B00F0B681522B00F0F681532B00F0C6
:10054000F081542B1ED1029804F06EFAC0B203F071
:1005500051FC01468F4805F013FA13E0019B1B780C
:10056000412B00F097808C4805F00AFA8B4C55F827
:10057000041F11B1204605F003FAAE42F7D18848B6
:1005800005F06CFA874B1B68986804F05FFB042049
:1005900003F04AFD402200217C4805F083F9002346
:1005A0003B6410B0BDE8F081019B1B78412B00F04B
:1005B0008680422B00F08A80432B72D0442B00F0BF
:1005C000A780452B00F0B980462B00F08580492B91
:1005D00000F0F9804A2B00F01D814B2B00F0448184
:1005E0004C2B00F0AE814F2B00F0C081502B00F05F
:1005F000FB81512B00F02F82522B00F05284532BA1
:1006000000F03884542B00F02A84552B00F010841D
:10061000562B00F00284572B00F0E883582B00F093
:10062000D583592B00F0C2835A2B00F0B2835B2B89
:1006300000F057835C2B00F04E835D2B00F0398374
:100640005E2B00F01F835F2B00F00983602B00F00E
:10065000FA82612B00F0E182622B00F0C882632BEA
:1006600000F06383642B00F05A83652B00F04B830A
:10067000662B00F04283672B00F06383682B00F049
:100680005A83692B7FF46FAF029804F0CDF902F022
:1006900079FE77E703F040F90146434805F070F929
:1006A00070E7029B1B78412B69D0422B7FF45BAF34
:1006B00002F0C6FE0146374805F062F962E702F033
:1006C000A7FE0146384805F05BF95BE7FFF7CAFD76
:1006D00058E703F06FFA55E7029B1B78412B00F0B7
:1006E000FF80422B7FF43FAF02F0D8FE014629483D
:1006F00005F046F946E7029804F096F90446039897
:1007000004F092F90146E0B289B203F0D1FA39E778
:10071000029B1B78412B65D0422B7FF424AF02F063
:10072000A3FE01461B4805F02BF92BE7029804F0C5
:100730007BF980B203F048FA24E7029B1B78412B37
:1007400000F08C80422B7FF40EAF02F09BFE01463E
:10075000104805F015F915E7029804F065F904460C
:10076000039804F061F90146A0B2C9B203F04CFA53
:1007700008E703F04FFA05E703F076FA02E703987B
:1007800004F052F902F050FEFCE600BFEC09002034
:10079000B4F2000044F30000A4F2000064EF000093
:1007A000B8F20000140000208CF20000029804F05F
:1007B0003BF90446039804F037F90146E0B2C9B2A8
:1007C00003F06CFADEE6029B1B78412B00F0C6803A
:1007D000422B7FF4C8AE02F075FE0146B04805F02A
:1007E000CFF8CFE6039804F01FF902F031FEC9E616
:1007F000029804F019F90546039804F015F9044627
:10080000049804F011F90246A1B2E8B292B203F0E2
:1008100059FAB7E6029B1B78412B69D0422B00F0B6
:10082000C880432B7FF49FAE02F096FEAAE60298A2
:1008300004F0FAF80546039804F0F6F80646049822
:1008400004F0F2F80446059804F0EEF80346B1B25D
:10085000E8B2A2B2DBB203F03FFA93E6039804F0E9
:10086000E3F802F009FE8DE6029B1B78412B00F0B5
:10087000CF80422B7FF486AE039B1B78412B00F088
:100880006D81422B00F06381432B00F05981442B92
:100890007FF469AE02F0EAFE0146814805F070F887
:1008A00070E6029804F0C0F80546039804F0BCF81E
:1008B0000446049804F0B8F80246A1B2E8B292B235
:1008C00003F03EFA5EE6029804F0AEF804460398A0
:1008D00004F0AAF80146E0B2C9B203F00BFA51E6FF
:1008E00000220398114605F039FD02F0D1FD49E6DA
:1008F000039B1B78412B00F01D81432B00F01481DA
:10090000442B00F00B81452B00F00281462B7FF435
:100910002AAE00220498114605F020FD02F062FE86
:1009200030E603F021FA2DE6029804F07DF8044643
:10093000039804F079F80146E0B2C9B203F00AFA6C
:1009400020E6029B1B78412B00F09980422B6DD052
:10095000442B7FF408AE02F0D7FE13E60022039882
:10096000114605F0FBFC02F09FFD0BE6029B1B7895
:10097000412B00F09980422B7FF4F5AD039B1B784F
:10098000412B00F0A480422B00F0B282432B00F0F8
:10099000A782442B00F01781452B00F00D81462BD8
:1009A0007FF4E1AD02F074FF01463D4804F0E8FF3A
:1009B000E8E5039B1B78412B00F0F780422B00F009
:1009C000ED80432B00F0E380442B00F0D980452BD1
:1009D00000F00081462B7FF4C6AD02F00FFE014609
:1009E000304804F0CDFFCDE5029B1B78412B00F091
:1009F000BC80422B7FF4B7AD039B1B78412B7FF467
:100A0000B2AD02F059FF0146254804F0B9FFB9E53F
:100A1000039B1B78422B00F0E480432B7FF4A3ADB3
:100A2000049804F001F802F00DFEABE5039B1B787F
:100A3000412B00F04D82422B00F04282432B00F00C
:100A40003782442B7FF48FAD02F08CFE01461448B0
:100A500004F096FF96E5029B1B78412B00F08981FC
:100A6000422B40F07A81039B1B78412B7FF47BADB6
:100A700002F036FF01460A4804F082FF82E5039B3C
:100A80001B78412B00F04382432B00F03982442B2A
:100A90007FF469AD049803F0C7FF02F057FE71E5DB
:100AA00044F3000094F20000039B1B78422B29D0F2
:100AB000432B21D0442B17D0452B0FD0462B7FF44E
:100AC00052AD049803F0B0FF02F0D6FE5AE502F0F2
:100AD00051FE0146C34804F053FF53E5049803F068
:100AE000A3FF02F0B5FE4DE500220498114605F083
:100AF00035FC02F097FE45E5049803F095FF02F0FF
:100B000069FE3FE5049803F08FFF02F03BFE39E5F4
:100B1000049803F089FF02F051FD33E5049803F0D7
:100B200083FF02F037FD2DE5049803F07DFF02F00E
:100B30001DFD27E5049803F077FF02F0CFFC21E5C7
:100B400002F08CFD0146A84804F01AFF1AE502F0F5
:100B500071FD0146A44804F013FF13E502F056FDB1
:100B60000146A14804F00CFF0CE5039B1B78412BC8
:100B70007FF4F9AC049803F057FF02F091FE01E511
:100B800002F014FD0146984804F0FAFEFAE402F07F
:100B9000F9FC0146944804F0F3FEF3E402F0D4FCBF
:100BA0000146914804F0ECFEECE402F0C7FC01467B
:100BB0008D4804F0E5FEE5E402F056FE01468A4861
:100BC00004F0DEFEDEE402F03BFE0146854804F060
:100BD000D7FED7E402F0FEFC0146834804F0D0FEC5
:100BE000D0E4049803F020FF02F018FDCAE4029854
:100BF00003F01AFF0446039803F016FF0546049815
:100C000003F012FF0646059803F00EFF3246034636
:100C10002946204601F052FCB4E4029803F004FF98
:100C20000446039803F000FF0546049803F0FCFE19
:100C30000646059803F0F8FE32460346294620464C
:100C400001F01EFB9EE4029803F0EEFE04460398BA
:100C500003F0EAFE0146204601F0FAFA92E4029817
:100C600003F0E2FE0446039803F0DEFE0022054690
:100C70001146049805F072FB29460246204601F011
:100C8000C9FA7FE4029803F0CFFE0446039803F00C
:100C9000CBFE002205461146049805F05FFB29466D
:100CA0000246204600F0AEFD01464F4804F068FEC3
:100CB00068E4029803F0B8FE002204461146039847
:100CC00005F04CFB0146204600F07EFD01464548FC
:100CD00004F056FE56E4029803F0A6FE00F06AFD0A
:100CE00050E4029803F0A0FE0446039803F09CFE33
:100CF0000146204600F08EFE44E4029803F094FE84
:100D000001F032FE3EE4029803F08EFE04460398A2
:100D100003F08AFE0146204601F01AFE32E40298F2
:100D200003F082FE01F07EFD2CE4029803F07CFECD
:100D300001F044FD26E4029803F076FE02F0EAF9A1
:100D400020E4029803F070FE0446039803F06CFE62
:100D50000146204601F018FE14E4452B15D0462B21
:100D60007FF401AC02F0D0FD01461F4804F008FEFC
:100D700008E4039B1B78412B7FF4F5AB049803F048
:100D800053FE02F0A1FDFFF7FDBB02F0B1FDFFF73E
:100D9000F9BB029803F048FE0446039803F044FEB2
:100DA0000146204600F072FCFFF7ECBBDDE90230A3
:100DB0001D7803F039FE0446049803F035FE214601
:100DC0000246284600F028FCFFF7DCBBDDE90230D4
:100DD0001C7803F029FE0146204600F05DFBFFF77A
:100DE000D1BB00BF9CF2000044F30000029803F066
:100DF0001BFE0446039803F017FE0546049803F013
:100E000013FE0646059803F00FFE324603462946B8
:100E1000204600F033FBFFF7B5BBDDE902301C785C
:100E200003F002FE0146204600F068FAFFF7AABB75
:100E3000029803F0F9FD0446039803F0F5FD05461A
:100E4000049803F0F1FD0646059803F0EDFD3246E7
:100E500003462946204600F043FAFFF793BBDDE93D
:100E600002301C7803F0E0FD0146204600F078F9DE
:100E7000FFF788BB029803F0D7FD0446039803F000
:100E8000D3FD0546049803F0CFFD0646059803F010
:100E9000CBFD324603462946204600F053F9FFF7C2
:100EA00071BB029803F0C0FD00F00EF9FFF76ABBBA
:100EB00002F046FC0146194804F062FDFFF762BBF0
:100EC00002F01CFC0146154804F05AFDFFF75ABB1E
:100ED00002F00CFC0146114804F052FDFFF752BB32
:100EE00002F08EFC01460D4804F04AFDFFF74ABBB4
:100EF00002F05EFC0146094804F042FDFFF742BBE8
:100F0000049803F091FD02F011FCFFF73BBB04983D
:100F100003F08AFD02F0B0FBFFF734BB44F300009E
:100F200038B50A480A4C03F033F90848256C03F039
:100F300011F9236C6055E25C0A2A03D00AB101332F
:100F4000236438BDBDE83840FFF7B0BA0060004008
:100F5000EC09002008B5064804F080FD1022054B7E
:100F600004201A60C3F8802103F05EF8FEE700BF9A
:100F7000C4F2000000E100E008B503F039F80A20EF
:100F800004F016FD0449054804F0FAFC0A2004F0B8
:100F90000FFDFFF7DFFF00BFE8F20000F8F20000EE
:100FA000F0B5224C054626688BB0B37E032B23D0C8
:100FB00043270197768A4D230096422641221C49F9
:100FC00002A804F07BFF616802A8FFF721F90196EF
:100FD00026684D23368A4122154902A8009604F05E
:100FE0006DFF616802A8FFF713F92368988A02F081
:100FF0009DFB002002F0AAFB012002F03DFB2846E9
:1010000002F052FA2368DB8A3BB1002502F07CFB38
:1010100023680135DB8A9D42F8D3002002F02CFBC7
:10102000032223689A760BB0F0BD00BF04000020B5
:1010300030F30000F0B5224C054626688BB0B37E35
:10104000042B23D04327019776894D23009642260F
:1010500041221C4902A804F031FF616802A8FFF791
:10106000D7F8019626684D2336894122154902A8F2
:10107000009604F023FF616802A8FFF7C9F823680F
:10108000988902F053FB012002F060FB012002F07E
:10109000F3FA284602F008FA2368DB893BB1002501
:1010A00002F032FB23680135DB899D42F8D3002032
:1010B00002F0E2FA042223689A760BB0F0BD00BF7A
:1010C0000400002030F3000070B58AB0044602F03E
:1010D000D3F900224126194D2B689A762344D87EF5
:1010E00002F078FB2B68234493F83B0102F04AFBA3
:1010F0002B6803EB4403B3F85C0202F093FB04F5A6
:10110000F3442B680C34019603EB4404A488422278
:10111000B4F5FA7F28BF4FF4FA744723084902A8B0
:10112000009404F0CBFE696802A8FFF771F82B6801
:10113000188B02F01BFA0AB070BD00BF040000203B
:1011400030F3000010B4054C2468E3800023A3763C
:1011500020806180A28010BC704700BF0400002086
:101160002DE9F0435B4D04462B680E469A7E8BB00A
:10117000022A23D04322422701925B88412256490A
:10118000009302A84D2304F099FE696802A8FFF7B6
:101190003FF801972F684D233F8841224E4902A80E
:1011A000009704F08BFE696802A8FFF731F82B68FE
:1011B000988802F0BBFA012002F0C8FA012002F080
:1011C0005BFA412C23D0422C0CD0432C6CD0442C05
:1011D0002DD0002002F050FA02222B689A760BB034
:1011E000BDE8F083360206F58077304602F05CF900
:1011F0002B68DB883BB1002402F086FA2B680134AF
:10120000DB88A342F8D80136B742EED1E1E7304699
:1012100002F04AF92B68DB88002BDAD0002402F0B8
:1012200073FA2B680134DB88A342F8D8D1E7DFF8E2
:10123000AC905B2004F0BCFBD9F800304FF4807711
:10124000986803F003FD4FF000084FEA0826304687
:1012500002F02AF92B68DB883BB1002402F054FA33
:101260002B680134DB88A342F8D80136B742EED1AF
:1012700018F00F0F0FD008F10108B8F5807F07F5BF
:101280008077E2D15D2004F093FBD9F800309868B4
:1012900003F0DCFC9DE73E2004F08AFBD9F8003027
:1012A000986803F0D3FCE6E706F58037304602F095
:1012B000FBF82B68DB883BB1002402F025FA2B6891
:1012C0000134DB88A342F8D806F58076B742EDD129
:1012D0007FE700BF0400002030F30000140000206E
:1012E00010B4054C2468E3810023A376208161813A
:1012F000A28110BC704700BF040000202DE9F0431C
:101300005B4D04462B680E469A7E8BB0042A23D090
:101310004322422701925B8941225649009302A849
:101320004D2304F0CBFD696802A8FEF771FF019719
:101330002F684D233F8941224E4902A8009704F0AF
:10134000BDFD696802A8FEF763FF2B68988902F06B
:10135000EDF9012002F0FAF9012002F08DF9412C9B
:1013600023D0422C0CD0432C6CD0442C2DD0002008
:1013700002F082F904222B689A760BB0BDE8F08364
:10138000360206F58077304602F08EF82B68DB894E
:101390003BB1002402F0B8F92B680134DB89A34289
:1013A000F8D80136B742EED1E1E7304602F07CF8DA
:1013B0002B68DB89002BDAD0002402F0A5F92B681A
:1013C0000134DB89A342F8D8D1E7DFF8AC905B2089
:1013D00004F0EEFAD9F800304FF48077986803F003
:1013E00035FC4FF000084FEA0826304602F05CF862
:1013F0002B68DB893BB1002402F086F92B680134AD
:10140000DB89A342F8D80136B742EED118F00F0FAE
:101410000FD008F10108B8F5807F07F58077E2D199
:101420005D2004F0C5FAD9F80030986803F00EFC8E
:101430009DE73E2004F0BCFAD9F80030986803F02C
:1014400005FCE6E706F58037304602F02DF82B68FC
:10145000DB893BB1002402F057F92B680134DB89AA
:10146000A342F8D806F58076B742EDD17FE700BFFA
:101470000400002030F300001400002010B4054CDC
:101480002468E3820023A37620826182A28210BCBA
:10149000704700BF040000202DE9F0435B4D044677
:1014A0002B680E469A7E8BB0032A23D04322422714
:1014B00001925B8A41225649009302A84D2304F011
:1014C000FDFC696802A8FEF7A3FE01972F684D2373
:1014D0003F8A41224E4902A8009704F0EFFC696858
:1014E00002A8FEF795FE2B68988A02F01FF90020EB
:1014F00002F02CF9012002F0BFF8412C23D0422C3D
:101500000CD0432C6CD0442C2DD0002002F0B4F829
:1015100003222B689A760BB0BDE8F083360206F5FD
:101520008077304601F0C0FF2B68DB8A3BB1002496
:1015300002F0EAF82B680134DB8AA342F8D80136BE
:10154000B742EED1E1E7304601F0AEFF2B68DB8A0F
:10155000002BDAD0002402F0D7F82B680134DB8AA4
:10156000A342F8D8D1E7DFF8AC905B2004F020FA72
:10157000D9F800304FF48077986803F067FB4FF09C
:1015800000084FEA0826304601F08EFF2B68DB8A00
:101590003BB1002402F0B8F82B680134DB8AA34287
:1015A000F8D80136B742EED118F00F0F0FD008F17E
:1015B0000108B8F5807F07F58077E2D15D2004F05F
:1015C000F7F9D9F80030986803F040FB9DE73E201A
:1015D00004F0EEF9D9F80030986803F037FBE6E73D
:1015E00006F58037304601F05FFF2B68DB8A3BB1A0
:1015F000002402F089F82B680134DB8AA342F8D872
:1016000006F58076B742EDD17FE700BF04000020E9
:1016100030F30000140000202DE9F047174632B3E4
:1016200005460E460024DFF85480DFF854A0DFF8AA
:10163000549002E00134BC4219D031462846FFF7ED
:101640005DFE31462846FFF727FF08FB04F3B3F1A0
:10165000333FEFD821463A46504604F091F9D9F885
:1016600000300134986803F0F1FABC42E5D13A4603
:101670003946BDE8F047044804F082B9CDCCCCCC63
:1016800040F300001400002048F300002DE9F04F63
:1016900011F0010B0C4683B020F0E00540F085808E
:1016A00014F0020A7CD114F0040974D114F0080873
:1016B0006CD114F0100764D114F020065CD114F042
:1016C0004003019353D114F0800448D1BBF1000FC3
:1016D0003ED0BAF1000F33D0B9F1000F28D0B8F1E5
:1016E000000F1ED097B1BEB1019B1BB144B103B036
:1016F000BDE8F08F05F1C000FFF752FC002CF6D1D9
:1017000005F1E00003B0BDE8F04F49E405F18000C9
:10171000FFF746FC002EE7D105F1A000FFF740FCE3
:10172000E2E705F16000FFF73BFC002FDBD1EDE7BE
:1017300005F14000FFF734FCB8F1000FD2D1F0E71B
:1017400005F12000FFF72CFCB9F1000FC7D1EFE73E
:101750002846FFF725FCBAF1000FBDD1F0E705F1EF
:10176000E000FFF767FCBBF1000FB2D1F0E705F135
:10177000C000FFF75FFCA6E705F1A000FFF75AFCE9
:101780009DE705F18000FFF755FC95E705F1600046
:10179000FFF750FC8DE705F14000FFF74BFC85E7B4
:1017A00005F12000FFF746FC7DE72846FFF742FCE5
:1017B00076E700BF0022034B1B6818839A7680B23D
:1017C00001F0D4BE0400002038B50D46044601F0F7
:1017D0006BFE284601F006FF012001F07FFE01F0BC
:1017E000BBFE002001F07AFE0122054BC4F342103B
:1017F0001B689A7601F018FEBDE8384001F0BABFC8
:10180000040000202DE9F04F89B01646044601F08F
:1018100039FE0546204601F047FE304601F0E2FE63
:10182000012001F05BFE01F097FE002001F056FE62
:101830000122774BC4F342101B689A7601F0F4FD45
:1018400001F098FF002E00F0E0800024731E0134A8
:101850001E40E4B2FAD1B42100266D4B05FB01F124
:101860001B6804EB84002B4493F89C34A4F1040A15
:101870000493A31F0393E31F0593A4F108030693A6
:10188000A4F10903079301EB8003CDE901635346FB
:101890004FF05A0CA4F10309CA4699460CFB05F512
:1018A000671EA4F1020BA4F10508304601F0BCFD4F
:1018B00001F060FF42F69C01554B029A1B6803EB56
:1018C000020E3EF80110814280F093807A1C75D0A0
:1018D00041F24C4E07EBC70129442144714403EB0C
:1018E00041018988814280F08680BBF1FF3F65D04D
:1018F0000BEBCB0129442144714403EB410189885E
:1019000088427AD9BAF1FF3F58D00AEBCA0129447C
:101910002144714403EB4101898888426FD9B9F1B0
:10192000FF3F4BD009EBC90129442144714403EB2B
:1019300041018988884264D9B8F1FF3F3ED008EB65
:10194000C80129442144714403EB4101898888423C
:1019500059D9039A511C31D002EBC20129442144C8
:10196000714403EB4101898888422FD9059A511CA3
:1019700024D002EBC20129442144714403EB41010C
:101980008988884222D9069A511C17D002EBC201DD
:1019900029442144714403EB41018988884215D9C7
:1019A000079A511C0AD002EBC20129442144714418
:1019B00003EB410CBCF80410814207D20136082E1B
:1019C0007FF473AF019809B0BDE8F08F1146049B16
:1019D000012B04D0019BB1400B440193EEE7072E8D
:1019E000F8D1019BA3EBC1130193019809B0BDE8A5
:1019F000F08F2146EBE73946E9E75946E7E75146DC
:101A0000E5E74946E3E74146E1E7344623E700BF1F
:101A1000040000202DE9F04F4FF0030906460C4664
:101A200020F0E00589B005F580782F46384620374C
:101A3000FFF7B6FAB845F9D1012200213046FFF789
:101A4000E1FE20B109F1FF3919F0FF09EDD105F1EF
:101A5000200005F1800C0290CDF804C005F1400093
:101A600005F1A00C0390CDF814C005F1600005F15C
:101A7000C00C14F0010F04F0020704F0040804F095
:101A8000080904F0100A04F0200204F0400104F0F8
:101A900080030690CDF810C005F1E00B4DD123BBBB
:101AA000002940F0A2810325002A40F02782234626
:101AB00083464446B0464E469946002F78D1002CC6
:101AC00070D1002E64D1BAF1000F67D1012200213C
:101AD0004046FFF797FE484505F1FF3502D015F067
:101AE000FF05EAD109B0BDE8F08F0325002940F0D9
:101AF000FC80002A40F0A58023464446B0464E466E
:101B00009946002F64D1002C5CD1002E56D1BAF139
:101B1000000F40F030825846FFF78CFA0122002176
:101B20004046FFF76FFE484505F1FF35DAD015F066
:101B3000FF05D7D0002FE6D04AE0002B40F08A8185
:101B40004FF0030B002940F0AB80002A40F09F804B
:101B500023464446A8464D46B14656469A46404618
:101B6000FFF768FA002F43D1002C3BD1002D35D16F
:101B7000002E40F0F881012200214846FFF742FE86
:101B800082450BF1FF3BADD01BF0FF0BE7D1A9E77E
:101B90005846FFF74FFABAF1000F97D00198FFF7B8
:101BA00049FA93E70398FFF745FA002E8BD0EFE749
:101BB0000298FFF73FFA002C83D0F3E70698FFF76F
:101BC00039FAA4E70398FFF735FA002E9FD0F5E71E
:101BD0000298FFF72FFA002C97D0F3E70698FFF74B
:101BE00029FAC5E70398FFF725FA002DC0D0F5E7DD
:101BF0000298FFF71FFA002CB8D0F3E70298FFF71E
:101C000019FAB8F1000F40F0FE81B9F1000F40F071
:101C1000F681BAF1000F40F080820598FFF70AFACA
:101C20005846FFF707FA012200213046FFF7EAFD88
:101C3000A04205F1FF353FF455AF15F0FF053FF425
:101C400051AF002FDAD1B8F1000FDED0DBE10298FE
:101C5000FFF7F0F9B8F1000F40F0C981B9F1000FBA
:101C600040F0C181BAF1000F40F05F820598FFF7A4
:101C7000E1F9012200213046FFF7C4FD84420BF157
:101C8000FF3B3FF42FAF1BF0FF0B3FF42BAF284679
:101C9000FFF7D0F9002FDAD1B8F1000FDED0A6E1BE
:101CA000002A6DD12846FFF7C5F9002F40F0938137
:101CB000B8F1000F40F08781B9F1000F40F07F814B
:101CC000BAF1000F40F02D820498FFF7B3F901221A
:101CD00000213046FFF796FD84420BF1FF3B3FF4B5
:101CE00001AF1BF0FF0BDDD1FCE6002A77D1002FFE
:101CF00040F05D81B8F1000F40F05181B9F1000F63
:101D000040F04981BAF1000F40F003820498FFF7D8
:101D100091F95846FFF78EF9012200213046FFF76E
:101D200071FDA04205F1FF353FF4DCAE15F0FF0573
:101D30003FF4D8AE002FDDD039E10298FFF77AF9F1
:101D4000B8F1000F40F06F81B9F1000F40F06381EE
:101D5000BAF1000F40F097810598FFF76BF90498EE
:101D6000FFF768F9012200213046FFF74BFD84425E
:101D70000BF1FF3B3FF4B6AE1BF0FF0B3FF4B2AEEE
:101D80002846FFF757F9002FD7D1B8F1000FDBD065
:101D900049E10298FFF74EF9B8F1000F40F06B816E
:101DA000B9F1000F40F05F81BAF1000F40F05781A8
:101DB0000598FFF73FF90498FFF73CF95846FFF7FD
:101DC00039F9012200213046FFF71CFDA04205F140
:101DD000FF353FF487AE15F0FF053FF483AE002FCB
:101DE000D7D1B8F1000FDBD045E1002A40F04F8198
:101DF0002346E34644460325B0464E4699461FBB5C
:101E0000E4B9BEB9BAF1000F40F0B1805846FFF70F
:101E100011F9012200214046FFF7F4FC484505F185
:101E2000FF353FF45FAE15F0FF053FF45BAE002FCA
:101E3000E6D009E00698FFF7FDF8E3E70398FFF71F
:101E4000F9F8002EDED0F5E70298FFF7F3F8002C42
:101E5000D7D0F3E70323002940F06B81CDF8108041
:101E60009846002A44D12846FFF7E4F8002F40F0B6
:101E70004C81049B002B40F08680B9F1000F7ED18D
:101E8000BAF1000F40F03D815846FFF7D3F8012228
:101E900000213046FFF7B6FC844208F1FF383FF4DA
:101EA00021AE18F0FF08DED11CE60298FFF7C2F859
:101EB000049B002B40F0CB80B9F1000F40F0BF80B5
:101EC000BAF1000F40F0B7800598FFF7B3F8584615
:101ED000FFF7B0F8012200213046FFF793FC84425F
:101EE00008F1FF383FF4FEAD18F0FF083FF4FAADFB
:101EF0002846FFF79FF8002FDAD0D6E72346DDF813
:101F000014B04446B0464E46994617BBDCB9B6B944
:101F1000BAF1000F23D15846FFF78CF801220021B7
:101F20004046FFF76FFC814505F1FF353FF4DAAD20
:101F300015F0FF053FF4D6AD002FE7D009E0069875
:101F4000FFF778F8E4E70398FFF774F8002EDFD086
:101F5000F5E70298FFF76EF8002CD8D0F3E7019868
:101F6000FFF768F8D7E70198FFF764F803E60198F0
:101F7000FFF760F84AE70198FFF75CF8CBE50698B1
:101F8000FFF758F87CE70398FFF754F8B9F1000F12
:101F90003FF476AFF3E70698FFF74CF8B2E6039804
:101FA000FFF748F8B9F1000F3FF4ACAEF3E7029841
:101FB000FFF740F8B8F1000F3FF4A0AEEFE7069846
:101FC000FFF738F87CE60398FFF734F8B9F1000F13
:101FD0003FF476AEF3E70298FFF72CF8B8F1000F64
:101FE0003FF46AAEEFE70698FFF724F83AE6039865
:101FF000FFF720F8B9F1000F3FF434AEF3E706988D
:10200000FFF718F805E60398FFF714F8B9F1000F89
:102010003FF4FFADF3E70698FFF70CF8BAF1000FB5
:102020003FF49AAE2FE00398FFF704F8B9F1000FE0
:102030003FF48EAEEFE70198FEF7FCFF44E7069809
:10204000FEF7F8FFBAF1000F3FF43EAFF3E7039855
:10205000FEF7F0FFB9F1000F3FF432AFEFE7019860
:10206000FEF7E8FFA4E60698FEF7E4FFBAF1000FDA
:102070003FF49EAEF3E70398FEF7DCFFB9F1000FE3
:102080003FF492AEEFE70198FEF7D4FF64E6032534
:10209000DDF814B057BBB8F1000F20D1B9F1000F33
:1020A00019D1BAF1000F28D15846FEF7C3FF0498A2
:1020B000FEF7C0FF012200213046FFF7A3FBA0423C
:1020C00005F1FF353FF40EAD15F0FF053FF40AAD05
:1020D000002FE0D00AE00698FEF7ACFFE1E7039896
:1020E000FEF7A8FFB9F1000FDBD0F4E70298FEF786
:1020F000A1FFB8F1000FD1D0F1E70198FEF79AFFE8
:10210000D2E70198FEF796FFBEE60298FEF792FF2F
:10211000AFE60198FEF78EFFF8E50198FEF78AFF1B
:102120007BE50198FEF786FFCEE50198FEF782FF7A
:102130009CE5AABBCDF8148098462846FEF77AFFA6
:1021400057BB059BEBB9B9F1000F16D1BAF1000FDF
:102150001ED10498FEF76EFF5846FEF76BFF012272
:1021600000213046FFF74EFB844208F1FF383FF470
:10217000B9AC18F0FF08E0D1B4E40698FEF75AFFB6
:10218000E4E70398FEF756FFB9F1000FDED0F4E75D
:102190000198FEF74FFFDCE70298FEF74BFFD0E710
:1021A000CDF81C8098462846FEF744FF6FBB079B7E
:1021B00003BBB9F1000F19D1BAF1000F21D1059875
:1021C000FEF738FF0498FEF735FF5846FEF732FF5A
:1021D000012200213046FFF715FBA04208F1FF382D
:1021E0003FF480AC18F0FF08DDD17BE40698FEF7E1
:1021F00021FFE1E70398FEF71DFFB9F1000FDBD0E7
:10220000F4E70198FEF716FFD9E70298FEF712FFF0
:10221000CDE700BF70B50D461446064601F032F911
:1022200002460A4B30461B68991803EB4203CE76F0
:1022300081F83B51A3F85C4201F0CCFA284601F04A
:10224000A1FA2046BDE8704001F0ECBA040000207D
:1022500038B50C46054601F015F90246074B2846ED
:102260001B68134483F89C5483F8BC4501F0D6F9ED
:102270002046BDE8384001F0E5B900BF0400002069
:102280002DE9F04F8FB00D46CDE9022304910446AD
:1022900001F0F8F8034647F6FF7A20460593FEF76B
:1022A00013FF012001F0E8FADFF804B2504601F014
:1022B000B9FA422240274FF0FF3647235946DFF84C
:1022C000F491009506A8019203F0F8FDD9F80410E6
:1022D00006A801EB81018900FDF79AFF4FF0010884
:1022E0001DE0204601F076FA002001F0DDF8002024
:1022F00001F078F9012001F0F1F801F02DF900204A
:1023000001F0ECF8D9F80030002083F81A8001F0D1
:102310008BF801F02FFA5045254658D02646F4197F
:10232000BB1B04EBD474012B4FEA6404D9DC2546B3
:10233000029B42220093402647234FF0FF3A4FF082
:10234000010B5B4906A8019203F0B8FDD9F804100F
:1023500006A801EB81018900FDF75AFF1EE0204627
:1023600001F010FA002001F09FF8002001F03AF986
:10237000012001F0B3F801F0EFF8002001F0AEF811
:10238000D9F80030002083F81AB001F04DF801F0C0
:10239000F1F927468046002851D0264606EB0A046C
:1023A000A6EB0A0304EBD474012B4FEA6404D6DCD9
:1023B0002746002001F060FA0598FEF785FE3A46B0
:1023C00029463D4803F0DCFA0FB0BDE8F08F422704
:1023D000DDE90323134459463A46009306A84723F0
:1023E000019703F06BFDD9F8041006A801EB8101F9
:1023F0008900FDF70DFF002001F056F8002001F0E4
:10240000F1F8012001F06AF801F0A6F8002001F0CF
:1024100065F8D9F80030002083F81A8001F004F83C
:1024200001F0A8F947F6FE73984281D9049B3A4619
:102430000197009327464723594606A844E74FF0E3
:10244000420ADDE902329B1A19495246009306A856
:102450004723CDF804A003F031FDD9F8041006A8F5
:1024600001EB81018900FDF7D3FE404601F01CF825
:10247000404601F0B7F8012001F030F801F06CF8A7
:10248000404601F02BF8D9F80030404683F81AB0E6
:1024900000F0CAFF01F06EF900288AD1029B524673
:1024A000CDF804A00093A2464723014906A84BE7B4
:1024B00030F300000400002050F300002DE9F04F3D
:1024C0009246BB4D1E46C0EB00132F685B0091B0D7
:1024D00003F2DC630C461E22FF2180460490F818AC
:1024E000CDF80CA003F0DEF900F0CCFF0346404627
:1024F000020105920793FEF7E7FD012001F0BCF908
:10250000422247230192AB49009408A803F0D6FC6D
:10251000696808A801EB81018900FDF779FE5B205D
:1025200003F046FAA44BAAEB04091B68986802F072
:102530008DFB5445B9FBF6F980F0258147F6FF7312
:102540004FF000080127DFF86CB24FEA1919069323
:102550000EE0B8FBF6F3B3FBF9F209FB1233002BE4
:1025600000F00381039B3444A342B04440F20B814A
:102570004222472301925946009408A803F09EFC8A
:10258000696808A84900FDF743FE002000F08CFFB1
:10259000002001F027F8012000F0A0FF00F0DCFF90
:1025A000002000F09BFF2B6800209F7600F03CFF8E
:1025B00001F0E0F88246002000F076FF002001F0F4
:1025C00011F8012000F08AFF00F0C6FF002000F0A3
:1025D00085FF2A680020977600F026FF01F0CAF8F0
:1025E00002460020029200F05FFF002000F0FAFF98
:1025F000012000F073FF00F0AFFF002000F06EFF3D
:10260000296800208F7600F00FFF01F0B3F8029ADE
:1026100052459ED150459CD1069B9A4599D28AEA53
:102620000302D00707D5DDE904032968181A01EB76
:102630004001A1F8DC46910707D5DDE904032968CC
:10264000181A01EB4001A1F8DE46530707D5DDE972
:1026500004032968181A01EB4001A1F8E0461007AD
:1026600007D5DDE904032968181A01EB4001A1F838
:10267000E246D10607D5DDE904032968181A01EB03
:102680004001A1F8E446930607D5DDE90403296873
:10269000181A01EB4001A1F8E646500607D5DDE91E
:1026A00004032968181A01EB4001A1F8E846110655
:1026B00007D5DDE904032968181A01EB4001A1F8E8
:1026C000EA46D30507D5DDE904032968181A01EBAA
:1026D0004001A1F8EC46900507D5DDE9040329681F
:1026E000181A01EB4001A1F8EE46510507D5DDE9C6
:1026F00004032968181A01EB4001A1F8F0461305FC
:1027000007D5DDE904032968181A01EB4001A1F897
:10271000F246D00407D5DDE904032968181A01EB55
:102720004001A1F8F446910407D5DDE904032968C6
:10273000181A01EB4001A1F8F646530407D5DDE96C
:1027400004132A68591A02EB4102A2F8F846BAF1BA
:10275000000F18D0B8FBF6F3B3FBF9F209FB123304
:10276000CDF818A0002B7FF4FDAE3E2003F020F939
:10277000114B34441B68B044986802F067FA039B1D
:10278000A3423FF6F5AE5D2003F012F90A4B1B6839
:10279000986802F05BFA002001F06EF80798FEF7E7
:1027A00093FC00222B689A7611B0BDE8F08F00BF31
:1027B0000400002030F3000014000020F8B50546A6
:1027C000134803F04BF9134803F048F9104803F09D
:1027D00045F91148002403F0D3F8104F104EC5EB13
:1027E00005153B682A1903EB42033046B3F9DC16A2
:1027F000013403F0C5F80F2CF3D10A2003F0D8F808
:10280000034803F02BF9BDE8F8400A2003F0D0B8E4
:1028100058F30000C4F3000030F40000040000206E
:1028200044F400002DE9F04F8DB0064600F02AFE7A
:10283000034630460393FEF747FC3F4840F60A2420
:1028400041F20A3503F00AF9204604F58074FEF7D8
:10285000A7FBAC42F8D1394803F000F941F60A452C
:10286000204604F58074FEF7E5FBAC42F8D140F257
:102870004C4600250527B146DFF8C480DFF8C4B018
:10288000DFF8C4A04FF0410C4FEA5904CDE9004CE9
:1028900047234222594604A803F010FBD8F804103D
:1028A00004A801EB81018900FDF7B2FC41F20A3076
:1028B00000F0FAFD40F2FF1000F094FE012000F05D
:1028C0000DFE00F049FE002000F008FE4FF001026E
:1028D000D8F8003000209A7600F0A6FD00F04AFFFC
:1028E00003463246294650460097029303F048F8C3
:1028F000029B621BB3F5804F06D2012A12D92646ED
:10290000052705EB0609BDE7A6EB040303D0012B61
:1029100008D92546F4E7731B012B07F1FF3701D9CE
:10292000002FAFD10398FEF7CFFB2146074803F0F5
:1029300027F80DB0BDE8F08F4CF400005CF4000007
:102940000400002030F300006CF4000044F30000A9
:10295000044B00F5F3401B680C3003EB4000818012
:10296000704700BF040000200346054A03F5F34307
:1029700012680C3302EB43030248998803F000B855
:102980000400002044F300002DE9F04FB24EFBB0EC
:1029900019ACA04605460F460FCE0FC40FCE0FC48C
:1029A0003368AE48236003F059F8B8F80240B8F82D
:1029B000003004F5106606EB032604EB03242046E2
:1029C00004F58074FEF7ECFAB442F8D108F104087B
:1029D00022AB9845E9D1A24803F040F80DF1640814
:1029E000B8F80030B8F8024003F1090204F5905637
:1029F00006EB032604EB0224204604F58074FEF760
:102A000019FBB442F8D108F1040822AB9845E7D18C
:102A1000002F00F07183FBB205930E935A2303FB42
:102A200005F30F93059B093BDBB208934FF0010BB5
:102A30000027059C8B48214602F0A2FF0BFA04FAFE
:102A400019AB06930AF1FF3A00263446069BB3F809
:102A50000090B3F80280089B04EBC405F41AE4B2BA
:102A60004C4408EB0424204600F01EFD504600F0C4
:102A7000B9FD012000F032FD00F06EFD002000F0F5
:102A80002DFD794BC4F342101B68013683F81AB050
:102A900000F0CAFC00F06EFEEB197AAA02EB4303C9
:102AA00023F8B40C80B236AAC0F50040154401F0FA
:102AB00017FD0BF0C3FF66A3D3E9002301F0A4FECA
:102AC00001F08AFF059BF4B2A342E855C3D2069BEE
:102AD00001370433092F0693B6D1644802F050FF42
:102AE000634C204602F04CFF7B1E13F0FF07F8D129
:102AF0000A2002F05DFF5F4802F042FF5E4D19AC14
:102B00006288284634F8041B02F03AFF22AB9C424C
:102B1000F6D10A2002F04CFF544802F031FF09249C
:102B2000534D284602F02CFF631E13F0FF04F8D12A
:102B30000A2002F03DFF9DF914B0BBF1000F22DB2B
:102B40005F4651AB0BEBCB0603EB4606059BDFF86C
:102B50002C914B4DABEB030839464846B246123E2A
:102B600002F00EFF344634F8021F284602F008FF38
:102B7000A245F8D10A2002F01BFFB84507F1FF3348
:102B800001D01F46E8E7394802F0FAFE0924384D23
:102B9000284602F0F5FE631E13F0FF04F8D10A2068
:102BA00002F006FF314802F0EBFE0924304D2846C2
:102BB00002F0E6FE631E13F0FF04F8D10A2002F0D3
:102BC000F7FE2C4802F0DCFE2B4D19AC628828463B
:102BD00034F8041B02F0D4FE22AB9C42F6D10A204A
:102BE00002F0E6FE214802F0CBFE0924204D2846E3
:102BF00002F0C6FE631E13F0FF04F8D10A2002F0B3
:102C0000D7FEBBF1000F3FDB5F460DF1E1030BEB9D
:102C1000CB061E44059BDFF864901A4DABEB03080E
:102C200039464846B246093E02F0AAFE344614F838
:102C3000011B284602F0A4FEA245F8D10A2002F0AA
:102C4000B7FE474507F1FF331ED01F46E8E700BF38
:102C5000EF39FAFE422EE63F80F90000A8F40000AA
:102C6000C8F40000E4F40000040000202CF600008A
:102C700030F6000008F500001CF500002CF50000FF
:102C800038F5000048F50000984802F079FE092464
:102C9000974D2846013C02F073FE14F0FF04F8D172
:102CA0000A2002F085FEBBF1000FC0F2158222ABB4
:102CB000059E03EBCB0A10AB5B440A939846731C4A
:102CC0001F46ABEB060510A91A464819FF210C93C5
:102CD000CDF82CA002F0E6FD13A93A46481921468A
:102CE00002F0E0FD22AB03EBC500FA00214602F042
:102CF000D9FD0DF14B035B449B1B09930BEBCB06FA
:102D000036AB1E444FEACB030D9313ABD94603EB0E
:102D10000B07ADE0254688F80040002C40F0AD8060
:102D2000002200237078A04284BF38700446CDE9A9
:102D3000062301F0C5FBDDE9062301F085FA024612
:102D40000B46B078CDE90623A8423CBF054688F87B
:102D50000000A04284BF3870044601F0B1FBDDE9F9
:102D6000062301F071FA02460B46F078CDE90623FE
:102D7000A8423CBF054688F80000A04284BF3870D6
:102D8000044601F09DFBDDE9062301F05DFA0246F1
:102D90000B463079CDE90623A8423CBF054688F8AA
:102DA0000000A04284BF3870044601F089FBDDE9D1
:102DB000062301F049FA02460B467079CDE9062355
:102DC000A8423CBF054688F80000A04284BF387086
:102DD000044601F075FBDDE9062301F035FA0246F1
:102DE0000B46B079CDE90623A8423CBF054688F8DA
:102DF0000000A04284BF3870044601F061FBDDE9A9
:102E0000062301F021FA02460B46F079CDE90623AC
:102E1000A8423CBF054688F80000A04284BF387035
:102E2000044601F04DFBDDE9062301F00DFA0246F0
:102E30000B46307ACDE90623A84238BF88F8000057
:102E4000A0428CBF07F8010907F1FF3701F038FBFA
:102E5000DDE9062301F0F8F9264B002201F0D4FC4D
:102E60006AE80201099B093EBB4208F1FF3815D010
:102E70003478FF2C7FF44EAF254620463C7001F09D
:102E80001FFB0022002301F0DFF9024670780B4699
:102E9000A0423CBF054688F8000044E70DF1580AFF
:102EA0000AEB0B06B0465C460A9D0B9F4FFA8BF36C
:102EB00014E02B7812F8012C9A4214D3D7E90001C0
:102EC00001F08AFD88F80000013C63B2002BA7F1F5
:102ED000080708F1FF3805F1FF350DDB13AA22447E
:102EE000002BE6D12B780AF80430EDE72CF6000031
:102EF00030F6000000002240824802F0AFFD824C14
:102F0000824802F0ABFD7F4802F0A8FDDDE90A57D8
:102F100013AB13F809304946009315F801392046E0
:102F2000019316F8013909F1FF39029377E802237A
:102F300002F026FD19F0800FEAD0724802F08EFDF3
:102F400041F24C4001220D9B0F9F059E70495B444E
:102F50001AF80B403B4409683344751E034402FAD7
:102F600004F401EB43036DB2C4F500449C806B1C78
:102F700000F0A48005EBC5031AF805403B44334438
:102F8000034402FA04F4C4F5004401EB43039C80BB
:102F9000B41E64B23546661C00F0908004EBC40396
:102FA0003B441AF804402B44034402FA04F401EBB6
:102FB0004303C4F500449C80EC1E64B2631C7DD0C6
:102FC00004EBC4033B441AF804402B44034402FAC4
:102FD00004F401EB4303C4F500449C802C1F64B24D
:102FE000631C6BD004EBC4033B441AF804402B442D
:102FF000034402FA04F401EB4303C4F500449C804B
:103000006C1F64B2631C59D004EBC4033B441AF830
:1030100004402B44034402FA04F401EB4303C4F5D7
:1030200000449C80AC1F64B2631C47D004EBC40313
:103030003B441AF804402B44034402FA04F401EB25
:103040004303C4F500449C80EC1F64B2631C35D07C
:1030500004EBC4033B441AF804402B44034402FA33
:1030600004F401EB4303C4F500449C80A5F108037C
:103070005BB25C1C22D003EBC3041AF8033002FAE3
:1030800003F3E2192A44024401EB4202C3F5004370
:103090009380089AFF2A53B210D01AF80300059AB9
:1030A00003EBC3033B441344012203F5A2530C3347
:1030B000824001EB4303C2F500429A80089B9DF8D1
:1030C00030200133DBB208930E9B05929342BFF48C
:1030D000ADAC7BB0BDE8F08F059B0A4801330C9383
:1030E00002F0BCFC094802F0B9FC064802F0B6FC4C
:1030F000044802F0B3FCE1E709230E930123059392
:103100008CE400BF74F5000050F50000A8F5000045
:10311000040000202DE9F84380461F4802F09EFC81
:103120001E4802F09BFC1C4802F098FC5A2309251B
:1031300003FB08F8DFF868901A4F2946484605EB6C
:10314000C506012402F01CFC464404E0013402F0F0
:1031500017FC0A2C11D0331903F5A253A5421248CB
:1031600003F10C03F2DC3A68104802EB4303998840
:10317000013402F005FC0A2CEDD12046013D02F09D
:1031800017FC6B1CD9D1044802F068FC2046BDE84E
:10319000F84302F00DBC00BFDCF5000040F6000073
:1031A000A4F6000004000020B0F600003CF500008A
:1031B0002DE9F04182B000F065F980465A4802F0EE
:1031C0004DFC5A485A4D02F049FC5A4802F046FC60
:1031D000564802F043FC2E685748B38872883188FD
:1031E000F6880024009602F0CBFB2E685348B38982
:1031F00072893189F689524F009602F0C1FB2E6820
:103200005048B38A728A318AF68A009602F0B8FB77
:103210004D4A2B6811461B8B4C48009202F0B0FBC4
:10322000424802F01BFC0A2002F0C2FB414648481B
:1032300002F0A6FB474802F011FC474802F00EFCE2
:10324000444802F00BFC2968444801EB480303F5AD
:103250007042B2F81C63414491F83B21B3F85C32F0
:10326000C97E009602F08CFB3A4802F0F7FB0A2078
:1032700002F09EFB41463A4802F082FB394802F0D8
:10328000EDFB394802F0EAFB364802F0E7FB2B6819
:103290003648434493F8BC2593F89C1402F070FB25
:1032A000304802F0DBFBC8EB08160A2002F080FB76
:1032B0002A68730003F2DC6341461A442C4802F08A
:1032C0005FFB2C4802F0CAFB2B4802F0C7FB2948E1
:1032D00002F0C4FB294802F053FB2B68321903EBC0
:1032E00042033846B3F9DC16013402F049FB0F2CD7
:1032F000F3D10A2002F05CFB1E4802F0AFFB0A206B
:1033000002F056FBB42442F69C0304FB08332A68FF
:1033100041461A441A4802F033FB404602B0BDE869
:10332000F041FFF7F7BE00BFBCF60000E0F600007A
:10333000040000201CF7000058F7000080F7000090
:1033400044F40000A8F70000D0F70000D8F7000010
:1033500000F800002CF8000054F800007CF8000091
:103360009CF80000C8F80000E0F80000F8F8000041
:103370000CF9000058F30000C4F3000030F4000022
:1033800040F900002DE9F04104460125FDF752FE09
:10339000204600F089F8284600F024F9DFF868801C
:1033A000284600F09BF800F0D7F8002000F096F8CF
:1033B000D8F80030C4F342179D76384600F034F850
:1033C00000F0D8F906462046FDF7EAFD204600F059
:1033D0006BF8284600F006F9284600F07FF800F068
:1033E000BBF8002000F07AF8D8F8003038469D7617
:1033F00000F01AF800F0BEF93146BDE8F04102468F
:10340000024802F0BDBA00BF0400002074F90000B9
:10341000014BD86A704700BF00200140014B58683B
:10342000704700BF00200140044AC003536800F405
:10343000603023F46033184350607047002001402F
:10344000024B5868C0F3C230704700BF00200140F3
:10345000044A8004536800F47C0023F47C0318437E
:103460005060704700200140024B5868C0F385400F
:10347000704700BF00200140014B5862704700BFF9
:1034800000200140014B586A704700BF00200140F6
:10349000014B9862704700BF00200140014B986AC1
:1034A000704700BF00200140054902020B681B0C59
:1034B0001B0443EA102390B203430B60704700BF24
:1034C00000200140044B18681B68C0B2C3F30723F7
:1034D00003EB0020704700BF00200140164B10B5E1
:1034E0001A680446510007D4134A136823F00043B6
:1034F00043EAC473136010BD1A68002A05DB0E4A44
:10350000136823F080431360EEE71A68520005D475
:10351000094A136823F000431360F0E71B68002B8F
:1035200005DB054A136823F080431360F0E70020B1
:10353000FFF7D4FFF5E700BF00200140014B1868FA
:10354000C00F704700200140024B5868C0F38070E4
:10355000704700BF00200140034A136883F4002332
:103560001360BFF36F8F704700200140044A0004CE
:10357000936800F47F0023F47F0318439060704742
:1035800000200140024B9868C0F30740704700BF1D
:1035900000200140044A0006536800F0807023F0C8
:1035A000807318435060704700200140024B5868F8
:1035B000C0F30060704700BF00200140044A0004CF
:1035C000136800F4E02023F4E023184310607047F0
:1035D00000200140024B1868C0F30240704700BF52
:1035E00000200140044A136823F0FF5323F48013A2
:1035F00043EA00531360704700200140024B1868F3
:10360000C0F30850704700BF00200140024B5868CB
:10361000C0F34070704700BF00200140044A00031F
:10362000536800F4805023F480531843506070476F
:1036300000200140024B5868C0F30030704700BFC3
:1036400000200140044A8002536800F4406023F4E3
:10365000406318435060704700200140024B586897
:10366000C0F38120704700BF00200140014BD868A3
:10367000704700BF002001401B4B10B51A6804467C
:10368000002A09DB184AA407136804F0804423F0D9
:1036900080431C43146010BD1A68510005D4124ABF
:1036A000136823F000431360ECE71A68002A05DB77
:1036B0000D4A136823F080431360F0E71A68520044
:1036C00005D4094A136823F000431360F0E71B6830
:1036D000002B05DB044A136823F080431360F0E7F6
:1036E0000020FFF7FBFEF5E700200140024B1868C1
:1036F000C0F38070704700BF00200140014B586844
:10370000C00F704700200140074A136843F0005380
:103710001360BFF36F8F136823F000531360536877
:10372000002BFCDA704700BF00200140034A80B242
:1037300093681B0C1B0403439360704700200140F7
:10374000014B986880B2704700200140044A400253
:10375000536800F4007023F40073184350607047FE
:1037600000200140024B5868C0F34020704700BF62
:1037700000200140024B186AC0F30E00704700BFE2
:1037800000200140C04301220849C0F3C20C4B692C
:1037900002FA0CF223F47F73013A00F0070023F0E1
:1037A000030300EBC200184348617047002001404A
:1037B000074B5A6912F47E7FC2F3C60302F007007A
:1037C00003D05B0800F10800FBD1C0F13F00704757
:1037D00000200140C04301220849C0F3C20C8B699C
:1037E00002FA0CF223F47F73013A00F0070023F091
:1037F000030300EBC20018438861704700200140BA
:10380000074B9A6912F47E7FC2F3C60302F00700E9
:1038100003D05B0800F10800FBD1C0F13F00704706
:1038200000200140054AC0F30E00D36923F4FF4392
:1038300023F07F030343D361704700BF00200140A2
:10384000024BD869C0F30E00704700BF0020014052
:10385000044AC0015368C0B223F08003184350608B
:10386000704700BF00200140024B5868C0F3C010F1
:10387000704700BF00200140044A0002536800F472
:10388000807023F48073184350607047002001401B
:10389000024B5868C0F30020704700BF0020014071
:1038A000044A4006536800F0007023F00073184388
:1038B0005060704700200140024B5868C0F34060E0
:1038C000704700BF00200140044A8003536800F4A1
:1038D000804023F48043184350607047002001402B
:1038E000024B5868C0F38030704700BF0020014091
:1038F000044B5A6882F400525A605A6882F40052AB
:103900005A60704700200140024B5868C0F3C06005
:10391000704700BF00200140014B9869704700BF0D
:1039200000300140024A136843F0004313607047BF
:1039300000300140024A136823F0004313607047CF
:103940000030014030B4164D2C68C0B924F000544A
:103950002C60CBB9124B1C6824F47F5C2CF03F0C1C
:103960004CEA010119600E4B023043F820201A681E
:1039700082F080421A60BFF36F8F30BC704744F012
:1039800000542C60002BE5D0054CC1F57F51236815
:103990003F3123F47F5323F03F030B432360E2E7DF
:1039A0000030014010B4144C236898B923F0005340
:1039B0002360A2B9104A136823F47F5323F03F0316
:1039C00019431160BFF36F8F0B4B043053F8200085
:1039D00010BC704743F000532360002AEAD0064A27
:1039E000C1F57F5113683F3123F47F5323F03F0328
:1039F00019431160E6E700BF00300140074A136831
:103A000040B923F400131360044A136883F0806301
:103A10001360704743F400131360F5E70030014072
:103A2000074A136840B923F400131360044A13686B
:103A300083F080531360704743F400131360F5E77D
:103A4000003001409AB9134A136823F47F5323F0DE
:103A50003F03194311600F4A1368B8B923F40013E8
:103A600013600C4A136883F0006313607047094ABF
:103A7000C1F57F5113683F3123F47F5323F03F0397
:103A800019431160034A13680028E7D043F4001378
:103A90001360E6E700300140034A53681B0C1B0427
:103AA00003435360704700BF00300140024A13686F
:103AB00043F000731360704700300140024A1368FE
:103AC00023F000731360704700300140034A5368CD
:103AD00023F0604343EA4073536070470030014075
:103AE0000C4A61B9136823F47F5323F03F03184352
:103AF0001060084A136883F400031360704713686A
:103B0000C0F57F5023F47F533F3023F03F03184329
:103B10001060EEE7003001409AB9104A136823F4B0
:103B20007F5323F03F03184310600C4A136823F4BB
:103B3000E01343EA81411160136883F080731360DE
:103B40007047064AC0F57F5013683F3023F47F5317
:103B500023F03F0318431060E7E700BF0030014047
:103B600030B4134C256825F4E01C4CEA81412160F7
:103B7000216821F4703141EA823121606BB92368F8
:103B800023F47F5323F03F0318432060084A30BCDE
:103B9000136883F08073136070472368C0F57F500B
:103BA00023F47F5323F03F033F3018432060EDE7B9
:103BB00000300140034B00211A88586802FB02F2D2
:103BC00001F070BE700A002010B50E4C024623882A
:103BD000834207D160680021BDE8104002FB02F279
:103BE00001F060BE00FB00F16068228001F03EFF42
:103BF000228860600021BDE8104002FB02F201F063
:103C000051BE00BF700A0020014B5B681954704719
:103C1000700A00202DE9F041114D2A88EAB14FF0D9
:103C20000008104F7AB100241FFA88F66B68A1B221
:103C300006FB02333846595C01F0A2FE01342A88A3
:103C4000A3B29A42F2D80A2001F0B2FE08F10108AC
:103C50002A881FFA88F39A42E4D8BDE8F08100BFB1
:103C6000700A0020A4F90000022000220A4B03F58C
:103C7000F07103F8120C43F80E2C43F80A2C03F8E9
:103C8000062C23F8042C03F8022C1A601A7118333E
:103C90008B42EED1704700BF8A0A0020034B00EB35
:103CA000400003EBC0000172704700BF700A0020A3
:103CB000034B00EB400003EBC0004181704700BFA5
:103CC000700A0020034B00EB400003EBC000818131
:103CD000C2817047700A002010B4054C00EB400010
:103CE00004EBC000037510BC01824282704700BF24
:103CF000700A002000B5114A00EB400302EBC30339
:103D000093F808E01976BEF1010F4FEA400C06D097
:103D10005B8A604402EBC002D3825DF804FB93F837
:103D200014E099891B8A6044CB1A734493FBFEF319
:103D300002EBC0029BB2D3825DF804FB700A002044
:103D4000034B00EB400003EBC000418382837047CC
:103D5000700A0020034B00EB400003EBC0008177AA
:103D6000704700BF700A00202DE9F04F1D488BB04E
:103D700001F074FE1C4801F071FE1A4801F06EFE5D
:103D800000251A4CDFF8689022E0A17DA38A608AA2
:103D900094F810B0B4F80EA094F80C80B4F80AE0CF
:103DA000B4F808C0E788A688CDE90831079029460D
:103DB00063884846CDE905ABCDE903E8CDE9017C50
:103DC0000096013501F0DCFD142D04F1180402D039
:103DD0002278022AD9D103480BB0BDE8F04F01F098
:103DE0003DBE00BFACF9000018FA0000780A0020C0
:103DF00084FA000000232DE9F04F4FF0010B89B049
:103E0000DFF8C8A105930693009007939AF8003055
:103E1000022B00F0BB80069B002B78D16C4B5B68BB
:103E20000693059B13B1184601F088FA0421BAF8ED
:103E30000E0000F001FE0346BAF802000593FDF7FC
:103E400043F9BAF80430002B36D0009B5D1E0023E6
:103E50000393069BEDB25A1E1D4401925F424FF040
:103E60000009039B1B020493009B93B14FF00008D1
:103E700001990BFA09F411F8013F234204D0CB1940
:103E80000BFA03F348EA0308A942F4D1B8F1000F92
:103E90001FD109F10109B9F1080FE5D1009A039981
:103EA0000198BAF80430114410448B420391154430
:103EB0000190A7EB0207D2D89AF81030002B44D11A
:103EC000079B0AF1180A0133142B07939ED1132381
:103ED0005EE0BAF80E100029DBD00024059B0295A5
:103EE0004546DDF810801E1F002104EB08002A461D
:103EF000FDF788FC56F8043FBAF80E10013400FABA
:103F000009F00344A1423360EED8029DC1E71A468E
:103F10002F4B5B68934202D0104601F00FFABAF8BB
:103F200004400121204600F087FD0690002C3FF45C
:103F300078AF0599421E0B4601EB840053F8041B31
:103F4000984202F8011FF9D16BE7BAF80E10002968
:103F5000B6D0059B00251A4603EB810152F8043BBD
:103F6000002B0EDBBAF81240BAF8140093FBF4F3FE
:103F70009142034442F8043CA2D052F8043B002B87
:103F8000F0DA914242F8045CE8D199E7079B013BE3
:103F90000F4A03EB430302EBC303DA8A92B1002317
:103FA0004FF000411846059C54F823505C1C8D428C
:103FB000E6B2C4BF18462946B242E3B2F3D809B00C
:103FC000BDE8F08F104609B0BDE8F08F780A0020F8
:103FD000700A002070B516463AB14C1EA51814F8A8
:103FE000010F00F021F8AC42F9D1304670BD00BF9E
:103FF0000B203021084B10B41B68084C084AA4FB66
:1040000003435B0C1361074B90609961D36810BC4C
:1040100043F00203D36070470C000020C5B3A291A7
:104020000060004000100140024A5368DB07FCD4E6
:104030001060704700600040034A53689B07FCD53E
:104040001068C0B2704700BF00600040034A536868
:10405000DB07FCD404231360FEE700BF00600040D0
:10406000036843F008030360704700BF036823F050
:1040700008030360704700BF036843F00103036057
:10408000704700BF036823F001030360704700BF5F
:104090004068704741607047806870478160704732
:1040A0000123C360704700BFC068704700230360EE
:1040B0004160816012B109230360704701230360EE
:1040C000704700BF002303604160816012B10D237F
:1040D0000360704705230360704700BF002303603F
:1040E0004160816012B10B230360704703230360BA
:1040F000704700BF003A18BF01220BB142F0020224
:10410000009B0BB142F00402019B0BB142F008028C
:10411000029B0BB142F01002039B0BB142F0200254
:104120000023836001618260436813F00C0F14BFA9
:1041300001200020704700BF4068C0F34000704776
:10414000406800F0010070474368DB07FCD4016061
:10415000704700BF43689B07FCD50068C0B270473A
:104160004068C0F3810070470C2343604068C0F38F
:104170008100704700697047C06800F00100704717
:10418000C068C0F3400070470123C360704700BFA0
:104190000223C360704700BF0161704741617047EF
:1041A0000069704781617047C161704780697047DD
:1041B00001238B408363806B704700BF01238B40DA
:1041C0000362006A704700BF01238B404362406A6C
:1041D000704700BF012303FA01F1C1620163704718
:1041E000012303FA01F1816201637047012303FA9D
:1041F00001F1C16241637047012303FA01F1816259
:1042000041637047D3B2C2F3072203F5807302F50E
:10421000007240F8231040F822107047014B024A08
:104220001A6070470C0000200024F400014B024A81
:104230001A6070470C0000200024F40081F0004157
:1042400002E000BF83F0004330B54FEA41044FEA7B
:10425000430594EA050F08BF90EA020F1FBF54EA16
:10426000000C55EA020C7FEA645C7FEA655C00F0B2
:10427000E2804FEA5454D4EB5555B8BF6D420CDD83
:104280002C4480EA020281EA030382EA000083EA06
:10429000010180EA020281EA0303362D88BF30BDA6
:1042A00011F0004F4FEA01314FF4801C4CEA1131FC
:1042B00002D0404261EB410113F0004F4FEA03335B
:1042C0004CEA133302D0524263EB430394EA050FE6
:1042D00000F0A780A4F10104D5F1200E0DDB02FA55
:1042E0000EFC22FA05F2801841F1000103FA0EF2E9
:1042F000801843FA05F359410EE0A5F120050EF1AF
:10430000200E012A03FA0EFC28BF4CF0020C43FADF
:1043100005F3C01851EBE37101F0004507D54FF0EC
:10432000000EDCF1000C7EEB00006EEB0101B1F53C
:10433000801F1BD3B1F5001F0CD349085FEA300082
:104340004FEA3C0C04F101044FEA445212F5800F8D
:1043500080F09A80BCF1004F08BF5FEA500C50F12A
:10436000000041EB045141EA050130BD5FEA4C0C0D
:10437000404141EB0101013C28BFB1F5801FE9D26A
:1043800091F0000F04BF01460020B1FA81F308BF8D
:104390002033A3F10B03B3F120020CDA0C3208DD59
:1043A00002F1140CC2F10C0201FA0CF021FA02F134
:1043B0000CE002F11402D8BFC2F1200C01FA02F1A4
:1043C00020FA0CFCDCBF41EA0C019040E41AA2BFC9
:1043D00001EB0451294330BD6FEA04041F3C1CDA91
:1043E0000C340EDC04F11404C4F1200220FA04F0B1
:1043F00001FA02F340EA030021FA04F345EA03015B
:1044000030BDC4F10C04C4F1200220FA02F001FA1C
:1044100004F340EA0300294630BD21FA04F029469E
:1044200030BD94F0000F83F4801306BF81F4801137
:104430000134013D4EE77FEA645C18BF7FEA655CAA
:1044400029D094EA050F08BF90EA020F05D054EA7C
:10445000000C04BF1946104630BD91EA030F1EBF81
:104460000021002030BD5FEA545C05D14000494185
:1044700028BF41F0004130BD14F580043CBF01F578
:10448000801130BD01F0004545F0FE4141F470015E
:104490004FF0000030BD7FEA645C1ABF1946104639
:1044A0007FEA655C1CBF0B46024650EA013406BF3A
:1044B00052EA033591EA030F41F4002130BD00BFF9
:1044C00090F0000F04BF0021704730B54FF48064B6
:1044D00004F132044FF000054FF0000150E700BF37
:1044E00090F0000F04BF0021704730B54FF4806496
:1044F00004F1320410F0004548BF40424FF0000183
:104500003EE700BF42004FEAE2014FEA31014FEAC5
:1045100002701FBF12F07F4393F07F4F81F0605114
:10452000704732F07F4208BF704793F07F4F04BF5F
:1045300041F40021704730B54FF4607401F000453C
:1045400021F000411CE700BF50EA010208BF70479C
:1045500030B54FF000050AE050EA010208BF70478D
:1045600030B511F0004502D5404261EB41014FF4F6
:10457000806404F132045FEA915C3FF4D8AE4FF0FE
:1045800003025FEADC0C18BF03325FEADC0C18BFE1
:10459000033202EBDC02C2F1200300FA03FC20FA32
:1045A00002F001FA03FE40EA0E0021FA02F114447F
:1045B000BDE600BF70B54FF0FF0C4CF4E06C1CEA98
:1045C00011541DBF1CEA135594EA0C0F95EA0C0F09
:1045D00000F0DEF82C4481EA030621EA4C5123EA7C
:1045E0004C5350EA013518BF52EA033541F48011AB
:1045F00043F4801338D0A0FB02CE4FF00005E1FB5E
:1046000002E506F00042E0FB03E54FF00006E1FBA7
:1046100003569CF0000F18BF4EF0010EA4F1FF04EA
:10462000B6F5007F64F5407404D25FEA4E0E6D412A
:1046300046EB060642EAC62141EA55514FEAC5203B
:1046400040EA5E504FEACE2EB4F1FD0C88BFBCF5B7
:10465000E06F1ED8BEF1004F08BF5FEA500E50F168
:10466000000041EB045170BD06F0004646EA01012E
:1046700040EA020081EA0301B4EB5C04C2BFD4EB60
:104680000C0541EA045170BD41F480114FF0000E59
:10469000013C00F3AB8014F1360FDEBF002001F0C7
:1046A000004170BDC4F10004203C35DA0C341BDC41
:1046B00004F11404C4F1200500FA05F320FA04F013
:1046C00001FA05F240EA020001F0004221F0004147
:1046D00010EBD37021FA04F642EB06015EEA430EBA
:1046E00008BF20EAD37070BDC4F10C04C4F12005EA
:1046F00000FA04F320FA05F001FA04F240EA02009D
:1047000001F0004110EBD37041F100015EEA430E6D
:1047100008BF20EAD37070BDC4F1200500FA05F28D
:104720004EEA020E20FA04F301FA05F243EA02030C
:1047300021FA04F001F0004121FA04F220EA02001B
:1047400000EBD3705EEA430E08BF20EAD37070BD61
:1047500094F0000F0FD101F00046400041EB010141
:1047600011F4801F08BF013CF7D041EA060195F023
:10477000000F18BF704703F00046520043EB0303DD
:1047800013F4801F08BF013DF7D043EA06037047CA
:1047900094EA0C0F0CEA135518BF95EA0C0F0CD0D5
:1047A00050EA410618BF52EA4306D1D181EA03011B
:1047B00001F000414FF0000070BD50EA410606BF15
:1047C0001046194652EA430619D094EA0C0F02D15A
:1047D00050EA013613D195EA0C0F05D152EA03369F
:1047E0001CBF104619460AD181EA030101F00041BD
:1047F00041F0FE4141F470014FF0000070BD41F006
:10480000FE4141F4780170BD70B54FF0FF0C4CF4DF
:10481000E06C1CEA11541DBF1CEA135594EA0C0FFE
:1048200095EA0C0F00F0A7F8A4EB050481EA030E4B
:1048300052EA03354FEA013100F088804FEA033332
:104840004FF0805545EA131343EA12634FEA022200
:1048500045EA111545EA10654FEA00260EF00041C1
:104860009D4208BF964244F1FD0404F5407402D213
:104870005B084FEA3202B61A65EB03055B084FEAA4
:1048800032024FF480104FF4002CB6EB020E75EBA1
:10489000030E22BFB61A754640EA0C005B084FEAC9
:1048A0003202B6EB020E75EB030E22BFB61A754646
:1048B00040EA5C005B084FEA3202B6EB020E75EB91
:1048C000030E22BFB61A754640EA9C005B084FEA09
:1048D0003202B6EB020E75EB030E22BFB61A754616
:1048E00040EADC0055EA060E18D04FEA051545EA05
:1048F00016754FEA06164FEAC30343EA52734FEAAE
:10490000C2025FEA1C1CC0D111F4801F0BD141EA26
:1049100000014FF000004FF0004CB6E711F4801F8B
:1049200004BF01430020B4F1FD0C88BFBCF5E06F6B
:104930003FF6AFAEB5EB030C04BFB6EB020C5FEA7B
:10494000500C50F1000041EB045170BD0EF0004ED0
:104950004EEA113114EB5C04C2BFD4EB0C0541EA02
:10496000045170BD41F480114FF0000E013C90E6FF
:1049700045EA060E8DE60CEA135594EA0C0F08BFC3
:1049800095EA0C0F3FF43BAF94EA0C0F0AD150EAC2
:1049900001347FF434AF95EA0C0F7FF425AF104655
:1049A00019462CE795EA0C0F06D152EA03353FF47D
:1049B000FDAE1046194622E750EA410618BF52EAFA
:1049C00043067FF4C5AE50EA41047FF40DAF52EACE
:1049D00043057FF4EBAE12E74FEA410212F50012F5
:1049E00015D211D56FF47873B3EB625212D94FEA36
:1049F000C12343F0004343EA505311F0004F23FA20
:104A000002F018BF404270474FF00000704750EA74
:104A1000013005D111F0004008BF6FF00040704731
:104A20004FF00000704700BF0A22002101F0D2BB06
:104A30000A23002201F0AABB03460A46024908687D
:104A4000194600F003B800BF1400002010B502FBA7
:104A500001F100F07BFC044668B150F8042C22F010
:104A60000302043A242A18D8132A06D8024600233F
:104A7000C2E900339360204610BD00231B2AC0E921
:104A800000330FD9242AC0E9023311BF00F110020C
:104A9000036100F118024361E9E7002100F002FF21
:104AA000204610BD00F10802E1E700BF08B5002173
:104AB000044605F039F8044B1868C36B03B19847F6
:104AC00020460AF041FA00BFD8FA0000B1F90C20E4
:104AD000F8B50C461107074643D4636842F40062F8
:104AE000002BA2815BDDA56A002D56D000233E6815
:104AF0003B6093B212F4805255D101233846E169EC
:104B0000A847421C65D0A389A56A5B0705D56368E1
:104B1000C01A236B0BB1E36BC01A0246E169002394
:104B20003846A847411C40D13B68002B3DD01D2B87
:104B300001D0162B54D10022A38923F40063A38152
:104B40002369C4E90032216B3E6031B304F14003B4
:104B5000994202D0384600F06DFA002318462363CC
:104B6000F8BD2669CEB193B29A0718BF0023256815
:104B700008BF63692660AD1BA3600CE02B4632467C
:104B8000D4F824C03846E169E047B0F1000CA5EB49
:104B90000C05664416DD002DF0DC0020F8BDE36B4B
:104BA000002BA0DCF9E7206DAFE70022B4F90C3050
:104BB000626023F400632269A381DB042260C2D512
:104BC0002065C0E7A3894FF0FF3043F04003A38185
:104BD000F8BD3B68002B96D01D2B06D0162B04D0B9
:104BE000A38943F04003A381F8BD00203E60F8BDD7
:104BF00038B505460C4608B1836BA3B1B4F90C0077
:104C0000B8B1636EDB0701D4810515D5284621466E
:104C1000FFF75CFF636E0546DA0702D4A3899B05A4
:104C20000ED5284638BD00F08FF8B4F90C000028E6
:104C3000E7D10546284638BDA06D00F06DFBE5E7DD
:104C4000A06D00F071FB284638BD00BF38B548B3F1
:104C5000184B04461D680DB1AB6BBBB1B4F90C0029
:104C600088B1636EDB0701D4810513D52846214640
:104C7000FFF72CFF636E0546DA0702D4A3899B0574
:104C80000CD5284638BD0546284638BD284600F0D4
:104C90005BF8E3E7A06D00F03FFBE7E7A06D00F0F5
:104CA00043FBEEE7044B05491868BDE8384000F0C7
:104CB000E1BA00BF14000020D8FA0000F14B000058
:104CC000014900F0D7BA00BF21AC000008B5436E1F
:104CD000DA0702D483899B0501D5002008BD806DC9
:104CE00000F01AFB002008BD08B5436EDA0702D4B5
:104CF00083899B0501D5002008BD806D00F014FB61
:104D0000002008BD682270B54D1E02FB05F50E4659
:104D100005F1740100F01AFB044640B100210C308B
:104D2000C4E9016005F16802216000F0BBFD204686
:104D300070BD00BF024B0349186800F09BBA00BF6A
:104D4000D8FA000021AC00002DE9F047824639482E
:104D500000F0E2FADAF83840002C66D1042303228E
:104D60003549DAF80450CAF83C10DFF8D090DFF883
:104D7000D080344F344E0AF53B71CAE9B921CAF8E4
:104D8000E0422146EB600822C5E90044C5E904443D
:104D90006C66AC60AC6105F15C0000F083FDC5E9B8
:104DA0000759C5E90987EE6205F1580000F0ACFA31
:104DB000DAF80850254B2146EB600822C5E900448B
:104DC000C5E904446C66AC60AC6105F15C0000F0C0
:104DD00069FDC5E90759C5E90987EE6205F1580083
:104DE00000F092FADAF80C50194B2146EB600822D9
:104DF000C5E90044C5E904446C66AC60AC6105F1EA
:104E00005C0000F04FFD05F15800C5E90759C5E900
:104E10000A76C5F8248000F077FA01230548CAF81D
:104E20003830BDE8F04700F07FBA0248BDE8F047EF
:104E300000F07ABA740C0020C14C0000015F000041
:104E4000295F0000695F0000895F00000900010020
:104E5000120002002DE9F04107462D4800F05CFAEF
:104E60002C4B1E68B36B93B34FF0040806F53876ED
:104E7000D6E90134013B04D525E05A1C04F168044D
:104E800021D0B4F90C50013B002DF6D1224B04F196
:104E90005800E360656600F037FA1D4800F044FAF8
:104EA00008222946C4E90155C4E904552560A561D5
:104EB00004F15C0000F0F6FCC4E90C55C4E911559E
:104EC0002046BDE8F08135682DB12E46D0E730464A
:104ED000FFF73AFFC8E74FF4D671384600F036FACC
:104EE000044668B1056029460546C0F804800C30C8
:104EF0004FF4D072A06000F0D5FC34602E46B7E7C6
:104F00000348346000F010FA0C233B60D8E700BF80
:104F1000700C0020D8FA00000100FFFF014800F0EB
:104F2000FBB900BF700C0020014800F0FDB900BFC4
:104F3000700C0020014800F0EFB900BF740C002095
:104F4000014800F0F1B900BF740C002008B5054815
:104F500000F0E2F9044B05491868BDE8084000F08C
:104F600069B900BF700C002014000020CD4C000077
:104F700008B5054B0549186800F05CF9BDE8084024
:104F8000034800F0D1B900BF14000020E94C000034
:104F9000700C0020F8B50C46234F064600F0D4FCF8
:104FA000BB685D68C4F57E6325F003050F332B44B1
:104FB00023F47F6323F00F03A3F58054B4F5805FDF
:104FC00007DB0021304600F049FFBB682B449842C4
:104FD00004D0304600F0BEFC0020F8BD30466142EF
:104FE00000F03CFF01300DD0104ABB682D1B45F08E
:104FF00001055D60136830461B1B136000F0AAFCBE
:105000000120F8BD0021304600F028FFBA68831A5D
:105010000F2BDEDD43F001035360054B03491B6892
:10502000C01A0860D5E700BF400400207C0C0020B7
:105030004808002000295ED0F8B50C46064600F06E
:1050400083FC54F8042C784FA4F1080522F00101E8
:105050006818D7F808C04368844523F0030300F0BC
:105060008780D207436034D454F8082C07F1080431
:10507000AD1A1144AA68A24268D000EB030CDCF818
:1050800004E0D5F80CC01EF0010FC2F80CC0CCF83B
:10509000082000F0918041F001036B600160B1F5E0
:1050A000007F31D24A09CB08012191407A6801334F
:1050B0001143796007EBC30257F83310083AC5E98A
:1050C000021247F83350CD603046BDE8F84000F09A
:1050D00041BCC2185268D2070ED4194407F1080423
:1050E0008368A34270D0C268DA60936041F0010324
:1050F0006B606950D3E7704741F00103B1F5007F61
:1051000044F8043C0160CDD3B1F5206F4FEA512340
:1051100047D28B0903F1390003F13802C300F818B4
:10512000FB580838984258D05A6822F003028A4245
:1051300002D99B689842F7D1D868C5E902308560EA
:105140003046DD60BDE8F84000F004BCC21852688B
:10515000D20763D40B44D0E90212CA60916043F0D5
:1051600001026A603046EB50BDE8F84000F0F2BB47
:105170000B44D10707D454F8082CAD1A1344D5E9D1
:105180000212CA60916043F001026A60274ABD6062
:1051900012689A4298D8264B30461968FFF7FAFEF3
:1051A00092E7142B0AD9542B1FD80B0B03F16F0075
:1051B00003F16E02C300B2E7194491E703F15C000A
:1051C00003F15B02C300AAE741F00103C7E90455FC
:1051D000C5E902446B60695076E70121921001FA3B
:1051E00002F279680A437A60A7E7B3F5AA7F06D886
:1051F000CB0B03F1780003F17702C3008FE740F295
:105200005452934206D88B0C03F17D0003F17C02CB
:10521000C30084E74FF47E737E2280E741F00103F0
:105220006B60016050E700BF400400204C08002084
:10523000AC0C00202DE9F0410026884600F53877B7
:10524000D7E90154013D0ED4A389013D012B06D9B4
:10525000B4F90E30013302D02046C04706436B1C20
:1052600004F16804F0D13F68002FE9D13046BDE871
:10527000F08100BF2DE9F8434FF00009074688464A
:1052800000F53876D6E90154013D10D4A389013DDB
:10529000012B08D9B4F90E30013304D02146384629
:1052A000C04749EA00096B1C04F16804EED1366876
:1052B000002EE7D14846BDE8F88300BF70B50D4E1B
:1052C0000D4D761BB61006D0002455F8043B013472
:1052D0009847A642F9D1094E094D09F037FE761BD1
:1052E000B61006D0002455F8043B01349847A64276
:1052F000F9D170BDC4090020C4090020CC090020E8
:10530000C4090020704700BF704700BF704700BF4E
:10531000704700BF704700BF704700BF0120704753
:1053200001207047704700BF704700BF024B014625
:10533000186800F00BB800BF14000020024B0146B3
:105340001868FFF777BE00BF140000202DE9F04F6A
:1053500001F10B05162D064683B025D8102900F261
:10536000B88000F0F1FA102518224FF0020CB54F6A
:105370003A445368A2F108018B4200F0B7805A68A2
:10538000D96822F003021A449C683046E1608C60C0
:10539000516803F1080441F00101516000F0DAFAAC
:1053A000204603B0BDE8F08F35F0070500F191808D
:1053B000A94200F28E8000F0C7FAB5F5FC7FC0F07C
:1053C00094816B0A00F08C80042B00F26A81AB0997
:1053D00003F1390C03F138044FEACC00994F3844FB
:1053E00043680838984206D10CE0002980F22681F3
:1053F000DB68984206D05A6822F00302511B0F293D
:10540000F3DDA4463C69DFF840E274457AD0626877
:1054100022F00302531B0F2B00F37681002BC7E908
:1054200004EE80F26781B2F5007F80F019810121DE
:10543000D30852090B4491407A6857F833000A4365
:1054400007EBC3010839A060E1607A6047F8334098
:10545000C46001214FEAAC039940914259D81142EE
:1054600006D12CF0030C490011420CF1040CFAD0C7
:1054700007EBCC0948466446D0F80C80404508D17B
:105480001CE1002B80F22181D8F80C80404500F00F
:105490001581D8F8042022F00302531B0F2BF0DDF6
:1054A00008EB050145F00105C8F804503046D8E97D
:1054B0000264F460A66043F00104C7E904114C6083
:1054C000C1E902EE48F8023000F044FA08F108049D
:1054D00002E00C2300243360204603B0BDE8F08FC7
:1054E0004FF400704FF0400C3F2477E7D3689A42A6
:1054F00008BF0CF1020C7FF442AF3C69DFF848E1D1
:10550000744584D101217A684FEAAC0399409142F5
:10551000A5D9BC68636823F003094D4503D8A9EBFE
:1055200005030F2B7ADCDFF824B1494BDBF80020B0
:105530001B6801322B4404EB090A00F02F8103F5AC
:1055400080530F3323F47F6828F00F08414630461C
:1055500000F084FC411C024600F0EF80824500F21E
:10556000EA803C4B196841440846196000F04981C3
:10557000DBF80010019301311BBFA2EB0A0A504473
:10558000CBF80020186012F0070B00F01181CBF16E
:1055900008010A44CBF5805190440831A1EB080181
:1055A000C1F30B0A51463046009200F057FC421CF2
:1055B000DDE9002300F04B81801A00EB0A0819682E
:1055C00048F001005144BC42BA601960506000F0DC
:1055D0002481B9F10F0F40F222814FF0050E60686F
:1055E000A9F10C0C2CF0070C00F0010040EA0C00B3
:1055F0006060BCF10F0F04EB0C00C0E901EE00F29B
:105600002E8114465068144B1A688A4238BF1960BC
:10561000124B1A688A4238BF196090E0621943F051
:10562000010345F0010565603046BA6008345360F7
:1056300000F090F9204603B0BDE8F08FD9681A4415
:10564000A2E600BF400400204804002048080020D3
:10565000AC0C00207C0C0020A40C0020A80C002026
:10566000B2F5206F4FEA52235FD3142B00F2B180C2
:1056700003F15C01C9005B33781879580838884217
:1056800000F08F804B6823F00303934202D98968AE
:105690008842F7D1C8687A68C4E902108460CC6097
:1056A000D7E6142B59D9542B00F29B802B0B03F116
:1056B0006F0C03F16E044FEACC008FE60134A307B0
:1056C00000F108007FF4D8AE53E0444642445368EA
:1056D000D8F80C1043F00103536054F8083F3046EB
:1056E000D9608B6000F036F9F6E64FEAD50C05F18B
:1056F00008023CE622445368304643F001035360FD
:1057000000F028F90834E7E6611945F00105656005
:1057100043F00105C7E904113046C1E902EE4D60CE
:10572000A35000F017F90834D6E6930903F13901C4
:10573000C9003833A0E7BC425ED0BC68606820F086
:1057400003084545A8EB050302D80F2B3FF766AFCA
:10575000304600F0FFF80024BEE603F15C0C03F1D4
:105760005B044FEACC0039E659F808394B4540F064
:1057700095801CF0030F0CF1FF3CF5D17B6823EA08
:1057800001037B60490099423FF6C3AE11B9C0E600
:10579000490004341942FBD0A44669E603F110081D
:1057A000D4E601229B109A407B681A437A6073E723
:1057B00002EB08014942C1F30B0A51463046009200
:1057C00000F04CFB431CDDE900237FF4F5AEDA4624
:1057D000F5E6542B26D8130B03F16F01C9006E3385
:1057E0004AE7B3F5AA7F26D8EB0B03F1780C03F157
:1057F00077044FEACC00F1E5294B18684044186063
:10580000B6E6CAF30B0CBCF1000F7FF4B1AEBC6876
:10581000C84448F001006060F5E61446F3E6012351
:10582000536095E7B3F5AA7F24D8D30B03F1780131
:10583000C900773320E740F25452934224D8AB0C8E
:1058400003F17D0C03F17C044FEACC00C6E5ABF11B
:10585000080BD8444FF0000AA8EB0208AFE604F1A9
:10586000080130460093FFF7E5FBBC68009B6068C9
:105870001968C8E640F254518B420BD8930C03F1DF
:105880007D01C9007C33F7E64FF47E704FF07F0C4A
:105890007E24A3E54FF47E717E23EDE67B6871E7FD
:1058A0007C0C0020830730B548D0541E002A3FD01E
:1058B0000346CAB201E0013C3AD303F8012B9D072D
:1058C000F9D1032C2DD9CDB245EA05250F2C45EA97
:1058D000054536D9A4F1100222F00F0C03F1200E79
:1058E000E6444FEA121C03F1100242E9045542E972
:1058F000025510327245F8D10CF1010214F00C0F70
:1059000003EB021204F00F0C13D0ACF1040323F0EC
:1059100003030433134442F8045B9342FBD10CF0BD
:1059200003042CB1CAB21C4403F8012B9C42FBD1E6
:1059300030BD64461346002CF4D1F9E70346144603
:10594000BFE71A46A446E0E70148FFF7E5BC00BF01
:105950006C0C00200148FFF7E7BC00BF6C0C002076
:105960000EB400B582B003AB53F8042B81680193E9
:1059700002F054FA02B05DF804EB03B0704700BFC8
:105980000FB400B5074A83B004AB106853F8042B7A
:105990008168019302F042FA03B05DF804EB04B0B1
:1059A000704700BF14000020826806F063BA00BF91
:1059B000024B01461868826806F05CBA14000020A9
:1059C00030B5054689B008460C4600F0E1FA0121E1
:1059D0000223214A04940692AA6B04AC0590084461
:1059E00001940791AC680293039022B3636E13F0A5
:1059F000010FB4F90C309AB201D1980525D5910464
:105A000006D4626E43F4005322F40052A38162660E
:105A1000284601AA214605F087F9636E002814BFC5
:105A20004FF0FF350A25DA0702D4A3899B0506D576
:105A3000284609B030BD2846FFF786F9D6E7A06DA5
:105A4000FFF772FC284609B030BDA06DFFF764FC7B
:105A5000B4F90C309AB2D2E764F00000024B014670
:105A60001868FFF7ADBF00BF1400002003460A46C8
:105A700002490868194600F003B800BF140000206E
:105A80002DE9F84F1646002900F0988006F10B0525
:105A900080460C46FFF758FF162D5DD810252A4684
:105AA000AE425ED854F8041CA4F1080921F00307A3
:105AB000974262DABC4B09EB0700D3F808C0844573
:105AC00000F09780D0F804C02CF0010303445B6819
:105AD000DB0768D42CF0030C07EB0C03934247DA86
